{
	"Kyc.sol": {
		"Kyc": {
			"abi": [
				{
					"inputs": [],
					"stateMutability": "nonpayable",
					"type": "constructor"
				},
				{
					"anonymous": false,
					"inputs": [
						{
							"indexed": false,
							"internalType": "address",
							"name": "custAddress",
							"type": "address"
						},
						{
							"indexed": false,
							"internalType": "bool",
							"name": "kycStatus",
							"type": "bool"
						}
					],
					"name": "customerAdded",
					"type": "event"
				},
				{
					"anonymous": false,
					"inputs": [
						{
							"indexed": false,
							"internalType": "address",
							"name": "custAddress",
							"type": "address"
						},
						{
							"indexed": false,
							"internalType": "bool",
							"name": "kycStatus",
							"type": "bool"
						}
					],
					"name": "customerUpdated",
					"type": "event"
				},
				{
					"anonymous": false,
					"inputs": [
						{
							"indexed": false,
							"internalType": "string",
							"name": "name",
							"type": "string"
						},
						{
							"indexed": false,
							"internalType": "address",
							"name": "ethAddress",
							"type": "address"
						}
					],
					"name": "orgAdded",
					"type": "event"
				},
				{
					"anonymous": false,
					"inputs": [
						{
							"indexed": false,
							"internalType": "address",
							"name": "ethAddress",
							"type": "address"
						}
					],
					"name": "orgRemoved",
					"type": "event"
				},
				{
					"anonymous": false,
					"inputs": [
						{
							"indexed": false,
							"internalType": "uint256",
							"name": "reqid",
							"type": "uint256"
						},
						{
							"indexed": false,
							"internalType": "address",
							"name": "ethAddress",
							"type": "address"
						}
					],
					"name": "requestRemoved",
					"type": "event"
				},
				{
					"inputs": [
						{
							"internalType": "string",
							"name": "_name",
							"type": "string"
						},
						{
							"internalType": "address",
							"name": "_ethAddress",
							"type": "address"
						}
					],
					"name": "addOrg",
					"outputs": [
						{
							"internalType": "bool",
							"name": "",
							"type": "bool"
						}
					],
					"stateMutability": "nonpayable",
					"type": "function"
				},
				{
					"inputs": [],
					"name": "admin",
					"outputs": [
						{
							"internalType": "address",
							"name": "",
							"type": "address"
						}
					],
					"stateMutability": "view",
					"type": "function"
				},
				{
					"inputs": [
						{
							"internalType": "uint256",
							"name": "_reqcount",
							"type": "uint256"
						},
						{
							"internalType": "address",
							"name": "_ethAddress",
							"type": "address"
						}
					],
					"name": "deleteRequestCust",
					"outputs": [],
					"stateMutability": "nonpayable",
					"type": "function"
				},
				{
					"inputs": [
						{
							"internalType": "uint256",
							"name": "_reqcount",
							"type": "uint256"
						}
					],
					"name": "deleteRequestOrg",
					"outputs": [
						{
							"internalType": "bool",
							"name": "",
							"type": "bool"
						}
					],
					"stateMutability": "nonpayable",
					"type": "function"
				},
				{
					"inputs": [],
					"name": "getYourOrgDetail",
					"outputs": [
						{
							"components": [
								{
									"internalType": "string",
									"name": "name",
									"type": "string"
								},
								{
									"internalType": "address",
									"name": "ethAddress",
									"type": "address"
								}
							],
							"internalType": "struct Kyc.Organization",
							"name": "",
							"type": "tuple"
						}
					],
					"stateMutability": "view",
					"type": "function"
				},
				{
					"inputs": [
						{
							"internalType": "uint256",
							"name": "_reqcount",
							"type": "uint256"
						},
						{
							"internalType": "address",
							"name": "_ethAddress",
							"type": "address"
						},
						{
							"internalType": "bool",
							"name": "_isAllowed",
							"type": "bool"
						}
					],
					"name": "giveAccessKYC",
					"outputs": [
						{
							"internalType": "bool",
							"name": "",
							"type": "bool"
						}
					],
					"stateMutability": "nonpayable",
					"type": "function"
				},
				{
					"inputs": [],
					"name": "listRequest",
					"outputs": [
						{
							"components": [
								{
									"internalType": "uint256",
									"name": "req_count",
									"type": "uint256"
								},
								{
									"internalType": "address",
									"name": "Address",
									"type": "address"
								}
							],
							"internalType": "struct Kyc.kycRequestList[]",
							"name": "",
							"type": "tuple[]"
						}
					],
					"stateMutability": "view",
					"type": "function"
				},
				{
					"inputs": [
						{
							"internalType": "address",
							"name": "_custaddress",
							"type": "address"
						},
						{
							"internalType": "string",
							"name": "name",
							"type": "string"
						},
						{
							"internalType": "string",
							"name": "fatherName",
							"type": "string"
						},
						{
							"internalType": "string",
							"name": "motherName",
							"type": "string"
						},
						{
							"internalType": "string",
							"name": "grandfatherName",
							"type": "string"
						},
						{
							"internalType": "string",
							"name": "temporaryAddress",
							"type": "string"
						},
						{
							"internalType": "string",
							"name": "permanenetAddress",
							"type": "string"
						},
						{
							"internalType": "string",
							"name": "contactNumber",
							"type": "string"
						},
						{
							"internalType": "string",
							"name": "dob",
							"type": "string"
						},
						{
							"internalType": "bool",
							"name": "_kycStatus",
							"type": "bool"
						},
						{
							"internalType": "uint256",
							"name": "_d",
							"type": "uint256"
						},
						{
							"internalType": "uint256",
							"name": "_n",
							"type": "uint256"
						}
					],
					"name": "registerKYC",
					"outputs": [
						{
							"internalType": "bool",
							"name": "",
							"type": "bool"
						}
					],
					"stateMutability": "nonpayable",
					"type": "function"
				},
				{
					"inputs": [
						{
							"internalType": "address",
							"name": "_custaddress",
							"type": "address"
						}
					],
					"name": "removeKYC",
					"outputs": [
						{
							"internalType": "bool",
							"name": "",
							"type": "bool"
						}
					],
					"stateMutability": "nonpayable",
					"type": "function"
				},
				{
					"inputs": [
						{
							"internalType": "address",
							"name": "_ethAddress",
							"type": "address"
						}
					],
					"name": "removeOrg",
					"outputs": [
						{
							"internalType": "bool",
							"name": "",
							"type": "bool"
						}
					],
					"stateMutability": "nonpayable",
					"type": "function"
				},
				{
					"inputs": [
						{
							"internalType": "address",
							"name": "_custaddress",
							"type": "address"
						}
					],
					"name": "requestKYC",
					"outputs": [
						{
							"internalType": "bool",
							"name": "",
							"type": "bool"
						}
					],
					"stateMutability": "nonpayable",
					"type": "function"
				},
				{
					"inputs": [
						{
							"internalType": "address",
							"name": "_ethAddress",
							"type": "address"
						}
					],
					"name": "revokeAccessKYC",
					"outputs": [
						{
							"internalType": "bool",
							"name": "",
							"type": "bool"
						}
					],
					"stateMutability": "nonpayable",
					"type": "function"
				},
				{
					"inputs": [
						{
							"internalType": "address",
							"name": "_custaddress",
							"type": "address"
						},
						{
							"internalType": "string",
							"name": "name",
							"type": "string"
						},
						{
							"internalType": "string",
							"name": "fatherName",
							"type": "string"
						},
						{
							"internalType": "string",
							"name": "motherName",
							"type": "string"
						},
						{
							"internalType": "string",
							"name": "grandfatherName",
							"type": "string"
						},
						{
							"internalType": "string",
							"name": "temporaryAddress",
							"type": "string"
						},
						{
							"internalType": "string",
							"name": "permanenetAddress",
							"type": "string"
						},
						{
							"internalType": "string",
							"name": "contactNumber",
							"type": "string"
						},
						{
							"internalType": "string",
							"name": "dob",
							"type": "string"
						},
						{
							"internalType": "bool",
							"name": "_kycStatus",
							"type": "bool"
						},
						{
							"internalType": "uint256",
							"name": "_d",
							"type": "uint256"
						},
						{
							"internalType": "uint256",
							"name": "_n",
							"type": "uint256"
						}
					],
					"name": "updateKYC",
					"outputs": [
						{
							"internalType": "bool",
							"name": "",
							"type": "bool"
						}
					],
					"stateMutability": "nonpayable",
					"type": "function"
				},
				{
					"inputs": [],
					"name": "validAdmin",
					"outputs": [
						{
							"internalType": "bool",
							"name": "",
							"type": "bool"
						}
					],
					"stateMutability": "view",
					"type": "function"
				},
				{
					"inputs": [],
					"name": "validCust",
					"outputs": [
						{
							"internalType": "bool",
							"name": "",
							"type": "bool"
						}
					],
					"stateMutability": "view",
					"type": "function"
				},
				{
					"inputs": [],
					"name": "validOrg",
					"outputs": [
						{
							"internalType": "bool",
							"name": "",
							"type": "bool"
						}
					],
					"stateMutability": "view",
					"type": "function"
				},
				{
					"inputs": [
						{
							"internalType": "address",
							"name": "_custaddress",
							"type": "address"
						}
					],
					"name": "viewKYC",
					"outputs": [
						{
							"internalType": "string",
							"name": "name",
							"type": "string"
						},
						{
							"internalType": "string",
							"name": "fatherName",
							"type": "string"
						},
						{
							"internalType": "string",
							"name": "motherName",
							"type": "string"
						},
						{
							"internalType": "string",
							"name": "grandfatherName",
							"type": "string"
						},
						{
							"internalType": "string",
							"name": "temporaryAddress",
							"type": "string"
						},
						{
							"internalType": "string",
							"name": "permanenetAddress",
							"type": "string"
						},
						{
							"internalType": "string",
							"name": "contactNumber",
							"type": "string"
						},
						{
							"internalType": "string",
							"name": "dob",
							"type": "string"
						},
						{
							"internalType": "bool",
							"name": "_kycStatus",
							"type": "bool"
						},
						{
							"internalType": "uint256",
							"name": "_d",
							"type": "uint256"
						},
						{
							"internalType": "uint256",
							"name": "_n",
							"type": "uint256"
						}
					],
					"stateMutability": "view",
					"type": "function"
				},
				{
					"inputs": [
						{
							"internalType": "address",
							"name": "_ethAddress",
							"type": "address"
						}
					],
					"name": "viewOrg",
					"outputs": [
						{
							"components": [
								{
									"internalType": "string",
									"name": "name",
									"type": "string"
								},
								{
									"internalType": "address",
									"name": "ethAddress",
									"type": "address"
								}
							],
							"internalType": "struct Kyc.Organization",
							"name": "",
							"type": "tuple"
						}
					],
					"stateMutability": "view",
					"type": "function"
				},
				{
					"inputs": [],
					"name": "viewOrgWithAccess",
					"outputs": [
						{
							"internalType": "address[]",
							"name": "",
							"type": "address[]"
						}
					],
					"stateMutability": "view",
					"type": "function"
				},
				{
					"inputs": [],
					"name": "viewRequestCust",
					"outputs": [
						{
							"components": [
								{
									"internalType": "uint256",
									"name": "req_count",
									"type": "uint256"
								},
								{
									"internalType": "address",
									"name": "Address",
									"type": "address"
								}
							],
							"internalType": "struct Kyc.kycRequestList[]",
							"name": "",
							"type": "tuple[]"
						}
					],
					"stateMutability": "view",
					"type": "function"
				},
				{
					"inputs": [],
					"name": "viewYourKYC",
					"outputs": [
						{
							"components": [
								{
									"internalType": "address",
									"name": "custAddress",
									"type": "address"
								},
								{
									"internalType": "string",
									"name": "name",
									"type": "string"
								},
								{
									"internalType": "string",
									"name": "fatherName",
									"type": "string"
								},
								{
									"internalType": "string",
									"name": "motherName",
									"type": "string"
								},
								{
									"internalType": "string",
									"name": "grandfatherName",
									"type": "string"
								},
								{
									"internalType": "string",
									"name": "temporaryAddress",
									"type": "string"
								},
								{
									"internalType": "string",
									"name": "permanenetAddress",
									"type": "string"
								},
								{
									"internalType": "string",
									"name": "contactNumber",
									"type": "string"
								},
								{
									"internalType": "string",
									"name": "dob",
									"type": "string"
								},
								{
									"internalType": "uint256",
									"name": "d",
									"type": "uint256"
								},
								{
									"internalType": "uint256",
									"name": "n",
									"type": "uint256"
								},
								{
									"internalType": "address[]",
									"name": "organization",
									"type": "address[]"
								},
								{
									"internalType": "bool",
									"name": "kycStatus",
									"type": "bool"
								}
							],
							"internalType": "struct Kyc.Customer",
							"name": "",
							"type": "tuple"
						}
					],
					"stateMutability": "view",
					"type": "function"
				}
			],
			"devdoc": {
				"kind": "dev",
				"methods": {},
				"version": 1
			},
			"evm": {
				"assembly": "    /* \"Kyc.sol\":66:17972  contract Kyc {... */\n  mstore(0x40, 0x80)\n    /* \"Kyc.sol\":888:937  constructor() {... */\n  callvalue\n  dup1\n  iszero\n  tag_1\n  jumpi\n  0x00\n  dup1\n  revert\ntag_1:\n  pop\n    /* \"Kyc.sol\":912:917  admin */\n  0x00\n    /* \"Kyc.sol\":912:930  admin = msg.sender */\n  dup1\n  sload\n  not(sub(shl(0xa0, 0x01), 0x01))\n  and\n    /* \"Kyc.sol\":920:930  msg.sender */\n  caller\n    /* \"Kyc.sol\":912:930  admin = msg.sender */\n  or\n  swap1\n  sstore\n    /* \"Kyc.sol\":66:17972  contract Kyc {... */\n  dataSize(sub_0)\n  dup1\n  dataOffset(sub_0)\n  0x00\n  codecopy\n  0x00\n  return\nstop\n\nsub_0: assembly {\n        /* \"Kyc.sol\":66:17972  contract Kyc {... */\n      mstore(0x40, 0x80)\n      callvalue\n      dup1\n      iszero\n      tag_1\n      jumpi\n      0x00\n      dup1\n      revert\n    tag_1:\n      pop\n      jumpi(tag_2, lt(calldatasize, 0x04))\n      shr(0xe0, calldataload(0x00))\n      dup1\n      0xb7e4a42d\n      gt\n      tag_24\n      jumpi\n      dup1\n      0xd9b18f04\n      gt\n      tag_25\n      jumpi\n      dup1\n      0xd9b18f04\n      eq\n      tag_18\n      jumpi\n      dup1\n      0xdc9c4aaa\n      eq\n      tag_19\n      jumpi\n      dup1\n      0xe1b2dbe8\n      eq\n      tag_20\n      jumpi\n      dup1\n      0xe94a52d3\n      eq\n      tag_21\n      jumpi\n      dup1\n      0xf3a9b588\n      eq\n      tag_22\n      jumpi\n      dup1\n      0xf851a440\n      eq\n      tag_23\n      jumpi\n      0x00\n      dup1\n      revert\n    tag_25:\n      dup1\n      0xb7e4a42d\n      eq\n      tag_13\n      jumpi\n      dup1\n      0xc10cebe6\n      eq\n      tag_14\n      jumpi\n      dup1\n      0xca1cbcc2\n      eq\n      tag_15\n      jumpi\n      dup1\n      0xceacabd5\n      eq\n      tag_16\n      jumpi\n      dup1\n      0xd6bbbf84\n      eq\n      tag_17\n      jumpi\n      0x00\n      dup1\n      revert\n    tag_24:\n      dup1\n      0x4f4b4f78\n      gt\n      tag_26\n      jumpi\n      dup1\n      0x4f4b4f78\n      eq\n      tag_8\n      jumpi\n      dup1\n      0x54291824\n      eq\n      tag_9\n      jumpi\n      dup1\n      0x7042d70c\n      eq\n      tag_10\n      jumpi\n      dup1\n      0x88c4ce54\n      eq\n      tag_11\n      jumpi\n      dup1\n      0xa1ac9e57\n      eq\n      tag_12\n      jumpi\n      0x00\n      dup1\n      revert\n    tag_26:\n      dup1\n      0x06e5d4d1\n      eq\n      tag_3\n      jumpi\n      dup1\n      0x243f6b58\n      eq\n      tag_4\n      jumpi\n      dup1\n      0x2a539a22\n      eq\n      tag_5\n      jumpi\n      dup1\n      0x32722a25\n      eq\n      tag_6\n      jumpi\n      dup1\n      0x3b2b8abf\n      eq\n      tag_7\n      jumpi\n    tag_2:\n      0x00\n      dup1\n      revert\n        /* \"Kyc.sol\":17029:17487  function revokeAccessKYC(address _ethAddress) public returns (bool) {... */\n    tag_3:\n      tag_27\n      tag_28\n      calldatasize\n      0x04\n      tag_29\n      jump\t// in\n    tag_28:\n      tag_30\n      jump\t// in\n    tag_27:\n      mload(0x40)\n        /* \"#utility.yul\":644:658   */\n      swap1\n      iszero\n        /* \"#utility.yul\":637:659   */\n      iszero\n        /* \"#utility.yul\":619:660   */\n      dup2\n      mstore\n        /* \"#utility.yul\":607:609   */\n      0x20\n        /* \"#utility.yul\":592:610   */\n      add\n        /* \"Kyc.sol\":17029:17487  function revokeAccessKYC(address _ethAddress) public returns (bool) {... */\n    tag_31:\n      mload(0x40)\n      dup1\n      swap2\n      sub\n      swap1\n      return\n        /* \"Kyc.sol\":17523:17970  function removeKYC(address _custaddress) public isOrgValid returns (bool) {... */\n    tag_4:\n      tag_27\n      tag_34\n      calldatasize\n      0x04\n      tag_29\n      jump\t// in\n    tag_34:\n      tag_35\n      jump\t// in\n        /* \"Kyc.sol\":15610:16642  function giveAccessKYC(... */\n    tag_5:\n      tag_27\n      tag_38\n      calldatasize\n      0x04\n      tag_39\n      jump\t// in\n    tag_38:\n      tag_40\n      jump\t// in\n        /* \"Kyc.sol\":4762:4928  function getYourOrgDetail()... */\n    tag_6:\n      tag_42\n      tag_43\n      jump\t// in\n    tag_42:\n      mload(0x40)\n      tag_31\n      swap2\n      swap1\n      tag_45\n      jump\t// in\n        /* \"Kyc.sol\":9356:9609  function viewOrgWithAccess() public view returns (address[] memory) {... */\n    tag_7:\n      tag_46\n      tag_47\n      jump\t// in\n    tag_46:\n      mload(0x40)\n      tag_31\n      swap2\n      swap1\n      tag_49\n      jump\t// in\n        /* \"Kyc.sol\":4934:5132  function validOrg() public view returns (bool) {... */\n    tag_8:\n      tag_27\n      tag_51\n      jump\t// in\n        /* \"Kyc.sol\":13728:14356  function deleteRequestOrg(uint256 _reqcount)... */\n    tag_9:\n      tag_27\n      tag_54\n      calldatasize\n      0x04\n      tag_55\n      jump\t// in\n    tag_54:\n      tag_56\n      jump\t// in\n        /* \"Kyc.sol\":14419:15045  function deleteRequestCust(uint256 _reqcount, address _ethAddress) public {... */\n    tag_10:\n      tag_58\n      tag_59\n      calldatasize\n      0x04\n      tag_60\n      jump\t// in\n    tag_59:\n      tag_61\n      jump\t// in\n    tag_58:\n      stop\n        /* \"Kyc.sol\":4457:4756  function viewOrg(address _ethAddress)... */\n    tag_11:\n      tag_42\n      tag_63\n      calldatasize\n      0x04\n      tag_29\n      jump\t// in\n    tag_63:\n      tag_64\n      jump\t// in\n        /* \"Kyc.sol\":3556:4057  function addOrg(string memory _name, address _ethAddress)... */\n    tag_12:\n      tag_27\n      tag_67\n      calldatasize\n      0x04\n      tag_68\n      jump\t// in\n    tag_67:\n      tag_69\n      jump\t// in\n        /* \"Kyc.sol\":4103:4407  function removeOrg(address _ethAddress) public isAdmin returns (bool) {... */\n    tag_13:\n      tag_27\n      tag_72\n      calldatasize\n      0x04\n      tag_29\n      jump\t// in\n    tag_72:\n      tag_73\n      jump\t// in\n        /* \"Kyc.sol\":11339:12128  function requestKYC(address _custaddress) public isOrgValid returns (bool) {... */\n    tag_14:\n      tag_27\n      tag_76\n      calldatasize\n      0x04\n      tag_29\n      jump\t// in\n    tag_76:\n      tag_77\n      jump\t// in\n        /* \"Kyc.sol\":9615:10162  function viewRequestCust() public view returns (kycRequestList[] memory) {... */\n    tag_15:\n      tag_79\n      tag_80\n      jump\t// in\n    tag_79:\n      mload(0x40)\n      tag_31\n      swap2\n      swap1\n      tag_82\n      jump\t// in\n        /* \"Kyc.sol\":9192:9350  function viewYourKYC() public view returns (Customer memory) {... */\n    tag_16:\n      tag_83\n      tag_84\n      jump\t// in\n    tag_83:\n      mload(0x40)\n      tag_31\n      swap2\n      swap1\n      tag_86\n      jump\t// in\n        /* \"Kyc.sol\":5138:5307  function validAdmin() public view returns (bool) {... */\n    tag_17:\n      tag_27\n      tag_88\n      jump\t// in\n        /* \"Kyc.sol\":7747:9186  function viewKYC(address _custaddress)... */\n    tag_18:\n      tag_90\n      tag_91\n      calldatasize\n      0x04\n      tag_29\n      jump\t// in\n    tag_91:\n      tag_92\n      jump\t// in\n    tag_90:\n      mload(0x40)\n      tag_31\n      swap12\n      swap11\n      swap10\n      swap9\n      swap8\n      swap7\n      swap6\n      swap5\n      swap4\n      swap3\n      swap2\n      swap1\n      tag_94\n      jump\t// in\n        /* \"Kyc.sol\":10224:11302  function updateKYC(... */\n    tag_19:\n      tag_27\n      tag_96\n      calldatasize\n      0x04\n      tag_97\n      jump\t// in\n    tag_96:\n      tag_98\n      jump\t// in\n        /* \"Kyc.sol\":5313:5509  function validCust() public view returns (bool) {... */\n    tag_20:\n      tag_27\n      tag_101\n      jump\t// in\n        /* \"Kyc.sol\":6714:7702  function registerKYC(... */\n    tag_21:\n      tag_27\n      tag_104\n      calldatasize\n      0x04\n      tag_97\n      jump\t// in\n    tag_104:\n      tag_105\n      jump\t// in\n        /* \"Kyc.sol\":15105:15570  function listRequest()... */\n    tag_22:\n      tag_79\n      tag_108\n      jump\t// in\n        /* \"Kyc.sol\":85:105  address public admin */\n    tag_23:\n      sload(0x00)\n      tag_110\n      swap1\n      sub(shl(0xa0, 0x01), 0x01)\n      and\n      dup2\n      jump\n    tag_110:\n      mload(0x40)\n      sub(shl(0xa0, 0x01), 0x01)\n        /* \"#utility.yul\":12045:12077   */\n      swap1\n      swap2\n      and\n        /* \"#utility.yul\":12027:12078   */\n      dup2\n      mstore\n        /* \"#utility.yul\":12015:12017   */\n      0x20\n        /* \"#utility.yul\":12000:12018   */\n      add\n        /* \"Kyc.sol\":85:105  address public admin */\n      tag_31\n        /* \"#utility.yul\":11881:12084   */\n      jump\n        /* \"Kyc.sol\":17029:17487  function revokeAccessKYC(address _ethAddress) public returns (bool) {... */\n    tag_30:\n        /* \"Kyc.sol\":17165:17175  msg.sender */\n      caller\n        /* \"Kyc.sol\":17091:17095  bool */\n      0x00\n        /* \"Kyc.sol\":17128:17149  customers[msg.sender] */\n      dup2\n      dup2\n      mstore\n        /* \"Kyc.sol\":17128:17137  customers */\n      0x01\n        /* \"Kyc.sol\":17128:17149  customers[msg.sender] */\n      0x20\n      mstore\n      0x40\n      dup2\n      keccak256\n        /* \"Kyc.sol\":17128:17161  customers[msg.sender].custAddress */\n      sload\n        /* \"Kyc.sol\":17091:17095  bool */\n      swap1\n      swap2\n      sub(shl(0xa0, 0x01), 0x01)\n        /* \"Kyc.sol\":17128:17161  customers[msg.sender].custAddress */\n      swap1\n      swap2\n      and\n        /* \"Kyc.sol\":17128:17175  customers[msg.sender].custAddress == msg.sender */\n      eq\n        /* \"Kyc.sol\":17107:17241  require(... */\n      tag_115\n      jumpi\n      mload(0x40)\n      shl(0xe5, 0x461bcd)\n      dup2\n      mstore\n        /* \"#utility.yul\":12291:12293   */\n      0x20\n        /* \"Kyc.sol\":17107:17241  require(... */\n      0x04\n      dup3\n      add\n        /* \"#utility.yul\":12273:12294   */\n      mstore\n        /* \"#utility.yul\":12330:12332   */\n      0x28\n        /* \"#utility.yul\":12310:12328   */\n      0x24\n      dup3\n      add\n        /* \"#utility.yul\":12303:12333   */\n      mstore\n        /* \"#utility.yul\":12369:12403   */\n      0x596f7520646f6e74206861766520617574686f7269747920746f207265766f6b\n        /* \"#utility.yul\":12349:12367   */\n      0x44\n      dup3\n      add\n        /* \"#utility.yul\":12342:12404   */\n      mstore\n      shl(0xc0, 0x6520616363657373)\n        /* \"#utility.yul\":12420:12438   */\n      0x64\n      dup3\n      add\n        /* \"#utility.yul\":12413:12451   */\n      mstore\n        /* \"#utility.yul\":12468:12487   */\n      0x84\n      add\n        /* \"Kyc.sol\":17107:17241  require(... */\n    tag_116:\n      mload(0x40)\n      dup1\n      swap2\n      sub\n      swap1\n      revert\n    tag_115:\n        /* \"Kyc.sol\":17272:17304  findOrg(msg.sender, _ethAddress) */\n      tag_118\n        /* \"Kyc.sol\":17280:17290  msg.sender */\n      caller\n        /* \"Kyc.sol\":17292:17303  _ethAddress */\n      dup4\n        /* \"Kyc.sol\":17272:17279  findOrg */\n      tag_119\n        /* \"Kyc.sol\":17272:17304  findOrg(msg.sender, _ethAddress) */\n      jump\t// in\n    tag_118:\n        /* \"Kyc.sol\":17251:17363  require(... */\n      tag_120\n      jumpi\n      mload(0x40)\n      shl(0xe5, 0x461bcd)\n      dup2\n      mstore\n      0x04\n      add\n      tag_116\n      swap1\n      tag_122\n      jump\t// in\n    tag_120:\n        /* \"Kyc.sol\":17373:17404  remove(msg.sender, _ethAddress) */\n      tag_123\n        /* \"Kyc.sol\":17380:17390  msg.sender */\n      caller\n        /* \"Kyc.sol\":17392:17403  _ethAddress */\n      dup4\n        /* \"Kyc.sol\":17373:17379  remove */\n      tag_124\n        /* \"Kyc.sol\":17373:17404  remove(msg.sender, _ethAddress) */\n      jump\t// in\n    tag_123:\n      pop\n        /* \"Kyc.sol\":17476:17480  true */\n      0x01\n      swap2\n        /* \"Kyc.sol\":17029:17487  function revokeAccessKYC(address _ethAddress) public returns (bool) {... */\n      swap1\n      pop\n      jump\t// out\n        /* \"Kyc.sol\":17523:17970  function removeKYC(address _custaddress) public isOrgValid returns (bool) {... */\n    tag_35:\n        /* \"Kyc.sol\":1711:1721  msg.sender */\n      caller\n        /* \"Kyc.sol\":17591:17595  bool */\n      0x00\n        /* \"Kyc.sol\":1671:1696  organizations[msg.sender] */\n      dup2\n      dup2\n      mstore\n        /* \"Kyc.sol\":1671:1684  organizations */\n      0x02\n        /* \"Kyc.sol\":1671:1696  organizations[msg.sender] */\n      0x20\n      mstore\n      0x40\n      dup2\n      keccak256\n        /* \"Kyc.sol\":1671:1707  organizations[msg.sender].ethAddress */\n      0x01\n      add\n      sload\n        /* \"Kyc.sol\":17591:17595  bool */\n      swap1\n      swap2\n      sub(shl(0xa0, 0x01), 0x01)\n        /* \"Kyc.sol\":1671:1707  organizations[msg.sender].ethAddress */\n      swap1\n      swap2\n      and\n        /* \"Kyc.sol\":1671:1721  organizations[msg.sender].ethAddress == msg.sender */\n      eq\n        /* \"Kyc.sol\":1650:1760  require(... */\n      tag_126\n      jumpi\n      mload(0x40)\n      shl(0xe5, 0x461bcd)\n      dup2\n      mstore\n      0x04\n      add\n      tag_116\n      swap1\n      tag_128\n      jump\t// in\n    tag_126:\n      sub(shl(0xa0, 0x01), 0x01)\n        /* \"Kyc.sol\":17628:17679  customers[_custaddress].custAddress == _custaddress */\n      dup1\n      dup4\n      and\n        /* \"Kyc.sol\":17628:17651  customers[_custaddress] */\n      0x00\n      dup2\n      dup2\n      mstore\n        /* \"Kyc.sol\":17628:17637  customers */\n      0x01\n        /* \"Kyc.sol\":17628:17651  customers[_custaddress] */\n      0x20\n      mstore\n      0x40\n      swap1\n      keccak256\n        /* \"Kyc.sol\":17628:17663  customers[_custaddress].custAddress */\n      sload\n      swap1\n      swap2\n      and\n        /* \"Kyc.sol\":17628:17679  customers[_custaddress].custAddress == _custaddress */\n      eq\n        /* \"Kyc.sol\":17607:17723  require(... */\n      tag_130\n      jumpi\n      mload(0x40)\n      shl(0xe5, 0x461bcd)\n      dup2\n      mstore\n        /* \"#utility.yul\":13444:13446   */\n      0x20\n        /* \"Kyc.sol\":17607:17723  require(... */\n      0x04\n      dup3\n      add\n        /* \"#utility.yul\":13426:13447   */\n      mstore\n        /* \"#utility.yul\":13483:13485   */\n      0x12\n        /* \"#utility.yul\":13463:13481   */\n      0x24\n      dup3\n      add\n        /* \"#utility.yul\":13456:13486   */\n      mstore\n      shl(0x72, 0x155cd95c88191bd95cdb89dd08195e1a5cdd)\n        /* \"#utility.yul\":13502:13520   */\n      0x44\n      dup3\n      add\n        /* \"#utility.yul\":13495:13543   */\n      mstore\n        /* \"#utility.yul\":13560:13578   */\n      0x64\n      add\n        /* \"Kyc.sol\":17607:17723  require(... */\n      tag_116\n        /* \"#utility.yul\":13242:13584   */\n      jump\n        /* \"Kyc.sol\":17607:17723  require(... */\n    tag_130:\n        /* \"Kyc.sol\":17754:17787  findOrg(_custaddress, msg.sender) */\n      tag_133\n        /* \"Kyc.sol\":17762:17774  _custaddress */\n      dup3\n        /* \"Kyc.sol\":17776:17786  msg.sender */\n      caller\n        /* \"Kyc.sol\":17754:17761  findOrg */\n      tag_119\n        /* \"Kyc.sol\":17754:17787  findOrg(_custaddress, msg.sender) */\n      jump\t// in\n    tag_133:\n        /* \"Kyc.sol\":17733:17846  require(... */\n      tag_134\n      jumpi\n      mload(0x40)\n      shl(0xe5, 0x461bcd)\n      dup2\n      mstore\n      0x04\n      add\n      tag_116\n      swap1\n      tag_122\n      jump\t// in\n    tag_134:\n        /* \"Kyc.sol\":17856:17888  remove(_custaddress, msg.sender) */\n      tag_123\n        /* \"Kyc.sol\":17863:17875  _custaddress */\n      dup3\n        /* \"Kyc.sol\":17877:17887  msg.sender */\n      caller\n        /* \"Kyc.sol\":17856:17862  remove */\n      tag_124\n        /* \"Kyc.sol\":17856:17888  remove(_custaddress, msg.sender) */\n      jump\t// in\n        /* \"Kyc.sol\":1770:1771  _ */\n    tag_129:\n        /* \"Kyc.sol\":17523:17970  function removeKYC(address _custaddress) public isOrgValid returns (bool) {... */\n      swap2\n      swap1\n      pop\n      jump\t// out\n        /* \"Kyc.sol\":15610:16642  function giveAccessKYC(... */\n    tag_40:\n        /* \"Kyc.sol\":15810:15820  msg.sender */\n      caller\n        /* \"Kyc.sol\":15736:15740  bool */\n      0x00\n        /* \"Kyc.sol\":15773:15794  customers[msg.sender] */\n      dup2\n      dup2\n      mstore\n        /* \"Kyc.sol\":15773:15782  customers */\n      0x01\n        /* \"Kyc.sol\":15773:15794  customers[msg.sender] */\n      0x20\n      mstore\n      0x40\n      dup2\n      keccak256\n        /* \"Kyc.sol\":15773:15806  customers[msg.sender].custAddress */\n      sload\n        /* \"Kyc.sol\":15736:15740  bool */\n      swap1\n      swap2\n      sub(shl(0xa0, 0x01), 0x01)\n        /* \"Kyc.sol\":15773:15806  customers[msg.sender].custAddress */\n      swap1\n      swap2\n      and\n        /* \"Kyc.sol\":15773:15820  customers[msg.sender].custAddress == msg.sender */\n      eq\n        /* \"Kyc.sol\":15752:15884  require(... */\n      tag_138\n      jumpi\n      mload(0x40)\n      shl(0xe5, 0x461bcd)\n      dup2\n      mstore\n        /* \"#utility.yul\":13791:13793   */\n      0x20\n        /* \"Kyc.sol\":15752:15884  require(... */\n      0x04\n      dup3\n      add\n        /* \"#utility.yul\":13773:13794   */\n      mstore\n        /* \"#utility.yul\":13830:13832   */\n      0x26\n        /* \"#utility.yul\":13810:13828   */\n      0x24\n      dup3\n      add\n        /* \"#utility.yul\":13803:13833   */\n      mstore\n        /* \"#utility.yul\":13869:13903   */\n      0x596f7520646f6e74206861766520617574686f7269747920746f206769766520\n        /* \"#utility.yul\":13849:13867   */\n      0x44\n      dup3\n      add\n        /* \"#utility.yul\":13842:13904   */\n      mstore\n      shl(0xd0, 0x616363657373)\n        /* \"#utility.yul\":13920:13938   */\n      0x64\n      dup3\n      add\n        /* \"#utility.yul\":13913:13949   */\n      mstore\n        /* \"#utility.yul\":13966:13985   */\n      0x84\n      add\n        /* \"Kyc.sol\":15752:15884  require(... */\n      tag_116\n        /* \"#utility.yul\":13589:13991   */\n      jump\n        /* \"Kyc.sol\":15752:15884  require(... */\n    tag_138:\n      sub(shl(0xa0, 0x01), 0x01)\n        /* \"Kyc.sol\":15915:15944  kycrequestsbyorg[_ethAddress] */\n      dup4\n      and\n      0x00\n      swap1\n      dup2\n      mstore\n        /* \"Kyc.sol\":15915:15931  kycrequestsbyorg */\n      0x03\n        /* \"Kyc.sol\":15915:15944  kycrequestsbyorg[_ethAddress] */\n      0x20\n      mstore\n      0x40\n      swap1\n      keccak256\n        /* \"Kyc.sol\":15915:15959  kycrequestsbyorg[_ethAddress].kycrequestlist */\n      0x02\n      add\n        /* \"Kyc.sol\":15915:15970  kycrequestsbyorg[_ethAddress].kycrequestlist[_reqcount] */\n      dup1\n      sload\n        /* \"Kyc.sol\":15998:16008  msg.sender */\n      caller\n      swap2\n        /* \"Kyc.sol\":15915:15959  kycrequestsbyorg[_ethAddress].kycrequestlist */\n      swap1\n        /* \"Kyc.sol\":15960:15969  _reqcount */\n      dup7\n      swap1\n        /* \"Kyc.sol\":15915:15970  kycrequestsbyorg[_ethAddress].kycrequestlist[_reqcount] */\n      dup2\n      lt\n      tag_142\n      jumpi\n      tag_142\n      tag_143\n      jump\t// in\n    tag_142:\n      0x00\n      swap2\n      dup3\n      mstore\n      0x20\n      swap1\n      swap2\n      keccak256\n        /* \"Kyc.sol\":15915:15978  kycrequestsbyorg[_ethAddress].kycrequestlist[_reqcount].Address */\n      0x01\n        /* \"Kyc.sol\":15915:15970  kycrequestsbyorg[_ethAddress].kycrequestlist[_reqcount] */\n      0x02\n      swap1\n      swap3\n      mul\n      add\n        /* \"Kyc.sol\":15915:15978  kycrequestsbyorg[_ethAddress].kycrequestlist[_reqcount].Address */\n      add\n      sload\n      sub(shl(0xa0, 0x01), 0x01)\n      and\n        /* \"Kyc.sol\":15915:16008  kycrequestsbyorg[_ethAddress].kycrequestlist[_reqcount].Address ==... */\n      eq\n        /* \"Kyc.sol\":15894:16048  require(... */\n      tag_145\n      jumpi\n      mload(0x40)\n      shl(0xe5, 0x461bcd)\n      dup2\n      mstore\n        /* \"#utility.yul\":14330:14332   */\n      0x20\n        /* \"Kyc.sol\":15894:16048  require(... */\n      0x04\n      dup3\n      add\n        /* \"#utility.yul\":14312:14333   */\n      mstore\n        /* \"#utility.yul\":14369:14371   */\n      0x0e\n        /* \"#utility.yul\":14349:14367   */\n      0x24\n      dup3\n      add\n        /* \"#utility.yul\":14342:14372   */\n      mstore\n      shl(0x92, 0x155cd95c881b9bdd081d985b1a59)\n        /* \"#utility.yul\":14388:14406   */\n      0x44\n      dup3\n      add\n        /* \"#utility.yul\":14381:14425   */\n      mstore\n        /* \"#utility.yul\":14442:14460   */\n      0x64\n      add\n        /* \"Kyc.sol\":15894:16048  require(... */\n      tag_116\n        /* \"#utility.yul\":14128:14466   */\n      jump\n        /* \"Kyc.sol\":15894:16048  require(... */\n    tag_145:\n      sub(shl(0xa0, 0x01), 0x01)\n        /* \"Kyc.sol\":16079:16108  kycrequestsbyorg[_ethAddress] */\n      dup4\n      and\n      0x00\n      swap1\n      dup2\n      mstore\n        /* \"Kyc.sol\":16079:16095  kycrequestsbyorg */\n      0x03\n        /* \"Kyc.sol\":16079:16108  kycrequestsbyorg[_ethAddress] */\n      0x20\n      mstore\n      0x40\n      swap1\n      keccak256\n        /* \"Kyc.sol\":16079:16123  kycrequestsbyorg[_ethAddress].kycrequestlist */\n      0x02\n      add\n        /* \"Kyc.sol\":16079:16134  kycrequestsbyorg[_ethAddress].kycrequestlist[_reqcount] */\n      dup1\n      sload\n        /* \"Kyc.sol\":16164:16173  _reqcount */\n      dup6\n      swap2\n        /* \"Kyc.sol\":16079:16123  kycrequestsbyorg[_ethAddress].kycrequestlist */\n      swap1\n        /* \"Kyc.sol\":16164:16173  _reqcount */\n      dup3\n      swap1\n        /* \"Kyc.sol\":16079:16134  kycrequestsbyorg[_ethAddress].kycrequestlist[_reqcount] */\n      dup2\n      lt\n      tag_149\n      jumpi\n      tag_149\n      tag_143\n      jump\t// in\n    tag_149:\n      swap1\n      0x00\n      mstore\n      keccak256(0x00, 0x20)\n      swap1\n      0x02\n      mul\n      add\n        /* \"Kyc.sol\":16079:16144  kycrequestsbyorg[_ethAddress].kycrequestlist[_reqcount].req_count */\n      0x00\n      add\n      sload\n        /* \"Kyc.sol\":16079:16173  kycrequestsbyorg[_ethAddress].kycrequestlist[_reqcount].req_count ==... */\n      eq\n        /* \"Kyc.sol\":16058:16217  require(... */\n      tag_151\n      jumpi\n      mload(0x40)\n      shl(0xe5, 0x461bcd)\n      dup2\n      mstore\n        /* \"#utility.yul\":14673:14675   */\n      0x20\n        /* \"Kyc.sol\":16058:16217  require(... */\n      0x04\n      dup3\n      add\n        /* \"#utility.yul\":14655:14676   */\n      mstore\n        /* \"#utility.yul\":14712:14714   */\n      0x12\n        /* \"#utility.yul\":14692:14710   */\n      0x24\n      dup3\n      add\n        /* \"#utility.yul\":14685:14715   */\n      mstore\n      shl(0x72, 0x14995c5d595cdd1cc81b9bdd08199bdd5b99)\n        /* \"#utility.yul\":14731:14749   */\n      0x44\n      dup3\n      add\n        /* \"#utility.yul\":14724:14772   */\n      mstore\n        /* \"#utility.yul\":14789:14807   */\n      0x64\n      add\n        /* \"Kyc.sol\":16058:16217  require(... */\n      tag_116\n        /* \"#utility.yul\":14471:14813   */\n      jump\n        /* \"Kyc.sol\":16058:16217  require(... */\n    tag_151:\n        /* \"Kyc.sol\":16231:16249  _isAllowed == true */\n      dup2\n      iszero\n      iszero\n        /* \"Kyc.sol\":16245:16249  true */\n      0x01\n        /* \"Kyc.sol\":16231:16249  _isAllowed == true */\n      sub\n        /* \"Kyc.sol\":16227:16615  if (_isAllowed == true) {... */\n      tag_154\n      jumpi\n        /* \"Kyc.sol\":16269:16301  findOrg(msg.sender, _ethAddress) */\n      tag_155\n        /* \"Kyc.sol\":16277:16287  msg.sender */\n      caller\n        /* \"Kyc.sol\":16289:16300  _ethAddress */\n      dup5\n        /* \"Kyc.sol\":16269:16276  findOrg */\n      tag_119\n        /* \"Kyc.sol\":16269:16301  findOrg(msg.sender, _ethAddress) */\n      jump\t// in\n    tag_155:\n        /* \"Kyc.sol\":16269:16310  findOrg(msg.sender, _ethAddress) == false */\n      iszero\n      iszero\n        /* \"Kyc.sol\":16305:16310  false */\n      0x00\n        /* \"Kyc.sol\":16269:16310  findOrg(msg.sender, _ethAddress) == false */\n      sub\n        /* \"Kyc.sol\":16265:16397  if (findOrg(msg.sender, _ethAddress) == false) {... */\n      tag_156\n      jumpi\n        /* \"Kyc.sol\":16340:16350  msg.sender */\n      caller\n        /* \"Kyc.sol\":16330:16351  customers[msg.sender] */\n      0x00\n      swap1\n      dup2\n      mstore\n        /* \"Kyc.sol\":16330:16339  customers */\n      0x01\n        /* \"Kyc.sol\":16330:16351  customers[msg.sender] */\n      0x20\n      dup2\n      dup2\n      mstore\n      0x40\n      dup4\n      keccak256\n        /* \"Kyc.sol\":16330:16364  customers[msg.sender].organization */\n      0x0b\n      add\n        /* \"Kyc.sol\":16330:16382  customers[msg.sender].organization.push(_ethAddress) */\n      dup1\n      sload\n      swap3\n      dup4\n      add\n      dup2\n      sstore\n      dup4\n      mstore\n      swap1\n      swap2\n      keccak256\n      add\n      dup1\n      sload\n      not(sub(shl(0xa0, 0x01), 0x01))\n      and\n      sub(shl(0xa0, 0x01), 0x01)\n      dup6\n      and\n      or\n      swap1\n      sstore\n        /* \"Kyc.sol\":16265:16397  if (findOrg(msg.sender, _ethAddress) == false) {... */\n    tag_156:\n        /* \"Kyc.sol\":16410:16451  deleteRequestCust(_reqcount, _ethAddress) */\n      tag_158\n        /* \"Kyc.sol\":16428:16437  _reqcount */\n      dup5\n        /* \"Kyc.sol\":16439:16450  _ethAddress */\n      dup5\n        /* \"Kyc.sol\":16410:16427  deleteRequestCust */\n      tag_61\n        /* \"Kyc.sol\":16410:16451  deleteRequestCust(_reqcount, _ethAddress) */\n      jump\t// in\n    tag_158:\n        /* \"Kyc.sol\":16227:16615  if (_isAllowed == true) {... */\n      jump(tag_160)\n    tag_154:\n        /* \"Kyc.sol\":16563:16604  deleteRequestCust(_reqcount, _ethAddress) */\n      tag_160\n        /* \"Kyc.sol\":16581:16590  _reqcount */\n      dup5\n        /* \"Kyc.sol\":16592:16603  _ethAddress */\n      dup5\n        /* \"Kyc.sol\":16563:16580  deleteRequestCust */\n      tag_61\n        /* \"Kyc.sol\":16563:16604  deleteRequestCust(_reqcount, _ethAddress) */\n      jump\t// in\n    tag_160:\n      pop\n        /* \"Kyc.sol\":16631:16635  true */\n      0x01\n        /* \"Kyc.sol\":15610:16642  function giveAccessKYC(... */\n      swap4\n      swap3\n      pop\n      pop\n      pop\n      jump\t// out\n        /* \"Kyc.sol\":4762:4928  function getYourOrgDetail()... */\n    tag_43:\n      0x40\n      dup1\n      mload\n      dup1\n      dup3\n      add\n      swap1\n      swap2\n      mstore\n      0x60\n      dup2\n      mstore\n      0x00\n      0x20\n      dup3\n      add\n      mstore\n        /* \"Kyc.sol\":1711:1721  msg.sender */\n      caller\n        /* \"Kyc.sol\":1671:1696  organizations[msg.sender] */\n      0x00\n      dup2\n      dup2\n      mstore\n        /* \"Kyc.sol\":1671:1684  organizations */\n      0x02\n        /* \"Kyc.sol\":1671:1696  organizations[msg.sender] */\n      0x20\n      mstore\n      0x40\n      swap1\n      keccak256\n        /* \"Kyc.sol\":1671:1707  organizations[msg.sender].ethAddress */\n      0x01\n      add\n      sload\n      sub(shl(0xa0, 0x01), 0x01)\n      and\n        /* \"Kyc.sol\":1671:1721  organizations[msg.sender].ethAddress == msg.sender */\n      eq\n        /* \"Kyc.sol\":1650:1760  require(... */\n      tag_164\n      jumpi\n      mload(0x40)\n      shl(0xe5, 0x461bcd)\n      dup2\n      mstore\n      0x04\n      add\n      tag_116\n      swap1\n      tag_128\n      jump\t// in\n    tag_164:\n        /* \"Kyc.sol\":4910:4920  msg.sender */\n      caller\n        /* \"Kyc.sol\":4896:4921  organizations[msg.sender] */\n      0x00\n      swap1\n      dup2\n      mstore\n        /* \"Kyc.sol\":4896:4909  organizations */\n      0x02\n        /* \"Kyc.sol\":4896:4921  organizations[msg.sender] */\n      0x20\n      mstore\n      0x40\n      swap1\n      dup2\n      swap1\n      keccak256\n        /* \"Kyc.sol\":4889:4921  return organizations[msg.sender] */\n      dup2\n      mload\n      dup1\n      dup4\n      add\n      swap1\n      swap3\n      mstore\n      dup1\n      sload\n      dup3\n      swap1\n        /* \"Kyc.sol\":4896:4921  organizations[msg.sender] */\n      dup3\n      swap1\n        /* \"Kyc.sol\":4889:4921  return organizations[msg.sender] */\n      tag_167\n      swap1\n      tag_168\n      jump\t// in\n    tag_167:\n      dup1\n      0x1f\n      add\n      0x20\n      dup1\n      swap2\n      div\n      mul\n      0x20\n      add\n      mload(0x40)\n      swap1\n      dup2\n      add\n      0x40\n      mstore\n      dup1\n      swap3\n      swap2\n      swap1\n      dup2\n      dup2\n      mstore\n      0x20\n      add\n      dup3\n      dup1\n      sload\n      tag_169\n      swap1\n      tag_168\n      jump\t// in\n    tag_169:\n      dup1\n      iszero\n      tag_170\n      jumpi\n      dup1\n      0x1f\n      lt\n      tag_171\n      jumpi\n      0x0100\n      dup1\n      dup4\n      sload\n      div\n      mul\n      dup4\n      mstore\n      swap2\n      0x20\n      add\n      swap2\n      jump(tag_170)\n    tag_171:\n      dup3\n      add\n      swap2\n      swap1\n      0x00\n      mstore\n      keccak256(0x00, 0x20)\n      swap1\n    tag_172:\n      dup2\n      sload\n      dup2\n      mstore\n      swap1\n      0x01\n      add\n      swap1\n      0x20\n      add\n      dup1\n      dup4\n      gt\n      tag_172\n      jumpi\n      dup3\n      swap1\n      sub\n      0x1f\n      and\n      dup3\n      add\n      swap2\n    tag_170:\n      pop\n      pop\n      pop\n      swap2\n      dup4\n      mstore\n      pop\n      pop\n      0x01\n      swap2\n      swap1\n      swap2\n      add\n      sload\n      sub(shl(0xa0, 0x01), 0x01)\n      and\n      0x20\n      swap1\n      swap2\n      add\n      mstore\n      swap1\n      pop\n        /* \"Kyc.sol\":4762:4928  function getYourOrgDetail()... */\n      swap1\n      jump\t// out\n        /* \"Kyc.sol\":9356:9609  function viewOrgWithAccess() public view returns (address[] memory) {... */\n    tag_47:\n        /* \"Kyc.sol\":9492:9502  msg.sender */\n      caller\n        /* \"Kyc.sol\":9455:9476  customers[msg.sender] */\n      0x00\n      dup2\n      dup2\n      mstore\n        /* \"Kyc.sol\":9455:9464  customers */\n      0x01\n        /* \"Kyc.sol\":9455:9476  customers[msg.sender] */\n      0x20\n      mstore\n      0x40\n      swap1\n      keccak256\n        /* \"Kyc.sol\":9455:9488  customers[msg.sender].custAddress */\n      sload\n        /* \"Kyc.sol\":9406:9422  address[] memory */\n      0x60\n      swap2\n      sub(shl(0xa0, 0x01), 0x01)\n        /* \"Kyc.sol\":9455:9488  customers[msg.sender].custAddress */\n      swap1\n      swap2\n      and\n        /* \"Kyc.sol\":9455:9502  customers[msg.sender].custAddress == msg.sender */\n      eq\n        /* \"Kyc.sol\":9434:9551  require(... */\n      tag_174\n      jumpi\n      mload(0x40)\n      shl(0xe5, 0x461bcd)\n      dup2\n      mstore\n        /* \"#utility.yul\":15405:15407   */\n      0x20\n        /* \"Kyc.sol\":9434:9551  require(... */\n      0x04\n      dup3\n      add\n        /* \"#utility.yul\":15387:15408   */\n      mstore\n        /* \"#utility.yul\":15444:15446   */\n      0x17\n        /* \"#utility.yul\":15424:15442   */\n      0x24\n      dup3\n      add\n        /* \"#utility.yul\":15417:15447   */\n      mstore\n        /* \"#utility.yul\":15483:15508   */\n      0x596f7520646f6e74206861766520617574686f72697479000000000000000000\n        /* \"#utility.yul\":15463:15481   */\n      0x44\n      dup3\n      add\n        /* \"#utility.yul\":15456:15509   */\n      mstore\n        /* \"#utility.yul\":15526:15544   */\n      0x64\n      add\n        /* \"Kyc.sol\":9434:9551  require(... */\n      tag_116\n        /* \"#utility.yul\":15203:15550   */\n      jump\n        /* \"Kyc.sol\":9434:9551  require(... */\n    tag_174:\n        /* \"Kyc.sol\":9578:9588  msg.sender */\n      caller\n        /* \"Kyc.sol\":9568:9589  customers[msg.sender] */\n      0x00\n      swap1\n      dup2\n      mstore\n        /* \"Kyc.sol\":9568:9577  customers */\n      0x01\n        /* \"Kyc.sol\":9568:9589  customers[msg.sender] */\n      0x20\n      swap1\n      dup2\n      mstore\n      0x40\n      swap2\n      dup3\n      swap1\n      keccak256\n        /* \"Kyc.sol\":9568:9602  customers[msg.sender].organization */\n      0x0b\n      add\n        /* \"Kyc.sol\":9561:9602  return customers[msg.sender].organization */\n      dup1\n      sload\n      dup4\n      mload\n      dup2\n      dup5\n      mul\n      dup2\n      add\n      dup5\n      add\n      swap1\n      swap5\n      mstore\n      dup1\n      dup5\n      mstore\n        /* \"Kyc.sol\":9568:9602  customers[msg.sender].organization */\n      swap1\n      swap2\n        /* \"Kyc.sol\":9561:9602  return customers[msg.sender].organization */\n      dup4\n      add\n        /* \"Kyc.sol\":9568:9602  customers[msg.sender].organization */\n      dup3\n        /* \"Kyc.sol\":9561:9602  return customers[msg.sender].organization */\n      dup3\n      dup1\n      iszero\n      tag_177\n      jumpi\n      0x20\n      mul\n      dup3\n      add\n      swap2\n      swap1\n      0x00\n      mstore\n      keccak256(0x00, 0x20)\n      swap1\n    tag_178:\n      dup2\n      sload\n      sub(shl(0xa0, 0x01), 0x01)\n      and\n      dup2\n      mstore\n      0x01\n      swap1\n      swap2\n      add\n      swap1\n      0x20\n      add\n      dup1\n      dup4\n      gt\n      tag_178\n      jumpi\n    tag_177:\n      pop\n      pop\n      pop\n      pop\n      pop\n      swap1\n      pop\n        /* \"Kyc.sol\":9356:9609  function viewOrgWithAccess() public view returns (address[] memory) {... */\n      swap1\n      jump\t// out\n        /* \"Kyc.sol\":4934:5132  function validOrg() public view returns (bool) {... */\n    tag_51:\n        /* \"Kyc.sol\":5035:5045  msg.sender */\n      caller\n        /* \"Kyc.sol\":4975:4979  bool */\n      0x00\n        /* \"Kyc.sol\":4995:5020  organizations[msg.sender] */\n      dup2\n      dup2\n      mstore\n        /* \"Kyc.sol\":4995:5008  organizations */\n      0x02\n        /* \"Kyc.sol\":4995:5020  organizations[msg.sender] */\n      0x20\n      mstore\n      0x40\n      dup2\n      keccak256\n        /* \"Kyc.sol\":4995:5031  organizations[msg.sender].ethAddress */\n      0x01\n      add\n      sload\n        /* \"Kyc.sol\":4975:4979  bool */\n      swap1\n      swap2\n      sub(shl(0xa0, 0x01), 0x01)\n        /* \"Kyc.sol\":4995:5031  organizations[msg.sender].ethAddress */\n      swap1\n      swap2\n      and\n        /* \"Kyc.sol\":4995:5045  organizations[msg.sender].ethAddress == msg.sender */\n      sub\n        /* \"Kyc.sol\":4991:5126  if (organizations[msg.sender].ethAddress == msg.sender) {... */\n      tag_180\n      jumpi\n      pop\n        /* \"Kyc.sol\":5068:5072  true */\n      0x01\n      swap1\n        /* \"Kyc.sol\":4934:5132  function validOrg() public view returns (bool) {... */\n      jump\t// out\n        /* \"Kyc.sol\":4991:5126  if (organizations[msg.sender].ethAddress == msg.sender) {... */\n    tag_180:\n      pop\n        /* \"Kyc.sol\":5110:5115  false */\n      0x00\n      swap1\n        /* \"Kyc.sol\":4934:5132  function validOrg() public view returns (bool) {... */\n      jump\t// out\n        /* \"Kyc.sol\":13728:14356  function deleteRequestOrg(uint256 _reqcount)... */\n    tag_56:\n        /* \"Kyc.sol\":1711:1721  msg.sender */\n      caller\n        /* \"Kyc.sol\":13824:13828  bool */\n      0x00\n        /* \"Kyc.sol\":1671:1696  organizations[msg.sender] */\n      dup2\n      dup2\n      mstore\n        /* \"Kyc.sol\":1671:1684  organizations */\n      0x02\n        /* \"Kyc.sol\":1671:1696  organizations[msg.sender] */\n      0x20\n      mstore\n      0x40\n      dup2\n      keccak256\n        /* \"Kyc.sol\":1671:1707  organizations[msg.sender].ethAddress */\n      0x01\n      add\n      sload\n        /* \"Kyc.sol\":13824:13828  bool */\n      swap1\n      swap2\n      sub(shl(0xa0, 0x01), 0x01)\n        /* \"Kyc.sol\":1671:1707  organizations[msg.sender].ethAddress */\n      swap1\n      swap2\n      and\n        /* \"Kyc.sol\":1671:1721  organizations[msg.sender].ethAddress == msg.sender */\n      eq\n        /* \"Kyc.sol\":1650:1760  require(... */\n      tag_183\n      jumpi\n      mload(0x40)\n      shl(0xe5, 0x461bcd)\n      dup2\n      mstore\n      0x04\n      add\n      tag_116\n      swap1\n      tag_128\n      jump\t// in\n    tag_183:\n        /* \"Kyc.sol\":13908:13918  msg.sender */\n      caller\n        /* \"Kyc.sol\":13865:13893  kycrequestsbyorg[msg.sender] */\n      0x00\n      dup2\n      dup2\n      mstore\n        /* \"Kyc.sol\":13865:13881  kycrequestsbyorg */\n      0x03\n        /* \"Kyc.sol\":13865:13893  kycrequestsbyorg[msg.sender] */\n      0x20\n      mstore\n      0x40\n      swap1\n      keccak256\n        /* \"Kyc.sol\":13865:13904  kycrequestsbyorg[msg.sender].ethAddress */\n      sload\n      sub(shl(0xa0, 0x01), 0x01)\n      and\n        /* \"Kyc.sol\":13865:13918  kycrequestsbyorg[msg.sender].ethAddress == msg.sender */\n      eq\n        /* \"Kyc.sol\":13844:13977  require(... */\n      tag_186\n      jumpi\n      mload(0x40)\n      shl(0xe5, 0x461bcd)\n      dup2\n      mstore\n        /* \"#utility.yul\":15757:15759   */\n      0x20\n        /* \"Kyc.sol\":13844:13977  require(... */\n      0x04\n      dup3\n      add\n        /* \"#utility.yul\":15739:15760   */\n      mstore\n        /* \"#utility.yul\":15796:15798   */\n      0x21\n        /* \"#utility.yul\":15776:15794   */\n      0x24\n      dup3\n      add\n        /* \"#utility.yul\":15769:15799   */\n      mstore\n        /* \"#utility.yul\":15835:15869   */\n      0x596f7520646f6e74206861766520617574686f7269747920746f2064656c6574\n        /* \"#utility.yul\":15815:15833   */\n      0x44\n      dup3\n      add\n        /* \"#utility.yul\":15808:15870   */\n      mstore\n      shl(0xf8, 0x65)\n        /* \"#utility.yul\":15886:15904   */\n      0x64\n      dup3\n      add\n        /* \"#utility.yul\":15879:15910   */\n      mstore\n        /* \"#utility.yul\":15927:15946   */\n      0x84\n      add\n        /* \"Kyc.sol\":13844:13977  require(... */\n      tag_116\n        /* \"#utility.yul\":15555:15952   */\n      jump\n        /* \"Kyc.sol\":13844:13977  require(... */\n    tag_186:\n        /* \"Kyc.sol\":14025:14035  msg.sender */\n      caller\n        /* \"Kyc.sol\":14008:14036  kycrequestsbyorg[msg.sender] */\n      0x00\n      swap1\n      dup2\n      mstore\n        /* \"Kyc.sol\":14008:14024  kycrequestsbyorg */\n      0x03\n        /* \"Kyc.sol\":14008:14036  kycrequestsbyorg[msg.sender] */\n      0x20\n      mstore\n      0x40\n      swap1\n      keccak256\n        /* \"Kyc.sol\":14008:14051  kycrequestsbyorg[msg.sender].kycrequestlist */\n      0x02\n      add\n        /* \"Kyc.sol\":14008:14062  kycrequestsbyorg[msg.sender].kycrequestlist[_reqcount] */\n      dup1\n      sload\n        /* \"Kyc.sol\":14092:14101  _reqcount */\n      dup4\n      swap2\n        /* \"Kyc.sol\":14008:14051  kycrequestsbyorg[msg.sender].kycrequestlist */\n      swap1\n        /* \"Kyc.sol\":14092:14101  _reqcount */\n      dup3\n      swap1\n        /* \"Kyc.sol\":14008:14062  kycrequestsbyorg[msg.sender].kycrequestlist[_reqcount] */\n      dup2\n      lt\n      tag_190\n      jumpi\n      tag_190\n      tag_143\n      jump\t// in\n    tag_190:\n      swap1\n      0x00\n      mstore\n      keccak256(0x00, 0x20)\n      swap1\n      0x02\n      mul\n      add\n        /* \"Kyc.sol\":14008:14072  kycrequestsbyorg[msg.sender].kycrequestlist[_reqcount].req_count */\n      0x00\n      add\n      sload\n        /* \"Kyc.sol\":14008:14101  kycrequestsbyorg[msg.sender].kycrequestlist[_reqcount].req_count ==... */\n      eq\n        /* \"Kyc.sol\":13987:14147  require(... */\n      tag_192\n      jumpi\n      mload(0x40)\n      shl(0xe5, 0x461bcd)\n      dup2\n      mstore\n        /* \"#utility.yul\":16159:16161   */\n      0x20\n        /* \"Kyc.sol\":13987:14147  require(... */\n      0x04\n      dup3\n      add\n        /* \"#utility.yul\":16141:16162   */\n      mstore\n        /* \"#utility.yul\":16198:16200   */\n      0x14\n        /* \"#utility.yul\":16178:16196   */\n      0x24\n      dup3\n      add\n        /* \"#utility.yul\":16171:16201   */\n      mstore\n      shl(0x62, 0x14995c5d595cdd08191bd95cdb9d08195e1a5cdd)\n        /* \"#utility.yul\":16217:16235   */\n      0x44\n      dup3\n      add\n        /* \"#utility.yul\":16210:16260   */\n      mstore\n        /* \"#utility.yul\":16277:16295   */\n      0x64\n      add\n        /* \"Kyc.sol\":13987:14147  require(... */\n      tag_116\n        /* \"#utility.yul\":15957:16301   */\n      jump\n        /* \"Kyc.sol\":13987:14147  require(... */\n    tag_192:\n        /* \"Kyc.sol\":14197:14207  msg.sender */\n      caller\n        /* \"Kyc.sol\":14157:14177  address _custaddress */\n      0x00\n        /* \"Kyc.sol\":14180:14208  kycrequestsbyorg[msg.sender] */\n      swap1\n      dup2\n      mstore\n        /* \"Kyc.sol\":14180:14196  kycrequestsbyorg */\n      0x03\n        /* \"Kyc.sol\":14180:14208  kycrequestsbyorg[msg.sender] */\n      0x20\n      mstore\n      0x40\n      dup2\n      keccak256\n        /* \"Kyc.sol\":14180:14236  kycrequestsbyorg[msg.sender]... */\n      0x02\n      add\n        /* \"Kyc.sol\":14180:14247  kycrequestsbyorg[msg.sender]... */\n      dup1\n      sload\n        /* \"Kyc.sol\":14237:14246  _reqcount */\n      dup5\n      swap1\n        /* \"Kyc.sol\":14180:14247  kycrequestsbyorg[msg.sender]... */\n      dup2\n      lt\n      tag_196\n      jumpi\n      tag_196\n      tag_143\n      jump\t// in\n    tag_196:\n      0x00\n      swap2\n      dup3\n      mstore\n      0x20\n      swap1\n      swap2\n      keccak256\n        /* \"Kyc.sol\":14180:14268  kycrequestsbyorg[msg.sender]... */\n      0x01\n        /* \"Kyc.sol\":14180:14247  kycrequestsbyorg[msg.sender]... */\n      0x02\n      swap1\n      swap3\n      mul\n      add\n        /* \"Kyc.sol\":14180:14268  kycrequestsbyorg[msg.sender]... */\n      add\n      sload\n      sub(shl(0xa0, 0x01), 0x01)\n      and\n      swap1\n      pop\n        /* \"Kyc.sol\":14278:14328  deleteRequest(_reqcount, _custaddress, msg.sender) */\n      tag_198\n        /* \"Kyc.sol\":14292:14301  _reqcount */\n      dup4\n        /* \"Kyc.sol\":14180:14268  kycrequestsbyorg[msg.sender]... */\n      dup3\n        /* \"Kyc.sol\":14317:14327  msg.sender */\n      caller\n        /* \"Kyc.sol\":14278:14291  deleteRequest */\n      tag_199\n        /* \"Kyc.sol\":14278:14328  deleteRequest(_reqcount, _custaddress, msg.sender) */\n      jump\t// in\n    tag_198:\n      pop\n        /* \"Kyc.sol\":14345:14349  true */\n      0x01\n      swap3\n        /* \"Kyc.sol\":13728:14356  function deleteRequestOrg(uint256 _reqcount)... */\n      swap2\n      pop\n      pop\n      jump\t// out\n        /* \"Kyc.sol\":14419:15045  function deleteRequestCust(uint256 _reqcount, address _ethAddress) public {... */\n    tag_61:\n      sub(shl(0xa0, 0x01), 0x01)\n        /* \"Kyc.sol\":14524:14576  organizations[_ethAddress].ethAddress == _ethAddress */\n      dup1\n      dup3\n      and\n        /* \"Kyc.sol\":14524:14550  organizations[_ethAddress] */\n      0x00\n      dup2\n      dup2\n      mstore\n        /* \"Kyc.sol\":14524:14537  organizations */\n      0x02\n        /* \"Kyc.sol\":14524:14550  organizations[_ethAddress] */\n      0x20\n      mstore\n      0x40\n      swap1\n      keccak256\n        /* \"Kyc.sol\":14524:14561  organizations[_ethAddress].ethAddress */\n      0x01\n      add\n      sload\n      swap1\n      swap2\n      and\n        /* \"Kyc.sol\":14524:14576  organizations[_ethAddress].ethAddress == _ethAddress */\n      eq\n        /* \"Kyc.sol\":14503:14644  require(... */\n      tag_201\n      jumpi\n      mload(0x40)\n      shl(0xe5, 0x461bcd)\n      dup2\n      mstore\n        /* \"#utility.yul\":16508:16510   */\n      0x20\n        /* \"Kyc.sol\":14503:14644  require(... */\n      0x04\n      dup3\n      add\n        /* \"#utility.yul\":16490:16511   */\n      mstore\n        /* \"#utility.yul\":16547:16549   */\n      0x2a\n        /* \"#utility.yul\":16527:16545   */\n      0x24\n      dup3\n      add\n        /* \"#utility.yul\":16520:16550   */\n      mstore\n        /* \"#utility.yul\":16586:16620   */\n      0x5468697320706172746963756c6172206f7267616e697a6174696f6e7320646f\n        /* \"#utility.yul\":16566:16584   */\n      0x44\n      dup3\n      add\n        /* \"#utility.yul\":16559:16621   */\n      mstore\n      shl(0xb2, 0x195cdb9d08195e1a5cdd)\n        /* \"#utility.yul\":16637:16655   */\n      0x64\n      dup3\n      add\n        /* \"#utility.yul\":16630:16670   */\n      mstore\n        /* \"#utility.yul\":16687:16706   */\n      0x84\n      add\n        /* \"Kyc.sol\":14503:14644  require(... */\n      tag_116\n        /* \"#utility.yul\":16306:16712   */\n      jump\n        /* \"Kyc.sol\":14503:14644  require(... */\n    tag_201:\n      sub(shl(0xa0, 0x01), 0x01)\n        /* \"Kyc.sol\":14675:14704  kycrequestsbyorg[_ethAddress] */\n      dup2\n      and\n      0x00\n      swap1\n      dup2\n      mstore\n        /* \"Kyc.sol\":14675:14691  kycrequestsbyorg */\n      0x03\n        /* \"Kyc.sol\":14675:14704  kycrequestsbyorg[_ethAddress] */\n      0x20\n      mstore\n      0x40\n      swap1\n      keccak256\n        /* \"Kyc.sol\":14675:14719  kycrequestsbyorg[_ethAddress].kycrequestlist */\n      0x02\n      add\n        /* \"Kyc.sol\":14675:14730  kycrequestsbyorg[_ethAddress].kycrequestlist[_reqcount] */\n      dup1\n      sload\n        /* \"Kyc.sol\":14758:14768  msg.sender */\n      caller\n      swap2\n        /* \"Kyc.sol\":14675:14719  kycrequestsbyorg[_ethAddress].kycrequestlist */\n      swap1\n        /* \"Kyc.sol\":14720:14729  _reqcount */\n      dup5\n      swap1\n        /* \"Kyc.sol\":14675:14730  kycrequestsbyorg[_ethAddress].kycrequestlist[_reqcount] */\n      dup2\n      lt\n      tag_205\n      jumpi\n      tag_205\n      tag_143\n      jump\t// in\n    tag_205:\n      0x00\n      swap2\n      dup3\n      mstore\n      0x20\n      swap1\n      swap2\n      keccak256\n        /* \"Kyc.sol\":14675:14738  kycrequestsbyorg[_ethAddress].kycrequestlist[_reqcount].Address */\n      0x01\n        /* \"Kyc.sol\":14675:14730  kycrequestsbyorg[_ethAddress].kycrequestlist[_reqcount] */\n      0x02\n      swap1\n      swap3\n      mul\n      add\n        /* \"Kyc.sol\":14675:14738  kycrequestsbyorg[_ethAddress].kycrequestlist[_reqcount].Address */\n      add\n      sload\n      sub(shl(0xa0, 0x01), 0x01)\n      and\n        /* \"Kyc.sol\":14675:14768  kycrequestsbyorg[_ethAddress].kycrequestlist[_reqcount].Address ==... */\n      eq\n        /* \"Kyc.sol\":14654:14808  require(... */\n      tag_207\n      jumpi\n      mload(0x40)\n      shl(0xe5, 0x461bcd)\n      dup2\n      mstore\n        /* \"#utility.yul\":14330:14332   */\n      0x20\n        /* \"Kyc.sol\":14654:14808  require(... */\n      0x04\n      dup3\n      add\n        /* \"#utility.yul\":14312:14333   */\n      mstore\n        /* \"#utility.yul\":14369:14371   */\n      0x0e\n        /* \"#utility.yul\":14349:14367   */\n      0x24\n      dup3\n      add\n        /* \"#utility.yul\":14342:14372   */\n      mstore\n      shl(0x92, 0x155cd95c881b9bdd081d985b1a59)\n        /* \"#utility.yul\":14388:14406   */\n      0x44\n      dup3\n      add\n        /* \"#utility.yul\":14381:14425   */\n      mstore\n        /* \"#utility.yul\":14442:14460   */\n      0x64\n      add\n        /* \"Kyc.sol\":14654:14808  require(... */\n      tag_116\n        /* \"#utility.yul\":14128:14466   */\n      jump\n        /* \"Kyc.sol\":14654:14808  require(... */\n    tag_207:\n      sub(shl(0xa0, 0x01), 0x01)\n        /* \"Kyc.sol\":14839:14868  kycrequestsbyorg[_ethAddress] */\n      dup2\n      and\n      0x00\n      swap1\n      dup2\n      mstore\n        /* \"Kyc.sol\":14839:14855  kycrequestsbyorg */\n      0x03\n        /* \"Kyc.sol\":14839:14868  kycrequestsbyorg[_ethAddress] */\n      0x20\n      mstore\n      0x40\n      swap1\n      keccak256\n        /* \"Kyc.sol\":14839:14883  kycrequestsbyorg[_ethAddress].kycrequestlist */\n      0x02\n      add\n        /* \"Kyc.sol\":14839:14894  kycrequestsbyorg[_ethAddress].kycrequestlist[_reqcount] */\n      dup1\n      sload\n        /* \"Kyc.sol\":14924:14933  _reqcount */\n      dup4\n      swap2\n        /* \"Kyc.sol\":14839:14883  kycrequestsbyorg[_ethAddress].kycrequestlist */\n      swap1\n        /* \"Kyc.sol\":14924:14933  _reqcount */\n      dup3\n      swap1\n        /* \"Kyc.sol\":14839:14894  kycrequestsbyorg[_ethAddress].kycrequestlist[_reqcount] */\n      dup2\n      lt\n      tag_210\n      jumpi\n      tag_210\n      tag_143\n      jump\t// in\n    tag_210:\n      swap1\n      0x00\n      mstore\n      keccak256(0x00, 0x20)\n      swap1\n      0x02\n      mul\n      add\n        /* \"Kyc.sol\":14839:14904  kycrequestsbyorg[_ethAddress].kycrequestlist[_reqcount].req_count */\n      0x00\n      add\n      sload\n        /* \"Kyc.sol\":14839:14933  kycrequestsbyorg[_ethAddress].kycrequestlist[_reqcount].req_count ==... */\n      eq\n        /* \"Kyc.sol\":14818:14979  require(... */\n      tag_212\n      jumpi\n      mload(0x40)\n      shl(0xe5, 0x461bcd)\n      dup2\n      mstore\n        /* \"#utility.yul\":16159:16161   */\n      0x20\n        /* \"Kyc.sol\":14818:14979  require(... */\n      0x04\n      dup3\n      add\n        /* \"#utility.yul\":16141:16162   */\n      mstore\n        /* \"#utility.yul\":16198:16200   */\n      0x14\n        /* \"#utility.yul\":16178:16196   */\n      0x24\n      dup3\n      add\n        /* \"#utility.yul\":16171:16201   */\n      mstore\n      shl(0x62, 0x14995c5d595cdd08191bd95cdb9d08195e1a5cdd)\n        /* \"#utility.yul\":16217:16235   */\n      0x44\n      dup3\n      add\n        /* \"#utility.yul\":16210:16260   */\n      mstore\n        /* \"#utility.yul\":16277:16295   */\n      0x64\n      add\n        /* \"Kyc.sol\":14818:14979  require(... */\n      tag_116\n        /* \"#utility.yul\":15957:16301   */\n      jump\n        /* \"Kyc.sol\":14818:14979  require(... */\n    tag_212:\n        /* \"Kyc.sol\":14989:15038  deleteRequest(_reqcount, msg.sender, _ethAddress) */\n      tag_214\n        /* \"Kyc.sol\":15003:15012  _reqcount */\n      dup3\n        /* \"Kyc.sol\":15014:15024  msg.sender */\n      caller\n        /* \"Kyc.sol\":15026:15037  _ethAddress */\n      dup4\n        /* \"Kyc.sol\":14989:15002  deleteRequest */\n      tag_199\n        /* \"Kyc.sol\":14989:15038  deleteRequest(_reqcount, msg.sender, _ethAddress) */\n      jump\t// in\n    tag_214:\n        /* \"Kyc.sol\":14419:15045  function deleteRequestCust(uint256 _reqcount, address _ethAddress) public {... */\n      pop\n      pop\n      jump\t// out\n        /* \"Kyc.sol\":4457:4756  function viewOrg(address _ethAddress)... */\n    tag_64:\n      0x40\n      dup1\n      mload\n      dup1\n      dup3\n      add\n      swap1\n      swap2\n      mstore\n      0x60\n      dup2\n      mstore\n      0x00\n      0x20\n      dup3\n      add\n      mstore\n        /* \"Kyc.sol\":1517:1522  admin */\n      and(sub(shl(0xa0, 0x01), 0x01), sload(0x00))\n        /* \"Kyc.sol\":1526:1536  msg.sender */\n      caller\n        /* \"Kyc.sol\":1517:1536  admin == msg.sender */\n      eq\n        /* \"Kyc.sol\":1509:1551  require(admin == msg.sender, \"Admin only\") */\n      tag_217\n      jumpi\n      mload(0x40)\n      shl(0xe5, 0x461bcd)\n      dup2\n      mstore\n      0x04\n      add\n      tag_116\n      swap1\n      tag_219\n      jump\t// in\n    tag_217:\n      sub(shl(0xa0, 0x01), 0x01)\n        /* \"Kyc.sol\":4612:4664  organizations[_ethAddress].ethAddress == _ethAddress */\n      dup1\n      dup4\n      and\n        /* \"Kyc.sol\":4612:4638  organizations[_ethAddress] */\n      0x00\n      dup2\n      dup2\n      mstore\n        /* \"Kyc.sol\":4612:4625  organizations */\n      0x02\n        /* \"Kyc.sol\":4612:4638  organizations[_ethAddress] */\n      0x20\n      mstore\n      0x40\n      swap1\n      keccak256\n        /* \"Kyc.sol\":4612:4649  organizations[_ethAddress].ethAddress */\n      0x01\n      add\n      sload\n      swap1\n      swap2\n      and\n        /* \"Kyc.sol\":4612:4664  organizations[_ethAddress].ethAddress == _ethAddress */\n      eq\n        /* \"Kyc.sol\":4591:4706  require(... */\n      tag_221\n      jumpi\n      mload(0x40)\n      shl(0xe5, 0x461bcd)\n      dup2\n      mstore\n        /* \"#utility.yul\":17258:17260   */\n      0x20\n        /* \"Kyc.sol\":4591:4706  require(... */\n      0x04\n      dup3\n      add\n        /* \"#utility.yul\":17240:17261   */\n      mstore\n        /* \"#utility.yul\":17297:17299   */\n      0x10\n        /* \"#utility.yul\":17277:17295   */\n      0x24\n      dup3\n      add\n        /* \"#utility.yul\":17270:17300   */\n      mstore\n      shl(0x82, 0x13dc99c8191bd95cdb9d08195e1a5cdd)\n        /* \"#utility.yul\":17316:17334   */\n      0x44\n      dup3\n      add\n        /* \"#utility.yul\":17309:17355   */\n      mstore\n        /* \"#utility.yul\":17372:17390   */\n      0x64\n      add\n        /* \"Kyc.sol\":4591:4706  require(... */\n      tag_116\n        /* \"#utility.yul\":17056:17396   */\n      jump\n        /* \"Kyc.sol\":4591:4706  require(... */\n    tag_221:\n      sub(shl(0xa0, 0x01), 0x01)\n        /* \"Kyc.sol\":4723:4749  organizations[_ethAddress] */\n      dup3\n      and\n      0x00\n      swap1\n      dup2\n      mstore\n        /* \"Kyc.sol\":4723:4736  organizations */\n      0x02\n        /* \"Kyc.sol\":4723:4749  organizations[_ethAddress] */\n      0x20\n      mstore\n      0x40\n      swap1\n      dup2\n      swap1\n      keccak256\n        /* \"Kyc.sol\":4716:4749  return organizations[_ethAddress] */\n      dup2\n      mload\n      dup1\n      dup4\n      add\n      swap1\n      swap3\n      mstore\n      dup1\n      sload\n      dup3\n      swap1\n        /* \"Kyc.sol\":4723:4749  organizations[_ethAddress] */\n      dup3\n      swap1\n        /* \"Kyc.sol\":4716:4749  return organizations[_ethAddress] */\n      tag_224\n      swap1\n      tag_168\n      jump\t// in\n    tag_224:\n      dup1\n      0x1f\n      add\n      0x20\n      dup1\n      swap2\n      div\n      mul\n      0x20\n      add\n      mload(0x40)\n      swap1\n      dup2\n      add\n      0x40\n      mstore\n      dup1\n      swap3\n      swap2\n      swap1\n      dup2\n      dup2\n      mstore\n      0x20\n      add\n      dup3\n      dup1\n      sload\n      tag_225\n      swap1\n      tag_168\n      jump\t// in\n    tag_225:\n      dup1\n      iszero\n      tag_226\n      jumpi\n      dup1\n      0x1f\n      lt\n      tag_227\n      jumpi\n      0x0100\n      dup1\n      dup4\n      sload\n      div\n      mul\n      dup4\n      mstore\n      swap2\n      0x20\n      add\n      swap2\n      jump(tag_226)\n    tag_227:\n      dup3\n      add\n      swap2\n      swap1\n      0x00\n      mstore\n      keccak256(0x00, 0x20)\n      swap1\n    tag_228:\n      dup2\n      sload\n      dup2\n      mstore\n      swap1\n      0x01\n      add\n      swap1\n      0x20\n      add\n      dup1\n      dup4\n      gt\n      tag_228\n      jumpi\n      dup3\n      swap1\n      sub\n      0x1f\n      and\n      dup3\n      add\n      swap2\n    tag_226:\n      pop\n      pop\n      pop\n      swap2\n      dup4\n      mstore\n      pop\n      pop\n      0x01\n      swap2\n      swap1\n      swap2\n      add\n      sload\n      sub(shl(0xa0, 0x01), 0x01)\n      and\n      0x20\n      swap1\n      swap2\n      add\n      mstore\n      swap3\n        /* \"Kyc.sol\":4457:4756  function viewOrg(address _ethAddress)... */\n      swap2\n      pop\n      pop\n      jump\t// out\n        /* \"Kyc.sol\":3556:4057  function addOrg(string memory _name, address _ethAddress)... */\n    tag_69:\n        /* \"Kyc.sol\":3662:3666  bool */\n      0x00\n        /* \"Kyc.sol\":1517:1522  admin */\n      dup1\n      sload\n      sub(shl(0xa0, 0x01), 0x01)\n      and\n        /* \"Kyc.sol\":1526:1536  msg.sender */\n      caller\n        /* \"Kyc.sol\":1517:1536  admin == msg.sender */\n      eq\n        /* \"Kyc.sol\":1509:1551  require(admin == msg.sender, \"Admin only\") */\n      tag_230\n      jumpi\n      mload(0x40)\n      shl(0xe5, 0x461bcd)\n      dup2\n      mstore\n      0x04\n      add\n      tag_116\n      swap1\n      tag_219\n      jump\t// in\n    tag_230:\n      sub(shl(0xa0, 0x01), 0x01)\n        /* \"Kyc.sol\":3703:3755  organizations[_ethAddress].ethAddress != _ethAddress */\n      dup1\n      dup4\n      and\n        /* \"Kyc.sol\":3703:3729  organizations[_ethAddress] */\n      0x00\n      dup2\n      dup2\n      mstore\n        /* \"Kyc.sol\":3703:3716  organizations */\n      0x02\n        /* \"Kyc.sol\":3703:3729  organizations[_ethAddress] */\n      0x20\n      mstore\n      0x40\n      swap1\n      keccak256\n        /* \"Kyc.sol\":3703:3740  organizations[_ethAddress].ethAddress */\n      0x01\n      add\n      sload\n      swap1\n      swap2\n      and\n        /* \"Kyc.sol\":3703:3755  organizations[_ethAddress].ethAddress != _ethAddress */\n      sub\n        /* \"Kyc.sol\":3682:3798  require(... */\n      tag_233\n      jumpi\n      mload(0x40)\n      shl(0xe5, 0x461bcd)\n      dup2\n      mstore\n        /* \"#utility.yul\":17603:17605   */\n      0x20\n        /* \"Kyc.sol\":3682:3798  require(... */\n      0x04\n      dup3\n      add\n        /* \"#utility.yul\":17585:17606   */\n      mstore\n        /* \"#utility.yul\":17642:17644   */\n      0x11\n        /* \"#utility.yul\":17622:17640   */\n      0x24\n      dup3\n      add\n        /* \"#utility.yul\":17615:17645   */\n      mstore\n      shl(0x7a, 0x13dc99c8185b1c9958591e481859191959)\n        /* \"#utility.yul\":17661:17679   */\n      0x44\n      dup3\n      add\n        /* \"#utility.yul\":17654:17701   */\n      mstore\n        /* \"#utility.yul\":17718:17736   */\n      0x64\n      add\n        /* \"Kyc.sol\":3682:3798  require(... */\n      tag_116\n        /* \"#utility.yul\":17401:17742   */\n      jump\n        /* \"Kyc.sol\":3682:3798  require(... */\n    tag_233:\n        /* \"Kyc.sol\":3837:3869  Organization(_name, _ethAddress) */\n      0x40\n      dup1\n      mload\n      dup1\n      dup3\n      add\n      dup3\n      mstore\n      dup5\n      dup2\n      mstore\n      sub(shl(0xa0, 0x01), 0x01)\n      dup5\n      and\n      0x20\n      dup1\n      dup4\n      add\n      dup3\n      swap1\n      mstore\n      0x00\n        /* \"Kyc.sol\":3808:3834  organizations[_ethAddress] */\n      swap2\n      dup3\n      mstore\n        /* \"Kyc.sol\":3808:3821  organizations */\n      0x02\n        /* \"Kyc.sol\":3808:3834  organizations[_ethAddress] */\n      swap1\n      mstore\n      swap2\n      swap1\n      swap2\n      keccak256\n        /* \"Kyc.sol\":3808:3869  organizations[_ethAddress] = Organization(_name, _ethAddress) */\n      dup2\n      mload\n        /* \"Kyc.sol\":3808:3834  organizations[_ethAddress] */\n      dup2\n      swap1\n        /* \"Kyc.sol\":3808:3869  organizations[_ethAddress] = Organization(_name, _ethAddress) */\n      tag_236\n      swap1\n        /* \"Kyc.sol\":3808:3834  organizations[_ethAddress] */\n      dup3\n        /* \"Kyc.sol\":3808:3869  organizations[_ethAddress] = Organization(_name, _ethAddress) */\n      tag_237\n      jump\t// in\n    tag_236:\n      pop\n      0x20\n      swap2\n      dup3\n      add\n      mload\n      0x01\n      swap2\n      dup3\n      add\n      dup1\n      sload\n      sub(shl(0xa0, 0x01), 0x01)\n      swap3\n      dup4\n      and\n      not(sub(shl(0xa0, 0x01), 0x01))\n      swap2\n      dup3\n      and\n      or\n      swap1\n      swap2\n      sstore\n        /* \"Kyc.sol\":3879:3908  kycrequestsbyorg[_ethAddress] */\n      swap1\n      dup6\n      and\n        /* \"Kyc.sol\":3808:3869  organizations[_ethAddress] = Organization(_name, _ethAddress) */\n      0x00\n        /* \"Kyc.sol\":3879:3908  kycrequestsbyorg[_ethAddress] */\n      dup2\n      dup2\n      mstore\n        /* \"Kyc.sol\":3879:3895  kycrequestsbyorg */\n      0x03\n        /* \"Kyc.sol\":3879:3908  kycrequestsbyorg[_ethAddress] */\n      swap1\n      swap5\n      mstore\n      0x40\n      dup1\n      dup6\n      keccak256\n        /* \"Kyc.sol\":3879:3933  kycrequestsbyorg[_ethAddress].ethAddress = _ethAddress */\n      dup1\n      sload\n      swap1\n      swap4\n      and\n      swap1\n      swap2\n      or\n      dup3\n      sstore\n        /* \"Kyc.sol\":3943:3982  kycrequestsbyorg[_ethAddress].req_count */\n      swap2\n      add\n        /* \"Kyc.sol\":3943:3986  kycrequestsbyorg[_ethAddress].req_count = 0 */\n      swap2\n      swap1\n      swap2\n      sstore\n        /* \"Kyc.sol\":4001:4029  orgAdded(_name, _ethAddress) */\n      mload\n      0x19cb05bcb9f3a5aa3801619041099231656235762a3599eed02cdcac38facd1c\n      swap1\n      tag_238\n      swap1\n        /* \"Kyc.sol\":4010:4015  _name */\n      dup6\n      swap1\n        /* \"Kyc.sol\":3922:3933  _ethAddress */\n      dup6\n      swap1\n        /* \"Kyc.sol\":4001:4029  orgAdded(_name, _ethAddress) */\n      tag_239\n      jump\t// in\n    tag_238:\n      mload(0x40)\n      dup1\n      swap2\n      sub\n      swap1\n      log1\n      pop\n        /* \"Kyc.sol\":4046:4050  true */\n      0x01\n        /* \"Kyc.sol\":1561:1562  _ */\n    tag_232:\n        /* \"Kyc.sol\":3556:4057  function addOrg(string memory _name, address _ethAddress)... */\n      swap3\n      swap2\n      pop\n      pop\n      jump\t// out\n        /* \"Kyc.sol\":4103:4407  function removeOrg(address _ethAddress) public isAdmin returns (bool) {... */\n    tag_73:\n        /* \"Kyc.sol\":4167:4171  bool */\n      0x00\n        /* \"Kyc.sol\":1517:1522  admin */\n      dup1\n      sload\n      sub(shl(0xa0, 0x01), 0x01)\n      and\n        /* \"Kyc.sol\":1526:1536  msg.sender */\n      caller\n        /* \"Kyc.sol\":1517:1536  admin == msg.sender */\n      eq\n        /* \"Kyc.sol\":1509:1551  require(admin == msg.sender, \"Admin only\") */\n      tag_241\n      jumpi\n      mload(0x40)\n      shl(0xe5, 0x461bcd)\n      dup2\n      mstore\n      0x04\n      add\n      tag_116\n      swap1\n      tag_219\n      jump\t// in\n    tag_241:\n      sub(shl(0xa0, 0x01), 0x01)\n        /* \"Kyc.sol\":4204:4256  organizations[_ethAddress].ethAddress == _ethAddress */\n      dup1\n      dup4\n      and\n        /* \"Kyc.sol\":4204:4230  organizations[_ethAddress] */\n      0x00\n      dup2\n      dup2\n      mstore\n        /* \"Kyc.sol\":4204:4217  organizations */\n      0x02\n        /* \"Kyc.sol\":4204:4230  organizations[_ethAddress] */\n      0x20\n      mstore\n      0x40\n      swap1\n      keccak256\n        /* \"Kyc.sol\":4204:4241  organizations[_ethAddress].ethAddress */\n      0x01\n      add\n      sload\n      swap1\n      swap2\n      and\n        /* \"Kyc.sol\":4204:4256  organizations[_ethAddress].ethAddress == _ethAddress */\n      eq\n        /* \"Kyc.sol\":4183:4298  require(... */\n      tag_244\n      jumpi\n      mload(0x40)\n      shl(0xe5, 0x461bcd)\n      dup2\n      mstore\n        /* \"#utility.yul\":17258:17260   */\n      0x20\n        /* \"Kyc.sol\":4183:4298  require(... */\n      0x04\n      dup3\n      add\n        /* \"#utility.yul\":17240:17261   */\n      mstore\n        /* \"#utility.yul\":17297:17299   */\n      0x10\n        /* \"#utility.yul\":17277:17295   */\n      0x24\n      dup3\n      add\n        /* \"#utility.yul\":17270:17300   */\n      mstore\n      shl(0x82, 0x13dc99c8191bd95cdb9d08195e1a5cdd)\n        /* \"#utility.yul\":17316:17334   */\n      0x44\n      dup3\n      add\n        /* \"#utility.yul\":17309:17355   */\n      mstore\n        /* \"#utility.yul\":17372:17390   */\n      0x64\n      add\n        /* \"Kyc.sol\":4183:4298  require(... */\n      tag_116\n        /* \"#utility.yul\":17056:17396   */\n      jump\n        /* \"Kyc.sol\":4183:4298  require(... */\n    tag_244:\n      sub(shl(0xa0, 0x01), 0x01)\n        /* \"Kyc.sol\":4315:4341  organizations[_ethAddress] */\n      dup3\n      and\n      0x00\n      swap1\n      dup2\n      mstore\n        /* \"Kyc.sol\":4315:4328  organizations */\n      0x02\n        /* \"Kyc.sol\":4315:4341  organizations[_ethAddress] */\n      0x20\n      mstore\n      0x40\n      dup2\n      keccak256\n      swap1\n        /* \"Kyc.sol\":4308:4341  delete organizations[_ethAddress] */\n      tag_246\n        /* \"Kyc.sol\":4315:4341  organizations[_ethAddress] */\n      dup3\n      dup3\n        /* \"Kyc.sol\":4308:4341  delete organizations[_ethAddress] */\n      tag_247\n      jump\t// in\n    tag_246:\n      pop\n      0x01\n      add\n      dup1\n      sload\n      not(sub(shl(0xa0, 0x01), 0x01))\n      and\n      swap1\n      sstore\n        /* \"Kyc.sol\":4356:4379  orgRemoved(_ethAddress) */\n      mload(0x40)\n      sub(shl(0xa0, 0x01), 0x01)\n        /* \"#utility.yul\":12045:12077   */\n      dup4\n      and\n        /* \"#utility.yul\":12027:12078   */\n      dup2\n      mstore\n        /* \"Kyc.sol\":4356:4379  orgRemoved(_ethAddress) */\n      0x4630061df51c52d44a3987b904c6ff220da2cbdeff03ce8750cd14652cae0c6c\n      swap1\n        /* \"#utility.yul\":12015:12017   */\n      0x20\n        /* \"#utility.yul\":12000:12018   */\n      add\n        /* \"Kyc.sol\":4356:4379  orgRemoved(_ethAddress) */\n      mload(0x40)\n      dup1\n      swap2\n      sub\n      swap1\n      log1\n      pop\n        /* \"Kyc.sol\":4396:4400  true */\n      0x01\n        /* \"Kyc.sol\":4103:4407  function removeOrg(address _ethAddress) public isAdmin returns (bool) {... */\n      swap2\n      swap1\n      pop\n      jump\t// out\n        /* \"Kyc.sol\":11339:12128  function requestKYC(address _custaddress) public isOrgValid returns (bool) {... */\n    tag_77:\n        /* \"Kyc.sol\":1711:1721  msg.sender */\n      caller\n        /* \"Kyc.sol\":11408:11412  bool */\n      0x00\n        /* \"Kyc.sol\":1671:1696  organizations[msg.sender] */\n      dup2\n      dup2\n      mstore\n        /* \"Kyc.sol\":1671:1684  organizations */\n      0x02\n        /* \"Kyc.sol\":1671:1696  organizations[msg.sender] */\n      0x20\n      mstore\n      0x40\n      dup2\n      keccak256\n        /* \"Kyc.sol\":1671:1707  organizations[msg.sender].ethAddress */\n      0x01\n      add\n      sload\n        /* \"Kyc.sol\":11408:11412  bool */\n      swap1\n      swap2\n      sub(shl(0xa0, 0x01), 0x01)\n        /* \"Kyc.sol\":1671:1707  organizations[msg.sender].ethAddress */\n      swap1\n      swap2\n      and\n        /* \"Kyc.sol\":1671:1721  organizations[msg.sender].ethAddress == msg.sender */\n      eq\n        /* \"Kyc.sol\":1650:1760  require(... */\n      tag_250\n      jumpi\n      mload(0x40)\n      shl(0xe5, 0x461bcd)\n      dup2\n      mstore\n      0x04\n      add\n      tag_116\n      swap1\n      tag_128\n      jump\t// in\n    tag_250:\n      sub(shl(0xa0, 0x01), 0x01)\n        /* \"Kyc.sol\":11445:11496  customers[_custaddress].custAddress == _custaddress */\n      dup1\n      dup4\n      and\n        /* \"Kyc.sol\":11445:11468  customers[_custaddress] */\n      0x00\n      dup2\n      dup2\n      mstore\n        /* \"Kyc.sol\":11445:11454  customers */\n      0x01\n        /* \"Kyc.sol\":11445:11468  customers[_custaddress] */\n      0x20\n      mstore\n      0x40\n      swap1\n      keccak256\n        /* \"Kyc.sol\":11445:11480  customers[_custaddress].custAddress */\n      sload\n      swap1\n      swap2\n      and\n        /* \"Kyc.sol\":11445:11496  customers[_custaddress].custAddress == _custaddress */\n      eq\n        /* \"Kyc.sol\":11424:11544  require(... */\n      tag_253\n      jumpi\n      mload(0x40)\n      shl(0xe5, 0x461bcd)\n      dup2\n      mstore\n        /* \"#utility.yul\":20475:20477   */\n      0x20\n        /* \"Kyc.sol\":11424:11544  require(... */\n      0x04\n      dup3\n      add\n        /* \"#utility.yul\":20457:20478   */\n      mstore\n        /* \"#utility.yul\":20514:20516   */\n      0x16\n        /* \"#utility.yul\":20494:20512   */\n      0x24\n      dup3\n      add\n        /* \"#utility.yul\":20487:20517   */\n      mstore\n      shl(0x50, 0x437573746f6d657220646f65736e7420657869737473)\n        /* \"#utility.yul\":20533:20551   */\n      0x44\n      dup3\n      add\n        /* \"#utility.yul\":20526:20578   */\n      mstore\n        /* \"#utility.yul\":20595:20613   */\n      0x64\n      add\n        /* \"Kyc.sol\":11424:11544  require(... */\n      tag_116\n        /* \"#utility.yul\":20273:20619   */\n      jump\n        /* \"Kyc.sol\":11424:11544  require(... */\n    tag_253:\n        /* \"Kyc.sol\":11575:11608  findOrg(_custaddress, msg.sender) */\n      tag_256\n        /* \"Kyc.sol\":11583:11595  _custaddress */\n      dup3\n        /* \"Kyc.sol\":11597:11607  msg.sender */\n      caller\n        /* \"Kyc.sol\":11575:11582  findOrg */\n      tag_119\n        /* \"Kyc.sol\":11575:11608  findOrg(_custaddress, msg.sender) */\n      jump\t// in\n    tag_256:\n        /* \"Kyc.sol\":11575:11617  findOrg(_custaddress, msg.sender) == false */\n      iszero\n        /* \"Kyc.sol\":11554:11662  require(... */\n      tag_257\n      jumpi\n      mload(0x40)\n      shl(0xe5, 0x461bcd)\n      dup2\n      mstore\n        /* \"#utility.yul\":20826:20828   */\n      0x20\n        /* \"Kyc.sol\":11554:11662  require(... */\n      0x04\n      dup3\n      add\n        /* \"#utility.yul\":20808:20829   */\n      mstore\n        /* \"#utility.yul\":20865:20867   */\n      0x13\n        /* \"#utility.yul\":20845:20863   */\n      0x24\n      dup3\n      add\n        /* \"#utility.yul\":20838:20868   */\n      mstore\n      shl(0x68, 0x416c7265616479206861766520616363657373)\n        /* \"#utility.yul\":20884:20902   */\n      0x44\n      dup3\n      add\n        /* \"#utility.yul\":20877:20926   */\n      mstore\n        /* \"#utility.yul\":20943:20961   */\n      0x64\n      add\n        /* \"Kyc.sol\":11554:11662  require(... */\n      tag_116\n        /* \"#utility.yul\":20624:20967   */\n      jump\n        /* \"Kyc.sol\":11554:11662  require(... */\n    tag_257:\n        /* \"Kyc.sol\":11680:11705  findRequest(_custaddress) */\n      tag_260\n        /* \"Kyc.sol\":11692:11704  _custaddress */\n      dup3\n        /* \"Kyc.sol\":11680:11691  findRequest */\n      tag_261\n        /* \"Kyc.sol\":11680:11705  findRequest(_custaddress) */\n      jump\t// in\n    tag_260:\n        /* \"Kyc.sol\":11680:11714  findRequest(_custaddress) == false */\n      iszero\n        /* \"Kyc.sol\":11672:11741  require(findRequest(_custaddress) == false, \"Request Already Exists\") */\n      tag_262\n      jumpi\n      mload(0x40)\n      shl(0xe5, 0x461bcd)\n      dup2\n      mstore\n        /* \"#utility.yul\":21174:21176   */\n      0x20\n        /* \"Kyc.sol\":11672:11741  require(findRequest(_custaddress) == false, \"Request Already Exists\") */\n      0x04\n      dup3\n      add\n        /* \"#utility.yul\":21156:21177   */\n      mstore\n        /* \"#utility.yul\":21213:21215   */\n      0x16\n        /* \"#utility.yul\":21193:21211   */\n      0x24\n      dup3\n      add\n        /* \"#utility.yul\":21186:21216   */\n      mstore\n      shl(0x50, 0x5265717565737420416c726561647920457869737473)\n        /* \"#utility.yul\":21232:21250   */\n      0x44\n      dup3\n      add\n        /* \"#utility.yul\":21225:21277   */\n      mstore\n        /* \"#utility.yul\":21294:21312   */\n      0x64\n      add\n        /* \"Kyc.sol\":11672:11741  require(findRequest(_custaddress) == false, \"Request Already Exists\") */\n      tag_116\n        /* \"#utility.yul\":20972:21318   */\n      jump\n        /* \"Kyc.sol\":11672:11741  require(findRequest(_custaddress) == false, \"Request Already Exists\") */\n    tag_262:\n        /* \"Kyc.sol\":11768:11778  msg.sender */\n      caller\n        /* \"Kyc.sol\":11751:11779  kycrequestsbyorg[msg.sender] */\n      0x00\n      dup2\n      dup2\n      mstore\n        /* \"Kyc.sol\":11751:11767  kycrequestsbyorg */\n      0x03\n        /* \"Kyc.sol\":11751:11779  kycrequestsbyorg[msg.sender] */\n      0x20\n      dup2\n      dup2\n      mstore\n      0x40\n      dup1\n      dup5\n      keccak256\n        /* \"Kyc.sol\":11813:11881  kycRequestList(kycrequestsbyorg[msg.sender].req_count, _custaddress) */\n      dup2\n      mload\n      dup1\n      dup4\n      add\n      dup4\n      mstore\n        /* \"Kyc.sol\":11828:11866  kycrequestsbyorg[msg.sender].req_count */\n      0x01\n      dup1\n      dup4\n      add\n      dup1\n      sload\n        /* \"Kyc.sol\":11813:11881  kycRequestList(kycrequestsbyorg[msg.sender].req_count, _custaddress) */\n      dup4\n      mstore\n      sub(shl(0xa0, 0x01), 0x01)\n      dup12\n      dup2\n      and\n      dup5\n      dup9\n      add\n      dup2\n      dup2\n      mstore\n        /* \"Kyc.sol\":11751:11794  kycrequestsbyorg[msg.sender].kycrequestlist */\n      0x02\n      swap7\n      dup8\n      add\n        /* \"Kyc.sol\":11751:11891  kycrequestsbyorg[msg.sender].kycrequestlist.push(... */\n      dup1\n      sload\n      dup1\n      dup8\n      add\n      dup3\n      sstore\n      swap1\n      dup13\n      mstore\n      dup10\n      dup13\n      keccak256\n      swap7\n      mload\n      swap1\n      dup9\n      mul\n      swap1\n      swap7\n      add\n      swap6\n      dup7\n      sstore\n      mload\n      swap5\n      dup5\n      add\n      dup1\n      sload\n      swap6\n      dup4\n      and\n      not(sub(shl(0xa0, 0x01), 0x01))\n      swap7\n      dup8\n      and\n      or\n      swap1\n      sstore\n        /* \"Kyc.sol\":11901:11932  kycrequestsbycust[_custaddress] */\n      dup10\n      mstore\n        /* \"Kyc.sol\":11901:11918  kycrequestsbycust */\n      0x04\n        /* \"Kyc.sol\":11901:11932  kycrequestsbycust[_custaddress] */\n      dup8\n      mstore\n      dup6\n      dup10\n      keccak256\n        /* \"Kyc.sol\":11966:12032  kycRequestList(kycrequestsbyorg[msg.sender].req_count, msg.sender) */\n      dup7\n      mload\n      dup1\n      dup9\n      add\n      swap1\n      swap8\n      mstore\n        /* \"Kyc.sol\":11981:12009  kycrequestsbyorg[msg.sender] */\n      dup9\n      dup9\n      mstore\n        /* \"Kyc.sol\":11981:12019  kycrequestsbyorg[msg.sender].req_count */\n      dup3\n      sload\n        /* \"Kyc.sol\":11966:12032  kycRequestList(kycrequestsbyorg[msg.sender].req_count, msg.sender) */\n      dup8\n      mstore\n      dup7\n      dup9\n      add\n      dup12\n      dup2\n      mstore\n        /* \"Kyc.sol\":11901:12042  kycrequestsbycust[_custaddress].kycrequestlist.push(... */\n      dup2\n      sload\n      dup1\n      dup7\n      add\n      dup4\n      sstore\n      swap2\n      dup12\n      mstore\n      dup9\n      dup12\n      keccak256\n      swap8\n      mload\n      swap2\n      swap1\n      swap7\n      mul\n      swap1\n      swap7\n      add\n      swap6\n      dup7\n      sstore\n      swap4\n      mload\n      swap5\n      swap1\n      swap2\n      add\n      dup1\n      sload\n      swap5\n      swap1\n      swap4\n      and\n      swap4\n      swap1\n      swap2\n      and\n      swap3\n      swap1\n      swap3\n      or\n      swap1\n      sstore\n        /* \"Kyc.sol\":12052:12080  kycrequestsbyorg[msg.sender] */\n      swap4\n      dup4\n      mstore\n      mstore\n        /* \"Kyc.sol\":12052:12092  kycrequestsbyorg[msg.sender].req_count++ */\n      dup2\n      sload\n      swap2\n        /* \"Kyc.sol\":11828:11866  kycrequestsbyorg[msg.sender].req_count */\n      swap1\n        /* \"Kyc.sol\":12052:12092  kycrequestsbyorg[msg.sender].req_count++ */\n      tag_267\n      dup4\n      tag_268\n      jump\t// in\n    tag_267:\n      swap1\n      swap2\n      sstore\n      pop\n        /* \"Kyc.sol\":12117:12121  true */\n      0x01\n      swap4\n        /* \"Kyc.sol\":11339:12128  function requestKYC(address _custaddress) public isOrgValid returns (bool) {... */\n      swap3\n      pop\n      pop\n      pop\n      jump\t// out\n        /* \"Kyc.sol\":9615:10162  function viewRequestCust() public view returns (kycRequestList[] memory) {... */\n    tag_80:\n        /* \"Kyc.sol\":9663:9686  kycRequestList[] memory */\n      0x60\n        /* \"Kyc.sol\":9706:9717  validCust() */\n      tag_270\n        /* \"Kyc.sol\":9706:9715  validCust */\n      tag_101\n        /* \"Kyc.sol\":9706:9717  validCust() */\n      jump\t// in\n    tag_270:\n        /* \"Kyc.sol\":9698:9740  require(validCust(), \"Customer not valid\") */\n      tag_271\n      jumpi\n      mload(0x40)\n      shl(0xe5, 0x461bcd)\n      dup2\n      mstore\n        /* \"#utility.yul\":21797:21799   */\n      0x20\n        /* \"Kyc.sol\":9698:9740  require(validCust(), \"Customer not valid\") */\n      0x04\n      dup3\n      add\n        /* \"#utility.yul\":21779:21800   */\n      mstore\n        /* \"#utility.yul\":21836:21838   */\n      0x12\n        /* \"#utility.yul\":21816:21834   */\n      0x24\n      dup3\n      add\n        /* \"#utility.yul\":21809:21839   */\n      mstore\n      shl(0x72, 0x10dd5cdd1bdb595c881b9bdd081d985b1a59)\n        /* \"#utility.yul\":21855:21873   */\n      0x44\n      dup3\n      add\n        /* \"#utility.yul\":21848:21896   */\n      mstore\n        /* \"#utility.yul\":21913:21931   */\n      0x64\n      add\n        /* \"Kyc.sol\":9698:9740  require(validCust(), \"Customer not valid\") */\n      tag_116\n        /* \"#utility.yul\":21595:21937   */\n      jump\n        /* \"Kyc.sol\":9698:9740  require(validCust(), \"Customer not valid\") */\n    tag_271:\n        /* \"Kyc.sol\":9832:9842  msg.sender */\n      caller\n        /* \"Kyc.sol\":9750:9777  kycRequestList[] memory ret */\n      0x00\n        /* \"Kyc.sol\":9814:9843  kycrequestsbycust[msg.sender] */\n      swap1\n      dup2\n      mstore\n        /* \"Kyc.sol\":9814:9831  kycrequestsbycust */\n      0x04\n        /* \"Kyc.sol\":9814:9843  kycrequestsbycust[msg.sender] */\n      0x20\n      mstore\n      0x40\n      dup2\n      keccak256\n        /* \"Kyc.sol\":9814:9865  kycrequestsbycust[msg.sender].kycrequestlist.length */\n      sload\n      sub(shl(0x40, 0x01), 0x01)\n        /* \"Kyc.sol\":9780:9875  new kycRequestList[](... */\n      dup2\n      gt\n      iszero\n      tag_275\n      jumpi\n      tag_275\n      tag_276\n      jump\t// in\n    tag_275:\n      mload(0x40)\n      swap1\n      dup1\n      dup3\n      mstore\n      dup1\n      0x20\n      mul\n      0x20\n      add\n      dup3\n      add\n      0x40\n      mstore\n      dup1\n      iszero\n      tag_277\n      jumpi\n      dup2\n      0x20\n      add\n    tag_278:\n      0x40\n      dup1\n      mload\n      dup1\n      dup3\n      add\n      swap1\n      swap2\n      mstore\n      0x00\n      dup1\n      dup3\n      mstore\n      0x20\n      dup3\n      add\n      mstore\n      dup2\n      mstore\n      0x20\n      add\n      swap1\n      0x01\n      swap1\n      sub\n      swap1\n      dup2\n      tag_278\n      jumpi\n      swap1\n      pop\n    tag_277:\n      pop\n        /* \"Kyc.sol\":9750:9875  kycRequestList[] memory ret = new kycRequestList[](... */\n      swap1\n      pop\n        /* \"Kyc.sol\":9885:9894  uint256 j */\n      0x00\n        /* \"Kyc.sol\":9926:9935  uint256 i */\n      dup1\n        /* \"Kyc.sol\":9908:10134  for (... */\n    tag_281:\n        /* \"Kyc.sol\":9975:9985  msg.sender */\n      caller\n        /* \"Kyc.sol\":9957:9986  kycrequestsbycust[msg.sender] */\n      0x00\n      swap1\n      dup2\n      mstore\n        /* \"Kyc.sol\":9957:9974  kycrequestsbycust */\n      0x04\n        /* \"Kyc.sol\":9957:9986  kycrequestsbycust[msg.sender] */\n      0x20\n      mstore\n      0x40\n      swap1\n      keccak256\n        /* \"Kyc.sol\":9957:10008  kycrequestsbycust[msg.sender].kycrequestlist.length */\n      sload\n        /* \"Kyc.sol\":9953:10008  i < kycrequestsbycust[msg.sender].kycrequestlist.length */\n      dup2\n      lt\n        /* \"Kyc.sol\":9908:10134  for (... */\n      iszero\n      tag_282\n      jumpi\n        /* \"Kyc.sol\":10077:10087  msg.sender */\n      caller\n        /* \"Kyc.sol\":10059:10088  kycrequestsbycust[msg.sender] */\n      0x00\n      swap1\n      dup2\n      mstore\n        /* \"Kyc.sol\":10059:10076  kycrequestsbycust */\n      0x04\n        /* \"Kyc.sol\":10059:10088  kycrequestsbycust[msg.sender] */\n      0x20\n      mstore\n      0x40\n      swap1\n      keccak256\n        /* \"Kyc.sol\":10059:10106  kycrequestsbycust[msg.sender].kycrequestlist[i] */\n      dup1\n      sload\n        /* \"Kyc.sol\":10104:10105  i */\n      dup3\n      swap1\n        /* \"Kyc.sol\":10059:10106  kycrequestsbycust[msg.sender].kycrequestlist[i] */\n      dup2\n      lt\n      tag_285\n      jumpi\n      tag_285\n      tag_143\n      jump\t// in\n    tag_285:\n      0x00\n      swap2\n      dup3\n      mstore\n      0x20\n      swap2\n      dup3\n      swap1\n      keccak256\n        /* \"Kyc.sol\":10050:10106  ret[j] = kycrequestsbycust[msg.sender].kycrequestlist[i] */\n      0x40\n      dup1\n      mload\n      dup1\n      dup3\n      add\n      swap1\n      swap2\n      mstore\n        /* \"Kyc.sol\":10059:10106  kycrequestsbycust[msg.sender].kycrequestlist[i] */\n      0x02\n      swap1\n      swap3\n      mul\n      add\n        /* \"Kyc.sol\":10050:10106  ret[j] = kycrequestsbycust[msg.sender].kycrequestlist[i] */\n      dup1\n      sload\n      dup3\n      mstore\n      0x01\n      add\n      sload\n      sub(shl(0xa0, 0x01), 0x01)\n      and\n      swap2\n      dup2\n      add\n      swap2\n      swap1\n      swap2\n      mstore\n        /* \"Kyc.sol\":10050:10056  ret[j] */\n      dup4\n      mload\n        /* \"Kyc.sol\":10050:10053  ret */\n      dup5\n      swap1\n        /* \"Kyc.sol\":10054:10055  j */\n      dup5\n      swap1\n        /* \"Kyc.sol\":10050:10056  ret[j] */\n      dup2\n      lt\n      tag_288\n      jumpi\n      tag_288\n      tag_143\n      jump\t// in\n    tag_288:\n      0x20\n      mul\n      0x20\n      add\n      add\n        /* \"Kyc.sol\":10050:10106  ret[j] = kycrequestsbycust[msg.sender].kycrequestlist[i] */\n      dup2\n      swap1\n      mstore\n      pop\n        /* \"Kyc.sol\":10120:10123  j++ */\n      dup2\n      dup1\n      tag_289\n      swap1\n      tag_268\n      jump\t// in\n    tag_289:\n      swap3\n      pop\n      pop\n        /* \"Kyc.sol\":10022:10025  i++ */\n      dup1\n      dup1\n      tag_290\n      swap1\n      tag_268\n      jump\t// in\n    tag_290:\n      swap2\n      pop\n      pop\n        /* \"Kyc.sol\":9908:10134  for (... */\n      jump(tag_281)\n    tag_282:\n      pop\n        /* \"Kyc.sol\":10151:10154  ret */\n      swap1\n      swap3\n        /* \"Kyc.sol\":9615:10162  function viewRequestCust() public view returns (kycRequestList[] memory) {... */\n      swap2\n      pop\n      pop\n      jump\t// out\n        /* \"Kyc.sol\":9192:9350  function viewYourKYC() public view returns (Customer memory) {... */\n    tag_84:\n        /* \"Kyc.sol\":9236:9251  Customer memory */\n      tag_291\n      mload(0x40)\n      dup1\n      0x01a0\n      add\n      0x40\n      mstore\n      dup1\n      and(sub(shl(0xa0, 0x01), 0x01), 0x00)\n      dup2\n      mstore\n      0x20\n      add\n      0x60\n      dup2\n      mstore\n      0x20\n      add\n      0x60\n      dup2\n      mstore\n      0x20\n      add\n      0x60\n      dup2\n      mstore\n      0x20\n      add\n      0x60\n      dup2\n      mstore\n      0x20\n      add\n      0x60\n      dup2\n      mstore\n      0x20\n      add\n      0x60\n      dup2\n      mstore\n      0x20\n      add\n      0x60\n      dup2\n      mstore\n      0x20\n      add\n      0x60\n      dup2\n      mstore\n      0x20\n      add\n      0x00\n      dup2\n      mstore\n      0x20\n      add\n      0x00\n      dup2\n      mstore\n      0x20\n      add\n      0x60\n      dup2\n      mstore\n      0x20\n      add\n      iszero(iszero(0x00))\n      dup2\n      mstore\n      pop\n      swap1\n      jump\n    tag_291:\n        /* \"Kyc.sol\":9271:9282  validCust() */\n      tag_294\n        /* \"Kyc.sol\":9271:9280  validCust */\n      tag_101\n        /* \"Kyc.sol\":9271:9282  validCust() */\n      jump\t// in\n    tag_294:\n        /* \"Kyc.sol\":9263:9305  require(validCust(), \"Customer not valid\") */\n      tag_295\n      jumpi\n      mload(0x40)\n      shl(0xe5, 0x461bcd)\n      dup2\n      mstore\n        /* \"#utility.yul\":21797:21799   */\n      0x20\n        /* \"Kyc.sol\":9263:9305  require(validCust(), \"Customer not valid\") */\n      0x04\n      dup3\n      add\n        /* \"#utility.yul\":21779:21800   */\n      mstore\n        /* \"#utility.yul\":21836:21838   */\n      0x12\n        /* \"#utility.yul\":21816:21834   */\n      0x24\n      dup3\n      add\n        /* \"#utility.yul\":21809:21839   */\n      mstore\n      shl(0x72, 0x10dd5cdd1bdb595c881b9bdd081d985b1a59)\n        /* \"#utility.yul\":21855:21873   */\n      0x44\n      dup3\n      add\n        /* \"#utility.yul\":21848:21896   */\n      mstore\n        /* \"#utility.yul\":21913:21931   */\n      0x64\n      add\n        /* \"Kyc.sol\":9263:9305  require(validCust(), \"Customer not valid\") */\n      tag_116\n        /* \"#utility.yul\":21595:21937   */\n      jump\n        /* \"Kyc.sol\":9263:9305  require(validCust(), \"Customer not valid\") */\n    tag_295:\n        /* \"Kyc.sol\":9332:9342  msg.sender */\n      caller\n        /* \"Kyc.sol\":9322:9343  customers[msg.sender] */\n      0x00\n      swap1\n      dup2\n      mstore\n        /* \"Kyc.sol\":9322:9331  customers */\n      0x01\n        /* \"Kyc.sol\":9322:9343  customers[msg.sender] */\n      0x20\n      dup2\n      dup2\n      mstore\n      0x40\n      swap3\n      dup4\n      swap1\n      keccak256\n        /* \"Kyc.sol\":9315:9343  return customers[msg.sender] */\n      dup4\n      mload\n      0x01a0\n      dup2\n      add\n      swap1\n      swap5\n      mstore\n      dup1\n      sload\n      sub(shl(0xa0, 0x01), 0x01)\n      and\n      dup5\n      mstore\n      swap2\n      dup3\n      add\n      dup1\n      sload\n      swap2\n      dup5\n      add\n      swap2\n      tag_297\n      swap1\n      tag_168\n      jump\t// in\n    tag_297:\n      dup1\n      0x1f\n      add\n      0x20\n      dup1\n      swap2\n      div\n      mul\n      0x20\n      add\n      mload(0x40)\n      swap1\n      dup2\n      add\n      0x40\n      mstore\n      dup1\n      swap3\n      swap2\n      swap1\n      dup2\n      dup2\n      mstore\n      0x20\n      add\n      dup3\n      dup1\n      sload\n      tag_298\n      swap1\n      tag_168\n      jump\t// in\n    tag_298:\n      dup1\n      iszero\n      tag_299\n      jumpi\n      dup1\n      0x1f\n      lt\n      tag_300\n      jumpi\n      0x0100\n      dup1\n      dup4\n      sload\n      div\n      mul\n      dup4\n      mstore\n      swap2\n      0x20\n      add\n      swap2\n      jump(tag_299)\n    tag_300:\n      dup3\n      add\n      swap2\n      swap1\n      0x00\n      mstore\n      keccak256(0x00, 0x20)\n      swap1\n    tag_301:\n      dup2\n      sload\n      dup2\n      mstore\n      swap1\n      0x01\n      add\n      swap1\n      0x20\n      add\n      dup1\n      dup4\n      gt\n      tag_301\n      jumpi\n      dup3\n      swap1\n      sub\n      0x1f\n      and\n      dup3\n      add\n      swap2\n    tag_299:\n      pop\n      pop\n      pop\n      pop\n      pop\n      dup2\n      mstore\n      0x20\n      add\n      0x02\n      dup3\n      add\n      dup1\n      sload\n      tag_302\n      swap1\n      tag_168\n      jump\t// in\n    tag_302:\n      dup1\n      0x1f\n      add\n      0x20\n      dup1\n      swap2\n      div\n      mul\n      0x20\n      add\n      mload(0x40)\n      swap1\n      dup2\n      add\n      0x40\n      mstore\n      dup1\n      swap3\n      swap2\n      swap1\n      dup2\n      dup2\n      mstore\n      0x20\n      add\n      dup3\n      dup1\n      sload\n      tag_303\n      swap1\n      tag_168\n      jump\t// in\n    tag_303:\n      dup1\n      iszero\n      tag_304\n      jumpi\n      dup1\n      0x1f\n      lt\n      tag_305\n      jumpi\n      0x0100\n      dup1\n      dup4\n      sload\n      div\n      mul\n      dup4\n      mstore\n      swap2\n      0x20\n      add\n      swap2\n      jump(tag_304)\n    tag_305:\n      dup3\n      add\n      swap2\n      swap1\n      0x00\n      mstore\n      keccak256(0x00, 0x20)\n      swap1\n    tag_306:\n      dup2\n      sload\n      dup2\n      mstore\n      swap1\n      0x01\n      add\n      swap1\n      0x20\n      add\n      dup1\n      dup4\n      gt\n      tag_306\n      jumpi\n      dup3\n      swap1\n      sub\n      0x1f\n      and\n      dup3\n      add\n      swap2\n    tag_304:\n      pop\n      pop\n      pop\n      pop\n      pop\n      dup2\n      mstore\n      0x20\n      add\n      0x03\n      dup3\n      add\n      dup1\n      sload\n      tag_307\n      swap1\n      tag_168\n      jump\t// in\n    tag_307:\n      dup1\n      0x1f\n      add\n      0x20\n      dup1\n      swap2\n      div\n      mul\n      0x20\n      add\n      mload(0x40)\n      swap1\n      dup2\n      add\n      0x40\n      mstore\n      dup1\n      swap3\n      swap2\n      swap1\n      dup2\n      dup2\n      mstore\n      0x20\n      add\n      dup3\n      dup1\n      sload\n      tag_308\n      swap1\n      tag_168\n      jump\t// in\n    tag_308:\n      dup1\n      iszero\n      tag_309\n      jumpi\n      dup1\n      0x1f\n      lt\n      tag_310\n      jumpi\n      0x0100\n      dup1\n      dup4\n      sload\n      div\n      mul\n      dup4\n      mstore\n      swap2\n      0x20\n      add\n      swap2\n      jump(tag_309)\n    tag_310:\n      dup3\n      add\n      swap2\n      swap1\n      0x00\n      mstore\n      keccak256(0x00, 0x20)\n      swap1\n    tag_311:\n      dup2\n      sload\n      dup2\n      mstore\n      swap1\n      0x01\n      add\n      swap1\n      0x20\n      add\n      dup1\n      dup4\n      gt\n      tag_311\n      jumpi\n      dup3\n      swap1\n      sub\n      0x1f\n      and\n      dup3\n      add\n      swap2\n    tag_309:\n      pop\n      pop\n      pop\n      pop\n      pop\n      dup2\n      mstore\n      0x20\n      add\n      0x04\n      dup3\n      add\n      dup1\n      sload\n      tag_312\n      swap1\n      tag_168\n      jump\t// in\n    tag_312:\n      dup1\n      0x1f\n      add\n      0x20\n      dup1\n      swap2\n      div\n      mul\n      0x20\n      add\n      mload(0x40)\n      swap1\n      dup2\n      add\n      0x40\n      mstore\n      dup1\n      swap3\n      swap2\n      swap1\n      dup2\n      dup2\n      mstore\n      0x20\n      add\n      dup3\n      dup1\n      sload\n      tag_313\n      swap1\n      tag_168\n      jump\t// in\n    tag_313:\n      dup1\n      iszero\n      tag_314\n      jumpi\n      dup1\n      0x1f\n      lt\n      tag_315\n      jumpi\n      0x0100\n      dup1\n      dup4\n      sload\n      div\n      mul\n      dup4\n      mstore\n      swap2\n      0x20\n      add\n      swap2\n      jump(tag_314)\n    tag_315:\n      dup3\n      add\n      swap2\n      swap1\n      0x00\n      mstore\n      keccak256(0x00, 0x20)\n      swap1\n    tag_316:\n      dup2\n      sload\n      dup2\n      mstore\n      swap1\n      0x01\n      add\n      swap1\n      0x20\n      add\n      dup1\n      dup4\n      gt\n      tag_316\n      jumpi\n      dup3\n      swap1\n      sub\n      0x1f\n      and\n      dup3\n      add\n      swap2\n    tag_314:\n      pop\n      pop\n      pop\n      pop\n      pop\n      dup2\n      mstore\n      0x20\n      add\n      0x05\n      dup3\n      add\n      dup1\n      sload\n      tag_317\n      swap1\n      tag_168\n      jump\t// in\n    tag_317:\n      dup1\n      0x1f\n      add\n      0x20\n      dup1\n      swap2\n      div\n      mul\n      0x20\n      add\n      mload(0x40)\n      swap1\n      dup2\n      add\n      0x40\n      mstore\n      dup1\n      swap3\n      swap2\n      swap1\n      dup2\n      dup2\n      mstore\n      0x20\n      add\n      dup3\n      dup1\n      sload\n      tag_318\n      swap1\n      tag_168\n      jump\t// in\n    tag_318:\n      dup1\n      iszero\n      tag_319\n      jumpi\n      dup1\n      0x1f\n      lt\n      tag_320\n      jumpi\n      0x0100\n      dup1\n      dup4\n      sload\n      div\n      mul\n      dup4\n      mstore\n      swap2\n      0x20\n      add\n      swap2\n      jump(tag_319)\n    tag_320:\n      dup3\n      add\n      swap2\n      swap1\n      0x00\n      mstore\n      keccak256(0x00, 0x20)\n      swap1\n    tag_321:\n      dup2\n      sload\n      dup2\n      mstore\n      swap1\n      0x01\n      add\n      swap1\n      0x20\n      add\n      dup1\n      dup4\n      gt\n      tag_321\n      jumpi\n      dup3\n      swap1\n      sub\n      0x1f\n      and\n      dup3\n      add\n      swap2\n    tag_319:\n      pop\n      pop\n      pop\n      pop\n      pop\n      dup2\n      mstore\n      0x20\n      add\n      0x06\n      dup3\n      add\n      dup1\n      sload\n      tag_322\n      swap1\n      tag_168\n      jump\t// in\n    tag_322:\n      dup1\n      0x1f\n      add\n      0x20\n      dup1\n      swap2\n      div\n      mul\n      0x20\n      add\n      mload(0x40)\n      swap1\n      dup2\n      add\n      0x40\n      mstore\n      dup1\n      swap3\n      swap2\n      swap1\n      dup2\n      dup2\n      mstore\n      0x20\n      add\n      dup3\n      dup1\n      sload\n      tag_323\n      swap1\n      tag_168\n      jump\t// in\n    tag_323:\n      dup1\n      iszero\n      tag_324\n      jumpi\n      dup1\n      0x1f\n      lt\n      tag_325\n      jumpi\n      0x0100\n      dup1\n      dup4\n      sload\n      div\n      mul\n      dup4\n      mstore\n      swap2\n      0x20\n      add\n      swap2\n      jump(tag_324)\n    tag_325:\n      dup3\n      add\n      swap2\n      swap1\n      0x00\n      mstore\n      keccak256(0x00, 0x20)\n      swap1\n    tag_326:\n      dup2\n      sload\n      dup2\n      mstore\n      swap1\n      0x01\n      add\n      swap1\n      0x20\n      add\n      dup1\n      dup4\n      gt\n      tag_326\n      jumpi\n      dup3\n      swap1\n      sub\n      0x1f\n      and\n      dup3\n      add\n      swap2\n    tag_324:\n      pop\n      pop\n      pop\n      pop\n      pop\n      dup2\n      mstore\n      0x20\n      add\n      0x07\n      dup3\n      add\n      dup1\n      sload\n      tag_327\n      swap1\n      tag_168\n      jump\t// in\n    tag_327:\n      dup1\n      0x1f\n      add\n      0x20\n      dup1\n      swap2\n      div\n      mul\n      0x20\n      add\n      mload(0x40)\n      swap1\n      dup2\n      add\n      0x40\n      mstore\n      dup1\n      swap3\n      swap2\n      swap1\n      dup2\n      dup2\n      mstore\n      0x20\n      add\n      dup3\n      dup1\n      sload\n      tag_328\n      swap1\n      tag_168\n      jump\t// in\n    tag_328:\n      dup1\n      iszero\n      tag_329\n      jumpi\n      dup1\n      0x1f\n      lt\n      tag_330\n      jumpi\n      0x0100\n      dup1\n      dup4\n      sload\n      div\n      mul\n      dup4\n      mstore\n      swap2\n      0x20\n      add\n      swap2\n      jump(tag_329)\n    tag_330:\n      dup3\n      add\n      swap2\n      swap1\n      0x00\n      mstore\n      keccak256(0x00, 0x20)\n      swap1\n    tag_331:\n      dup2\n      sload\n      dup2\n      mstore\n      swap1\n      0x01\n      add\n      swap1\n      0x20\n      add\n      dup1\n      dup4\n      gt\n      tag_331\n      jumpi\n      dup3\n      swap1\n      sub\n      0x1f\n      and\n      dup3\n      add\n      swap2\n    tag_329:\n      pop\n      pop\n      pop\n      pop\n      pop\n      dup2\n      mstore\n      0x20\n      add\n      0x08\n      dup3\n      add\n      dup1\n      sload\n      tag_332\n      swap1\n      tag_168\n      jump\t// in\n    tag_332:\n      dup1\n      0x1f\n      add\n      0x20\n      dup1\n      swap2\n      div\n      mul\n      0x20\n      add\n      mload(0x40)\n      swap1\n      dup2\n      add\n      0x40\n      mstore\n      dup1\n      swap3\n      swap2\n      swap1\n      dup2\n      dup2\n      mstore\n      0x20\n      add\n      dup3\n      dup1\n      sload\n      tag_333\n      swap1\n      tag_168\n      jump\t// in\n    tag_333:\n      dup1\n      iszero\n      tag_334\n      jumpi\n      dup1\n      0x1f\n      lt\n      tag_335\n      jumpi\n      0x0100\n      dup1\n      dup4\n      sload\n      div\n      mul\n      dup4\n      mstore\n      swap2\n      0x20\n      add\n      swap2\n      jump(tag_334)\n    tag_335:\n      dup3\n      add\n      swap2\n      swap1\n      0x00\n      mstore\n      keccak256(0x00, 0x20)\n      swap1\n    tag_336:\n      dup2\n      sload\n      dup2\n      mstore\n      swap1\n      0x01\n      add\n      swap1\n      0x20\n      add\n      dup1\n      dup4\n      gt\n      tag_336\n      jumpi\n      dup3\n      swap1\n      sub\n      0x1f\n      and\n      dup3\n      add\n      swap2\n    tag_334:\n      pop\n      pop\n      pop\n      pop\n      pop\n      dup2\n      mstore\n      0x20\n      add\n      0x09\n      dup3\n      add\n      sload\n      dup2\n      mstore\n      0x20\n      add\n      0x0a\n      dup3\n      add\n      sload\n      dup2\n      mstore\n      0x20\n      add\n      0x0b\n      dup3\n      add\n      dup1\n      sload\n      dup1\n      0x20\n      mul\n      0x20\n      add\n      mload(0x40)\n      swap1\n      dup2\n      add\n      0x40\n      mstore\n      dup1\n      swap3\n      swap2\n      swap1\n      dup2\n      dup2\n      mstore\n      0x20\n      add\n      dup3\n      dup1\n      sload\n      dup1\n      iszero\n      tag_337\n      jumpi\n      0x20\n      mul\n      dup3\n      add\n      swap2\n      swap1\n      0x00\n      mstore\n      keccak256(0x00, 0x20)\n      swap1\n    tag_338:\n      dup2\n      sload\n      sub(shl(0xa0, 0x01), 0x01)\n      and\n      dup2\n      mstore\n      0x01\n      swap1\n      swap2\n      add\n      swap1\n      0x20\n      add\n      dup1\n      dup4\n      gt\n      tag_338\n      jumpi\n    tag_337:\n      pop\n      pop\n      pop\n      swap2\n      dup4\n      mstore\n      pop\n      pop\n      0x0c\n      swap2\n      swap1\n      swap2\n      add\n      sload\n      0xff\n      and\n      iszero\n      iszero\n      0x20\n      swap1\n      swap2\n      add\n      mstore\n      swap2\n        /* \"Kyc.sol\":9192:9350  function viewYourKYC() public view returns (Customer memory) {... */\n      swap1\n      pop\n      jump\t// out\n        /* \"Kyc.sol\":5138:5307  function validAdmin() public view returns (bool) {... */\n    tag_88:\n        /* \"Kyc.sol\":5181:5185  bool */\n      0x00\n        /* \"Kyc.sol\":5201:5206  admin */\n      dup1\n      sload\n        /* \"Kyc.sol\":5210:5220  msg.sender */\n      caller\n      sub(shl(0xa0, 0x01), 0x01)\n        /* \"Kyc.sol\":5201:5206  admin */\n      swap1\n      swap2\n      and\n        /* \"Kyc.sol\":5201:5220  admin == msg.sender */\n      sub\n        /* \"Kyc.sol\":5197:5301  if (admin == msg.sender) {... */\n      tag_180\n      jumpi\n      pop\n        /* \"Kyc.sol\":5243:5247  true */\n      0x01\n      swap1\n        /* \"Kyc.sol\":5138:5307  function validAdmin() public view returns (bool) {... */\n      jump\t// out\n        /* \"Kyc.sol\":7747:9186  function viewKYC(address _custaddress)... */\n    tag_92:\n        /* \"Kyc.sol\":7844:7862  string memory name */\n      0x60\n        /* \"Kyc.sol\":7876:7900  string memory fatherName */\n      dup1\n        /* \"Kyc.sol\":7914:7938  string memory motherName */\n      0x60\n        /* \"Kyc.sol\":7952:7981  string memory grandfatherName */\n      dup1\n        /* \"Kyc.sol\":7995:8025  string memory temporaryAddress */\n      0x60\n        /* \"Kyc.sol\":8039:8070  string memory permanenetAddress */\n      dup1\n        /* \"Kyc.sol\":8084:8111  string memory contactNumber */\n      0x60\n        /* \"Kyc.sol\":8125:8142  string memory dob */\n      dup1\n        /* \"Kyc.sol\":8156:8171  bool _kycStatus */\n      0x00\n        /* \"Kyc.sol\":8185:8195  uint256 _d */\n      dup1\n        /* \"Kyc.sol\":8209:8219  uint256 _n */\n      0x00\n        /* \"Kyc.sol\":8265:8298  findOrg(_custaddress, msg.sender) */\n      tag_343\n        /* \"Kyc.sol\":8273:8285  _custaddress */\n      dup13\n        /* \"Kyc.sol\":8287:8297  msg.sender */\n      caller\n        /* \"Kyc.sol\":8265:8272  findOrg */\n      tag_119\n        /* \"Kyc.sol\":8265:8298  findOrg(_custaddress, msg.sender) */\n      jump\t// in\n    tag_343:\n        /* \"Kyc.sol\":8244:8354  require(... */\n      tag_344\n      jumpi\n      mload(0x40)\n      shl(0xe5, 0x461bcd)\n      dup2\n      mstore\n        /* \"#utility.yul\":22144:22146   */\n      0x20\n        /* \"Kyc.sol\":8244:8354  require(... */\n      0x04\n      dup3\n      add\n        /* \"#utility.yul\":22126:22147   */\n      mstore\n        /* \"#utility.yul\":22183:22185   */\n      0x1e\n        /* \"#utility.yul\":22163:22181   */\n      0x24\n      dup3\n      add\n        /* \"#utility.yul\":22156:22186   */\n      mstore\n        /* \"#utility.yul\":22222:22254   */\n      0x55736572206861736e7420676976656e20746865697220636f6e73656e740000\n        /* \"#utility.yul\":22202:22220   */\n      0x44\n      dup3\n      add\n        /* \"#utility.yul\":22195:22255   */\n      mstore\n        /* \"#utility.yul\":22272:22290   */\n      0x64\n      add\n        /* \"Kyc.sol\":8244:8354  require(... */\n      tag_116\n        /* \"#utility.yul\":21942:22296   */\n      jump\n        /* \"Kyc.sol\":8244:8354  require(... */\n    tag_344:\n      sub(shl(0xa0, 0x01), 0x01)\n        /* \"Kyc.sol\":8386:8409  customers[_custaddress] */\n      dup1\n      dup14\n      and\n        /* \"Kyc.sol\":8364:8383  Customer memory cus */\n      0x00\n        /* \"Kyc.sol\":8386:8409  customers[_custaddress] */\n      swap1\n      dup2\n      mstore\n        /* \"Kyc.sol\":8386:8395  customers */\n      0x01\n        /* \"Kyc.sol\":8386:8409  customers[_custaddress] */\n      0x20\n      dup2\n      dup2\n      mstore\n      0x40\n      dup1\n      dup5\n      keccak256\n        /* \"Kyc.sol\":8364:8409  Customer memory cus = customers[_custaddress] */\n      dup2\n      mload\n      0x01a0\n      dup2\n      add\n      swap1\n      swap3\n      mstore\n      dup1\n      sload\n      swap1\n      swap6\n      and\n      dup2\n      mstore\n      swap2\n      dup5\n      add\n      dup1\n      sload\n        /* \"Kyc.sol\":8364:8383  Customer memory cus */\n      swap4\n      swap5\n        /* \"Kyc.sol\":8364:8409  Customer memory cus = customers[_custaddress] */\n      swap3\n      swap4\n      swap2\n      dup5\n      add\n      swap2\n      tag_347\n      swap1\n      tag_168\n      jump\t// in\n    tag_347:\n      dup1\n      0x1f\n      add\n      0x20\n      dup1\n      swap2\n      div\n      mul\n      0x20\n      add\n      mload(0x40)\n      swap1\n      dup2\n      add\n      0x40\n      mstore\n      dup1\n      swap3\n      swap2\n      swap1\n      dup2\n      dup2\n      mstore\n      0x20\n      add\n      dup3\n      dup1\n      sload\n      tag_348\n      swap1\n      tag_168\n      jump\t// in\n    tag_348:\n      dup1\n      iszero\n      tag_349\n      jumpi\n      dup1\n      0x1f\n      lt\n      tag_350\n      jumpi\n      0x0100\n      dup1\n      dup4\n      sload\n      div\n      mul\n      dup4\n      mstore\n      swap2\n      0x20\n      add\n      swap2\n      jump(tag_349)\n    tag_350:\n      dup3\n      add\n      swap2\n      swap1\n      0x00\n      mstore\n      keccak256(0x00, 0x20)\n      swap1\n    tag_351:\n      dup2\n      sload\n      dup2\n      mstore\n      swap1\n      0x01\n      add\n      swap1\n      0x20\n      add\n      dup1\n      dup4\n      gt\n      tag_351\n      jumpi\n      dup3\n      swap1\n      sub\n      0x1f\n      and\n      dup3\n      add\n      swap2\n    tag_349:\n      pop\n      pop\n      pop\n      pop\n      pop\n      dup2\n      mstore\n      0x20\n      add\n      0x02\n      dup3\n      add\n      dup1\n      sload\n      tag_352\n      swap1\n      tag_168\n      jump\t// in\n    tag_352:\n      dup1\n      0x1f\n      add\n      0x20\n      dup1\n      swap2\n      div\n      mul\n      0x20\n      add\n      mload(0x40)\n      swap1\n      dup2\n      add\n      0x40\n      mstore\n      dup1\n      swap3\n      swap2\n      swap1\n      dup2\n      dup2\n      mstore\n      0x20\n      add\n      dup3\n      dup1\n      sload\n      tag_353\n      swap1\n      tag_168\n      jump\t// in\n    tag_353:\n      dup1\n      iszero\n      tag_354\n      jumpi\n      dup1\n      0x1f\n      lt\n      tag_355\n      jumpi\n      0x0100\n      dup1\n      dup4\n      sload\n      div\n      mul\n      dup4\n      mstore\n      swap2\n      0x20\n      add\n      swap2\n      jump(tag_354)\n    tag_355:\n      dup3\n      add\n      swap2\n      swap1\n      0x00\n      mstore\n      keccak256(0x00, 0x20)\n      swap1\n    tag_356:\n      dup2\n      sload\n      dup2\n      mstore\n      swap1\n      0x01\n      add\n      swap1\n      0x20\n      add\n      dup1\n      dup4\n      gt\n      tag_356\n      jumpi\n      dup3\n      swap1\n      sub\n      0x1f\n      and\n      dup3\n      add\n      swap2\n    tag_354:\n      pop\n      pop\n      pop\n      pop\n      pop\n      dup2\n      mstore\n      0x20\n      add\n      0x03\n      dup3\n      add\n      dup1\n      sload\n      tag_357\n      swap1\n      tag_168\n      jump\t// in\n    tag_357:\n      dup1\n      0x1f\n      add\n      0x20\n      dup1\n      swap2\n      div\n      mul\n      0x20\n      add\n      mload(0x40)\n      swap1\n      dup2\n      add\n      0x40\n      mstore\n      dup1\n      swap3\n      swap2\n      swap1\n      dup2\n      dup2\n      mstore\n      0x20\n      add\n      dup3\n      dup1\n      sload\n      tag_358\n      swap1\n      tag_168\n      jump\t// in\n    tag_358:\n      dup1\n      iszero\n      tag_359\n      jumpi\n      dup1\n      0x1f\n      lt\n      tag_360\n      jumpi\n      0x0100\n      dup1\n      dup4\n      sload\n      div\n      mul\n      dup4\n      mstore\n      swap2\n      0x20\n      add\n      swap2\n      jump(tag_359)\n    tag_360:\n      dup3\n      add\n      swap2\n      swap1\n      0x00\n      mstore\n      keccak256(0x00, 0x20)\n      swap1\n    tag_361:\n      dup2\n      sload\n      dup2\n      mstore\n      swap1\n      0x01\n      add\n      swap1\n      0x20\n      add\n      dup1\n      dup4\n      gt\n      tag_361\n      jumpi\n      dup3\n      swap1\n      sub\n      0x1f\n      and\n      dup3\n      add\n      swap2\n    tag_359:\n      pop\n      pop\n      pop\n      pop\n      pop\n      dup2\n      mstore\n      0x20\n      add\n      0x04\n      dup3\n      add\n      dup1\n      sload\n      tag_362\n      swap1\n      tag_168\n      jump\t// in\n    tag_362:\n      dup1\n      0x1f\n      add\n      0x20\n      dup1\n      swap2\n      div\n      mul\n      0x20\n      add\n      mload(0x40)\n      swap1\n      dup2\n      add\n      0x40\n      mstore\n      dup1\n      swap3\n      swap2\n      swap1\n      dup2\n      dup2\n      mstore\n      0x20\n      add\n      dup3\n      dup1\n      sload\n      tag_363\n      swap1\n      tag_168\n      jump\t// in\n    tag_363:\n      dup1\n      iszero\n      tag_364\n      jumpi\n      dup1\n      0x1f\n      lt\n      tag_365\n      jumpi\n      0x0100\n      dup1\n      dup4\n      sload\n      div\n      mul\n      dup4\n      mstore\n      swap2\n      0x20\n      add\n      swap2\n      jump(tag_364)\n    tag_365:\n      dup3\n      add\n      swap2\n      swap1\n      0x00\n      mstore\n      keccak256(0x00, 0x20)\n      swap1\n    tag_366:\n      dup2\n      sload\n      dup2\n      mstore\n      swap1\n      0x01\n      add\n      swap1\n      0x20\n      add\n      dup1\n      dup4\n      gt\n      tag_366\n      jumpi\n      dup3\n      swap1\n      sub\n      0x1f\n      and\n      dup3\n      add\n      swap2\n    tag_364:\n      pop\n      pop\n      pop\n      pop\n      pop\n      dup2\n      mstore\n      0x20\n      add\n      0x05\n      dup3\n      add\n      dup1\n      sload\n      tag_367\n      swap1\n      tag_168\n      jump\t// in\n    tag_367:\n      dup1\n      0x1f\n      add\n      0x20\n      dup1\n      swap2\n      div\n      mul\n      0x20\n      add\n      mload(0x40)\n      swap1\n      dup2\n      add\n      0x40\n      mstore\n      dup1\n      swap3\n      swap2\n      swap1\n      dup2\n      dup2\n      mstore\n      0x20\n      add\n      dup3\n      dup1\n      sload\n      tag_368\n      swap1\n      tag_168\n      jump\t// in\n    tag_368:\n      dup1\n      iszero\n      tag_369\n      jumpi\n      dup1\n      0x1f\n      lt\n      tag_370\n      jumpi\n      0x0100\n      dup1\n      dup4\n      sload\n      div\n      mul\n      dup4\n      mstore\n      swap2\n      0x20\n      add\n      swap2\n      jump(tag_369)\n    tag_370:\n      dup3\n      add\n      swap2\n      swap1\n      0x00\n      mstore\n      keccak256(0x00, 0x20)\n      swap1\n    tag_371:\n      dup2\n      sload\n      dup2\n      mstore\n      swap1\n      0x01\n      add\n      swap1\n      0x20\n      add\n      dup1\n      dup4\n      gt\n      tag_371\n      jumpi\n      dup3\n      swap1\n      sub\n      0x1f\n      and\n      dup3\n      add\n      swap2\n    tag_369:\n      pop\n      pop\n      pop\n      pop\n      pop\n      dup2\n      mstore\n      0x20\n      add\n      0x06\n      dup3\n      add\n      dup1\n      sload\n      tag_372\n      swap1\n      tag_168\n      jump\t// in\n    tag_372:\n      dup1\n      0x1f\n      add\n      0x20\n      dup1\n      swap2\n      div\n      mul\n      0x20\n      add\n      mload(0x40)\n      swap1\n      dup2\n      add\n      0x40\n      mstore\n      dup1\n      swap3\n      swap2\n      swap1\n      dup2\n      dup2\n      mstore\n      0x20\n      add\n      dup3\n      dup1\n      sload\n      tag_373\n      swap1\n      tag_168\n      jump\t// in\n    tag_373:\n      dup1\n      iszero\n      tag_374\n      jumpi\n      dup1\n      0x1f\n      lt\n      tag_375\n      jumpi\n      0x0100\n      dup1\n      dup4\n      sload\n      div\n      mul\n      dup4\n      mstore\n      swap2\n      0x20\n      add\n      swap2\n      jump(tag_374)\n    tag_375:\n      dup3\n      add\n      swap2\n      swap1\n      0x00\n      mstore\n      keccak256(0x00, 0x20)\n      swap1\n    tag_376:\n      dup2\n      sload\n      dup2\n      mstore\n      swap1\n      0x01\n      add\n      swap1\n      0x20\n      add\n      dup1\n      dup4\n      gt\n      tag_376\n      jumpi\n      dup3\n      swap1\n      sub\n      0x1f\n      and\n      dup3\n      add\n      swap2\n    tag_374:\n      pop\n      pop\n      pop\n      pop\n      pop\n      dup2\n      mstore\n      0x20\n      add\n      0x07\n      dup3\n      add\n      dup1\n      sload\n      tag_377\n      swap1\n      tag_168\n      jump\t// in\n    tag_377:\n      dup1\n      0x1f\n      add\n      0x20\n      dup1\n      swap2\n      div\n      mul\n      0x20\n      add\n      mload(0x40)\n      swap1\n      dup2\n      add\n      0x40\n      mstore\n      dup1\n      swap3\n      swap2\n      swap1\n      dup2\n      dup2\n      mstore\n      0x20\n      add\n      dup3\n      dup1\n      sload\n      tag_378\n      swap1\n      tag_168\n      jump\t// in\n    tag_378:\n      dup1\n      iszero\n      tag_379\n      jumpi\n      dup1\n      0x1f\n      lt\n      tag_380\n      jumpi\n      0x0100\n      dup1\n      dup4\n      sload\n      div\n      mul\n      dup4\n      mstore\n      swap2\n      0x20\n      add\n      swap2\n      jump(tag_379)\n    tag_380:\n      dup3\n      add\n      swap2\n      swap1\n      0x00\n      mstore\n      keccak256(0x00, 0x20)\n      swap1\n    tag_381:\n      dup2\n      sload\n      dup2\n      mstore\n      swap1\n      0x01\n      add\n      swap1\n      0x20\n      add\n      dup1\n      dup4\n      gt\n      tag_381\n      jumpi\n      dup3\n      swap1\n      sub\n      0x1f\n      and\n      dup3\n      add\n      swap2\n    tag_379:\n      pop\n      pop\n      pop\n      pop\n      pop\n      dup2\n      mstore\n      0x20\n      add\n      0x08\n      dup3\n      add\n      dup1\n      sload\n      tag_382\n      swap1\n      tag_168\n      jump\t// in\n    tag_382:\n      dup1\n      0x1f\n      add\n      0x20\n      dup1\n      swap2\n      div\n      mul\n      0x20\n      add\n      mload(0x40)\n      swap1\n      dup2\n      add\n      0x40\n      mstore\n      dup1\n      swap3\n      swap2\n      swap1\n      dup2\n      dup2\n      mstore\n      0x20\n      add\n      dup3\n      dup1\n      sload\n      tag_383\n      swap1\n      tag_168\n      jump\t// in\n    tag_383:\n      dup1\n      iszero\n      tag_384\n      jumpi\n      dup1\n      0x1f\n      lt\n      tag_385\n      jumpi\n      0x0100\n      dup1\n      dup4\n      sload\n      div\n      mul\n      dup4\n      mstore\n      swap2\n      0x20\n      add\n      swap2\n      jump(tag_384)\n    tag_385:\n      dup3\n      add\n      swap2\n      swap1\n      0x00\n      mstore\n      keccak256(0x00, 0x20)\n      swap1\n    tag_386:\n      dup2\n      sload\n      dup2\n      mstore\n      swap1\n      0x01\n      add\n      swap1\n      0x20\n      add\n      dup1\n      dup4\n      gt\n      tag_386\n      jumpi\n      dup3\n      swap1\n      sub\n      0x1f\n      and\n      dup3\n      add\n      swap2\n    tag_384:\n      pop\n      pop\n      pop\n      pop\n      pop\n      dup2\n      mstore\n      0x20\n      add\n      0x09\n      dup3\n      add\n      sload\n      dup2\n      mstore\n      0x20\n      add\n      0x0a\n      dup3\n      add\n      sload\n      dup2\n      mstore\n      0x20\n      add\n      0x0b\n      dup3\n      add\n      dup1\n      sload\n      dup1\n      0x20\n      mul\n      0x20\n      add\n      mload(0x40)\n      swap1\n      dup2\n      add\n      0x40\n      mstore\n      dup1\n      swap3\n      swap2\n      swap1\n      dup2\n      dup2\n      mstore\n      0x20\n      add\n      dup3\n      dup1\n      sload\n      dup1\n      iszero\n      tag_387\n      jumpi\n      0x20\n      mul\n      dup3\n      add\n      swap2\n      swap1\n      0x00\n      mstore\n      keccak256(0x00, 0x20)\n      swap1\n    tag_388:\n      dup2\n      sload\n      sub(shl(0xa0, 0x01), 0x01)\n      and\n      dup2\n      mstore\n      0x01\n      swap1\n      swap2\n      add\n      swap1\n      0x20\n      add\n      dup1\n      dup4\n      gt\n      tag_388\n      jumpi\n    tag_387:\n      pop\n      pop\n      pop\n      pop\n      pop\n      dup2\n      mstore\n      0x20\n      add\n      0x0c\n      dup3\n      add\n      0x00\n      swap1\n      sload\n      swap1\n      0x0100\n      exp\n      swap1\n      div\n      0xff\n      and\n      iszero\n      iszero\n      iszero\n      iszero\n      dup2\n      mstore\n      pop\n      pop\n      swap1\n      pop\n        /* \"Kyc.sol\":8995:8998  cus */\n      dup1\n        /* \"Kyc.sol\":8995:9003  cus.name */\n      0x20\n      add\n      mload\n        /* \"Kyc.sol\":9006:9009  cus */\n      dup2\n        /* \"Kyc.sol\":9006:9020  cus.fatherName */\n      0x40\n      add\n      mload\n        /* \"Kyc.sol\":9023:9026  cus */\n      dup3\n        /* \"Kyc.sol\":9023:9037  cus.motherName */\n      0x60\n      add\n      mload\n        /* \"Kyc.sol\":9040:9043  cus */\n      dup4\n        /* \"Kyc.sol\":9040:9059  cus.grandfatherName */\n      0x80\n      add\n      mload\n        /* \"Kyc.sol\":9062:9065  cus */\n      dup5\n        /* \"Kyc.sol\":9062:9082  cus.temporaryAddress */\n      0xa0\n      add\n      mload\n        /* \"Kyc.sol\":9093:9096  cus */\n      dup6\n        /* \"Kyc.sol\":9093:9114  cus.permanenetAddress */\n      0xc0\n      add\n      mload\n        /* \"Kyc.sol\":9117:9120  cus */\n      dup7\n        /* \"Kyc.sol\":9117:9134  cus.contactNumber */\n      0xe0\n      add\n      mload\n        /* \"Kyc.sol\":9137:9140  cus */\n      dup8\n        /* \"Kyc.sol\":9137:9144  cus.dob */\n      0x0100\n      add\n      mload\n        /* \"Kyc.sol\":9147:9150  cus */\n      dup9\n        /* \"Kyc.sol\":9147:9160  cus.kycStatus */\n      0x0180\n      add\n      mload\n        /* \"Kyc.sol\":9163:9166  cus */\n      dup10\n        /* \"Kyc.sol\":9163:9168  cus.d */\n      0x0120\n      add\n      mload\n        /* \"Kyc.sol\":9171:9174  cus */\n      dup11\n        /* \"Kyc.sol\":9171:9177  cus. n */\n      0x0140\n      add\n      mload\n        /* \"Kyc.sol\":8987:9179  return (cus.name , cus.fatherName , cus.motherName , cus.grandfatherName , cus.temporaryAddress ,... */\n      swap12\n      pop\n      swap12\n      pop\n      swap12\n      pop\n      swap12\n      pop\n      swap12\n      pop\n      swap12\n      pop\n      swap12\n      pop\n      swap12\n      pop\n      swap12\n      pop\n      swap12\n      pop\n      swap12\n      pop\n      pop\n        /* \"Kyc.sol\":7747:9186  function viewKYC(address _custaddress)... */\n      swap2\n      swap4\n      swap6\n      swap8\n      swap10\n      swap12\n      swap1\n      swap3\n      swap5\n      swap7\n      swap9\n      swap11\n      pop\n      jump\t// out\n        /* \"Kyc.sol\":10224:11302  function updateKYC(... */\n    tag_98:\n        /* \"Kyc.sol\":1711:1721  msg.sender */\n      caller\n        /* \"Kyc.sol\":10651:10655  bool */\n      0x00\n        /* \"Kyc.sol\":1671:1696  organizations[msg.sender] */\n      dup2\n      dup2\n      mstore\n        /* \"Kyc.sol\":1671:1684  organizations */\n      0x02\n        /* \"Kyc.sol\":1671:1696  organizations[msg.sender] */\n      0x20\n      mstore\n      0x40\n      dup2\n      keccak256\n        /* \"Kyc.sol\":1671:1707  organizations[msg.sender].ethAddress */\n      0x01\n      add\n      sload\n        /* \"Kyc.sol\":10651:10655  bool */\n      swap1\n      swap2\n      sub(shl(0xa0, 0x01), 0x01)\n        /* \"Kyc.sol\":1671:1707  organizations[msg.sender].ethAddress */\n      swap1\n      swap2\n      and\n        /* \"Kyc.sol\":1671:1721  organizations[msg.sender].ethAddress == msg.sender */\n      eq\n        /* \"Kyc.sol\":1650:1760  require(... */\n      tag_390\n      jumpi\n      mload(0x40)\n      shl(0xe5, 0x461bcd)\n      dup2\n      mstore\n      0x04\n      add\n      tag_116\n      swap1\n      tag_128\n      jump\t// in\n    tag_390:\n      sub(shl(0xa0, 0x01), 0x01)\n        /* \"Kyc.sol\":10688:10739  customers[_custaddress].custAddress == _custaddress */\n      dup1\n      dup15\n      and\n        /* \"Kyc.sol\":10688:10711  customers[_custaddress] */\n      0x00\n      dup2\n      dup2\n      mstore\n        /* \"Kyc.sol\":10688:10697  customers */\n      0x01\n        /* \"Kyc.sol\":10688:10711  customers[_custaddress] */\n      0x20\n      mstore\n      0x40\n      swap1\n      keccak256\n        /* \"Kyc.sol\":10688:10723  customers[_custaddress].custAddress */\n      sload\n      swap1\n      swap2\n      and\n        /* \"Kyc.sol\":10688:10739  customers[_custaddress].custAddress == _custaddress */\n      eq\n        /* \"Kyc.sol\":10667:10783  require(... */\n      tag_393\n      jumpi\n      mload(0x40)\n      shl(0xe5, 0x461bcd)\n      dup2\n      mstore\n        /* \"#utility.yul\":13444:13446   */\n      0x20\n        /* \"Kyc.sol\":10667:10783  require(... */\n      0x04\n      dup3\n      add\n        /* \"#utility.yul\":13426:13447   */\n      mstore\n        /* \"#utility.yul\":13483:13485   */\n      0x12\n        /* \"#utility.yul\":13463:13481   */\n      0x24\n      dup3\n      add\n        /* \"#utility.yul\":13456:13486   */\n      mstore\n      shl(0x72, 0x155cd95c88191bd95cdb89dd08195e1a5cdd)\n        /* \"#utility.yul\":13502:13520   */\n      0x44\n      dup3\n      add\n        /* \"#utility.yul\":13495:13543   */\n      mstore\n        /* \"#utility.yul\":13560:13578   */\n      0x64\n      add\n        /* \"Kyc.sol\":10667:10783  require(... */\n      tag_116\n        /* \"#utility.yul\":13242:13584   */\n      jump\n        /* \"Kyc.sol\":10667:10783  require(... */\n    tag_393:\n        /* \"Kyc.sol\":10814:10847  findOrg(_custaddress, msg.sender) */\n      tag_395\n        /* \"Kyc.sol\":10822:10834  _custaddress */\n      dup14\n        /* \"Kyc.sol\":10836:10846  msg.sender */\n      caller\n        /* \"Kyc.sol\":10814:10821  findOrg */\n      tag_119\n        /* \"Kyc.sol\":10814:10847  findOrg(_custaddress, msg.sender) */\n      jump\t// in\n    tag_395:\n        /* \"Kyc.sol\":10793:10906  require(... */\n      tag_396\n      jumpi\n      mload(0x40)\n      shl(0xe5, 0x461bcd)\n      dup2\n      mstore\n      0x04\n      add\n      tag_116\n      swap1\n      tag_122\n      jump\t// in\n    tag_396:\n        /* \"Kyc.sol\":10918:11218  writeKYC(... */\n      tag_398\n        /* \"Kyc.sol\":10940:10952  _custaddress */\n      dup14\n        /* \"Kyc.sol\":10966:10970  name */\n      dup14\n        /* \"Kyc.sol\":10984:10994  fatherName */\n      dup14\n        /* \"Kyc.sol\":11008:11018  motherName */\n      dup14\n        /* \"Kyc.sol\":11032:11047  grandfatherName */\n      dup14\n        /* \"Kyc.sol\":11061:11077  temporaryAddress */\n      dup14\n        /* \"Kyc.sol\":11091:11108  permanenetAddress */\n      dup14\n        /* \"Kyc.sol\":11122:11135  contactNumber */\n      dup14\n        /* \"Kyc.sol\":11149:11152  dob */\n      dup14\n        /* \"Kyc.sol\":11166:11176  _kycStatus */\n      dup14\n        /* \"Kyc.sol\":11190:11192  _d */\n      dup14\n        /* \"Kyc.sol\":11206:11208  _n */\n      dup14\n        /* \"Kyc.sol\":10918:10926  writeKYC */\n      tag_399\n        /* \"Kyc.sol\":10918:11218  writeKYC(... */\n      jump\t// in\n    tag_398:\n        /* \"Kyc.sol\":11233:11274  customerUpdated(_custaddress, _kycStatus) */\n      0x40\n      dup1\n      mload\n      sub(shl(0xa0, 0x01), 0x01)\n        /* \"#utility.yul\":22487:22519   */\n      dup16\n      and\n        /* \"#utility.yul\":22469:22520   */\n      dup2\n      mstore\n        /* \"#utility.yul\":22563:22577   */\n      dup6\n      iszero\n        /* \"#utility.yul\":22556:22578   */\n      iszero\n        /* \"#utility.yul\":22551:22553   */\n      0x20\n        /* \"#utility.yul\":22536:22554   */\n      dup3\n      add\n        /* \"#utility.yul\":22529:22579   */\n      mstore\n        /* \"Kyc.sol\":11233:11274  customerUpdated(_custaddress, _kycStatus) */\n      0x0c14653fca65d1b22631a36a53bd2a7153579eb0180192d23b52babb69c28050\n      swap2\n        /* \"#utility.yul\":22442:22460   */\n      add\n        /* \"Kyc.sol\":11233:11274  customerUpdated(_custaddress, _kycStatus) */\n    tag_400:\n      mload(0x40)\n      dup1\n      swap2\n      sub\n      swap1\n      log1\n      pop\n        /* \"Kyc.sol\":11291:11295  true */\n      0x01\n        /* \"Kyc.sol\":10224:11302  function updateKYC(... */\n      swap13\n      swap12\n      pop\n      pop\n      pop\n      pop\n      pop\n      pop\n      pop\n      pop\n      pop\n      pop\n      pop\n      pop\n      jump\t// out\n        /* \"Kyc.sol\":5313:5509  function validCust() public view returns (bool) {... */\n    tag_101:\n        /* \"Kyc.sol\":5412:5422  msg.sender */\n      caller\n        /* \"Kyc.sol\":5355:5359  bool */\n      0x00\n        /* \"Kyc.sol\":5375:5396  customers[msg.sender] */\n      dup2\n      dup2\n      mstore\n        /* \"Kyc.sol\":5375:5384  customers */\n      0x01\n        /* \"Kyc.sol\":5375:5396  customers[msg.sender] */\n      0x20\n      mstore\n      0x40\n      dup2\n      keccak256\n        /* \"Kyc.sol\":5375:5408  customers[msg.sender].custAddress */\n      sload\n        /* \"Kyc.sol\":5355:5359  bool */\n      swap1\n      swap2\n      sub(shl(0xa0, 0x01), 0x01)\n        /* \"Kyc.sol\":5375:5408  customers[msg.sender].custAddress */\n      swap1\n      swap2\n      and\n        /* \"Kyc.sol\":5375:5422  customers[msg.sender].custAddress == msg.sender */\n      sub\n        /* \"Kyc.sol\":5371:5503  if (customers[msg.sender].custAddress == msg.sender) {... */\n      tag_180\n      jumpi\n      pop\n        /* \"Kyc.sol\":5445:5449  true */\n      0x01\n      swap1\n        /* \"Kyc.sol\":5313:5509  function validCust() public view returns (bool) {... */\n      jump\t// out\n        /* \"Kyc.sol\":6714:7702  function registerKYC(... */\n    tag_105:\n        /* \"Kyc.sol\":1711:1721  msg.sender */\n      caller\n        /* \"Kyc.sol\":7143:7147  bool */\n      0x00\n        /* \"Kyc.sol\":1671:1696  organizations[msg.sender] */\n      dup2\n      dup2\n      mstore\n        /* \"Kyc.sol\":1671:1684  organizations */\n      0x02\n        /* \"Kyc.sol\":1671:1696  organizations[msg.sender] */\n      0x20\n      mstore\n      0x40\n      dup2\n      keccak256\n        /* \"Kyc.sol\":1671:1707  organizations[msg.sender].ethAddress */\n      0x01\n      add\n      sload\n        /* \"Kyc.sol\":7143:7147  bool */\n      swap1\n      swap2\n      sub(shl(0xa0, 0x01), 0x01)\n        /* \"Kyc.sol\":1671:1707  organizations[msg.sender].ethAddress */\n      swap1\n      swap2\n      and\n        /* \"Kyc.sol\":1671:1721  organizations[msg.sender].ethAddress == msg.sender */\n      eq\n        /* \"Kyc.sol\":1650:1760  require(... */\n      tag_406\n      jumpi\n      mload(0x40)\n      shl(0xe5, 0x461bcd)\n      dup2\n      mstore\n      0x04\n      add\n      tag_116\n      swap1\n      tag_128\n      jump\t// in\n    tag_406:\n      sub(shl(0xa0, 0x01), 0x01)\n        /* \"Kyc.sol\":7180:7231  customers[_custaddress].custAddress != _custaddress */\n      dup1\n      dup15\n      and\n        /* \"Kyc.sol\":7180:7203  customers[_custaddress] */\n      0x00\n      dup2\n      dup2\n      mstore\n        /* \"Kyc.sol\":7180:7189  customers */\n      0x01\n        /* \"Kyc.sol\":7180:7203  customers[_custaddress] */\n      0x20\n      mstore\n      0x40\n      swap1\n      keccak256\n        /* \"Kyc.sol\":7180:7215  customers[_custaddress].custAddress */\n      sload\n      swap1\n      swap2\n      and\n        /* \"Kyc.sol\":7180:7231  customers[_custaddress].custAddress != _custaddress */\n      sub\n        /* \"Kyc.sol\":7159:7276  require(... */\n      tag_409\n      jumpi\n      mload(0x40)\n      shl(0xe5, 0x461bcd)\n      dup2\n      mstore\n        /* \"#utility.yul\":22792:22794   */\n      0x20\n        /* \"Kyc.sol\":7159:7276  require(... */\n      0x04\n      dup3\n      add\n        /* \"#utility.yul\":22774:22795   */\n      mstore\n        /* \"#utility.yul\":22831:22833   */\n      0x13\n        /* \"#utility.yul\":22811:22829   */\n      0x24\n      dup3\n      add\n        /* \"#utility.yul\":22804:22834   */\n      mstore\n      shl(0x68, 0x5573657220616c726561647920657869737473)\n        /* \"#utility.yul\":22850:22868   */\n      0x44\n      dup3\n      add\n        /* \"#utility.yul\":22843:22892   */\n      mstore\n        /* \"#utility.yul\":22909:22927   */\n      0x64\n      add\n        /* \"Kyc.sol\":7159:7276  require(... */\n      tag_116\n        /* \"#utility.yul\":22590:22933   */\n      jump\n        /* \"Kyc.sol\":7159:7276  require(... */\n    tag_409:\n        /* \"Kyc.sol\":7286:7586  writeKYC(... */\n      tag_412\n        /* \"Kyc.sol\":7308:7320  _custaddress */\n      dup14\n        /* \"Kyc.sol\":7334:7338  name */\n      dup14\n        /* \"Kyc.sol\":7352:7362  fatherName */\n      dup14\n        /* \"Kyc.sol\":7376:7386  motherName */\n      dup14\n        /* \"Kyc.sol\":7400:7415  grandfatherName */\n      dup14\n        /* \"Kyc.sol\":7429:7445  temporaryAddress */\n      dup14\n        /* \"Kyc.sol\":7459:7476  permanenetAddress */\n      dup14\n        /* \"Kyc.sol\":7490:7503  contactNumber */\n      dup14\n        /* \"Kyc.sol\":7517:7520  dob */\n      dup14\n        /* \"Kyc.sol\":7534:7544  _kycStatus */\n      dup14\n        /* \"Kyc.sol\":7558:7560  _d */\n      dup14\n        /* \"Kyc.sol\":7574:7576  _n */\n      dup14\n        /* \"Kyc.sol\":7286:7294  writeKYC */\n      tag_399\n        /* \"Kyc.sol\":7286:7586  writeKYC(... */\n      jump\t// in\n    tag_412:\n        /* \"Kyc.sol\":7596:7620  requestKYC(_custaddress) */\n      tag_413\n        /* \"Kyc.sol\":7607:7619  _custaddress */\n      dup14\n        /* \"Kyc.sol\":7596:7606  requestKYC */\n      tag_77\n        /* \"Kyc.sol\":7596:7620  requestKYC(_custaddress) */\n      jump\t// in\n    tag_413:\n      pop\n        /* \"Kyc.sol\":7635:7674  customerAdded(_custaddress, _kycStatus) */\n      0x40\n      dup1\n      mload\n      sub(shl(0xa0, 0x01), 0x01)\n        /* \"#utility.yul\":22487:22519   */\n      dup16\n      and\n        /* \"#utility.yul\":22469:22520   */\n      dup2\n      mstore\n        /* \"#utility.yul\":22563:22577   */\n      dup6\n      iszero\n        /* \"#utility.yul\":22556:22578   */\n      iszero\n        /* \"#utility.yul\":22551:22553   */\n      0x20\n        /* \"#utility.yul\":22536:22554   */\n      dup3\n      add\n        /* \"#utility.yul\":22529:22579   */\n      mstore\n        /* \"Kyc.sol\":7635:7674  customerAdded(_custaddress, _kycStatus) */\n      0x1d22f26dee56193a2da8b325a26e02b936d68be9f49c0a6f92534464aa8f2ecf\n      swap2\n        /* \"#utility.yul\":22442:22460   */\n      add\n        /* \"Kyc.sol\":7635:7674  customerAdded(_custaddress, _kycStatus) */\n      tag_400\n        /* \"#utility.yul\":22301:22585   */\n      jump\n        /* \"Kyc.sol\":15105:15570  function listRequest()... */\n    tag_108:\n        /* \"Kyc.sol\":1711:1721  msg.sender */\n      caller\n        /* \"Kyc.sol\":1671:1696  organizations[msg.sender] */\n      0x00\n      dup2\n      dup2\n      mstore\n        /* \"Kyc.sol\":1671:1684  organizations */\n      0x02\n        /* \"Kyc.sol\":1671:1696  organizations[msg.sender] */\n      0x20\n      mstore\n      0x40\n      swap1\n      keccak256\n        /* \"Kyc.sol\":1671:1707  organizations[msg.sender].ethAddress */\n      0x01\n      add\n      sload\n        /* \"Kyc.sol\":15192:15215  kycRequestList[] memory */\n      0x60\n      swap2\n      sub(shl(0xa0, 0x01), 0x01)\n        /* \"Kyc.sol\":1671:1707  organizations[msg.sender].ethAddress */\n      swap1\n      swap2\n      and\n        /* \"Kyc.sol\":1671:1721  organizations[msg.sender].ethAddress == msg.sender */\n      eq\n        /* \"Kyc.sol\":1650:1760  require(... */\n      tag_416\n      jumpi\n      mload(0x40)\n      shl(0xe5, 0x461bcd)\n      dup2\n      mstore\n      0x04\n      add\n      tag_116\n      swap1\n      tag_128\n      jump\t// in\n    tag_416:\n        /* \"Kyc.sol\":15312:15322  msg.sender */\n      caller\n        /* \"Kyc.sol\":15231:15258  kycRequestList[] memory ret */\n      0x00\n        /* \"Kyc.sol\":15295:15323  kycrequestsbyorg[msg.sender] */\n      swap1\n      dup2\n      mstore\n        /* \"Kyc.sol\":15295:15311  kycrequestsbyorg */\n      0x03\n        /* \"Kyc.sol\":15295:15323  kycrequestsbyorg[msg.sender] */\n      0x20\n      mstore\n      0x40\n      dup2\n      keccak256\n        /* \"Kyc.sol\":15295:15333  kycrequestsbyorg[msg.sender].req_count */\n      0x01\n      add\n      sload\n      sub(shl(0x40, 0x01), 0x01)\n        /* \"Kyc.sol\":15261:15343  new kycRequestList[](... */\n      dup2\n      gt\n      iszero\n      tag_420\n      jumpi\n      tag_420\n      tag_276\n      jump\t// in\n    tag_420:\n      mload(0x40)\n      swap1\n      dup1\n      dup3\n      mstore\n      dup1\n      0x20\n      mul\n      0x20\n      add\n      dup3\n      add\n      0x40\n      mstore\n      dup1\n      iszero\n      tag_421\n      jumpi\n      dup2\n      0x20\n      add\n    tag_422:\n      0x40\n      dup1\n      mload\n      dup1\n      dup3\n      add\n      swap1\n      swap2\n      mstore\n      0x00\n      dup1\n      dup3\n      mstore\n      0x20\n      dup3\n      add\n      mstore\n      dup2\n      mstore\n      0x20\n      add\n      swap1\n      0x01\n      swap1\n      sub\n      swap1\n      dup2\n      tag_422\n      jumpi\n      swap1\n      pop\n    tag_421:\n      pop\n        /* \"Kyc.sol\":15231:15343  kycRequestList[] memory ret = new kycRequestList[](... */\n      swap1\n      pop\n        /* \"Kyc.sol\":15353:15362  uint256 j */\n      0x00\n        /* \"Kyc.sol\":15381:15390  uint256 i */\n      dup1\n        /* \"Kyc.sol\":15376:15542  for (uint256 i = 0; i < kycrequestsbyorg[msg.sender].req_count; i++) {... */\n    tag_424:\n        /* \"Kyc.sol\":15417:15427  msg.sender */\n      caller\n        /* \"Kyc.sol\":15400:15428  kycrequestsbyorg[msg.sender] */\n      0x00\n      swap1\n      dup2\n      mstore\n        /* \"Kyc.sol\":15400:15416  kycrequestsbyorg */\n      0x03\n        /* \"Kyc.sol\":15400:15428  kycrequestsbyorg[msg.sender] */\n      0x20\n      mstore\n      0x40\n      swap1\n      keccak256\n        /* \"Kyc.sol\":15400:15438  kycrequestsbyorg[msg.sender].req_count */\n      0x01\n      add\n      sload\n        /* \"Kyc.sol\":15396:15438  i < kycrequestsbyorg[msg.sender].req_count */\n      dup2\n      lt\n        /* \"Kyc.sol\":15376:15542  for (uint256 i = 0; i < kycrequestsbyorg[msg.sender].req_count; i++) {... */\n      iszero\n      tag_282\n      jumpi\n        /* \"Kyc.sol\":15485:15495  msg.sender */\n      caller\n        /* \"Kyc.sol\":15468:15496  kycrequestsbyorg[msg.sender] */\n      0x00\n      swap1\n      dup2\n      mstore\n        /* \"Kyc.sol\":15468:15484  kycrequestsbyorg */\n      0x03\n        /* \"Kyc.sol\":15468:15496  kycrequestsbyorg[msg.sender] */\n      0x20\n      mstore\n      0x40\n      swap1\n      keccak256\n        /* \"Kyc.sol\":15468:15511  kycrequestsbyorg[msg.sender].kycrequestlist */\n      0x02\n      add\n        /* \"Kyc.sol\":15468:15514  kycrequestsbyorg[msg.sender].kycrequestlist[i] */\n      dup1\n      sload\n        /* \"Kyc.sol\":15512:15513  i */\n      dup3\n      swap1\n        /* \"Kyc.sol\":15468:15514  kycrequestsbyorg[msg.sender].kycrequestlist[i] */\n      dup2\n      lt\n      tag_428\n      jumpi\n      tag_428\n      tag_143\n      jump\t// in\n    tag_428:\n      0x00\n      swap2\n      dup3\n      mstore\n      0x20\n      swap2\n      dup3\n      swap1\n      keccak256\n        /* \"Kyc.sol\":15459:15514  ret[j] = kycrequestsbyorg[msg.sender].kycrequestlist[i] */\n      0x40\n      dup1\n      mload\n      dup1\n      dup3\n      add\n      swap1\n      swap2\n      mstore\n        /* \"Kyc.sol\":15468:15514  kycrequestsbyorg[msg.sender].kycrequestlist[i] */\n      0x02\n      swap1\n      swap3\n      mul\n      add\n        /* \"Kyc.sol\":15459:15514  ret[j] = kycrequestsbyorg[msg.sender].kycrequestlist[i] */\n      dup1\n      sload\n      dup3\n      mstore\n      0x01\n      add\n      sload\n      sub(shl(0xa0, 0x01), 0x01)\n      and\n      swap2\n      dup2\n      add\n      swap2\n      swap1\n      swap2\n      mstore\n        /* \"Kyc.sol\":15459:15465  ret[j] */\n      dup4\n      mload\n        /* \"Kyc.sol\":15459:15462  ret */\n      dup5\n      swap1\n        /* \"Kyc.sol\":15463:15464  j */\n      dup5\n      swap1\n        /* \"Kyc.sol\":15459:15465  ret[j] */\n      dup2\n      lt\n      tag_431\n      jumpi\n      tag_431\n      tag_143\n      jump\t// in\n    tag_431:\n      0x20\n      mul\n      0x20\n      add\n      add\n        /* \"Kyc.sol\":15459:15514  ret[j] = kycrequestsbyorg[msg.sender].kycrequestlist[i] */\n      dup2\n      swap1\n      mstore\n      pop\n        /* \"Kyc.sol\":15528:15531  j++ */\n      dup2\n      dup1\n      tag_432\n      swap1\n      tag_268\n      jump\t// in\n    tag_432:\n      swap3\n      pop\n      pop\n        /* \"Kyc.sol\":15440:15443  i++ */\n      dup1\n      dup1\n      tag_433\n      swap1\n      tag_268\n      jump\t// in\n    tag_433:\n      swap2\n      pop\n      pop\n        /* \"Kyc.sol\":15376:15542  for (uint256 i = 0; i < kycrequestsbyorg[msg.sender].req_count; i++) {... */\n      jump(tag_424)\n        /* \"Kyc.sol\":1830:2196  function findOrg(address _custaddress, address ethAddress)... */\n    tag_119:\n        /* \"Kyc.sol\":1936:1940  bool */\n      0x00\n      dup1\n        /* \"Kyc.sol\":1979:2168  for (i; i < customers[_custaddress].organization.length; i++) {... */\n    tag_435:\n      sub(shl(0xa0, 0x01), 0x01)\n        /* \"Kyc.sol\":1991:2014  customers[_custaddress] */\n      dup5\n      and\n      0x00\n      swap1\n      dup2\n      mstore\n        /* \"Kyc.sol\":1991:2000  customers */\n      0x01\n        /* \"Kyc.sol\":1991:2014  customers[_custaddress] */\n      0x20\n      mstore\n      0x40\n      swap1\n      keccak256\n        /* \"Kyc.sol\":1991:2027  customers[_custaddress].organization */\n      0x0b\n      add\n        /* \"Kyc.sol\":1991:2034  customers[_custaddress].organization.length */\n      sload\n        /* \"Kyc.sol\":1987:2034  i < customers[_custaddress].organization.length */\n      dup2\n      lt\n        /* \"Kyc.sol\":1979:2168  for (i; i < customers[_custaddress].organization.length; i++) {... */\n      iszero\n      tag_436\n      jumpi\n      sub(shl(0xa0, 0x01), 0x01)\n        /* \"Kyc.sol\":2059:2082  customers[_custaddress] */\n      dup5\n      dup2\n      and\n      0x00\n      swap1\n      dup2\n      mstore\n        /* \"Kyc.sol\":2059:2068  customers */\n      0x01\n        /* \"Kyc.sol\":2059:2082  customers[_custaddress] */\n      0x20\n      mstore\n      0x40\n      swap1\n      keccak256\n        /* \"Kyc.sol\":2059:2095  customers[_custaddress].organization */\n      0x0b\n      add\n        /* \"Kyc.sol\":2059:2098  customers[_custaddress].organization[i] */\n      dup1\n      sload\n        /* \"Kyc.sol\":2059:2112  customers[_custaddress].organization[i] == ethAddress */\n      swap2\n      dup6\n      and\n      swap2\n        /* \"Kyc.sol\":2096:2097  i */\n      dup4\n      swap1\n        /* \"Kyc.sol\":2059:2098  customers[_custaddress].organization[i] */\n      dup2\n      lt\n      tag_439\n      jumpi\n      tag_439\n      tag_143\n      jump\t// in\n    tag_439:\n      0x00\n      swap2\n      dup3\n      mstore\n      0x20\n      swap1\n      swap2\n      keccak256\n      add\n      sload\n      sub(shl(0xa0, 0x01), 0x01)\n      and\n        /* \"Kyc.sol\":2059:2112  customers[_custaddress].organization[i] == ethAddress */\n      sub\n        /* \"Kyc.sol\":2055:2158  if (customers[_custaddress].organization[i] == ethAddress) {... */\n      tag_441\n      jumpi\n        /* \"Kyc.sol\":2139:2143  true */\n      0x01\n        /* \"Kyc.sol\":2132:2143  return true */\n      swap2\n      pop\n      pop\n      jump(tag_232)\n        /* \"Kyc.sol\":2055:2158  if (customers[_custaddress].organization[i] == ethAddress) {... */\n    tag_441:\n        /* \"Kyc.sol\":2036:2039  i++ */\n      dup1\n      tag_442\n      dup2\n      tag_268\n      jump\t// in\n    tag_442:\n      swap2\n      pop\n      pop\n        /* \"Kyc.sol\":1979:2168  for (i; i < customers[_custaddress].organization.length; i++) {... */\n      jump(tag_435)\n    tag_436:\n      pop\n        /* \"Kyc.sol\":2184:2189  false */\n      0x00\n      swap4\n        /* \"Kyc.sol\":1830:2196  function findOrg(address _custaddress, address ethAddress)... */\n      swap3\n      pop\n      pop\n      pop\n      jump\t// out\n        /* \"Kyc.sol\":16648:16986  function remove(address _custaddress, address _ethAddress) internal {... */\n    tag_124:\n        /* \"Kyc.sol\":16726:16735  uint256 i */\n      0x00\n        /* \"Kyc.sol\":16738:16777  findOrgIndex(_custaddress, _ethAddress) */\n      tag_444\n        /* \"Kyc.sol\":16751:16763  _custaddress */\n      dup4\n        /* \"Kyc.sol\":16765:16776  _ethAddress */\n      dup4\n        /* \"Kyc.sol\":16738:16750  findOrgIndex */\n      tag_445\n        /* \"Kyc.sol\":16738:16777  findOrgIndex(_custaddress, _ethAddress) */\n      jump\t// in\n    tag_444:\n      sub(shl(0xa0, 0x01), 0x01)\n        /* \"Kyc.sol\":16829:16852  customers[_custaddress] */\n      dup5\n      and\n      0x00\n      swap1\n      dup2\n      mstore\n        /* \"Kyc.sol\":16829:16838  customers */\n      0x01\n        /* \"Kyc.sol\":16829:16852  customers[_custaddress] */\n      0x20\n      dup2\n      swap1\n      mstore\n      0x40\n      swap1\n      swap2\n      keccak256\n        /* \"Kyc.sol\":16829:16878  customers[_custaddress]... */\n      0x0b\n      add\n        /* \"Kyc.sol\":16879:16922  customers[_custaddress].organization.length */\n      dup1\n      sload\n        /* \"Kyc.sol\":16726:16777  uint256 i = findOrgIndex(_custaddress, _ethAddress) */\n      swap3\n      swap4\n      pop\n        /* \"Kyc.sol\":16829:16878  customers[_custaddress]... */\n      swap2\n        /* \"Kyc.sol\":16879:16926  customers[_custaddress].organization.length - 1 */\n      tag_446\n      swap2\n        /* \"Kyc.sol\":16829:16838  customers */\n      swap1\n        /* \"Kyc.sol\":16879:16926  customers[_custaddress].organization.length - 1 */\n      tag_447\n      jump\t// in\n    tag_446:\n        /* \"Kyc.sol\":16829:16927  customers[_custaddress]... */\n      dup2\n      sload\n      dup2\n      lt\n      tag_449\n      jumpi\n      tag_449\n      tag_143\n      jump\t// in\n    tag_449:\n      0x00\n      swap2\n      dup3\n      mstore\n      0x20\n      dup1\n      dup4\n      keccak256\n      swap1\n      swap2\n      add\n      sload\n      sub(shl(0xa0, 0x01), 0x01)\n        /* \"Kyc.sol\":16787:16810  customers[_custaddress] */\n      dup7\n      dup2\n      and\n      dup5\n      mstore\n        /* \"Kyc.sol\":16829:16927  customers[_custaddress]... */\n      0x01\n        /* \"Kyc.sol\":16787:16810  customers[_custaddress] */\n      swap1\n      swap3\n      mstore\n      0x40\n      swap1\n      swap3\n      keccak256\n        /* \"Kyc.sol\":16787:16823  customers[_custaddress].organization */\n      0x0b\n      add\n        /* \"Kyc.sol\":16787:16826  customers[_custaddress].organization[i] */\n      dup1\n      sload\n        /* \"Kyc.sol\":16829:16927  customers[_custaddress]... */\n      swap2\n      swap1\n      swap3\n      and\n      swap2\n        /* \"Kyc.sol\":16787:16823  customers[_custaddress].organization */\n      swap1\n        /* \"Kyc.sol\":16824:16825  i */\n      dup4\n      swap1\n        /* \"Kyc.sol\":16787:16826  customers[_custaddress].organization[i] */\n      dup2\n      lt\n      tag_452\n      jumpi\n      tag_452\n      tag_143\n      jump\t// in\n    tag_452:\n      0x00\n      swap2\n      dup3\n      mstore\n      0x20\n      dup1\n      dup4\n      keccak256\n      swap2\n      swap1\n      swap2\n      add\n        /* \"Kyc.sol\":16787:16927  customers[_custaddress].organization[i] = customers[_custaddress]... */\n      dup1\n      sload\n      not(sub(shl(0xa0, 0x01), 0x01))\n      and\n      sub(shl(0xa0, 0x01), 0x01)\n      swap5\n      dup6\n      and\n      or\n      swap1\n      sstore\n        /* \"Kyc.sol\":16937:16960  customers[_custaddress] */\n      swap2\n      dup6\n      and\n      dup2\n      mstore\n      0x01\n      swap1\n      swap2\n      mstore\n      0x40\n      swap1\n      keccak256\n        /* \"Kyc.sol\":16937:16973  customers[_custaddress].organization */\n      0x0b\n      add\n        /* \"Kyc.sol\":16937:16979  customers[_custaddress].organization.pop() */\n      dup1\n      sload\n      dup1\n      tag_455\n      jumpi\n      tag_455\n      tag_456\n      jump\t// in\n    tag_455:\n      0x00\n      dup3\n      dup2\n      mstore\n      0x20\n      swap1\n      keccak256\n      dup2\n      add\n      not(0x00)\n      swap1\n      dup2\n      add\n      dup1\n      sload\n      not(sub(shl(0xa0, 0x01), 0x01))\n      and\n      swap1\n      sstore\n      add\n      swap1\n      sstore\n      pop\n      pop\n      pop\n        /* \"Kyc.sol\":16648:16986  function remove(address _custaddress, address _ethAddress) internal {... */\n      jump\t// out\n        /* \"Kyc.sol\":12134:13676  function deleteRequest(... */\n    tag_199:\n        /* \"Kyc.sol\":12268:12281  uint256 index */\n      0x00\n        /* \"Kyc.sol\":12284:12327  findRequestIndex(_custaddress, _ethAddress) */\n      tag_459\n        /* \"Kyc.sol\":12301:12313  _custaddress */\n      dup4\n        /* \"Kyc.sol\":12315:12326  _ethAddress */\n      dup4\n        /* \"Kyc.sol\":12284:12300  findRequestIndex */\n      tag_460\n        /* \"Kyc.sol\":12284:12327  findRequestIndex(_custaddress, _ethAddress) */\n      jump\t// in\n    tag_459:\n      sub(shl(0xa0, 0x01), 0x01)\n        /* \"Kyc.sol\":12417:12446  kycrequestsbyorg[_ethAddress] */\n      dup4\n      and\n      0x00\n      swap1\n      dup2\n      mstore\n        /* \"Kyc.sol\":12417:12433  kycrequestsbyorg */\n      0x03\n        /* \"Kyc.sol\":12417:12446  kycrequestsbyorg[_ethAddress] */\n      0x20\n      mstore\n      0x40\n      swap1\n      keccak256\n        /* \"Kyc.sol\":12417:12461  kycrequestsbyorg[_ethAddress].kycrequestlist */\n      0x02\n      add\n        /* \"Kyc.sol\":12475:12526  kycrequestsbyorg[_ethAddress].kycrequestlist.length */\n      dup1\n      sload\n        /* \"Kyc.sol\":12268:12327  uint256 index = findRequestIndex(_custaddress, _ethAddress) */\n      swap2\n      swap3\n      pop\n        /* \"Kyc.sol\":12417:12461  kycrequestsbyorg[_ethAddress].kycrequestlist */\n      swap1\n        /* \"Kyc.sol\":12475:12530  kycrequestsbyorg[_ethAddress].kycrequestlist.length - 1 */\n      tag_461\n      swap1\n        /* \"Kyc.sol\":12529:12530  1 */\n      0x01\n      swap1\n        /* \"Kyc.sol\":12475:12530  kycrequestsbyorg[_ethAddress].kycrequestlist.length - 1 */\n      tag_447\n      jump\t// in\n    tag_461:\n        /* \"Kyc.sol\":12417:12540  kycrequestsbyorg[_ethAddress].kycrequestlist[... */\n      dup2\n      sload\n      dup2\n      lt\n      tag_463\n      jumpi\n      tag_463\n      tag_143\n      jump\t// in\n    tag_463:\n      swap1\n      0x00\n      mstore\n      keccak256(0x00, 0x20)\n      swap1\n      0x02\n      mul\n      add\n        /* \"Kyc.sol\":12337:12353  kycrequestsbyorg */\n      0x03\n        /* \"Kyc.sol\":12337:12366  kycrequestsbyorg[_ethAddress] */\n      0x00\n        /* \"Kyc.sol\":12354:12365  _ethAddress */\n      dup5\n      sub(shl(0xa0, 0x01), 0x01)\n        /* \"Kyc.sol\":12337:12366  kycrequestsbyorg[_ethAddress] */\n      and\n      sub(shl(0xa0, 0x01), 0x01)\n      and\n      dup2\n      mstore\n      0x20\n      add\n      swap1\n      dup2\n      mstore\n      0x20\n      add\n      0x00\n      keccak256\n        /* \"Kyc.sol\":12337:12381  kycrequestsbyorg[_ethAddress].kycrequestlist */\n      0x02\n      add\n        /* \"Kyc.sol\":12395:12404  _reqcount */\n      dup6\n        /* \"Kyc.sol\":12337:12414  kycrequestsbyorg[_ethAddress].kycrequestlist[... */\n      dup2\n      sload\n      dup2\n      lt\n      tag_466\n      jumpi\n      tag_466\n      tag_143\n      jump\t// in\n    tag_466:\n      0x00\n      swap2\n      dup3\n      mstore\n      0x20\n      dup1\n      dup4\n      keccak256\n        /* \"Kyc.sol\":12337:12540  kycrequestsbyorg[_ethAddress].kycrequestlist[... */\n      dup5\n      sload\n        /* \"Kyc.sol\":12337:12414  kycrequestsbyorg[_ethAddress].kycrequestlist[... */\n      0x02\n      swap4\n      dup5\n      mul\n      swap1\n      swap2\n      add\n        /* \"Kyc.sol\":12337:12540  kycrequestsbyorg[_ethAddress].kycrequestlist[... */\n      swap1\n      dup2\n      sstore\n      0x01\n      swap5\n      dup6\n      add\n      sload\n      swap5\n      add\n      dup1\n      sload\n      not(sub(shl(0xa0, 0x01), 0x01))\n      and\n      sub(shl(0xa0, 0x01), 0x01)\n      swap6\n      dup7\n      and\n      or\n      swap1\n      sstore\n        /* \"Kyc.sol\":12550:12579  kycrequestsbyorg[_ethAddress] */\n      swap3\n      dup6\n      and\n      dup3\n      mstore\n        /* \"Kyc.sol\":12550:12566  kycrequestsbyorg */\n      0x03\n        /* \"Kyc.sol\":12550:12579  kycrequestsbyorg[_ethAddress] */\n      swap1\n      swap3\n      mstore\n      0x40\n      swap1\n      keccak256\n        /* \"Kyc.sol\":12550:12594  kycrequestsbyorg[_ethAddress].kycrequestlist */\n      add\n        /* \"Kyc.sol\":12550:12600  kycrequestsbyorg[_ethAddress].kycrequestlist.pop() */\n      dup1\n      sload\n      dup1\n      tag_469\n      jumpi\n      tag_469\n      tag_456\n      jump\t// in\n    tag_469:\n      0x00\n      dup3\n      dup2\n      mstore\n      0x20\n      dup1\n      dup3\n      keccak256\n      0x02\n      not(0x00)\n      swap1\n      swap5\n      add\n      swap4\n      dup5\n      mul\n      add\n      dup3\n      dup2\n      sstore\n      0x01\n      swap1\n      dup2\n      add\n      dup1\n      sload\n      not(sub(shl(0xa0, 0x01), 0x01))\n      and\n      swap1\n      sstore\n      swap3\n      swap1\n      swap4\n      sstore\n      sub(shl(0xa0, 0x01), 0x01)\n        /* \"Kyc.sol\":12688:12719  kycrequestsbycust[_custaddress] */\n      dup7\n      and\n      dup2\n      mstore\n        /* \"Kyc.sol\":12688:12705  kycrequestsbycust */\n      0x04\n        /* \"Kyc.sol\":12688:12719  kycrequestsbycust[_custaddress] */\n      swap1\n      swap3\n      mstore\n      0x40\n      swap1\n      swap2\n      keccak256\n        /* \"Kyc.sol\":12748:12801  kycrequestsbycust[_custaddress].kycrequestlist.length */\n      dup1\n      sload\n        /* \"Kyc.sol\":12688:12719  kycrequestsbycust[_custaddress] */\n      swap1\n      swap2\n        /* \"Kyc.sol\":12748:12805  kycrequestsbycust[_custaddress].kycrequestlist.length - 1 */\n      tag_471\n      swap2\n      tag_447\n      jump\t// in\n    tag_471:\n        /* \"Kyc.sol\":12688:12815  kycrequestsbycust[_custaddress].kycrequestlist[... */\n      dup2\n      sload\n      dup2\n      lt\n      tag_473\n      jumpi\n      tag_473\n      tag_143\n      jump\t// in\n    tag_473:\n      swap1\n      0x00\n      mstore\n      keccak256(0x00, 0x20)\n      swap1\n      0x02\n      mul\n      add\n        /* \"Kyc.sol\":12610:12627  kycrequestsbycust */\n      0x04\n        /* \"Kyc.sol\":12610:12641  kycrequestsbycust[_custaddress] */\n      0x00\n        /* \"Kyc.sol\":12628:12640  _custaddress */\n      dup6\n      sub(shl(0xa0, 0x01), 0x01)\n        /* \"Kyc.sol\":12610:12641  kycrequestsbycust[_custaddress] */\n      and\n      sub(shl(0xa0, 0x01), 0x01)\n      and\n      dup2\n      mstore\n      0x20\n      add\n      swap1\n      dup2\n      mstore\n      0x20\n      add\n      0x00\n      keccak256\n        /* \"Kyc.sol\":12610:12656  kycrequestsbycust[_custaddress].kycrequestlist */\n      0x00\n      add\n        /* \"Kyc.sol\":12670:12675  index */\n      dup3\n        /* \"Kyc.sol\":12610:12685  kycrequestsbycust[_custaddress].kycrequestlist[... */\n      dup2\n      sload\n      dup2\n      lt\n      tag_476\n      jumpi\n      tag_476\n      tag_143\n      jump\t// in\n    tag_476:\n      0x00\n      swap2\n      dup3\n      mstore\n      0x20\n      dup1\n      dup4\n      keccak256\n        /* \"Kyc.sol\":12610:12815  kycrequestsbycust[_custaddress].kycrequestlist[... */\n      dup5\n      sload\n        /* \"Kyc.sol\":12610:12685  kycrequestsbycust[_custaddress].kycrequestlist[... */\n      0x02\n      swap1\n      swap4\n      mul\n      add\n        /* \"Kyc.sol\":12610:12815  kycrequestsbycust[_custaddress].kycrequestlist[... */\n      swap2\n      dup3\n      sstore\n      0x01\n      swap4\n      dup5\n      add\n      sload\n      swap4\n      swap1\n      swap2\n      add\n      dup1\n      sload\n      not(sub(shl(0xa0, 0x01), 0x01))\n      and\n      sub(shl(0xa0, 0x01), 0x01)\n      swap5\n      dup6\n      and\n      or\n      swap1\n      sstore\n        /* \"Kyc.sol\":12825:12856  kycrequestsbycust[_custaddress] */\n      swap2\n      dup6\n      and\n      dup2\n      mstore\n        /* \"Kyc.sol\":12825:12842  kycrequestsbycust */\n      0x04\n        /* \"Kyc.sol\":12825:12856  kycrequestsbycust[_custaddress] */\n      swap1\n      swap2\n      mstore\n      0x40\n      swap1\n      keccak256\n        /* \"Kyc.sol\":12825:12877  kycrequestsbycust[_custaddress].kycrequestlist.pop() */\n      dup1\n      sload\n      dup1\n      tag_479\n      jumpi\n      tag_479\n      tag_456\n      jump\t// in\n    tag_479:\n      0x00\n      dup3\n      dup2\n      mstore\n      0x20\n      dup1\n      dup3\n      keccak256\n      0x02\n      not(0x00)\n      swap1\n      swap5\n      add\n      dup5\n      dup2\n      mul\n      swap1\n      swap2\n      add\n      dup4\n      dup2\n      sstore\n      0x01\n      add\n      dup1\n      sload\n      not(sub(shl(0xa0, 0x01), 0x01))\n      and\n      swap1\n      sstore\n      swap1\n      swap4\n      sstore\n        /* \"Kyc.sol\":12921:12931  msg.sender */\n      caller\n        /* \"Kyc.sol\":12904:12932  kycrequestsbyorg[msg.sender] */\n      dup2\n      mstore\n        /* \"Kyc.sol\":12904:12920  kycrequestsbyorg */\n      0x03\n        /* \"Kyc.sol\":12904:12932  kycrequestsbyorg[msg.sender] */\n      swap1\n      swap3\n      mstore\n      0x40\n      swap1\n      swap2\n      keccak256\n        /* \"Kyc.sol\":12904:12947  kycrequestsbyorg[msg.sender].kycrequestlist */\n      add\n        /* \"Kyc.sol\":12904:12954  kycrequestsbyorg[msg.sender].kycrequestlist.length */\n      sload\n        /* \"Kyc.sol\":12904:12967  kycrequestsbyorg[msg.sender].kycrequestlist.length != _reqcount */\n      dup5\n      eq\n      dup1\n      iszero\n      swap1\n        /* \"Kyc.sol\":12904:13026  kycrequestsbyorg[msg.sender].kycrequestlist.length != _reqcount &&... */\n      tag_481\n      jumpi\n      pop\n      sub(shl(0xa0, 0x01), 0x01)\n        /* \"Kyc.sol\":12983:13012  kycrequestsbyorg[_ethAddress] */\n      dup3\n      and\n      0x00\n      swap1\n      dup2\n      mstore\n        /* \"Kyc.sol\":12983:12999  kycrequestsbyorg */\n      0x03\n        /* \"Kyc.sol\":12983:13012  kycrequestsbyorg[_ethAddress] */\n      0x20\n      mstore\n      0x40\n      swap1\n      keccak256\n        /* \"Kyc.sol\":13025:13026  1 */\n      0x01\n        /* \"Kyc.sol\":12983:13022  kycrequestsbyorg[_ethAddress].req_count */\n      swap1\n      dup2\n      add\n      sload\n        /* \"Kyc.sol\":12983:13026  kycrequestsbyorg[_ethAddress].req_count > 1 */\n      gt\n        /* \"Kyc.sol\":12904:13026  kycrequestsbyorg[msg.sender].kycrequestlist.length != _reqcount &&... */\n    tag_481:\n        /* \"Kyc.sol\":12887:13566  if (... */\n      iszero\n      tag_482\n      jumpi\n      sub(shl(0xa0, 0x01), 0x01)\n        /* \"Kyc.sol\":13051:13080  kycrequestsbyorg[_ethAddress] */\n      dup3\n      and\n      0x00\n      swap1\n      dup2\n      mstore\n        /* \"Kyc.sol\":13051:13067  kycrequestsbyorg */\n      0x03\n        /* \"Kyc.sol\":13051:13080  kycrequestsbyorg[_ethAddress] */\n      0x20\n      mstore\n      0x40\n      swap1\n      keccak256\n        /* \"Kyc.sol\":13051:13112  kycrequestsbyorg[_ethAddress]... */\n      0x02\n      add\n        /* \"Kyc.sol\":13051:13123  kycrequestsbyorg[_ethAddress]... */\n      dup1\n      sload\n        /* \"Kyc.sol\":13153:13162  _reqcount */\n      dup6\n      swap2\n        /* \"Kyc.sol\":13051:13112  kycrequestsbyorg[_ethAddress]... */\n      swap1\n        /* \"Kyc.sol\":13153:13162  _reqcount */\n      dup3\n      swap1\n        /* \"Kyc.sol\":13051:13123  kycrequestsbyorg[_ethAddress]... */\n      dup2\n      lt\n      tag_484\n      jumpi\n      tag_484\n      tag_143\n      jump\t// in\n    tag_484:\n      0x00\n      swap2\n      dup3\n      mstore\n      0x20\n      dup1\n      dup4\n      keccak256\n      0x02\n      swap3\n      dup4\n      mul\n      add\n        /* \"Kyc.sol\":13051:13162  kycrequestsbyorg[_ethAddress]... */\n      swap4\n      swap1\n      swap4\n      sstore\n      sub(shl(0xa0, 0x01), 0x01)\n        /* \"Kyc.sol\":13190:13219  kycrequestsbyorg[_ethAddress] */\n      dup6\n      and\n      dup3\n      mstore\n        /* \"Kyc.sol\":13190:13206  kycrequestsbyorg */\n      0x03\n        /* \"Kyc.sol\":13190:13219  kycrequestsbyorg[_ethAddress] */\n      swap1\n      swap3\n      mstore\n      0x40\n      dup2\n      keccak256\n        /* \"Kyc.sol\":13190:13251  kycrequestsbyorg[_ethAddress]... */\n      swap1\n      swap2\n      add\n        /* \"Kyc.sol\":13190:13262  kycrequestsbyorg[_ethAddress]... */\n      dup1\n      sload\n        /* \"Kyc.sol\":13252:13261  _reqcount */\n      dup7\n      swap1\n        /* \"Kyc.sol\":13190:13262  kycrequestsbyorg[_ethAddress]... */\n      dup2\n      lt\n      tag_487\n      jumpi\n      tag_487\n      tag_143\n      jump\t// in\n    tag_487:\n      0x00\n      swap2\n      dup3\n      mstore\n      0x20\n      dup1\n      dup4\n      keccak256\n        /* \"Kyc.sol\":13190:13287  kycrequestsbyorg[_ethAddress]... */\n      0x01\n        /* \"Kyc.sol\":13190:13262  kycrequestsbyorg[_ethAddress]... */\n      0x02\n      swap1\n      swap4\n      mul\n      add\n        /* \"Kyc.sol\":13190:13287  kycrequestsbyorg[_ethAddress]... */\n      swap2\n      swap1\n      swap2\n      add\n      sload\n      sub(shl(0xa0, 0x01), 0x01)\n      and\n        /* \"Kyc.sol\":13305:13327  kycrequestsbycust[add] */\n      dup1\n      dup4\n      mstore\n        /* \"Kyc.sol\":13305:13322  kycrequestsbycust */\n      0x04\n        /* \"Kyc.sol\":13305:13327  kycrequestsbycust[add] */\n      swap1\n      swap2\n      mstore\n      0x40\n      swap1\n      swap2\n      keccak256\n        /* \"Kyc.sol\":13305:13349  kycrequestsbycust[add].kycrequestlist.length */\n      sload\n        /* \"Kyc.sol\":13190:13287  kycrequestsbyorg[_ethAddress]... */\n      swap1\n      swap2\n      pop\n        /* \"Kyc.sol\":13305:13353  kycrequestsbycust[add].kycrequestlist.length > 0 */\n      iszero\n        /* \"Kyc.sol\":13301:13556  if (kycrequestsbycust[add].kycrequestlist.length > 0) {... */\n      tag_489\n      jumpi\n        /* \"Kyc.sol\":13381:13415  findRequestIndex(add, _ethAddress) */\n      tag_490\n        /* \"Kyc.sol\":13398:13401  add */\n      dup2\n        /* \"Kyc.sol\":13403:13414  _ethAddress */\n      dup5\n        /* \"Kyc.sol\":13381:13397  findRequestIndex */\n      tag_460\n        /* \"Kyc.sol\":13381:13415  findRequestIndex(add, _ethAddress) */\n      jump\t// in\n    tag_490:\n      sub(shl(0xa0, 0x01), 0x01)\n        /* \"Kyc.sol\":13433:13455  kycrequestsbycust[add] */\n      dup3\n      and\n      0x00\n      swap1\n      dup2\n      mstore\n        /* \"Kyc.sol\":13433:13450  kycrequestsbycust */\n      0x04\n        /* \"Kyc.sol\":13433:13455  kycrequestsbycust[add] */\n      0x20\n      mstore\n      0x40\n      swap1\n      keccak256\n        /* \"Kyc.sol\":13433:13498  kycrequestsbycust[add]... */\n      dup1\n      sload\n        /* \"Kyc.sol\":13373:13415  index = findRequestIndex(add, _ethAddress) */\n      swap2\n      swap4\n      pop\n        /* \"Kyc.sol\":13532:13541  _reqcount */\n      dup7\n      swap2\n        /* \"Kyc.sol\":13373:13415  index = findRequestIndex(add, _ethAddress) */\n      dup5\n      swap1\n        /* \"Kyc.sol\":13433:13498  kycrequestsbycust[add]... */\n      dup2\n      lt\n      tag_492\n      jumpi\n      tag_492\n      tag_143\n      jump\t// in\n    tag_492:\n      0x00\n      swap2\n      dup3\n      mstore\n      0x20\n      swap1\n      swap2\n      keccak256\n      0x02\n      swap1\n      swap2\n      mul\n      add\n        /* \"Kyc.sol\":13433:13541  kycrequestsbycust[add]... */\n      sstore\n        /* \"Kyc.sol\":13301:13556  if (kycrequestsbycust[add].kycrequestlist.length > 0) {... */\n    tag_489:\n        /* \"Kyc.sol\":13037:13566  {... */\n      pop\n        /* \"Kyc.sol\":12887:13566  if (... */\n    tag_482:\n      sub(shl(0xa0, 0x01), 0x01)\n        /* \"Kyc.sol\":13575:13604  kycrequestsbyorg[_ethAddress] */\n      dup3\n      and\n      0x00\n      swap1\n      dup2\n      mstore\n        /* \"Kyc.sol\":13575:13591  kycrequestsbyorg */\n      0x03\n        /* \"Kyc.sol\":13575:13604  kycrequestsbyorg[_ethAddress] */\n      0x20\n      mstore\n      0x40\n      dup2\n      keccak256\n        /* \"Kyc.sol\":13575:13614  kycrequestsbyorg[_ethAddress].req_count */\n      0x01\n      add\n        /* \"Kyc.sol\":13575:13616  kycrequestsbyorg[_ethAddress].req_count-- */\n      dup1\n      sload\n      swap2\n      tag_494\n      dup4\n      tag_495\n      jump\t// in\n    tag_494:\n      swap1\n      swap2\n      sstore\n      pop\n      pop\n        /* \"Kyc.sol\":13631:13669  requestRemoved(_reqcount, _ethAddress) */\n      0x40\n      dup1\n      mload\n        /* \"#utility.yul\":23518:23543   */\n      dup6\n      dup2\n      mstore\n      sub(shl(0xa0, 0x01), 0x01)\n        /* \"#utility.yul\":23579:23611   */\n      dup5\n      and\n        /* \"#utility.yul\":23574:23576   */\n      0x20\n        /* \"#utility.yul\":23559:23577   */\n      dup3\n      add\n        /* \"#utility.yul\":23552:23612   */\n      mstore\n        /* \"Kyc.sol\":13631:13669  requestRemoved(_reqcount, _ethAddress) */\n      0x5bc31e521401c7e4fbe27cc8e953ddcd66ce6cc84d810d1850450e7964029d95\n      swap2\n        /* \"#utility.yul\":23491:23509   */\n      add\n        /* \"Kyc.sol\":13631:13669  requestRemoved(_reqcount, _ethAddress) */\n      mload(0x40)\n      dup1\n      swap2\n      sub\n      swap1\n      log1\n        /* \"Kyc.sol\":12258:13676  {... */\n      pop\n        /* \"Kyc.sol\":12134:13676  function deleteRequest(... */\n      pop\n      pop\n      pop\n      jump\t// out\n        /* \"Kyc.sol\":3133:3513  function findRequest(address _custaddress) internal view returns (bool) {... */\n    tag_261:\n        /* \"Kyc.sol\":3199:3203  bool */\n      0x00\n      dup1\n        /* \"Kyc.sol\":3238:3485  for (i; i < kycrequestsbyorg[msg.sender].req_count; i++) {... */\n    tag_499:\n        /* \"Kyc.sol\":3267:3277  msg.sender */\n      caller\n        /* \"Kyc.sol\":3250:3278  kycrequestsbyorg[msg.sender] */\n      0x00\n      swap1\n      dup2\n      mstore\n        /* \"Kyc.sol\":3250:3266  kycrequestsbyorg */\n      0x03\n        /* \"Kyc.sol\":3250:3278  kycrequestsbyorg[msg.sender] */\n      0x20\n      mstore\n      0x40\n      swap1\n      keccak256\n        /* \"Kyc.sol\":3250:3288  kycrequestsbyorg[msg.sender].req_count */\n      0x01\n      add\n      sload\n        /* \"Kyc.sol\":3246:3288  i < kycrequestsbyorg[msg.sender].req_count */\n      dup2\n      lt\n        /* \"Kyc.sol\":3238:3485  for (i; i < kycrequestsbyorg[msg.sender].req_count; i++) {... */\n      iszero\n      tag_500\n      jumpi\n        /* \"Kyc.sol\":3347:3357  msg.sender */\n      caller\n        /* \"Kyc.sol\":3330:3358  kycrequestsbyorg[msg.sender] */\n      0x00\n      swap1\n      dup2\n      mstore\n        /* \"Kyc.sol\":3330:3346  kycrequestsbyorg */\n      0x03\n        /* \"Kyc.sol\":3330:3358  kycrequestsbyorg[msg.sender] */\n      0x20\n      mstore\n      0x40\n      swap1\n      keccak256\n        /* \"Kyc.sol\":3330:3373  kycrequestsbyorg[msg.sender].kycrequestlist */\n      0x02\n      add\n        /* \"Kyc.sol\":3330:3376  kycrequestsbyorg[msg.sender].kycrequestlist[i] */\n      dup1\n      sload\n      sub(shl(0xa0, 0x01), 0x01)\n        /* \"Kyc.sol\":3330:3416  kycrequestsbyorg[msg.sender].kycrequestlist[i].Address ==... */\n      dup6\n      and\n      swap2\n        /* \"Kyc.sol\":3330:3373  kycrequestsbyorg[msg.sender].kycrequestlist */\n      swap1\n        /* \"Kyc.sol\":3374:3375  i */\n      dup4\n      swap1\n        /* \"Kyc.sol\":3330:3376  kycrequestsbyorg[msg.sender].kycrequestlist[i] */\n      dup2\n      lt\n      tag_503\n      jumpi\n      tag_503\n      tag_143\n      jump\t// in\n    tag_503:\n      0x00\n      swap2\n      dup3\n      mstore\n      0x20\n      swap1\n      swap2\n      keccak256\n        /* \"Kyc.sol\":3330:3384  kycrequestsbyorg[msg.sender].kycrequestlist[i].Address */\n      0x01\n        /* \"Kyc.sol\":3330:3376  kycrequestsbyorg[msg.sender].kycrequestlist[i] */\n      0x02\n      swap1\n      swap3\n      mul\n      add\n        /* \"Kyc.sol\":3330:3384  kycrequestsbyorg[msg.sender].kycrequestlist[i].Address */\n      add\n      sload\n      sub(shl(0xa0, 0x01), 0x01)\n      and\n        /* \"Kyc.sol\":3330:3416  kycrequestsbyorg[msg.sender].kycrequestlist[i].Address ==... */\n      sub\n        /* \"Kyc.sol\":3309:3475  if (... */\n      tag_505\n      jumpi\n      pop\n        /* \"Kyc.sol\":3456:3460  true */\n      0x01\n      swap3\n        /* \"Kyc.sol\":3133:3513  function findRequest(address _custaddress) internal view returns (bool) {... */\n      swap2\n      pop\n      pop\n      jump\t// out\n        /* \"Kyc.sol\":3309:3475  if (... */\n    tag_505:\n        /* \"Kyc.sol\":3290:3293  i++ */\n      dup1\n      tag_506\n      dup2\n      tag_268\n      jump\t// in\n    tag_506:\n      swap2\n      pop\n      pop\n        /* \"Kyc.sol\":3238:3485  for (i; i < kycrequestsbyorg[msg.sender].req_count; i++) {... */\n      jump(tag_499)\n    tag_500:\n      pop\n        /* \"Kyc.sol\":3501:3506  false */\n      0x00\n      swap3\n        /* \"Kyc.sol\":3133:3513  function findRequest(address _custaddress) internal view returns (bool) {... */\n      swap2\n      pop\n      pop\n      jump\t// out\n        /* \"Kyc.sol\":5515:6665  function writeKYC(... */\n    tag_399:\n      sub(shl(0xa0, 0x01), 0x01)\n        /* \"Kyc.sol\":5933:5956  customers[_custaddress] */\n      dup13\n      and\n      0x00\n      dup2\n      dup2\n      mstore\n        /* \"Kyc.sol\":5933:5942  customers */\n      0x01\n        /* \"Kyc.sol\":5933:5956  customers[_custaddress] */\n      0x20\n      dup2\n      swap1\n      mstore\n      0x40\n      swap1\n      swap2\n      keccak256\n        /* \"Kyc.sol\":5933:5981  customers[_custaddress].custAddress=_custaddress */\n      dup1\n      sload\n      not(sub(shl(0xa0, 0x01), 0x01))\n      and\n      swap1\n      swap3\n      or\n      dup3\n      sstore\n        /* \"Kyc.sol\":5991:6019  customers[_custaddress].name */\n      add\n        /* \"Kyc.sol\":5991:6026  customers[_custaddress].name = name */\n      tag_508\n        /* \"Kyc.sol\":6022:6026  name */\n      dup13\n        /* \"Kyc.sol\":5991:6019  customers[_custaddress].name */\n      dup3\n        /* \"Kyc.sol\":5991:6026  customers[_custaddress].name = name */\n      tag_237\n      jump\t// in\n    tag_508:\n      pop\n      sub(shl(0xa0, 0x01), 0x01)\n        /* \"Kyc.sol\":6036:6059  customers[_custaddress] */\n      dup13\n      and\n      0x00\n      swap1\n      dup2\n      mstore\n        /* \"Kyc.sol\":6036:6045  customers */\n      0x01\n        /* \"Kyc.sol\":6036:6059  customers[_custaddress] */\n      0x20\n      mstore\n      0x40\n      swap1\n      keccak256\n        /* \"Kyc.sol\":6036:6070  customers[_custaddress].fatherName */\n      0x02\n      add\n        /* \"Kyc.sol\":6036:6083  customers[_custaddress].fatherName = fatherName */\n      tag_509\n        /* \"Kyc.sol\":6073:6083  fatherName */\n      dup12\n        /* \"Kyc.sol\":6036:6070  customers[_custaddress].fatherName */\n      dup3\n        /* \"Kyc.sol\":6036:6083  customers[_custaddress].fatherName = fatherName */\n      tag_237\n      jump\t// in\n    tag_509:\n      pop\n      sub(shl(0xa0, 0x01), 0x01)\n        /* \"Kyc.sol\":6093:6116  customers[_custaddress] */\n      dup13\n      and\n      0x00\n      swap1\n      dup2\n      mstore\n        /* \"Kyc.sol\":6093:6102  customers */\n      0x01\n        /* \"Kyc.sol\":6093:6116  customers[_custaddress] */\n      0x20\n      mstore\n      0x40\n      swap1\n      keccak256\n        /* \"Kyc.sol\":6093:6127  customers[_custaddress].motherName */\n      0x03\n      add\n        /* \"Kyc.sol\":6093:6140  customers[_custaddress].motherName = motherName */\n      tag_510\n        /* \"Kyc.sol\":6130:6140  motherName */\n      dup11\n        /* \"Kyc.sol\":6093:6127  customers[_custaddress].motherName */\n      dup3\n        /* \"Kyc.sol\":6093:6140  customers[_custaddress].motherName = motherName */\n      tag_237\n      jump\t// in\n    tag_510:\n      pop\n      sub(shl(0xa0, 0x01), 0x01)\n        /* \"Kyc.sol\":6150:6173  customers[_custaddress] */\n      dup13\n      and\n      0x00\n      swap1\n      dup2\n      mstore\n        /* \"Kyc.sol\":6150:6159  customers */\n      0x01\n        /* \"Kyc.sol\":6150:6173  customers[_custaddress] */\n      0x20\n      mstore\n      0x40\n      swap1\n      keccak256\n        /* \"Kyc.sol\":6150:6189  customers[_custaddress].grandfatherName */\n      0x04\n      add\n        /* \"Kyc.sol\":6150:6207  customers[_custaddress].grandfatherName = grandfatherName */\n      tag_511\n        /* \"Kyc.sol\":6192:6207  grandfatherName */\n      dup10\n        /* \"Kyc.sol\":6150:6189  customers[_custaddress].grandfatherName */\n      dup3\n        /* \"Kyc.sol\":6150:6207  customers[_custaddress].grandfatherName = grandfatherName */\n      tag_237\n      jump\t// in\n    tag_511:\n      pop\n      sub(shl(0xa0, 0x01), 0x01)\n        /* \"Kyc.sol\":6217:6240  customers[_custaddress] */\n      dup13\n      and\n      0x00\n      swap1\n      dup2\n      mstore\n        /* \"Kyc.sol\":6217:6226  customers */\n      0x01\n        /* \"Kyc.sol\":6217:6240  customers[_custaddress] */\n      0x20\n      mstore\n      0x40\n      swap1\n      keccak256\n        /* \"Kyc.sol\":6217:6257  customers[_custaddress].temporaryAddress */\n      0x05\n      add\n        /* \"Kyc.sol\":6217:6276  customers[_custaddress].temporaryAddress = temporaryAddress */\n      tag_512\n        /* \"Kyc.sol\":6260:6276  temporaryAddress */\n      dup9\n        /* \"Kyc.sol\":6217:6257  customers[_custaddress].temporaryAddress */\n      dup3\n        /* \"Kyc.sol\":6217:6276  customers[_custaddress].temporaryAddress = temporaryAddress */\n      tag_237\n      jump\t// in\n    tag_512:\n      pop\n      sub(shl(0xa0, 0x01), 0x01)\n        /* \"Kyc.sol\":6286:6309  customers[_custaddress] */\n      dup13\n      and\n      0x00\n      swap1\n      dup2\n      mstore\n        /* \"Kyc.sol\":6286:6295  customers */\n      0x01\n        /* \"Kyc.sol\":6286:6309  customers[_custaddress] */\n      0x20\n      mstore\n      0x40\n      swap1\n      keccak256\n        /* \"Kyc.sol\":6286:6327  customers[_custaddress].permanenetAddress */\n      0x06\n      add\n        /* \"Kyc.sol\":6286:6347  customers[_custaddress].permanenetAddress = permanenetAddress */\n      tag_513\n        /* \"Kyc.sol\":6330:6347  permanenetAddress */\n      dup8\n        /* \"Kyc.sol\":6286:6327  customers[_custaddress].permanenetAddress */\n      dup3\n        /* \"Kyc.sol\":6286:6347  customers[_custaddress].permanenetAddress = permanenetAddress */\n      tag_237\n      jump\t// in\n    tag_513:\n      pop\n      sub(shl(0xa0, 0x01), 0x01)\n        /* \"Kyc.sol\":6357:6380  customers[_custaddress] */\n      dup13\n      and\n      0x00\n      swap1\n      dup2\n      mstore\n        /* \"Kyc.sol\":6357:6366  customers */\n      0x01\n        /* \"Kyc.sol\":6357:6380  customers[_custaddress] */\n      0x20\n      mstore\n      0x40\n      swap1\n      keccak256\n        /* \"Kyc.sol\":6357:6394  customers[_custaddress].contactNumber */\n      0x07\n      add\n        /* \"Kyc.sol\":6357:6410  customers[_custaddress].contactNumber = contactNumber */\n      tag_514\n        /* \"Kyc.sol\":6397:6410  contactNumber */\n      dup7\n        /* \"Kyc.sol\":6357:6394  customers[_custaddress].contactNumber */\n      dup3\n        /* \"Kyc.sol\":6357:6410  customers[_custaddress].contactNumber = contactNumber */\n      tag_237\n      jump\t// in\n    tag_514:\n      pop\n      sub(shl(0xa0, 0x01), 0x01)\n        /* \"Kyc.sol\":6420:6443  customers[_custaddress] */\n      dup13\n      and\n      0x00\n      swap1\n      dup2\n      mstore\n        /* \"Kyc.sol\":6420:6429  customers */\n      0x01\n        /* \"Kyc.sol\":6420:6443  customers[_custaddress] */\n      0x20\n      mstore\n      0x40\n      swap1\n      keccak256\n        /* \"Kyc.sol\":6420:6447  customers[_custaddress].dob */\n      0x08\n      add\n        /* \"Kyc.sol\":6420:6453  customers[_custaddress].dob = dob */\n      tag_515\n        /* \"Kyc.sol\":6450:6453  dob */\n      dup6\n        /* \"Kyc.sol\":6420:6447  customers[_custaddress].dob */\n      dup3\n        /* \"Kyc.sol\":6420:6453  customers[_custaddress].dob = dob */\n      tag_237\n      jump\t// in\n    tag_515:\n      pop\n      sub(shl(0xa0, 0x01), 0x01)\n        /* \"Kyc.sol\":6463:6486  customers[_custaddress] */\n      swap12\n      swap1\n      swap12\n      and\n      0x00\n      dup2\n      dup2\n      mstore\n        /* \"Kyc.sol\":6463:6472  customers */\n      0x01\n        /* \"Kyc.sol\":6463:6486  customers[_custaddress] */\n      0x20\n      dup2\n      dup2\n      mstore\n      0x40\n      dup1\n      dup5\n      keccak256\n        /* \"Kyc.sol\":6463:6496  customers[_custaddress].kycStatus */\n      0x0c\n      dup2\n      add\n        /* \"Kyc.sol\":6463:6509  customers[_custaddress].kycStatus = _kycStatus */\n      dup1\n      sload\n      not(0xff)\n      and\n      swap9\n      iszero\n      iszero\n      swap9\n      swap1\n      swap9\n      or\n      swap1\n      swap8\n      sstore\n        /* \"Kyc.sol\":6519:6544  customers[_custaddress].d */\n      0x09\n      dup8\n      add\n        /* \"Kyc.sol\":6519:6549  customers[_custaddress].d = _d */\n      swap6\n      swap1\n      swap6\n      sstore\n        /* \"Kyc.sol\":6559:6584  customers[_custaddress].n */\n      0x0a\n      swap1\n      swap6\n      add\n        /* \"Kyc.sol\":6559:6589  customers[_custaddress].n = _n */\n      swap14\n      swap1\n      swap14\n      sstore\n        /* \"Kyc.sol\":6600:6617  kycrequestsbycust */\n      0x04\n        /* \"Kyc.sol\":6600:6631  kycrequestsbycust[_custaddress] */\n      swap1\n      swap4\n      mstore\n      swap2\n      keccak256\n        /* \"Kyc.sol\":6600:6643  kycrequestsbycust[_custaddress].custAddress */\n      swap1\n      swap10\n      add\n        /* \"Kyc.sol\":6600:6658  kycrequestsbycust[_custaddress].custAddress = _custaddress */\n      dup1\n      sload\n      not(sub(shl(0xa0, 0x01), 0x01))\n      and\n      swap1\n      swap10\n      or\n      swap1\n      swap9\n      sstore\n      pop\n      pop\n      pop\n      pop\n      pop\n      pop\n      pop\n      pop\n        /* \"Kyc.sol\":5515:6665  function writeKYC(... */\n      jump\t// out\n        /* \"Kyc.sol\":2256:2611  function findOrgIndex(address _custaddress, address ethAddress)... */\n    tag_445:\n        /* \"Kyc.sol\":2367:2380  uint256 index */\n      0x00\n      dup1\n        /* \"Kyc.sol\":2419:2605  for (i; i < customers[_custaddress].organization.length; i++) {... */\n    tag_517:\n      sub(shl(0xa0, 0x01), 0x01)\n        /* \"Kyc.sol\":2431:2454  customers[_custaddress] */\n      dup5\n      and\n      0x00\n      swap1\n      dup2\n      mstore\n        /* \"Kyc.sol\":2431:2440  customers */\n      0x01\n        /* \"Kyc.sol\":2431:2454  customers[_custaddress] */\n      0x20\n      mstore\n      0x40\n      swap1\n      keccak256\n        /* \"Kyc.sol\":2431:2467  customers[_custaddress].organization */\n      0x0b\n      add\n        /* \"Kyc.sol\":2431:2474  customers[_custaddress].organization.length */\n      sload\n        /* \"Kyc.sol\":2427:2474  i < customers[_custaddress].organization.length */\n      dup2\n      lt\n        /* \"Kyc.sol\":2419:2605  for (i; i < customers[_custaddress].organization.length; i++) {... */\n      iszero\n      tag_518\n      jumpi\n      sub(shl(0xa0, 0x01), 0x01)\n        /* \"Kyc.sol\":2499:2522  customers[_custaddress] */\n      dup5\n      dup2\n      and\n      0x00\n      swap1\n      dup2\n      mstore\n        /* \"Kyc.sol\":2499:2508  customers */\n      0x01\n        /* \"Kyc.sol\":2499:2522  customers[_custaddress] */\n      0x20\n      mstore\n      0x40\n      swap1\n      keccak256\n        /* \"Kyc.sol\":2499:2535  customers[_custaddress].organization */\n      0x0b\n      add\n        /* \"Kyc.sol\":2499:2538  customers[_custaddress].organization[i] */\n      dup1\n      sload\n        /* \"Kyc.sol\":2499:2552  customers[_custaddress].organization[i] == ethAddress */\n      swap2\n      dup6\n      and\n      swap2\n        /* \"Kyc.sol\":2536:2537  i */\n      dup4\n      swap1\n        /* \"Kyc.sol\":2499:2538  customers[_custaddress].organization[i] */\n      dup2\n      lt\n      tag_521\n      jumpi\n      tag_521\n      tag_143\n      jump\t// in\n    tag_521:\n      0x00\n      swap2\n      dup3\n      mstore\n      0x20\n      swap1\n      swap2\n      keccak256\n      add\n      sload\n      sub(shl(0xa0, 0x01), 0x01)\n      and\n        /* \"Kyc.sol\":2499:2552  customers[_custaddress].organization[i] == ethAddress */\n      sub\n        /* \"Kyc.sol\":2495:2595  if (customers[_custaddress].organization[i] == ethAddress) {... */\n      tag_523\n      jumpi\n        /* \"Kyc.sol\":2579:2580  i */\n      swap1\n      pop\n        /* \"Kyc.sol\":2572:2580  return i */\n      jump(tag_232)\n        /* \"Kyc.sol\":2495:2595  if (customers[_custaddress].organization[i] == ethAddress) {... */\n    tag_523:\n        /* \"Kyc.sol\":2476:2479  i++ */\n      dup1\n      tag_524\n      dup2\n      tag_268\n      jump\t// in\n    tag_524:\n      swap2\n      pop\n      pop\n        /* \"Kyc.sol\":2419:2605  for (i; i < customers[_custaddress].organization.length; i++) {... */\n      jump(tag_517)\n    tag_518:\n        /* \"Kyc.sol\":2386:2611  {... */\n      pop\n        /* \"Kyc.sol\":2256:2611  function findOrgIndex(address _custaddress, address ethAddress)... */\n      swap3\n      swap2\n      pop\n      pop\n      jump\t// out\n        /* \"Kyc.sol\":2617:3098  function findRequestIndex(address _custaddress, address _ethAddress)... */\n    tag_460:\n        /* \"Kyc.sol\":2733:2746  uint256 index */\n      0x00\n      dup1\n        /* \"Kyc.sol\":2785:3092  for (... */\n    tag_526:\n      sub(shl(0xa0, 0x01), 0x01)\n        /* \"Kyc.sol\":2822:2853  kycrequestsbycust[_custaddress] */\n      dup5\n      and\n      0x00\n      swap1\n      dup2\n      mstore\n        /* \"Kyc.sol\":2822:2839  kycrequestsbycust */\n      0x04\n        /* \"Kyc.sol\":2822:2853  kycrequestsbycust[_custaddress] */\n      0x20\n      mstore\n      0x40\n      swap1\n      keccak256\n        /* \"Kyc.sol\":2822:2875  kycrequestsbycust[_custaddress].kycrequestlist.length */\n      sload\n        /* \"Kyc.sol\":2818:2875  i < kycrequestsbycust[_custaddress].kycrequestlist.length */\n      dup2\n      lt\n        /* \"Kyc.sol\":2785:3092  for (... */\n      iszero\n      tag_518\n      jumpi\n      sub(shl(0xa0, 0x01), 0x01)\n        /* \"Kyc.sol\":2938:2969  kycrequestsbycust[_custaddress] */\n      dup5\n      dup2\n      and\n      0x00\n      swap1\n      dup2\n      mstore\n        /* \"Kyc.sol\":2938:2955  kycrequestsbycust */\n      0x04\n        /* \"Kyc.sol\":2938:2969  kycrequestsbycust[_custaddress] */\n      0x20\n      mstore\n      0x40\n      swap1\n      keccak256\n        /* \"Kyc.sol\":2938:2987  kycrequestsbycust[_custaddress].kycrequestlist[i] */\n      dup1\n      sload\n        /* \"Kyc.sol\":2938:3026  kycrequestsbycust[_custaddress].kycrequestlist[i].Address ==... */\n      swap2\n      dup6\n      and\n      swap2\n        /* \"Kyc.sol\":2985:2986  i */\n      dup4\n      swap1\n        /* \"Kyc.sol\":2938:2987  kycrequestsbycust[_custaddress].kycrequestlist[i] */\n      dup2\n      lt\n      tag_530\n      jumpi\n      tag_530\n      tag_143\n      jump\t// in\n    tag_530:\n      0x00\n      swap2\n      dup3\n      mstore\n      0x20\n      swap1\n      swap2\n      keccak256\n        /* \"Kyc.sol\":2938:2995  kycrequestsbycust[_custaddress].kycrequestlist[i].Address */\n      0x01\n        /* \"Kyc.sol\":2938:2987  kycrequestsbycust[_custaddress].kycrequestlist[i] */\n      0x02\n      swap1\n      swap3\n      mul\n      add\n        /* \"Kyc.sol\":2938:2995  kycrequestsbycust[_custaddress].kycrequestlist[i].Address */\n      add\n      sload\n      sub(shl(0xa0, 0x01), 0x01)\n      and\n        /* \"Kyc.sol\":2938:3026  kycrequestsbycust[_custaddress].kycrequestlist[i].Address ==... */\n      sub\n        /* \"Kyc.sol\":2917:3082  if (... */\n      tag_532\n      jumpi\n        /* \"Kyc.sol\":3066:3067  i */\n      swap1\n      pop\n        /* \"Kyc.sol\":3059:3067  return i */\n      jump(tag_232)\n        /* \"Kyc.sol\":2917:3082  if (... */\n    tag_532:\n        /* \"Kyc.sol\":2889:2892  i++ */\n      dup1\n      tag_533\n      dup2\n      tag_268\n      jump\t// in\n    tag_533:\n      swap2\n      pop\n      pop\n        /* \"Kyc.sol\":2785:3092  for (... */\n      jump(tag_526)\n    tag_247:\n      pop\n      dup1\n      sload\n      tag_534\n      swap1\n      tag_168\n      jump\t// in\n    tag_534:\n      0x00\n      dup3\n      sstore\n      dup1\n      0x1f\n      lt\n      tag_536\n      jumpi\n      pop\n      pop\n      jump\t// out\n    tag_536:\n      0x1f\n      add\n      0x20\n      swap1\n      div\n      swap1\n      0x00\n      mstore\n      keccak256(0x00, 0x20)\n      swap1\n      dup2\n      add\n      swap1\n      tag_537\n      swap2\n      swap1\n      tag_538\n      jump\t// in\n    tag_537:\n      pop\n      jump\t// out\n    tag_538:\n    tag_539:\n      dup1\n      dup3\n      gt\n      iszero\n      tag_540\n      jumpi\n      0x00\n      dup2\n      sstore\n      0x01\n      add\n      jump(tag_539)\n    tag_540:\n      pop\n      swap1\n      jump\t// out\n        /* \"#utility.yul\":14:187   */\n    tag_541:\n        /* \"#utility.yul\":82:102   */\n      dup1\n      calldataload\n      sub(shl(0xa0, 0x01), 0x01)\n        /* \"#utility.yul\":131:162   */\n      dup2\n      and\n        /* \"#utility.yul\":121:163   */\n      dup2\n      eq\n        /* \"#utility.yul\":111:181   */\n      tag_129\n      jumpi\n        /* \"#utility.yul\":177:178   */\n      0x00\n        /* \"#utility.yul\":174:175   */\n      dup1\n        /* \"#utility.yul\":167:179   */\n      revert\n        /* \"#utility.yul\":192:378   */\n    tag_29:\n        /* \"#utility.yul\":251:257   */\n      0x00\n        /* \"#utility.yul\":304:306   */\n      0x20\n        /* \"#utility.yul\":292:301   */\n      dup3\n        /* \"#utility.yul\":283:290   */\n      dup5\n        /* \"#utility.yul\":279:302   */\n      sub\n        /* \"#utility.yul\":275:307   */\n      slt\n        /* \"#utility.yul\":272:324   */\n      iszero\n      tag_556\n      jumpi\n        /* \"#utility.yul\":320:321   */\n      0x00\n        /* \"#utility.yul\":317:318   */\n      dup1\n        /* \"#utility.yul\":310:322   */\n      revert\n        /* \"#utility.yul\":272:324   */\n    tag_556:\n        /* \"#utility.yul\":343:372   */\n      tag_557\n        /* \"#utility.yul\":362:371   */\n      dup3\n        /* \"#utility.yul\":343:372   */\n      tag_541\n      jump\t// in\n    tag_557:\n        /* \"#utility.yul\":333:372   */\n      swap4\n        /* \"#utility.yul\":192:378   */\n      swap3\n      pop\n      pop\n      pop\n      jump\t// out\n        /* \"#utility.yul\":671:831   */\n    tag_543:\n        /* \"#utility.yul\":736:756   */\n      dup1\n      calldataload\n        /* \"#utility.yul\":792:805   */\n      dup1\n      iszero\n        /* \"#utility.yul\":785:806   */\n      iszero\n        /* \"#utility.yul\":775:807   */\n      dup2\n      eq\n        /* \"#utility.yul\":765:825   */\n      tag_129\n      jumpi\n        /* \"#utility.yul\":821:822   */\n      0x00\n        /* \"#utility.yul\":818:819   */\n      dup1\n        /* \"#utility.yul\":811:823   */\n      revert\n        /* \"#utility.yul\":836:1158   */\n    tag_39:\n        /* \"#utility.yul\":910:916   */\n      0x00\n        /* \"#utility.yul\":918:924   */\n      dup1\n        /* \"#utility.yul\":926:932   */\n      0x00\n        /* \"#utility.yul\":979:981   */\n      0x60\n        /* \"#utility.yul\":967:976   */\n      dup5\n        /* \"#utility.yul\":958:965   */\n      dup7\n        /* \"#utility.yul\":954:977   */\n      sub\n        /* \"#utility.yul\":950:982   */\n      slt\n        /* \"#utility.yul\":947:999   */\n      iszero\n      tag_563\n      jumpi\n        /* \"#utility.yul\":995:996   */\n      0x00\n        /* \"#utility.yul\":992:993   */\n      dup1\n        /* \"#utility.yul\":985:997   */\n      revert\n        /* \"#utility.yul\":947:999   */\n    tag_563:\n        /* \"#utility.yul\":1031:1040   */\n      dup4\n        /* \"#utility.yul\":1018:1041   */\n      calldataload\n        /* \"#utility.yul\":1008:1041   */\n      swap3\n      pop\n        /* \"#utility.yul\":1060:1098   */\n      tag_564\n        /* \"#utility.yul\":1094:1096   */\n      0x20\n        /* \"#utility.yul\":1083:1092   */\n      dup6\n        /* \"#utility.yul\":1079:1097   */\n      add\n        /* \"#utility.yul\":1060:1098   */\n      tag_541\n      jump\t// in\n    tag_564:\n        /* \"#utility.yul\":1050:1098   */\n      swap2\n      pop\n        /* \"#utility.yul\":1117:1152   */\n      tag_565\n        /* \"#utility.yul\":1148:1150   */\n      0x40\n        /* \"#utility.yul\":1137:1146   */\n      dup6\n        /* \"#utility.yul\":1133:1151   */\n      add\n        /* \"#utility.yul\":1117:1152   */\n      tag_543\n      jump\t// in\n    tag_565:\n        /* \"#utility.yul\":1107:1152   */\n      swap1\n      pop\n        /* \"#utility.yul\":836:1158   */\n      swap3\n      pop\n      swap3\n      pop\n      swap3\n      jump\t// out\n        /* \"#utility.yul\":1163:1586   */\n    tag_544:\n        /* \"#utility.yul\":1205:1208   */\n      0x00\n        /* \"#utility.yul\":1243:1248   */\n      dup2\n        /* \"#utility.yul\":1237:1249   */\n      mload\n        /* \"#utility.yul\":1270:1276   */\n      dup1\n        /* \"#utility.yul\":1265:1268   */\n      dup5\n        /* \"#utility.yul\":1258:1277   */\n      mstore\n        /* \"#utility.yul\":1295:1296   */\n      0x00\n        /* \"#utility.yul\":1305:1467   */\n    tag_567:\n        /* \"#utility.yul\":1319:1325   */\n      dup2\n        /* \"#utility.yul\":1316:1317   */\n      dup2\n        /* \"#utility.yul\":1313:1326   */\n      lt\n        /* \"#utility.yul\":1305:1467   */\n      iszero\n      tag_569\n      jumpi\n        /* \"#utility.yul\":1381:1385   */\n      0x20\n        /* \"#utility.yul\":1437:1450   */\n      dup2\n      dup6\n      add\n        /* \"#utility.yul\":1433:1455   */\n      dup2\n      add\n        /* \"#utility.yul\":1427:1456   */\n      mload\n        /* \"#utility.yul\":1409:1420   */\n      dup7\n      dup4\n      add\n        /* \"#utility.yul\":1405:1425   */\n      dup3\n      add\n        /* \"#utility.yul\":1398:1457   */\n      mstore\n        /* \"#utility.yul\":1334:1346   */\n      add\n        /* \"#utility.yul\":1305:1467   */\n      jump(tag_567)\n    tag_569:\n        /* \"#utility.yul\":1309:1312   */\n      pop\n        /* \"#utility.yul\":1512:1513   */\n      0x00\n        /* \"#utility.yul\":1505:1509   */\n      0x20\n        /* \"#utility.yul\":1496:1502   */\n      dup3\n        /* \"#utility.yul\":1491:1494   */\n      dup7\n        /* \"#utility.yul\":1487:1503   */\n      add\n        /* \"#utility.yul\":1483:1510   */\n      add\n        /* \"#utility.yul\":1476:1514   */\n      mstore\n        /* \"#utility.yul\":1575:1579   */\n      0x20\n        /* \"#utility.yul\":1568:1570   */\n      0x1f\n        /* \"#utility.yul\":1564:1571   */\n      not\n        /* \"#utility.yul\":1559:1561   */\n      0x1f\n        /* \"#utility.yul\":1551:1557   */\n      dup4\n        /* \"#utility.yul\":1547:1562   */\n      add\n        /* \"#utility.yul\":1543:1572   */\n      and\n        /* \"#utility.yul\":1538:1541   */\n      dup6\n        /* \"#utility.yul\":1534:1573   */\n      add\n        /* \"#utility.yul\":1530:1580   */\n      add\n        /* \"#utility.yul\":1523:1580   */\n      swap2\n      pop\n      pop\n        /* \"#utility.yul\":1163:1586   */\n      swap3\n      swap2\n      pop\n      pop\n      jump\t// out\n        /* \"#utility.yul\":1700:2161   */\n    tag_45:\n        /* \"#utility.yul\":1885:1887   */\n      0x20\n        /* \"#utility.yul\":1874:1883   */\n      dup2\n        /* \"#utility.yul\":1867:1888   */\n      mstore\n        /* \"#utility.yul\":1848:1852   */\n      0x00\n        /* \"#utility.yul\":1923:1929   */\n      dup3\n        /* \"#utility.yul\":1917:1930   */\n      mload\n        /* \"#utility.yul\":1966:1970   */\n      0x40\n        /* \"#utility.yul\":1961:1963   */\n      0x20\n        /* \"#utility.yul\":1950:1959   */\n      dup5\n        /* \"#utility.yul\":1946:1964   */\n      add\n        /* \"#utility.yul\":1939:1971   */\n      mstore\n        /* \"#utility.yul\":1994:2045   */\n      tag_572\n        /* \"#utility.yul\":2041:2043   */\n      0x60\n        /* \"#utility.yul\":2030:2039   */\n      dup5\n        /* \"#utility.yul\":2026:2044   */\n      add\n        /* \"#utility.yul\":2012:2024   */\n      dup3\n        /* \"#utility.yul\":1994:2045   */\n      tag_544\n      jump\t// in\n    tag_572:\n        /* \"#utility.yul\":2105:2107   */\n      0x20\n        /* \"#utility.yul\":2093:2108   */\n      swap5\n      swap1\n      swap5\n      add\n        /* \"#utility.yul\":2087:2109   */\n      mload\n      sub(shl(0xa0, 0x01), 0x01)\n        /* \"#utility.yul\":2083:2131   */\n      and\n        /* \"#utility.yul\":2076:2080   */\n      0x40\n        /* \"#utility.yul\":2061:2081   */\n      swap4\n      swap1\n      swap4\n      add\n        /* \"#utility.yul\":2054:2132   */\n      swap3\n      swap1\n      swap3\n      mstore\n      pop\n        /* \"#utility.yul\":1980:2045   */\n      swap1\n      swap2\n        /* \"#utility.yul\":1700:2161   */\n      swap1\n      pop\n      jump\t// out\n        /* \"#utility.yul\":2166:2824   */\n    tag_49:\n        /* \"#utility.yul\":2337:2339   */\n      0x20\n        /* \"#utility.yul\":2389:2410   */\n      dup1\n      dup3\n      mstore\n        /* \"#utility.yul\":2459:2472   */\n      dup3\n      mload\n        /* \"#utility.yul\":2362:2380   */\n      dup3\n      dup3\n      add\n        /* \"#utility.yul\":2481:2503   */\n      dup2\n      swap1\n      mstore\n        /* \"#utility.yul\":2308:2312   */\n      0x00\n      swap2\n        /* \"#utility.yul\":2337:2339   */\n      swap1\n        /* \"#utility.yul\":2560:2575   */\n      dup5\n      dup3\n      add\n      swap1\n        /* \"#utility.yul\":2534:2536   */\n      0x40\n        /* \"#utility.yul\":2519:2537   */\n      dup6\n      add\n      swap1\n        /* \"#utility.yul\":2308:2312   */\n      dup5\n        /* \"#utility.yul\":2603:2798   */\n    tag_574:\n        /* \"#utility.yul\":2617:2623   */\n      dup2\n        /* \"#utility.yul\":2614:2615   */\n      dup2\n        /* \"#utility.yul\":2611:2624   */\n      lt\n        /* \"#utility.yul\":2603:2798   */\n      iszero\n      tag_576\n      jumpi\n        /* \"#utility.yul\":2682:2695   */\n      dup4\n      mload\n      sub(shl(0xa0, 0x01), 0x01)\n        /* \"#utility.yul\":2678:2717   */\n      and\n        /* \"#utility.yul\":2666:2718   */\n      dup4\n      mstore\n        /* \"#utility.yul\":2773:2788   */\n      swap3\n      dup5\n      add\n      swap3\n        /* \"#utility.yul\":2738:2750   */\n      swap2\n      dup5\n      add\n      swap2\n        /* \"#utility.yul\":2714:2715   */\n      0x01\n        /* \"#utility.yul\":2632:2641   */\n      add\n        /* \"#utility.yul\":2603:2798   */\n      jump(tag_574)\n    tag_576:\n      pop\n        /* \"#utility.yul\":2815:2818   */\n      swap1\n      swap7\n        /* \"#utility.yul\":2166:2824   */\n      swap6\n      pop\n      pop\n      pop\n      pop\n      pop\n      pop\n      jump\t// out\n        /* \"#utility.yul\":2829:3009   */\n    tag_55:\n        /* \"#utility.yul\":2888:2894   */\n      0x00\n        /* \"#utility.yul\":2941:2943   */\n      0x20\n        /* \"#utility.yul\":2929:2938   */\n      dup3\n        /* \"#utility.yul\":2920:2927   */\n      dup5\n        /* \"#utility.yul\":2916:2939   */\n      sub\n        /* \"#utility.yul\":2912:2944   */\n      slt\n        /* \"#utility.yul\":2909:2961   */\n      iszero\n      tag_578\n      jumpi\n        /* \"#utility.yul\":2957:2958   */\n      0x00\n        /* \"#utility.yul\":2954:2955   */\n      dup1\n        /* \"#utility.yul\":2947:2959   */\n      revert\n        /* \"#utility.yul\":2909:2961   */\n    tag_578:\n      pop\n        /* \"#utility.yul\":2980:3003   */\n      calldataload\n      swap2\n        /* \"#utility.yul\":2829:3009   */\n      swap1\n      pop\n      jump\t// out\n        /* \"#utility.yul\":3014:3268   */\n    tag_60:\n        /* \"#utility.yul\":3082:3088   */\n      0x00\n        /* \"#utility.yul\":3090:3096   */\n      dup1\n        /* \"#utility.yul\":3143:3145   */\n      0x40\n        /* \"#utility.yul\":3131:3140   */\n      dup4\n        /* \"#utility.yul\":3122:3129   */\n      dup6\n        /* \"#utility.yul\":3118:3141   */\n      sub\n        /* \"#utility.yul\":3114:3146   */\n      slt\n        /* \"#utility.yul\":3111:3163   */\n      iszero\n      tag_580\n      jumpi\n        /* \"#utility.yul\":3159:3160   */\n      0x00\n        /* \"#utility.yul\":3156:3157   */\n      dup1\n        /* \"#utility.yul\":3149:3161   */\n      revert\n        /* \"#utility.yul\":3111:3163   */\n    tag_580:\n        /* \"#utility.yul\":3195:3204   */\n      dup3\n        /* \"#utility.yul\":3182:3205   */\n      calldataload\n        /* \"#utility.yul\":3172:3205   */\n      swap2\n      pop\n        /* \"#utility.yul\":3224:3262   */\n      tag_581\n        /* \"#utility.yul\":3258:3260   */\n      0x20\n        /* \"#utility.yul\":3247:3256   */\n      dup5\n        /* \"#utility.yul\":3243:3261   */\n      add\n        /* \"#utility.yul\":3224:3262   */\n      tag_541\n      jump\t// in\n    tag_581:\n        /* \"#utility.yul\":3214:3262   */\n      swap1\n      pop\n        /* \"#utility.yul\":3014:3268   */\n      swap3\n      pop\n      swap3\n      swap1\n      pop\n      jump\t// out\n        /* \"#utility.yul\":3273:3400   */\n    tag_276:\n        /* \"#utility.yul\":3334:3344   */\n      0x4e487b71\n        /* \"#utility.yul\":3329:3332   */\n      0xe0\n        /* \"#utility.yul\":3325:3345   */\n      shl\n        /* \"#utility.yul\":3322:3323   */\n      0x00\n        /* \"#utility.yul\":3315:3346   */\n      mstore\n        /* \"#utility.yul\":3365:3369   */\n      0x41\n        /* \"#utility.yul\":3362:3363   */\n      0x04\n        /* \"#utility.yul\":3355:3370   */\n      mstore\n        /* \"#utility.yul\":3389:3393   */\n      0x24\n        /* \"#utility.yul\":3386:3387   */\n      0x00\n        /* \"#utility.yul\":3379:3394   */\n      revert\n        /* \"#utility.yul\":3405:4124   */\n    tag_546:\n        /* \"#utility.yul\":3448:3453   */\n      0x00\n        /* \"#utility.yul\":3501:3504   */\n      dup3\n        /* \"#utility.yul\":3494:3498   */\n      0x1f\n        /* \"#utility.yul\":3486:3492   */\n      dup4\n        /* \"#utility.yul\":3482:3499   */\n      add\n        /* \"#utility.yul\":3478:3505   */\n      slt\n        /* \"#utility.yul\":3468:3523   */\n      tag_584\n      jumpi\n        /* \"#utility.yul\":3519:3520   */\n      0x00\n        /* \"#utility.yul\":3516:3517   */\n      dup1\n        /* \"#utility.yul\":3509:3521   */\n      revert\n        /* \"#utility.yul\":3468:3523   */\n    tag_584:\n        /* \"#utility.yul\":3555:3561   */\n      dup2\n        /* \"#utility.yul\":3542:3562   */\n      calldataload\n      sub(shl(0x40, 0x01), 0x01)\n        /* \"#utility.yul\":3618:3620   */\n      dup1\n        /* \"#utility.yul\":3614:3616   */\n      dup3\n        /* \"#utility.yul\":3611:3621   */\n      gt\n        /* \"#utility.yul\":3608:3644   */\n      iszero\n      tag_586\n      jumpi\n        /* \"#utility.yul\":3624:3642   */\n      tag_586\n      tag_276\n      jump\t// in\n    tag_586:\n        /* \"#utility.yul\":3699:3701   */\n      0x40\n        /* \"#utility.yul\":3693:3702   */\n      mload\n        /* \"#utility.yul\":3667:3669   */\n      0x1f\n        /* \"#utility.yul\":3753:3766   */\n      dup4\n      add\n      not(0x1f)\n        /* \"#utility.yul\":3749:3771   */\n      swap1\n      dup2\n      and\n        /* \"#utility.yul\":3773:3775   */\n      0x3f\n        /* \"#utility.yul\":3745:3776   */\n      add\n        /* \"#utility.yul\":3741:3781   */\n      and\n        /* \"#utility.yul\":3729:3782   */\n      dup2\n      add\n      swap1\n        /* \"#utility.yul\":3797:3815   */\n      dup3\n      dup3\n      gt\n        /* \"#utility.yul\":3817:3839   */\n      dup2\n      dup4\n      lt\n        /* \"#utility.yul\":3794:3840   */\n      or\n        /* \"#utility.yul\":3791:3863   */\n      iszero\n      tag_588\n      jumpi\n        /* \"#utility.yul\":3843:3861   */\n      tag_588\n      tag_276\n      jump\t// in\n    tag_588:\n        /* \"#utility.yul\":3883:3893   */\n      dup2\n        /* \"#utility.yul\":3879:3881   */\n      0x40\n        /* \"#utility.yul\":3872:3894   */\n      mstore\n        /* \"#utility.yul\":3918:3920   */\n      dup4\n        /* \"#utility.yul\":3910:3916   */\n      dup2\n        /* \"#utility.yul\":3903:3921   */\n      mstore\n        /* \"#utility.yul\":3964:3967   */\n      dup7\n        /* \"#utility.yul\":3957:3961   */\n      0x20\n        /* \"#utility.yul\":3952:3954   */\n      dup6\n        /* \"#utility.yul\":3944:3950   */\n      dup9\n        /* \"#utility.yul\":3940:3955   */\n      add\n        /* \"#utility.yul\":3936:3962   */\n      add\n        /* \"#utility.yul\":3933:3968   */\n      gt\n        /* \"#utility.yul\":3930:3985   */\n      iszero\n      tag_589\n      jumpi\n        /* \"#utility.yul\":3981:3982   */\n      0x00\n        /* \"#utility.yul\":3978:3979   */\n      dup1\n        /* \"#utility.yul\":3971:3983   */\n      revert\n        /* \"#utility.yul\":3930:3985   */\n    tag_589:\n        /* \"#utility.yul\":4045:4047   */\n      dup4\n        /* \"#utility.yul\":4038:4042   */\n      0x20\n        /* \"#utility.yul\":4030:4036   */\n      dup8\n        /* \"#utility.yul\":4026:4043   */\n      add\n        /* \"#utility.yul\":4019:4023   */\n      0x20\n        /* \"#utility.yul\":4011:4017   */\n      dup4\n        /* \"#utility.yul\":4007:4024   */\n      add\n        /* \"#utility.yul\":3994:4048   */\n      calldatacopy\n        /* \"#utility.yul\":4092:4093   */\n      0x00\n        /* \"#utility.yul\":4085:4089   */\n      0x20\n        /* \"#utility.yul\":4080:4082   */\n      dup6\n        /* \"#utility.yul\":4072:4078   */\n      dup4\n        /* \"#utility.yul\":4068:4083   */\n      add\n        /* \"#utility.yul\":4064:4090   */\n      add\n        /* \"#utility.yul\":4057:4094   */\n      mstore\n        /* \"#utility.yul\":4112:4118   */\n      dup1\n        /* \"#utility.yul\":4103:4118   */\n      swap5\n      pop\n      pop\n      pop\n      pop\n      pop\n        /* \"#utility.yul\":3405:4124   */\n      swap3\n      swap2\n      pop\n      pop\n      jump\t// out\n        /* \"#utility.yul\":4129:4525   */\n    tag_68:\n        /* \"#utility.yul\":4207:4213   */\n      0x00\n        /* \"#utility.yul\":4215:4221   */\n      dup1\n        /* \"#utility.yul\":4268:4270   */\n      0x40\n        /* \"#utility.yul\":4256:4265   */\n      dup4\n        /* \"#utility.yul\":4247:4254   */\n      dup6\n        /* \"#utility.yul\":4243:4266   */\n      sub\n        /* \"#utility.yul\":4239:4271   */\n      slt\n        /* \"#utility.yul\":4236:4288   */\n      iszero\n      tag_591\n      jumpi\n        /* \"#utility.yul\":4284:4285   */\n      0x00\n        /* \"#utility.yul\":4281:4282   */\n      dup1\n        /* \"#utility.yul\":4274:4286   */\n      revert\n        /* \"#utility.yul\":4236:4288   */\n    tag_591:\n        /* \"#utility.yul\":4324:4333   */\n      dup3\n        /* \"#utility.yul\":4311:4334   */\n      calldataload\n      sub(shl(0x40, 0x01), 0x01)\n        /* \"#utility.yul\":4349:4355   */\n      dup2\n        /* \"#utility.yul\":4346:4376   */\n      gt\n        /* \"#utility.yul\":4343:4393   */\n      iszero\n      tag_592\n      jumpi\n        /* \"#utility.yul\":4389:4390   */\n      0x00\n        /* \"#utility.yul\":4386:4387   */\n      dup1\n        /* \"#utility.yul\":4379:4391   */\n      revert\n        /* \"#utility.yul\":4343:4393   */\n    tag_592:\n        /* \"#utility.yul\":4412:4462   */\n      tag_593\n        /* \"#utility.yul\":4454:4461   */\n      dup6\n        /* \"#utility.yul\":4445:4451   */\n      dup3\n        /* \"#utility.yul\":4434:4443   */\n      dup7\n        /* \"#utility.yul\":4430:4452   */\n      add\n        /* \"#utility.yul\":4412:4462   */\n      tag_546\n      jump\t// in\n    tag_593:\n        /* \"#utility.yul\":4402:4462   */\n      swap3\n      pop\n      pop\n        /* \"#utility.yul\":4481:4519   */\n      tag_581\n        /* \"#utility.yul\":4515:4517   */\n      0x20\n        /* \"#utility.yul\":4504:4513   */\n      dup5\n        /* \"#utility.yul\":4500:4518   */\n      add\n        /* \"#utility.yul\":4481:4519   */\n      tag_541\n      jump\t// in\n        /* \"#utility.yul\":4530:5354   */\n    tag_82:\n        /* \"#utility.yul\":4761:4763   */\n      0x20\n        /* \"#utility.yul\":4813:4834   */\n      dup1\n      dup3\n      mstore\n        /* \"#utility.yul\":4883:4896   */\n      dup3\n      mload\n        /* \"#utility.yul\":4786:4804   */\n      dup3\n      dup3\n      add\n        /* \"#utility.yul\":4905:4927   */\n      dup2\n      swap1\n      mstore\n        /* \"#utility.yul\":4732:4736   */\n      0x00\n      swap2\n        /* \"#utility.yul\":4761:4763   */\n      swap1\n        /* \"#utility.yul\":4946:4948   */\n      0x40\n      swap1\n        /* \"#utility.yul\":4964:4982   */\n      dup2\n      dup6\n      add\n      swap1\n        /* \"#utility.yul\":5005:5020   */\n      dup7\n      dup5\n      add\n        /* \"#utility.yul\":4732:4736   */\n      dup6\n        /* \"#utility.yul\":5048:5328   */\n    tag_596:\n        /* \"#utility.yul\":5062:5068   */\n      dup3\n        /* \"#utility.yul\":5059:5060   */\n      dup2\n        /* \"#utility.yul\":5056:5069   */\n      lt\n        /* \"#utility.yul\":5048:5328   */\n      iszero\n      tag_598\n      jumpi\n        /* \"#utility.yul\":5121:5134   */\n      dup2\n      mload\n        /* \"#utility.yul\":5159:5168   */\n      dup1\n      mload\n        /* \"#utility.yul\":5147:5169   */\n      dup6\n      mstore\n        /* \"#utility.yul\":5213:5224   */\n      dup7\n      add\n        /* \"#utility.yul\":5207:5225   */\n      mload\n      sub(shl(0xa0, 0x01), 0x01)\n        /* \"#utility.yul\":5203:5247   */\n      and\n        /* \"#utility.yul\":5189:5201   */\n      dup7\n      dup6\n      add\n        /* \"#utility.yul\":5182:5248   */\n      mstore\n        /* \"#utility.yul\":5268:5280   */\n      swap3\n      dup5\n      add\n      swap3\n        /* \"#utility.yul\":5303:5318   */\n      swap1\n      dup6\n      add\n      swap1\n        /* \"#utility.yul\":5244:5245   */\n      0x01\n        /* \"#utility.yul\":5077:5086   */\n      add\n        /* \"#utility.yul\":5048:5328   */\n      jump(tag_596)\n    tag_598:\n      pop\n        /* \"#utility.yul\":5345:5348   */\n      swap2\n      swap8\n        /* \"#utility.yul\":4530:5354   */\n      swap7\n      pop\n      pop\n      pop\n      pop\n      pop\n      pop\n      pop\n      jump\t// out\n        /* \"#utility.yul\":5359:5820   */\n    tag_547:\n        /* \"#utility.yul\":5412:5415   */\n      0x00\n        /* \"#utility.yul\":5450:5455   */\n      dup2\n        /* \"#utility.yul\":5444:5456   */\n      mload\n        /* \"#utility.yul\":5477:5483   */\n      dup1\n        /* \"#utility.yul\":5472:5475   */\n      dup5\n        /* \"#utility.yul\":5465:5484   */\n      mstore\n        /* \"#utility.yul\":5503:5507   */\n      0x20\n        /* \"#utility.yul\":5532:5534   */\n      dup1\n        /* \"#utility.yul\":5527:5530   */\n      dup6\n        /* \"#utility.yul\":5523:5535   */\n      add\n        /* \"#utility.yul\":5516:5535   */\n      swap5\n      pop\n        /* \"#utility.yul\":5569:5571   */\n      dup1\n        /* \"#utility.yul\":5562:5567   */\n      dup5\n        /* \"#utility.yul\":5558:5572   */\n      add\n        /* \"#utility.yul\":5590:5591   */\n      0x00\n        /* \"#utility.yul\":5600:5795   */\n    tag_600:\n        /* \"#utility.yul\":5614:5620   */\n      dup4\n        /* \"#utility.yul\":5611:5612   */\n      dup2\n        /* \"#utility.yul\":5608:5621   */\n      lt\n        /* \"#utility.yul\":5600:5795   */\n      iszero\n      tag_602\n      jumpi\n        /* \"#utility.yul\":5679:5692   */\n      dup2\n      mload\n      sub(shl(0xa0, 0x01), 0x01)\n        /* \"#utility.yul\":5675:5714   */\n      and\n        /* \"#utility.yul\":5663:5715   */\n      dup8\n      mstore\n        /* \"#utility.yul\":5735:5747   */\n      swap6\n      dup3\n      add\n      swap6\n        /* \"#utility.yul\":5770:5785   */\n      swap1\n      dup3\n      add\n      swap1\n        /* \"#utility.yul\":5711:5712   */\n      0x01\n        /* \"#utility.yul\":5629:5638   */\n      add\n        /* \"#utility.yul\":5600:5795   */\n      jump(tag_600)\n    tag_602:\n      pop\n        /* \"#utility.yul\":5811:5814   */\n      swap5\n      swap6\n        /* \"#utility.yul\":5359:5820   */\n      swap5\n      pop\n      pop\n      pop\n      pop\n      pop\n      jump\t// out\n        /* \"#utility.yul\":5825:8194   */\n    tag_86:\n        /* \"#utility.yul\":6002:6004   */\n      0x20\n        /* \"#utility.yul\":5991:6000   */\n      dup2\n        /* \"#utility.yul\":5984:6005   */\n      mstore\n        /* \"#utility.yul\":6014:6067   */\n      tag_604\n        /* \"#utility.yul\":6063:6065   */\n      0x20\n        /* \"#utility.yul\":6052:6061   */\n      dup3\n        /* \"#utility.yul\":6048:6066   */\n      add\n        /* \"#utility.yul\":6039:6045   */\n      dup4\n        /* \"#utility.yul\":6033:6046   */\n      mload\n      sub(shl(0xa0, 0x01), 0x01)\n        /* \"#utility.yul\":1657:1688   */\n      and\n        /* \"#utility.yul\":1645:1689   */\n      swap1\n      mstore\n        /* \"#utility.yul\":1591:1695   */\n      jump\n        /* \"#utility.yul\":6014:6067   */\n    tag_604:\n        /* \"#utility.yul\":5965:5969   */\n      0x00\n        /* \"#utility.yul\":6114:6116   */\n      0x20\n        /* \"#utility.yul\":6106:6112   */\n      dup4\n        /* \"#utility.yul\":6102:6117   */\n      add\n        /* \"#utility.yul\":6096:6118   */\n      mload\n        /* \"#utility.yul\":6137:6143   */\n      0x01a0\n        /* \"#utility.yul\":6179:6181   */\n      dup1\n        /* \"#utility.yul\":6174:6176   */\n      0x40\n        /* \"#utility.yul\":6163:6172   */\n      dup6\n        /* \"#utility.yul\":6159:6177   */\n      add\n        /* \"#utility.yul\":6152:6182   */\n      mstore\n        /* \"#utility.yul\":6205:6257   */\n      tag_605\n        /* \"#utility.yul\":6252:6255   */\n      0x01c0\n        /* \"#utility.yul\":6241:6250   */\n      dup6\n        /* \"#utility.yul\":6237:6256   */\n      add\n        /* \"#utility.yul\":6223:6235   */\n      dup4\n        /* \"#utility.yul\":6205:6257   */\n      tag_544\n      jump\t// in\n    tag_605:\n        /* \"#utility.yul\":6191:6257   */\n      swap2\n      pop\n        /* \"#utility.yul\":6306:6308   */\n      0x40\n        /* \"#utility.yul\":6298:6304   */\n      dup6\n        /* \"#utility.yul\":6294:6309   */\n      add\n        /* \"#utility.yul\":6288:6310   */\n      mload\n        /* \"#utility.yul\":6333:6335   */\n      0x1f\n        /* \"#utility.yul\":6329:6336   */\n      not\n        /* \"#utility.yul\":6400:6402   */\n      dup1\n        /* \"#utility.yul\":6388:6397   */\n      dup7\n        /* \"#utility.yul\":6380:6386   */\n      dup6\n        /* \"#utility.yul\":6376:6398   */\n      sub\n        /* \"#utility.yul\":6372:6403   */\n      add\n        /* \"#utility.yul\":6367:6369   */\n      0x60\n        /* \"#utility.yul\":6356:6365   */\n      dup8\n        /* \"#utility.yul\":6352:6370   */\n      add\n        /* \"#utility.yul\":6345:6404   */\n      mstore\n        /* \"#utility.yul\":6427:6468   */\n      tag_606\n        /* \"#utility.yul\":6461:6467   */\n      dup5\n        /* \"#utility.yul\":6445:6459   */\n      dup4\n        /* \"#utility.yul\":6427:6468   */\n      tag_544\n      jump\t// in\n    tag_606:\n        /* \"#utility.yul\":6413:6468   */\n      swap4\n      pop\n        /* \"#utility.yul\":6517:6519   */\n      0x60\n        /* \"#utility.yul\":6509:6515   */\n      dup8\n        /* \"#utility.yul\":6505:6520   */\n      add\n        /* \"#utility.yul\":6499:6521   */\n      mload\n        /* \"#utility.yul\":6477:6521   */\n      swap2\n      pop\n        /* \"#utility.yul\":6586:6588   */\n      dup1\n        /* \"#utility.yul\":6574:6583   */\n      dup7\n        /* \"#utility.yul\":6566:6572   */\n      dup6\n        /* \"#utility.yul\":6562:6584   */\n      sub\n        /* \"#utility.yul\":6558:6589   */\n      add\n        /* \"#utility.yul\":6552:6555   */\n      0x80\n        /* \"#utility.yul\":6541:6550   */\n      dup8\n        /* \"#utility.yul\":6537:6556   */\n      add\n        /* \"#utility.yul\":6530:6590   */\n      mstore\n        /* \"#utility.yul\":6613:6654   */\n      tag_607\n        /* \"#utility.yul\":6647:6653   */\n      dup5\n        /* \"#utility.yul\":6631:6645   */\n      dup4\n        /* \"#utility.yul\":6613:6654   */\n      tag_544\n      jump\t// in\n    tag_607:\n        /* \"#utility.yul\":6599:6654   */\n      swap4\n      pop\n        /* \"#utility.yul\":6703:6706   */\n      0x80\n        /* \"#utility.yul\":6695:6701   */\n      dup8\n        /* \"#utility.yul\":6691:6707   */\n      add\n        /* \"#utility.yul\":6685:6708   */\n      mload\n        /* \"#utility.yul\":6663:6708   */\n      swap2\n      pop\n        /* \"#utility.yul\":6773:6775   */\n      dup1\n        /* \"#utility.yul\":6761:6770   */\n      dup7\n        /* \"#utility.yul\":6753:6759   */\n      dup6\n        /* \"#utility.yul\":6749:6771   */\n      sub\n        /* \"#utility.yul\":6745:6776   */\n      add\n        /* \"#utility.yul\":6739:6742   */\n      0xa0\n        /* \"#utility.yul\":6728:6737   */\n      dup8\n        /* \"#utility.yul\":6724:6743   */\n      add\n        /* \"#utility.yul\":6717:6777   */\n      mstore\n        /* \"#utility.yul\":6800:6841   */\n      tag_608\n        /* \"#utility.yul\":6834:6840   */\n      dup5\n        /* \"#utility.yul\":6818:6832   */\n      dup4\n        /* \"#utility.yul\":6800:6841   */\n      tag_544\n      jump\t// in\n    tag_608:\n        /* \"#utility.yul\":6786:6841   */\n      swap4\n      pop\n        /* \"#utility.yul\":6890:6893   */\n      0xa0\n        /* \"#utility.yul\":6882:6888   */\n      dup8\n        /* \"#utility.yul\":6878:6894   */\n      add\n        /* \"#utility.yul\":6872:6895   */\n      mload\n        /* \"#utility.yul\":6850:6895   */\n      swap2\n      pop\n        /* \"#utility.yul\":6960:6962   */\n      dup1\n        /* \"#utility.yul\":6948:6957   */\n      dup7\n        /* \"#utility.yul\":6940:6946   */\n      dup6\n        /* \"#utility.yul\":6936:6958   */\n      sub\n        /* \"#utility.yul\":6932:6963   */\n      add\n        /* \"#utility.yul\":6926:6929   */\n      0xc0\n        /* \"#utility.yul\":6915:6924   */\n      dup8\n        /* \"#utility.yul\":6911:6930   */\n      add\n        /* \"#utility.yul\":6904:6964   */\n      mstore\n        /* \"#utility.yul\":6987:7028   */\n      tag_609\n        /* \"#utility.yul\":7021:7027   */\n      dup5\n        /* \"#utility.yul\":7005:7019   */\n      dup4\n        /* \"#utility.yul\":6987:7028   */\n      tag_544\n      jump\t// in\n    tag_609:\n        /* \"#utility.yul\":6973:7028   */\n      swap4\n      pop\n        /* \"#utility.yul\":7077:7080   */\n      0xc0\n        /* \"#utility.yul\":7069:7075   */\n      dup8\n        /* \"#utility.yul\":7065:7081   */\n      add\n        /* \"#utility.yul\":7059:7082   */\n      mload\n        /* \"#utility.yul\":7037:7082   */\n      swap2\n      pop\n        /* \"#utility.yul\":7147:7149   */\n      dup1\n        /* \"#utility.yul\":7135:7144   */\n      dup7\n        /* \"#utility.yul\":7127:7133   */\n      dup6\n        /* \"#utility.yul\":7123:7145   */\n      sub\n        /* \"#utility.yul\":7119:7150   */\n      add\n        /* \"#utility.yul\":7113:7116   */\n      0xe0\n        /* \"#utility.yul\":7102:7111   */\n      dup8\n        /* \"#utility.yul\":7098:7117   */\n      add\n        /* \"#utility.yul\":7091:7151   */\n      mstore\n        /* \"#utility.yul\":7174:7215   */\n      tag_610\n        /* \"#utility.yul\":7208:7214   */\n      dup5\n        /* \"#utility.yul\":7192:7206   */\n      dup4\n        /* \"#utility.yul\":7174:7215   */\n      tag_544\n      jump\t// in\n    tag_610:\n        /* \"#utility.yul\":7160:7215   */\n      swap4\n      pop\n        /* \"#utility.yul\":7264:7267   */\n      0xe0\n        /* \"#utility.yul\":7256:7262   */\n      dup8\n        /* \"#utility.yul\":7252:7268   */\n      add\n        /* \"#utility.yul\":7246:7269   */\n      mload\n        /* \"#utility.yul\":7224:7269   */\n      swap2\n      pop\n        /* \"#utility.yul\":7288:7291   */\n      0x0100\n        /* \"#utility.yul\":7355:7357   */\n      dup2\n        /* \"#utility.yul\":7343:7352   */\n      dup8\n        /* \"#utility.yul\":7335:7341   */\n      dup7\n        /* \"#utility.yul\":7331:7353   */\n      sub\n        /* \"#utility.yul\":7327:7358   */\n      add\n        /* \"#utility.yul\":7322:7324   */\n      dup2\n        /* \"#utility.yul\":7311:7320   */\n      dup9\n        /* \"#utility.yul\":7307:7325   */\n      add\n        /* \"#utility.yul\":7300:7359   */\n      mstore\n        /* \"#utility.yul\":7382:7423   */\n      tag_611\n        /* \"#utility.yul\":7416:7422   */\n      dup6\n        /* \"#utility.yul\":7400:7414   */\n      dup5\n        /* \"#utility.yul\":7382:7423   */\n      tag_544\n      jump\t// in\n    tag_611:\n        /* \"#utility.yul\":7368:7423   */\n      swap5\n      pop\n        /* \"#utility.yul\":7472:7474   */\n      dup1\n        /* \"#utility.yul\":7464:7470   */\n      dup9\n        /* \"#utility.yul\":7460:7475   */\n      add\n        /* \"#utility.yul\":7454:7476   */\n      mload\n        /* \"#utility.yul\":7432:7476   */\n      swap3\n      pop\n      pop\n        /* \"#utility.yul\":7495:7498   */\n      0x0120\n        /* \"#utility.yul\":7562:7564   */\n      dup2\n        /* \"#utility.yul\":7550:7559   */\n      dup8\n        /* \"#utility.yul\":7542:7548   */\n      dup7\n        /* \"#utility.yul\":7538:7560   */\n      sub\n        /* \"#utility.yul\":7534:7565   */\n      add\n        /* \"#utility.yul\":7529:7531   */\n      dup2\n        /* \"#utility.yul\":7518:7527   */\n      dup9\n        /* \"#utility.yul\":7514:7532   */\n      add\n        /* \"#utility.yul\":7507:7566   */\n      mstore\n        /* \"#utility.yul\":7589:7630   */\n      tag_612\n        /* \"#utility.yul\":7623:7629   */\n      dup6\n        /* \"#utility.yul\":7607:7621   */\n      dup5\n        /* \"#utility.yul\":7589:7630   */\n      tag_544\n      jump\t// in\n    tag_612:\n        /* \"#utility.yul\":7655:7670   */\n      swap1\n      dup9\n      add\n        /* \"#utility.yul\":7649:7671   */\n      mload\n        /* \"#utility.yul\":7690:7693   */\n      0x0140\n        /* \"#utility.yul\":7709:7727   */\n      dup9\n      dup2\n      add\n        /* \"#utility.yul\":7702:7732   */\n      swap2\n      swap1\n      swap2\n      mstore\n        /* \"#utility.yul\":7757:7772   */\n      dup9\n      add\n        /* \"#utility.yul\":7751:7773   */\n      mload\n        /* \"#utility.yul\":7792:7795   */\n      0x0160\n        /* \"#utility.yul\":7811:7829   */\n      dup1\n      dup10\n      add\n        /* \"#utility.yul\":7804:7834   */\n      swap2\n      swap1\n      swap2\n      mstore\n        /* \"#utility.yul\":7871:7886   */\n      dup9\n      add\n        /* \"#utility.yul\":7865:7887   */\n      mload\n        /* \"#utility.yul\":7949:7971   */\n      dup8\n      dup3\n      sub\n        /* \"#utility.yul\":7945:7976   */\n      dup4\n      add\n        /* \"#utility.yul\":7906:7909   */\n      0x0180\n        /* \"#utility.yul\":7925:7943   */\n      dup1\n      dup11\n      add\n        /* \"#utility.yul\":7918:7977   */\n      swap2\n      swap1\n      swap2\n      mstore\n        /* \"#utility.yul\":7575:7630   */\n      swap2\n      swap6\n      pop\n        /* \"#utility.yul\":7865:7887   */\n      swap3\n      pop\n        /* \"#utility.yul\":8000:8052   */\n      tag_613\n        /* \"#utility.yul\":7575:7630   */\n      dup6\n        /* \"#utility.yul\":7865:7887   */\n      dup5\n        /* \"#utility.yul\":8000:8052   */\n      tag_547\n      jump\t// in\n    tag_613:\n        /* \"#utility.yul\":7986:8052   */\n      swap5\n      pop\n        /* \"#utility.yul\":8101:8103   */\n      dup1\n        /* \"#utility.yul\":8093:8099   */\n      dup9\n        /* \"#utility.yul\":8089:8104   */\n      add\n        /* \"#utility.yul\":8083:8105   */\n      mload\n        /* \"#utility.yul\":8061:8105   */\n      swap3\n      pop\n      pop\n      pop\n        /* \"#utility.yul\":8114:8165   */\n      tag_614\n        /* \"#utility.yul\":8161:8163   */\n      dup3\n        /* \"#utility.yul\":8150:8159   */\n      dup7\n        /* \"#utility.yul\":8146:8164   */\n      add\n        /* \"#utility.yul\":8130:8144   */\n      dup3\n        /* \"#utility.yul\":453:466   */\n      iszero\n        /* \"#utility.yul\":446:467   */\n      iszero\n        /* \"#utility.yul\":434:468   */\n      swap1\n      mstore\n        /* \"#utility.yul\":383:474   */\n      jump\n        /* \"#utility.yul\":8114:8165   */\n    tag_614:\n      pop\n        /* \"#utility.yul\":8182:8188   */\n      swap1\n      swap5\n        /* \"#utility.yul\":5825:8194   */\n      swap4\n      pop\n      pop\n      pop\n      pop\n      jump\t// out\n        /* \"#utility.yul\":8199:9807   */\n    tag_94:\n        /* \"#utility.yul\":8726:8730   */\n      0x00\n        /* \"#utility.yul\":8755:8758   */\n      0x0160\n        /* \"#utility.yul\":8785:8787   */\n      dup1\n        /* \"#utility.yul\":8774:8783   */\n      dup4\n        /* \"#utility.yul\":8767:8788   */\n      mstore\n        /* \"#utility.yul\":8811:8856   */\n      tag_616\n        /* \"#utility.yul\":8852:8854   */\n      dup2\n        /* \"#utility.yul\":8841:8850   */\n      dup5\n        /* \"#utility.yul\":8837:8855   */\n      add\n        /* \"#utility.yul\":8829:8835   */\n      dup16\n        /* \"#utility.yul\":8811:8856   */\n      tag_544\n      jump\t// in\n    tag_616:\n        /* \"#utility.yul\":8797:8856   */\n      swap1\n      pop\n        /* \"#utility.yul\":8904:8913   */\n      dup3\n        /* \"#utility.yul\":8896:8902   */\n      dup2\n        /* \"#utility.yul\":8892:8914   */\n      sub\n        /* \"#utility.yul\":8887:8889   */\n      0x20\n        /* \"#utility.yul\":8876:8885   */\n      dup5\n        /* \"#utility.yul\":8872:8890   */\n      add\n        /* \"#utility.yul\":8865:8915   */\n      mstore\n        /* \"#utility.yul\":8938:8971   */\n      tag_617\n        /* \"#utility.yul\":8964:8970   */\n      dup2\n        /* \"#utility.yul\":8956:8962   */\n      dup15\n        /* \"#utility.yul\":8938:8971   */\n      tag_544\n      jump\t// in\n    tag_617:\n        /* \"#utility.yul\":8924:8971   */\n      swap1\n      pop\n        /* \"#utility.yul\":9019:9028   */\n      dup3\n        /* \"#utility.yul\":9011:9017   */\n      dup2\n        /* \"#utility.yul\":9007:9029   */\n      sub\n        /* \"#utility.yul\":9002:9004   */\n      0x40\n        /* \"#utility.yul\":8991:9000   */\n      dup5\n        /* \"#utility.yul\":8987:9005   */\n      add\n        /* \"#utility.yul\":8980:9030   */\n      mstore\n        /* \"#utility.yul\":9053:9086   */\n      tag_618\n        /* \"#utility.yul\":9079:9085   */\n      dup2\n        /* \"#utility.yul\":9071:9077   */\n      dup14\n        /* \"#utility.yul\":9053:9086   */\n      tag_544\n      jump\t// in\n    tag_618:\n        /* \"#utility.yul\":9039:9086   */\n      swap1\n      pop\n        /* \"#utility.yul\":9134:9143   */\n      dup3\n        /* \"#utility.yul\":9126:9132   */\n      dup2\n        /* \"#utility.yul\":9122:9144   */\n      sub\n        /* \"#utility.yul\":9117:9119   */\n      0x60\n        /* \"#utility.yul\":9106:9115   */\n      dup5\n        /* \"#utility.yul\":9102:9120   */\n      add\n        /* \"#utility.yul\":9095:9145   */\n      mstore\n        /* \"#utility.yul\":9168:9201   */\n      tag_619\n        /* \"#utility.yul\":9194:9200   */\n      dup2\n        /* \"#utility.yul\":9186:9192   */\n      dup13\n        /* \"#utility.yul\":9168:9201   */\n      tag_544\n      jump\t// in\n    tag_619:\n        /* \"#utility.yul\":9154:9201   */\n      swap1\n      pop\n        /* \"#utility.yul\":9250:9259   */\n      dup3\n        /* \"#utility.yul\":9242:9248   */\n      dup2\n        /* \"#utility.yul\":9238:9260   */\n      sub\n        /* \"#utility.yul\":9232:9235   */\n      0x80\n        /* \"#utility.yul\":9221:9230   */\n      dup5\n        /* \"#utility.yul\":9217:9236   */\n      add\n        /* \"#utility.yul\":9210:9261   */\n      mstore\n        /* \"#utility.yul\":9284:9317   */\n      tag_620\n        /* \"#utility.yul\":9310:9316   */\n      dup2\n        /* \"#utility.yul\":9302:9308   */\n      dup12\n        /* \"#utility.yul\":9284:9317   */\n      tag_544\n      jump\t// in\n    tag_620:\n        /* \"#utility.yul\":9270:9317   */\n      swap1\n      pop\n        /* \"#utility.yul\":9366:9375   */\n      dup3\n        /* \"#utility.yul\":9358:9364   */\n      dup2\n        /* \"#utility.yul\":9354:9376   */\n      sub\n        /* \"#utility.yul\":9348:9351   */\n      0xa0\n        /* \"#utility.yul\":9337:9346   */\n      dup5\n        /* \"#utility.yul\":9333:9352   */\n      add\n        /* \"#utility.yul\":9326:9377   */\n      mstore\n        /* \"#utility.yul\":9400:9433   */\n      tag_621\n        /* \"#utility.yul\":9426:9432   */\n      dup2\n        /* \"#utility.yul\":9418:9424   */\n      dup11\n        /* \"#utility.yul\":9400:9433   */\n      tag_544\n      jump\t// in\n    tag_621:\n        /* \"#utility.yul\":9386:9433   */\n      swap1\n      pop\n        /* \"#utility.yul\":9482:9491   */\n      dup3\n        /* \"#utility.yul\":9474:9480   */\n      dup2\n        /* \"#utility.yul\":9470:9492   */\n      sub\n        /* \"#utility.yul\":9464:9467   */\n      0xc0\n        /* \"#utility.yul\":9453:9462   */\n      dup5\n        /* \"#utility.yul\":9449:9468   */\n      add\n        /* \"#utility.yul\":9442:9493   */\n      mstore\n        /* \"#utility.yul\":9516:9549   */\n      tag_622\n        /* \"#utility.yul\":9542:9548   */\n      dup2\n        /* \"#utility.yul\":9534:9540   */\n      dup10\n        /* \"#utility.yul\":9516:9549   */\n      tag_544\n      jump\t// in\n    tag_622:\n        /* \"#utility.yul\":9502:9549   */\n      swap1\n      pop\n        /* \"#utility.yul\":9598:9607   */\n      dup3\n        /* \"#utility.yul\":9590:9596   */\n      dup2\n        /* \"#utility.yul\":9586:9608   */\n      sub\n        /* \"#utility.yul\":9580:9583   */\n      0xe0\n        /* \"#utility.yul\":9569:9578   */\n      dup5\n        /* \"#utility.yul\":9565:9584   */\n      add\n        /* \"#utility.yul\":9558:9609   */\n      mstore\n        /* \"#utility.yul\":9626:9659   */\n      tag_623\n        /* \"#utility.yul\":9652:9658   */\n      dup2\n        /* \"#utility.yul\":9644:9650   */\n      dup9\n        /* \"#utility.yul\":9626:9659   */\n      tag_544\n      jump\t// in\n    tag_623:\n        /* \"#utility.yul\":9618:9659   */\n      swap2\n      pop\n      pop\n        /* \"#utility.yul\":9668:9712   */\n      tag_624\n        /* \"#utility.yul\":9707:9710   */\n      0x0100\n        /* \"#utility.yul\":9696:9705   */\n      dup4\n        /* \"#utility.yul\":9692:9711   */\n      add\n        /* \"#utility.yul\":9684:9690   */\n      dup7\n        /* \"#utility.yul\":453:466   */\n      iszero\n        /* \"#utility.yul\":446:467   */\n      iszero\n        /* \"#utility.yul\":434:468   */\n      swap1\n      mstore\n        /* \"#utility.yul\":383:474   */\n      jump\n        /* \"#utility.yul\":9668:9712   */\n    tag_624:\n        /* \"#utility.yul\":9743:9746   */\n      0x0120\n        /* \"#utility.yul\":9728:9747   */\n      dup3\n      add\n        /* \"#utility.yul\":9721:9756   */\n      swap4\n      swap1\n      swap4\n      mstore\n        /* \"#utility.yul\":9787:9790   */\n      0x0140\n        /* \"#utility.yul\":9772:9791   */\n      add\n        /* \"#utility.yul\":9765:9801   */\n      mstore\n        /* \"#utility.yul\":8199:9807   */\n      swap10\n      swap9\n      pop\n      pop\n      pop\n      pop\n      pop\n      pop\n      pop\n      pop\n      pop\n      jump\t// out\n        /* \"#utility.yul\":9812:11876   */\n    tag_97:\n        /* \"#utility.yul\":10047:10053   */\n      0x00\n        /* \"#utility.yul\":10055:10061   */\n      dup1\n        /* \"#utility.yul\":10063:10069   */\n      0x00\n        /* \"#utility.yul\":10071:10077   */\n      dup1\n        /* \"#utility.yul\":10079:10085   */\n      0x00\n        /* \"#utility.yul\":10087:10093   */\n      dup1\n        /* \"#utility.yul\":10095:10101   */\n      0x00\n        /* \"#utility.yul\":10103:10109   */\n      dup1\n        /* \"#utility.yul\":10111:10117   */\n      0x00\n        /* \"#utility.yul\":10119:10125   */\n      dup1\n        /* \"#utility.yul\":10127:10134   */\n      0x00\n        /* \"#utility.yul\":10136:10143   */\n      dup1\n        /* \"#utility.yul\":10190:10193   */\n      0x0180\n        /* \"#utility.yul\":10178:10187   */\n      dup14\n        /* \"#utility.yul\":10169:10176   */\n      dup16\n        /* \"#utility.yul\":10165:10188   */\n      sub\n        /* \"#utility.yul\":10161:10194   */\n      slt\n        /* \"#utility.yul\":10158:10211   */\n      iszero\n      tag_626\n      jumpi\n        /* \"#utility.yul\":10207:10208   */\n      0x00\n        /* \"#utility.yul\":10204:10205   */\n      dup1\n        /* \"#utility.yul\":10197:10209   */\n      revert\n        /* \"#utility.yul\":10158:10211   */\n    tag_626:\n        /* \"#utility.yul\":10230:10259   */\n      tag_627\n        /* \"#utility.yul\":10249:10258   */\n      dup14\n        /* \"#utility.yul\":10230:10259   */\n      tag_541\n      jump\t// in\n    tag_627:\n        /* \"#utility.yul\":10220:10259   */\n      swap12\n      pop\n      sub(shl(0x40, 0x01), 0x01)\n        /* \"#utility.yul\":10302:10304   */\n      0x20\n        /* \"#utility.yul\":10291:10300   */\n      dup15\n        /* \"#utility.yul\":10287:10305   */\n      add\n        /* \"#utility.yul\":10274:10306   */\n      calldataload\n        /* \"#utility.yul\":10271:10327   */\n      gt\n        /* \"#utility.yul\":10268:10344   */\n      iszero\n      tag_628\n      jumpi\n        /* \"#utility.yul\":10340:10341   */\n      0x00\n        /* \"#utility.yul\":10337:10338   */\n      dup1\n        /* \"#utility.yul\":10330:10342   */\n      revert\n        /* \"#utility.yul\":10268:10344   */\n    tag_628:\n        /* \"#utility.yul\":10363:10439   */\n      tag_629\n        /* \"#utility.yul\":10431:10438   */\n      dup15\n        /* \"#utility.yul\":10424:10426   */\n      0x20\n        /* \"#utility.yul\":10413:10422   */\n      dup16\n        /* \"#utility.yul\":10409:10427   */\n      add\n        /* \"#utility.yul\":10396:10428   */\n      calldataload\n        /* \"#utility.yul\":10385:10394   */\n      dup16\n        /* \"#utility.yul\":10381:10429   */\n      add\n        /* \"#utility.yul\":10363:10439   */\n      tag_546\n      jump\t// in\n    tag_629:\n        /* \"#utility.yul\":10353:10439   */\n      swap11\n      pop\n      sub(shl(0x40, 0x01), 0x01)\n        /* \"#utility.yul\":10482:10484   */\n      0x40\n        /* \"#utility.yul\":10471:10480   */\n      dup15\n        /* \"#utility.yul\":10467:10485   */\n      add\n        /* \"#utility.yul\":10454:10486   */\n      calldataload\n        /* \"#utility.yul\":10451:10507   */\n      gt\n        /* \"#utility.yul\":10448:10524   */\n      iszero\n      tag_630\n      jumpi\n        /* \"#utility.yul\":10520:10521   */\n      0x00\n        /* \"#utility.yul\":10517:10518   */\n      dup1\n        /* \"#utility.yul\":10510:10522   */\n      revert\n        /* \"#utility.yul\":10448:10524   */\n    tag_630:\n        /* \"#utility.yul\":10543:10619   */\n      tag_631\n        /* \"#utility.yul\":10611:10618   */\n      dup15\n        /* \"#utility.yul\":10604:10606   */\n      0x40\n        /* \"#utility.yul\":10593:10602   */\n      dup16\n        /* \"#utility.yul\":10589:10607   */\n      add\n        /* \"#utility.yul\":10576:10608   */\n      calldataload\n        /* \"#utility.yul\":10565:10574   */\n      dup16\n        /* \"#utility.yul\":10561:10609   */\n      add\n        /* \"#utility.yul\":10543:10619   */\n      tag_546\n      jump\t// in\n    tag_631:\n        /* \"#utility.yul\":10533:10619   */\n      swap10\n      pop\n      sub(shl(0x40, 0x01), 0x01)\n        /* \"#utility.yul\":10662:10664   */\n      0x60\n        /* \"#utility.yul\":10651:10660   */\n      dup15\n        /* \"#utility.yul\":10647:10665   */\n      add\n        /* \"#utility.yul\":10634:10666   */\n      calldataload\n        /* \"#utility.yul\":10631:10687   */\n      gt\n        /* \"#utility.yul\":10628:10704   */\n      iszero\n      tag_632\n      jumpi\n        /* \"#utility.yul\":10700:10701   */\n      0x00\n        /* \"#utility.yul\":10697:10698   */\n      dup1\n        /* \"#utility.yul\":10690:10702   */\n      revert\n        /* \"#utility.yul\":10628:10704   */\n    tag_632:\n        /* \"#utility.yul\":10723:10799   */\n      tag_633\n        /* \"#utility.yul\":10791:10798   */\n      dup15\n        /* \"#utility.yul\":10784:10786   */\n      0x60\n        /* \"#utility.yul\":10773:10782   */\n      dup16\n        /* \"#utility.yul\":10769:10787   */\n      add\n        /* \"#utility.yul\":10756:10788   */\n      calldataload\n        /* \"#utility.yul\":10745:10754   */\n      dup16\n        /* \"#utility.yul\":10741:10789   */\n      add\n        /* \"#utility.yul\":10723:10799   */\n      tag_546\n      jump\t// in\n    tag_633:\n        /* \"#utility.yul\":10713:10799   */\n      swap9\n      pop\n      sub(shl(0x40, 0x01), 0x01)\n        /* \"#utility.yul\":10842:10845   */\n      0x80\n        /* \"#utility.yul\":10831:10840   */\n      dup15\n        /* \"#utility.yul\":10827:10846   */\n      add\n        /* \"#utility.yul\":10814:10847   */\n      calldataload\n        /* \"#utility.yul\":10811:10868   */\n      gt\n        /* \"#utility.yul\":10808:10885   */\n      iszero\n      tag_634\n      jumpi\n        /* \"#utility.yul\":10881:10882   */\n      0x00\n        /* \"#utility.yul\":10878:10879   */\n      dup1\n        /* \"#utility.yul\":10871:10883   */\n      revert\n        /* \"#utility.yul\":10808:10885   */\n    tag_634:\n        /* \"#utility.yul\":10904:10981   */\n      tag_635\n        /* \"#utility.yul\":10973:10980   */\n      dup15\n        /* \"#utility.yul\":10965:10968   */\n      0x80\n        /* \"#utility.yul\":10954:10963   */\n      dup16\n        /* \"#utility.yul\":10950:10969   */\n      add\n        /* \"#utility.yul\":10937:10970   */\n      calldataload\n        /* \"#utility.yul\":10926:10935   */\n      dup16\n        /* \"#utility.yul\":10922:10971   */\n      add\n        /* \"#utility.yul\":10904:10981   */\n      tag_546\n      jump\t// in\n    tag_635:\n        /* \"#utility.yul\":10894:10981   */\n      swap8\n      pop\n      sub(shl(0x40, 0x01), 0x01)\n        /* \"#utility.yul\":11024:11027   */\n      0xa0\n        /* \"#utility.yul\":11013:11022   */\n      dup15\n        /* \"#utility.yul\":11009:11028   */\n      add\n        /* \"#utility.yul\":10996:11029   */\n      calldataload\n        /* \"#utility.yul\":10993:11050   */\n      gt\n        /* \"#utility.yul\":10990:11067   */\n      iszero\n      tag_636\n      jumpi\n        /* \"#utility.yul\":11063:11064   */\n      0x00\n        /* \"#utility.yul\":11060:11061   */\n      dup1\n        /* \"#utility.yul\":11053:11065   */\n      revert\n        /* \"#utility.yul\":10990:11067   */\n    tag_636:\n        /* \"#utility.yul\":11086:11163   */\n      tag_637\n        /* \"#utility.yul\":11155:11162   */\n      dup15\n        /* \"#utility.yul\":11147:11150   */\n      0xa0\n        /* \"#utility.yul\":11136:11145   */\n      dup16\n        /* \"#utility.yul\":11132:11151   */\n      add\n        /* \"#utility.yul\":11119:11152   */\n      calldataload\n        /* \"#utility.yul\":11108:11117   */\n      dup16\n        /* \"#utility.yul\":11104:11153   */\n      add\n        /* \"#utility.yul\":11086:11163   */\n      tag_546\n      jump\t// in\n    tag_637:\n        /* \"#utility.yul\":11076:11163   */\n      swap7\n      pop\n      sub(shl(0x40, 0x01), 0x01)\n        /* \"#utility.yul\":11206:11209   */\n      0xc0\n        /* \"#utility.yul\":11195:11204   */\n      dup15\n        /* \"#utility.yul\":11191:11210   */\n      add\n        /* \"#utility.yul\":11178:11211   */\n      calldataload\n        /* \"#utility.yul\":11175:11232   */\n      gt\n        /* \"#utility.yul\":11172:11249   */\n      iszero\n      tag_638\n      jumpi\n        /* \"#utility.yul\":11245:11246   */\n      0x00\n        /* \"#utility.yul\":11242:11243   */\n      dup1\n        /* \"#utility.yul\":11235:11247   */\n      revert\n        /* \"#utility.yul\":11172:11249   */\n    tag_638:\n        /* \"#utility.yul\":11268:11345   */\n      tag_639\n        /* \"#utility.yul\":11337:11344   */\n      dup15\n        /* \"#utility.yul\":11329:11332   */\n      0xc0\n        /* \"#utility.yul\":11318:11327   */\n      dup16\n        /* \"#utility.yul\":11314:11333   */\n      add\n        /* \"#utility.yul\":11301:11334   */\n      calldataload\n        /* \"#utility.yul\":11290:11299   */\n      dup16\n        /* \"#utility.yul\":11286:11335   */\n      add\n        /* \"#utility.yul\":11268:11345   */\n      tag_546\n      jump\t// in\n    tag_639:\n        /* \"#utility.yul\":11258:11345   */\n      swap6\n      pop\n      sub(shl(0x40, 0x01), 0x01)\n        /* \"#utility.yul\":11388:11391   */\n      0xe0\n        /* \"#utility.yul\":11377:11386   */\n      dup15\n        /* \"#utility.yul\":11373:11392   */\n      add\n        /* \"#utility.yul\":11360:11393   */\n      calldataload\n        /* \"#utility.yul\":11357:11414   */\n      gt\n        /* \"#utility.yul\":11354:11431   */\n      iszero\n      tag_640\n      jumpi\n        /* \"#utility.yul\":11427:11428   */\n      0x00\n        /* \"#utility.yul\":11424:11425   */\n      dup1\n        /* \"#utility.yul\":11417:11429   */\n      revert\n        /* \"#utility.yul\":11354:11431   */\n    tag_640:\n        /* \"#utility.yul\":11450:11527   */\n      tag_641\n        /* \"#utility.yul\":11519:11526   */\n      dup15\n        /* \"#utility.yul\":11511:11514   */\n      0xe0\n        /* \"#utility.yul\":11500:11509   */\n      dup16\n        /* \"#utility.yul\":11496:11515   */\n      add\n        /* \"#utility.yul\":11483:11516   */\n      calldataload\n        /* \"#utility.yul\":11472:11481   */\n      dup16\n        /* \"#utility.yul\":11468:11517   */\n      add\n        /* \"#utility.yul\":11450:11527   */\n      tag_546\n      jump\t// in\n    tag_641:\n        /* \"#utility.yul\":11440:11527   */\n      swap5\n      pop\n      sub(shl(0x40, 0x01), 0x01)\n        /* \"#utility.yul\":11570:11573   */\n      0x0100\n        /* \"#utility.yul\":11559:11568   */\n      dup15\n        /* \"#utility.yul\":11555:11574   */\n      add\n        /* \"#utility.yul\":11542:11575   */\n      calldataload\n        /* \"#utility.yul\":11539:11596   */\n      gt\n        /* \"#utility.yul\":11536:11613   */\n      iszero\n      tag_642\n      jumpi\n        /* \"#utility.yul\":11609:11610   */\n      0x00\n        /* \"#utility.yul\":11606:11607   */\n      dup1\n        /* \"#utility.yul\":11599:11611   */\n      revert\n        /* \"#utility.yul\":11536:11613   */\n    tag_642:\n        /* \"#utility.yul\":11632:11709   */\n      tag_643\n        /* \"#utility.yul\":11701:11708   */\n      dup15\n        /* \"#utility.yul\":11693:11696   */\n      0x0100\n        /* \"#utility.yul\":11682:11691   */\n      dup16\n        /* \"#utility.yul\":11678:11697   */\n      add\n        /* \"#utility.yul\":11665:11698   */\n      calldataload\n        /* \"#utility.yul\":11654:11663   */\n      dup16\n        /* \"#utility.yul\":11650:11699   */\n      add\n        /* \"#utility.yul\":11632:11709   */\n      tag_546\n      jump\t// in\n    tag_643:\n        /* \"#utility.yul\":11622:11709   */\n      swap4\n      pop\n        /* \"#utility.yul\":11728:11764   */\n      tag_644\n        /* \"#utility.yul\":11759:11762   */\n      0x0120\n        /* \"#utility.yul\":11748:11757   */\n      dup15\n        /* \"#utility.yul\":11744:11763   */\n      add\n        /* \"#utility.yul\":11728:11764   */\n      tag_543\n      jump\t// in\n    tag_644:\n        /* \"#utility.yul\":11718:11764   */\n      swap3\n      pop\n        /* \"#utility.yul\":11812:11815   */\n      0x0140\n        /* \"#utility.yul\":11801:11810   */\n      dup14\n        /* \"#utility.yul\":11797:11816   */\n      add\n        /* \"#utility.yul\":11784:11817   */\n      calldataload\n        /* \"#utility.yul\":11773:11817   */\n      swap2\n      pop\n        /* \"#utility.yul\":11865:11868   */\n      0x0160\n        /* \"#utility.yul\":11854:11863   */\n      dup14\n        /* \"#utility.yul\":11850:11869   */\n      add\n        /* \"#utility.yul\":11837:11870   */\n      calldataload\n        /* \"#utility.yul\":11826:11870   */\n      swap1\n      pop\n        /* \"#utility.yul\":9812:11876   */\n      swap3\n      swap6\n      swap9\n      swap12\n      pop\n      swap3\n      swap6\n      swap9\n      swap12\n      pop\n      swap3\n      swap6\n      swap9\n      swap12\n      jump\t// out\n        /* \"#utility.yul\":12498:12895   */\n    tag_122:\n        /* \"#utility.yul\":12700:12702   */\n      0x20\n        /* \"#utility.yul\":12682:12703   */\n      dup1\n      dup3\n      mstore\n        /* \"#utility.yul\":12739:12741   */\n      0x21\n        /* \"#utility.yul\":12719:12737   */\n      swap1\n      dup3\n      add\n        /* \"#utility.yul\":12712:12742   */\n      mstore\n        /* \"#utility.yul\":12778:12812   */\n      0x596f7520646f6e7420686176652061636365737320746f207468697320757365\n        /* \"#utility.yul\":12773:12775   */\n      0x40\n        /* \"#utility.yul\":12758:12776   */\n      dup3\n      add\n        /* \"#utility.yul\":12751:12813   */\n      mstore\n      shl(0xf9, 0x39)\n        /* \"#utility.yul\":12844:12846   */\n      0x60\n        /* \"#utility.yul\":12829:12847   */\n      dup3\n      add\n        /* \"#utility.yul\":12822:12853   */\n      mstore\n        /* \"#utility.yul\":12885:12888   */\n      0x80\n        /* \"#utility.yul\":12870:12889   */\n      add\n      swap1\n        /* \"#utility.yul\":12498:12895   */\n      jump\t// out\n        /* \"#utility.yul\":12900:13237   */\n    tag_128:\n        /* \"#utility.yul\":13102:13104   */\n      0x20\n        /* \"#utility.yul\":13084:13105   */\n      dup1\n      dup3\n      mstore\n        /* \"#utility.yul\":13141:13143   */\n      0x0d\n        /* \"#utility.yul\":13121:13139   */\n      swap1\n      dup3\n      add\n        /* \"#utility.yul\":13114:13144   */\n      mstore\n      shl(0x9a, 0x13dc99c81b9bdd08195e1a5cdd)\n        /* \"#utility.yul\":13175:13177   */\n      0x40\n        /* \"#utility.yul\":13160:13178   */\n      dup3\n      add\n        /* \"#utility.yul\":13153:13196   */\n      mstore\n        /* \"#utility.yul\":13228:13230   */\n      0x60\n        /* \"#utility.yul\":13213:13231   */\n      add\n      swap1\n        /* \"#utility.yul\":12900:13237   */\n      jump\t// out\n        /* \"#utility.yul\":13996:14123   */\n    tag_143:\n        /* \"#utility.yul\":14057:14067   */\n      0x4e487b71\n        /* \"#utility.yul\":14052:14055   */\n      0xe0\n        /* \"#utility.yul\":14048:14068   */\n      shl\n        /* \"#utility.yul\":14045:14046   */\n      0x00\n        /* \"#utility.yul\":14038:14069   */\n      mstore\n        /* \"#utility.yul\":14088:14092   */\n      0x32\n        /* \"#utility.yul\":14085:14086   */\n      0x04\n        /* \"#utility.yul\":14078:14093   */\n      mstore\n        /* \"#utility.yul\":14112:14116   */\n      0x24\n        /* \"#utility.yul\":14109:14110   */\n      0x00\n        /* \"#utility.yul\":14102:14117   */\n      revert\n        /* \"#utility.yul\":14818:15198   */\n    tag_168:\n        /* \"#utility.yul\":14897:14898   */\n      0x01\n        /* \"#utility.yul\":14893:14905   */\n      dup2\n      dup2\n      shr\n      swap1\n        /* \"#utility.yul\":14940:14952   */\n      dup3\n      and\n      dup1\n        /* \"#utility.yul\":14961:15022   */\n      tag_655\n      jumpi\n        /* \"#utility.yul\":15015:15019   */\n      0x7f\n        /* \"#utility.yul\":15007:15013   */\n      dup3\n        /* \"#utility.yul\":15003:15020   */\n      and\n        /* \"#utility.yul\":14993:15020   */\n      swap2\n      pop\n        /* \"#utility.yul\":14961:15022   */\n    tag_655:\n        /* \"#utility.yul\":15068:15070   */\n      0x20\n        /* \"#utility.yul\":15060:15066   */\n      dup3\n        /* \"#utility.yul\":15057:15071   */\n      lt\n        /* \"#utility.yul\":15037:15055   */\n      dup2\n        /* \"#utility.yul\":15034:15072   */\n      sub\n        /* \"#utility.yul\":15031:15192   */\n      tag_656\n      jumpi\n        /* \"#utility.yul\":15114:15124   */\n      0x4e487b71\n        /* \"#utility.yul\":15109:15112   */\n      0xe0\n        /* \"#utility.yul\":15105:15125   */\n      shl\n        /* \"#utility.yul\":15102:15103   */\n      0x00\n        /* \"#utility.yul\":15095:15126   */\n      mstore\n        /* \"#utility.yul\":15149:15153   */\n      0x22\n        /* \"#utility.yul\":15146:15147   */\n      0x04\n        /* \"#utility.yul\":15139:15154   */\n      mstore\n        /* \"#utility.yul\":15177:15181   */\n      0x24\n        /* \"#utility.yul\":15174:15175   */\n      0x00\n        /* \"#utility.yul\":15167:15182   */\n      revert\n        /* \"#utility.yul\":15031:15192   */\n    tag_656:\n      pop\n        /* \"#utility.yul\":14818:15198   */\n      swap2\n      swap1\n      pop\n      jump\t// out\n        /* \"#utility.yul\":16717:17051   */\n    tag_219:\n        /* \"#utility.yul\":16919:16921   */\n      0x20\n        /* \"#utility.yul\":16901:16922   */\n      dup1\n      dup3\n      mstore\n        /* \"#utility.yul\":16958:16960   */\n      0x0a\n        /* \"#utility.yul\":16938:16956   */\n      swap1\n      dup3\n      add\n        /* \"#utility.yul\":16931:16961   */\n      mstore\n      shl(0xb0, 0x41646d696e206f6e6c79)\n        /* \"#utility.yul\":16992:16994   */\n      0x40\n        /* \"#utility.yul\":16977:16995   */\n      dup3\n      add\n        /* \"#utility.yul\":16970:17010   */\n      mstore\n        /* \"#utility.yul\":17042:17044   */\n      0x60\n        /* \"#utility.yul\":17027:17045   */\n      add\n      swap1\n        /* \"#utility.yul\":16717:17051   */\n      jump\t// out\n        /* \"#utility.yul\":17873:18418   */\n    tag_549:\n        /* \"#utility.yul\":17975:17977   */\n      0x1f\n        /* \"#utility.yul\":17970:17973   */\n      dup3\n        /* \"#utility.yul\":17967:17978   */\n      gt\n        /* \"#utility.yul\":17964:18412   */\n      iszero\n      tag_666\n      jumpi\n        /* \"#utility.yul\":18011:18012   */\n      0x00\n        /* \"#utility.yul\":18036:18041   */\n      dup2\n        /* \"#utility.yul\":18032:18034   */\n      dup2\n        /* \"#utility.yul\":18025:18042   */\n      mstore\n        /* \"#utility.yul\":18081:18085   */\n      0x20\n        /* \"#utility.yul\":18077:18079   */\n      dup2\n        /* \"#utility.yul\":18067:18086   */\n      keccak256\n        /* \"#utility.yul\":18151:18153   */\n      0x1f\n        /* \"#utility.yul\":18139:18149   */\n      dup6\n        /* \"#utility.yul\":18135:18154   */\n      add\n        /* \"#utility.yul\":18132:18133   */\n      0x05\n        /* \"#utility.yul\":18128:18155   */\n      shr\n        /* \"#utility.yul\":18122:18126   */\n      dup2\n        /* \"#utility.yul\":18118:18156   */\n      add\n        /* \"#utility.yul\":18187:18191   */\n      0x20\n        /* \"#utility.yul\":18175:18185   */\n      dup7\n        /* \"#utility.yul\":18172:18192   */\n      lt\n        /* \"#utility.yul\":18169:18216   */\n      iszero\n      tag_667\n      jumpi\n      pop\n        /* \"#utility.yul\":18210:18214   */\n      dup1\n        /* \"#utility.yul\":18169:18216   */\n    tag_667:\n        /* \"#utility.yul\":18265:18267   */\n      0x1f\n        /* \"#utility.yul\":18260:18263   */\n      dup6\n        /* \"#utility.yul\":18256:18268   */\n      add\n        /* \"#utility.yul\":18253:18254   */\n      0x05\n        /* \"#utility.yul\":18249:18269   */\n      shr\n        /* \"#utility.yul\":18243:18247   */\n      dup3\n        /* \"#utility.yul\":18239:18270   */\n      add\n        /* \"#utility.yul\":18229:18270   */\n      swap2\n      pop\n        /* \"#utility.yul\":18320:18402   */\n    tag_668:\n        /* \"#utility.yul\":18338:18340   */\n      dup2\n        /* \"#utility.yul\":18331:18336   */\n      dup2\n        /* \"#utility.yul\":18328:18341   */\n      lt\n        /* \"#utility.yul\":18320:18402   */\n      iszero\n      tag_670\n      jumpi\n        /* \"#utility.yul\":18383:18400   */\n      dup3\n      dup2\n      sstore\n        /* \"#utility.yul\":18364:18365   */\n      0x01\n        /* \"#utility.yul\":18353:18366   */\n      add\n        /* \"#utility.yul\":18320:18402   */\n      jump(tag_668)\n    tag_670:\n        /* \"#utility.yul\":18324:18327   */\n      pop\n      pop\n      pop\n        /* \"#utility.yul\":17964:18412   */\n    tag_666:\n        /* \"#utility.yul\":17873:18418   */\n      pop\n      pop\n      pop\n      jump\t// out\n        /* \"#utility.yul\":18594:19946   */\n    tag_237:\n        /* \"#utility.yul\":18720:18723   */\n      dup2\n        /* \"#utility.yul\":18714:18724   */\n      mload\n      sub(shl(0x40, 0x01), 0x01)\n        /* \"#utility.yul\":18739:18745   */\n      dup2\n        /* \"#utility.yul\":18736:18766   */\n      gt\n        /* \"#utility.yul\":18733:18789   */\n      iszero\n      tag_674\n      jumpi\n        /* \"#utility.yul\":18769:18787   */\n      tag_674\n      tag_276\n      jump\t// in\n    tag_674:\n        /* \"#utility.yul\":18798:18895   */\n      tag_675\n        /* \"#utility.yul\":18888:18894   */\n      dup2\n        /* \"#utility.yul\":18848:18886   */\n      tag_676\n        /* \"#utility.yul\":18880:18884   */\n      dup5\n        /* \"#utility.yul\":18874:18885   */\n      sload\n        /* \"#utility.yul\":18848:18886   */\n      tag_168\n      jump\t// in\n    tag_676:\n        /* \"#utility.yul\":18842:18846   */\n      dup5\n        /* \"#utility.yul\":18798:18895   */\n      tag_549\n      jump\t// in\n    tag_675:\n        /* \"#utility.yul\":18950:18954   */\n      0x20\n      dup1\n        /* \"#utility.yul\":19014:19016   */\n      0x1f\n        /* \"#utility.yul\":19003:19017   */\n      dup4\n      gt\n        /* \"#utility.yul\":19031:19032   */\n      0x01\n        /* \"#utility.yul\":19026:19689   */\n      dup2\n      eq\n      tag_678\n      jumpi\n        /* \"#utility.yul\":19733:19734   */\n      0x00\n        /* \"#utility.yul\":19750:19756   */\n      dup5\n        /* \"#utility.yul\":19747:19836   */\n      iszero\n      tag_679\n      jumpi\n      pop\n        /* \"#utility.yul\":19802:19821   */\n      dup6\n      dup4\n      add\n        /* \"#utility.yul\":19796:19822   */\n      mload\n        /* \"#utility.yul\":19747:19836   */\n    tag_679:\n      not(0x00)\n        /* \"#utility.yul\":18551:18552   */\n      0x03\n        /* \"#utility.yul\":18547:18558   */\n      dup7\n      swap1\n      shl\n        /* \"#utility.yul\":18543:18567   */\n      shr\n        /* \"#utility.yul\":18539:18568   */\n      not\n        /* \"#utility.yul\":18529:18569   */\n      and\n        /* \"#utility.yul\":18575:18576   */\n      0x01\n        /* \"#utility.yul\":18571:18582   */\n      dup6\n      swap1\n      shl\n        /* \"#utility.yul\":18526:18583   */\n      or\n        /* \"#utility.yul\":19849:19930   */\n      dup6\n      sstore\n        /* \"#utility.yul\":18996:19940   */\n      jump(tag_670)\n        /* \"#utility.yul\":19026:19689   */\n    tag_678:\n        /* \"#utility.yul\":17820:17821   */\n      0x00\n        /* \"#utility.yul\":17813:17827   */\n      dup6\n      dup2\n      mstore\n        /* \"#utility.yul\":17857:17861   */\n      0x20\n        /* \"#utility.yul\":17844:17862   */\n      dup2\n      keccak256\n      not(0x1f)\n        /* \"#utility.yul\":19062:19082   */\n      dup7\n      and\n      swap2\n        /* \"#utility.yul\":19180:19416   */\n    tag_682:\n        /* \"#utility.yul\":19194:19201   */\n      dup3\n        /* \"#utility.yul\":19191:19192   */\n      dup2\n        /* \"#utility.yul\":19188:19202   */\n      lt\n        /* \"#utility.yul\":19180:19416   */\n      iszero\n      tag_684\n      jumpi\n        /* \"#utility.yul\":19283:19302   */\n      dup9\n      dup7\n      add\n        /* \"#utility.yul\":19277:19303   */\n      mload\n        /* \"#utility.yul\":19262:19304   */\n      dup3\n      sstore\n        /* \"#utility.yul\":19375:19402   */\n      swap5\n      dup5\n      add\n      swap5\n        /* \"#utility.yul\":19343:19344   */\n      0x01\n        /* \"#utility.yul\":19331:19345   */\n      swap1\n      swap2\n      add\n      swap1\n        /* \"#utility.yul\":19210:19229   */\n      dup5\n      add\n        /* \"#utility.yul\":19180:19416   */\n      jump(tag_682)\n    tag_684:\n        /* \"#utility.yul\":19184:19187   */\n      pop\n        /* \"#utility.yul\":19444:19450   */\n      dup6\n        /* \"#utility.yul\":19435:19442   */\n      dup3\n        /* \"#utility.yul\":19432:19451   */\n      lt\n        /* \"#utility.yul\":19429:19630   */\n      iszero\n      tag_685\n      jumpi\n        /* \"#utility.yul\":19505:19524   */\n      dup8\n      dup6\n      add\n        /* \"#utility.yul\":19499:19525   */\n      mload\n      not(0x00)\n        /* \"#utility.yul\":19588:19589   */\n      0x03\n        /* \"#utility.yul\":19584:19598   */\n      dup9\n      swap1\n      shl\n        /* \"#utility.yul\":19600:19603   */\n      0xf8\n        /* \"#utility.yul\":19580:19604   */\n      and\n        /* \"#utility.yul\":19576:19613   */\n      shr\n        /* \"#utility.yul\":19572:19614   */\n      not\n        /* \"#utility.yul\":19557:19615   */\n      and\n        /* \"#utility.yul\":19542:19616   */\n      dup2\n      sstore\n        /* \"#utility.yul\":19429:19630   */\n    tag_685:\n      pop\n      pop\n      pop\n      pop\n      pop\n        /* \"#utility.yul\":19676:19677   */\n      0x01\n        /* \"#utility.yul\":19660:19674   */\n      swap1\n      dup2\n      shl\n        /* \"#utility.yul\":19656:19678   */\n      add\n        /* \"#utility.yul\":19643:19679   */\n      swap1\n      sstore\n      pop\n        /* \"#utility.yul\":18594:19946   */\n      jump\t// out\n        /* \"#utility.yul\":19951:20268   */\n    tag_239:\n        /* \"#utility.yul\":20128:20130   */\n      0x40\n        /* \"#utility.yul\":20117:20126   */\n      dup2\n        /* \"#utility.yul\":20110:20131   */\n      mstore\n        /* \"#utility.yul\":20091:20095   */\n      0x00\n        /* \"#utility.yul\":20148:20193   */\n      tag_687\n        /* \"#utility.yul\":20189:20191   */\n      0x40\n        /* \"#utility.yul\":20178:20187   */\n      dup4\n        /* \"#utility.yul\":20174:20192   */\n      add\n        /* \"#utility.yul\":20166:20172   */\n      dup6\n        /* \"#utility.yul\":20148:20193   */\n      tag_544\n      jump\t// in\n    tag_687:\n        /* \"#utility.yul\":20140:20193   */\n      swap1\n      pop\n        /* \"#utility.yul\":20258:20259   */\n      0x01\n        /* \"#utility.yul\":20254:20255   */\n      dup1\n        /* \"#utility.yul\":20249:20252   */\n      0xa0\n        /* \"#utility.yul\":20245:20256   */\n      shl\n        /* \"#utility.yul\":20241:20260   */\n      sub\n        /* \"#utility.yul\":20233:20239   */\n      dup4\n        /* \"#utility.yul\":20229:20261   */\n      and\n        /* \"#utility.yul\":20224:20226   */\n      0x20\n        /* \"#utility.yul\":20213:20222   */\n      dup4\n        /* \"#utility.yul\":20209:20227   */\n      add\n        /* \"#utility.yul\":20202:20262   */\n      mstore\n        /* \"#utility.yul\":19951:20268   */\n      swap4\n      swap3\n      pop\n      pop\n      pop\n      jump\t// out\n        /* \"#utility.yul\":21323:21450   */\n    tag_551:\n        /* \"#utility.yul\":21384:21394   */\n      0x4e487b71\n        /* \"#utility.yul\":21379:21382   */\n      0xe0\n        /* \"#utility.yul\":21375:21395   */\n      shl\n        /* \"#utility.yul\":21372:21373   */\n      0x00\n        /* \"#utility.yul\":21365:21396   */\n      mstore\n        /* \"#utility.yul\":21415:21419   */\n      0x11\n        /* \"#utility.yul\":21412:21413   */\n      0x04\n        /* \"#utility.yul\":21405:21420   */\n      mstore\n        /* \"#utility.yul\":21439:21443   */\n      0x24\n        /* \"#utility.yul\":21436:21437   */\n      0x00\n        /* \"#utility.yul\":21429:21444   */\n      revert\n        /* \"#utility.yul\":21455:21590   */\n    tag_268:\n        /* \"#utility.yul\":21494:21497   */\n      0x00\n        /* \"#utility.yul\":21515:21532   */\n      0x01\n      dup3\n      add\n        /* \"#utility.yul\":21512:21555   */\n      tag_694\n      jumpi\n        /* \"#utility.yul\":21535:21553   */\n      tag_694\n      tag_551\n      jump\t// in\n    tag_694:\n      pop\n        /* \"#utility.yul\":21582:21583   */\n      0x01\n        /* \"#utility.yul\":21571:21584   */\n      add\n      swap1\n        /* \"#utility.yul\":21455:21590   */\n      jump\t// out\n        /* \"#utility.yul\":22938:23066   */\n    tag_447:\n        /* \"#utility.yul\":23005:23014   */\n      dup2\n      dup2\n      sub\n        /* \"#utility.yul\":23026:23037   */\n      dup2\n      dup2\n      gt\n        /* \"#utility.yul\":23023:23060   */\n      iszero\n      tag_232\n      jumpi\n        /* \"#utility.yul\":23040:23058   */\n      tag_232\n      tag_551\n      jump\t// in\n        /* \"#utility.yul\":23071:23198   */\n    tag_456:\n        /* \"#utility.yul\":23132:23142   */\n      0x4e487b71\n        /* \"#utility.yul\":23127:23130   */\n      0xe0\n        /* \"#utility.yul\":23123:23143   */\n      shl\n        /* \"#utility.yul\":23120:23121   */\n      0x00\n        /* \"#utility.yul\":23113:23144   */\n      mstore\n        /* \"#utility.yul\":23163:23167   */\n      0x31\n        /* \"#utility.yul\":23160:23161   */\n      0x04\n        /* \"#utility.yul\":23153:23168   */\n      mstore\n        /* \"#utility.yul\":23187:23191   */\n      0x24\n        /* \"#utility.yul\":23184:23185   */\n      0x00\n        /* \"#utility.yul\":23177:23192   */\n      revert\n        /* \"#utility.yul\":23203:23339   */\n    tag_495:\n        /* \"#utility.yul\":23242:23245   */\n      0x00\n        /* \"#utility.yul\":23270:23275   */\n      dup2\n        /* \"#utility.yul\":23260:23299   */\n      tag_705\n      jumpi\n        /* \"#utility.yul\":23279:23297   */\n      tag_705\n      tag_551\n      jump\t// in\n    tag_705:\n      pop\n      not(0x00)\n        /* \"#utility.yul\":23315:23333   */\n      add\n      swap1\n        /* \"#utility.yul\":23203:23339   */\n      jump\t// out\n\n    auxdata: 0xa2646970667358221220331b01594b6cfa61d5706d49fdb8e51205cc06b77d09a459b3d2dc5c2a7ccc6d64736f6c63430008120033\n}\n",
				"bytecode": {
					"linkReferences": {},
					"object": "608060405234801561001057600080fd5b50600080546001600160a01b031916331790556135a1806100326000396000f3fe608060405234801561001057600080fd5b50600436106101375760003560e01c8063b7e4a42d116100b8578063d9b18f041161007c578063d9b18f0414610262578063dc9c4aaa1461028c578063e1b2dbe81461029f578063e94a52d3146102a7578063f3a9b588146102ba578063f851a440146102c257600080fd5b8063b7e4a42d1461020a578063c10cebe61461021d578063ca1cbcc214610230578063ceacabd514610245578063d6bbbf841461025a57600080fd5b80634f4b4f78116100ff5780634f4b4f78146101b457806354291824146101bc5780637042d70c146101cf57806388c4ce54146101e4578063a1ac9e57146101f757600080fd5b806306e5d4d11461013c578063243f6b58146101645780632a539a221461017757806332722a251461018a5780633b2b8abf1461019f575b600080fd5b61014f61014a366004612c02565b6102ed565b60405190151581526020015b60405180910390f35b61014f610172366004612c02565b6103a5565b61014f610185366004612c34565b610476565b610192610679565b60405161015b9190612cb6565b6101a761078b565b60405161015b9190612cf3565b61014f610862565b61014f6101ca366004612d40565b610893565b6101e26101dd366004612d59565b610a14565b005b6101926101f2366004612c02565b610bb4565b61014f610205366004612e27565b610d21565b61014f610218366004612c02565b610e73565b61014f61022b366004612c02565b610f77565b610238611186565b60405161015b9190612e6b565b61024d6112f7565b60405161015b9190612f07565b61014f6118fe565b610275610270366004612c02565b611919565b60405161015b9b9a9998979695949392919061306c565b61014f61029a366004613139565b611f37565b61014f612064565b61014f6102b5366004613139565b61208c565b610238612187565b6000546102d5906001600160a01b031681565b6040516001600160a01b03909116815260200161015b565b3360008181526001602052604081205490916001600160a01b039091161461036d5760405162461bcd60e51b815260206004820152602860248201527f596f7520646f6e74206861766520617574686f7269747920746f207265766f6b604482015267652061636365737360c01b60648201526084015b60405180910390fd5b61037733836122ec565b6103935760405162461bcd60e51b8152600401610364906132e8565b61039d3383612385565b506001919050565b3360008181526002602052604081206001015490916001600160a01b03909116146103e25760405162461bcd60e51b815260040161036490613329565b6001600160a01b03808316600081815260016020526040902054909116146104415760405162461bcd60e51b8152602060048201526012602482015271155cd95c88191bd95cdb89dd08195e1a5cdd60721b6044820152606401610364565b61044b82336122ec565b6104675760405162461bcd60e51b8152600401610364906132e8565b61039d8233612385565b919050565b3360008181526001602052604081205490916001600160a01b03909116146104ef5760405162461bcd60e51b815260206004820152602660248201527f596f7520646f6e74206861766520617574686f7269747920746f20676976652060448201526561636365737360d01b6064820152608401610364565b6001600160a01b038316600090815260036020526040902060020180543391908690811061051f5761051f613350565b60009182526020909120600160029092020101546001600160a01b03161461057a5760405162461bcd60e51b815260206004820152600e60248201526d155cd95c881b9bdd081d985b1a5960921b6044820152606401610364565b6001600160a01b03831660009081526003602052604090206002018054859190829081106105aa576105aa613350565b906000526020600020906002020160000154146105fe5760405162461bcd60e51b815260206004820152601260248201527114995c5d595cdd1cc81b9bdd08199bdd5b9960721b6044820152606401610364565b8115156001036106655761061233846122ec565b1515600003610656573360009081526001602081815260408320600b018054928301815583529091200180546001600160a01b0319166001600160a01b0385161790555b6106608484610a14565b61066f565b61066f8484610a14565b5060019392505050565b604080518082019091526060815260006020820152336000818152600260205260409020600101546001600160a01b0316146106c75760405162461bcd60e51b815260040161036490613329565b336000908152600260205260409081902081518083019092528054829082906106ef90613366565b80601f016020809104026020016040519081016040528092919081815260200182805461071b90613366565b80156107685780601f1061073d57610100808354040283529160200191610768565b820191906000526020600020905b81548152906001019060200180831161074b57829003601f168201915b5050509183525050600191909101546001600160a01b0316602090910152905090565b336000818152600160205260409020546060916001600160a01b03909116146107f65760405162461bcd60e51b815260206004820152601760248201527f596f7520646f6e74206861766520617574686f726974790000000000000000006044820152606401610364565b33600090815260016020908152604091829020600b018054835181840281018401909452808452909183018282801561085857602002820191906000526020600020905b81546001600160a01b0316815260019091019060200180831161083a575b5050505050905090565b3360008181526002602052604081206001015490916001600160a01b039091160361088d5750600190565b50600090565b3360008181526002602052604081206001015490916001600160a01b03909116146108d05760405162461bcd60e51b815260040161036490613329565b336000818152600360205260409020546001600160a01b0316146109405760405162461bcd60e51b815260206004820152602160248201527f596f7520646f6e74206861766520617574686f7269747920746f2064656c65746044820152606560f81b6064820152608401610364565b33600090815260036020526040902060020180548391908290811061096757610967613350565b906000526020600020906002020160000154146109bd5760405162461bcd60e51b815260206004820152601460248201527314995c5d595cdd08191bd95cdb9d08195e1a5cdd60621b6044820152606401610364565b3360009081526003602052604081206002018054849081106109e1576109e1613350565b60009182526020909120600160029092020101546001600160a01b03169050610a0b83823361247e565b50600192915050565b6001600160a01b0380821660008181526002602052604090206001015490911614610a945760405162461bcd60e51b815260206004820152602a60248201527f5468697320706172746963756c6172206f7267616e697a6174696f6e7320646f604482015269195cdb9d08195e1a5cdd60b21b6064820152608401610364565b6001600160a01b0381166000908152600360205260409020600201805433919084908110610ac457610ac4613350565b60009182526020909120600160029092020101546001600160a01b031614610b1f5760405162461bcd60e51b815260206004820152600e60248201526d155cd95c881b9bdd081d985b1a5960921b6044820152606401610364565b6001600160a01b0381166000908152600360205260409020600201805483919082908110610b4f57610b4f613350565b90600052602060002090600202016000015414610ba55760405162461bcd60e51b815260206004820152601460248201527314995c5d595cdd08191bd95cdb9d08195e1a5cdd60621b6044820152606401610364565b610bb082338361247e565b5050565b6040805180820190915260608152600060208201526000546001600160a01b03163314610bf35760405162461bcd60e51b8152600401610364906133a0565b6001600160a01b0380831660008181526002602052604090206001015490911614610c535760405162461bcd60e51b815260206004820152601060248201526f13dc99c8191bd95cdb9d08195e1a5cdd60821b6044820152606401610364565b6001600160a01b038216600090815260026020526040908190208151808301909252805482908290610c8490613366565b80601f0160208091040260200160405190810160405280929190818152602001828054610cb090613366565b8015610cfd5780601f10610cd257610100808354040283529160200191610cfd565b820191906000526020600020905b815481529060010190602001808311610ce057829003601f168201915b5050509183525050600191909101546001600160a01b031660209091015292915050565b600080546001600160a01b03163314610d4c5760405162461bcd60e51b8152600401610364906133a0565b6001600160a01b0380831660008181526002602052604090206001015490911603610dad5760405162461bcd60e51b815260206004820152601160248201527013dc99c8185b1c9958591e481859191959607a1b6044820152606401610364565b6040805180820182528481526001600160a01b03841660208083018290526000918252600290529190912081518190610de69082613413565b50602091820151600191820180546001600160a01b039283166001600160a01b03199182161790915590851660008181526003909452604080852080549093169091178255910191909155517f19cb05bcb9f3a5aa3801619041099231656235762a3599eed02cdcac38facd1c90610e6190859085906134d2565b60405180910390a15060015b92915050565b600080546001600160a01b03163314610e9e5760405162461bcd60e51b8152600401610364906133a0565b6001600160a01b0380831660008181526002602052604090206001015490911614610efe5760405162461bcd60e51b815260206004820152601060248201526f13dc99c8191bd95cdb9d08195e1a5cdd60821b6044820152606401610364565b6001600160a01b038216600090815260026020526040812090610f218282612b95565b5060010180546001600160a01b03191690556040516001600160a01b03831681527f4630061df51c52d44a3987b904c6ff220da2cbdeff03ce8750cd14652cae0c6c9060200160405180910390a1506001919050565b3360008181526002602052604081206001015490916001600160a01b0390911614610fb45760405162461bcd60e51b815260040161036490613329565b6001600160a01b03808316600081815260016020526040902054909116146110175760405162461bcd60e51b8152602060048201526016602482015275437573746f6d657220646f65736e742065786973747360501b6044820152606401610364565b61102182336122ec565b156110645760405162461bcd60e51b8152602060048201526013602482015272416c726561647920686176652061636365737360681b6044820152606401610364565b61106d82612836565b156110b35760405162461bcd60e51b81526020600482015260166024820152755265717565737420416c72656164792045786973747360501b6044820152606401610364565b336000818152600360208181526040808420815180830183526001808301805483526001600160a01b038b8116848801818152600296870180548087018255908c52898c2096519088029096019586555194840180549583166001600160a01b03199687161790558952600487528589208651808801909752888852825487528688018b815281548086018355918b52888b2097519190960290960195865593519490910180549490931693909116929092179055938352528154919061117983613512565b9091555060019392505050565b6060611190612064565b6111d15760405162461bcd60e51b815260206004820152601260248201527110dd5cdd1bdb595c881b9bdd081d985b1a5960721b6044820152606401610364565b336000908152600460205260408120546001600160401b038111156111f8576111f8612d85565b60405190808252806020026020018201604052801561123d57816020015b60408051808201909152600080825260208201528152602001906001900390816112165790505b5090506000805b336000908152600460205260409020548110156112ef5733600090815260046020526040902080548290811061127c5761127c613350565b60009182526020918290206040805180820190915260029092020180548252600101546001600160a01b03169181019190915283518490849081106112c3576112c3613350565b602002602001018190525081806112d990613512565b92505080806112e790613512565b915050611244565b509092915050565b61136d604051806101a0016040528060006001600160a01b0316815260200160608152602001606081526020016060815260200160608152602001606081526020016060815260200160608152602001606081526020016000815260200160008152602001606081526020016000151581525090565b611375612064565b6113b65760405162461bcd60e51b815260206004820152601260248201527110dd5cdd1bdb595c881b9bdd081d985b1a5960721b6044820152606401610364565b3360009081526001602081815260409283902083516101a0810190945280546001600160a01b031684529182018054918401916113f290613366565b80601f016020809104026020016040519081016040528092919081815260200182805461141e90613366565b801561146b5780601f106114405761010080835404028352916020019161146b565b820191906000526020600020905b81548152906001019060200180831161144e57829003601f168201915b5050505050815260200160028201805461148490613366565b80601f01602080910402602001604051908101604052809291908181526020018280546114b090613366565b80156114fd5780601f106114d2576101008083540402835291602001916114fd565b820191906000526020600020905b8154815290600101906020018083116114e057829003601f168201915b5050505050815260200160038201805461151690613366565b80601f016020809104026020016040519081016040528092919081815260200182805461154290613366565b801561158f5780601f106115645761010080835404028352916020019161158f565b820191906000526020600020905b81548152906001019060200180831161157257829003601f168201915b505050505081526020016004820180546115a890613366565b80601f01602080910402602001604051908101604052809291908181526020018280546115d490613366565b80156116215780601f106115f657610100808354040283529160200191611621565b820191906000526020600020905b81548152906001019060200180831161160457829003601f168201915b5050505050815260200160058201805461163a90613366565b80601f016020809104026020016040519081016040528092919081815260200182805461166690613366565b80156116b35780601f10611688576101008083540402835291602001916116b3565b820191906000526020600020905b81548152906001019060200180831161169657829003601f168201915b505050505081526020016006820180546116cc90613366565b80601f01602080910402602001604051908101604052809291908181526020018280546116f890613366565b80156117455780601f1061171a57610100808354040283529160200191611745565b820191906000526020600020905b81548152906001019060200180831161172857829003601f168201915b5050505050815260200160078201805461175e90613366565b80601f016020809104026020016040519081016040528092919081815260200182805461178a90613366565b80156117d75780601f106117ac576101008083540402835291602001916117d7565b820191906000526020600020905b8154815290600101906020018083116117ba57829003601f168201915b505050505081526020016008820180546117f090613366565b80601f016020809104026020016040519081016040528092919081815260200182805461181c90613366565b80156118695780601f1061183e57610100808354040283529160200191611869565b820191906000526020600020905b81548152906001019060200180831161184c57829003601f168201915b5050505050815260200160098201548152602001600a8201548152602001600b82018054806020026020016040519081016040528092919081815260200182805480156118df57602002820191906000526020600020905b81546001600160a01b031681526001909101906020018083116118c1575b5050509183525050600c919091015460ff161515602090910152919050565b60008054336001600160a01b039091160361088d5750600190565b60608060608060608060608060008060006119348c336122ec565b6119805760405162461bcd60e51b815260206004820152601e60248201527f55736572206861736e7420676976656e20746865697220636f6e73656e7400006044820152606401610364565b6001600160a01b03808d16600090815260016020818152604080842081516101a0810190925280549095168152918401805493949293918401916119c390613366565b80601f01602080910402602001604051908101604052809291908181526020018280546119ef90613366565b8015611a3c5780601f10611a1157610100808354040283529160200191611a3c565b820191906000526020600020905b815481529060010190602001808311611a1f57829003601f168201915b50505050508152602001600282018054611a5590613366565b80601f0160208091040260200160405190810160405280929190818152602001828054611a8190613366565b8015611ace5780601f10611aa357610100808354040283529160200191611ace565b820191906000526020600020905b815481529060010190602001808311611ab157829003601f168201915b50505050508152602001600382018054611ae790613366565b80601f0160208091040260200160405190810160405280929190818152602001828054611b1390613366565b8015611b605780601f10611b3557610100808354040283529160200191611b60565b820191906000526020600020905b815481529060010190602001808311611b4357829003601f168201915b50505050508152602001600482018054611b7990613366565b80601f0160208091040260200160405190810160405280929190818152602001828054611ba590613366565b8015611bf25780601f10611bc757610100808354040283529160200191611bf2565b820191906000526020600020905b815481529060010190602001808311611bd557829003601f168201915b50505050508152602001600582018054611c0b90613366565b80601f0160208091040260200160405190810160405280929190818152602001828054611c3790613366565b8015611c845780601f10611c5957610100808354040283529160200191611c84565b820191906000526020600020905b815481529060010190602001808311611c6757829003601f168201915b50505050508152602001600682018054611c9d90613366565b80601f0160208091040260200160405190810160405280929190818152602001828054611cc990613366565b8015611d165780601f10611ceb57610100808354040283529160200191611d16565b820191906000526020600020905b815481529060010190602001808311611cf957829003601f168201915b50505050508152602001600782018054611d2f90613366565b80601f0160208091040260200160405190810160405280929190818152602001828054611d5b90613366565b8015611da85780601f10611d7d57610100808354040283529160200191611da8565b820191906000526020600020905b815481529060010190602001808311611d8b57829003601f168201915b50505050508152602001600882018054611dc190613366565b80601f0160208091040260200160405190810160405280929190818152602001828054611ded90613366565b8015611e3a5780601f10611e0f57610100808354040283529160200191611e3a565b820191906000526020600020905b815481529060010190602001808311611e1d57829003601f168201915b5050505050815260200160098201548152602001600a8201548152602001600b8201805480602002602001604051908101604052809291908181526020018280548015611eb057602002820191906000526020600020905b81546001600160a01b03168152600190910190602001808311611e92575b50505050508152602001600c820160009054906101000a900460ff161515151581525050905080602001518160400151826060015183608001518460a001518560c001518660e001518761010001518861018001518961012001518a61014001519b509b509b509b509b509b509b509b509b509b509b505091939597999b90929496989a50565b3360008181526002602052604081206001015490916001600160a01b0390911614611f745760405162461bcd60e51b815260040161036490613329565b6001600160a01b03808e1660008181526001602052604090205490911614611fd35760405162461bcd60e51b8152602060048201526012602482015271155cd95c88191bd95cdb89dd08195e1a5cdd60721b6044820152606401610364565b611fdd8d336122ec565b611ff95760405162461bcd60e51b8152600401610364906132e8565b61200d8d8d8d8d8d8d8d8d8d8d8d8d6128ca565b604080516001600160a01b038f16815285151560208201527f0c14653fca65d1b22631a36a53bd2a7153579eb0180192d23b52babb69c2805091015b60405180910390a15060019c9b505050505050505050505050565b3360008181526001602052604081205490916001600160a01b039091160361088d5750600190565b3360008181526002602052604081206001015490916001600160a01b03909116146120c95760405162461bcd60e51b815260040161036490613329565b6001600160a01b03808e16600081815260016020526040902054909116036121295760405162461bcd60e51b81526020600482015260136024820152725573657220616c72656164792065786973747360681b6044820152606401610364565b61213d8d8d8d8d8d8d8d8d8d8d8d8d6128ca565b6121468d610f77565b50604080516001600160a01b038f16815285151560208201527f1d22f26dee56193a2da8b325a26e02b936d68be9f49c0a6f92534464aa8f2ecf9101612049565b336000818152600260205260409020600101546060916001600160a01b03909116146121c55760405162461bcd60e51b815260040161036490613329565b336000908152600360205260408120600101546001600160401b038111156121ef576121ef612d85565b60405190808252806020026020018201604052801561223457816020015b604080518082019091526000808252602082015281526020019060019003908161220d5790505b5090506000805b336000908152600360205260409020600101548110156112ef5733600090815260036020526040902060020180548290811061227957612279613350565b60009182526020918290206040805180820190915260029092020180548252600101546001600160a01b03169181019190915283518490849081106122c0576122c0613350565b602002602001018190525081806122d690613512565b92505080806122e490613512565b91505061223b565b6000805b6001600160a01b0384166000908152600160205260409020600b015481101561237b576001600160a01b038481166000908152600160205260409020600b018054918516918390811061234557612345613350565b6000918252602090912001546001600160a01b031603612369576001915050610e6d565b8061237381613512565b9150506122f0565b5060009392505050565b60006123918383612a74565b6001600160a01b0384166000908152600160208190526040909120600b018054929350916123bf919061352b565b815481106123cf576123cf613350565b60009182526020808320909101546001600160a01b03868116845260019092526040909220600b0180549190921691908390811061240f5761240f613350565b600091825260208083209190910180546001600160a01b0319166001600160a01b039485161790559185168152600190915260409020600b018054806124575761245761353e565b600082815260209020810160001990810180546001600160a01b0319169055019055505050565b600061248a8383612b07565b6001600160a01b03831660009081526003602052604090206002018054919250906124b79060019061352b565b815481106124c7576124c7613350565b906000526020600020906002020160036000846001600160a01b03166001600160a01b03168152602001908152602001600020600201858154811061250e5761250e613350565b6000918252602080832084546002938402909101908155600194850154940180546001600160a01b0319166001600160a01b039586161790559285168252600390925260409020018054806125655761256561353e565b60008281526020808220600260001990940193840201828155600190810180546001600160a01b0319169055929093556001600160a01b038616815260049092526040909120805490916125b89161352b565b815481106125c8576125c8613350565b906000526020600020906002020160046000856001600160a01b03166001600160a01b03168152602001908152602001600020600001828154811061260f5761260f613350565b6000918252602080832084546002909302019182556001938401549390910180546001600160a01b0319166001600160a01b0394851617905591851681526004909152604090208054806126655761266561353e565b60008281526020808220600260001990940184810290910183815560010180546001600160a01b031916905590935533815260039092526040909120015484148015906126cd57506001600160a01b0382166000908152600360205260409020600190810154115b156127c3576001600160a01b038216600090815260036020526040902060020180548591908290811061270257612702613350565b60009182526020808320600292830201939093556001600160a01b038516825260039092526040812090910180548690811061274057612740613350565b60009182526020808320600160029093020191909101546001600160a01b03168083526004909152604090912054909150156127c1576127808184612b07565b6001600160a01b038216600090815260046020526040902080549193508691849081106127af576127af613350565b60009182526020909120600290910201555b505b6001600160a01b03821660009081526003602052604081206001018054916127ea83613554565b9091555050604080518581526001600160a01b03841660208201527f5bc31e521401c7e4fbe27cc8e953ddcd66ce6cc84d810d1850450e7964029d95910160405180910390a150505050565b6000805b336000908152600360205260409020600101548110156128c15733600090815260036020526040902060020180546001600160a01b03851691908390811061288457612884613350565b60009182526020909120600160029092020101546001600160a01b0316036128af5750600192915050565b806128b981613512565b91505061283a565b50600092915050565b6001600160a01b038c16600081815260016020819052604090912080546001600160a01b0319169092178255016129018c82613413565b506001600160a01b038c1660009081526001602052604090206002016129278b82613413565b506001600160a01b038c16600090815260016020526040902060030161294d8a82613413565b506001600160a01b038c1660009081526001602052604090206004016129738982613413565b506001600160a01b038c1660009081526001602052604090206005016129998882613413565b506001600160a01b038c1660009081526001602052604090206006016129bf8782613413565b506001600160a01b038c1660009081526001602052604090206007016129e58682613413565b506001600160a01b038c166000908152600160205260409020600801612a0b8582613413565b506001600160a01b039b909b166000818152600160208181526040808420600c8101805460ff1916981515989098179097556009870195909555600a9095019d909d556004909352912090990180546001600160a01b0319169099179098555050505050505050565b6000805b6001600160a01b0384166000908152600160205260409020600b0154811015612b00576001600160a01b038481166000908152600160205260409020600b0180549185169183908110612acd57612acd613350565b6000918252602090912001546001600160a01b031603612aee579050610e6d565b80612af881613512565b915050612a78565b5092915050565b6000805b6001600160a01b038416600090815260046020526040902054811015612b00576001600160a01b03848116600090815260046020526040902080549185169183908110612b5a57612b5a613350565b60009182526020909120600160029092020101546001600160a01b031603612b83579050610e6d565b80612b8d81613512565b915050612b0b565b508054612ba190613366565b6000825580601f10612bb1575050565b601f016020900490600052602060002090810190612bcf9190612bd2565b50565b5b80821115612be75760008155600101612bd3565b5090565b80356001600160a01b038116811461047157600080fd5b600060208284031215612c1457600080fd5b612c1d82612beb565b9392505050565b8035801515811461047157600080fd5b600080600060608486031215612c4957600080fd5b83359250612c5960208501612beb565b9150612c6760408501612c24565b90509250925092565b6000815180845260005b81811015612c9657602081850181015186830182015201612c7a565b506000602082860101526020601f19601f83011685010191505092915050565b602081526000825160406020840152612cd26060840182612c70565b602094909401516001600160a01b0316604093909301929092525090919050565b6020808252825182820181905260009190848201906040850190845b81811015612d345783516001600160a01b031683529284019291840191600101612d0f565b50909695505050505050565b600060208284031215612d5257600080fd5b5035919050565b60008060408385031215612d6c57600080fd5b82359150612d7c60208401612beb565b90509250929050565b634e487b7160e01b600052604160045260246000fd5b600082601f830112612dac57600080fd5b81356001600160401b0380821115612dc657612dc6612d85565b604051601f8301601f19908116603f01168101908282118183101715612dee57612dee612d85565b81604052838152866020858801011115612e0757600080fd5b836020870160208301376000602085830101528094505050505092915050565b60008060408385031215612e3a57600080fd5b82356001600160401b03811115612e5057600080fd5b612e5c85828601612d9b565b925050612d7c60208401612beb565b602080825282518282018190526000919060409081850190868401855b82811015612eb6578151805185528601516001600160a01b0316868501529284019290850190600101612e88565b5091979650505050505050565b600081518084526020808501945080840160005b83811015612efc5781516001600160a01b031687529582019590820190600101612ed7565b509495945050505050565b60208152612f216020820183516001600160a01b03169052565b600060208301516101a0806040850152612f3f6101c0850183612c70565b91506040850151601f1980868503016060870152612f5d8483612c70565b93506060870151915080868503016080870152612f7a8483612c70565b935060808701519150808685030160a0870152612f978483612c70565b935060a08701519150808685030160c0870152612fb48483612c70565b935060c08701519150808685030160e0870152612fd18483612c70565b935060e08701519150610100818786030181880152612ff08584612c70565b94508088015192505061012081878603018188015261300f8584612c70565b9088015161014088810191909152880151610160808901919091528801518782038301610180808a0191909152919550925061304b8584612ec3565b945080880151925050506130628286018215159052565b5090949350505050565b60006101608083526130808184018f612c70565b90508281036020840152613094818e612c70565b905082810360408401526130a8818d612c70565b905082810360608401526130bc818c612c70565b905082810360808401526130d0818b612c70565b905082810360a08401526130e4818a612c70565b905082810360c08401526130f88189612c70565b905082810360e084015261310c8188612c70565b91505061311e61010083018615159052565b61012082019390935261014001529998505050505050505050565b6000806000806000806000806000806000806101808d8f03121561315c57600080fd5b6131658d612beb565b9b506001600160401b0360208e0135111561317f57600080fd5b61318f8e60208f01358f01612d9b565b9a506001600160401b0360408e013511156131a957600080fd5b6131b98e60408f01358f01612d9b565b99506001600160401b0360608e013511156131d357600080fd5b6131e38e60608f01358f01612d9b565b98506001600160401b0360808e013511156131fd57600080fd5b61320d8e60808f01358f01612d9b565b97506001600160401b0360a08e0135111561322757600080fd5b6132378e60a08f01358f01612d9b565b96506001600160401b0360c08e0135111561325157600080fd5b6132618e60c08f01358f01612d9b565b95506001600160401b0360e08e0135111561327b57600080fd5b61328b8e60e08f01358f01612d9b565b94506001600160401b036101008e013511156132a657600080fd5b6132b78e6101008f01358f01612d9b565b93506132c66101208e01612c24565b92506101408d013591506101608d013590509295989b509295989b509295989b565b60208082526021908201527f596f7520646f6e7420686176652061636365737320746f2074686973207573656040820152603960f91b606082015260800190565b6020808252600d908201526c13dc99c81b9bdd08195e1a5cdd609a1b604082015260600190565b634e487b7160e01b600052603260045260246000fd5b600181811c9082168061337a57607f821691505b60208210810361339a57634e487b7160e01b600052602260045260246000fd5b50919050565b6020808252600a908201526941646d696e206f6e6c7960b01b604082015260600190565b601f82111561340e57600081815260208120601f850160051c810160208610156133eb5750805b601f850160051c820191505b8181101561340a578281556001016133f7565b5050505b505050565b81516001600160401b0381111561342c5761342c612d85565b6134408161343a8454613366565b846133c4565b602080601f831160018114613475576000841561345d5750858301515b600019600386901b1c1916600185901b17855561340a565b600085815260208120601f198616915b828110156134a457888601518255948401946001909101908401613485565b50858210156134c25787850151600019600388901b60f8161c191681555b5050505050600190811b01905550565b6040815260006134e56040830185612c70565b905060018060a01b03831660208301529392505050565b634e487b7160e01b600052601160045260246000fd5b600060018201613524576135246134fc565b5060010190565b81810381811115610e6d57610e6d6134fc565b634e487b7160e01b600052603160045260246000fd5b600081613563576135636134fc565b50600019019056fea2646970667358221220331b01594b6cfa61d5706d49fdb8e51205cc06b77d09a459b3d2dc5c2a7ccc6d64736f6c63430008120033",
					"opcodes": "PUSH1 0x80 PUSH1 0x40 MSTORE CALLVALUE DUP1 ISZERO PUSH2 0x10 JUMPI PUSH1 0x0 DUP1 REVERT JUMPDEST POP PUSH1 0x0 DUP1 SLOAD PUSH1 0x1 PUSH1 0x1 PUSH1 0xA0 SHL SUB NOT AND CALLER OR SWAP1 SSTORE PUSH2 0x35A1 DUP1 PUSH2 0x32 PUSH1 0x0 CODECOPY PUSH1 0x0 RETURN INVALID PUSH1 0x80 PUSH1 0x40 MSTORE CALLVALUE DUP1 ISZERO PUSH2 0x10 JUMPI PUSH1 0x0 DUP1 REVERT JUMPDEST POP PUSH1 0x4 CALLDATASIZE LT PUSH2 0x137 JUMPI PUSH1 0x0 CALLDATALOAD PUSH1 0xE0 SHR DUP1 PUSH4 0xB7E4A42D GT PUSH2 0xB8 JUMPI DUP1 PUSH4 0xD9B18F04 GT PUSH2 0x7C JUMPI DUP1 PUSH4 0xD9B18F04 EQ PUSH2 0x262 JUMPI DUP1 PUSH4 0xDC9C4AAA EQ PUSH2 0x28C JUMPI DUP1 PUSH4 0xE1B2DBE8 EQ PUSH2 0x29F JUMPI DUP1 PUSH4 0xE94A52D3 EQ PUSH2 0x2A7 JUMPI DUP1 PUSH4 0xF3A9B588 EQ PUSH2 0x2BA JUMPI DUP1 PUSH4 0xF851A440 EQ PUSH2 0x2C2 JUMPI PUSH1 0x0 DUP1 REVERT JUMPDEST DUP1 PUSH4 0xB7E4A42D EQ PUSH2 0x20A JUMPI DUP1 PUSH4 0xC10CEBE6 EQ PUSH2 0x21D JUMPI DUP1 PUSH4 0xCA1CBCC2 EQ PUSH2 0x230 JUMPI DUP1 PUSH4 0xCEACABD5 EQ PUSH2 0x245 JUMPI DUP1 PUSH4 0xD6BBBF84 EQ PUSH2 0x25A JUMPI PUSH1 0x0 DUP1 REVERT JUMPDEST DUP1 PUSH4 0x4F4B4F78 GT PUSH2 0xFF JUMPI DUP1 PUSH4 0x4F4B4F78 EQ PUSH2 0x1B4 JUMPI DUP1 PUSH4 0x54291824 EQ PUSH2 0x1BC JUMPI DUP1 PUSH4 0x7042D70C EQ PUSH2 0x1CF JUMPI DUP1 PUSH4 0x88C4CE54 EQ PUSH2 0x1E4 JUMPI DUP1 PUSH4 0xA1AC9E57 EQ PUSH2 0x1F7 JUMPI PUSH1 0x0 DUP1 REVERT JUMPDEST DUP1 PUSH4 0x6E5D4D1 EQ PUSH2 0x13C JUMPI DUP1 PUSH4 0x243F6B58 EQ PUSH2 0x164 JUMPI DUP1 PUSH4 0x2A539A22 EQ PUSH2 0x177 JUMPI DUP1 PUSH4 0x32722A25 EQ PUSH2 0x18A JUMPI DUP1 PUSH4 0x3B2B8ABF EQ PUSH2 0x19F JUMPI JUMPDEST PUSH1 0x0 DUP1 REVERT JUMPDEST PUSH2 0x14F PUSH2 0x14A CALLDATASIZE PUSH1 0x4 PUSH2 0x2C02 JUMP JUMPDEST PUSH2 0x2ED JUMP JUMPDEST PUSH1 0x40 MLOAD SWAP1 ISZERO ISZERO DUP2 MSTORE PUSH1 0x20 ADD JUMPDEST PUSH1 0x40 MLOAD DUP1 SWAP2 SUB SWAP1 RETURN JUMPDEST PUSH2 0x14F PUSH2 0x172 CALLDATASIZE PUSH1 0x4 PUSH2 0x2C02 JUMP JUMPDEST PUSH2 0x3A5 JUMP JUMPDEST PUSH2 0x14F PUSH2 0x185 CALLDATASIZE PUSH1 0x4 PUSH2 0x2C34 JUMP JUMPDEST PUSH2 0x476 JUMP JUMPDEST PUSH2 0x192 PUSH2 0x679 JUMP JUMPDEST PUSH1 0x40 MLOAD PUSH2 0x15B SWAP2 SWAP1 PUSH2 0x2CB6 JUMP JUMPDEST PUSH2 0x1A7 PUSH2 0x78B JUMP JUMPDEST PUSH1 0x40 MLOAD PUSH2 0x15B SWAP2 SWAP1 PUSH2 0x2CF3 JUMP JUMPDEST PUSH2 0x14F PUSH2 0x862 JUMP JUMPDEST PUSH2 0x14F PUSH2 0x1CA CALLDATASIZE PUSH1 0x4 PUSH2 0x2D40 JUMP JUMPDEST PUSH2 0x893 JUMP JUMPDEST PUSH2 0x1E2 PUSH2 0x1DD CALLDATASIZE PUSH1 0x4 PUSH2 0x2D59 JUMP JUMPDEST PUSH2 0xA14 JUMP JUMPDEST STOP JUMPDEST PUSH2 0x192 PUSH2 0x1F2 CALLDATASIZE PUSH1 0x4 PUSH2 0x2C02 JUMP JUMPDEST PUSH2 0xBB4 JUMP JUMPDEST PUSH2 0x14F PUSH2 0x205 CALLDATASIZE PUSH1 0x4 PUSH2 0x2E27 JUMP JUMPDEST PUSH2 0xD21 JUMP JUMPDEST PUSH2 0x14F PUSH2 0x218 CALLDATASIZE PUSH1 0x4 PUSH2 0x2C02 JUMP JUMPDEST PUSH2 0xE73 JUMP JUMPDEST PUSH2 0x14F PUSH2 0x22B CALLDATASIZE PUSH1 0x4 PUSH2 0x2C02 JUMP JUMPDEST PUSH2 0xF77 JUMP JUMPDEST PUSH2 0x238 PUSH2 0x1186 JUMP JUMPDEST PUSH1 0x40 MLOAD PUSH2 0x15B SWAP2 SWAP1 PUSH2 0x2E6B JUMP JUMPDEST PUSH2 0x24D PUSH2 0x12F7 JUMP JUMPDEST PUSH1 0x40 MLOAD PUSH2 0x15B SWAP2 SWAP1 PUSH2 0x2F07 JUMP JUMPDEST PUSH2 0x14F PUSH2 0x18FE JUMP JUMPDEST PUSH2 0x275 PUSH2 0x270 CALLDATASIZE PUSH1 0x4 PUSH2 0x2C02 JUMP JUMPDEST PUSH2 0x1919 JUMP JUMPDEST PUSH1 0x40 MLOAD PUSH2 0x15B SWAP12 SWAP11 SWAP10 SWAP9 SWAP8 SWAP7 SWAP6 SWAP5 SWAP4 SWAP3 SWAP2 SWAP1 PUSH2 0x306C JUMP JUMPDEST PUSH2 0x14F PUSH2 0x29A CALLDATASIZE PUSH1 0x4 PUSH2 0x3139 JUMP JUMPDEST PUSH2 0x1F37 JUMP JUMPDEST PUSH2 0x14F PUSH2 0x2064 JUMP JUMPDEST PUSH2 0x14F PUSH2 0x2B5 CALLDATASIZE PUSH1 0x4 PUSH2 0x3139 JUMP JUMPDEST PUSH2 0x208C JUMP JUMPDEST PUSH2 0x238 PUSH2 0x2187 JUMP JUMPDEST PUSH1 0x0 SLOAD PUSH2 0x2D5 SWAP1 PUSH1 0x1 PUSH1 0x1 PUSH1 0xA0 SHL SUB AND DUP2 JUMP JUMPDEST PUSH1 0x40 MLOAD PUSH1 0x1 PUSH1 0x1 PUSH1 0xA0 SHL SUB SWAP1 SWAP2 AND DUP2 MSTORE PUSH1 0x20 ADD PUSH2 0x15B JUMP JUMPDEST CALLER PUSH1 0x0 DUP2 DUP2 MSTORE PUSH1 0x1 PUSH1 0x20 MSTORE PUSH1 0x40 DUP2 KECCAK256 SLOAD SWAP1 SWAP2 PUSH1 0x1 PUSH1 0x1 PUSH1 0xA0 SHL SUB SWAP1 SWAP2 AND EQ PUSH2 0x36D JUMPI PUSH1 0x40 MLOAD PUSH3 0x461BCD PUSH1 0xE5 SHL DUP2 MSTORE PUSH1 0x20 PUSH1 0x4 DUP3 ADD MSTORE PUSH1 0x28 PUSH1 0x24 DUP3 ADD MSTORE PUSH32 0x596F7520646F6E74206861766520617574686F7269747920746F207265766F6B PUSH1 0x44 DUP3 ADD MSTORE PUSH8 0x6520616363657373 PUSH1 0xC0 SHL PUSH1 0x64 DUP3 ADD MSTORE PUSH1 0x84 ADD JUMPDEST PUSH1 0x40 MLOAD DUP1 SWAP2 SUB SWAP1 REVERT JUMPDEST PUSH2 0x377 CALLER DUP4 PUSH2 0x22EC JUMP JUMPDEST PUSH2 0x393 JUMPI PUSH1 0x40 MLOAD PUSH3 0x461BCD PUSH1 0xE5 SHL DUP2 MSTORE PUSH1 0x4 ADD PUSH2 0x364 SWAP1 PUSH2 0x32E8 JUMP JUMPDEST PUSH2 0x39D CALLER DUP4 PUSH2 0x2385 JUMP JUMPDEST POP PUSH1 0x1 SWAP2 SWAP1 POP JUMP JUMPDEST CALLER PUSH1 0x0 DUP2 DUP2 MSTORE PUSH1 0x2 PUSH1 0x20 MSTORE PUSH1 0x40 DUP2 KECCAK256 PUSH1 0x1 ADD SLOAD SWAP1 SWAP2 PUSH1 0x1 PUSH1 0x1 PUSH1 0xA0 SHL SUB SWAP1 SWAP2 AND EQ PUSH2 0x3E2 JUMPI PUSH1 0x40 MLOAD PUSH3 0x461BCD PUSH1 0xE5 SHL DUP2 MSTORE PUSH1 0x4 ADD PUSH2 0x364 SWAP1 PUSH2 0x3329 JUMP JUMPDEST PUSH1 0x1 PUSH1 0x1 PUSH1 0xA0 SHL SUB DUP1 DUP4 AND PUSH1 0x0 DUP2 DUP2 MSTORE PUSH1 0x1 PUSH1 0x20 MSTORE PUSH1 0x40 SWAP1 KECCAK256 SLOAD SWAP1 SWAP2 AND EQ PUSH2 0x441 JUMPI PUSH1 0x40 MLOAD PUSH3 0x461BCD PUSH1 0xE5 SHL DUP2 MSTORE PUSH1 0x20 PUSH1 0x4 DUP3 ADD MSTORE PUSH1 0x12 PUSH1 0x24 DUP3 ADD MSTORE PUSH18 0x155CD95C88191BD95CDB89DD08195E1A5CDD PUSH1 0x72 SHL PUSH1 0x44 DUP3 ADD MSTORE PUSH1 0x64 ADD PUSH2 0x364 JUMP JUMPDEST PUSH2 0x44B DUP3 CALLER PUSH2 0x22EC JUMP JUMPDEST PUSH2 0x467 JUMPI PUSH1 0x40 MLOAD PUSH3 0x461BCD PUSH1 0xE5 SHL DUP2 MSTORE PUSH1 0x4 ADD PUSH2 0x364 SWAP1 PUSH2 0x32E8 JUMP JUMPDEST PUSH2 0x39D DUP3 CALLER PUSH2 0x2385 JUMP JUMPDEST SWAP2 SWAP1 POP JUMP JUMPDEST CALLER PUSH1 0x0 DUP2 DUP2 MSTORE PUSH1 0x1 PUSH1 0x20 MSTORE PUSH1 0x40 DUP2 KECCAK256 SLOAD SWAP1 SWAP2 PUSH1 0x1 PUSH1 0x1 PUSH1 0xA0 SHL SUB SWAP1 SWAP2 AND EQ PUSH2 0x4EF JUMPI PUSH1 0x40 MLOAD PUSH3 0x461BCD PUSH1 0xE5 SHL DUP2 MSTORE PUSH1 0x20 PUSH1 0x4 DUP3 ADD MSTORE PUSH1 0x26 PUSH1 0x24 DUP3 ADD MSTORE PUSH32 0x596F7520646F6E74206861766520617574686F7269747920746F206769766520 PUSH1 0x44 DUP3 ADD MSTORE PUSH6 0x616363657373 PUSH1 0xD0 SHL PUSH1 0x64 DUP3 ADD MSTORE PUSH1 0x84 ADD PUSH2 0x364 JUMP JUMPDEST PUSH1 0x1 PUSH1 0x1 PUSH1 0xA0 SHL SUB DUP4 AND PUSH1 0x0 SWAP1 DUP2 MSTORE PUSH1 0x3 PUSH1 0x20 MSTORE PUSH1 0x40 SWAP1 KECCAK256 PUSH1 0x2 ADD DUP1 SLOAD CALLER SWAP2 SWAP1 DUP7 SWAP1 DUP2 LT PUSH2 0x51F JUMPI PUSH2 0x51F PUSH2 0x3350 JUMP JUMPDEST PUSH1 0x0 SWAP2 DUP3 MSTORE PUSH1 0x20 SWAP1 SWAP2 KECCAK256 PUSH1 0x1 PUSH1 0x2 SWAP1 SWAP3 MUL ADD ADD SLOAD PUSH1 0x1 PUSH1 0x1 PUSH1 0xA0 SHL SUB AND EQ PUSH2 0x57A JUMPI PUSH1 0x40 MLOAD PUSH3 0x461BCD PUSH1 0xE5 SHL DUP2 MSTORE PUSH1 0x20 PUSH1 0x4 DUP3 ADD MSTORE PUSH1 0xE PUSH1 0x24 DUP3 ADD MSTORE PUSH14 0x155CD95C881B9BDD081D985B1A59 PUSH1 0x92 SHL PUSH1 0x44 DUP3 ADD MSTORE PUSH1 0x64 ADD PUSH2 0x364 JUMP JUMPDEST PUSH1 0x1 PUSH1 0x1 PUSH1 0xA0 SHL SUB DUP4 AND PUSH1 0x0 SWAP1 DUP2 MSTORE PUSH1 0x3 PUSH1 0x20 MSTORE PUSH1 0x40 SWAP1 KECCAK256 PUSH1 0x2 ADD DUP1 SLOAD DUP6 SWAP2 SWAP1 DUP3 SWAP1 DUP2 LT PUSH2 0x5AA JUMPI PUSH2 0x5AA PUSH2 0x3350 JUMP JUMPDEST SWAP1 PUSH1 0x0 MSTORE PUSH1 0x20 PUSH1 0x0 KECCAK256 SWAP1 PUSH1 0x2 MUL ADD PUSH1 0x0 ADD SLOAD EQ PUSH2 0x5FE JUMPI PUSH1 0x40 MLOAD PUSH3 0x461BCD PUSH1 0xE5 SHL DUP2 MSTORE PUSH1 0x20 PUSH1 0x4 DUP3 ADD MSTORE PUSH1 0x12 PUSH1 0x24 DUP3 ADD MSTORE PUSH18 0x14995C5D595CDD1CC81B9BDD08199BDD5B99 PUSH1 0x72 SHL PUSH1 0x44 DUP3 ADD MSTORE PUSH1 0x64 ADD PUSH2 0x364 JUMP JUMPDEST DUP2 ISZERO ISZERO PUSH1 0x1 SUB PUSH2 0x665 JUMPI PUSH2 0x612 CALLER DUP5 PUSH2 0x22EC JUMP JUMPDEST ISZERO ISZERO PUSH1 0x0 SUB PUSH2 0x656 JUMPI CALLER PUSH1 0x0 SWAP1 DUP2 MSTORE PUSH1 0x1 PUSH1 0x20 DUP2 DUP2 MSTORE PUSH1 0x40 DUP4 KECCAK256 PUSH1 0xB ADD DUP1 SLOAD SWAP3 DUP4 ADD DUP2 SSTORE DUP4 MSTORE SWAP1 SWAP2 KECCAK256 ADD DUP1 SLOAD PUSH1 0x1 PUSH1 0x1 PUSH1 0xA0 SHL SUB NOT AND PUSH1 0x1 PUSH1 0x1 PUSH1 0xA0 SHL SUB DUP6 AND OR SWAP1 SSTORE JUMPDEST PUSH2 0x660 DUP5 DUP5 PUSH2 0xA14 JUMP JUMPDEST PUSH2 0x66F JUMP JUMPDEST PUSH2 0x66F DUP5 DUP5 PUSH2 0xA14 JUMP JUMPDEST POP PUSH1 0x1 SWAP4 SWAP3 POP POP POP JUMP JUMPDEST PUSH1 0x40 DUP1 MLOAD DUP1 DUP3 ADD SWAP1 SWAP2 MSTORE PUSH1 0x60 DUP2 MSTORE PUSH1 0x0 PUSH1 0x20 DUP3 ADD MSTORE CALLER PUSH1 0x0 DUP2 DUP2 MSTORE PUSH1 0x2 PUSH1 0x20 MSTORE PUSH1 0x40 SWAP1 KECCAK256 PUSH1 0x1 ADD SLOAD PUSH1 0x1 PUSH1 0x1 PUSH1 0xA0 SHL SUB AND EQ PUSH2 0x6C7 JUMPI PUSH1 0x40 MLOAD PUSH3 0x461BCD PUSH1 0xE5 SHL DUP2 MSTORE PUSH1 0x4 ADD PUSH2 0x364 SWAP1 PUSH2 0x3329 JUMP JUMPDEST CALLER PUSH1 0x0 SWAP1 DUP2 MSTORE PUSH1 0x2 PUSH1 0x20 MSTORE PUSH1 0x40 SWAP1 DUP2 SWAP1 KECCAK256 DUP2 MLOAD DUP1 DUP4 ADD SWAP1 SWAP3 MSTORE DUP1 SLOAD DUP3 SWAP1 DUP3 SWAP1 PUSH2 0x6EF SWAP1 PUSH2 0x3366 JUMP JUMPDEST DUP1 PUSH1 0x1F ADD PUSH1 0x20 DUP1 SWAP2 DIV MUL PUSH1 0x20 ADD PUSH1 0x40 MLOAD SWAP1 DUP2 ADD PUSH1 0x40 MSTORE DUP1 SWAP3 SWAP2 SWAP1 DUP2 DUP2 MSTORE PUSH1 0x20 ADD DUP3 DUP1 SLOAD PUSH2 0x71B SWAP1 PUSH2 0x3366 JUMP JUMPDEST DUP1 ISZERO PUSH2 0x768 JUMPI DUP1 PUSH1 0x1F LT PUSH2 0x73D JUMPI PUSH2 0x100 DUP1 DUP4 SLOAD DIV MUL DUP4 MSTORE SWAP2 PUSH1 0x20 ADD SWAP2 PUSH2 0x768 JUMP JUMPDEST DUP3 ADD SWAP2 SWAP1 PUSH1 0x0 MSTORE PUSH1 0x20 PUSH1 0x0 KECCAK256 SWAP1 JUMPDEST DUP2 SLOAD DUP2 MSTORE SWAP1 PUSH1 0x1 ADD SWAP1 PUSH1 0x20 ADD DUP1 DUP4 GT PUSH2 0x74B JUMPI DUP3 SWAP1 SUB PUSH1 0x1F AND DUP3 ADD SWAP2 JUMPDEST POP POP POP SWAP2 DUP4 MSTORE POP POP PUSH1 0x1 SWAP2 SWAP1 SWAP2 ADD SLOAD PUSH1 0x1 PUSH1 0x1 PUSH1 0xA0 SHL SUB AND PUSH1 0x20 SWAP1 SWAP2 ADD MSTORE SWAP1 POP SWAP1 JUMP JUMPDEST CALLER PUSH1 0x0 DUP2 DUP2 MSTORE PUSH1 0x1 PUSH1 0x20 MSTORE PUSH1 0x40 SWAP1 KECCAK256 SLOAD PUSH1 0x60 SWAP2 PUSH1 0x1 PUSH1 0x1 PUSH1 0xA0 SHL SUB SWAP1 SWAP2 AND EQ PUSH2 0x7F6 JUMPI PUSH1 0x40 MLOAD PUSH3 0x461BCD PUSH1 0xE5 SHL DUP2 MSTORE PUSH1 0x20 PUSH1 0x4 DUP3 ADD MSTORE PUSH1 0x17 PUSH1 0x24 DUP3 ADD MSTORE PUSH32 0x596F7520646F6E74206861766520617574686F72697479000000000000000000 PUSH1 0x44 DUP3 ADD MSTORE PUSH1 0x64 ADD PUSH2 0x364 JUMP JUMPDEST CALLER PUSH1 0x0 SWAP1 DUP2 MSTORE PUSH1 0x1 PUSH1 0x20 SWAP1 DUP2 MSTORE PUSH1 0x40 SWAP2 DUP3 SWAP1 KECCAK256 PUSH1 0xB ADD DUP1 SLOAD DUP4 MLOAD DUP2 DUP5 MUL DUP2 ADD DUP5 ADD SWAP1 SWAP5 MSTORE DUP1 DUP5 MSTORE SWAP1 SWAP2 DUP4 ADD DUP3 DUP3 DUP1 ISZERO PUSH2 0x858 JUMPI PUSH1 0x20 MUL DUP3 ADD SWAP2 SWAP1 PUSH1 0x0 MSTORE PUSH1 0x20 PUSH1 0x0 KECCAK256 SWAP1 JUMPDEST DUP2 SLOAD PUSH1 0x1 PUSH1 0x1 PUSH1 0xA0 SHL SUB AND DUP2 MSTORE PUSH1 0x1 SWAP1 SWAP2 ADD SWAP1 PUSH1 0x20 ADD DUP1 DUP4 GT PUSH2 0x83A JUMPI JUMPDEST POP POP POP POP POP SWAP1 POP SWAP1 JUMP JUMPDEST CALLER PUSH1 0x0 DUP2 DUP2 MSTORE PUSH1 0x2 PUSH1 0x20 MSTORE PUSH1 0x40 DUP2 KECCAK256 PUSH1 0x1 ADD SLOAD SWAP1 SWAP2 PUSH1 0x1 PUSH1 0x1 PUSH1 0xA0 SHL SUB SWAP1 SWAP2 AND SUB PUSH2 0x88D JUMPI POP PUSH1 0x1 SWAP1 JUMP JUMPDEST POP PUSH1 0x0 SWAP1 JUMP JUMPDEST CALLER PUSH1 0x0 DUP2 DUP2 MSTORE PUSH1 0x2 PUSH1 0x20 MSTORE PUSH1 0x40 DUP2 KECCAK256 PUSH1 0x1 ADD SLOAD SWAP1 SWAP2 PUSH1 0x1 PUSH1 0x1 PUSH1 0xA0 SHL SUB SWAP1 SWAP2 AND EQ PUSH2 0x8D0 JUMPI PUSH1 0x40 MLOAD PUSH3 0x461BCD PUSH1 0xE5 SHL DUP2 MSTORE PUSH1 0x4 ADD PUSH2 0x364 SWAP1 PUSH2 0x3329 JUMP JUMPDEST CALLER PUSH1 0x0 DUP2 DUP2 MSTORE PUSH1 0x3 PUSH1 0x20 MSTORE PUSH1 0x40 SWAP1 KECCAK256 SLOAD PUSH1 0x1 PUSH1 0x1 PUSH1 0xA0 SHL SUB AND EQ PUSH2 0x940 JUMPI PUSH1 0x40 MLOAD PUSH3 0x461BCD PUSH1 0xE5 SHL DUP2 MSTORE PUSH1 0x20 PUSH1 0x4 DUP3 ADD MSTORE PUSH1 0x21 PUSH1 0x24 DUP3 ADD MSTORE PUSH32 0x596F7520646F6E74206861766520617574686F7269747920746F2064656C6574 PUSH1 0x44 DUP3 ADD MSTORE PUSH1 0x65 PUSH1 0xF8 SHL PUSH1 0x64 DUP3 ADD MSTORE PUSH1 0x84 ADD PUSH2 0x364 JUMP JUMPDEST CALLER PUSH1 0x0 SWAP1 DUP2 MSTORE PUSH1 0x3 PUSH1 0x20 MSTORE PUSH1 0x40 SWAP1 KECCAK256 PUSH1 0x2 ADD DUP1 SLOAD DUP4 SWAP2 SWAP1 DUP3 SWAP1 DUP2 LT PUSH2 0x967 JUMPI PUSH2 0x967 PUSH2 0x3350 JUMP JUMPDEST SWAP1 PUSH1 0x0 MSTORE PUSH1 0x20 PUSH1 0x0 KECCAK256 SWAP1 PUSH1 0x2 MUL ADD PUSH1 0x0 ADD SLOAD EQ PUSH2 0x9BD JUMPI PUSH1 0x40 MLOAD PUSH3 0x461BCD PUSH1 0xE5 SHL DUP2 MSTORE PUSH1 0x20 PUSH1 0x4 DUP3 ADD MSTORE PUSH1 0x14 PUSH1 0x24 DUP3 ADD MSTORE PUSH20 0x14995C5D595CDD08191BD95CDB9D08195E1A5CDD PUSH1 0x62 SHL PUSH1 0x44 DUP3 ADD MSTORE PUSH1 0x64 ADD PUSH2 0x364 JUMP JUMPDEST CALLER PUSH1 0x0 SWAP1 DUP2 MSTORE PUSH1 0x3 PUSH1 0x20 MSTORE PUSH1 0x40 DUP2 KECCAK256 PUSH1 0x2 ADD DUP1 SLOAD DUP5 SWAP1 DUP2 LT PUSH2 0x9E1 JUMPI PUSH2 0x9E1 PUSH2 0x3350 JUMP JUMPDEST PUSH1 0x0 SWAP2 DUP3 MSTORE PUSH1 0x20 SWAP1 SWAP2 KECCAK256 PUSH1 0x1 PUSH1 0x2 SWAP1 SWAP3 MUL ADD ADD SLOAD PUSH1 0x1 PUSH1 0x1 PUSH1 0xA0 SHL SUB AND SWAP1 POP PUSH2 0xA0B DUP4 DUP3 CALLER PUSH2 0x247E JUMP JUMPDEST POP PUSH1 0x1 SWAP3 SWAP2 POP POP JUMP JUMPDEST PUSH1 0x1 PUSH1 0x1 PUSH1 0xA0 SHL SUB DUP1 DUP3 AND PUSH1 0x0 DUP2 DUP2 MSTORE PUSH1 0x2 PUSH1 0x20 MSTORE PUSH1 0x40 SWAP1 KECCAK256 PUSH1 0x1 ADD SLOAD SWAP1 SWAP2 AND EQ PUSH2 0xA94 JUMPI PUSH1 0x40 MLOAD PUSH3 0x461BCD PUSH1 0xE5 SHL DUP2 MSTORE PUSH1 0x20 PUSH1 0x4 DUP3 ADD MSTORE PUSH1 0x2A PUSH1 0x24 DUP3 ADD MSTORE PUSH32 0x5468697320706172746963756C6172206F7267616E697A6174696F6E7320646F PUSH1 0x44 DUP3 ADD MSTORE PUSH10 0x195CDB9D08195E1A5CDD PUSH1 0xB2 SHL PUSH1 0x64 DUP3 ADD MSTORE PUSH1 0x84 ADD PUSH2 0x364 JUMP JUMPDEST PUSH1 0x1 PUSH1 0x1 PUSH1 0xA0 SHL SUB DUP2 AND PUSH1 0x0 SWAP1 DUP2 MSTORE PUSH1 0x3 PUSH1 0x20 MSTORE PUSH1 0x40 SWAP1 KECCAK256 PUSH1 0x2 ADD DUP1 SLOAD CALLER SWAP2 SWAP1 DUP5 SWAP1 DUP2 LT PUSH2 0xAC4 JUMPI PUSH2 0xAC4 PUSH2 0x3350 JUMP JUMPDEST PUSH1 0x0 SWAP2 DUP3 MSTORE PUSH1 0x20 SWAP1 SWAP2 KECCAK256 PUSH1 0x1 PUSH1 0x2 SWAP1 SWAP3 MUL ADD ADD SLOAD PUSH1 0x1 PUSH1 0x1 PUSH1 0xA0 SHL SUB AND EQ PUSH2 0xB1F JUMPI PUSH1 0x40 MLOAD PUSH3 0x461BCD PUSH1 0xE5 SHL DUP2 MSTORE PUSH1 0x20 PUSH1 0x4 DUP3 ADD MSTORE PUSH1 0xE PUSH1 0x24 DUP3 ADD MSTORE PUSH14 0x155CD95C881B9BDD081D985B1A59 PUSH1 0x92 SHL PUSH1 0x44 DUP3 ADD MSTORE PUSH1 0x64 ADD PUSH2 0x364 JUMP JUMPDEST PUSH1 0x1 PUSH1 0x1 PUSH1 0xA0 SHL SUB DUP2 AND PUSH1 0x0 SWAP1 DUP2 MSTORE PUSH1 0x3 PUSH1 0x20 MSTORE PUSH1 0x40 SWAP1 KECCAK256 PUSH1 0x2 ADD DUP1 SLOAD DUP4 SWAP2 SWAP1 DUP3 SWAP1 DUP2 LT PUSH2 0xB4F JUMPI PUSH2 0xB4F PUSH2 0x3350 JUMP JUMPDEST SWAP1 PUSH1 0x0 MSTORE PUSH1 0x20 PUSH1 0x0 KECCAK256 SWAP1 PUSH1 0x2 MUL ADD PUSH1 0x0 ADD SLOAD EQ PUSH2 0xBA5 JUMPI PUSH1 0x40 MLOAD PUSH3 0x461BCD PUSH1 0xE5 SHL DUP2 MSTORE PUSH1 0x20 PUSH1 0x4 DUP3 ADD MSTORE PUSH1 0x14 PUSH1 0x24 DUP3 ADD MSTORE PUSH20 0x14995C5D595CDD08191BD95CDB9D08195E1A5CDD PUSH1 0x62 SHL PUSH1 0x44 DUP3 ADD MSTORE PUSH1 0x64 ADD PUSH2 0x364 JUMP JUMPDEST PUSH2 0xBB0 DUP3 CALLER DUP4 PUSH2 0x247E JUMP JUMPDEST POP POP JUMP JUMPDEST PUSH1 0x40 DUP1 MLOAD DUP1 DUP3 ADD SWAP1 SWAP2 MSTORE PUSH1 0x60 DUP2 MSTORE PUSH1 0x0 PUSH1 0x20 DUP3 ADD MSTORE PUSH1 0x0 SLOAD PUSH1 0x1 PUSH1 0x1 PUSH1 0xA0 SHL SUB AND CALLER EQ PUSH2 0xBF3 JUMPI PUSH1 0x40 MLOAD PUSH3 0x461BCD PUSH1 0xE5 SHL DUP2 MSTORE PUSH1 0x4 ADD PUSH2 0x364 SWAP1 PUSH2 0x33A0 JUMP JUMPDEST PUSH1 0x1 PUSH1 0x1 PUSH1 0xA0 SHL SUB DUP1 DUP4 AND PUSH1 0x0 DUP2 DUP2 MSTORE PUSH1 0x2 PUSH1 0x20 MSTORE PUSH1 0x40 SWAP1 KECCAK256 PUSH1 0x1 ADD SLOAD SWAP1 SWAP2 AND EQ PUSH2 0xC53 JUMPI PUSH1 0x40 MLOAD PUSH3 0x461BCD PUSH1 0xE5 SHL DUP2 MSTORE PUSH1 0x20 PUSH1 0x4 DUP3 ADD MSTORE PUSH1 0x10 PUSH1 0x24 DUP3 ADD MSTORE PUSH16 0x13DC99C8191BD95CDB9D08195E1A5CDD PUSH1 0x82 SHL PUSH1 0x44 DUP3 ADD MSTORE PUSH1 0x64 ADD PUSH2 0x364 JUMP JUMPDEST PUSH1 0x1 PUSH1 0x1 PUSH1 0xA0 SHL SUB DUP3 AND PUSH1 0x0 SWAP1 DUP2 MSTORE PUSH1 0x2 PUSH1 0x20 MSTORE PUSH1 0x40 SWAP1 DUP2 SWAP1 KECCAK256 DUP2 MLOAD DUP1 DUP4 ADD SWAP1 SWAP3 MSTORE DUP1 SLOAD DUP3 SWAP1 DUP3 SWAP1 PUSH2 0xC84 SWAP1 PUSH2 0x3366 JUMP JUMPDEST DUP1 PUSH1 0x1F ADD PUSH1 0x20 DUP1 SWAP2 DIV MUL PUSH1 0x20 ADD PUSH1 0x40 MLOAD SWAP1 DUP2 ADD PUSH1 0x40 MSTORE DUP1 SWAP3 SWAP2 SWAP1 DUP2 DUP2 MSTORE PUSH1 0x20 ADD DUP3 DUP1 SLOAD PUSH2 0xCB0 SWAP1 PUSH2 0x3366 JUMP JUMPDEST DUP1 ISZERO PUSH2 0xCFD JUMPI DUP1 PUSH1 0x1F LT PUSH2 0xCD2 JUMPI PUSH2 0x100 DUP1 DUP4 SLOAD DIV MUL DUP4 MSTORE SWAP2 PUSH1 0x20 ADD SWAP2 PUSH2 0xCFD JUMP JUMPDEST DUP3 ADD SWAP2 SWAP1 PUSH1 0x0 MSTORE PUSH1 0x20 PUSH1 0x0 KECCAK256 SWAP1 JUMPDEST DUP2 SLOAD DUP2 MSTORE SWAP1 PUSH1 0x1 ADD SWAP1 PUSH1 0x20 ADD DUP1 DUP4 GT PUSH2 0xCE0 JUMPI DUP3 SWAP1 SUB PUSH1 0x1F AND DUP3 ADD SWAP2 JUMPDEST POP POP POP SWAP2 DUP4 MSTORE POP POP PUSH1 0x1 SWAP2 SWAP1 SWAP2 ADD SLOAD PUSH1 0x1 PUSH1 0x1 PUSH1 0xA0 SHL SUB AND PUSH1 0x20 SWAP1 SWAP2 ADD MSTORE SWAP3 SWAP2 POP POP JUMP JUMPDEST PUSH1 0x0 DUP1 SLOAD PUSH1 0x1 PUSH1 0x1 PUSH1 0xA0 SHL SUB AND CALLER EQ PUSH2 0xD4C JUMPI PUSH1 0x40 MLOAD PUSH3 0x461BCD PUSH1 0xE5 SHL DUP2 MSTORE PUSH1 0x4 ADD PUSH2 0x364 SWAP1 PUSH2 0x33A0 JUMP JUMPDEST PUSH1 0x1 PUSH1 0x1 PUSH1 0xA0 SHL SUB DUP1 DUP4 AND PUSH1 0x0 DUP2 DUP2 MSTORE PUSH1 0x2 PUSH1 0x20 MSTORE PUSH1 0x40 SWAP1 KECCAK256 PUSH1 0x1 ADD SLOAD SWAP1 SWAP2 AND SUB PUSH2 0xDAD JUMPI PUSH1 0x40 MLOAD PUSH3 0x461BCD PUSH1 0xE5 SHL DUP2 MSTORE PUSH1 0x20 PUSH1 0x4 DUP3 ADD MSTORE PUSH1 0x11 PUSH1 0x24 DUP3 ADD MSTORE PUSH17 0x13DC99C8185B1C9958591E481859191959 PUSH1 0x7A SHL PUSH1 0x44 DUP3 ADD MSTORE PUSH1 0x64 ADD PUSH2 0x364 JUMP JUMPDEST PUSH1 0x40 DUP1 MLOAD DUP1 DUP3 ADD DUP3 MSTORE DUP5 DUP2 MSTORE PUSH1 0x1 PUSH1 0x1 PUSH1 0xA0 SHL SUB DUP5 AND PUSH1 0x20 DUP1 DUP4 ADD DUP3 SWAP1 MSTORE PUSH1 0x0 SWAP2 DUP3 MSTORE PUSH1 0x2 SWAP1 MSTORE SWAP2 SWAP1 SWAP2 KECCAK256 DUP2 MLOAD DUP2 SWAP1 PUSH2 0xDE6 SWAP1 DUP3 PUSH2 0x3413 JUMP JUMPDEST POP PUSH1 0x20 SWAP2 DUP3 ADD MLOAD PUSH1 0x1 SWAP2 DUP3 ADD DUP1 SLOAD PUSH1 0x1 PUSH1 0x1 PUSH1 0xA0 SHL SUB SWAP3 DUP4 AND PUSH1 0x1 PUSH1 0x1 PUSH1 0xA0 SHL SUB NOT SWAP2 DUP3 AND OR SWAP1 SWAP2 SSTORE SWAP1 DUP6 AND PUSH1 0x0 DUP2 DUP2 MSTORE PUSH1 0x3 SWAP1 SWAP5 MSTORE PUSH1 0x40 DUP1 DUP6 KECCAK256 DUP1 SLOAD SWAP1 SWAP4 AND SWAP1 SWAP2 OR DUP3 SSTORE SWAP2 ADD SWAP2 SWAP1 SWAP2 SSTORE MLOAD PUSH32 0x19CB05BCB9F3A5AA3801619041099231656235762A3599EED02CDCAC38FACD1C SWAP1 PUSH2 0xE61 SWAP1 DUP6 SWAP1 DUP6 SWAP1 PUSH2 0x34D2 JUMP JUMPDEST PUSH1 0x40 MLOAD DUP1 SWAP2 SUB SWAP1 LOG1 POP PUSH1 0x1 JUMPDEST SWAP3 SWAP2 POP POP JUMP JUMPDEST PUSH1 0x0 DUP1 SLOAD PUSH1 0x1 PUSH1 0x1 PUSH1 0xA0 SHL SUB AND CALLER EQ PUSH2 0xE9E JUMPI PUSH1 0x40 MLOAD PUSH3 0x461BCD PUSH1 0xE5 SHL DUP2 MSTORE PUSH1 0x4 ADD PUSH2 0x364 SWAP1 PUSH2 0x33A0 JUMP JUMPDEST PUSH1 0x1 PUSH1 0x1 PUSH1 0xA0 SHL SUB DUP1 DUP4 AND PUSH1 0x0 DUP2 DUP2 MSTORE PUSH1 0x2 PUSH1 0x20 MSTORE PUSH1 0x40 SWAP1 KECCAK256 PUSH1 0x1 ADD SLOAD SWAP1 SWAP2 AND EQ PUSH2 0xEFE JUMPI PUSH1 0x40 MLOAD PUSH3 0x461BCD PUSH1 0xE5 SHL DUP2 MSTORE PUSH1 0x20 PUSH1 0x4 DUP3 ADD MSTORE PUSH1 0x10 PUSH1 0x24 DUP3 ADD MSTORE PUSH16 0x13DC99C8191BD95CDB9D08195E1A5CDD PUSH1 0x82 SHL PUSH1 0x44 DUP3 ADD MSTORE PUSH1 0x64 ADD PUSH2 0x364 JUMP JUMPDEST PUSH1 0x1 PUSH1 0x1 PUSH1 0xA0 SHL SUB DUP3 AND PUSH1 0x0 SWAP1 DUP2 MSTORE PUSH1 0x2 PUSH1 0x20 MSTORE PUSH1 0x40 DUP2 KECCAK256 SWAP1 PUSH2 0xF21 DUP3 DUP3 PUSH2 0x2B95 JUMP JUMPDEST POP PUSH1 0x1 ADD DUP1 SLOAD PUSH1 0x1 PUSH1 0x1 PUSH1 0xA0 SHL SUB NOT AND SWAP1 SSTORE PUSH1 0x40 MLOAD PUSH1 0x1 PUSH1 0x1 PUSH1 0xA0 SHL SUB DUP4 AND DUP2 MSTORE PUSH32 0x4630061DF51C52D44A3987B904C6FF220DA2CBDEFF03CE8750CD14652CAE0C6C SWAP1 PUSH1 0x20 ADD PUSH1 0x40 MLOAD DUP1 SWAP2 SUB SWAP1 LOG1 POP PUSH1 0x1 SWAP2 SWAP1 POP JUMP JUMPDEST CALLER PUSH1 0x0 DUP2 DUP2 MSTORE PUSH1 0x2 PUSH1 0x20 MSTORE PUSH1 0x40 DUP2 KECCAK256 PUSH1 0x1 ADD SLOAD SWAP1 SWAP2 PUSH1 0x1 PUSH1 0x1 PUSH1 0xA0 SHL SUB SWAP1 SWAP2 AND EQ PUSH2 0xFB4 JUMPI PUSH1 0x40 MLOAD PUSH3 0x461BCD PUSH1 0xE5 SHL DUP2 MSTORE PUSH1 0x4 ADD PUSH2 0x364 SWAP1 PUSH2 0x3329 JUMP JUMPDEST PUSH1 0x1 PUSH1 0x1 PUSH1 0xA0 SHL SUB DUP1 DUP4 AND PUSH1 0x0 DUP2 DUP2 MSTORE PUSH1 0x1 PUSH1 0x20 MSTORE PUSH1 0x40 SWAP1 KECCAK256 SLOAD SWAP1 SWAP2 AND EQ PUSH2 0x1017 JUMPI PUSH1 0x40 MLOAD PUSH3 0x461BCD PUSH1 0xE5 SHL DUP2 MSTORE PUSH1 0x20 PUSH1 0x4 DUP3 ADD MSTORE PUSH1 0x16 PUSH1 0x24 DUP3 ADD MSTORE PUSH22 0x437573746F6D657220646F65736E7420657869737473 PUSH1 0x50 SHL PUSH1 0x44 DUP3 ADD MSTORE PUSH1 0x64 ADD PUSH2 0x364 JUMP JUMPDEST PUSH2 0x1021 DUP3 CALLER PUSH2 0x22EC JUMP JUMPDEST ISZERO PUSH2 0x1064 JUMPI PUSH1 0x40 MLOAD PUSH3 0x461BCD PUSH1 0xE5 SHL DUP2 MSTORE PUSH1 0x20 PUSH1 0x4 DUP3 ADD MSTORE PUSH1 0x13 PUSH1 0x24 DUP3 ADD MSTORE PUSH19 0x416C7265616479206861766520616363657373 PUSH1 0x68 SHL PUSH1 0x44 DUP3 ADD MSTORE PUSH1 0x64 ADD PUSH2 0x364 JUMP JUMPDEST PUSH2 0x106D DUP3 PUSH2 0x2836 JUMP JUMPDEST ISZERO PUSH2 0x10B3 JUMPI PUSH1 0x40 MLOAD PUSH3 0x461BCD PUSH1 0xE5 SHL DUP2 MSTORE PUSH1 0x20 PUSH1 0x4 DUP3 ADD MSTORE PUSH1 0x16 PUSH1 0x24 DUP3 ADD MSTORE PUSH22 0x5265717565737420416C726561647920457869737473 PUSH1 0x50 SHL PUSH1 0x44 DUP3 ADD MSTORE PUSH1 0x64 ADD PUSH2 0x364 JUMP JUMPDEST CALLER PUSH1 0x0 DUP2 DUP2 MSTORE PUSH1 0x3 PUSH1 0x20 DUP2 DUP2 MSTORE PUSH1 0x40 DUP1 DUP5 KECCAK256 DUP2 MLOAD DUP1 DUP4 ADD DUP4 MSTORE PUSH1 0x1 DUP1 DUP4 ADD DUP1 SLOAD DUP4 MSTORE PUSH1 0x1 PUSH1 0x1 PUSH1 0xA0 SHL SUB DUP12 DUP2 AND DUP5 DUP9 ADD DUP2 DUP2 MSTORE PUSH1 0x2 SWAP7 DUP8 ADD DUP1 SLOAD DUP1 DUP8 ADD DUP3 SSTORE SWAP1 DUP13 MSTORE DUP10 DUP13 KECCAK256 SWAP7 MLOAD SWAP1 DUP9 MUL SWAP1 SWAP7 ADD SWAP6 DUP7 SSTORE MLOAD SWAP5 DUP5 ADD DUP1 SLOAD SWAP6 DUP4 AND PUSH1 0x1 PUSH1 0x1 PUSH1 0xA0 SHL SUB NOT SWAP7 DUP8 AND OR SWAP1 SSTORE DUP10 MSTORE PUSH1 0x4 DUP8 MSTORE DUP6 DUP10 KECCAK256 DUP7 MLOAD DUP1 DUP9 ADD SWAP1 SWAP8 MSTORE DUP9 DUP9 MSTORE DUP3 SLOAD DUP8 MSTORE DUP7 DUP9 ADD DUP12 DUP2 MSTORE DUP2 SLOAD DUP1 DUP7 ADD DUP4 SSTORE SWAP2 DUP12 MSTORE DUP9 DUP12 KECCAK256 SWAP8 MLOAD SWAP2 SWAP1 SWAP7 MUL SWAP1 SWAP7 ADD SWAP6 DUP7 SSTORE SWAP4 MLOAD SWAP5 SWAP1 SWAP2 ADD DUP1 SLOAD SWAP5 SWAP1 SWAP4 AND SWAP4 SWAP1 SWAP2 AND SWAP3 SWAP1 SWAP3 OR SWAP1 SSTORE SWAP4 DUP4 MSTORE MSTORE DUP2 SLOAD SWAP2 SWAP1 PUSH2 0x1179 DUP4 PUSH2 0x3512 JUMP JUMPDEST SWAP1 SWAP2 SSTORE POP PUSH1 0x1 SWAP4 SWAP3 POP POP POP JUMP JUMPDEST PUSH1 0x60 PUSH2 0x1190 PUSH2 0x2064 JUMP JUMPDEST PUSH2 0x11D1 JUMPI PUSH1 0x40 MLOAD PUSH3 0x461BCD PUSH1 0xE5 SHL DUP2 MSTORE PUSH1 0x20 PUSH1 0x4 DUP3 ADD MSTORE PUSH1 0x12 PUSH1 0x24 DUP3 ADD MSTORE PUSH18 0x10DD5CDD1BDB595C881B9BDD081D985B1A59 PUSH1 0x72 SHL PUSH1 0x44 DUP3 ADD MSTORE PUSH1 0x64 ADD PUSH2 0x364 JUMP JUMPDEST CALLER PUSH1 0x0 SWAP1 DUP2 MSTORE PUSH1 0x4 PUSH1 0x20 MSTORE PUSH1 0x40 DUP2 KECCAK256 SLOAD PUSH1 0x1 PUSH1 0x1 PUSH1 0x40 SHL SUB DUP2 GT ISZERO PUSH2 0x11F8 JUMPI PUSH2 0x11F8 PUSH2 0x2D85 JUMP JUMPDEST PUSH1 0x40 MLOAD SWAP1 DUP1 DUP3 MSTORE DUP1 PUSH1 0x20 MUL PUSH1 0x20 ADD DUP3 ADD PUSH1 0x40 MSTORE DUP1 ISZERO PUSH2 0x123D JUMPI DUP2 PUSH1 0x20 ADD JUMPDEST PUSH1 0x40 DUP1 MLOAD DUP1 DUP3 ADD SWAP1 SWAP2 MSTORE PUSH1 0x0 DUP1 DUP3 MSTORE PUSH1 0x20 DUP3 ADD MSTORE DUP2 MSTORE PUSH1 0x20 ADD SWAP1 PUSH1 0x1 SWAP1 SUB SWAP1 DUP2 PUSH2 0x1216 JUMPI SWAP1 POP JUMPDEST POP SWAP1 POP PUSH1 0x0 DUP1 JUMPDEST CALLER PUSH1 0x0 SWAP1 DUP2 MSTORE PUSH1 0x4 PUSH1 0x20 MSTORE PUSH1 0x40 SWAP1 KECCAK256 SLOAD DUP2 LT ISZERO PUSH2 0x12EF JUMPI CALLER PUSH1 0x0 SWAP1 DUP2 MSTORE PUSH1 0x4 PUSH1 0x20 MSTORE PUSH1 0x40 SWAP1 KECCAK256 DUP1 SLOAD DUP3 SWAP1 DUP2 LT PUSH2 0x127C JUMPI PUSH2 0x127C PUSH2 0x3350 JUMP JUMPDEST PUSH1 0x0 SWAP2 DUP3 MSTORE PUSH1 0x20 SWAP2 DUP3 SWAP1 KECCAK256 PUSH1 0x40 DUP1 MLOAD DUP1 DUP3 ADD SWAP1 SWAP2 MSTORE PUSH1 0x2 SWAP1 SWAP3 MUL ADD DUP1 SLOAD DUP3 MSTORE PUSH1 0x1 ADD SLOAD PUSH1 0x1 PUSH1 0x1 PUSH1 0xA0 SHL SUB AND SWAP2 DUP2 ADD SWAP2 SWAP1 SWAP2 MSTORE DUP4 MLOAD DUP5 SWAP1 DUP5 SWAP1 DUP2 LT PUSH2 0x12C3 JUMPI PUSH2 0x12C3 PUSH2 0x3350 JUMP JUMPDEST PUSH1 0x20 MUL PUSH1 0x20 ADD ADD DUP2 SWAP1 MSTORE POP DUP2 DUP1 PUSH2 0x12D9 SWAP1 PUSH2 0x3512 JUMP JUMPDEST SWAP3 POP POP DUP1 DUP1 PUSH2 0x12E7 SWAP1 PUSH2 0x3512 JUMP JUMPDEST SWAP2 POP POP PUSH2 0x1244 JUMP JUMPDEST POP SWAP1 SWAP3 SWAP2 POP POP JUMP JUMPDEST PUSH2 0x136D PUSH1 0x40 MLOAD DUP1 PUSH2 0x1A0 ADD PUSH1 0x40 MSTORE DUP1 PUSH1 0x0 PUSH1 0x1 PUSH1 0x1 PUSH1 0xA0 SHL SUB AND DUP2 MSTORE PUSH1 0x20 ADD PUSH1 0x60 DUP2 MSTORE PUSH1 0x20 ADD PUSH1 0x60 DUP2 MSTORE PUSH1 0x20 ADD PUSH1 0x60 DUP2 MSTORE PUSH1 0x20 ADD PUSH1 0x60 DUP2 MSTORE PUSH1 0x20 ADD PUSH1 0x60 DUP2 MSTORE PUSH1 0x20 ADD PUSH1 0x60 DUP2 MSTORE PUSH1 0x20 ADD PUSH1 0x60 DUP2 MSTORE PUSH1 0x20 ADD PUSH1 0x60 DUP2 MSTORE PUSH1 0x20 ADD PUSH1 0x0 DUP2 MSTORE PUSH1 0x20 ADD PUSH1 0x0 DUP2 MSTORE PUSH1 0x20 ADD PUSH1 0x60 DUP2 MSTORE PUSH1 0x20 ADD PUSH1 0x0 ISZERO ISZERO DUP2 MSTORE POP SWAP1 JUMP JUMPDEST PUSH2 0x1375 PUSH2 0x2064 JUMP JUMPDEST PUSH2 0x13B6 JUMPI PUSH1 0x40 MLOAD PUSH3 0x461BCD PUSH1 0xE5 SHL DUP2 MSTORE PUSH1 0x20 PUSH1 0x4 DUP3 ADD MSTORE PUSH1 0x12 PUSH1 0x24 DUP3 ADD MSTORE PUSH18 0x10DD5CDD1BDB595C881B9BDD081D985B1A59 PUSH1 0x72 SHL PUSH1 0x44 DUP3 ADD MSTORE PUSH1 0x64 ADD PUSH2 0x364 JUMP JUMPDEST CALLER PUSH1 0x0 SWAP1 DUP2 MSTORE PUSH1 0x1 PUSH1 0x20 DUP2 DUP2 MSTORE PUSH1 0x40 SWAP3 DUP4 SWAP1 KECCAK256 DUP4 MLOAD PUSH2 0x1A0 DUP2 ADD SWAP1 SWAP5 MSTORE DUP1 SLOAD PUSH1 0x1 PUSH1 0x1 PUSH1 0xA0 SHL SUB AND DUP5 MSTORE SWAP2 DUP3 ADD DUP1 SLOAD SWAP2 DUP5 ADD SWAP2 PUSH2 0x13F2 SWAP1 PUSH2 0x3366 JUMP JUMPDEST DUP1 PUSH1 0x1F ADD PUSH1 0x20 DUP1 SWAP2 DIV MUL PUSH1 0x20 ADD PUSH1 0x40 MLOAD SWAP1 DUP2 ADD PUSH1 0x40 MSTORE DUP1 SWAP3 SWAP2 SWAP1 DUP2 DUP2 MSTORE PUSH1 0x20 ADD DUP3 DUP1 SLOAD PUSH2 0x141E SWAP1 PUSH2 0x3366 JUMP JUMPDEST DUP1 ISZERO PUSH2 0x146B JUMPI DUP1 PUSH1 0x1F LT PUSH2 0x1440 JUMPI PUSH2 0x100 DUP1 DUP4 SLOAD DIV MUL DUP4 MSTORE SWAP2 PUSH1 0x20 ADD SWAP2 PUSH2 0x146B JUMP JUMPDEST DUP3 ADD SWAP2 SWAP1 PUSH1 0x0 MSTORE PUSH1 0x20 PUSH1 0x0 KECCAK256 SWAP1 JUMPDEST DUP2 SLOAD DUP2 MSTORE SWAP1 PUSH1 0x1 ADD SWAP1 PUSH1 0x20 ADD DUP1 DUP4 GT PUSH2 0x144E JUMPI DUP3 SWAP1 SUB PUSH1 0x1F AND DUP3 ADD SWAP2 JUMPDEST POP POP POP POP POP DUP2 MSTORE PUSH1 0x20 ADD PUSH1 0x2 DUP3 ADD DUP1 SLOAD PUSH2 0x1484 SWAP1 PUSH2 0x3366 JUMP JUMPDEST DUP1 PUSH1 0x1F ADD PUSH1 0x20 DUP1 SWAP2 DIV MUL PUSH1 0x20 ADD PUSH1 0x40 MLOAD SWAP1 DUP2 ADD PUSH1 0x40 MSTORE DUP1 SWAP3 SWAP2 SWAP1 DUP2 DUP2 MSTORE PUSH1 0x20 ADD DUP3 DUP1 SLOAD PUSH2 0x14B0 SWAP1 PUSH2 0x3366 JUMP JUMPDEST DUP1 ISZERO PUSH2 0x14FD JUMPI DUP1 PUSH1 0x1F LT PUSH2 0x14D2 JUMPI PUSH2 0x100 DUP1 DUP4 SLOAD DIV MUL DUP4 MSTORE SWAP2 PUSH1 0x20 ADD SWAP2 PUSH2 0x14FD JUMP JUMPDEST DUP3 ADD SWAP2 SWAP1 PUSH1 0x0 MSTORE PUSH1 0x20 PUSH1 0x0 KECCAK256 SWAP1 JUMPDEST DUP2 SLOAD DUP2 MSTORE SWAP1 PUSH1 0x1 ADD SWAP1 PUSH1 0x20 ADD DUP1 DUP4 GT PUSH2 0x14E0 JUMPI DUP3 SWAP1 SUB PUSH1 0x1F AND DUP3 ADD SWAP2 JUMPDEST POP POP POP POP POP DUP2 MSTORE PUSH1 0x20 ADD PUSH1 0x3 DUP3 ADD DUP1 SLOAD PUSH2 0x1516 SWAP1 PUSH2 0x3366 JUMP JUMPDEST DUP1 PUSH1 0x1F ADD PUSH1 0x20 DUP1 SWAP2 DIV MUL PUSH1 0x20 ADD PUSH1 0x40 MLOAD SWAP1 DUP2 ADD PUSH1 0x40 MSTORE DUP1 SWAP3 SWAP2 SWAP1 DUP2 DUP2 MSTORE PUSH1 0x20 ADD DUP3 DUP1 SLOAD PUSH2 0x1542 SWAP1 PUSH2 0x3366 JUMP JUMPDEST DUP1 ISZERO PUSH2 0x158F JUMPI DUP1 PUSH1 0x1F LT PUSH2 0x1564 JUMPI PUSH2 0x100 DUP1 DUP4 SLOAD DIV MUL DUP4 MSTORE SWAP2 PUSH1 0x20 ADD SWAP2 PUSH2 0x158F JUMP JUMPDEST DUP3 ADD SWAP2 SWAP1 PUSH1 0x0 MSTORE PUSH1 0x20 PUSH1 0x0 KECCAK256 SWAP1 JUMPDEST DUP2 SLOAD DUP2 MSTORE SWAP1 PUSH1 0x1 ADD SWAP1 PUSH1 0x20 ADD DUP1 DUP4 GT PUSH2 0x1572 JUMPI DUP3 SWAP1 SUB PUSH1 0x1F AND DUP3 ADD SWAP2 JUMPDEST POP POP POP POP POP DUP2 MSTORE PUSH1 0x20 ADD PUSH1 0x4 DUP3 ADD DUP1 SLOAD PUSH2 0x15A8 SWAP1 PUSH2 0x3366 JUMP JUMPDEST DUP1 PUSH1 0x1F ADD PUSH1 0x20 DUP1 SWAP2 DIV MUL PUSH1 0x20 ADD PUSH1 0x40 MLOAD SWAP1 DUP2 ADD PUSH1 0x40 MSTORE DUP1 SWAP3 SWAP2 SWAP1 DUP2 DUP2 MSTORE PUSH1 0x20 ADD DUP3 DUP1 SLOAD PUSH2 0x15D4 SWAP1 PUSH2 0x3366 JUMP JUMPDEST DUP1 ISZERO PUSH2 0x1621 JUMPI DUP1 PUSH1 0x1F LT PUSH2 0x15F6 JUMPI PUSH2 0x100 DUP1 DUP4 SLOAD DIV MUL DUP4 MSTORE SWAP2 PUSH1 0x20 ADD SWAP2 PUSH2 0x1621 JUMP JUMPDEST DUP3 ADD SWAP2 SWAP1 PUSH1 0x0 MSTORE PUSH1 0x20 PUSH1 0x0 KECCAK256 SWAP1 JUMPDEST DUP2 SLOAD DUP2 MSTORE SWAP1 PUSH1 0x1 ADD SWAP1 PUSH1 0x20 ADD DUP1 DUP4 GT PUSH2 0x1604 JUMPI DUP3 SWAP1 SUB PUSH1 0x1F AND DUP3 ADD SWAP2 JUMPDEST POP POP POP POP POP DUP2 MSTORE PUSH1 0x20 ADD PUSH1 0x5 DUP3 ADD DUP1 SLOAD PUSH2 0x163A SWAP1 PUSH2 0x3366 JUMP JUMPDEST DUP1 PUSH1 0x1F ADD PUSH1 0x20 DUP1 SWAP2 DIV MUL PUSH1 0x20 ADD PUSH1 0x40 MLOAD SWAP1 DUP2 ADD PUSH1 0x40 MSTORE DUP1 SWAP3 SWAP2 SWAP1 DUP2 DUP2 MSTORE PUSH1 0x20 ADD DUP3 DUP1 SLOAD PUSH2 0x1666 SWAP1 PUSH2 0x3366 JUMP JUMPDEST DUP1 ISZERO PUSH2 0x16B3 JUMPI DUP1 PUSH1 0x1F LT PUSH2 0x1688 JUMPI PUSH2 0x100 DUP1 DUP4 SLOAD DIV MUL DUP4 MSTORE SWAP2 PUSH1 0x20 ADD SWAP2 PUSH2 0x16B3 JUMP JUMPDEST DUP3 ADD SWAP2 SWAP1 PUSH1 0x0 MSTORE PUSH1 0x20 PUSH1 0x0 KECCAK256 SWAP1 JUMPDEST DUP2 SLOAD DUP2 MSTORE SWAP1 PUSH1 0x1 ADD SWAP1 PUSH1 0x20 ADD DUP1 DUP4 GT PUSH2 0x1696 JUMPI DUP3 SWAP1 SUB PUSH1 0x1F AND DUP3 ADD SWAP2 JUMPDEST POP POP POP POP POP DUP2 MSTORE PUSH1 0x20 ADD PUSH1 0x6 DUP3 ADD DUP1 SLOAD PUSH2 0x16CC SWAP1 PUSH2 0x3366 JUMP JUMPDEST DUP1 PUSH1 0x1F ADD PUSH1 0x20 DUP1 SWAP2 DIV MUL PUSH1 0x20 ADD PUSH1 0x40 MLOAD SWAP1 DUP2 ADD PUSH1 0x40 MSTORE DUP1 SWAP3 SWAP2 SWAP1 DUP2 DUP2 MSTORE PUSH1 0x20 ADD DUP3 DUP1 SLOAD PUSH2 0x16F8 SWAP1 PUSH2 0x3366 JUMP JUMPDEST DUP1 ISZERO PUSH2 0x1745 JUMPI DUP1 PUSH1 0x1F LT PUSH2 0x171A JUMPI PUSH2 0x100 DUP1 DUP4 SLOAD DIV MUL DUP4 MSTORE SWAP2 PUSH1 0x20 ADD SWAP2 PUSH2 0x1745 JUMP JUMPDEST DUP3 ADD SWAP2 SWAP1 PUSH1 0x0 MSTORE PUSH1 0x20 PUSH1 0x0 KECCAK256 SWAP1 JUMPDEST DUP2 SLOAD DUP2 MSTORE SWAP1 PUSH1 0x1 ADD SWAP1 PUSH1 0x20 ADD DUP1 DUP4 GT PUSH2 0x1728 JUMPI DUP3 SWAP1 SUB PUSH1 0x1F AND DUP3 ADD SWAP2 JUMPDEST POP POP POP POP POP DUP2 MSTORE PUSH1 0x20 ADD PUSH1 0x7 DUP3 ADD DUP1 SLOAD PUSH2 0x175E SWAP1 PUSH2 0x3366 JUMP JUMPDEST DUP1 PUSH1 0x1F ADD PUSH1 0x20 DUP1 SWAP2 DIV MUL PUSH1 0x20 ADD PUSH1 0x40 MLOAD SWAP1 DUP2 ADD PUSH1 0x40 MSTORE DUP1 SWAP3 SWAP2 SWAP1 DUP2 DUP2 MSTORE PUSH1 0x20 ADD DUP3 DUP1 SLOAD PUSH2 0x178A SWAP1 PUSH2 0x3366 JUMP JUMPDEST DUP1 ISZERO PUSH2 0x17D7 JUMPI DUP1 PUSH1 0x1F LT PUSH2 0x17AC JUMPI PUSH2 0x100 DUP1 DUP4 SLOAD DIV MUL DUP4 MSTORE SWAP2 PUSH1 0x20 ADD SWAP2 PUSH2 0x17D7 JUMP JUMPDEST DUP3 ADD SWAP2 SWAP1 PUSH1 0x0 MSTORE PUSH1 0x20 PUSH1 0x0 KECCAK256 SWAP1 JUMPDEST DUP2 SLOAD DUP2 MSTORE SWAP1 PUSH1 0x1 ADD SWAP1 PUSH1 0x20 ADD DUP1 DUP4 GT PUSH2 0x17BA JUMPI DUP3 SWAP1 SUB PUSH1 0x1F AND DUP3 ADD SWAP2 JUMPDEST POP POP POP POP POP DUP2 MSTORE PUSH1 0x20 ADD PUSH1 0x8 DUP3 ADD DUP1 SLOAD PUSH2 0x17F0 SWAP1 PUSH2 0x3366 JUMP JUMPDEST DUP1 PUSH1 0x1F ADD PUSH1 0x20 DUP1 SWAP2 DIV MUL PUSH1 0x20 ADD PUSH1 0x40 MLOAD SWAP1 DUP2 ADD PUSH1 0x40 MSTORE DUP1 SWAP3 SWAP2 SWAP1 DUP2 DUP2 MSTORE PUSH1 0x20 ADD DUP3 DUP1 SLOAD PUSH2 0x181C SWAP1 PUSH2 0x3366 JUMP JUMPDEST DUP1 ISZERO PUSH2 0x1869 JUMPI DUP1 PUSH1 0x1F LT PUSH2 0x183E JUMPI PUSH2 0x100 DUP1 DUP4 SLOAD DIV MUL DUP4 MSTORE SWAP2 PUSH1 0x20 ADD SWAP2 PUSH2 0x1869 JUMP JUMPDEST DUP3 ADD SWAP2 SWAP1 PUSH1 0x0 MSTORE PUSH1 0x20 PUSH1 0x0 KECCAK256 SWAP1 JUMPDEST DUP2 SLOAD DUP2 MSTORE SWAP1 PUSH1 0x1 ADD SWAP1 PUSH1 0x20 ADD DUP1 DUP4 GT PUSH2 0x184C JUMPI DUP3 SWAP1 SUB PUSH1 0x1F AND DUP3 ADD SWAP2 JUMPDEST POP POP POP POP POP DUP2 MSTORE PUSH1 0x20 ADD PUSH1 0x9 DUP3 ADD SLOAD DUP2 MSTORE PUSH1 0x20 ADD PUSH1 0xA DUP3 ADD SLOAD DUP2 MSTORE PUSH1 0x20 ADD PUSH1 0xB DUP3 ADD DUP1 SLOAD DUP1 PUSH1 0x20 MUL PUSH1 0x20 ADD PUSH1 0x40 MLOAD SWAP1 DUP2 ADD PUSH1 0x40 MSTORE DUP1 SWAP3 SWAP2 SWAP1 DUP2 DUP2 MSTORE PUSH1 0x20 ADD DUP3 DUP1 SLOAD DUP1 ISZERO PUSH2 0x18DF JUMPI PUSH1 0x20 MUL DUP3 ADD SWAP2 SWAP1 PUSH1 0x0 MSTORE PUSH1 0x20 PUSH1 0x0 KECCAK256 SWAP1 JUMPDEST DUP2 SLOAD PUSH1 0x1 PUSH1 0x1 PUSH1 0xA0 SHL SUB AND DUP2 MSTORE PUSH1 0x1 SWAP1 SWAP2 ADD SWAP1 PUSH1 0x20 ADD DUP1 DUP4 GT PUSH2 0x18C1 JUMPI JUMPDEST POP POP POP SWAP2 DUP4 MSTORE POP POP PUSH1 0xC SWAP2 SWAP1 SWAP2 ADD SLOAD PUSH1 0xFF AND ISZERO ISZERO PUSH1 0x20 SWAP1 SWAP2 ADD MSTORE SWAP2 SWAP1 POP JUMP JUMPDEST PUSH1 0x0 DUP1 SLOAD CALLER PUSH1 0x1 PUSH1 0x1 PUSH1 0xA0 SHL SUB SWAP1 SWAP2 AND SUB PUSH2 0x88D JUMPI POP PUSH1 0x1 SWAP1 JUMP JUMPDEST PUSH1 0x60 DUP1 PUSH1 0x60 DUP1 PUSH1 0x60 DUP1 PUSH1 0x60 DUP1 PUSH1 0x0 DUP1 PUSH1 0x0 PUSH2 0x1934 DUP13 CALLER PUSH2 0x22EC JUMP JUMPDEST PUSH2 0x1980 JUMPI PUSH1 0x40 MLOAD PUSH3 0x461BCD PUSH1 0xE5 SHL DUP2 MSTORE PUSH1 0x20 PUSH1 0x4 DUP3 ADD MSTORE PUSH1 0x1E PUSH1 0x24 DUP3 ADD MSTORE PUSH32 0x55736572206861736E7420676976656E20746865697220636F6E73656E740000 PUSH1 0x44 DUP3 ADD MSTORE PUSH1 0x64 ADD PUSH2 0x364 JUMP JUMPDEST PUSH1 0x1 PUSH1 0x1 PUSH1 0xA0 SHL SUB DUP1 DUP14 AND PUSH1 0x0 SWAP1 DUP2 MSTORE PUSH1 0x1 PUSH1 0x20 DUP2 DUP2 MSTORE PUSH1 0x40 DUP1 DUP5 KECCAK256 DUP2 MLOAD PUSH2 0x1A0 DUP2 ADD SWAP1 SWAP3 MSTORE DUP1 SLOAD SWAP1 SWAP6 AND DUP2 MSTORE SWAP2 DUP5 ADD DUP1 SLOAD SWAP4 SWAP5 SWAP3 SWAP4 SWAP2 DUP5 ADD SWAP2 PUSH2 0x19C3 SWAP1 PUSH2 0x3366 JUMP JUMPDEST DUP1 PUSH1 0x1F ADD PUSH1 0x20 DUP1 SWAP2 DIV MUL PUSH1 0x20 ADD PUSH1 0x40 MLOAD SWAP1 DUP2 ADD PUSH1 0x40 MSTORE DUP1 SWAP3 SWAP2 SWAP1 DUP2 DUP2 MSTORE PUSH1 0x20 ADD DUP3 DUP1 SLOAD PUSH2 0x19EF SWAP1 PUSH2 0x3366 JUMP JUMPDEST DUP1 ISZERO PUSH2 0x1A3C JUMPI DUP1 PUSH1 0x1F LT PUSH2 0x1A11 JUMPI PUSH2 0x100 DUP1 DUP4 SLOAD DIV MUL DUP4 MSTORE SWAP2 PUSH1 0x20 ADD SWAP2 PUSH2 0x1A3C JUMP JUMPDEST DUP3 ADD SWAP2 SWAP1 PUSH1 0x0 MSTORE PUSH1 0x20 PUSH1 0x0 KECCAK256 SWAP1 JUMPDEST DUP2 SLOAD DUP2 MSTORE SWAP1 PUSH1 0x1 ADD SWAP1 PUSH1 0x20 ADD DUP1 DUP4 GT PUSH2 0x1A1F JUMPI DUP3 SWAP1 SUB PUSH1 0x1F AND DUP3 ADD SWAP2 JUMPDEST POP POP POP POP POP DUP2 MSTORE PUSH1 0x20 ADD PUSH1 0x2 DUP3 ADD DUP1 SLOAD PUSH2 0x1A55 SWAP1 PUSH2 0x3366 JUMP JUMPDEST DUP1 PUSH1 0x1F ADD PUSH1 0x20 DUP1 SWAP2 DIV MUL PUSH1 0x20 ADD PUSH1 0x40 MLOAD SWAP1 DUP2 ADD PUSH1 0x40 MSTORE DUP1 SWAP3 SWAP2 SWAP1 DUP2 DUP2 MSTORE PUSH1 0x20 ADD DUP3 DUP1 SLOAD PUSH2 0x1A81 SWAP1 PUSH2 0x3366 JUMP JUMPDEST DUP1 ISZERO PUSH2 0x1ACE JUMPI DUP1 PUSH1 0x1F LT PUSH2 0x1AA3 JUMPI PUSH2 0x100 DUP1 DUP4 SLOAD DIV MUL DUP4 MSTORE SWAP2 PUSH1 0x20 ADD SWAP2 PUSH2 0x1ACE JUMP JUMPDEST DUP3 ADD SWAP2 SWAP1 PUSH1 0x0 MSTORE PUSH1 0x20 PUSH1 0x0 KECCAK256 SWAP1 JUMPDEST DUP2 SLOAD DUP2 MSTORE SWAP1 PUSH1 0x1 ADD SWAP1 PUSH1 0x20 ADD DUP1 DUP4 GT PUSH2 0x1AB1 JUMPI DUP3 SWAP1 SUB PUSH1 0x1F AND DUP3 ADD SWAP2 JUMPDEST POP POP POP POP POP DUP2 MSTORE PUSH1 0x20 ADD PUSH1 0x3 DUP3 ADD DUP1 SLOAD PUSH2 0x1AE7 SWAP1 PUSH2 0x3366 JUMP JUMPDEST DUP1 PUSH1 0x1F ADD PUSH1 0x20 DUP1 SWAP2 DIV MUL PUSH1 0x20 ADD PUSH1 0x40 MLOAD SWAP1 DUP2 ADD PUSH1 0x40 MSTORE DUP1 SWAP3 SWAP2 SWAP1 DUP2 DUP2 MSTORE PUSH1 0x20 ADD DUP3 DUP1 SLOAD PUSH2 0x1B13 SWAP1 PUSH2 0x3366 JUMP JUMPDEST DUP1 ISZERO PUSH2 0x1B60 JUMPI DUP1 PUSH1 0x1F LT PUSH2 0x1B35 JUMPI PUSH2 0x100 DUP1 DUP4 SLOAD DIV MUL DUP4 MSTORE SWAP2 PUSH1 0x20 ADD SWAP2 PUSH2 0x1B60 JUMP JUMPDEST DUP3 ADD SWAP2 SWAP1 PUSH1 0x0 MSTORE PUSH1 0x20 PUSH1 0x0 KECCAK256 SWAP1 JUMPDEST DUP2 SLOAD DUP2 MSTORE SWAP1 PUSH1 0x1 ADD SWAP1 PUSH1 0x20 ADD DUP1 DUP4 GT PUSH2 0x1B43 JUMPI DUP3 SWAP1 SUB PUSH1 0x1F AND DUP3 ADD SWAP2 JUMPDEST POP POP POP POP POP DUP2 MSTORE PUSH1 0x20 ADD PUSH1 0x4 DUP3 ADD DUP1 SLOAD PUSH2 0x1B79 SWAP1 PUSH2 0x3366 JUMP JUMPDEST DUP1 PUSH1 0x1F ADD PUSH1 0x20 DUP1 SWAP2 DIV MUL PUSH1 0x20 ADD PUSH1 0x40 MLOAD SWAP1 DUP2 ADD PUSH1 0x40 MSTORE DUP1 SWAP3 SWAP2 SWAP1 DUP2 DUP2 MSTORE PUSH1 0x20 ADD DUP3 DUP1 SLOAD PUSH2 0x1BA5 SWAP1 PUSH2 0x3366 JUMP JUMPDEST DUP1 ISZERO PUSH2 0x1BF2 JUMPI DUP1 PUSH1 0x1F LT PUSH2 0x1BC7 JUMPI PUSH2 0x100 DUP1 DUP4 SLOAD DIV MUL DUP4 MSTORE SWAP2 PUSH1 0x20 ADD SWAP2 PUSH2 0x1BF2 JUMP JUMPDEST DUP3 ADD SWAP2 SWAP1 PUSH1 0x0 MSTORE PUSH1 0x20 PUSH1 0x0 KECCAK256 SWAP1 JUMPDEST DUP2 SLOAD DUP2 MSTORE SWAP1 PUSH1 0x1 ADD SWAP1 PUSH1 0x20 ADD DUP1 DUP4 GT PUSH2 0x1BD5 JUMPI DUP3 SWAP1 SUB PUSH1 0x1F AND DUP3 ADD SWAP2 JUMPDEST POP POP POP POP POP DUP2 MSTORE PUSH1 0x20 ADD PUSH1 0x5 DUP3 ADD DUP1 SLOAD PUSH2 0x1C0B SWAP1 PUSH2 0x3366 JUMP JUMPDEST DUP1 PUSH1 0x1F ADD PUSH1 0x20 DUP1 SWAP2 DIV MUL PUSH1 0x20 ADD PUSH1 0x40 MLOAD SWAP1 DUP2 ADD PUSH1 0x40 MSTORE DUP1 SWAP3 SWAP2 SWAP1 DUP2 DUP2 MSTORE PUSH1 0x20 ADD DUP3 DUP1 SLOAD PUSH2 0x1C37 SWAP1 PUSH2 0x3366 JUMP JUMPDEST DUP1 ISZERO PUSH2 0x1C84 JUMPI DUP1 PUSH1 0x1F LT PUSH2 0x1C59 JUMPI PUSH2 0x100 DUP1 DUP4 SLOAD DIV MUL DUP4 MSTORE SWAP2 PUSH1 0x20 ADD SWAP2 PUSH2 0x1C84 JUMP JUMPDEST DUP3 ADD SWAP2 SWAP1 PUSH1 0x0 MSTORE PUSH1 0x20 PUSH1 0x0 KECCAK256 SWAP1 JUMPDEST DUP2 SLOAD DUP2 MSTORE SWAP1 PUSH1 0x1 ADD SWAP1 PUSH1 0x20 ADD DUP1 DUP4 GT PUSH2 0x1C67 JUMPI DUP3 SWAP1 SUB PUSH1 0x1F AND DUP3 ADD SWAP2 JUMPDEST POP POP POP POP POP DUP2 MSTORE PUSH1 0x20 ADD PUSH1 0x6 DUP3 ADD DUP1 SLOAD PUSH2 0x1C9D SWAP1 PUSH2 0x3366 JUMP JUMPDEST DUP1 PUSH1 0x1F ADD PUSH1 0x20 DUP1 SWAP2 DIV MUL PUSH1 0x20 ADD PUSH1 0x40 MLOAD SWAP1 DUP2 ADD PUSH1 0x40 MSTORE DUP1 SWAP3 SWAP2 SWAP1 DUP2 DUP2 MSTORE PUSH1 0x20 ADD DUP3 DUP1 SLOAD PUSH2 0x1CC9 SWAP1 PUSH2 0x3366 JUMP JUMPDEST DUP1 ISZERO PUSH2 0x1D16 JUMPI DUP1 PUSH1 0x1F LT PUSH2 0x1CEB JUMPI PUSH2 0x100 DUP1 DUP4 SLOAD DIV MUL DUP4 MSTORE SWAP2 PUSH1 0x20 ADD SWAP2 PUSH2 0x1D16 JUMP JUMPDEST DUP3 ADD SWAP2 SWAP1 PUSH1 0x0 MSTORE PUSH1 0x20 PUSH1 0x0 KECCAK256 SWAP1 JUMPDEST DUP2 SLOAD DUP2 MSTORE SWAP1 PUSH1 0x1 ADD SWAP1 PUSH1 0x20 ADD DUP1 DUP4 GT PUSH2 0x1CF9 JUMPI DUP3 SWAP1 SUB PUSH1 0x1F AND DUP3 ADD SWAP2 JUMPDEST POP POP POP POP POP DUP2 MSTORE PUSH1 0x20 ADD PUSH1 0x7 DUP3 ADD DUP1 SLOAD PUSH2 0x1D2F SWAP1 PUSH2 0x3366 JUMP JUMPDEST DUP1 PUSH1 0x1F ADD PUSH1 0x20 DUP1 SWAP2 DIV MUL PUSH1 0x20 ADD PUSH1 0x40 MLOAD SWAP1 DUP2 ADD PUSH1 0x40 MSTORE DUP1 SWAP3 SWAP2 SWAP1 DUP2 DUP2 MSTORE PUSH1 0x20 ADD DUP3 DUP1 SLOAD PUSH2 0x1D5B SWAP1 PUSH2 0x3366 JUMP JUMPDEST DUP1 ISZERO PUSH2 0x1DA8 JUMPI DUP1 PUSH1 0x1F LT PUSH2 0x1D7D JUMPI PUSH2 0x100 DUP1 DUP4 SLOAD DIV MUL DUP4 MSTORE SWAP2 PUSH1 0x20 ADD SWAP2 PUSH2 0x1DA8 JUMP JUMPDEST DUP3 ADD SWAP2 SWAP1 PUSH1 0x0 MSTORE PUSH1 0x20 PUSH1 0x0 KECCAK256 SWAP1 JUMPDEST DUP2 SLOAD DUP2 MSTORE SWAP1 PUSH1 0x1 ADD SWAP1 PUSH1 0x20 ADD DUP1 DUP4 GT PUSH2 0x1D8B JUMPI DUP3 SWAP1 SUB PUSH1 0x1F AND DUP3 ADD SWAP2 JUMPDEST POP POP POP POP POP DUP2 MSTORE PUSH1 0x20 ADD PUSH1 0x8 DUP3 ADD DUP1 SLOAD PUSH2 0x1DC1 SWAP1 PUSH2 0x3366 JUMP JUMPDEST DUP1 PUSH1 0x1F ADD PUSH1 0x20 DUP1 SWAP2 DIV MUL PUSH1 0x20 ADD PUSH1 0x40 MLOAD SWAP1 DUP2 ADD PUSH1 0x40 MSTORE DUP1 SWAP3 SWAP2 SWAP1 DUP2 DUP2 MSTORE PUSH1 0x20 ADD DUP3 DUP1 SLOAD PUSH2 0x1DED SWAP1 PUSH2 0x3366 JUMP JUMPDEST DUP1 ISZERO PUSH2 0x1E3A JUMPI DUP1 PUSH1 0x1F LT PUSH2 0x1E0F JUMPI PUSH2 0x100 DUP1 DUP4 SLOAD DIV MUL DUP4 MSTORE SWAP2 PUSH1 0x20 ADD SWAP2 PUSH2 0x1E3A JUMP JUMPDEST DUP3 ADD SWAP2 SWAP1 PUSH1 0x0 MSTORE PUSH1 0x20 PUSH1 0x0 KECCAK256 SWAP1 JUMPDEST DUP2 SLOAD DUP2 MSTORE SWAP1 PUSH1 0x1 ADD SWAP1 PUSH1 0x20 ADD DUP1 DUP4 GT PUSH2 0x1E1D JUMPI DUP3 SWAP1 SUB PUSH1 0x1F AND DUP3 ADD SWAP2 JUMPDEST POP POP POP POP POP DUP2 MSTORE PUSH1 0x20 ADD PUSH1 0x9 DUP3 ADD SLOAD DUP2 MSTORE PUSH1 0x20 ADD PUSH1 0xA DUP3 ADD SLOAD DUP2 MSTORE PUSH1 0x20 ADD PUSH1 0xB DUP3 ADD DUP1 SLOAD DUP1 PUSH1 0x20 MUL PUSH1 0x20 ADD PUSH1 0x40 MLOAD SWAP1 DUP2 ADD PUSH1 0x40 MSTORE DUP1 SWAP3 SWAP2 SWAP1 DUP2 DUP2 MSTORE PUSH1 0x20 ADD DUP3 DUP1 SLOAD DUP1 ISZERO PUSH2 0x1EB0 JUMPI PUSH1 0x20 MUL DUP3 ADD SWAP2 SWAP1 PUSH1 0x0 MSTORE PUSH1 0x20 PUSH1 0x0 KECCAK256 SWAP1 JUMPDEST DUP2 SLOAD PUSH1 0x1 PUSH1 0x1 PUSH1 0xA0 SHL SUB AND DUP2 MSTORE PUSH1 0x1 SWAP1 SWAP2 ADD SWAP1 PUSH1 0x20 ADD DUP1 DUP4 GT PUSH2 0x1E92 JUMPI JUMPDEST POP POP POP POP POP DUP2 MSTORE PUSH1 0x20 ADD PUSH1 0xC DUP3 ADD PUSH1 0x0 SWAP1 SLOAD SWAP1 PUSH2 0x100 EXP SWAP1 DIV PUSH1 0xFF AND ISZERO ISZERO ISZERO ISZERO DUP2 MSTORE POP POP SWAP1 POP DUP1 PUSH1 0x20 ADD MLOAD DUP2 PUSH1 0x40 ADD MLOAD DUP3 PUSH1 0x60 ADD MLOAD DUP4 PUSH1 0x80 ADD MLOAD DUP5 PUSH1 0xA0 ADD MLOAD DUP6 PUSH1 0xC0 ADD MLOAD DUP7 PUSH1 0xE0 ADD MLOAD DUP8 PUSH2 0x100 ADD MLOAD DUP9 PUSH2 0x180 ADD MLOAD DUP10 PUSH2 0x120 ADD MLOAD DUP11 PUSH2 0x140 ADD MLOAD SWAP12 POP SWAP12 POP SWAP12 POP SWAP12 POP SWAP12 POP SWAP12 POP SWAP12 POP SWAP12 POP SWAP12 POP SWAP12 POP SWAP12 POP POP SWAP2 SWAP4 SWAP6 SWAP8 SWAP10 SWAP12 SWAP1 SWAP3 SWAP5 SWAP7 SWAP9 SWAP11 POP JUMP JUMPDEST CALLER PUSH1 0x0 DUP2 DUP2 MSTORE PUSH1 0x2 PUSH1 0x20 MSTORE PUSH1 0x40 DUP2 KECCAK256 PUSH1 0x1 ADD SLOAD SWAP1 SWAP2 PUSH1 0x1 PUSH1 0x1 PUSH1 0xA0 SHL SUB SWAP1 SWAP2 AND EQ PUSH2 0x1F74 JUMPI PUSH1 0x40 MLOAD PUSH3 0x461BCD PUSH1 0xE5 SHL DUP2 MSTORE PUSH1 0x4 ADD PUSH2 0x364 SWAP1 PUSH2 0x3329 JUMP JUMPDEST PUSH1 0x1 PUSH1 0x1 PUSH1 0xA0 SHL SUB DUP1 DUP15 AND PUSH1 0x0 DUP2 DUP2 MSTORE PUSH1 0x1 PUSH1 0x20 MSTORE PUSH1 0x40 SWAP1 KECCAK256 SLOAD SWAP1 SWAP2 AND EQ PUSH2 0x1FD3 JUMPI PUSH1 0x40 MLOAD PUSH3 0x461BCD PUSH1 0xE5 SHL DUP2 MSTORE PUSH1 0x20 PUSH1 0x4 DUP3 ADD MSTORE PUSH1 0x12 PUSH1 0x24 DUP3 ADD MSTORE PUSH18 0x155CD95C88191BD95CDB89DD08195E1A5CDD PUSH1 0x72 SHL PUSH1 0x44 DUP3 ADD MSTORE PUSH1 0x64 ADD PUSH2 0x364 JUMP JUMPDEST PUSH2 0x1FDD DUP14 CALLER PUSH2 0x22EC JUMP JUMPDEST PUSH2 0x1FF9 JUMPI PUSH1 0x40 MLOAD PUSH3 0x461BCD PUSH1 0xE5 SHL DUP2 MSTORE PUSH1 0x4 ADD PUSH2 0x364 SWAP1 PUSH2 0x32E8 JUMP JUMPDEST PUSH2 0x200D DUP14 DUP14 DUP14 DUP14 DUP14 DUP14 DUP14 DUP14 DUP14 DUP14 DUP14 DUP14 PUSH2 0x28CA JUMP JUMPDEST PUSH1 0x40 DUP1 MLOAD PUSH1 0x1 PUSH1 0x1 PUSH1 0xA0 SHL SUB DUP16 AND DUP2 MSTORE DUP6 ISZERO ISZERO PUSH1 0x20 DUP3 ADD MSTORE PUSH32 0xC14653FCA65D1B22631A36A53BD2A7153579EB0180192D23B52BABB69C28050 SWAP2 ADD JUMPDEST PUSH1 0x40 MLOAD DUP1 SWAP2 SUB SWAP1 LOG1 POP PUSH1 0x1 SWAP13 SWAP12 POP POP POP POP POP POP POP POP POP POP POP POP JUMP JUMPDEST CALLER PUSH1 0x0 DUP2 DUP2 MSTORE PUSH1 0x1 PUSH1 0x20 MSTORE PUSH1 0x40 DUP2 KECCAK256 SLOAD SWAP1 SWAP2 PUSH1 0x1 PUSH1 0x1 PUSH1 0xA0 SHL SUB SWAP1 SWAP2 AND SUB PUSH2 0x88D JUMPI POP PUSH1 0x1 SWAP1 JUMP JUMPDEST CALLER PUSH1 0x0 DUP2 DUP2 MSTORE PUSH1 0x2 PUSH1 0x20 MSTORE PUSH1 0x40 DUP2 KECCAK256 PUSH1 0x1 ADD SLOAD SWAP1 SWAP2 PUSH1 0x1 PUSH1 0x1 PUSH1 0xA0 SHL SUB SWAP1 SWAP2 AND EQ PUSH2 0x20C9 JUMPI PUSH1 0x40 MLOAD PUSH3 0x461BCD PUSH1 0xE5 SHL DUP2 MSTORE PUSH1 0x4 ADD PUSH2 0x364 SWAP1 PUSH2 0x3329 JUMP JUMPDEST PUSH1 0x1 PUSH1 0x1 PUSH1 0xA0 SHL SUB DUP1 DUP15 AND PUSH1 0x0 DUP2 DUP2 MSTORE PUSH1 0x1 PUSH1 0x20 MSTORE PUSH1 0x40 SWAP1 KECCAK256 SLOAD SWAP1 SWAP2 AND SUB PUSH2 0x2129 JUMPI PUSH1 0x40 MLOAD PUSH3 0x461BCD PUSH1 0xE5 SHL DUP2 MSTORE PUSH1 0x20 PUSH1 0x4 DUP3 ADD MSTORE PUSH1 0x13 PUSH1 0x24 DUP3 ADD MSTORE PUSH19 0x5573657220616C726561647920657869737473 PUSH1 0x68 SHL PUSH1 0x44 DUP3 ADD MSTORE PUSH1 0x64 ADD PUSH2 0x364 JUMP JUMPDEST PUSH2 0x213D DUP14 DUP14 DUP14 DUP14 DUP14 DUP14 DUP14 DUP14 DUP14 DUP14 DUP14 DUP14 PUSH2 0x28CA JUMP JUMPDEST PUSH2 0x2146 DUP14 PUSH2 0xF77 JUMP JUMPDEST POP PUSH1 0x40 DUP1 MLOAD PUSH1 0x1 PUSH1 0x1 PUSH1 0xA0 SHL SUB DUP16 AND DUP2 MSTORE DUP6 ISZERO ISZERO PUSH1 0x20 DUP3 ADD MSTORE PUSH32 0x1D22F26DEE56193A2DA8B325A26E02B936D68BE9F49C0A6F92534464AA8F2ECF SWAP2 ADD PUSH2 0x2049 JUMP JUMPDEST CALLER PUSH1 0x0 DUP2 DUP2 MSTORE PUSH1 0x2 PUSH1 0x20 MSTORE PUSH1 0x40 SWAP1 KECCAK256 PUSH1 0x1 ADD SLOAD PUSH1 0x60 SWAP2 PUSH1 0x1 PUSH1 0x1 PUSH1 0xA0 SHL SUB SWAP1 SWAP2 AND EQ PUSH2 0x21C5 JUMPI PUSH1 0x40 MLOAD PUSH3 0x461BCD PUSH1 0xE5 SHL DUP2 MSTORE PUSH1 0x4 ADD PUSH2 0x364 SWAP1 PUSH2 0x3329 JUMP JUMPDEST CALLER PUSH1 0x0 SWAP1 DUP2 MSTORE PUSH1 0x3 PUSH1 0x20 MSTORE PUSH1 0x40 DUP2 KECCAK256 PUSH1 0x1 ADD SLOAD PUSH1 0x1 PUSH1 0x1 PUSH1 0x40 SHL SUB DUP2 GT ISZERO PUSH2 0x21EF JUMPI PUSH2 0x21EF PUSH2 0x2D85 JUMP JUMPDEST PUSH1 0x40 MLOAD SWAP1 DUP1 DUP3 MSTORE DUP1 PUSH1 0x20 MUL PUSH1 0x20 ADD DUP3 ADD PUSH1 0x40 MSTORE DUP1 ISZERO PUSH2 0x2234 JUMPI DUP2 PUSH1 0x20 ADD JUMPDEST PUSH1 0x40 DUP1 MLOAD DUP1 DUP3 ADD SWAP1 SWAP2 MSTORE PUSH1 0x0 DUP1 DUP3 MSTORE PUSH1 0x20 DUP3 ADD MSTORE DUP2 MSTORE PUSH1 0x20 ADD SWAP1 PUSH1 0x1 SWAP1 SUB SWAP1 DUP2 PUSH2 0x220D JUMPI SWAP1 POP JUMPDEST POP SWAP1 POP PUSH1 0x0 DUP1 JUMPDEST CALLER PUSH1 0x0 SWAP1 DUP2 MSTORE PUSH1 0x3 PUSH1 0x20 MSTORE PUSH1 0x40 SWAP1 KECCAK256 PUSH1 0x1 ADD SLOAD DUP2 LT ISZERO PUSH2 0x12EF JUMPI CALLER PUSH1 0x0 SWAP1 DUP2 MSTORE PUSH1 0x3 PUSH1 0x20 MSTORE PUSH1 0x40 SWAP1 KECCAK256 PUSH1 0x2 ADD DUP1 SLOAD DUP3 SWAP1 DUP2 LT PUSH2 0x2279 JUMPI PUSH2 0x2279 PUSH2 0x3350 JUMP JUMPDEST PUSH1 0x0 SWAP2 DUP3 MSTORE PUSH1 0x20 SWAP2 DUP3 SWAP1 KECCAK256 PUSH1 0x40 DUP1 MLOAD DUP1 DUP3 ADD SWAP1 SWAP2 MSTORE PUSH1 0x2 SWAP1 SWAP3 MUL ADD DUP1 SLOAD DUP3 MSTORE PUSH1 0x1 ADD SLOAD PUSH1 0x1 PUSH1 0x1 PUSH1 0xA0 SHL SUB AND SWAP2 DUP2 ADD SWAP2 SWAP1 SWAP2 MSTORE DUP4 MLOAD DUP5 SWAP1 DUP5 SWAP1 DUP2 LT PUSH2 0x22C0 JUMPI PUSH2 0x22C0 PUSH2 0x3350 JUMP JUMPDEST PUSH1 0x20 MUL PUSH1 0x20 ADD ADD DUP2 SWAP1 MSTORE POP DUP2 DUP1 PUSH2 0x22D6 SWAP1 PUSH2 0x3512 JUMP JUMPDEST SWAP3 POP POP DUP1 DUP1 PUSH2 0x22E4 SWAP1 PUSH2 0x3512 JUMP JUMPDEST SWAP2 POP POP PUSH2 0x223B JUMP JUMPDEST PUSH1 0x0 DUP1 JUMPDEST PUSH1 0x1 PUSH1 0x1 PUSH1 0xA0 SHL SUB DUP5 AND PUSH1 0x0 SWAP1 DUP2 MSTORE PUSH1 0x1 PUSH1 0x20 MSTORE PUSH1 0x40 SWAP1 KECCAK256 PUSH1 0xB ADD SLOAD DUP2 LT ISZERO PUSH2 0x237B JUMPI PUSH1 0x1 PUSH1 0x1 PUSH1 0xA0 SHL SUB DUP5 DUP2 AND PUSH1 0x0 SWAP1 DUP2 MSTORE PUSH1 0x1 PUSH1 0x20 MSTORE PUSH1 0x40 SWAP1 KECCAK256 PUSH1 0xB ADD DUP1 SLOAD SWAP2 DUP6 AND SWAP2 DUP4 SWAP1 DUP2 LT PUSH2 0x2345 JUMPI PUSH2 0x2345 PUSH2 0x3350 JUMP JUMPDEST PUSH1 0x0 SWAP2 DUP3 MSTORE PUSH1 0x20 SWAP1 SWAP2 KECCAK256 ADD SLOAD PUSH1 0x1 PUSH1 0x1 PUSH1 0xA0 SHL SUB AND SUB PUSH2 0x2369 JUMPI PUSH1 0x1 SWAP2 POP POP PUSH2 0xE6D JUMP JUMPDEST DUP1 PUSH2 0x2373 DUP2 PUSH2 0x3512 JUMP JUMPDEST SWAP2 POP POP PUSH2 0x22F0 JUMP JUMPDEST POP PUSH1 0x0 SWAP4 SWAP3 POP POP POP JUMP JUMPDEST PUSH1 0x0 PUSH2 0x2391 DUP4 DUP4 PUSH2 0x2A74 JUMP JUMPDEST PUSH1 0x1 PUSH1 0x1 PUSH1 0xA0 SHL SUB DUP5 AND PUSH1 0x0 SWAP1 DUP2 MSTORE PUSH1 0x1 PUSH1 0x20 DUP2 SWAP1 MSTORE PUSH1 0x40 SWAP1 SWAP2 KECCAK256 PUSH1 0xB ADD DUP1 SLOAD SWAP3 SWAP4 POP SWAP2 PUSH2 0x23BF SWAP2 SWAP1 PUSH2 0x352B JUMP JUMPDEST DUP2 SLOAD DUP2 LT PUSH2 0x23CF JUMPI PUSH2 0x23CF PUSH2 0x3350 JUMP JUMPDEST PUSH1 0x0 SWAP2 DUP3 MSTORE PUSH1 0x20 DUP1 DUP4 KECCAK256 SWAP1 SWAP2 ADD SLOAD PUSH1 0x1 PUSH1 0x1 PUSH1 0xA0 SHL SUB DUP7 DUP2 AND DUP5 MSTORE PUSH1 0x1 SWAP1 SWAP3 MSTORE PUSH1 0x40 SWAP1 SWAP3 KECCAK256 PUSH1 0xB ADD DUP1 SLOAD SWAP2 SWAP1 SWAP3 AND SWAP2 SWAP1 DUP4 SWAP1 DUP2 LT PUSH2 0x240F JUMPI PUSH2 0x240F PUSH2 0x3350 JUMP JUMPDEST PUSH1 0x0 SWAP2 DUP3 MSTORE PUSH1 0x20 DUP1 DUP4 KECCAK256 SWAP2 SWAP1 SWAP2 ADD DUP1 SLOAD PUSH1 0x1 PUSH1 0x1 PUSH1 0xA0 SHL SUB NOT AND PUSH1 0x1 PUSH1 0x1 PUSH1 0xA0 SHL SUB SWAP5 DUP6 AND OR SWAP1 SSTORE SWAP2 DUP6 AND DUP2 MSTORE PUSH1 0x1 SWAP1 SWAP2 MSTORE PUSH1 0x40 SWAP1 KECCAK256 PUSH1 0xB ADD DUP1 SLOAD DUP1 PUSH2 0x2457 JUMPI PUSH2 0x2457 PUSH2 0x353E JUMP JUMPDEST PUSH1 0x0 DUP3 DUP2 MSTORE PUSH1 0x20 SWAP1 KECCAK256 DUP2 ADD PUSH1 0x0 NOT SWAP1 DUP2 ADD DUP1 SLOAD PUSH1 0x1 PUSH1 0x1 PUSH1 0xA0 SHL SUB NOT AND SWAP1 SSTORE ADD SWAP1 SSTORE POP POP POP JUMP JUMPDEST PUSH1 0x0 PUSH2 0x248A DUP4 DUP4 PUSH2 0x2B07 JUMP JUMPDEST PUSH1 0x1 PUSH1 0x1 PUSH1 0xA0 SHL SUB DUP4 AND PUSH1 0x0 SWAP1 DUP2 MSTORE PUSH1 0x3 PUSH1 0x20 MSTORE PUSH1 0x40 SWAP1 KECCAK256 PUSH1 0x2 ADD DUP1 SLOAD SWAP2 SWAP3 POP SWAP1 PUSH2 0x24B7 SWAP1 PUSH1 0x1 SWAP1 PUSH2 0x352B JUMP JUMPDEST DUP2 SLOAD DUP2 LT PUSH2 0x24C7 JUMPI PUSH2 0x24C7 PUSH2 0x3350 JUMP JUMPDEST SWAP1 PUSH1 0x0 MSTORE PUSH1 0x20 PUSH1 0x0 KECCAK256 SWAP1 PUSH1 0x2 MUL ADD PUSH1 0x3 PUSH1 0x0 DUP5 PUSH1 0x1 PUSH1 0x1 PUSH1 0xA0 SHL SUB AND PUSH1 0x1 PUSH1 0x1 PUSH1 0xA0 SHL SUB AND DUP2 MSTORE PUSH1 0x20 ADD SWAP1 DUP2 MSTORE PUSH1 0x20 ADD PUSH1 0x0 KECCAK256 PUSH1 0x2 ADD DUP6 DUP2 SLOAD DUP2 LT PUSH2 0x250E JUMPI PUSH2 0x250E PUSH2 0x3350 JUMP JUMPDEST PUSH1 0x0 SWAP2 DUP3 MSTORE PUSH1 0x20 DUP1 DUP4 KECCAK256 DUP5 SLOAD PUSH1 0x2 SWAP4 DUP5 MUL SWAP1 SWAP2 ADD SWAP1 DUP2 SSTORE PUSH1 0x1 SWAP5 DUP6 ADD SLOAD SWAP5 ADD DUP1 SLOAD PUSH1 0x1 PUSH1 0x1 PUSH1 0xA0 SHL SUB NOT AND PUSH1 0x1 PUSH1 0x1 PUSH1 0xA0 SHL SUB SWAP6 DUP7 AND OR SWAP1 SSTORE SWAP3 DUP6 AND DUP3 MSTORE PUSH1 0x3 SWAP1 SWAP3 MSTORE PUSH1 0x40 SWAP1 KECCAK256 ADD DUP1 SLOAD DUP1 PUSH2 0x2565 JUMPI PUSH2 0x2565 PUSH2 0x353E JUMP JUMPDEST PUSH1 0x0 DUP3 DUP2 MSTORE PUSH1 0x20 DUP1 DUP3 KECCAK256 PUSH1 0x2 PUSH1 0x0 NOT SWAP1 SWAP5 ADD SWAP4 DUP5 MUL ADD DUP3 DUP2 SSTORE PUSH1 0x1 SWAP1 DUP2 ADD DUP1 SLOAD PUSH1 0x1 PUSH1 0x1 PUSH1 0xA0 SHL SUB NOT AND SWAP1 SSTORE SWAP3 SWAP1 SWAP4 SSTORE PUSH1 0x1 PUSH1 0x1 PUSH1 0xA0 SHL SUB DUP7 AND DUP2 MSTORE PUSH1 0x4 SWAP1 SWAP3 MSTORE PUSH1 0x40 SWAP1 SWAP2 KECCAK256 DUP1 SLOAD SWAP1 SWAP2 PUSH2 0x25B8 SWAP2 PUSH2 0x352B JUMP JUMPDEST DUP2 SLOAD DUP2 LT PUSH2 0x25C8 JUMPI PUSH2 0x25C8 PUSH2 0x3350 JUMP JUMPDEST SWAP1 PUSH1 0x0 MSTORE PUSH1 0x20 PUSH1 0x0 KECCAK256 SWAP1 PUSH1 0x2 MUL ADD PUSH1 0x4 PUSH1 0x0 DUP6 PUSH1 0x1 PUSH1 0x1 PUSH1 0xA0 SHL SUB AND PUSH1 0x1 PUSH1 0x1 PUSH1 0xA0 SHL SUB AND DUP2 MSTORE PUSH1 0x20 ADD SWAP1 DUP2 MSTORE PUSH1 0x20 ADD PUSH1 0x0 KECCAK256 PUSH1 0x0 ADD DUP3 DUP2 SLOAD DUP2 LT PUSH2 0x260F JUMPI PUSH2 0x260F PUSH2 0x3350 JUMP JUMPDEST PUSH1 0x0 SWAP2 DUP3 MSTORE PUSH1 0x20 DUP1 DUP4 KECCAK256 DUP5 SLOAD PUSH1 0x2 SWAP1 SWAP4 MUL ADD SWAP2 DUP3 SSTORE PUSH1 0x1 SWAP4 DUP5 ADD SLOAD SWAP4 SWAP1 SWAP2 ADD DUP1 SLOAD PUSH1 0x1 PUSH1 0x1 PUSH1 0xA0 SHL SUB NOT AND PUSH1 0x1 PUSH1 0x1 PUSH1 0xA0 SHL SUB SWAP5 DUP6 AND OR SWAP1 SSTORE SWAP2 DUP6 AND DUP2 MSTORE PUSH1 0x4 SWAP1 SWAP2 MSTORE PUSH1 0x40 SWAP1 KECCAK256 DUP1 SLOAD DUP1 PUSH2 0x2665 JUMPI PUSH2 0x2665 PUSH2 0x353E JUMP JUMPDEST PUSH1 0x0 DUP3 DUP2 MSTORE PUSH1 0x20 DUP1 DUP3 KECCAK256 PUSH1 0x2 PUSH1 0x0 NOT SWAP1 SWAP5 ADD DUP5 DUP2 MUL SWAP1 SWAP2 ADD DUP4 DUP2 SSTORE PUSH1 0x1 ADD DUP1 SLOAD PUSH1 0x1 PUSH1 0x1 PUSH1 0xA0 SHL SUB NOT AND SWAP1 SSTORE SWAP1 SWAP4 SSTORE CALLER DUP2 MSTORE PUSH1 0x3 SWAP1 SWAP3 MSTORE PUSH1 0x40 SWAP1 SWAP2 KECCAK256 ADD SLOAD DUP5 EQ DUP1 ISZERO SWAP1 PUSH2 0x26CD JUMPI POP PUSH1 0x1 PUSH1 0x1 PUSH1 0xA0 SHL SUB DUP3 AND PUSH1 0x0 SWAP1 DUP2 MSTORE PUSH1 0x3 PUSH1 0x20 MSTORE PUSH1 0x40 SWAP1 KECCAK256 PUSH1 0x1 SWAP1 DUP2 ADD SLOAD GT JUMPDEST ISZERO PUSH2 0x27C3 JUMPI PUSH1 0x1 PUSH1 0x1 PUSH1 0xA0 SHL SUB DUP3 AND PUSH1 0x0 SWAP1 DUP2 MSTORE PUSH1 0x3 PUSH1 0x20 MSTORE PUSH1 0x40 SWAP1 KECCAK256 PUSH1 0x2 ADD DUP1 SLOAD DUP6 SWAP2 SWAP1 DUP3 SWAP1 DUP2 LT PUSH2 0x2702 JUMPI PUSH2 0x2702 PUSH2 0x3350 JUMP JUMPDEST PUSH1 0x0 SWAP2 DUP3 MSTORE PUSH1 0x20 DUP1 DUP4 KECCAK256 PUSH1 0x2 SWAP3 DUP4 MUL ADD SWAP4 SWAP1 SWAP4 SSTORE PUSH1 0x1 PUSH1 0x1 PUSH1 0xA0 SHL SUB DUP6 AND DUP3 MSTORE PUSH1 0x3 SWAP1 SWAP3 MSTORE PUSH1 0x40 DUP2 KECCAK256 SWAP1 SWAP2 ADD DUP1 SLOAD DUP7 SWAP1 DUP2 LT PUSH2 0x2740 JUMPI PUSH2 0x2740 PUSH2 0x3350 JUMP JUMPDEST PUSH1 0x0 SWAP2 DUP3 MSTORE PUSH1 0x20 DUP1 DUP4 KECCAK256 PUSH1 0x1 PUSH1 0x2 SWAP1 SWAP4 MUL ADD SWAP2 SWAP1 SWAP2 ADD SLOAD PUSH1 0x1 PUSH1 0x1 PUSH1 0xA0 SHL SUB AND DUP1 DUP4 MSTORE PUSH1 0x4 SWAP1 SWAP2 MSTORE PUSH1 0x40 SWAP1 SWAP2 KECCAK256 SLOAD SWAP1 SWAP2 POP ISZERO PUSH2 0x27C1 JUMPI PUSH2 0x2780 DUP2 DUP5 PUSH2 0x2B07 JUMP JUMPDEST PUSH1 0x1 PUSH1 0x1 PUSH1 0xA0 SHL SUB DUP3 AND PUSH1 0x0 SWAP1 DUP2 MSTORE PUSH1 0x4 PUSH1 0x20 MSTORE PUSH1 0x40 SWAP1 KECCAK256 DUP1 SLOAD SWAP2 SWAP4 POP DUP7 SWAP2 DUP5 SWAP1 DUP2 LT PUSH2 0x27AF JUMPI PUSH2 0x27AF PUSH2 0x3350 JUMP JUMPDEST PUSH1 0x0 SWAP2 DUP3 MSTORE PUSH1 0x20 SWAP1 SWAP2 KECCAK256 PUSH1 0x2 SWAP1 SWAP2 MUL ADD SSTORE JUMPDEST POP JUMPDEST PUSH1 0x1 PUSH1 0x1 PUSH1 0xA0 SHL SUB DUP3 AND PUSH1 0x0 SWAP1 DUP2 MSTORE PUSH1 0x3 PUSH1 0x20 MSTORE PUSH1 0x40 DUP2 KECCAK256 PUSH1 0x1 ADD DUP1 SLOAD SWAP2 PUSH2 0x27EA DUP4 PUSH2 0x3554 JUMP JUMPDEST SWAP1 SWAP2 SSTORE POP POP PUSH1 0x40 DUP1 MLOAD DUP6 DUP2 MSTORE PUSH1 0x1 PUSH1 0x1 PUSH1 0xA0 SHL SUB DUP5 AND PUSH1 0x20 DUP3 ADD MSTORE PUSH32 0x5BC31E521401C7E4FBE27CC8E953DDCD66CE6CC84D810D1850450E7964029D95 SWAP2 ADD PUSH1 0x40 MLOAD DUP1 SWAP2 SUB SWAP1 LOG1 POP POP POP POP JUMP JUMPDEST PUSH1 0x0 DUP1 JUMPDEST CALLER PUSH1 0x0 SWAP1 DUP2 MSTORE PUSH1 0x3 PUSH1 0x20 MSTORE PUSH1 0x40 SWAP1 KECCAK256 PUSH1 0x1 ADD SLOAD DUP2 LT ISZERO PUSH2 0x28C1 JUMPI CALLER PUSH1 0x0 SWAP1 DUP2 MSTORE PUSH1 0x3 PUSH1 0x20 MSTORE PUSH1 0x40 SWAP1 KECCAK256 PUSH1 0x2 ADD DUP1 SLOAD PUSH1 0x1 PUSH1 0x1 PUSH1 0xA0 SHL SUB DUP6 AND SWAP2 SWAP1 DUP4 SWAP1 DUP2 LT PUSH2 0x2884 JUMPI PUSH2 0x2884 PUSH2 0x3350 JUMP JUMPDEST PUSH1 0x0 SWAP2 DUP3 MSTORE PUSH1 0x20 SWAP1 SWAP2 KECCAK256 PUSH1 0x1 PUSH1 0x2 SWAP1 SWAP3 MUL ADD ADD SLOAD PUSH1 0x1 PUSH1 0x1 PUSH1 0xA0 SHL SUB AND SUB PUSH2 0x28AF JUMPI POP PUSH1 0x1 SWAP3 SWAP2 POP POP JUMP JUMPDEST DUP1 PUSH2 0x28B9 DUP2 PUSH2 0x3512 JUMP JUMPDEST SWAP2 POP POP PUSH2 0x283A JUMP JUMPDEST POP PUSH1 0x0 SWAP3 SWAP2 POP POP JUMP JUMPDEST PUSH1 0x1 PUSH1 0x1 PUSH1 0xA0 SHL SUB DUP13 AND PUSH1 0x0 DUP2 DUP2 MSTORE PUSH1 0x1 PUSH1 0x20 DUP2 SWAP1 MSTORE PUSH1 0x40 SWAP1 SWAP2 KECCAK256 DUP1 SLOAD PUSH1 0x1 PUSH1 0x1 PUSH1 0xA0 SHL SUB NOT AND SWAP1 SWAP3 OR DUP3 SSTORE ADD PUSH2 0x2901 DUP13 DUP3 PUSH2 0x3413 JUMP JUMPDEST POP PUSH1 0x1 PUSH1 0x1 PUSH1 0xA0 SHL SUB DUP13 AND PUSH1 0x0 SWAP1 DUP2 MSTORE PUSH1 0x1 PUSH1 0x20 MSTORE PUSH1 0x40 SWAP1 KECCAK256 PUSH1 0x2 ADD PUSH2 0x2927 DUP12 DUP3 PUSH2 0x3413 JUMP JUMPDEST POP PUSH1 0x1 PUSH1 0x1 PUSH1 0xA0 SHL SUB DUP13 AND PUSH1 0x0 SWAP1 DUP2 MSTORE PUSH1 0x1 PUSH1 0x20 MSTORE PUSH1 0x40 SWAP1 KECCAK256 PUSH1 0x3 ADD PUSH2 0x294D DUP11 DUP3 PUSH2 0x3413 JUMP JUMPDEST POP PUSH1 0x1 PUSH1 0x1 PUSH1 0xA0 SHL SUB DUP13 AND PUSH1 0x0 SWAP1 DUP2 MSTORE PUSH1 0x1 PUSH1 0x20 MSTORE PUSH1 0x40 SWAP1 KECCAK256 PUSH1 0x4 ADD PUSH2 0x2973 DUP10 DUP3 PUSH2 0x3413 JUMP JUMPDEST POP PUSH1 0x1 PUSH1 0x1 PUSH1 0xA0 SHL SUB DUP13 AND PUSH1 0x0 SWAP1 DUP2 MSTORE PUSH1 0x1 PUSH1 0x20 MSTORE PUSH1 0x40 SWAP1 KECCAK256 PUSH1 0x5 ADD PUSH2 0x2999 DUP9 DUP3 PUSH2 0x3413 JUMP JUMPDEST POP PUSH1 0x1 PUSH1 0x1 PUSH1 0xA0 SHL SUB DUP13 AND PUSH1 0x0 SWAP1 DUP2 MSTORE PUSH1 0x1 PUSH1 0x20 MSTORE PUSH1 0x40 SWAP1 KECCAK256 PUSH1 0x6 ADD PUSH2 0x29BF DUP8 DUP3 PUSH2 0x3413 JUMP JUMPDEST POP PUSH1 0x1 PUSH1 0x1 PUSH1 0xA0 SHL SUB DUP13 AND PUSH1 0x0 SWAP1 DUP2 MSTORE PUSH1 0x1 PUSH1 0x20 MSTORE PUSH1 0x40 SWAP1 KECCAK256 PUSH1 0x7 ADD PUSH2 0x29E5 DUP7 DUP3 PUSH2 0x3413 JUMP JUMPDEST POP PUSH1 0x1 PUSH1 0x1 PUSH1 0xA0 SHL SUB DUP13 AND PUSH1 0x0 SWAP1 DUP2 MSTORE PUSH1 0x1 PUSH1 0x20 MSTORE PUSH1 0x40 SWAP1 KECCAK256 PUSH1 0x8 ADD PUSH2 0x2A0B DUP6 DUP3 PUSH2 0x3413 JUMP JUMPDEST POP PUSH1 0x1 PUSH1 0x1 PUSH1 0xA0 SHL SUB SWAP12 SWAP1 SWAP12 AND PUSH1 0x0 DUP2 DUP2 MSTORE PUSH1 0x1 PUSH1 0x20 DUP2 DUP2 MSTORE PUSH1 0x40 DUP1 DUP5 KECCAK256 PUSH1 0xC DUP2 ADD DUP1 SLOAD PUSH1 0xFF NOT AND SWAP9 ISZERO ISZERO SWAP9 SWAP1 SWAP9 OR SWAP1 SWAP8 SSTORE PUSH1 0x9 DUP8 ADD SWAP6 SWAP1 SWAP6 SSTORE PUSH1 0xA SWAP1 SWAP6 ADD SWAP14 SWAP1 SWAP14 SSTORE PUSH1 0x4 SWAP1 SWAP4 MSTORE SWAP2 KECCAK256 SWAP1 SWAP10 ADD DUP1 SLOAD PUSH1 0x1 PUSH1 0x1 PUSH1 0xA0 SHL SUB NOT AND SWAP1 SWAP10 OR SWAP1 SWAP9 SSTORE POP POP POP POP POP POP POP POP JUMP JUMPDEST PUSH1 0x0 DUP1 JUMPDEST PUSH1 0x1 PUSH1 0x1 PUSH1 0xA0 SHL SUB DUP5 AND PUSH1 0x0 SWAP1 DUP2 MSTORE PUSH1 0x1 PUSH1 0x20 MSTORE PUSH1 0x40 SWAP1 KECCAK256 PUSH1 0xB ADD SLOAD DUP2 LT ISZERO PUSH2 0x2B00 JUMPI PUSH1 0x1 PUSH1 0x1 PUSH1 0xA0 SHL SUB DUP5 DUP2 AND PUSH1 0x0 SWAP1 DUP2 MSTORE PUSH1 0x1 PUSH1 0x20 MSTORE PUSH1 0x40 SWAP1 KECCAK256 PUSH1 0xB ADD DUP1 SLOAD SWAP2 DUP6 AND SWAP2 DUP4 SWAP1 DUP2 LT PUSH2 0x2ACD JUMPI PUSH2 0x2ACD PUSH2 0x3350 JUMP JUMPDEST PUSH1 0x0 SWAP2 DUP3 MSTORE PUSH1 0x20 SWAP1 SWAP2 KECCAK256 ADD SLOAD PUSH1 0x1 PUSH1 0x1 PUSH1 0xA0 SHL SUB AND SUB PUSH2 0x2AEE JUMPI SWAP1 POP PUSH2 0xE6D JUMP JUMPDEST DUP1 PUSH2 0x2AF8 DUP2 PUSH2 0x3512 JUMP JUMPDEST SWAP2 POP POP PUSH2 0x2A78 JUMP JUMPDEST POP SWAP3 SWAP2 POP POP JUMP JUMPDEST PUSH1 0x0 DUP1 JUMPDEST PUSH1 0x1 PUSH1 0x1 PUSH1 0xA0 SHL SUB DUP5 AND PUSH1 0x0 SWAP1 DUP2 MSTORE PUSH1 0x4 PUSH1 0x20 MSTORE PUSH1 0x40 SWAP1 KECCAK256 SLOAD DUP2 LT ISZERO PUSH2 0x2B00 JUMPI PUSH1 0x1 PUSH1 0x1 PUSH1 0xA0 SHL SUB DUP5 DUP2 AND PUSH1 0x0 SWAP1 DUP2 MSTORE PUSH1 0x4 PUSH1 0x20 MSTORE PUSH1 0x40 SWAP1 KECCAK256 DUP1 SLOAD SWAP2 DUP6 AND SWAP2 DUP4 SWAP1 DUP2 LT PUSH2 0x2B5A JUMPI PUSH2 0x2B5A PUSH2 0x3350 JUMP JUMPDEST PUSH1 0x0 SWAP2 DUP3 MSTORE PUSH1 0x20 SWAP1 SWAP2 KECCAK256 PUSH1 0x1 PUSH1 0x2 SWAP1 SWAP3 MUL ADD ADD SLOAD PUSH1 0x1 PUSH1 0x1 PUSH1 0xA0 SHL SUB AND SUB PUSH2 0x2B83 JUMPI SWAP1 POP PUSH2 0xE6D JUMP JUMPDEST DUP1 PUSH2 0x2B8D DUP2 PUSH2 0x3512 JUMP JUMPDEST SWAP2 POP POP PUSH2 0x2B0B JUMP JUMPDEST POP DUP1 SLOAD PUSH2 0x2BA1 SWAP1 PUSH2 0x3366 JUMP JUMPDEST PUSH1 0x0 DUP3 SSTORE DUP1 PUSH1 0x1F LT PUSH2 0x2BB1 JUMPI POP POP JUMP JUMPDEST PUSH1 0x1F ADD PUSH1 0x20 SWAP1 DIV SWAP1 PUSH1 0x0 MSTORE PUSH1 0x20 PUSH1 0x0 KECCAK256 SWAP1 DUP2 ADD SWAP1 PUSH2 0x2BCF SWAP2 SWAP1 PUSH2 0x2BD2 JUMP JUMPDEST POP JUMP JUMPDEST JUMPDEST DUP1 DUP3 GT ISZERO PUSH2 0x2BE7 JUMPI PUSH1 0x0 DUP2 SSTORE PUSH1 0x1 ADD PUSH2 0x2BD3 JUMP JUMPDEST POP SWAP1 JUMP JUMPDEST DUP1 CALLDATALOAD PUSH1 0x1 PUSH1 0x1 PUSH1 0xA0 SHL SUB DUP2 AND DUP2 EQ PUSH2 0x471 JUMPI PUSH1 0x0 DUP1 REVERT JUMPDEST PUSH1 0x0 PUSH1 0x20 DUP3 DUP5 SUB SLT ISZERO PUSH2 0x2C14 JUMPI PUSH1 0x0 DUP1 REVERT JUMPDEST PUSH2 0x2C1D DUP3 PUSH2 0x2BEB JUMP JUMPDEST SWAP4 SWAP3 POP POP POP JUMP JUMPDEST DUP1 CALLDATALOAD DUP1 ISZERO ISZERO DUP2 EQ PUSH2 0x471 JUMPI PUSH1 0x0 DUP1 REVERT JUMPDEST PUSH1 0x0 DUP1 PUSH1 0x0 PUSH1 0x60 DUP5 DUP7 SUB SLT ISZERO PUSH2 0x2C49 JUMPI PUSH1 0x0 DUP1 REVERT JUMPDEST DUP4 CALLDATALOAD SWAP3 POP PUSH2 0x2C59 PUSH1 0x20 DUP6 ADD PUSH2 0x2BEB JUMP JUMPDEST SWAP2 POP PUSH2 0x2C67 PUSH1 0x40 DUP6 ADD PUSH2 0x2C24 JUMP JUMPDEST SWAP1 POP SWAP3 POP SWAP3 POP SWAP3 JUMP JUMPDEST PUSH1 0x0 DUP2 MLOAD DUP1 DUP5 MSTORE PUSH1 0x0 JUMPDEST DUP2 DUP2 LT ISZERO PUSH2 0x2C96 JUMPI PUSH1 0x20 DUP2 DUP6 ADD DUP2 ADD MLOAD DUP7 DUP4 ADD DUP3 ADD MSTORE ADD PUSH2 0x2C7A JUMP JUMPDEST POP PUSH1 0x0 PUSH1 0x20 DUP3 DUP7 ADD ADD MSTORE PUSH1 0x20 PUSH1 0x1F NOT PUSH1 0x1F DUP4 ADD AND DUP6 ADD ADD SWAP2 POP POP SWAP3 SWAP2 POP POP JUMP JUMPDEST PUSH1 0x20 DUP2 MSTORE PUSH1 0x0 DUP3 MLOAD PUSH1 0x40 PUSH1 0x20 DUP5 ADD MSTORE PUSH2 0x2CD2 PUSH1 0x60 DUP5 ADD DUP3 PUSH2 0x2C70 JUMP JUMPDEST PUSH1 0x20 SWAP5 SWAP1 SWAP5 ADD MLOAD PUSH1 0x1 PUSH1 0x1 PUSH1 0xA0 SHL SUB AND PUSH1 0x40 SWAP4 SWAP1 SWAP4 ADD SWAP3 SWAP1 SWAP3 MSTORE POP SWAP1 SWAP2 SWAP1 POP JUMP JUMPDEST PUSH1 0x20 DUP1 DUP3 MSTORE DUP3 MLOAD DUP3 DUP3 ADD DUP2 SWAP1 MSTORE PUSH1 0x0 SWAP2 SWAP1 DUP5 DUP3 ADD SWAP1 PUSH1 0x40 DUP6 ADD SWAP1 DUP5 JUMPDEST DUP2 DUP2 LT ISZERO PUSH2 0x2D34 JUMPI DUP4 MLOAD PUSH1 0x1 PUSH1 0x1 PUSH1 0xA0 SHL SUB AND DUP4 MSTORE SWAP3 DUP5 ADD SWAP3 SWAP2 DUP5 ADD SWAP2 PUSH1 0x1 ADD PUSH2 0x2D0F JUMP JUMPDEST POP SWAP1 SWAP7 SWAP6 POP POP POP POP POP POP JUMP JUMPDEST PUSH1 0x0 PUSH1 0x20 DUP3 DUP5 SUB SLT ISZERO PUSH2 0x2D52 JUMPI PUSH1 0x0 DUP1 REVERT JUMPDEST POP CALLDATALOAD SWAP2 SWAP1 POP JUMP JUMPDEST PUSH1 0x0 DUP1 PUSH1 0x40 DUP4 DUP6 SUB SLT ISZERO PUSH2 0x2D6C JUMPI PUSH1 0x0 DUP1 REVERT JUMPDEST DUP3 CALLDATALOAD SWAP2 POP PUSH2 0x2D7C PUSH1 0x20 DUP5 ADD PUSH2 0x2BEB JUMP JUMPDEST SWAP1 POP SWAP3 POP SWAP3 SWAP1 POP JUMP JUMPDEST PUSH4 0x4E487B71 PUSH1 0xE0 SHL PUSH1 0x0 MSTORE PUSH1 0x41 PUSH1 0x4 MSTORE PUSH1 0x24 PUSH1 0x0 REVERT JUMPDEST PUSH1 0x0 DUP3 PUSH1 0x1F DUP4 ADD SLT PUSH2 0x2DAC JUMPI PUSH1 0x0 DUP1 REVERT JUMPDEST DUP2 CALLDATALOAD PUSH1 0x1 PUSH1 0x1 PUSH1 0x40 SHL SUB DUP1 DUP3 GT ISZERO PUSH2 0x2DC6 JUMPI PUSH2 0x2DC6 PUSH2 0x2D85 JUMP JUMPDEST PUSH1 0x40 MLOAD PUSH1 0x1F DUP4 ADD PUSH1 0x1F NOT SWAP1 DUP2 AND PUSH1 0x3F ADD AND DUP2 ADD SWAP1 DUP3 DUP3 GT DUP2 DUP4 LT OR ISZERO PUSH2 0x2DEE JUMPI PUSH2 0x2DEE PUSH2 0x2D85 JUMP JUMPDEST DUP2 PUSH1 0x40 MSTORE DUP4 DUP2 MSTORE DUP7 PUSH1 0x20 DUP6 DUP9 ADD ADD GT ISZERO PUSH2 0x2E07 JUMPI PUSH1 0x0 DUP1 REVERT JUMPDEST DUP4 PUSH1 0x20 DUP8 ADD PUSH1 0x20 DUP4 ADD CALLDATACOPY PUSH1 0x0 PUSH1 0x20 DUP6 DUP4 ADD ADD MSTORE DUP1 SWAP5 POP POP POP POP POP SWAP3 SWAP2 POP POP JUMP JUMPDEST PUSH1 0x0 DUP1 PUSH1 0x40 DUP4 DUP6 SUB SLT ISZERO PUSH2 0x2E3A JUMPI PUSH1 0x0 DUP1 REVERT JUMPDEST DUP3 CALLDATALOAD PUSH1 0x1 PUSH1 0x1 PUSH1 0x40 SHL SUB DUP2 GT ISZERO PUSH2 0x2E50 JUMPI PUSH1 0x0 DUP1 REVERT JUMPDEST PUSH2 0x2E5C DUP6 DUP3 DUP7 ADD PUSH2 0x2D9B JUMP JUMPDEST SWAP3 POP POP PUSH2 0x2D7C PUSH1 0x20 DUP5 ADD PUSH2 0x2BEB JUMP JUMPDEST PUSH1 0x20 DUP1 DUP3 MSTORE DUP3 MLOAD DUP3 DUP3 ADD DUP2 SWAP1 MSTORE PUSH1 0x0 SWAP2 SWAP1 PUSH1 0x40 SWAP1 DUP2 DUP6 ADD SWAP1 DUP7 DUP5 ADD DUP6 JUMPDEST DUP3 DUP2 LT ISZERO PUSH2 0x2EB6 JUMPI DUP2 MLOAD DUP1 MLOAD DUP6 MSTORE DUP7 ADD MLOAD PUSH1 0x1 PUSH1 0x1 PUSH1 0xA0 SHL SUB AND DUP7 DUP6 ADD MSTORE SWAP3 DUP5 ADD SWAP3 SWAP1 DUP6 ADD SWAP1 PUSH1 0x1 ADD PUSH2 0x2E88 JUMP JUMPDEST POP SWAP2 SWAP8 SWAP7 POP POP POP POP POP POP POP JUMP JUMPDEST PUSH1 0x0 DUP2 MLOAD DUP1 DUP5 MSTORE PUSH1 0x20 DUP1 DUP6 ADD SWAP5 POP DUP1 DUP5 ADD PUSH1 0x0 JUMPDEST DUP4 DUP2 LT ISZERO PUSH2 0x2EFC JUMPI DUP2 MLOAD PUSH1 0x1 PUSH1 0x1 PUSH1 0xA0 SHL SUB AND DUP8 MSTORE SWAP6 DUP3 ADD SWAP6 SWAP1 DUP3 ADD SWAP1 PUSH1 0x1 ADD PUSH2 0x2ED7 JUMP JUMPDEST POP SWAP5 SWAP6 SWAP5 POP POP POP POP POP JUMP JUMPDEST PUSH1 0x20 DUP2 MSTORE PUSH2 0x2F21 PUSH1 0x20 DUP3 ADD DUP4 MLOAD PUSH1 0x1 PUSH1 0x1 PUSH1 0xA0 SHL SUB AND SWAP1 MSTORE JUMP JUMPDEST PUSH1 0x0 PUSH1 0x20 DUP4 ADD MLOAD PUSH2 0x1A0 DUP1 PUSH1 0x40 DUP6 ADD MSTORE PUSH2 0x2F3F PUSH2 0x1C0 DUP6 ADD DUP4 PUSH2 0x2C70 JUMP JUMPDEST SWAP2 POP PUSH1 0x40 DUP6 ADD MLOAD PUSH1 0x1F NOT DUP1 DUP7 DUP6 SUB ADD PUSH1 0x60 DUP8 ADD MSTORE PUSH2 0x2F5D DUP5 DUP4 PUSH2 0x2C70 JUMP JUMPDEST SWAP4 POP PUSH1 0x60 DUP8 ADD MLOAD SWAP2 POP DUP1 DUP7 DUP6 SUB ADD PUSH1 0x80 DUP8 ADD MSTORE PUSH2 0x2F7A DUP5 DUP4 PUSH2 0x2C70 JUMP JUMPDEST SWAP4 POP PUSH1 0x80 DUP8 ADD MLOAD SWAP2 POP DUP1 DUP7 DUP6 SUB ADD PUSH1 0xA0 DUP8 ADD MSTORE PUSH2 0x2F97 DUP5 DUP4 PUSH2 0x2C70 JUMP JUMPDEST SWAP4 POP PUSH1 0xA0 DUP8 ADD MLOAD SWAP2 POP DUP1 DUP7 DUP6 SUB ADD PUSH1 0xC0 DUP8 ADD MSTORE PUSH2 0x2FB4 DUP5 DUP4 PUSH2 0x2C70 JUMP JUMPDEST SWAP4 POP PUSH1 0xC0 DUP8 ADD MLOAD SWAP2 POP DUP1 DUP7 DUP6 SUB ADD PUSH1 0xE0 DUP8 ADD MSTORE PUSH2 0x2FD1 DUP5 DUP4 PUSH2 0x2C70 JUMP JUMPDEST SWAP4 POP PUSH1 0xE0 DUP8 ADD MLOAD SWAP2 POP PUSH2 0x100 DUP2 DUP8 DUP7 SUB ADD DUP2 DUP9 ADD MSTORE PUSH2 0x2FF0 DUP6 DUP5 PUSH2 0x2C70 JUMP JUMPDEST SWAP5 POP DUP1 DUP9 ADD MLOAD SWAP3 POP POP PUSH2 0x120 DUP2 DUP8 DUP7 SUB ADD DUP2 DUP9 ADD MSTORE PUSH2 0x300F DUP6 DUP5 PUSH2 0x2C70 JUMP JUMPDEST SWAP1 DUP9 ADD MLOAD PUSH2 0x140 DUP9 DUP2 ADD SWAP2 SWAP1 SWAP2 MSTORE DUP9 ADD MLOAD PUSH2 0x160 DUP1 DUP10 ADD SWAP2 SWAP1 SWAP2 MSTORE DUP9 ADD MLOAD DUP8 DUP3 SUB DUP4 ADD PUSH2 0x180 DUP1 DUP11 ADD SWAP2 SWAP1 SWAP2 MSTORE SWAP2 SWAP6 POP SWAP3 POP PUSH2 0x304B DUP6 DUP5 PUSH2 0x2EC3 JUMP JUMPDEST SWAP5 POP DUP1 DUP9 ADD MLOAD SWAP3 POP POP POP PUSH2 0x3062 DUP3 DUP7 ADD DUP3 ISZERO ISZERO SWAP1 MSTORE JUMP JUMPDEST POP SWAP1 SWAP5 SWAP4 POP POP POP POP JUMP JUMPDEST PUSH1 0x0 PUSH2 0x160 DUP1 DUP4 MSTORE PUSH2 0x3080 DUP2 DUP5 ADD DUP16 PUSH2 0x2C70 JUMP JUMPDEST SWAP1 POP DUP3 DUP2 SUB PUSH1 0x20 DUP5 ADD MSTORE PUSH2 0x3094 DUP2 DUP15 PUSH2 0x2C70 JUMP JUMPDEST SWAP1 POP DUP3 DUP2 SUB PUSH1 0x40 DUP5 ADD MSTORE PUSH2 0x30A8 DUP2 DUP14 PUSH2 0x2C70 JUMP JUMPDEST SWAP1 POP DUP3 DUP2 SUB PUSH1 0x60 DUP5 ADD MSTORE PUSH2 0x30BC DUP2 DUP13 PUSH2 0x2C70 JUMP JUMPDEST SWAP1 POP DUP3 DUP2 SUB PUSH1 0x80 DUP5 ADD MSTORE PUSH2 0x30D0 DUP2 DUP12 PUSH2 0x2C70 JUMP JUMPDEST SWAP1 POP DUP3 DUP2 SUB PUSH1 0xA0 DUP5 ADD MSTORE PUSH2 0x30E4 DUP2 DUP11 PUSH2 0x2C70 JUMP JUMPDEST SWAP1 POP DUP3 DUP2 SUB PUSH1 0xC0 DUP5 ADD MSTORE PUSH2 0x30F8 DUP2 DUP10 PUSH2 0x2C70 JUMP JUMPDEST SWAP1 POP DUP3 DUP2 SUB PUSH1 0xE0 DUP5 ADD MSTORE PUSH2 0x310C DUP2 DUP9 PUSH2 0x2C70 JUMP JUMPDEST SWAP2 POP POP PUSH2 0x311E PUSH2 0x100 DUP4 ADD DUP7 ISZERO ISZERO SWAP1 MSTORE JUMP JUMPDEST PUSH2 0x120 DUP3 ADD SWAP4 SWAP1 SWAP4 MSTORE PUSH2 0x140 ADD MSTORE SWAP10 SWAP9 POP POP POP POP POP POP POP POP POP JUMP JUMPDEST PUSH1 0x0 DUP1 PUSH1 0x0 DUP1 PUSH1 0x0 DUP1 PUSH1 0x0 DUP1 PUSH1 0x0 DUP1 PUSH1 0x0 DUP1 PUSH2 0x180 DUP14 DUP16 SUB SLT ISZERO PUSH2 0x315C JUMPI PUSH1 0x0 DUP1 REVERT JUMPDEST PUSH2 0x3165 DUP14 PUSH2 0x2BEB JUMP JUMPDEST SWAP12 POP PUSH1 0x1 PUSH1 0x1 PUSH1 0x40 SHL SUB PUSH1 0x20 DUP15 ADD CALLDATALOAD GT ISZERO PUSH2 0x317F JUMPI PUSH1 0x0 DUP1 REVERT JUMPDEST PUSH2 0x318F DUP15 PUSH1 0x20 DUP16 ADD CALLDATALOAD DUP16 ADD PUSH2 0x2D9B JUMP JUMPDEST SWAP11 POP PUSH1 0x1 PUSH1 0x1 PUSH1 0x40 SHL SUB PUSH1 0x40 DUP15 ADD CALLDATALOAD GT ISZERO PUSH2 0x31A9 JUMPI PUSH1 0x0 DUP1 REVERT JUMPDEST PUSH2 0x31B9 DUP15 PUSH1 0x40 DUP16 ADD CALLDATALOAD DUP16 ADD PUSH2 0x2D9B JUMP JUMPDEST SWAP10 POP PUSH1 0x1 PUSH1 0x1 PUSH1 0x40 SHL SUB PUSH1 0x60 DUP15 ADD CALLDATALOAD GT ISZERO PUSH2 0x31D3 JUMPI PUSH1 0x0 DUP1 REVERT JUMPDEST PUSH2 0x31E3 DUP15 PUSH1 0x60 DUP16 ADD CALLDATALOAD DUP16 ADD PUSH2 0x2D9B JUMP JUMPDEST SWAP9 POP PUSH1 0x1 PUSH1 0x1 PUSH1 0x40 SHL SUB PUSH1 0x80 DUP15 ADD CALLDATALOAD GT ISZERO PUSH2 0x31FD JUMPI PUSH1 0x0 DUP1 REVERT JUMPDEST PUSH2 0x320D DUP15 PUSH1 0x80 DUP16 ADD CALLDATALOAD DUP16 ADD PUSH2 0x2D9B JUMP JUMPDEST SWAP8 POP PUSH1 0x1 PUSH1 0x1 PUSH1 0x40 SHL SUB PUSH1 0xA0 DUP15 ADD CALLDATALOAD GT ISZERO PUSH2 0x3227 JUMPI PUSH1 0x0 DUP1 REVERT JUMPDEST PUSH2 0x3237 DUP15 PUSH1 0xA0 DUP16 ADD CALLDATALOAD DUP16 ADD PUSH2 0x2D9B JUMP JUMPDEST SWAP7 POP PUSH1 0x1 PUSH1 0x1 PUSH1 0x40 SHL SUB PUSH1 0xC0 DUP15 ADD CALLDATALOAD GT ISZERO PUSH2 0x3251 JUMPI PUSH1 0x0 DUP1 REVERT JUMPDEST PUSH2 0x3261 DUP15 PUSH1 0xC0 DUP16 ADD CALLDATALOAD DUP16 ADD PUSH2 0x2D9B JUMP JUMPDEST SWAP6 POP PUSH1 0x1 PUSH1 0x1 PUSH1 0x40 SHL SUB PUSH1 0xE0 DUP15 ADD CALLDATALOAD GT ISZERO PUSH2 0x327B JUMPI PUSH1 0x0 DUP1 REVERT JUMPDEST PUSH2 0x328B DUP15 PUSH1 0xE0 DUP16 ADD CALLDATALOAD DUP16 ADD PUSH2 0x2D9B JUMP JUMPDEST SWAP5 POP PUSH1 0x1 PUSH1 0x1 PUSH1 0x40 SHL SUB PUSH2 0x100 DUP15 ADD CALLDATALOAD GT ISZERO PUSH2 0x32A6 JUMPI PUSH1 0x0 DUP1 REVERT JUMPDEST PUSH2 0x32B7 DUP15 PUSH2 0x100 DUP16 ADD CALLDATALOAD DUP16 ADD PUSH2 0x2D9B JUMP JUMPDEST SWAP4 POP PUSH2 0x32C6 PUSH2 0x120 DUP15 ADD PUSH2 0x2C24 JUMP JUMPDEST SWAP3 POP PUSH2 0x140 DUP14 ADD CALLDATALOAD SWAP2 POP PUSH2 0x160 DUP14 ADD CALLDATALOAD SWAP1 POP SWAP3 SWAP6 SWAP9 SWAP12 POP SWAP3 SWAP6 SWAP9 SWAP12 POP SWAP3 SWAP6 SWAP9 SWAP12 JUMP JUMPDEST PUSH1 0x20 DUP1 DUP3 MSTORE PUSH1 0x21 SWAP1 DUP3 ADD MSTORE PUSH32 0x596F7520646F6E7420686176652061636365737320746F207468697320757365 PUSH1 0x40 DUP3 ADD MSTORE PUSH1 0x39 PUSH1 0xF9 SHL PUSH1 0x60 DUP3 ADD MSTORE PUSH1 0x80 ADD SWAP1 JUMP JUMPDEST PUSH1 0x20 DUP1 DUP3 MSTORE PUSH1 0xD SWAP1 DUP3 ADD MSTORE PUSH13 0x13DC99C81B9BDD08195E1A5CDD PUSH1 0x9A SHL PUSH1 0x40 DUP3 ADD MSTORE PUSH1 0x60 ADD SWAP1 JUMP JUMPDEST PUSH4 0x4E487B71 PUSH1 0xE0 SHL PUSH1 0x0 MSTORE PUSH1 0x32 PUSH1 0x4 MSTORE PUSH1 0x24 PUSH1 0x0 REVERT JUMPDEST PUSH1 0x1 DUP2 DUP2 SHR SWAP1 DUP3 AND DUP1 PUSH2 0x337A JUMPI PUSH1 0x7F DUP3 AND SWAP2 POP JUMPDEST PUSH1 0x20 DUP3 LT DUP2 SUB PUSH2 0x339A JUMPI PUSH4 0x4E487B71 PUSH1 0xE0 SHL PUSH1 0x0 MSTORE PUSH1 0x22 PUSH1 0x4 MSTORE PUSH1 0x24 PUSH1 0x0 REVERT JUMPDEST POP SWAP2 SWAP1 POP JUMP JUMPDEST PUSH1 0x20 DUP1 DUP3 MSTORE PUSH1 0xA SWAP1 DUP3 ADD MSTORE PUSH10 0x41646D696E206F6E6C79 PUSH1 0xB0 SHL PUSH1 0x40 DUP3 ADD MSTORE PUSH1 0x60 ADD SWAP1 JUMP JUMPDEST PUSH1 0x1F DUP3 GT ISZERO PUSH2 0x340E JUMPI PUSH1 0x0 DUP2 DUP2 MSTORE PUSH1 0x20 DUP2 KECCAK256 PUSH1 0x1F DUP6 ADD PUSH1 0x5 SHR DUP2 ADD PUSH1 0x20 DUP7 LT ISZERO PUSH2 0x33EB JUMPI POP DUP1 JUMPDEST PUSH1 0x1F DUP6 ADD PUSH1 0x5 SHR DUP3 ADD SWAP2 POP JUMPDEST DUP2 DUP2 LT ISZERO PUSH2 0x340A JUMPI DUP3 DUP2 SSTORE PUSH1 0x1 ADD PUSH2 0x33F7 JUMP JUMPDEST POP POP POP JUMPDEST POP POP POP JUMP JUMPDEST DUP2 MLOAD PUSH1 0x1 PUSH1 0x1 PUSH1 0x40 SHL SUB DUP2 GT ISZERO PUSH2 0x342C JUMPI PUSH2 0x342C PUSH2 0x2D85 JUMP JUMPDEST PUSH2 0x3440 DUP2 PUSH2 0x343A DUP5 SLOAD PUSH2 0x3366 JUMP JUMPDEST DUP5 PUSH2 0x33C4 JUMP JUMPDEST PUSH1 0x20 DUP1 PUSH1 0x1F DUP4 GT PUSH1 0x1 DUP2 EQ PUSH2 0x3475 JUMPI PUSH1 0x0 DUP5 ISZERO PUSH2 0x345D JUMPI POP DUP6 DUP4 ADD MLOAD JUMPDEST PUSH1 0x0 NOT PUSH1 0x3 DUP7 SWAP1 SHL SHR NOT AND PUSH1 0x1 DUP6 SWAP1 SHL OR DUP6 SSTORE PUSH2 0x340A JUMP JUMPDEST PUSH1 0x0 DUP6 DUP2 MSTORE PUSH1 0x20 DUP2 KECCAK256 PUSH1 0x1F NOT DUP7 AND SWAP2 JUMPDEST DUP3 DUP2 LT ISZERO PUSH2 0x34A4 JUMPI DUP9 DUP7 ADD MLOAD DUP3 SSTORE SWAP5 DUP5 ADD SWAP5 PUSH1 0x1 SWAP1 SWAP2 ADD SWAP1 DUP5 ADD PUSH2 0x3485 JUMP JUMPDEST POP DUP6 DUP3 LT ISZERO PUSH2 0x34C2 JUMPI DUP8 DUP6 ADD MLOAD PUSH1 0x0 NOT PUSH1 0x3 DUP9 SWAP1 SHL PUSH1 0xF8 AND SHR NOT AND DUP2 SSTORE JUMPDEST POP POP POP POP POP PUSH1 0x1 SWAP1 DUP2 SHL ADD SWAP1 SSTORE POP JUMP JUMPDEST PUSH1 0x40 DUP2 MSTORE PUSH1 0x0 PUSH2 0x34E5 PUSH1 0x40 DUP4 ADD DUP6 PUSH2 0x2C70 JUMP JUMPDEST SWAP1 POP PUSH1 0x1 DUP1 PUSH1 0xA0 SHL SUB DUP4 AND PUSH1 0x20 DUP4 ADD MSTORE SWAP4 SWAP3 POP POP POP JUMP JUMPDEST PUSH4 0x4E487B71 PUSH1 0xE0 SHL PUSH1 0x0 MSTORE PUSH1 0x11 PUSH1 0x4 MSTORE PUSH1 0x24 PUSH1 0x0 REVERT JUMPDEST PUSH1 0x0 PUSH1 0x1 DUP3 ADD PUSH2 0x3524 JUMPI PUSH2 0x3524 PUSH2 0x34FC JUMP JUMPDEST POP PUSH1 0x1 ADD SWAP1 JUMP JUMPDEST DUP2 DUP2 SUB DUP2 DUP2 GT ISZERO PUSH2 0xE6D JUMPI PUSH2 0xE6D PUSH2 0x34FC JUMP JUMPDEST PUSH4 0x4E487B71 PUSH1 0xE0 SHL PUSH1 0x0 MSTORE PUSH1 0x31 PUSH1 0x4 MSTORE PUSH1 0x24 PUSH1 0x0 REVERT JUMPDEST PUSH1 0x0 DUP2 PUSH2 0x3563 JUMPI PUSH2 0x3563 PUSH2 0x34FC JUMP JUMPDEST POP PUSH1 0x0 NOT ADD SWAP1 JUMP INVALID LOG2 PUSH5 0x6970667358 0x22 SLT KECCAK256 CALLER SHL ADD MSIZE 0x4B PUSH13 0xFA61D5706D49FDB8E51205CC06 0xB7 PUSH30 0x9A459B3D2DC5C2A7CCC6D64736F6C634300081200330000000000000000 "
				},
				"gasEstimates": {
					"creation": {
						"codeDepositCost": "2745800",
						"executionCost": "27227",
						"totalCost": "2773027"
					},
					"external": {
						"addOrg(string,address)": "infinite",
						"admin()": "2469",
						"deleteRequestCust(uint256,address)": "infinite",
						"deleteRequestOrg(uint256)": "infinite",
						"getYourOrgDetail()": "infinite",
						"giveAccessKYC(uint256,address,bool)": "infinite",
						"listRequest()": "infinite",
						"registerKYC(address,string,string,string,string,string,string,string,string,bool,uint256,uint256)": "infinite",
						"removeKYC(address)": "infinite",
						"removeOrg(address)": "infinite",
						"requestKYC(address)": "infinite",
						"revokeAccessKYC(address)": "infinite",
						"updateKYC(address,string,string,string,string,string,string,string,string,bool,uint256,uint256)": "infinite",
						"validAdmin()": "2464",
						"validCust()": "2488",
						"validOrg()": "2451",
						"viewKYC(address)": "infinite",
						"viewOrg(address)": "infinite",
						"viewOrgWithAccess()": "infinite",
						"viewRequestCust()": "infinite",
						"viewYourKYC()": "infinite"
					},
					"internal": {
						"deleteRequest(uint256,address,address)": "infinite",
						"findOrg(address,address)": "infinite",
						"findOrgIndex(address,address)": "infinite",
						"findRequest(address)": "infinite",
						"findRequestIndex(address,address)": "infinite",
						"remove(address,address)": "infinite",
						"writeKYC(address,string memory,string memory,string memory,string memory,string memory,string memory,string memory,string memory,bool,uint256,uint256)": "infinite"
					}
				},
				"methodIdentifiers": {
					"addOrg(string,address)": "a1ac9e57",
					"admin()": "f851a440",
					"deleteRequestCust(uint256,address)": "7042d70c",
					"deleteRequestOrg(uint256)": "54291824",
					"getYourOrgDetail()": "32722a25",
					"giveAccessKYC(uint256,address,bool)": "2a539a22",
					"listRequest()": "f3a9b588",
					"registerKYC(address,string,string,string,string,string,string,string,string,bool,uint256,uint256)": "e94a52d3",
					"removeKYC(address)": "243f6b58",
					"removeOrg(address)": "b7e4a42d",
					"requestKYC(address)": "c10cebe6",
					"revokeAccessKYC(address)": "06e5d4d1",
					"updateKYC(address,string,string,string,string,string,string,string,string,bool,uint256,uint256)": "dc9c4aaa",
					"validAdmin()": "d6bbbf84",
					"validCust()": "e1b2dbe8",
					"validOrg()": "4f4b4f78",
					"viewKYC(address)": "d9b18f04",
					"viewOrg(address)": "88c4ce54",
					"viewOrgWithAccess()": "3b2b8abf",
					"viewRequestCust()": "ca1cbcc2",
					"viewYourKYC()": "ceacabd5"
				}
			},
			"storageLayout": {
				"storage": [
					{
						"astId": 3,
						"contract": "Kyc.sol:Kyc",
						"label": "admin",
						"offset": 0,
						"slot": "0",
						"type": "t_address"
					},
					{
						"astId": 71,
						"contract": "Kyc.sol:Kyc",
						"label": "customers",
						"offset": 0,
						"slot": "1",
						"type": "t_mapping(t_address,t_struct(Customer)31_storage)"
					},
					{
						"astId": 76,
						"contract": "Kyc.sol:Kyc",
						"label": "organizations",
						"offset": 0,
						"slot": "2",
						"type": "t_mapping(t_address,t_struct(Organization)36_storage)"
					},
					{
						"astId": 81,
						"contract": "Kyc.sol:Kyc",
						"label": "kycrequestsbyorg",
						"offset": 0,
						"slot": "3",
						"type": "t_mapping(t_address,t_struct(kycRequest)45_storage)"
					},
					{
						"astId": 86,
						"contract": "Kyc.sol:Kyc",
						"label": "kycrequestsbycust",
						"offset": 0,
						"slot": "4",
						"type": "t_mapping(t_address,t_struct(kycRequestCust)57_storage)"
					}
				],
				"types": {
					"t_address": {
						"encoding": "inplace",
						"label": "address",
						"numberOfBytes": "20"
					},
					"t_array(t_address)dyn_storage": {
						"base": "t_address",
						"encoding": "dynamic_array",
						"label": "address[]",
						"numberOfBytes": "32"
					},
					"t_array(t_struct(kycRequestList)50_storage)dyn_storage": {
						"base": "t_struct(kycRequestList)50_storage",
						"encoding": "dynamic_array",
						"label": "struct Kyc.kycRequestList[]",
						"numberOfBytes": "32"
					},
					"t_bool": {
						"encoding": "inplace",
						"label": "bool",
						"numberOfBytes": "1"
					},
					"t_mapping(t_address,t_struct(Customer)31_storage)": {
						"encoding": "mapping",
						"key": "t_address",
						"label": "mapping(address => struct Kyc.Customer)",
						"numberOfBytes": "32",
						"value": "t_struct(Customer)31_storage"
					},
					"t_mapping(t_address,t_struct(Organization)36_storage)": {
						"encoding": "mapping",
						"key": "t_address",
						"label": "mapping(address => struct Kyc.Organization)",
						"numberOfBytes": "32",
						"value": "t_struct(Organization)36_storage"
					},
					"t_mapping(t_address,t_struct(kycRequest)45_storage)": {
						"encoding": "mapping",
						"key": "t_address",
						"label": "mapping(address => struct Kyc.kycRequest)",
						"numberOfBytes": "32",
						"value": "t_struct(kycRequest)45_storage"
					},
					"t_mapping(t_address,t_struct(kycRequestCust)57_storage)": {
						"encoding": "mapping",
						"key": "t_address",
						"label": "mapping(address => struct Kyc.kycRequestCust)",
						"numberOfBytes": "32",
						"value": "t_struct(kycRequestCust)57_storage"
					},
					"t_string_storage": {
						"encoding": "bytes",
						"label": "string",
						"numberOfBytes": "32"
					},
					"t_struct(Customer)31_storage": {
						"encoding": "inplace",
						"label": "struct Kyc.Customer",
						"members": [
							{
								"astId": 5,
								"contract": "Kyc.sol:Kyc",
								"label": "custAddress",
								"offset": 0,
								"slot": "0",
								"type": "t_address"
							},
							{
								"astId": 7,
								"contract": "Kyc.sol:Kyc",
								"label": "name",
								"offset": 0,
								"slot": "1",
								"type": "t_string_storage"
							},
							{
								"astId": 9,
								"contract": "Kyc.sol:Kyc",
								"label": "fatherName",
								"offset": 0,
								"slot": "2",
								"type": "t_string_storage"
							},
							{
								"astId": 11,
								"contract": "Kyc.sol:Kyc",
								"label": "motherName",
								"offset": 0,
								"slot": "3",
								"type": "t_string_storage"
							},
							{
								"astId": 13,
								"contract": "Kyc.sol:Kyc",
								"label": "grandfatherName",
								"offset": 0,
								"slot": "4",
								"type": "t_string_storage"
							},
							{
								"astId": 15,
								"contract": "Kyc.sol:Kyc",
								"label": "temporaryAddress",
								"offset": 0,
								"slot": "5",
								"type": "t_string_storage"
							},
							{
								"astId": 17,
								"contract": "Kyc.sol:Kyc",
								"label": "permanenetAddress",
								"offset": 0,
								"slot": "6",
								"type": "t_string_storage"
							},
							{
								"astId": 19,
								"contract": "Kyc.sol:Kyc",
								"label": "contactNumber",
								"offset": 0,
								"slot": "7",
								"type": "t_string_storage"
							},
							{
								"astId": 21,
								"contract": "Kyc.sol:Kyc",
								"label": "dob",
								"offset": 0,
								"slot": "8",
								"type": "t_string_storage"
							},
							{
								"astId": 23,
								"contract": "Kyc.sol:Kyc",
								"label": "d",
								"offset": 0,
								"slot": "9",
								"type": "t_uint256"
							},
							{
								"astId": 25,
								"contract": "Kyc.sol:Kyc",
								"label": "n",
								"offset": 0,
								"slot": "10",
								"type": "t_uint256"
							},
							{
								"astId": 28,
								"contract": "Kyc.sol:Kyc",
								"label": "organization",
								"offset": 0,
								"slot": "11",
								"type": "t_array(t_address)dyn_storage"
							},
							{
								"astId": 30,
								"contract": "Kyc.sol:Kyc",
								"label": "kycStatus",
								"offset": 0,
								"slot": "12",
								"type": "t_bool"
							}
						],
						"numberOfBytes": "416"
					},
					"t_struct(Organization)36_storage": {
						"encoding": "inplace",
						"label": "struct Kyc.Organization",
						"members": [
							{
								"astId": 33,
								"contract": "Kyc.sol:Kyc",
								"label": "name",
								"offset": 0,
								"slot": "0",
								"type": "t_string_storage"
							},
							{
								"astId": 35,
								"contract": "Kyc.sol:Kyc",
								"label": "ethAddress",
								"offset": 0,
								"slot": "1",
								"type": "t_address"
							}
						],
						"numberOfBytes": "64"
					},
					"t_struct(kycRequest)45_storage": {
						"encoding": "inplace",
						"label": "struct Kyc.kycRequest",
						"members": [
							{
								"astId": 38,
								"contract": "Kyc.sol:Kyc",
								"label": "ethAddress",
								"offset": 0,
								"slot": "0",
								"type": "t_address"
							},
							{
								"astId": 40,
								"contract": "Kyc.sol:Kyc",
								"label": "req_count",
								"offset": 0,
								"slot": "1",
								"type": "t_uint256"
							},
							{
								"astId": 44,
								"contract": "Kyc.sol:Kyc",
								"label": "kycrequestlist",
								"offset": 0,
								"slot": "2",
								"type": "t_array(t_struct(kycRequestList)50_storage)dyn_storage"
							}
						],
						"numberOfBytes": "96"
					},
					"t_struct(kycRequestCust)57_storage": {
						"encoding": "inplace",
						"label": "struct Kyc.kycRequestCust",
						"members": [
							{
								"astId": 54,
								"contract": "Kyc.sol:Kyc",
								"label": "kycrequestlist",
								"offset": 0,
								"slot": "0",
								"type": "t_array(t_struct(kycRequestList)50_storage)dyn_storage"
							},
							{
								"astId": 56,
								"contract": "Kyc.sol:Kyc",
								"label": "custAddress",
								"offset": 0,
								"slot": "1",
								"type": "t_address"
							}
						],
						"numberOfBytes": "64"
					},
					"t_struct(kycRequestList)50_storage": {
						"encoding": "inplace",
						"label": "struct Kyc.kycRequestList",
						"members": [
							{
								"astId": 47,
								"contract": "Kyc.sol:Kyc",
								"label": "req_count",
								"offset": 0,
								"slot": "0",
								"type": "t_uint256"
							},
							{
								"astId": 49,
								"contract": "Kyc.sol:Kyc",
								"label": "Address",
								"offset": 0,
								"slot": "1",
								"type": "t_address"
							}
						],
						"numberOfBytes": "64"
					},
					"t_uint256": {
						"encoding": "inplace",
						"label": "uint256",
						"numberOfBytes": "32"
					}
				}
			},
			"userdoc": {
				"kind": "user",
				"methods": {},
				"version": 1
			}
		}
	}
}