{
	"Kyc.sol": {
		"Kyc": {
			"abi": [
				{
					"inputs": [],
					"stateMutability": "nonpayable",
					"type": "constructor"
				},
				{
					"anonymous": false,
					"inputs": [
						{
							"indexed": false,
							"internalType": "address",
							"name": "custAddress",
							"type": "address"
						},
						{
							"indexed": false,
							"internalType": "bool",
							"name": "kycStatus",
							"type": "bool"
						}
					],
					"name": "customerAdded",
					"type": "event"
				},
				{
					"anonymous": false,
					"inputs": [
						{
							"indexed": false,
							"internalType": "address",
							"name": "custAddress",
							"type": "address"
						},
						{
							"indexed": false,
							"internalType": "bool",
							"name": "kycStatus",
							"type": "bool"
						}
					],
					"name": "customerUpdated",
					"type": "event"
				},
				{
					"anonymous": false,
					"inputs": [
						{
							"indexed": false,
							"internalType": "string",
							"name": "name",
							"type": "string"
						},
						{
							"indexed": false,
							"internalType": "address",
							"name": "ethAddress",
							"type": "address"
						}
					],
					"name": "orgAdded",
					"type": "event"
				},
				{
					"anonymous": false,
					"inputs": [
						{
							"indexed": false,
							"internalType": "address",
							"name": "ethAddress",
							"type": "address"
						}
					],
					"name": "orgRemoved",
					"type": "event"
				},
				{
					"anonymous": false,
					"inputs": [
						{
							"indexed": false,
							"internalType": "uint256",
							"name": "reqid",
							"type": "uint256"
						},
						{
							"indexed": false,
							"internalType": "address",
							"name": "ethAddress",
							"type": "address"
						}
					],
					"name": "requestRemoved",
					"type": "event"
				},
				{
					"inputs": [
						{
							"internalType": "string",
							"name": "_name",
							"type": "string"
						},
						{
							"internalType": "address",
							"name": "_ethAddress",
							"type": "address"
						}
					],
					"name": "addOrg",
					"outputs": [
						{
							"internalType": "bool",
							"name": "",
							"type": "bool"
						}
					],
					"stateMutability": "nonpayable",
					"type": "function"
				},
				{
					"inputs": [],
					"name": "admin",
					"outputs": [
						{
							"internalType": "address",
							"name": "",
							"type": "address"
						}
					],
					"stateMutability": "view",
					"type": "function"
				},
				{
					"inputs": [
						{
							"internalType": "uint256",
							"name": "_reqcount",
							"type": "uint256"
						},
						{
							"internalType": "address",
							"name": "_ethAddress",
							"type": "address"
						}
					],
					"name": "deleteRequestCust",
					"outputs": [],
					"stateMutability": "nonpayable",
					"type": "function"
				},
				{
					"inputs": [
						{
							"internalType": "uint256",
							"name": "_reqcount",
							"type": "uint256"
						}
					],
					"name": "deleteRequestOrg",
					"outputs": [
						{
							"internalType": "bool",
							"name": "",
							"type": "bool"
						}
					],
					"stateMutability": "nonpayable",
					"type": "function"
				},
				{
					"inputs": [],
					"name": "getYourOrgDetail",
					"outputs": [
						{
							"components": [
								{
									"internalType": "string",
									"name": "name",
									"type": "string"
								},
								{
									"internalType": "address",
									"name": "ethAddress",
									"type": "address"
								}
							],
							"internalType": "struct Kyc.Organization",
							"name": "",
							"type": "tuple"
						}
					],
					"stateMutability": "view",
					"type": "function"
				},
				{
					"inputs": [
						{
							"internalType": "uint256",
							"name": "_reqcount",
							"type": "uint256"
						},
						{
							"internalType": "address",
							"name": "_ethAddress",
							"type": "address"
						},
						{
							"internalType": "bool",
							"name": "_isAllowed",
							"type": "bool"
						}
					],
					"name": "giveAccessKYC",
					"outputs": [
						{
							"internalType": "bool",
							"name": "",
							"type": "bool"
						}
					],
					"stateMutability": "nonpayable",
					"type": "function"
				},
				{
					"inputs": [],
					"name": "listRequest",
					"outputs": [
						{
							"components": [
								{
									"internalType": "uint256",
									"name": "req_count",
									"type": "uint256"
								},
								{
									"internalType": "address",
									"name": "Address",
									"type": "address"
								}
							],
							"internalType": "struct Kyc.kycRequestList[]",
							"name": "",
							"type": "tuple[]"
						}
					],
					"stateMutability": "view",
					"type": "function"
				},
				{
					"inputs": [
						{
							"internalType": "address",
							"name": "_custaddress",
							"type": "address"
						},
						{
							"internalType": "string",
							"name": "_jsonHash",
							"type": "string"
						},
						{
							"internalType": "string",
							"name": "_photohash",
							"type": "string"
						},
						{
							"internalType": "string",
							"name": "_citizenship_front_hash",
							"type": "string"
						},
						{
							"internalType": "string",
							"name": "_citizenship_back_hash",
							"type": "string"
						},
						{
							"internalType": "bool",
							"name": "_kycStatus",
							"type": "bool"
						},
						{
							"internalType": "uint256",
							"name": "_d",
							"type": "uint256"
						},
						{
							"internalType": "uint256",
							"name": "_n",
							"type": "uint256"
						}
					],
					"name": "registerKYC",
					"outputs": [
						{
							"internalType": "bool",
							"name": "",
							"type": "bool"
						}
					],
					"stateMutability": "nonpayable",
					"type": "function"
				},
				{
					"inputs": [
						{
							"internalType": "address",
							"name": "_custaddress",
							"type": "address"
						}
					],
					"name": "removeKYC",
					"outputs": [
						{
							"internalType": "bool",
							"name": "",
							"type": "bool"
						}
					],
					"stateMutability": "nonpayable",
					"type": "function"
				},
				{
					"inputs": [
						{
							"internalType": "address",
							"name": "_ethAddress",
							"type": "address"
						}
					],
					"name": "removeOrg",
					"outputs": [
						{
							"internalType": "bool",
							"name": "",
							"type": "bool"
						}
					],
					"stateMutability": "nonpayable",
					"type": "function"
				},
				{
					"inputs": [
						{
							"internalType": "address",
							"name": "_custaddress",
							"type": "address"
						}
					],
					"name": "requestKYC",
					"outputs": [
						{
							"internalType": "bool",
							"name": "",
							"type": "bool"
						}
					],
					"stateMutability": "nonpayable",
					"type": "function"
				},
				{
					"inputs": [
						{
							"internalType": "address",
							"name": "_ethAddress",
							"type": "address"
						}
					],
					"name": "revokeAccessKYC",
					"outputs": [
						{
							"internalType": "bool",
							"name": "",
							"type": "bool"
						}
					],
					"stateMutability": "nonpayable",
					"type": "function"
				},
				{
					"inputs": [
						{
							"internalType": "address",
							"name": "_custaddress",
							"type": "address"
						},
						{
							"internalType": "string",
							"name": "_jsonHash",
							"type": "string"
						},
						{
							"internalType": "string",
							"name": "_photohash",
							"type": "string"
						},
						{
							"internalType": "string",
							"name": "_citizenship_front_hash",
							"type": "string"
						},
						{
							"internalType": "string",
							"name": "_citizenship_back_hash",
							"type": "string"
						},
						{
							"internalType": "bool",
							"name": "_kycStatus",
							"type": "bool"
						},
						{
							"internalType": "uint256",
							"name": "_d",
							"type": "uint256"
						},
						{
							"internalType": "uint256",
							"name": "_n",
							"type": "uint256"
						}
					],
					"name": "updateKYC",
					"outputs": [
						{
							"internalType": "bool",
							"name": "",
							"type": "bool"
						}
					],
					"stateMutability": "nonpayable",
					"type": "function"
				},
				{
					"inputs": [],
					"name": "validAdmin",
					"outputs": [
						{
							"internalType": "bool",
							"name": "",
							"type": "bool"
						}
					],
					"stateMutability": "view",
					"type": "function"
				},
				{
					"inputs": [],
					"name": "validCust",
					"outputs": [
						{
							"internalType": "bool",
							"name": "",
							"type": "bool"
						}
					],
					"stateMutability": "view",
					"type": "function"
				},
				{
					"inputs": [],
					"name": "validOrg",
					"outputs": [
						{
							"internalType": "bool",
							"name": "",
							"type": "bool"
						}
					],
					"stateMutability": "view",
					"type": "function"
				},
				{
					"inputs": [
						{
							"internalType": "address",
							"name": "_custaddress",
							"type": "address"
						}
					],
					"name": "viewKYC",
					"outputs": [
						{
							"internalType": "bool",
							"name": "",
							"type": "bool"
						},
						{
							"internalType": "string",
							"name": "",
							"type": "string"
						},
						{
							"internalType": "string",
							"name": "",
							"type": "string"
						},
						{
							"internalType": "string",
							"name": "",
							"type": "string"
						},
						{
							"internalType": "string",
							"name": "",
							"type": "string"
						},
						{
							"internalType": "uint256",
							"name": "",
							"type": "uint256"
						},
						{
							"internalType": "uint256",
							"name": "",
							"type": "uint256"
						}
					],
					"stateMutability": "view",
					"type": "function"
				},
				{
					"inputs": [
						{
							"internalType": "address",
							"name": "_ethAddress",
							"type": "address"
						}
					],
					"name": "viewOrg",
					"outputs": [
						{
							"components": [
								{
									"internalType": "string",
									"name": "name",
									"type": "string"
								},
								{
									"internalType": "address",
									"name": "ethAddress",
									"type": "address"
								}
							],
							"internalType": "struct Kyc.Organization",
							"name": "",
							"type": "tuple"
						}
					],
					"stateMutability": "view",
					"type": "function"
				},
				{
					"inputs": [],
					"name": "viewOrgWithAccess",
					"outputs": [
						{
							"internalType": "address[]",
							"name": "",
							"type": "address[]"
						}
					],
					"stateMutability": "view",
					"type": "function"
				},
				{
					"inputs": [],
					"name": "viewRequestCust",
					"outputs": [
						{
							"components": [
								{
									"internalType": "uint256",
									"name": "req_count",
									"type": "uint256"
								},
								{
									"internalType": "address",
									"name": "Address",
									"type": "address"
								}
							],
							"internalType": "struct Kyc.kycRequestList[]",
							"name": "",
							"type": "tuple[]"
						}
					],
					"stateMutability": "view",
					"type": "function"
				},
				{
					"inputs": [],
					"name": "viewYourKYC",
					"outputs": [
						{
							"components": [
								{
									"internalType": "address",
									"name": "custAddress",
									"type": "address"
								},
								{
									"internalType": "string",
									"name": "jsonHash",
									"type": "string"
								},
								{
									"internalType": "string",
									"name": "photoHash",
									"type": "string"
								},
								{
									"internalType": "string",
									"name": "citizenship_front_hash",
									"type": "string"
								},
								{
									"internalType": "string",
									"name": "citizenship_back_hash",
									"type": "string"
								},
								{
									"internalType": "uint256",
									"name": "d",
									"type": "uint256"
								},
								{
									"internalType": "uint256",
									"name": "n",
									"type": "uint256"
								},
								{
									"internalType": "address[]",
									"name": "organization",
									"type": "address[]"
								},
								{
									"internalType": "bool",
									"name": "kycStatus",
									"type": "bool"
								}
							],
							"internalType": "struct Kyc.Customer",
							"name": "",
							"type": "tuple"
						}
					],
					"stateMutability": "view",
					"type": "function"
				}
			],
			"devdoc": {
				"kind": "dev",
				"methods": {},
				"version": 1
			},
			"evm": {
				"assembly": "    /* \"Kyc.sol\":66:17305  contract Kyc {... */\n  mstore(0x40, 0x80)\n    /* \"Kyc.sol\":792:841  constructor() {... */\n  callvalue\n  dup1\n  iszero\n  tag_1\n  jumpi\n  0x00\n  dup1\n  revert\ntag_1:\n  pop\n    /* \"Kyc.sol\":824:834  msg.sender */\n  caller\n    /* \"Kyc.sol\":816:821  admin */\n  0x00\n  dup1\n    /* \"Kyc.sol\":816:834  admin = msg.sender */\n  0x0100\n  exp\n  dup2\n  sload\n  dup2\n  0xffffffffffffffffffffffffffffffffffffffff\n  mul\n  not\n  and\n  swap1\n  dup4\n  0xffffffffffffffffffffffffffffffffffffffff\n  and\n  mul\n  or\n  swap1\n  sstore\n  pop\n    /* \"Kyc.sol\":66:17305  contract Kyc {... */\n  dataSize(sub_0)\n  dup1\n  dataOffset(sub_0)\n  0x00\n  codecopy\n  0x00\n  return\nstop\n\nsub_0: assembly {\n        /* \"Kyc.sol\":66:17305  contract Kyc {... */\n      mstore(0x40, 0x80)\n      callvalue\n      dup1\n      iszero\n      tag_1\n      jumpi\n      0x00\n      dup1\n      revert\n    tag_1:\n      pop\n      jumpi(tag_2, lt(calldatasize, 0x04))\n      shr(0xe0, calldataload(0x00))\n      dup1\n      0xa1ac9e57\n      gt\n      tag_24\n      jumpi\n      dup1\n      0xceacabd5\n      gt\n      tag_25\n      jumpi\n      dup1\n      0xceacabd5\n      eq\n      tag_18\n      jumpi\n      dup1\n      0xd6bbbf84\n      eq\n      tag_19\n      jumpi\n      dup1\n      0xd9b18f04\n      eq\n      tag_20\n      jumpi\n      dup1\n      0xe1b2dbe8\n      eq\n      tag_21\n      jumpi\n      dup1\n      0xf3a9b588\n      eq\n      tag_22\n      jumpi\n      dup1\n      0xf851a440\n      eq\n      tag_23\n      jumpi\n      jump(tag_2)\n    tag_25:\n      dup1\n      0xa1ac9e57\n      eq\n      tag_13\n      jumpi\n      dup1\n      0xa64266e7\n      eq\n      tag_14\n      jumpi\n      dup1\n      0xb7e4a42d\n      eq\n      tag_15\n      jumpi\n      dup1\n      0xc10cebe6\n      eq\n      tag_16\n      jumpi\n      dup1\n      0xca1cbcc2\n      eq\n      tag_17\n      jumpi\n      jump(tag_2)\n    tag_24:\n      dup1\n      0x4f4b4f78\n      gt\n      tag_26\n      jumpi\n      dup1\n      0x4f4b4f78\n      eq\n      tag_8\n      jumpi\n      dup1\n      0x54291824\n      eq\n      tag_9\n      jumpi\n      dup1\n      0x7042d70c\n      eq\n      tag_10\n      jumpi\n      dup1\n      0x84f702ee\n      eq\n      tag_11\n      jumpi\n      dup1\n      0x88c4ce54\n      eq\n      tag_12\n      jumpi\n      jump(tag_2)\n    tag_26:\n      dup1\n      0x06e5d4d1\n      eq\n      tag_3\n      jumpi\n      dup1\n      0x243f6b58\n      eq\n      tag_4\n      jumpi\n      dup1\n      0x2a539a22\n      eq\n      tag_5\n      jumpi\n      dup1\n      0x32722a25\n      eq\n      tag_6\n      jumpi\n      dup1\n      0x3b2b8abf\n      eq\n      tag_7\n      jumpi\n    tag_2:\n      0x00\n      dup1\n      revert\n        /* \"Kyc.sol\":16362:16820  function revokeAccessKYC(address _ethAddress) public returns (bool) {... */\n    tag_3:\n      tag_27\n      0x04\n      dup1\n      calldatasize\n      sub\n      dup2\n      add\n      swap1\n      tag_28\n      swap2\n      swap1\n      tag_29\n      jump\t// in\n    tag_28:\n      tag_30\n      jump\t// in\n    tag_27:\n      mload(0x40)\n      tag_31\n      swap2\n      swap1\n      tag_32\n      jump\t// in\n    tag_31:\n      mload(0x40)\n      dup1\n      swap2\n      sub\n      swap1\n      return\n        /* \"Kyc.sol\":16856:17303  function removeKYC(address _custaddress) public isOrgValid returns (bool) {... */\n    tag_4:\n      tag_33\n      0x04\n      dup1\n      calldatasize\n      sub\n      dup2\n      add\n      swap1\n      tag_34\n      swap2\n      swap1\n      tag_29\n      jump\t// in\n    tag_34:\n      tag_35\n      jump\t// in\n    tag_33:\n      mload(0x40)\n      tag_36\n      swap2\n      swap1\n      tag_32\n      jump\t// in\n    tag_36:\n      mload(0x40)\n      dup1\n      swap2\n      sub\n      swap1\n      return\n        /* \"Kyc.sol\":14944:15975  function giveAccessKYC(... */\n    tag_5:\n      tag_37\n      0x04\n      dup1\n      calldatasize\n      sub\n      dup2\n      add\n      swap1\n      tag_38\n      swap2\n      swap1\n      tag_39\n      jump\t// in\n    tag_38:\n      tag_40\n      jump\t// in\n    tag_37:\n      mload(0x40)\n      tag_41\n      swap2\n      swap1\n      tag_32\n      jump\t// in\n    tag_41:\n      mload(0x40)\n      dup1\n      swap2\n      sub\n      swap1\n      return\n        /* \"Kyc.sol\":5102:5268  function getYourOrgDetail()... */\n    tag_6:\n      tag_42\n      tag_43\n      jump\t// in\n    tag_42:\n      mload(0x40)\n      tag_44\n      swap2\n      swap1\n      tag_45\n      jump\t// in\n    tag_44:\n      mload(0x40)\n      dup1\n      swap2\n      sub\n      swap1\n      return\n        /* \"Kyc.sol\":8720:8973  function viewOrgWithAccess() public view returns (address[] memory) {... */\n    tag_7:\n      tag_46\n      tag_47\n      jump\t// in\n    tag_46:\n      mload(0x40)\n      tag_48\n      swap2\n      swap1\n      tag_49\n      jump\t// in\n    tag_48:\n      mload(0x40)\n      dup1\n      swap2\n      sub\n      swap1\n      return\n        /* \"Kyc.sol\":5274:5472  function validOrg() public view returns (bool) {... */\n    tag_8:\n      tag_50\n      tag_51\n      jump\t// in\n    tag_50:\n      mload(0x40)\n      tag_52\n      swap2\n      swap1\n      tag_32\n      jump\t// in\n    tag_52:\n      mload(0x40)\n      dup1\n      swap2\n      sub\n      swap1\n      return\n        /* \"Kyc.sol\":13062:13690  function deleteRequestOrg(uint256 _reqcount)... */\n    tag_9:\n      tag_53\n      0x04\n      dup1\n      calldatasize\n      sub\n      dup2\n      add\n      swap1\n      tag_54\n      swap2\n      swap1\n      tag_55\n      jump\t// in\n    tag_54:\n      tag_56\n      jump\t// in\n    tag_53:\n      mload(0x40)\n      tag_57\n      swap2\n      swap1\n      tag_32\n      jump\t// in\n    tag_57:\n      mload(0x40)\n      dup1\n      swap2\n      sub\n      swap1\n      return\n        /* \"Kyc.sol\":13753:14379  function deleteRequestCust(uint256 _reqcount, address _ethAddress) public {... */\n    tag_10:\n      tag_58\n      0x04\n      dup1\n      calldatasize\n      sub\n      dup2\n      add\n      swap1\n      tag_59\n      swap2\n      swap1\n      tag_60\n      jump\t// in\n    tag_59:\n      tag_61\n      jump\t// in\n    tag_58:\n      stop\n        /* \"Kyc.sol\":9588:10464  function updateKYC(... */\n    tag_11:\n      tag_62\n      0x04\n      dup1\n      calldatasize\n      sub\n      dup2\n      add\n      swap1\n      tag_63\n      swap2\n      swap1\n      tag_64\n      jump\t// in\n    tag_63:\n      tag_65\n      jump\t// in\n    tag_62:\n      mload(0x40)\n      tag_66\n      swap2\n      swap1\n      tag_32\n      jump\t// in\n    tag_66:\n      mload(0x40)\n      dup1\n      swap2\n      sub\n      swap1\n      return\n        /* \"Kyc.sol\":4797:5096  function viewOrg(address _ethAddress)... */\n    tag_12:\n      tag_67\n      0x04\n      dup1\n      calldatasize\n      sub\n      dup2\n      add\n      swap1\n      tag_68\n      swap2\n      swap1\n      tag_29\n      jump\t// in\n    tag_68:\n      tag_69\n      jump\t// in\n    tag_67:\n      mload(0x40)\n      tag_70\n      swap2\n      swap1\n      tag_45\n      jump\t// in\n    tag_70:\n      mload(0x40)\n      dup1\n      swap2\n      sub\n      swap1\n      return\n        /* \"Kyc.sol\":3896:4397  function addOrg(string memory _name, address _ethAddress)... */\n    tag_13:\n      tag_71\n      0x04\n      dup1\n      calldatasize\n      sub\n      dup2\n      add\n      swap1\n      tag_72\n      swap2\n      swap1\n      tag_73\n      jump\t// in\n    tag_72:\n      tag_74\n      jump\t// in\n    tag_71:\n      mload(0x40)\n      tag_75\n      swap2\n      swap1\n      tag_32\n      jump\t// in\n    tag_75:\n      mload(0x40)\n      dup1\n      swap2\n      sub\n      swap1\n      return\n        /* \"Kyc.sol\":6960:7748  function registerKYC(... */\n    tag_14:\n      tag_76\n      0x04\n      dup1\n      calldatasize\n      sub\n      dup2\n      add\n      swap1\n      tag_77\n      swap2\n      swap1\n      tag_64\n      jump\t// in\n    tag_77:\n      tag_78\n      jump\t// in\n    tag_76:\n      mload(0x40)\n      tag_79\n      swap2\n      swap1\n      tag_32\n      jump\t// in\n    tag_79:\n      mload(0x40)\n      dup1\n      swap2\n      sub\n      swap1\n      return\n        /* \"Kyc.sol\":4443:4747  function removeOrg(address _ethAddress) public isAdmin returns (bool) {... */\n    tag_15:\n      tag_80\n      0x04\n      dup1\n      calldatasize\n      sub\n      dup2\n      add\n      swap1\n      tag_81\n      swap2\n      swap1\n      tag_29\n      jump\t// in\n    tag_81:\n      tag_82\n      jump\t// in\n    tag_80:\n      mload(0x40)\n      tag_83\n      swap2\n      swap1\n      tag_32\n      jump\t// in\n    tag_83:\n      mload(0x40)\n      dup1\n      swap2\n      sub\n      swap1\n      return\n        /* \"Kyc.sol\":10501:11462  function requestKYC(address _custaddress) public isOrgValid returns (bool) {... */\n    tag_16:\n      tag_84\n      0x04\n      dup1\n      calldatasize\n      sub\n      dup2\n      add\n      swap1\n      tag_85\n      swap2\n      swap1\n      tag_29\n      jump\t// in\n    tag_85:\n      tag_86\n      jump\t// in\n    tag_84:\n      mload(0x40)\n      tag_87\n      swap2\n      swap1\n      tag_32\n      jump\t// in\n    tag_87:\n      mload(0x40)\n      dup1\n      swap2\n      sub\n      swap1\n      return\n        /* \"Kyc.sol\":8979:9526  function viewRequestCust() public view returns (kycRequestList[] memory) {... */\n    tag_17:\n      tag_88\n      tag_89\n      jump\t// in\n    tag_88:\n      mload(0x40)\n      tag_90\n      swap2\n      swap1\n      tag_91\n      jump\t// in\n    tag_90:\n      mload(0x40)\n      dup1\n      swap2\n      sub\n      swap1\n      return\n        /* \"Kyc.sol\":8556:8714  function viewYourKYC() public view returns (Customer memory) {... */\n    tag_18:\n      tag_92\n      tag_93\n      jump\t// in\n    tag_92:\n      mload(0x40)\n      tag_94\n      swap2\n      swap1\n      tag_95\n      jump\t// in\n    tag_94:\n      mload(0x40)\n      dup1\n      swap2\n      sub\n      swap1\n      return\n        /* \"Kyc.sol\":5478:5647  function validAdmin() public view returns (bool) {... */\n    tag_19:\n      tag_96\n      tag_97\n      jump\t// in\n    tag_96:\n      mload(0x40)\n      tag_98\n      swap2\n      swap1\n      tag_32\n      jump\t// in\n    tag_98:\n      mload(0x40)\n      dup1\n      swap2\n      sub\n      swap1\n      return\n        /* \"Kyc.sol\":7793:8550  function viewKYC(address _custaddress)... */\n    tag_20:\n      tag_99\n      0x04\n      dup1\n      calldatasize\n      sub\n      dup2\n      add\n      swap1\n      tag_100\n      swap2\n      swap1\n      tag_29\n      jump\t// in\n    tag_100:\n      tag_101\n      jump\t// in\n    tag_99:\n      mload(0x40)\n      tag_102\n      swap8\n      swap7\n      swap6\n      swap5\n      swap4\n      swap3\n      swap2\n      swap1\n      tag_103\n      jump\t// in\n    tag_102:\n      mload(0x40)\n      dup1\n      swap2\n      sub\n      swap1\n      return\n        /* \"Kyc.sol\":5653:5849  function validCust() public view returns (bool) {... */\n    tag_21:\n      tag_104\n      tag_105\n      jump\t// in\n    tag_104:\n      mload(0x40)\n      tag_106\n      swap2\n      swap1\n      tag_32\n      jump\t// in\n    tag_106:\n      mload(0x40)\n      dup1\n      swap2\n      sub\n      swap1\n      return\n        /* \"Kyc.sol\":14439:14904  function listRequest()... */\n    tag_22:\n      tag_107\n      tag_108\n      jump\t// in\n    tag_107:\n      mload(0x40)\n      tag_109\n      swap2\n      swap1\n      tag_91\n      jump\t// in\n    tag_109:\n      mload(0x40)\n      dup1\n      swap2\n      sub\n      swap1\n      return\n        /* \"Kyc.sol\":85:105  address public admin */\n    tag_23:\n      tag_110\n      tag_111\n      jump\t// in\n    tag_110:\n      mload(0x40)\n      tag_112\n      swap2\n      swap1\n      tag_113\n      jump\t// in\n    tag_112:\n      mload(0x40)\n      dup1\n      swap2\n      sub\n      swap1\n      return\n        /* \"Kyc.sol\":16362:16820  function revokeAccessKYC(address _ethAddress) public returns (bool) {... */\n    tag_30:\n        /* \"Kyc.sol\":16424:16428  bool */\n      0x00\n        /* \"Kyc.sol\":16498:16508  msg.sender */\n      caller\n        /* \"Kyc.sol\":16461:16508  customers[msg.sender].custAddress == msg.sender */\n      0xffffffffffffffffffffffffffffffffffffffff\n      and\n        /* \"Kyc.sol\":16461:16470  customers */\n      0x01\n        /* \"Kyc.sol\":16461:16482  customers[msg.sender] */\n      0x00\n        /* \"Kyc.sol\":16471:16481  msg.sender */\n      caller\n        /* \"Kyc.sol\":16461:16482  customers[msg.sender] */\n      0xffffffffffffffffffffffffffffffffffffffff\n      and\n      0xffffffffffffffffffffffffffffffffffffffff\n      and\n      dup2\n      mstore\n      0x20\n      add\n      swap1\n      dup2\n      mstore\n      0x20\n      add\n      0x00\n      keccak256\n        /* \"Kyc.sol\":16461:16494  customers[msg.sender].custAddress */\n      0x00\n      add\n      0x00\n      swap1\n      sload\n      swap1\n      0x0100\n      exp\n      swap1\n      div\n      0xffffffffffffffffffffffffffffffffffffffff\n      and\n        /* \"Kyc.sol\":16461:16508  customers[msg.sender].custAddress == msg.sender */\n      0xffffffffffffffffffffffffffffffffffffffff\n      and\n      eq\n        /* \"Kyc.sol\":16440:16574  require(... */\n      tag_115\n      jumpi\n      mload(0x40)\n      0x08c379a000000000000000000000000000000000000000000000000000000000\n      dup2\n      mstore\n      0x04\n      add\n      tag_116\n      swap1\n      tag_117\n      jump\t// in\n    tag_116:\n      mload(0x40)\n      dup1\n      swap2\n      sub\n      swap1\n      revert\n    tag_115:\n        /* \"Kyc.sol\":16605:16637  findOrg(msg.sender, _ethAddress) */\n      tag_118\n        /* \"Kyc.sol\":16613:16623  msg.sender */\n      caller\n        /* \"Kyc.sol\":16625:16636  _ethAddress */\n      dup4\n        /* \"Kyc.sol\":16605:16612  findOrg */\n      tag_119\n        /* \"Kyc.sol\":16605:16637  findOrg(msg.sender, _ethAddress) */\n      jump\t// in\n    tag_118:\n        /* \"Kyc.sol\":16584:16696  require(... */\n      tag_120\n      jumpi\n      mload(0x40)\n      0x08c379a000000000000000000000000000000000000000000000000000000000\n      dup2\n      mstore\n      0x04\n      add\n      tag_121\n      swap1\n      tag_122\n      jump\t// in\n    tag_121:\n      mload(0x40)\n      dup1\n      swap2\n      sub\n      swap1\n      revert\n    tag_120:\n        /* \"Kyc.sol\":16706:16737  remove(msg.sender, _ethAddress) */\n      tag_123\n        /* \"Kyc.sol\":16713:16723  msg.sender */\n      caller\n        /* \"Kyc.sol\":16725:16736  _ethAddress */\n      dup4\n        /* \"Kyc.sol\":16706:16712  remove */\n      tag_124\n        /* \"Kyc.sol\":16706:16737  remove(msg.sender, _ethAddress) */\n      jump\t// in\n    tag_123:\n        /* \"Kyc.sol\":16809:16813  true */\n      0x01\n        /* \"Kyc.sol\":16802:16813  return true */\n      swap1\n      pop\n        /* \"Kyc.sol\":16362:16820  function revokeAccessKYC(address _ethAddress) public returns (bool) {... */\n      swap2\n      swap1\n      pop\n      jump\t// out\n        /* \"Kyc.sol\":16856:17303  function removeKYC(address _custaddress) public isOrgValid returns (bool) {... */\n    tag_35:\n        /* \"Kyc.sol\":16924:16928  bool */\n      0x00\n        /* \"Kyc.sol\":2051:2061  msg.sender */\n      caller\n        /* \"Kyc.sol\":2011:2061  organizations[msg.sender].ethAddress == msg.sender */\n      0xffffffffffffffffffffffffffffffffffffffff\n      and\n        /* \"Kyc.sol\":2011:2024  organizations */\n      0x02\n        /* \"Kyc.sol\":2011:2036  organizations[msg.sender] */\n      0x00\n        /* \"Kyc.sol\":2025:2035  msg.sender */\n      caller\n        /* \"Kyc.sol\":2011:2036  organizations[msg.sender] */\n      0xffffffffffffffffffffffffffffffffffffffff\n      and\n      0xffffffffffffffffffffffffffffffffffffffff\n      and\n      dup2\n      mstore\n      0x20\n      add\n      swap1\n      dup2\n      mstore\n      0x20\n      add\n      0x00\n      keccak256\n        /* \"Kyc.sol\":2011:2047  organizations[msg.sender].ethAddress */\n      0x01\n      add\n      0x00\n      swap1\n      sload\n      swap1\n      0x0100\n      exp\n      swap1\n      div\n      0xffffffffffffffffffffffffffffffffffffffff\n      and\n        /* \"Kyc.sol\":2011:2061  organizations[msg.sender].ethAddress == msg.sender */\n      0xffffffffffffffffffffffffffffffffffffffff\n      and\n      eq\n        /* \"Kyc.sol\":1990:2100  require(... */\n      tag_126\n      jumpi\n      mload(0x40)\n      0x08c379a000000000000000000000000000000000000000000000000000000000\n      dup2\n      mstore\n      0x04\n      add\n      tag_127\n      swap1\n      tag_128\n      jump\t// in\n    tag_127:\n      mload(0x40)\n      dup1\n      swap2\n      sub\n      swap1\n      revert\n    tag_126:\n        /* \"Kyc.sol\":17000:17012  _custaddress */\n      dup2\n        /* \"Kyc.sol\":16961:17012  customers[_custaddress].custAddress == _custaddress */\n      0xffffffffffffffffffffffffffffffffffffffff\n      and\n        /* \"Kyc.sol\":16961:16970  customers */\n      0x01\n        /* \"Kyc.sol\":16961:16984  customers[_custaddress] */\n      0x00\n        /* \"Kyc.sol\":16971:16983  _custaddress */\n      dup5\n        /* \"Kyc.sol\":16961:16984  customers[_custaddress] */\n      0xffffffffffffffffffffffffffffffffffffffff\n      and\n      0xffffffffffffffffffffffffffffffffffffffff\n      and\n      dup2\n      mstore\n      0x20\n      add\n      swap1\n      dup2\n      mstore\n      0x20\n      add\n      0x00\n      keccak256\n        /* \"Kyc.sol\":16961:16996  customers[_custaddress].custAddress */\n      0x00\n      add\n      0x00\n      swap1\n      sload\n      swap1\n      0x0100\n      exp\n      swap1\n      div\n      0xffffffffffffffffffffffffffffffffffffffff\n      and\n        /* \"Kyc.sol\":16961:17012  customers[_custaddress].custAddress == _custaddress */\n      0xffffffffffffffffffffffffffffffffffffffff\n      and\n      eq\n        /* \"Kyc.sol\":16940:17056  require(... */\n      tag_130\n      jumpi\n      mload(0x40)\n      0x08c379a000000000000000000000000000000000000000000000000000000000\n      dup2\n      mstore\n      0x04\n      add\n      tag_131\n      swap1\n      tag_132\n      jump\t// in\n    tag_131:\n      mload(0x40)\n      dup1\n      swap2\n      sub\n      swap1\n      revert\n    tag_130:\n        /* \"Kyc.sol\":17087:17120  findOrg(_custaddress, msg.sender) */\n      tag_133\n        /* \"Kyc.sol\":17095:17107  _custaddress */\n      dup3\n        /* \"Kyc.sol\":17109:17119  msg.sender */\n      caller\n        /* \"Kyc.sol\":17087:17094  findOrg */\n      tag_119\n        /* \"Kyc.sol\":17087:17120  findOrg(_custaddress, msg.sender) */\n      jump\t// in\n    tag_133:\n        /* \"Kyc.sol\":17066:17179  require(... */\n      tag_134\n      jumpi\n      mload(0x40)\n      0x08c379a000000000000000000000000000000000000000000000000000000000\n      dup2\n      mstore\n      0x04\n      add\n      tag_135\n      swap1\n      tag_122\n      jump\t// in\n    tag_135:\n      mload(0x40)\n      dup1\n      swap2\n      sub\n      swap1\n      revert\n    tag_134:\n        /* \"Kyc.sol\":17189:17221  remove(_custaddress, msg.sender) */\n      tag_136\n        /* \"Kyc.sol\":17196:17208  _custaddress */\n      dup3\n        /* \"Kyc.sol\":17210:17220  msg.sender */\n      caller\n        /* \"Kyc.sol\":17189:17195  remove */\n      tag_124\n        /* \"Kyc.sol\":17189:17221  remove(_custaddress, msg.sender) */\n      jump\t// in\n    tag_136:\n        /* \"Kyc.sol\":17292:17296  true */\n      0x01\n        /* \"Kyc.sol\":17285:17296  return true */\n      swap1\n      pop\n        /* \"Kyc.sol\":16856:17303  function removeKYC(address _custaddress) public isOrgValid returns (bool) {... */\n      swap2\n      swap1\n      pop\n      jump\t// out\n        /* \"Kyc.sol\":14944:15975  function giveAccessKYC(... */\n    tag_40:\n        /* \"Kyc.sol\":15070:15074  bool */\n      0x00\n        /* \"Kyc.sol\":15144:15154  msg.sender */\n      caller\n        /* \"Kyc.sol\":15107:15154  customers[msg.sender].custAddress == msg.sender */\n      0xffffffffffffffffffffffffffffffffffffffff\n      and\n        /* \"Kyc.sol\":15107:15116  customers */\n      0x01\n        /* \"Kyc.sol\":15107:15128  customers[msg.sender] */\n      0x00\n        /* \"Kyc.sol\":15117:15127  msg.sender */\n      caller\n        /* \"Kyc.sol\":15107:15128  customers[msg.sender] */\n      0xffffffffffffffffffffffffffffffffffffffff\n      and\n      0xffffffffffffffffffffffffffffffffffffffff\n      and\n      dup2\n      mstore\n      0x20\n      add\n      swap1\n      dup2\n      mstore\n      0x20\n      add\n      0x00\n      keccak256\n        /* \"Kyc.sol\":15107:15140  customers[msg.sender].custAddress */\n      0x00\n      add\n      0x00\n      swap1\n      sload\n      swap1\n      0x0100\n      exp\n      swap1\n      div\n      0xffffffffffffffffffffffffffffffffffffffff\n      and\n        /* \"Kyc.sol\":15107:15154  customers[msg.sender].custAddress == msg.sender */\n      0xffffffffffffffffffffffffffffffffffffffff\n      and\n      eq\n        /* \"Kyc.sol\":15086:15218  require(... */\n      tag_138\n      jumpi\n      mload(0x40)\n      0x08c379a000000000000000000000000000000000000000000000000000000000\n      dup2\n      mstore\n      0x04\n      add\n      tag_139\n      swap1\n      tag_140\n      jump\t// in\n    tag_139:\n      mload(0x40)\n      dup1\n      swap2\n      sub\n      swap1\n      revert\n    tag_138:\n        /* \"Kyc.sol\":15332:15342  msg.sender */\n      caller\n        /* \"Kyc.sol\":15249:15342  kycrequestsbyorg[_ethAddress].kycrequestlist[_reqcount].Address ==... */\n      0xffffffffffffffffffffffffffffffffffffffff\n      and\n        /* \"Kyc.sol\":15249:15265  kycrequestsbyorg */\n      0x03\n        /* \"Kyc.sol\":15249:15278  kycrequestsbyorg[_ethAddress] */\n      0x00\n        /* \"Kyc.sol\":15266:15277  _ethAddress */\n      dup6\n        /* \"Kyc.sol\":15249:15278  kycrequestsbyorg[_ethAddress] */\n      0xffffffffffffffffffffffffffffffffffffffff\n      and\n      0xffffffffffffffffffffffffffffffffffffffff\n      and\n      dup2\n      mstore\n      0x20\n      add\n      swap1\n      dup2\n      mstore\n      0x20\n      add\n      0x00\n      keccak256\n        /* \"Kyc.sol\":15249:15293  kycrequestsbyorg[_ethAddress].kycrequestlist */\n      0x02\n      add\n        /* \"Kyc.sol\":15294:15303  _reqcount */\n      dup6\n        /* \"Kyc.sol\":15249:15304  kycrequestsbyorg[_ethAddress].kycrequestlist[_reqcount] */\n      dup2\n      sload\n      dup2\n      lt\n      tag_141\n      jumpi\n      tag_142\n      tag_143\n      jump\t// in\n    tag_142:\n    tag_141:\n      swap1\n      0x00\n      mstore\n      keccak256(0x00, 0x20)\n      swap1\n      0x02\n      mul\n      add\n        /* \"Kyc.sol\":15249:15312  kycrequestsbyorg[_ethAddress].kycrequestlist[_reqcount].Address */\n      0x01\n      add\n      0x00\n      swap1\n      sload\n      swap1\n      0x0100\n      exp\n      swap1\n      div\n      0xffffffffffffffffffffffffffffffffffffffff\n      and\n        /* \"Kyc.sol\":15249:15342  kycrequestsbyorg[_ethAddress].kycrequestlist[_reqcount].Address ==... */\n      0xffffffffffffffffffffffffffffffffffffffff\n      and\n      eq\n        /* \"Kyc.sol\":15228:15382  require(... */\n      tag_145\n      jumpi\n      mload(0x40)\n      0x08c379a000000000000000000000000000000000000000000000000000000000\n      dup2\n      mstore\n      0x04\n      add\n      tag_146\n      swap1\n      tag_147\n      jump\t// in\n    tag_146:\n      mload(0x40)\n      dup1\n      swap2\n      sub\n      swap1\n      revert\n    tag_145:\n        /* \"Kyc.sol\":15498:15507  _reqcount */\n      dup4\n        /* \"Kyc.sol\":15413:15429  kycrequestsbyorg */\n      0x03\n        /* \"Kyc.sol\":15413:15442  kycrequestsbyorg[_ethAddress] */\n      0x00\n        /* \"Kyc.sol\":15430:15441  _ethAddress */\n      dup6\n        /* \"Kyc.sol\":15413:15442  kycrequestsbyorg[_ethAddress] */\n      0xffffffffffffffffffffffffffffffffffffffff\n      and\n      0xffffffffffffffffffffffffffffffffffffffff\n      and\n      dup2\n      mstore\n      0x20\n      add\n      swap1\n      dup2\n      mstore\n      0x20\n      add\n      0x00\n      keccak256\n        /* \"Kyc.sol\":15413:15457  kycrequestsbyorg[_ethAddress].kycrequestlist */\n      0x02\n      add\n        /* \"Kyc.sol\":15458:15467  _reqcount */\n      dup6\n        /* \"Kyc.sol\":15413:15468  kycrequestsbyorg[_ethAddress].kycrequestlist[_reqcount] */\n      dup2\n      sload\n      dup2\n      lt\n      tag_148\n      jumpi\n      tag_149\n      tag_143\n      jump\t// in\n    tag_149:\n    tag_148:\n      swap1\n      0x00\n      mstore\n      keccak256(0x00, 0x20)\n      swap1\n      0x02\n      mul\n      add\n        /* \"Kyc.sol\":15413:15478  kycrequestsbyorg[_ethAddress].kycrequestlist[_reqcount].req_count */\n      0x00\n      add\n      sload\n        /* \"Kyc.sol\":15413:15507  kycrequestsbyorg[_ethAddress].kycrequestlist[_reqcount].req_count ==... */\n      eq\n        /* \"Kyc.sol\":15392:15551  require(... */\n      tag_151\n      jumpi\n      mload(0x40)\n      0x08c379a000000000000000000000000000000000000000000000000000000000\n      dup2\n      mstore\n      0x04\n      add\n      tag_152\n      swap1\n      tag_153\n      jump\t// in\n    tag_152:\n      mload(0x40)\n      dup1\n      swap2\n      sub\n      swap1\n      revert\n    tag_151:\n        /* \"Kyc.sol\":15579:15583  true */\n      0x01\n        /* \"Kyc.sol\":15565:15583  _isAllowed == true */\n      iszero\n      iszero\n        /* \"Kyc.sol\":15565:15575  _isAllowed */\n      dup3\n        /* \"Kyc.sol\":15565:15583  _isAllowed == true */\n      iszero\n      iszero\n      sub\n        /* \"Kyc.sol\":15561:15948  if (_isAllowed == true) {... */\n      tag_154\n      jumpi\n        /* \"Kyc.sol\":15639:15644  false */\n      0x00\n        /* \"Kyc.sol\":15603:15644  findOrg(msg.sender, _ethAddress) == false */\n      iszero\n      iszero\n        /* \"Kyc.sol\":15603:15635  findOrg(msg.sender, _ethAddress) */\n      tag_155\n        /* \"Kyc.sol\":15611:15621  msg.sender */\n      caller\n        /* \"Kyc.sol\":15623:15634  _ethAddress */\n      dup6\n        /* \"Kyc.sol\":15603:15610  findOrg */\n      tag_119\n        /* \"Kyc.sol\":15603:15635  findOrg(msg.sender, _ethAddress) */\n      jump\t// in\n    tag_155:\n        /* \"Kyc.sol\":15603:15644  findOrg(msg.sender, _ethAddress) == false */\n      iszero\n      iszero\n      sub\n        /* \"Kyc.sol\":15599:15731  if (findOrg(msg.sender, _ethAddress) == false) {... */\n      tag_156\n      jumpi\n        /* \"Kyc.sol\":15664:15673  customers */\n      0x01\n        /* \"Kyc.sol\":15664:15685  customers[msg.sender] */\n      0x00\n        /* \"Kyc.sol\":15674:15684  msg.sender */\n      caller\n        /* \"Kyc.sol\":15664:15685  customers[msg.sender] */\n      0xffffffffffffffffffffffffffffffffffffffff\n      and\n      0xffffffffffffffffffffffffffffffffffffffff\n      and\n      dup2\n      mstore\n      0x20\n      add\n      swap1\n      dup2\n      mstore\n      0x20\n      add\n      0x00\n      keccak256\n        /* \"Kyc.sol\":15664:15698  customers[msg.sender].organization */\n      0x07\n      add\n        /* \"Kyc.sol\":15704:15715  _ethAddress */\n      dup4\n        /* \"Kyc.sol\":15664:15716  customers[msg.sender].organization.push(_ethAddress) */\n      swap1\n      dup1\n      0x01\n      dup2\n      sload\n      add\n      dup1\n      dup3\n      sstore\n      dup1\n      swap2\n      pop\n      pop\n      0x01\n      swap1\n      sub\n      swap1\n      0x00\n      mstore\n      keccak256(0x00, 0x20)\n      add\n      0x00\n      swap1\n      swap2\n      swap1\n      swap2\n      swap1\n      swap2\n      0x0100\n      exp\n      dup2\n      sload\n      dup2\n      0xffffffffffffffffffffffffffffffffffffffff\n      mul\n      not\n      and\n      swap1\n      dup4\n      0xffffffffffffffffffffffffffffffffffffffff\n      and\n      mul\n      or\n      swap1\n      sstore\n      pop\n        /* \"Kyc.sol\":15599:15731  if (findOrg(msg.sender, _ethAddress) == false) {... */\n    tag_156:\n        /* \"Kyc.sol\":15744:15785  deleteRequestCust(_reqcount, _ethAddress) */\n      tag_158\n        /* \"Kyc.sol\":15762:15771  _reqcount */\n      dup5\n        /* \"Kyc.sol\":15773:15784  _ethAddress */\n      dup5\n        /* \"Kyc.sol\":15744:15761  deleteRequestCust */\n      tag_61\n        /* \"Kyc.sol\":15744:15785  deleteRequestCust(_reqcount, _ethAddress) */\n      jump\t// in\n    tag_158:\n        /* \"Kyc.sol\":15561:15948  if (_isAllowed == true) {... */\n      jump(tag_159)\n    tag_154:\n        /* \"Kyc.sol\":15896:15937  deleteRequestCust(_reqcount, _ethAddress) */\n      tag_160\n        /* \"Kyc.sol\":15914:15923  _reqcount */\n      dup5\n        /* \"Kyc.sol\":15925:15936  _ethAddress */\n      dup5\n        /* \"Kyc.sol\":15896:15913  deleteRequestCust */\n      tag_61\n        /* \"Kyc.sol\":15896:15937  deleteRequestCust(_reqcount, _ethAddress) */\n      jump\t// in\n    tag_160:\n        /* \"Kyc.sol\":15561:15948  if (_isAllowed == true) {... */\n    tag_159:\n        /* \"Kyc.sol\":15964:15968  true */\n      0x01\n        /* \"Kyc.sol\":15957:15968  return true */\n      swap1\n      pop\n        /* \"Kyc.sol\":14944:15975  function giveAccessKYC(... */\n      swap4\n      swap3\n      pop\n      pop\n      pop\n      jump\t// out\n        /* \"Kyc.sol\":5102:5268  function getYourOrgDetail()... */\n    tag_43:\n        /* \"Kyc.sol\":5194:5213  Organization memory */\n      tag_161\n      tag_162\n      jump\t// in\n    tag_161:\n        /* \"Kyc.sol\":2051:2061  msg.sender */\n      caller\n        /* \"Kyc.sol\":2011:2061  organizations[msg.sender].ethAddress == msg.sender */\n      0xffffffffffffffffffffffffffffffffffffffff\n      and\n        /* \"Kyc.sol\":2011:2024  organizations */\n      0x02\n        /* \"Kyc.sol\":2011:2036  organizations[msg.sender] */\n      0x00\n        /* \"Kyc.sol\":2025:2035  msg.sender */\n      caller\n        /* \"Kyc.sol\":2011:2036  organizations[msg.sender] */\n      0xffffffffffffffffffffffffffffffffffffffff\n      and\n      0xffffffffffffffffffffffffffffffffffffffff\n      and\n      dup2\n      mstore\n      0x20\n      add\n      swap1\n      dup2\n      mstore\n      0x20\n      add\n      0x00\n      keccak256\n        /* \"Kyc.sol\":2011:2047  organizations[msg.sender].ethAddress */\n      0x01\n      add\n      0x00\n      swap1\n      sload\n      swap1\n      0x0100\n      exp\n      swap1\n      div\n      0xffffffffffffffffffffffffffffffffffffffff\n      and\n        /* \"Kyc.sol\":2011:2061  organizations[msg.sender].ethAddress == msg.sender */\n      0xffffffffffffffffffffffffffffffffffffffff\n      and\n      eq\n        /* \"Kyc.sol\":1990:2100  require(... */\n      tag_164\n      jumpi\n      mload(0x40)\n      0x08c379a000000000000000000000000000000000000000000000000000000000\n      dup2\n      mstore\n      0x04\n      add\n      tag_165\n      swap1\n      tag_128\n      jump\t// in\n    tag_165:\n      mload(0x40)\n      dup1\n      swap2\n      sub\n      swap1\n      revert\n    tag_164:\n        /* \"Kyc.sol\":5236:5249  organizations */\n      0x02\n        /* \"Kyc.sol\":5236:5261  organizations[msg.sender] */\n      0x00\n        /* \"Kyc.sol\":5250:5260  msg.sender */\n      caller\n        /* \"Kyc.sol\":5236:5261  organizations[msg.sender] */\n      0xffffffffffffffffffffffffffffffffffffffff\n      and\n      0xffffffffffffffffffffffffffffffffffffffff\n      and\n      dup2\n      mstore\n      0x20\n      add\n      swap1\n      dup2\n      mstore\n      0x20\n      add\n      0x00\n      keccak256\n        /* \"Kyc.sol\":5229:5261  return organizations[msg.sender] */\n      mload(0x40)\n      dup1\n      0x40\n      add\n      0x40\n      mstore\n      swap1\n      dup2\n      0x00\n      dup3\n      add\n      dup1\n      sload\n      tag_167\n      swap1\n      tag_168\n      jump\t// in\n    tag_167:\n      dup1\n      0x1f\n      add\n      0x20\n      dup1\n      swap2\n      div\n      mul\n      0x20\n      add\n      mload(0x40)\n      swap1\n      dup2\n      add\n      0x40\n      mstore\n      dup1\n      swap3\n      swap2\n      swap1\n      dup2\n      dup2\n      mstore\n      0x20\n      add\n      dup3\n      dup1\n      sload\n      tag_169\n      swap1\n      tag_168\n      jump\t// in\n    tag_169:\n      dup1\n      iszero\n      tag_170\n      jumpi\n      dup1\n      0x1f\n      lt\n      tag_171\n      jumpi\n      0x0100\n      dup1\n      dup4\n      sload\n      div\n      mul\n      dup4\n      mstore\n      swap2\n      0x20\n      add\n      swap2\n      jump(tag_170)\n    tag_171:\n      dup3\n      add\n      swap2\n      swap1\n      0x00\n      mstore\n      keccak256(0x00, 0x20)\n      swap1\n    tag_172:\n      dup2\n      sload\n      dup2\n      mstore\n      swap1\n      0x01\n      add\n      swap1\n      0x20\n      add\n      dup1\n      dup4\n      gt\n      tag_172\n      jumpi\n      dup3\n      swap1\n      sub\n      0x1f\n      and\n      dup3\n      add\n      swap2\n    tag_170:\n      pop\n      pop\n      pop\n      pop\n      pop\n      dup2\n      mstore\n      0x20\n      add\n      0x01\n      dup3\n      add\n      0x00\n      swap1\n      sload\n      swap1\n      0x0100\n      exp\n      swap1\n      div\n      0xffffffffffffffffffffffffffffffffffffffff\n      and\n      0xffffffffffffffffffffffffffffffffffffffff\n      and\n      0xffffffffffffffffffffffffffffffffffffffff\n      and\n      dup2\n      mstore\n      pop\n      pop\n      swap1\n      pop\n        /* \"Kyc.sol\":5102:5268  function getYourOrgDetail()... */\n      swap1\n      jump\t// out\n        /* \"Kyc.sol\":8720:8973  function viewOrgWithAccess() public view returns (address[] memory) {... */\n    tag_47:\n        /* \"Kyc.sol\":8770:8786  address[] memory */\n      0x60\n        /* \"Kyc.sol\":8856:8866  msg.sender */\n      caller\n        /* \"Kyc.sol\":8819:8866  customers[msg.sender].custAddress == msg.sender */\n      0xffffffffffffffffffffffffffffffffffffffff\n      and\n        /* \"Kyc.sol\":8819:8828  customers */\n      0x01\n        /* \"Kyc.sol\":8819:8840  customers[msg.sender] */\n      0x00\n        /* \"Kyc.sol\":8829:8839  msg.sender */\n      caller\n        /* \"Kyc.sol\":8819:8840  customers[msg.sender] */\n      0xffffffffffffffffffffffffffffffffffffffff\n      and\n      0xffffffffffffffffffffffffffffffffffffffff\n      and\n      dup2\n      mstore\n      0x20\n      add\n      swap1\n      dup2\n      mstore\n      0x20\n      add\n      0x00\n      keccak256\n        /* \"Kyc.sol\":8819:8852  customers[msg.sender].custAddress */\n      0x00\n      add\n      0x00\n      swap1\n      sload\n      swap1\n      0x0100\n      exp\n      swap1\n      div\n      0xffffffffffffffffffffffffffffffffffffffff\n      and\n        /* \"Kyc.sol\":8819:8866  customers[msg.sender].custAddress == msg.sender */\n      0xffffffffffffffffffffffffffffffffffffffff\n      and\n      eq\n        /* \"Kyc.sol\":8798:8915  require(... */\n      tag_174\n      jumpi\n      mload(0x40)\n      0x08c379a000000000000000000000000000000000000000000000000000000000\n      dup2\n      mstore\n      0x04\n      add\n      tag_175\n      swap1\n      tag_176\n      jump\t// in\n    tag_175:\n      mload(0x40)\n      dup1\n      swap2\n      sub\n      swap1\n      revert\n    tag_174:\n        /* \"Kyc.sol\":8932:8941  customers */\n      0x01\n        /* \"Kyc.sol\":8932:8953  customers[msg.sender] */\n      0x00\n        /* \"Kyc.sol\":8942:8952  msg.sender */\n      caller\n        /* \"Kyc.sol\":8932:8953  customers[msg.sender] */\n      0xffffffffffffffffffffffffffffffffffffffff\n      and\n      0xffffffffffffffffffffffffffffffffffffffff\n      and\n      dup2\n      mstore\n      0x20\n      add\n      swap1\n      dup2\n      mstore\n      0x20\n      add\n      0x00\n      keccak256\n        /* \"Kyc.sol\":8932:8966  customers[msg.sender].organization */\n      0x07\n      add\n        /* \"Kyc.sol\":8925:8966  return customers[msg.sender].organization */\n      dup1\n      sload\n      dup1\n      0x20\n      mul\n      0x20\n      add\n      mload(0x40)\n      swap1\n      dup2\n      add\n      0x40\n      mstore\n      dup1\n      swap3\n      swap2\n      swap1\n      dup2\n      dup2\n      mstore\n      0x20\n      add\n      dup3\n      dup1\n      sload\n      dup1\n      iszero\n      tag_177\n      jumpi\n      0x20\n      mul\n      dup3\n      add\n      swap2\n      swap1\n      0x00\n      mstore\n      keccak256(0x00, 0x20)\n      swap1\n    tag_178:\n      dup2\n      0x00\n      swap1\n      sload\n      swap1\n      0x0100\n      exp\n      swap1\n      div\n      0xffffffffffffffffffffffffffffffffffffffff\n      and\n      0xffffffffffffffffffffffffffffffffffffffff\n      and\n      dup2\n      mstore\n      0x20\n      add\n      swap1\n      0x01\n      add\n      swap1\n      dup1\n      dup4\n      gt\n      tag_178\n      jumpi\n    tag_177:\n      pop\n      pop\n      pop\n      pop\n      pop\n      swap1\n      pop\n        /* \"Kyc.sol\":8720:8973  function viewOrgWithAccess() public view returns (address[] memory) {... */\n      swap1\n      jump\t// out\n        /* \"Kyc.sol\":5274:5472  function validOrg() public view returns (bool) {... */\n    tag_51:\n        /* \"Kyc.sol\":5315:5319  bool */\n      0x00\n        /* \"Kyc.sol\":5375:5385  msg.sender */\n      caller\n        /* \"Kyc.sol\":5335:5385  organizations[msg.sender].ethAddress == msg.sender */\n      0xffffffffffffffffffffffffffffffffffffffff\n      and\n        /* \"Kyc.sol\":5335:5348  organizations */\n      0x02\n        /* \"Kyc.sol\":5335:5360  organizations[msg.sender] */\n      0x00\n        /* \"Kyc.sol\":5349:5359  msg.sender */\n      caller\n        /* \"Kyc.sol\":5335:5360  organizations[msg.sender] */\n      0xffffffffffffffffffffffffffffffffffffffff\n      and\n      0xffffffffffffffffffffffffffffffffffffffff\n      and\n      dup2\n      mstore\n      0x20\n      add\n      swap1\n      dup2\n      mstore\n      0x20\n      add\n      0x00\n      keccak256\n        /* \"Kyc.sol\":5335:5371  organizations[msg.sender].ethAddress */\n      0x01\n      add\n      0x00\n      swap1\n      sload\n      swap1\n      0x0100\n      exp\n      swap1\n      div\n      0xffffffffffffffffffffffffffffffffffffffff\n      and\n        /* \"Kyc.sol\":5335:5385  organizations[msg.sender].ethAddress == msg.sender */\n      0xffffffffffffffffffffffffffffffffffffffff\n      and\n      sub\n        /* \"Kyc.sol\":5331:5466  if (organizations[msg.sender].ethAddress == msg.sender) {... */\n      tag_180\n      jumpi\n        /* \"Kyc.sol\":5408:5412  true */\n      0x01\n        /* \"Kyc.sol\":5401:5412  return true */\n      swap1\n      pop\n      jump(tag_179)\n        /* \"Kyc.sol\":5331:5466  if (organizations[msg.sender].ethAddress == msg.sender) {... */\n    tag_180:\n        /* \"Kyc.sol\":5450:5455  false */\n      0x00\n        /* \"Kyc.sol\":5443:5455  return false */\n      swap1\n      pop\n        /* \"Kyc.sol\":5274:5472  function validOrg() public view returns (bool) {... */\n    tag_179:\n      swap1\n      jump\t// out\n        /* \"Kyc.sol\":13062:13690  function deleteRequestOrg(uint256 _reqcount)... */\n    tag_56:\n        /* \"Kyc.sol\":13158:13162  bool */\n      0x00\n        /* \"Kyc.sol\":2051:2061  msg.sender */\n      caller\n        /* \"Kyc.sol\":2011:2061  organizations[msg.sender].ethAddress == msg.sender */\n      0xffffffffffffffffffffffffffffffffffffffff\n      and\n        /* \"Kyc.sol\":2011:2024  organizations */\n      0x02\n        /* \"Kyc.sol\":2011:2036  organizations[msg.sender] */\n      0x00\n        /* \"Kyc.sol\":2025:2035  msg.sender */\n      caller\n        /* \"Kyc.sol\":2011:2036  organizations[msg.sender] */\n      0xffffffffffffffffffffffffffffffffffffffff\n      and\n      0xffffffffffffffffffffffffffffffffffffffff\n      and\n      dup2\n      mstore\n      0x20\n      add\n      swap1\n      dup2\n      mstore\n      0x20\n      add\n      0x00\n      keccak256\n        /* \"Kyc.sol\":2011:2047  organizations[msg.sender].ethAddress */\n      0x01\n      add\n      0x00\n      swap1\n      sload\n      swap1\n      0x0100\n      exp\n      swap1\n      div\n      0xffffffffffffffffffffffffffffffffffffffff\n      and\n        /* \"Kyc.sol\":2011:2061  organizations[msg.sender].ethAddress == msg.sender */\n      0xffffffffffffffffffffffffffffffffffffffff\n      and\n      eq\n        /* \"Kyc.sol\":1990:2100  require(... */\n      tag_183\n      jumpi\n      mload(0x40)\n      0x08c379a000000000000000000000000000000000000000000000000000000000\n      dup2\n      mstore\n      0x04\n      add\n      tag_184\n      swap1\n      tag_128\n      jump\t// in\n    tag_184:\n      mload(0x40)\n      dup1\n      swap2\n      sub\n      swap1\n      revert\n    tag_183:\n        /* \"Kyc.sol\":13242:13252  msg.sender */\n      caller\n        /* \"Kyc.sol\":13199:13252  kycrequestsbyorg[msg.sender].ethAddress == msg.sender */\n      0xffffffffffffffffffffffffffffffffffffffff\n      and\n        /* \"Kyc.sol\":13199:13215  kycrequestsbyorg */\n      0x03\n        /* \"Kyc.sol\":13199:13227  kycrequestsbyorg[msg.sender] */\n      0x00\n        /* \"Kyc.sol\":13216:13226  msg.sender */\n      caller\n        /* \"Kyc.sol\":13199:13227  kycrequestsbyorg[msg.sender] */\n      0xffffffffffffffffffffffffffffffffffffffff\n      and\n      0xffffffffffffffffffffffffffffffffffffffff\n      and\n      dup2\n      mstore\n      0x20\n      add\n      swap1\n      dup2\n      mstore\n      0x20\n      add\n      0x00\n      keccak256\n        /* \"Kyc.sol\":13199:13238  kycrequestsbyorg[msg.sender].ethAddress */\n      0x00\n      add\n      0x00\n      swap1\n      sload\n      swap1\n      0x0100\n      exp\n      swap1\n      div\n      0xffffffffffffffffffffffffffffffffffffffff\n      and\n        /* \"Kyc.sol\":13199:13252  kycrequestsbyorg[msg.sender].ethAddress == msg.sender */\n      0xffffffffffffffffffffffffffffffffffffffff\n      and\n      eq\n        /* \"Kyc.sol\":13178:13311  require(... */\n      tag_186\n      jumpi\n      mload(0x40)\n      0x08c379a000000000000000000000000000000000000000000000000000000000\n      dup2\n      mstore\n      0x04\n      add\n      tag_187\n      swap1\n      tag_188\n      jump\t// in\n    tag_187:\n      mload(0x40)\n      dup1\n      swap2\n      sub\n      swap1\n      revert\n    tag_186:\n        /* \"Kyc.sol\":13426:13435  _reqcount */\n      dup2\n        /* \"Kyc.sol\":13342:13358  kycrequestsbyorg */\n      0x03\n        /* \"Kyc.sol\":13342:13370  kycrequestsbyorg[msg.sender] */\n      0x00\n        /* \"Kyc.sol\":13359:13369  msg.sender */\n      caller\n        /* \"Kyc.sol\":13342:13370  kycrequestsbyorg[msg.sender] */\n      0xffffffffffffffffffffffffffffffffffffffff\n      and\n      0xffffffffffffffffffffffffffffffffffffffff\n      and\n      dup2\n      mstore\n      0x20\n      add\n      swap1\n      dup2\n      mstore\n      0x20\n      add\n      0x00\n      keccak256\n        /* \"Kyc.sol\":13342:13385  kycrequestsbyorg[msg.sender].kycrequestlist */\n      0x02\n      add\n        /* \"Kyc.sol\":13386:13395  _reqcount */\n      dup4\n        /* \"Kyc.sol\":13342:13396  kycrequestsbyorg[msg.sender].kycrequestlist[_reqcount] */\n      dup2\n      sload\n      dup2\n      lt\n      tag_189\n      jumpi\n      tag_190\n      tag_143\n      jump\t// in\n    tag_190:\n    tag_189:\n      swap1\n      0x00\n      mstore\n      keccak256(0x00, 0x20)\n      swap1\n      0x02\n      mul\n      add\n        /* \"Kyc.sol\":13342:13406  kycrequestsbyorg[msg.sender].kycrequestlist[_reqcount].req_count */\n      0x00\n      add\n      sload\n        /* \"Kyc.sol\":13342:13435  kycrequestsbyorg[msg.sender].kycrequestlist[_reqcount].req_count ==... */\n      eq\n        /* \"Kyc.sol\":13321:13481  require(... */\n      tag_192\n      jumpi\n      mload(0x40)\n      0x08c379a000000000000000000000000000000000000000000000000000000000\n      dup2\n      mstore\n      0x04\n      add\n      tag_193\n      swap1\n      tag_194\n      jump\t// in\n    tag_193:\n      mload(0x40)\n      dup1\n      swap2\n      sub\n      swap1\n      revert\n    tag_192:\n        /* \"Kyc.sol\":13491:13511  address _custaddress */\n      0x00\n        /* \"Kyc.sol\":13514:13530  kycrequestsbyorg */\n      0x03\n        /* \"Kyc.sol\":13514:13542  kycrequestsbyorg[msg.sender] */\n      0x00\n        /* \"Kyc.sol\":13531:13541  msg.sender */\n      caller\n        /* \"Kyc.sol\":13514:13542  kycrequestsbyorg[msg.sender] */\n      0xffffffffffffffffffffffffffffffffffffffff\n      and\n      0xffffffffffffffffffffffffffffffffffffffff\n      and\n      dup2\n      mstore\n      0x20\n      add\n      swap1\n      dup2\n      mstore\n      0x20\n      add\n      0x00\n      keccak256\n        /* \"Kyc.sol\":13514:13570  kycrequestsbyorg[msg.sender]... */\n      0x02\n      add\n        /* \"Kyc.sol\":13571:13580  _reqcount */\n      dup4\n        /* \"Kyc.sol\":13514:13581  kycrequestsbyorg[msg.sender]... */\n      dup2\n      sload\n      dup2\n      lt\n      tag_195\n      jumpi\n      tag_196\n      tag_143\n      jump\t// in\n    tag_196:\n    tag_195:\n      swap1\n      0x00\n      mstore\n      keccak256(0x00, 0x20)\n      swap1\n      0x02\n      mul\n      add\n        /* \"Kyc.sol\":13514:13602  kycrequestsbyorg[msg.sender]... */\n      0x01\n      add\n      0x00\n      swap1\n      sload\n      swap1\n      0x0100\n      exp\n      swap1\n      div\n      0xffffffffffffffffffffffffffffffffffffffff\n      and\n        /* \"Kyc.sol\":13491:13602  address _custaddress = kycrequestsbyorg[msg.sender]... */\n      swap1\n      pop\n        /* \"Kyc.sol\":13612:13662  deleteRequest(_reqcount, _custaddress, msg.sender) */\n      tag_198\n        /* \"Kyc.sol\":13626:13635  _reqcount */\n      dup4\n        /* \"Kyc.sol\":13637:13649  _custaddress */\n      dup3\n        /* \"Kyc.sol\":13651:13661  msg.sender */\n      caller\n        /* \"Kyc.sol\":13612:13625  deleteRequest */\n      tag_199\n        /* \"Kyc.sol\":13612:13662  deleteRequest(_reqcount, _custaddress, msg.sender) */\n      jump\t// in\n    tag_198:\n        /* \"Kyc.sol\":13679:13683  true */\n      0x01\n        /* \"Kyc.sol\":13672:13683  return true */\n      swap2\n      pop\n      pop\n        /* \"Kyc.sol\":13062:13690  function deleteRequestOrg(uint256 _reqcount)... */\n      swap2\n      swap1\n      pop\n      jump\t// out\n        /* \"Kyc.sol\":13753:14379  function deleteRequestCust(uint256 _reqcount, address _ethAddress) public {... */\n    tag_61:\n        /* \"Kyc.sol\":13899:13910  _ethAddress */\n      dup1\n        /* \"Kyc.sol\":13858:13910  organizations[_ethAddress].ethAddress == _ethAddress */\n      0xffffffffffffffffffffffffffffffffffffffff\n      and\n        /* \"Kyc.sol\":13858:13871  organizations */\n      0x02\n        /* \"Kyc.sol\":13858:13884  organizations[_ethAddress] */\n      0x00\n        /* \"Kyc.sol\":13872:13883  _ethAddress */\n      dup4\n        /* \"Kyc.sol\":13858:13884  organizations[_ethAddress] */\n      0xffffffffffffffffffffffffffffffffffffffff\n      and\n      0xffffffffffffffffffffffffffffffffffffffff\n      and\n      dup2\n      mstore\n      0x20\n      add\n      swap1\n      dup2\n      mstore\n      0x20\n      add\n      0x00\n      keccak256\n        /* \"Kyc.sol\":13858:13895  organizations[_ethAddress].ethAddress */\n      0x01\n      add\n      0x00\n      swap1\n      sload\n      swap1\n      0x0100\n      exp\n      swap1\n      div\n      0xffffffffffffffffffffffffffffffffffffffff\n      and\n        /* \"Kyc.sol\":13858:13910  organizations[_ethAddress].ethAddress == _ethAddress */\n      0xffffffffffffffffffffffffffffffffffffffff\n      and\n      eq\n        /* \"Kyc.sol\":13837:13978  require(... */\n      tag_201\n      jumpi\n      mload(0x40)\n      0x08c379a000000000000000000000000000000000000000000000000000000000\n      dup2\n      mstore\n      0x04\n      add\n      tag_202\n      swap1\n      tag_203\n      jump\t// in\n    tag_202:\n      mload(0x40)\n      dup1\n      swap2\n      sub\n      swap1\n      revert\n    tag_201:\n        /* \"Kyc.sol\":14092:14102  msg.sender */\n      caller\n        /* \"Kyc.sol\":14009:14102  kycrequestsbyorg[_ethAddress].kycrequestlist[_reqcount].Address ==... */\n      0xffffffffffffffffffffffffffffffffffffffff\n      and\n        /* \"Kyc.sol\":14009:14025  kycrequestsbyorg */\n      0x03\n        /* \"Kyc.sol\":14009:14038  kycrequestsbyorg[_ethAddress] */\n      0x00\n        /* \"Kyc.sol\":14026:14037  _ethAddress */\n      dup4\n        /* \"Kyc.sol\":14009:14038  kycrequestsbyorg[_ethAddress] */\n      0xffffffffffffffffffffffffffffffffffffffff\n      and\n      0xffffffffffffffffffffffffffffffffffffffff\n      and\n      dup2\n      mstore\n      0x20\n      add\n      swap1\n      dup2\n      mstore\n      0x20\n      add\n      0x00\n      keccak256\n        /* \"Kyc.sol\":14009:14053  kycrequestsbyorg[_ethAddress].kycrequestlist */\n      0x02\n      add\n        /* \"Kyc.sol\":14054:14063  _reqcount */\n      dup4\n        /* \"Kyc.sol\":14009:14064  kycrequestsbyorg[_ethAddress].kycrequestlist[_reqcount] */\n      dup2\n      sload\n      dup2\n      lt\n      tag_204\n      jumpi\n      tag_205\n      tag_143\n      jump\t// in\n    tag_205:\n    tag_204:\n      swap1\n      0x00\n      mstore\n      keccak256(0x00, 0x20)\n      swap1\n      0x02\n      mul\n      add\n        /* \"Kyc.sol\":14009:14072  kycrequestsbyorg[_ethAddress].kycrequestlist[_reqcount].Address */\n      0x01\n      add\n      0x00\n      swap1\n      sload\n      swap1\n      0x0100\n      exp\n      swap1\n      div\n      0xffffffffffffffffffffffffffffffffffffffff\n      and\n        /* \"Kyc.sol\":14009:14102  kycrequestsbyorg[_ethAddress].kycrequestlist[_reqcount].Address ==... */\n      0xffffffffffffffffffffffffffffffffffffffff\n      and\n      eq\n        /* \"Kyc.sol\":13988:14142  require(... */\n      tag_207\n      jumpi\n      mload(0x40)\n      0x08c379a000000000000000000000000000000000000000000000000000000000\n      dup2\n      mstore\n      0x04\n      add\n      tag_208\n      swap1\n      tag_147\n      jump\t// in\n    tag_208:\n      mload(0x40)\n      dup1\n      swap2\n      sub\n      swap1\n      revert\n    tag_207:\n        /* \"Kyc.sol\":14258:14267  _reqcount */\n      dup2\n        /* \"Kyc.sol\":14173:14189  kycrequestsbyorg */\n      0x03\n        /* \"Kyc.sol\":14173:14202  kycrequestsbyorg[_ethAddress] */\n      0x00\n        /* \"Kyc.sol\":14190:14201  _ethAddress */\n      dup4\n        /* \"Kyc.sol\":14173:14202  kycrequestsbyorg[_ethAddress] */\n      0xffffffffffffffffffffffffffffffffffffffff\n      and\n      0xffffffffffffffffffffffffffffffffffffffff\n      and\n      dup2\n      mstore\n      0x20\n      add\n      swap1\n      dup2\n      mstore\n      0x20\n      add\n      0x00\n      keccak256\n        /* \"Kyc.sol\":14173:14217  kycrequestsbyorg[_ethAddress].kycrequestlist */\n      0x02\n      add\n        /* \"Kyc.sol\":14218:14227  _reqcount */\n      dup4\n        /* \"Kyc.sol\":14173:14228  kycrequestsbyorg[_ethAddress].kycrequestlist[_reqcount] */\n      dup2\n      sload\n      dup2\n      lt\n      tag_209\n      jumpi\n      tag_210\n      tag_143\n      jump\t// in\n    tag_210:\n    tag_209:\n      swap1\n      0x00\n      mstore\n      keccak256(0x00, 0x20)\n      swap1\n      0x02\n      mul\n      add\n        /* \"Kyc.sol\":14173:14238  kycrequestsbyorg[_ethAddress].kycrequestlist[_reqcount].req_count */\n      0x00\n      add\n      sload\n        /* \"Kyc.sol\":14173:14267  kycrequestsbyorg[_ethAddress].kycrequestlist[_reqcount].req_count ==... */\n      eq\n        /* \"Kyc.sol\":14152:14313  require(... */\n      tag_212\n      jumpi\n      mload(0x40)\n      0x08c379a000000000000000000000000000000000000000000000000000000000\n      dup2\n      mstore\n      0x04\n      add\n      tag_213\n      swap1\n      tag_194\n      jump\t// in\n    tag_213:\n      mload(0x40)\n      dup1\n      swap2\n      sub\n      swap1\n      revert\n    tag_212:\n        /* \"Kyc.sol\":14323:14372  deleteRequest(_reqcount, msg.sender, _ethAddress) */\n      tag_214\n        /* \"Kyc.sol\":14337:14346  _reqcount */\n      dup3\n        /* \"Kyc.sol\":14348:14358  msg.sender */\n      caller\n        /* \"Kyc.sol\":14360:14371  _ethAddress */\n      dup4\n        /* \"Kyc.sol\":14323:14336  deleteRequest */\n      tag_199\n        /* \"Kyc.sol\":14323:14372  deleteRequest(_reqcount, msg.sender, _ethAddress) */\n      jump\t// in\n    tag_214:\n        /* \"Kyc.sol\":13753:14379  function deleteRequestCust(uint256 _reqcount, address _ethAddress) public {... */\n      pop\n      pop\n      jump\t// out\n        /* \"Kyc.sol\":9588:10464  function updateKYC(... */\n    tag_65:\n        /* \"Kyc.sol\":9895:9899  bool */\n      0x00\n        /* \"Kyc.sol\":2051:2061  msg.sender */\n      caller\n        /* \"Kyc.sol\":2011:2061  organizations[msg.sender].ethAddress == msg.sender */\n      0xffffffffffffffffffffffffffffffffffffffff\n      and\n        /* \"Kyc.sol\":2011:2024  organizations */\n      0x02\n        /* \"Kyc.sol\":2011:2036  organizations[msg.sender] */\n      0x00\n        /* \"Kyc.sol\":2025:2035  msg.sender */\n      caller\n        /* \"Kyc.sol\":2011:2036  organizations[msg.sender] */\n      0xffffffffffffffffffffffffffffffffffffffff\n      and\n      0xffffffffffffffffffffffffffffffffffffffff\n      and\n      dup2\n      mstore\n      0x20\n      add\n      swap1\n      dup2\n      mstore\n      0x20\n      add\n      0x00\n      keccak256\n        /* \"Kyc.sol\":2011:2047  organizations[msg.sender].ethAddress */\n      0x01\n      add\n      0x00\n      swap1\n      sload\n      swap1\n      0x0100\n      exp\n      swap1\n      div\n      0xffffffffffffffffffffffffffffffffffffffff\n      and\n        /* \"Kyc.sol\":2011:2061  organizations[msg.sender].ethAddress == msg.sender */\n      0xffffffffffffffffffffffffffffffffffffffff\n      and\n      eq\n        /* \"Kyc.sol\":1990:2100  require(... */\n      tag_216\n      jumpi\n      mload(0x40)\n      0x08c379a000000000000000000000000000000000000000000000000000000000\n      dup2\n      mstore\n      0x04\n      add\n      tag_217\n      swap1\n      tag_128\n      jump\t// in\n    tag_217:\n      mload(0x40)\n      dup1\n      swap2\n      sub\n      swap1\n      revert\n    tag_216:\n        /* \"Kyc.sol\":9971:9983  _custaddress */\n      dup9\n        /* \"Kyc.sol\":9932:9983  customers[_custaddress].custAddress == _custaddress */\n      0xffffffffffffffffffffffffffffffffffffffff\n      and\n        /* \"Kyc.sol\":9932:9941  customers */\n      0x01\n        /* \"Kyc.sol\":9932:9955  customers[_custaddress] */\n      0x00\n        /* \"Kyc.sol\":9942:9954  _custaddress */\n      dup12\n        /* \"Kyc.sol\":9932:9955  customers[_custaddress] */\n      0xffffffffffffffffffffffffffffffffffffffff\n      and\n      0xffffffffffffffffffffffffffffffffffffffff\n      and\n      dup2\n      mstore\n      0x20\n      add\n      swap1\n      dup2\n      mstore\n      0x20\n      add\n      0x00\n      keccak256\n        /* \"Kyc.sol\":9932:9967  customers[_custaddress].custAddress */\n      0x00\n      add\n      0x00\n      swap1\n      sload\n      swap1\n      0x0100\n      exp\n      swap1\n      div\n      0xffffffffffffffffffffffffffffffffffffffff\n      and\n        /* \"Kyc.sol\":9932:9983  customers[_custaddress].custAddress == _custaddress */\n      0xffffffffffffffffffffffffffffffffffffffff\n      and\n      eq\n        /* \"Kyc.sol\":9911:10027  require(... */\n      tag_219\n      jumpi\n      mload(0x40)\n      0x08c379a000000000000000000000000000000000000000000000000000000000\n      dup2\n      mstore\n      0x04\n      add\n      tag_220\n      swap1\n      tag_132\n      jump\t// in\n    tag_220:\n      mload(0x40)\n      dup1\n      swap2\n      sub\n      swap1\n      revert\n    tag_219:\n        /* \"Kyc.sol\":10058:10091  findOrg(_custaddress, msg.sender) */\n      tag_221\n        /* \"Kyc.sol\":10066:10078  _custaddress */\n      dup10\n        /* \"Kyc.sol\":10080:10090  msg.sender */\n      caller\n        /* \"Kyc.sol\":10058:10065  findOrg */\n      tag_119\n        /* \"Kyc.sol\":10058:10091  findOrg(_custaddress, msg.sender) */\n      jump\t// in\n    tag_221:\n        /* \"Kyc.sol\":10037:10150  require(... */\n      tag_222\n      jumpi\n      mload(0x40)\n      0x08c379a000000000000000000000000000000000000000000000000000000000\n      dup2\n      mstore\n      0x04\n      add\n      tag_223\n      swap1\n      tag_122\n      jump\t// in\n    tag_223:\n      mload(0x40)\n      dup1\n      swap2\n      sub\n      swap1\n      revert\n    tag_222:\n        /* \"Kyc.sol\":10160:10380  writeKYC(... */\n      tag_224\n        /* \"Kyc.sol\":10182:10194  _custaddress */\n      dup10\n        /* \"Kyc.sol\":10208:10217  _jsonHash */\n      dup10\n        /* \"Kyc.sol\":10231:10241  _photohash */\n      dup10\n        /* \"Kyc.sol\":10255:10278  _citizenship_front_hash */\n      dup10\n        /* \"Kyc.sol\":10292:10314  _citizenship_back_hash */\n      dup10\n        /* \"Kyc.sol\":10328:10338  _kycStatus */\n      dup10\n        /* \"Kyc.sol\":10352:10354  _d */\n      dup10\n        /* \"Kyc.sol\":10368:10370  _n */\n      dup10\n        /* \"Kyc.sol\":10160:10168  writeKYC */\n      tag_225\n        /* \"Kyc.sol\":10160:10380  writeKYC(... */\n      jump\t// in\n    tag_224:\n        /* \"Kyc.sol\":10395:10436  customerUpdated(_custaddress, _kycStatus) */\n      0x0c14653fca65d1b22631a36a53bd2a7153579eb0180192d23b52babb69c28050\n        /* \"Kyc.sol\":10411:10423  _custaddress */\n      dup10\n        /* \"Kyc.sol\":10425:10435  _kycStatus */\n      dup6\n        /* \"Kyc.sol\":10395:10436  customerUpdated(_custaddress, _kycStatus) */\n      mload(0x40)\n      tag_226\n      swap3\n      swap2\n      swap1\n      tag_227\n      jump\t// in\n    tag_226:\n      mload(0x40)\n      dup1\n      swap2\n      sub\n      swap1\n      log1\n        /* \"Kyc.sol\":10453:10457  true */\n      0x01\n        /* \"Kyc.sol\":10446:10457  return true */\n      swap1\n      pop\n        /* \"Kyc.sol\":9588:10464  function updateKYC(... */\n      swap9\n      swap8\n      pop\n      pop\n      pop\n      pop\n      pop\n      pop\n      pop\n      pop\n      jump\t// out\n        /* \"Kyc.sol\":4797:5096  function viewOrg(address _ethAddress)... */\n    tag_69:\n        /* \"Kyc.sol\":4896:4915  Organization memory */\n      tag_228\n      tag_162\n      jump\t// in\n    tag_228:\n        /* \"Kyc.sol\":1866:1876  msg.sender */\n      caller\n        /* \"Kyc.sol\":1857:1876  admin == msg.sender */\n      0xffffffffffffffffffffffffffffffffffffffff\n      and\n        /* \"Kyc.sol\":1857:1862  admin */\n      0x00\n      dup1\n      sload\n      swap1\n      0x0100\n      exp\n      swap1\n      div\n      0xffffffffffffffffffffffffffffffffffffffff\n      and\n        /* \"Kyc.sol\":1857:1876  admin == msg.sender */\n      0xffffffffffffffffffffffffffffffffffffffff\n      and\n      eq\n        /* \"Kyc.sol\":1849:1891  require(admin == msg.sender, \"Admin only\") */\n      tag_230\n      jumpi\n      mload(0x40)\n      0x08c379a000000000000000000000000000000000000000000000000000000000\n      dup2\n      mstore\n      0x04\n      add\n      tag_231\n      swap1\n      tag_232\n      jump\t// in\n    tag_231:\n      mload(0x40)\n      dup1\n      swap2\n      sub\n      swap1\n      revert\n    tag_230:\n        /* \"Kyc.sol\":4993:5004  _ethAddress */\n      dup2\n        /* \"Kyc.sol\":4952:5004  organizations[_ethAddress].ethAddress == _ethAddress */\n      0xffffffffffffffffffffffffffffffffffffffff\n      and\n        /* \"Kyc.sol\":4952:4965  organizations */\n      0x02\n        /* \"Kyc.sol\":4952:4978  organizations[_ethAddress] */\n      0x00\n        /* \"Kyc.sol\":4966:4977  _ethAddress */\n      dup5\n        /* \"Kyc.sol\":4952:4978  organizations[_ethAddress] */\n      0xffffffffffffffffffffffffffffffffffffffff\n      and\n      0xffffffffffffffffffffffffffffffffffffffff\n      and\n      dup2\n      mstore\n      0x20\n      add\n      swap1\n      dup2\n      mstore\n      0x20\n      add\n      0x00\n      keccak256\n        /* \"Kyc.sol\":4952:4989  organizations[_ethAddress].ethAddress */\n      0x01\n      add\n      0x00\n      swap1\n      sload\n      swap1\n      0x0100\n      exp\n      swap1\n      div\n      0xffffffffffffffffffffffffffffffffffffffff\n      and\n        /* \"Kyc.sol\":4952:5004  organizations[_ethAddress].ethAddress == _ethAddress */\n      0xffffffffffffffffffffffffffffffffffffffff\n      and\n      eq\n        /* \"Kyc.sol\":4931:5046  require(... */\n      tag_234\n      jumpi\n      mload(0x40)\n      0x08c379a000000000000000000000000000000000000000000000000000000000\n      dup2\n      mstore\n      0x04\n      add\n      tag_235\n      swap1\n      tag_236\n      jump\t// in\n    tag_235:\n      mload(0x40)\n      dup1\n      swap2\n      sub\n      swap1\n      revert\n    tag_234:\n        /* \"Kyc.sol\":5063:5076  organizations */\n      0x02\n        /* \"Kyc.sol\":5063:5089  organizations[_ethAddress] */\n      0x00\n        /* \"Kyc.sol\":5077:5088  _ethAddress */\n      dup4\n        /* \"Kyc.sol\":5063:5089  organizations[_ethAddress] */\n      0xffffffffffffffffffffffffffffffffffffffff\n      and\n      0xffffffffffffffffffffffffffffffffffffffff\n      and\n      dup2\n      mstore\n      0x20\n      add\n      swap1\n      dup2\n      mstore\n      0x20\n      add\n      0x00\n      keccak256\n        /* \"Kyc.sol\":5056:5089  return organizations[_ethAddress] */\n      mload(0x40)\n      dup1\n      0x40\n      add\n      0x40\n      mstore\n      swap1\n      dup2\n      0x00\n      dup3\n      add\n      dup1\n      sload\n      tag_237\n      swap1\n      tag_168\n      jump\t// in\n    tag_237:\n      dup1\n      0x1f\n      add\n      0x20\n      dup1\n      swap2\n      div\n      mul\n      0x20\n      add\n      mload(0x40)\n      swap1\n      dup2\n      add\n      0x40\n      mstore\n      dup1\n      swap3\n      swap2\n      swap1\n      dup2\n      dup2\n      mstore\n      0x20\n      add\n      dup3\n      dup1\n      sload\n      tag_238\n      swap1\n      tag_168\n      jump\t// in\n    tag_238:\n      dup1\n      iszero\n      tag_239\n      jumpi\n      dup1\n      0x1f\n      lt\n      tag_240\n      jumpi\n      0x0100\n      dup1\n      dup4\n      sload\n      div\n      mul\n      dup4\n      mstore\n      swap2\n      0x20\n      add\n      swap2\n      jump(tag_239)\n    tag_240:\n      dup3\n      add\n      swap2\n      swap1\n      0x00\n      mstore\n      keccak256(0x00, 0x20)\n      swap1\n    tag_241:\n      dup2\n      sload\n      dup2\n      mstore\n      swap1\n      0x01\n      add\n      swap1\n      0x20\n      add\n      dup1\n      dup4\n      gt\n      tag_241\n      jumpi\n      dup3\n      swap1\n      sub\n      0x1f\n      and\n      dup3\n      add\n      swap2\n    tag_239:\n      pop\n      pop\n      pop\n      pop\n      pop\n      dup2\n      mstore\n      0x20\n      add\n      0x01\n      dup3\n      add\n      0x00\n      swap1\n      sload\n      swap1\n      0x0100\n      exp\n      swap1\n      div\n      0xffffffffffffffffffffffffffffffffffffffff\n      and\n      0xffffffffffffffffffffffffffffffffffffffff\n      and\n      0xffffffffffffffffffffffffffffffffffffffff\n      and\n      dup2\n      mstore\n      pop\n      pop\n      swap1\n      pop\n        /* \"Kyc.sol\":4797:5096  function viewOrg(address _ethAddress)... */\n      swap2\n      swap1\n      pop\n      jump\t// out\n        /* \"Kyc.sol\":3896:4397  function addOrg(string memory _name, address _ethAddress)... */\n    tag_74:\n        /* \"Kyc.sol\":4002:4006  bool */\n      0x00\n        /* \"Kyc.sol\":1866:1876  msg.sender */\n      caller\n        /* \"Kyc.sol\":1857:1876  admin == msg.sender */\n      0xffffffffffffffffffffffffffffffffffffffff\n      and\n        /* \"Kyc.sol\":1857:1862  admin */\n      0x00\n      dup1\n      sload\n      swap1\n      0x0100\n      exp\n      swap1\n      div\n      0xffffffffffffffffffffffffffffffffffffffff\n      and\n        /* \"Kyc.sol\":1857:1876  admin == msg.sender */\n      0xffffffffffffffffffffffffffffffffffffffff\n      and\n      eq\n        /* \"Kyc.sol\":1849:1891  require(admin == msg.sender, \"Admin only\") */\n      tag_243\n      jumpi\n      mload(0x40)\n      0x08c379a000000000000000000000000000000000000000000000000000000000\n      dup2\n      mstore\n      0x04\n      add\n      tag_244\n      swap1\n      tag_232\n      jump\t// in\n    tag_244:\n      mload(0x40)\n      dup1\n      swap2\n      sub\n      swap1\n      revert\n    tag_243:\n        /* \"Kyc.sol\":4084:4095  _ethAddress */\n      dup2\n        /* \"Kyc.sol\":4043:4095  organizations[_ethAddress].ethAddress != _ethAddress */\n      0xffffffffffffffffffffffffffffffffffffffff\n      and\n        /* \"Kyc.sol\":4043:4056  organizations */\n      0x02\n        /* \"Kyc.sol\":4043:4069  organizations[_ethAddress] */\n      0x00\n        /* \"Kyc.sol\":4057:4068  _ethAddress */\n      dup5\n        /* \"Kyc.sol\":4043:4069  organizations[_ethAddress] */\n      0xffffffffffffffffffffffffffffffffffffffff\n      and\n      0xffffffffffffffffffffffffffffffffffffffff\n      and\n      dup2\n      mstore\n      0x20\n      add\n      swap1\n      dup2\n      mstore\n      0x20\n      add\n      0x00\n      keccak256\n        /* \"Kyc.sol\":4043:4080  organizations[_ethAddress].ethAddress */\n      0x01\n      add\n      0x00\n      swap1\n      sload\n      swap1\n      0x0100\n      exp\n      swap1\n      div\n      0xffffffffffffffffffffffffffffffffffffffff\n      and\n        /* \"Kyc.sol\":4043:4095  organizations[_ethAddress].ethAddress != _ethAddress */\n      0xffffffffffffffffffffffffffffffffffffffff\n      and\n      sub\n        /* \"Kyc.sol\":4022:4138  require(... */\n      tag_246\n      jumpi\n      mload(0x40)\n      0x08c379a000000000000000000000000000000000000000000000000000000000\n      dup2\n      mstore\n      0x04\n      add\n      tag_247\n      swap1\n      tag_248\n      jump\t// in\n    tag_247:\n      mload(0x40)\n      dup1\n      swap2\n      sub\n      swap1\n      revert\n    tag_246:\n        /* \"Kyc.sol\":4177:4209  Organization(_name, _ethAddress) */\n      mload(0x40)\n      dup1\n      0x40\n      add\n      0x40\n      mstore\n      dup1\n        /* \"Kyc.sol\":4190:4195  _name */\n      dup5\n        /* \"Kyc.sol\":4177:4209  Organization(_name, _ethAddress) */\n      dup2\n      mstore\n      0x20\n      add\n        /* \"Kyc.sol\":4197:4208  _ethAddress */\n      dup4\n        /* \"Kyc.sol\":4177:4209  Organization(_name, _ethAddress) */\n      0xffffffffffffffffffffffffffffffffffffffff\n      and\n      dup2\n      mstore\n      pop\n        /* \"Kyc.sol\":4148:4161  organizations */\n      0x02\n        /* \"Kyc.sol\":4148:4174  organizations[_ethAddress] */\n      0x00\n        /* \"Kyc.sol\":4162:4173  _ethAddress */\n      dup5\n        /* \"Kyc.sol\":4148:4174  organizations[_ethAddress] */\n      0xffffffffffffffffffffffffffffffffffffffff\n      and\n      0xffffffffffffffffffffffffffffffffffffffff\n      and\n      dup2\n      mstore\n      0x20\n      add\n      swap1\n      dup2\n      mstore\n      0x20\n      add\n      0x00\n      keccak256\n        /* \"Kyc.sol\":4148:4209  organizations[_ethAddress] = Organization(_name, _ethAddress) */\n      0x00\n      dup3\n      add\n      mload\n      dup2\n      0x00\n      add\n      swap1\n      dup2\n      tag_249\n      swap2\n      swap1\n      tag_250\n      jump\t// in\n    tag_249:\n      pop\n      0x20\n      dup3\n      add\n      mload\n      dup2\n      0x01\n      add\n      exp(0x0100, 0x00)\n      dup2\n      sload\n      dup2\n      0xffffffffffffffffffffffffffffffffffffffff\n      mul\n      not\n      and\n      swap1\n      dup4\n      0xffffffffffffffffffffffffffffffffffffffff\n      and\n      mul\n      or\n      swap1\n      sstore\n      pop\n      swap1\n      pop\n      pop\n        /* \"Kyc.sol\":4262:4273  _ethAddress */\n      dup2\n        /* \"Kyc.sol\":4219:4235  kycrequestsbyorg */\n      0x03\n        /* \"Kyc.sol\":4219:4248  kycrequestsbyorg[_ethAddress] */\n      0x00\n        /* \"Kyc.sol\":4236:4247  _ethAddress */\n      dup5\n        /* \"Kyc.sol\":4219:4248  kycrequestsbyorg[_ethAddress] */\n      0xffffffffffffffffffffffffffffffffffffffff\n      and\n      0xffffffffffffffffffffffffffffffffffffffff\n      and\n      dup2\n      mstore\n      0x20\n      add\n      swap1\n      dup2\n      mstore\n      0x20\n      add\n      0x00\n      keccak256\n        /* \"Kyc.sol\":4219:4259  kycrequestsbyorg[_ethAddress].ethAddress */\n      0x00\n      add\n      0x00\n        /* \"Kyc.sol\":4219:4273  kycrequestsbyorg[_ethAddress].ethAddress = _ethAddress */\n      0x0100\n      exp\n      dup2\n      sload\n      dup2\n      0xffffffffffffffffffffffffffffffffffffffff\n      mul\n      not\n      and\n      swap1\n      dup4\n      0xffffffffffffffffffffffffffffffffffffffff\n      and\n      mul\n      or\n      swap1\n      sstore\n      pop\n        /* \"Kyc.sol\":4325:4326  0 */\n      0x00\n        /* \"Kyc.sol\":4283:4299  kycrequestsbyorg */\n      0x03\n        /* \"Kyc.sol\":4283:4312  kycrequestsbyorg[_ethAddress] */\n      0x00\n        /* \"Kyc.sol\":4300:4311  _ethAddress */\n      dup5\n        /* \"Kyc.sol\":4283:4312  kycrequestsbyorg[_ethAddress] */\n      0xffffffffffffffffffffffffffffffffffffffff\n      and\n      0xffffffffffffffffffffffffffffffffffffffff\n      and\n      dup2\n      mstore\n      0x20\n      add\n      swap1\n      dup2\n      mstore\n      0x20\n      add\n      0x00\n      keccak256\n        /* \"Kyc.sol\":4283:4322  kycrequestsbyorg[_ethAddress].req_count */\n      0x01\n      add\n        /* \"Kyc.sol\":4283:4326  kycrequestsbyorg[_ethAddress].req_count = 0 */\n      dup2\n      swap1\n      sstore\n      pop\n        /* \"Kyc.sol\":4341:4369  orgAdded(_name, _ethAddress) */\n      0x19cb05bcb9f3a5aa3801619041099231656235762a3599eed02cdcac38facd1c\n        /* \"Kyc.sol\":4350:4355  _name */\n      dup4\n        /* \"Kyc.sol\":4357:4368  _ethAddress */\n      dup4\n        /* \"Kyc.sol\":4341:4369  orgAdded(_name, _ethAddress) */\n      mload(0x40)\n      tag_251\n      swap3\n      swap2\n      swap1\n      tag_252\n      jump\t// in\n    tag_251:\n      mload(0x40)\n      dup1\n      swap2\n      sub\n      swap1\n      log1\n        /* \"Kyc.sol\":4386:4390  true */\n      0x01\n        /* \"Kyc.sol\":4379:4390  return true */\n      swap1\n      pop\n        /* \"Kyc.sol\":3896:4397  function addOrg(string memory _name, address _ethAddress)... */\n      swap3\n      swap2\n      pop\n      pop\n      jump\t// out\n        /* \"Kyc.sol\":6960:7748  function registerKYC(... */\n    tag_78:\n        /* \"Kyc.sol\":7269:7273  bool */\n      0x00\n        /* \"Kyc.sol\":2051:2061  msg.sender */\n      caller\n        /* \"Kyc.sol\":2011:2061  organizations[msg.sender].ethAddress == msg.sender */\n      0xffffffffffffffffffffffffffffffffffffffff\n      and\n        /* \"Kyc.sol\":2011:2024  organizations */\n      0x02\n        /* \"Kyc.sol\":2011:2036  organizations[msg.sender] */\n      0x00\n        /* \"Kyc.sol\":2025:2035  msg.sender */\n      caller\n        /* \"Kyc.sol\":2011:2036  organizations[msg.sender] */\n      0xffffffffffffffffffffffffffffffffffffffff\n      and\n      0xffffffffffffffffffffffffffffffffffffffff\n      and\n      dup2\n      mstore\n      0x20\n      add\n      swap1\n      dup2\n      mstore\n      0x20\n      add\n      0x00\n      keccak256\n        /* \"Kyc.sol\":2011:2047  organizations[msg.sender].ethAddress */\n      0x01\n      add\n      0x00\n      swap1\n      sload\n      swap1\n      0x0100\n      exp\n      swap1\n      div\n      0xffffffffffffffffffffffffffffffffffffffff\n      and\n        /* \"Kyc.sol\":2011:2061  organizations[msg.sender].ethAddress == msg.sender */\n      0xffffffffffffffffffffffffffffffffffffffff\n      and\n      eq\n        /* \"Kyc.sol\":1990:2100  require(... */\n      tag_254\n      jumpi\n      mload(0x40)\n      0x08c379a000000000000000000000000000000000000000000000000000000000\n      dup2\n      mstore\n      0x04\n      add\n      tag_255\n      swap1\n      tag_128\n      jump\t// in\n    tag_255:\n      mload(0x40)\n      dup1\n      swap2\n      sub\n      swap1\n      revert\n    tag_254:\n        /* \"Kyc.sol\":7345:7357  _custaddress */\n      dup9\n        /* \"Kyc.sol\":7306:7357  customers[_custaddress].custAddress != _custaddress */\n      0xffffffffffffffffffffffffffffffffffffffff\n      and\n        /* \"Kyc.sol\":7306:7315  customers */\n      0x01\n        /* \"Kyc.sol\":7306:7329  customers[_custaddress] */\n      0x00\n        /* \"Kyc.sol\":7316:7328  _custaddress */\n      dup12\n        /* \"Kyc.sol\":7306:7329  customers[_custaddress] */\n      0xffffffffffffffffffffffffffffffffffffffff\n      and\n      0xffffffffffffffffffffffffffffffffffffffff\n      and\n      dup2\n      mstore\n      0x20\n      add\n      swap1\n      dup2\n      mstore\n      0x20\n      add\n      0x00\n      keccak256\n        /* \"Kyc.sol\":7306:7341  customers[_custaddress].custAddress */\n      0x00\n      add\n      0x00\n      swap1\n      sload\n      swap1\n      0x0100\n      exp\n      swap1\n      div\n      0xffffffffffffffffffffffffffffffffffffffff\n      and\n        /* \"Kyc.sol\":7306:7357  customers[_custaddress].custAddress != _custaddress */\n      0xffffffffffffffffffffffffffffffffffffffff\n      and\n      sub\n        /* \"Kyc.sol\":7285:7402  require(... */\n      tag_257\n      jumpi\n      mload(0x40)\n      0x08c379a000000000000000000000000000000000000000000000000000000000\n      dup2\n      mstore\n      0x04\n      add\n      tag_258\n      swap1\n      tag_259\n      jump\t// in\n    tag_258:\n      mload(0x40)\n      dup1\n      swap2\n      sub\n      swap1\n      revert\n    tag_257:\n        /* \"Kyc.sol\":7412:7632  writeKYC(... */\n      tag_260\n        /* \"Kyc.sol\":7434:7446  _custaddress */\n      dup10\n        /* \"Kyc.sol\":7460:7469  _jsonHash */\n      dup10\n        /* \"Kyc.sol\":7483:7493  _photohash */\n      dup10\n        /* \"Kyc.sol\":7507:7530  _citizenship_front_hash */\n      dup10\n        /* \"Kyc.sol\":7544:7566  _citizenship_back_hash */\n      dup10\n        /* \"Kyc.sol\":7580:7590  _kycStatus */\n      dup10\n        /* \"Kyc.sol\":7604:7606  _d */\n      dup10\n        /* \"Kyc.sol\":7620:7622  _n */\n      dup10\n        /* \"Kyc.sol\":7412:7420  writeKYC */\n      tag_225\n        /* \"Kyc.sol\":7412:7632  writeKYC(... */\n      jump\t// in\n    tag_260:\n        /* \"Kyc.sol\":7642:7666  requestKYC(_custaddress) */\n      tag_261\n        /* \"Kyc.sol\":7653:7665  _custaddress */\n      dup10\n        /* \"Kyc.sol\":7642:7652  requestKYC */\n      tag_86\n        /* \"Kyc.sol\":7642:7666  requestKYC(_custaddress) */\n      jump\t// in\n    tag_261:\n      pop\n        /* \"Kyc.sol\":7681:7720  customerAdded(_custaddress, _kycStatus) */\n      0x1d22f26dee56193a2da8b325a26e02b936d68be9f49c0a6f92534464aa8f2ecf\n        /* \"Kyc.sol\":7695:7707  _custaddress */\n      dup10\n        /* \"Kyc.sol\":7709:7719  _kycStatus */\n      dup6\n        /* \"Kyc.sol\":7681:7720  customerAdded(_custaddress, _kycStatus) */\n      mload(0x40)\n      tag_262\n      swap3\n      swap2\n      swap1\n      tag_227\n      jump\t// in\n    tag_262:\n      mload(0x40)\n      dup1\n      swap2\n      sub\n      swap1\n      log1\n        /* \"Kyc.sol\":7737:7741  true */\n      0x01\n        /* \"Kyc.sol\":7730:7741  return true */\n      swap1\n      pop\n        /* \"Kyc.sol\":6960:7748  function registerKYC(... */\n      swap9\n      swap8\n      pop\n      pop\n      pop\n      pop\n      pop\n      pop\n      pop\n      pop\n      jump\t// out\n        /* \"Kyc.sol\":4443:4747  function removeOrg(address _ethAddress) public isAdmin returns (bool) {... */\n    tag_82:\n        /* \"Kyc.sol\":4507:4511  bool */\n      0x00\n        /* \"Kyc.sol\":1866:1876  msg.sender */\n      caller\n        /* \"Kyc.sol\":1857:1876  admin == msg.sender */\n      0xffffffffffffffffffffffffffffffffffffffff\n      and\n        /* \"Kyc.sol\":1857:1862  admin */\n      0x00\n      dup1\n      sload\n      swap1\n      0x0100\n      exp\n      swap1\n      div\n      0xffffffffffffffffffffffffffffffffffffffff\n      and\n        /* \"Kyc.sol\":1857:1876  admin == msg.sender */\n      0xffffffffffffffffffffffffffffffffffffffff\n      and\n      eq\n        /* \"Kyc.sol\":1849:1891  require(admin == msg.sender, \"Admin only\") */\n      tag_264\n      jumpi\n      mload(0x40)\n      0x08c379a000000000000000000000000000000000000000000000000000000000\n      dup2\n      mstore\n      0x04\n      add\n      tag_265\n      swap1\n      tag_232\n      jump\t// in\n    tag_265:\n      mload(0x40)\n      dup1\n      swap2\n      sub\n      swap1\n      revert\n    tag_264:\n        /* \"Kyc.sol\":4585:4596  _ethAddress */\n      dup2\n        /* \"Kyc.sol\":4544:4596  organizations[_ethAddress].ethAddress == _ethAddress */\n      0xffffffffffffffffffffffffffffffffffffffff\n      and\n        /* \"Kyc.sol\":4544:4557  organizations */\n      0x02\n        /* \"Kyc.sol\":4544:4570  organizations[_ethAddress] */\n      0x00\n        /* \"Kyc.sol\":4558:4569  _ethAddress */\n      dup5\n        /* \"Kyc.sol\":4544:4570  organizations[_ethAddress] */\n      0xffffffffffffffffffffffffffffffffffffffff\n      and\n      0xffffffffffffffffffffffffffffffffffffffff\n      and\n      dup2\n      mstore\n      0x20\n      add\n      swap1\n      dup2\n      mstore\n      0x20\n      add\n      0x00\n      keccak256\n        /* \"Kyc.sol\":4544:4581  organizations[_ethAddress].ethAddress */\n      0x01\n      add\n      0x00\n      swap1\n      sload\n      swap1\n      0x0100\n      exp\n      swap1\n      div\n      0xffffffffffffffffffffffffffffffffffffffff\n      and\n        /* \"Kyc.sol\":4544:4596  organizations[_ethAddress].ethAddress == _ethAddress */\n      0xffffffffffffffffffffffffffffffffffffffff\n      and\n      eq\n        /* \"Kyc.sol\":4523:4638  require(... */\n      tag_267\n      jumpi\n      mload(0x40)\n      0x08c379a000000000000000000000000000000000000000000000000000000000\n      dup2\n      mstore\n      0x04\n      add\n      tag_268\n      swap1\n      tag_236\n      jump\t// in\n    tag_268:\n      mload(0x40)\n      dup1\n      swap2\n      sub\n      swap1\n      revert\n    tag_267:\n        /* \"Kyc.sol\":4655:4668  organizations */\n      0x02\n        /* \"Kyc.sol\":4655:4681  organizations[_ethAddress] */\n      0x00\n        /* \"Kyc.sol\":4669:4680  _ethAddress */\n      dup4\n        /* \"Kyc.sol\":4655:4681  organizations[_ethAddress] */\n      0xffffffffffffffffffffffffffffffffffffffff\n      and\n      0xffffffffffffffffffffffffffffffffffffffff\n      and\n      dup2\n      mstore\n      0x20\n      add\n      swap1\n      dup2\n      mstore\n      0x20\n      add\n      0x00\n      keccak256\n      0x00\n        /* \"Kyc.sol\":4648:4681  delete organizations[_ethAddress] */\n      dup1\n      dup3\n      add\n      0x00\n      tag_269\n      swap2\n      swap1\n      tag_270\n      jump\t// in\n    tag_269:\n      0x01\n      dup3\n      add\n      exp(0x0100, 0x00)\n      dup2\n      sload\n      swap1\n      0xffffffffffffffffffffffffffffffffffffffff\n      mul\n      not\n      and\n      swap1\n      sstore\n      pop\n      pop\n        /* \"Kyc.sol\":4696:4719  orgRemoved(_ethAddress) */\n      0x4630061df51c52d44a3987b904c6ff220da2cbdeff03ce8750cd14652cae0c6c\n        /* \"Kyc.sol\":4707:4718  _ethAddress */\n      dup3\n        /* \"Kyc.sol\":4696:4719  orgRemoved(_ethAddress) */\n      mload(0x40)\n      tag_271\n      swap2\n      swap1\n      tag_113\n      jump\t// in\n    tag_271:\n      mload(0x40)\n      dup1\n      swap2\n      sub\n      swap1\n      log1\n        /* \"Kyc.sol\":4736:4740  true */\n      0x01\n        /* \"Kyc.sol\":4729:4740  return true */\n      swap1\n      pop\n        /* \"Kyc.sol\":4443:4747  function removeOrg(address _ethAddress) public isAdmin returns (bool) {... */\n      swap2\n      swap1\n      pop\n      jump\t// out\n        /* \"Kyc.sol\":10501:11462  function requestKYC(address _custaddress) public isOrgValid returns (bool) {... */\n    tag_86:\n        /* \"Kyc.sol\":10570:10574  bool */\n      0x00\n        /* \"Kyc.sol\":2051:2061  msg.sender */\n      caller\n        /* \"Kyc.sol\":2011:2061  organizations[msg.sender].ethAddress == msg.sender */\n      0xffffffffffffffffffffffffffffffffffffffff\n      and\n        /* \"Kyc.sol\":2011:2024  organizations */\n      0x02\n        /* \"Kyc.sol\":2011:2036  organizations[msg.sender] */\n      0x00\n        /* \"Kyc.sol\":2025:2035  msg.sender */\n      caller\n        /* \"Kyc.sol\":2011:2036  organizations[msg.sender] */\n      0xffffffffffffffffffffffffffffffffffffffff\n      and\n      0xffffffffffffffffffffffffffffffffffffffff\n      and\n      dup2\n      mstore\n      0x20\n      add\n      swap1\n      dup2\n      mstore\n      0x20\n      add\n      0x00\n      keccak256\n        /* \"Kyc.sol\":2011:2047  organizations[msg.sender].ethAddress */\n      0x01\n      add\n      0x00\n      swap1\n      sload\n      swap1\n      0x0100\n      exp\n      swap1\n      div\n      0xffffffffffffffffffffffffffffffffffffffff\n      and\n        /* \"Kyc.sol\":2011:2061  organizations[msg.sender].ethAddress == msg.sender */\n      0xffffffffffffffffffffffffffffffffffffffff\n      and\n      eq\n        /* \"Kyc.sol\":1990:2100  require(... */\n      tag_273\n      jumpi\n      mload(0x40)\n      0x08c379a000000000000000000000000000000000000000000000000000000000\n      dup2\n      mstore\n      0x04\n      add\n      tag_274\n      swap1\n      tag_128\n      jump\t// in\n    tag_274:\n      mload(0x40)\n      dup1\n      swap2\n      sub\n      swap1\n      revert\n    tag_273:\n        /* \"Kyc.sol\":10646:10658  _custaddress */\n      dup2\n        /* \"Kyc.sol\":10607:10658  customers[_custaddress].custAddress == _custaddress */\n      0xffffffffffffffffffffffffffffffffffffffff\n      and\n        /* \"Kyc.sol\":10607:10616  customers */\n      0x01\n        /* \"Kyc.sol\":10607:10630  customers[_custaddress] */\n      0x00\n        /* \"Kyc.sol\":10617:10629  _custaddress */\n      dup5\n        /* \"Kyc.sol\":10607:10630  customers[_custaddress] */\n      0xffffffffffffffffffffffffffffffffffffffff\n      and\n      0xffffffffffffffffffffffffffffffffffffffff\n      and\n      dup2\n      mstore\n      0x20\n      add\n      swap1\n      dup2\n      mstore\n      0x20\n      add\n      0x00\n      keccak256\n        /* \"Kyc.sol\":10607:10642  customers[_custaddress].custAddress */\n      0x00\n      add\n      0x00\n      swap1\n      sload\n      swap1\n      0x0100\n      exp\n      swap1\n      div\n      0xffffffffffffffffffffffffffffffffffffffff\n      and\n        /* \"Kyc.sol\":10607:10658  customers[_custaddress].custAddress == _custaddress */\n      0xffffffffffffffffffffffffffffffffffffffff\n      and\n      eq\n        /* \"Kyc.sol\":10586:10706  require(... */\n      tag_276\n      jumpi\n      mload(0x40)\n      0x08c379a000000000000000000000000000000000000000000000000000000000\n      dup2\n      mstore\n      0x04\n      add\n      tag_277\n      swap1\n      tag_278\n      jump\t// in\n    tag_277:\n      mload(0x40)\n      dup1\n      swap2\n      sub\n      swap1\n      revert\n    tag_276:\n        /* \"Kyc.sol\":10774:10779  false */\n      0x00\n        /* \"Kyc.sol\":10737:10779  findOrg(_custaddress, msg.sender) == false */\n      iszero\n      iszero\n        /* \"Kyc.sol\":10737:10770  findOrg(_custaddress, msg.sender) */\n      tag_279\n        /* \"Kyc.sol\":10745:10757  _custaddress */\n      dup4\n        /* \"Kyc.sol\":10759:10769  msg.sender */\n      caller\n        /* \"Kyc.sol\":10737:10744  findOrg */\n      tag_119\n        /* \"Kyc.sol\":10737:10770  findOrg(_custaddress, msg.sender) */\n      jump\t// in\n    tag_279:\n        /* \"Kyc.sol\":10737:10779  findOrg(_custaddress, msg.sender) == false */\n      iszero\n      iszero\n      eq\n        /* \"Kyc.sol\":10716:10824  require(... */\n      tag_280\n      jumpi\n      mload(0x40)\n      0x08c379a000000000000000000000000000000000000000000000000000000000\n      dup2\n      mstore\n      0x04\n      add\n      tag_281\n      swap1\n      tag_282\n      jump\t// in\n    tag_281:\n      mload(0x40)\n      dup1\n      swap2\n      sub\n      swap1\n      revert\n    tag_280:\n        /* \"Kyc.sol\":10871:10876  false */\n      0x00\n        /* \"Kyc.sol\":10842:10876  findRequest(_custaddress) == false */\n      iszero\n      iszero\n        /* \"Kyc.sol\":10842:10867  findRequest(_custaddress) */\n      tag_283\n        /* \"Kyc.sol\":10854:10866  _custaddress */\n      dup4\n        /* \"Kyc.sol\":10842:10853  findRequest */\n      tag_284\n        /* \"Kyc.sol\":10842:10867  findRequest(_custaddress) */\n      jump\t// in\n    tag_283:\n        /* \"Kyc.sol\":10842:10876  findRequest(_custaddress) == false */\n      iszero\n      iszero\n      eq\n        /* \"Kyc.sol\":10834:10903  require(findRequest(_custaddress) == false, \"Request Already Exists\") */\n      tag_285\n      jumpi\n      mload(0x40)\n      0x08c379a000000000000000000000000000000000000000000000000000000000\n      dup2\n      mstore\n      0x04\n      add\n      tag_286\n      swap1\n      tag_287\n      jump\t// in\n    tag_286:\n      mload(0x40)\n      dup1\n      swap2\n      sub\n      swap1\n      revert\n    tag_285:\n        /* \"Kyc.sol\":10913:10929  kycrequestsbyorg */\n      0x03\n        /* \"Kyc.sol\":10913:10941  kycrequestsbyorg[msg.sender] */\n      0x00\n        /* \"Kyc.sol\":10930:10940  msg.sender */\n      caller\n        /* \"Kyc.sol\":10913:10941  kycrequestsbyorg[msg.sender] */\n      0xffffffffffffffffffffffffffffffffffffffff\n      and\n      0xffffffffffffffffffffffffffffffffffffffff\n      and\n      dup2\n      mstore\n      0x20\n      add\n      swap1\n      dup2\n      mstore\n      0x20\n      add\n      0x00\n      keccak256\n        /* \"Kyc.sol\":10913:10956  kycrequestsbyorg[msg.sender].kycrequestlist */\n      0x02\n      add\n        /* \"Kyc.sol\":10975:11043  kycRequestList(kycrequestsbyorg[msg.sender].req_count, _custaddress) */\n      mload(0x40)\n      dup1\n      0x40\n      add\n      0x40\n      mstore\n      dup1\n        /* \"Kyc.sol\":10990:11006  kycrequestsbyorg */\n      0x03\n        /* \"Kyc.sol\":10990:11018  kycrequestsbyorg[msg.sender] */\n      0x00\n        /* \"Kyc.sol\":11007:11017  msg.sender */\n      caller\n        /* \"Kyc.sol\":10990:11018  kycrequestsbyorg[msg.sender] */\n      0xffffffffffffffffffffffffffffffffffffffff\n      and\n      0xffffffffffffffffffffffffffffffffffffffff\n      and\n      dup2\n      mstore\n      0x20\n      add\n      swap1\n      dup2\n      mstore\n      0x20\n      add\n      0x00\n      keccak256\n        /* \"Kyc.sol\":10990:11028  kycrequestsbyorg[msg.sender].req_count */\n      0x01\n      add\n      sload\n        /* \"Kyc.sol\":10975:11043  kycRequestList(kycrequestsbyorg[msg.sender].req_count, _custaddress) */\n      dup2\n      mstore\n      0x20\n      add\n        /* \"Kyc.sol\":11030:11042  _custaddress */\n      dup5\n        /* \"Kyc.sol\":10975:11043  kycRequestList(kycrequestsbyorg[msg.sender].req_count, _custaddress) */\n      0xffffffffffffffffffffffffffffffffffffffff\n      and\n      dup2\n      mstore\n      pop\n        /* \"Kyc.sol\":10913:11053  kycrequestsbyorg[msg.sender].kycrequestlist.push(... */\n      swap1\n      dup1\n      0x01\n      dup2\n      sload\n      add\n      dup1\n      dup3\n      sstore\n      dup1\n      swap2\n      pop\n      pop\n      0x01\n      swap1\n      sub\n      swap1\n      0x00\n      mstore\n      keccak256(0x00, 0x20)\n      swap1\n      0x02\n      mul\n      add\n      0x00\n      swap1\n      swap2\n      swap1\n      swap2\n      swap1\n      swap2\n      pop\n      0x00\n      dup3\n      add\n      mload\n      dup2\n      0x00\n      add\n      sstore\n      0x20\n      dup3\n      add\n      mload\n      dup2\n      0x01\n      add\n      exp(0x0100, 0x00)\n      dup2\n      sload\n      dup2\n      0xffffffffffffffffffffffffffffffffffffffff\n      mul\n      not\n      and\n      swap1\n      dup4\n      0xffffffffffffffffffffffffffffffffffffffff\n      and\n      mul\n      or\n      swap1\n      sstore\n      pop\n      pop\n      pop\n        /* \"Kyc.sol\":11063:11080  kycrequestsbycust */\n      0x04\n        /* \"Kyc.sol\":11063:11094  kycrequestsbycust[_custaddress] */\n      0x00\n        /* \"Kyc.sol\":11081:11093  _custaddress */\n      dup4\n        /* \"Kyc.sol\":11063:11094  kycrequestsbycust[_custaddress] */\n      0xffffffffffffffffffffffffffffffffffffffff\n      and\n      0xffffffffffffffffffffffffffffffffffffffff\n      and\n      dup2\n      mstore\n      0x20\n      add\n      swap1\n      dup2\n      mstore\n      0x20\n      add\n      0x00\n      keccak256\n        /* \"Kyc.sol\":11063:11109  kycrequestsbycust[_custaddress].kycrequestlist */\n      0x00\n      add\n        /* \"Kyc.sol\":11128:11194  kycRequestList(kycrequestsbyorg[msg.sender].req_count, msg.sender) */\n      mload(0x40)\n      dup1\n      0x40\n      add\n      0x40\n      mstore\n      dup1\n        /* \"Kyc.sol\":11143:11159  kycrequestsbyorg */\n      0x03\n        /* \"Kyc.sol\":11143:11171  kycrequestsbyorg[msg.sender] */\n      0x00\n        /* \"Kyc.sol\":11160:11170  msg.sender */\n      caller\n        /* \"Kyc.sol\":11143:11171  kycrequestsbyorg[msg.sender] */\n      0xffffffffffffffffffffffffffffffffffffffff\n      and\n      0xffffffffffffffffffffffffffffffffffffffff\n      and\n      dup2\n      mstore\n      0x20\n      add\n      swap1\n      dup2\n      mstore\n      0x20\n      add\n      0x00\n      keccak256\n        /* \"Kyc.sol\":11143:11181  kycrequestsbyorg[msg.sender].req_count */\n      0x01\n      add\n      sload\n        /* \"Kyc.sol\":11128:11194  kycRequestList(kycrequestsbyorg[msg.sender].req_count, msg.sender) */\n      dup2\n      mstore\n      0x20\n      add\n        /* \"Kyc.sol\":11183:11193  msg.sender */\n      caller\n        /* \"Kyc.sol\":11128:11194  kycRequestList(kycrequestsbyorg[msg.sender].req_count, msg.sender) */\n      0xffffffffffffffffffffffffffffffffffffffff\n      and\n      dup2\n      mstore\n      pop\n        /* \"Kyc.sol\":11063:11204  kycrequestsbycust[_custaddress].kycrequestlist.push(... */\n      swap1\n      dup1\n      0x01\n      dup2\n      sload\n      add\n      dup1\n      dup3\n      sstore\n      dup1\n      swap2\n      pop\n      pop\n      0x01\n      swap1\n      sub\n      swap1\n      0x00\n      mstore\n      keccak256(0x00, 0x20)\n      swap1\n      0x02\n      mul\n      add\n      0x00\n      swap1\n      swap2\n      swap1\n      swap2\n      swap1\n      swap2\n      pop\n      0x00\n      dup3\n      add\n      mload\n      dup2\n      0x00\n      add\n      sstore\n      0x20\n      dup3\n      add\n      mload\n      dup2\n      0x01\n      add\n      exp(0x0100, 0x00)\n      dup2\n      sload\n      dup2\n      0xffffffffffffffffffffffffffffffffffffffff\n      mul\n      not\n      and\n      swap1\n      dup4\n      0xffffffffffffffffffffffffffffffffffffffff\n      and\n      mul\n      or\n      swap1\n      sstore\n      pop\n      pop\n      pop\n        /* \"Kyc.sol\":11214:11230  kycrequestsbyorg */\n      0x03\n        /* \"Kyc.sol\":11214:11242  kycrequestsbyorg[msg.sender] */\n      0x00\n        /* \"Kyc.sol\":11231:11241  msg.sender */\n      caller\n        /* \"Kyc.sol\":11214:11242  kycrequestsbyorg[msg.sender] */\n      0xffffffffffffffffffffffffffffffffffffffff\n      and\n      0xffffffffffffffffffffffffffffffffffffffff\n      and\n      dup2\n      mstore\n      0x20\n      add\n      swap1\n      dup2\n      mstore\n      0x20\n      add\n      0x00\n      keccak256\n        /* \"Kyc.sol\":11214:11252  kycrequestsbyorg[msg.sender].req_count */\n      0x01\n      add\n      0x00\n        /* \"Kyc.sol\":11214:11254  kycrequestsbyorg[msg.sender].req_count++ */\n      dup2\n      sload\n      dup1\n      swap3\n      swap2\n      swap1\n      tag_290\n      swap1\n      tag_291\n      jump\t// in\n    tag_290:\n      swap2\n      swap1\n      pop\n      sstore\n      pop\n        /* \"Kyc.sol\":11451:11455  true */\n      0x01\n        /* \"Kyc.sol\":11444:11455  return true */\n      swap1\n      pop\n        /* \"Kyc.sol\":10501:11462  function requestKYC(address _custaddress) public isOrgValid returns (bool) {... */\n      swap2\n      swap1\n      pop\n      jump\t// out\n        /* \"Kyc.sol\":8979:9526  function viewRequestCust() public view returns (kycRequestList[] memory) {... */\n    tag_89:\n        /* \"Kyc.sol\":9027:9050  kycRequestList[] memory */\n      0x60\n        /* \"Kyc.sol\":9070:9081  validCust() */\n      tag_293\n        /* \"Kyc.sol\":9070:9079  validCust */\n      tag_105\n        /* \"Kyc.sol\":9070:9081  validCust() */\n      jump\t// in\n    tag_293:\n        /* \"Kyc.sol\":9062:9104  require(validCust(), \"Customer not valid\") */\n      tag_294\n      jumpi\n      mload(0x40)\n      0x08c379a000000000000000000000000000000000000000000000000000000000\n      dup2\n      mstore\n      0x04\n      add\n      tag_295\n      swap1\n      tag_296\n      jump\t// in\n    tag_295:\n      mload(0x40)\n      dup1\n      swap2\n      sub\n      swap1\n      revert\n    tag_294:\n        /* \"Kyc.sol\":9114:9141  kycRequestList[] memory ret */\n      0x00\n        /* \"Kyc.sol\":9178:9195  kycrequestsbycust */\n      0x04\n        /* \"Kyc.sol\":9178:9207  kycrequestsbycust[msg.sender] */\n      0x00\n        /* \"Kyc.sol\":9196:9206  msg.sender */\n      caller\n        /* \"Kyc.sol\":9178:9207  kycrequestsbycust[msg.sender] */\n      0xffffffffffffffffffffffffffffffffffffffff\n      and\n      0xffffffffffffffffffffffffffffffffffffffff\n      and\n      dup2\n      mstore\n      0x20\n      add\n      swap1\n      dup2\n      mstore\n      0x20\n      add\n      0x00\n      keccak256\n        /* \"Kyc.sol\":9178:9222  kycrequestsbycust[msg.sender].kycrequestlist */\n      0x00\n      add\n        /* \"Kyc.sol\":9178:9229  kycrequestsbycust[msg.sender].kycrequestlist.length */\n      dup1\n      sload\n      swap1\n      pop\n        /* \"Kyc.sol\":9144:9239  new kycRequestList[](... */\n      0xffffffffffffffff\n      dup2\n      gt\n      iszero\n      tag_297\n      jumpi\n      tag_298\n      tag_299\n      jump\t// in\n    tag_298:\n    tag_297:\n      mload(0x40)\n      swap1\n      dup1\n      dup3\n      mstore\n      dup1\n      0x20\n      mul\n      0x20\n      add\n      dup3\n      add\n      0x40\n      mstore\n      dup1\n      iszero\n      tag_300\n      jumpi\n      dup2\n      0x20\n      add\n    tag_301:\n      tag_302\n      tag_303\n      jump\t// in\n    tag_302:\n      dup2\n      mstore\n      0x20\n      add\n      swap1\n      0x01\n      swap1\n      sub\n      swap1\n      dup2\n      tag_301\n      jumpi\n      swap1\n      pop\n    tag_300:\n      pop\n        /* \"Kyc.sol\":9114:9239  kycRequestList[] memory ret = new kycRequestList[](... */\n      swap1\n      pop\n        /* \"Kyc.sol\":9249:9258  uint256 j */\n      0x00\n        /* \"Kyc.sol\":9290:9299  uint256 i */\n      dup1\n        /* \"Kyc.sol\":9272:9498  for (... */\n    tag_304:\n        /* \"Kyc.sol\":9321:9338  kycrequestsbycust */\n      0x04\n        /* \"Kyc.sol\":9321:9350  kycrequestsbycust[msg.sender] */\n      0x00\n        /* \"Kyc.sol\":9339:9349  msg.sender */\n      caller\n        /* \"Kyc.sol\":9321:9350  kycrequestsbycust[msg.sender] */\n      0xffffffffffffffffffffffffffffffffffffffff\n      and\n      0xffffffffffffffffffffffffffffffffffffffff\n      and\n      dup2\n      mstore\n      0x20\n      add\n      swap1\n      dup2\n      mstore\n      0x20\n      add\n      0x00\n      keccak256\n        /* \"Kyc.sol\":9321:9365  kycrequestsbycust[msg.sender].kycrequestlist */\n      0x00\n      add\n        /* \"Kyc.sol\":9321:9372  kycrequestsbycust[msg.sender].kycrequestlist.length */\n      dup1\n      sload\n      swap1\n      pop\n        /* \"Kyc.sol\":9317:9318  i */\n      dup2\n        /* \"Kyc.sol\":9317:9372  i < kycrequestsbycust[msg.sender].kycrequestlist.length */\n      lt\n        /* \"Kyc.sol\":9272:9498  for (... */\n      iszero\n      tag_305\n      jumpi\n        /* \"Kyc.sol\":9423:9440  kycrequestsbycust */\n      0x04\n        /* \"Kyc.sol\":9423:9452  kycrequestsbycust[msg.sender] */\n      0x00\n        /* \"Kyc.sol\":9441:9451  msg.sender */\n      caller\n        /* \"Kyc.sol\":9423:9452  kycrequestsbycust[msg.sender] */\n      0xffffffffffffffffffffffffffffffffffffffff\n      and\n      0xffffffffffffffffffffffffffffffffffffffff\n      and\n      dup2\n      mstore\n      0x20\n      add\n      swap1\n      dup2\n      mstore\n      0x20\n      add\n      0x00\n      keccak256\n        /* \"Kyc.sol\":9423:9467  kycrequestsbycust[msg.sender].kycrequestlist */\n      0x00\n      add\n        /* \"Kyc.sol\":9468:9469  i */\n      dup2\n        /* \"Kyc.sol\":9423:9470  kycrequestsbycust[msg.sender].kycrequestlist[i] */\n      dup2\n      sload\n      dup2\n      lt\n      tag_307\n      jumpi\n      tag_308\n      tag_143\n      jump\t// in\n    tag_308:\n    tag_307:\n      swap1\n      0x00\n      mstore\n      keccak256(0x00, 0x20)\n      swap1\n      0x02\n      mul\n      add\n        /* \"Kyc.sol\":9414:9470  ret[j] = kycrequestsbycust[msg.sender].kycrequestlist[i] */\n      mload(0x40)\n      dup1\n      0x40\n      add\n      0x40\n      mstore\n      swap1\n      dup2\n      0x00\n      dup3\n      add\n      sload\n      dup2\n      mstore\n      0x20\n      add\n      0x01\n      dup3\n      add\n      0x00\n      swap1\n      sload\n      swap1\n      0x0100\n      exp\n      swap1\n      div\n      0xffffffffffffffffffffffffffffffffffffffff\n      and\n      0xffffffffffffffffffffffffffffffffffffffff\n      and\n      0xffffffffffffffffffffffffffffffffffffffff\n      and\n      dup2\n      mstore\n      pop\n      pop\n        /* \"Kyc.sol\":9414:9417  ret */\n      dup4\n        /* \"Kyc.sol\":9418:9419  j */\n      dup4\n        /* \"Kyc.sol\":9414:9420  ret[j] */\n      dup2\n      mload\n      dup2\n      lt\n      tag_310\n      jumpi\n      tag_311\n      tag_143\n      jump\t// in\n    tag_311:\n    tag_310:\n      0x20\n      mul\n      0x20\n      add\n      add\n        /* \"Kyc.sol\":9414:9470  ret[j] = kycrequestsbycust[msg.sender].kycrequestlist[i] */\n      dup2\n      swap1\n      mstore\n      pop\n        /* \"Kyc.sol\":9484:9487  j++ */\n      dup2\n      dup1\n      tag_312\n      swap1\n      tag_291\n      jump\t// in\n    tag_312:\n      swap3\n      pop\n      pop\n        /* \"Kyc.sol\":9386:9389  i++ */\n      dup1\n      dup1\n      tag_313\n      swap1\n      tag_291\n      jump\t// in\n    tag_313:\n      swap2\n      pop\n      pop\n        /* \"Kyc.sol\":9272:9498  for (... */\n      jump(tag_304)\n    tag_305:\n      pop\n        /* \"Kyc.sol\":9515:9518  ret */\n      dup2\n        /* \"Kyc.sol\":9507:9519  return (ret) */\n      swap3\n      pop\n      pop\n      pop\n        /* \"Kyc.sol\":8979:9526  function viewRequestCust() public view returns (kycRequestList[] memory) {... */\n      swap1\n      jump\t// out\n        /* \"Kyc.sol\":8556:8714  function viewYourKYC() public view returns (Customer memory) {... */\n    tag_93:\n        /* \"Kyc.sol\":8600:8615  Customer memory */\n      tag_314\n      tag_315\n      jump\t// in\n    tag_314:\n        /* \"Kyc.sol\":8635:8646  validCust() */\n      tag_317\n        /* \"Kyc.sol\":8635:8644  validCust */\n      tag_105\n        /* \"Kyc.sol\":8635:8646  validCust() */\n      jump\t// in\n    tag_317:\n        /* \"Kyc.sol\":8627:8669  require(validCust(), \"Customer not valid\") */\n      tag_318\n      jumpi\n      mload(0x40)\n      0x08c379a000000000000000000000000000000000000000000000000000000000\n      dup2\n      mstore\n      0x04\n      add\n      tag_319\n      swap1\n      tag_296\n      jump\t// in\n    tag_319:\n      mload(0x40)\n      dup1\n      swap2\n      sub\n      swap1\n      revert\n    tag_318:\n        /* \"Kyc.sol\":8686:8695  customers */\n      0x01\n        /* \"Kyc.sol\":8686:8707  customers[msg.sender] */\n      0x00\n        /* \"Kyc.sol\":8696:8706  msg.sender */\n      caller\n        /* \"Kyc.sol\":8686:8707  customers[msg.sender] */\n      0xffffffffffffffffffffffffffffffffffffffff\n      and\n      0xffffffffffffffffffffffffffffffffffffffff\n      and\n      dup2\n      mstore\n      0x20\n      add\n      swap1\n      dup2\n      mstore\n      0x20\n      add\n      0x00\n      keccak256\n        /* \"Kyc.sol\":8679:8707  return customers[msg.sender] */\n      mload(0x40)\n      dup1\n      0x0120\n      add\n      0x40\n      mstore\n      swap1\n      dup2\n      0x00\n      dup3\n      add\n      0x00\n      swap1\n      sload\n      swap1\n      0x0100\n      exp\n      swap1\n      div\n      0xffffffffffffffffffffffffffffffffffffffff\n      and\n      0xffffffffffffffffffffffffffffffffffffffff\n      and\n      0xffffffffffffffffffffffffffffffffffffffff\n      and\n      dup2\n      mstore\n      0x20\n      add\n      0x01\n      dup3\n      add\n      dup1\n      sload\n      tag_320\n      swap1\n      tag_168\n      jump\t// in\n    tag_320:\n      dup1\n      0x1f\n      add\n      0x20\n      dup1\n      swap2\n      div\n      mul\n      0x20\n      add\n      mload(0x40)\n      swap1\n      dup2\n      add\n      0x40\n      mstore\n      dup1\n      swap3\n      swap2\n      swap1\n      dup2\n      dup2\n      mstore\n      0x20\n      add\n      dup3\n      dup1\n      sload\n      tag_321\n      swap1\n      tag_168\n      jump\t// in\n    tag_321:\n      dup1\n      iszero\n      tag_322\n      jumpi\n      dup1\n      0x1f\n      lt\n      tag_323\n      jumpi\n      0x0100\n      dup1\n      dup4\n      sload\n      div\n      mul\n      dup4\n      mstore\n      swap2\n      0x20\n      add\n      swap2\n      jump(tag_322)\n    tag_323:\n      dup3\n      add\n      swap2\n      swap1\n      0x00\n      mstore\n      keccak256(0x00, 0x20)\n      swap1\n    tag_324:\n      dup2\n      sload\n      dup2\n      mstore\n      swap1\n      0x01\n      add\n      swap1\n      0x20\n      add\n      dup1\n      dup4\n      gt\n      tag_324\n      jumpi\n      dup3\n      swap1\n      sub\n      0x1f\n      and\n      dup3\n      add\n      swap2\n    tag_322:\n      pop\n      pop\n      pop\n      pop\n      pop\n      dup2\n      mstore\n      0x20\n      add\n      0x02\n      dup3\n      add\n      dup1\n      sload\n      tag_325\n      swap1\n      tag_168\n      jump\t// in\n    tag_325:\n      dup1\n      0x1f\n      add\n      0x20\n      dup1\n      swap2\n      div\n      mul\n      0x20\n      add\n      mload(0x40)\n      swap1\n      dup2\n      add\n      0x40\n      mstore\n      dup1\n      swap3\n      swap2\n      swap1\n      dup2\n      dup2\n      mstore\n      0x20\n      add\n      dup3\n      dup1\n      sload\n      tag_326\n      swap1\n      tag_168\n      jump\t// in\n    tag_326:\n      dup1\n      iszero\n      tag_327\n      jumpi\n      dup1\n      0x1f\n      lt\n      tag_328\n      jumpi\n      0x0100\n      dup1\n      dup4\n      sload\n      div\n      mul\n      dup4\n      mstore\n      swap2\n      0x20\n      add\n      swap2\n      jump(tag_327)\n    tag_328:\n      dup3\n      add\n      swap2\n      swap1\n      0x00\n      mstore\n      keccak256(0x00, 0x20)\n      swap1\n    tag_329:\n      dup2\n      sload\n      dup2\n      mstore\n      swap1\n      0x01\n      add\n      swap1\n      0x20\n      add\n      dup1\n      dup4\n      gt\n      tag_329\n      jumpi\n      dup3\n      swap1\n      sub\n      0x1f\n      and\n      dup3\n      add\n      swap2\n    tag_327:\n      pop\n      pop\n      pop\n      pop\n      pop\n      dup2\n      mstore\n      0x20\n      add\n      0x03\n      dup3\n      add\n      dup1\n      sload\n      tag_330\n      swap1\n      tag_168\n      jump\t// in\n    tag_330:\n      dup1\n      0x1f\n      add\n      0x20\n      dup1\n      swap2\n      div\n      mul\n      0x20\n      add\n      mload(0x40)\n      swap1\n      dup2\n      add\n      0x40\n      mstore\n      dup1\n      swap3\n      swap2\n      swap1\n      dup2\n      dup2\n      mstore\n      0x20\n      add\n      dup3\n      dup1\n      sload\n      tag_331\n      swap1\n      tag_168\n      jump\t// in\n    tag_331:\n      dup1\n      iszero\n      tag_332\n      jumpi\n      dup1\n      0x1f\n      lt\n      tag_333\n      jumpi\n      0x0100\n      dup1\n      dup4\n      sload\n      div\n      mul\n      dup4\n      mstore\n      swap2\n      0x20\n      add\n      swap2\n      jump(tag_332)\n    tag_333:\n      dup3\n      add\n      swap2\n      swap1\n      0x00\n      mstore\n      keccak256(0x00, 0x20)\n      swap1\n    tag_334:\n      dup2\n      sload\n      dup2\n      mstore\n      swap1\n      0x01\n      add\n      swap1\n      0x20\n      add\n      dup1\n      dup4\n      gt\n      tag_334\n      jumpi\n      dup3\n      swap1\n      sub\n      0x1f\n      and\n      dup3\n      add\n      swap2\n    tag_332:\n      pop\n      pop\n      pop\n      pop\n      pop\n      dup2\n      mstore\n      0x20\n      add\n      0x04\n      dup3\n      add\n      dup1\n      sload\n      tag_335\n      swap1\n      tag_168\n      jump\t// in\n    tag_335:\n      dup1\n      0x1f\n      add\n      0x20\n      dup1\n      swap2\n      div\n      mul\n      0x20\n      add\n      mload(0x40)\n      swap1\n      dup2\n      add\n      0x40\n      mstore\n      dup1\n      swap3\n      swap2\n      swap1\n      dup2\n      dup2\n      mstore\n      0x20\n      add\n      dup3\n      dup1\n      sload\n      tag_336\n      swap1\n      tag_168\n      jump\t// in\n    tag_336:\n      dup1\n      iszero\n      tag_337\n      jumpi\n      dup1\n      0x1f\n      lt\n      tag_338\n      jumpi\n      0x0100\n      dup1\n      dup4\n      sload\n      div\n      mul\n      dup4\n      mstore\n      swap2\n      0x20\n      add\n      swap2\n      jump(tag_337)\n    tag_338:\n      dup3\n      add\n      swap2\n      swap1\n      0x00\n      mstore\n      keccak256(0x00, 0x20)\n      swap1\n    tag_339:\n      dup2\n      sload\n      dup2\n      mstore\n      swap1\n      0x01\n      add\n      swap1\n      0x20\n      add\n      dup1\n      dup4\n      gt\n      tag_339\n      jumpi\n      dup3\n      swap1\n      sub\n      0x1f\n      and\n      dup3\n      add\n      swap2\n    tag_337:\n      pop\n      pop\n      pop\n      pop\n      pop\n      dup2\n      mstore\n      0x20\n      add\n      0x05\n      dup3\n      add\n      sload\n      dup2\n      mstore\n      0x20\n      add\n      0x06\n      dup3\n      add\n      sload\n      dup2\n      mstore\n      0x20\n      add\n      0x07\n      dup3\n      add\n      dup1\n      sload\n      dup1\n      0x20\n      mul\n      0x20\n      add\n      mload(0x40)\n      swap1\n      dup2\n      add\n      0x40\n      mstore\n      dup1\n      swap3\n      swap2\n      swap1\n      dup2\n      dup2\n      mstore\n      0x20\n      add\n      dup3\n      dup1\n      sload\n      dup1\n      iszero\n      tag_340\n      jumpi\n      0x20\n      mul\n      dup3\n      add\n      swap2\n      swap1\n      0x00\n      mstore\n      keccak256(0x00, 0x20)\n      swap1\n    tag_341:\n      dup2\n      0x00\n      swap1\n      sload\n      swap1\n      0x0100\n      exp\n      swap1\n      div\n      0xffffffffffffffffffffffffffffffffffffffff\n      and\n      0xffffffffffffffffffffffffffffffffffffffff\n      and\n      dup2\n      mstore\n      0x20\n      add\n      swap1\n      0x01\n      add\n      swap1\n      dup1\n      dup4\n      gt\n      tag_341\n      jumpi\n    tag_340:\n      pop\n      pop\n      pop\n      pop\n      pop\n      dup2\n      mstore\n      0x20\n      add\n      0x08\n      dup3\n      add\n      0x00\n      swap1\n      sload\n      swap1\n      0x0100\n      exp\n      swap1\n      div\n      0xff\n      and\n      iszero\n      iszero\n      iszero\n      iszero\n      dup2\n      mstore\n      pop\n      pop\n      swap1\n      pop\n        /* \"Kyc.sol\":8556:8714  function viewYourKYC() public view returns (Customer memory) {... */\n      swap1\n      jump\t// out\n        /* \"Kyc.sol\":5478:5647  function validAdmin() public view returns (bool) {... */\n    tag_97:\n        /* \"Kyc.sol\":5521:5525  bool */\n      0x00\n        /* \"Kyc.sol\":5550:5560  msg.sender */\n      caller\n        /* \"Kyc.sol\":5541:5560  admin == msg.sender */\n      0xffffffffffffffffffffffffffffffffffffffff\n      and\n        /* \"Kyc.sol\":5541:5546  admin */\n      0x00\n      dup1\n      sload\n      swap1\n      0x0100\n      exp\n      swap1\n      div\n      0xffffffffffffffffffffffffffffffffffffffff\n      and\n        /* \"Kyc.sol\":5541:5560  admin == msg.sender */\n      0xffffffffffffffffffffffffffffffffffffffff\n      and\n      sub\n        /* \"Kyc.sol\":5537:5641  if (admin == msg.sender) {... */\n      tag_343\n      jumpi\n        /* \"Kyc.sol\":5583:5587  true */\n      0x01\n        /* \"Kyc.sol\":5576:5587  return true */\n      swap1\n      pop\n      jump(tag_342)\n        /* \"Kyc.sol\":5537:5641  if (admin == msg.sender) {... */\n    tag_343:\n        /* \"Kyc.sol\":5625:5630  false */\n      0x00\n        /* \"Kyc.sol\":5618:5630  return false */\n      swap1\n      pop\n        /* \"Kyc.sol\":5478:5647  function validAdmin() public view returns (bool) {... */\n    tag_342:\n      swap1\n      jump\t// out\n        /* \"Kyc.sol\":7793:8550  function viewKYC(address _custaddress)... */\n    tag_101:\n        /* \"Kyc.sol\":7890:7894  bool */\n      0x00\n        /* \"Kyc.sol\":7908:7921  string memory */\n      0x60\n        /* \"Kyc.sol\":7935:7948  string memory */\n      dup1\n        /* \"Kyc.sol\":7962:7975  string memory */\n      0x60\n        /* \"Kyc.sol\":7989:8002  string memory */\n      dup1\n        /* \"Kyc.sol\":8016:8023  uint256 */\n      0x00\n        /* \"Kyc.sol\":8037:8044  uint256 */\n      dup1\n        /* \"Kyc.sol\":8090:8123  findOrg(_custaddress, msg.sender) */\n      tag_346\n        /* \"Kyc.sol\":8098:8110  _custaddress */\n      dup9\n        /* \"Kyc.sol\":8112:8122  msg.sender */\n      caller\n        /* \"Kyc.sol\":8090:8097  findOrg */\n      tag_119\n        /* \"Kyc.sol\":8090:8123  findOrg(_custaddress, msg.sender) */\n      jump\t// in\n    tag_346:\n        /* \"Kyc.sol\":8069:8179  require(... */\n      tag_347\n      jumpi\n      mload(0x40)\n      0x08c379a000000000000000000000000000000000000000000000000000000000\n      dup2\n      mstore\n      0x04\n      add\n      tag_348\n      swap1\n      tag_349\n      jump\t// in\n    tag_348:\n      mload(0x40)\n      dup1\n      swap2\n      sub\n      swap1\n      revert\n    tag_347:\n        /* \"Kyc.sol\":8210:8219  customers */\n      0x01\n        /* \"Kyc.sol\":8210:8233  customers[_custaddress] */\n      0x00\n        /* \"Kyc.sol\":8220:8232  _custaddress */\n      dup10\n        /* \"Kyc.sol\":8210:8233  customers[_custaddress] */\n      0xffffffffffffffffffffffffffffffffffffffff\n      and\n      0xffffffffffffffffffffffffffffffffffffffff\n      and\n      dup2\n      mstore\n      0x20\n      add\n      swap1\n      dup2\n      mstore\n      0x20\n      add\n      0x00\n      keccak256\n        /* \"Kyc.sol\":8210:8243  customers[_custaddress].kycStatus */\n      0x08\n      add\n      0x00\n      swap1\n      sload\n      swap1\n      0x0100\n      exp\n      swap1\n      div\n      0xff\n      and\n        /* \"Kyc.sol\":8257:8266  customers */\n      0x01\n        /* \"Kyc.sol\":8257:8280  customers[_custaddress] */\n      0x00\n        /* \"Kyc.sol\":8267:8279  _custaddress */\n      dup11\n        /* \"Kyc.sol\":8257:8280  customers[_custaddress] */\n      0xffffffffffffffffffffffffffffffffffffffff\n      and\n      0xffffffffffffffffffffffffffffffffffffffff\n      and\n      dup2\n      mstore\n      0x20\n      add\n      swap1\n      dup2\n      mstore\n      0x20\n      add\n      0x00\n      keccak256\n        /* \"Kyc.sol\":8257:8289  customers[_custaddress].jsonHash */\n      0x01\n      add\n        /* \"Kyc.sol\":8303:8312  customers */\n      0x01\n        /* \"Kyc.sol\":8303:8326  customers[_custaddress] */\n      0x00\n        /* \"Kyc.sol\":8313:8325  _custaddress */\n      dup12\n        /* \"Kyc.sol\":8303:8326  customers[_custaddress] */\n      0xffffffffffffffffffffffffffffffffffffffff\n      and\n      0xffffffffffffffffffffffffffffffffffffffff\n      and\n      dup2\n      mstore\n      0x20\n      add\n      swap1\n      dup2\n      mstore\n      0x20\n      add\n      0x00\n      keccak256\n        /* \"Kyc.sol\":8303:8336  customers[_custaddress].photoHash */\n      0x02\n      add\n        /* \"Kyc.sol\":8350:8359  customers */\n      0x01\n        /* \"Kyc.sol\":8350:8373  customers[_custaddress] */\n      0x00\n        /* \"Kyc.sol\":8360:8372  _custaddress */\n      dup13\n        /* \"Kyc.sol\":8350:8373  customers[_custaddress] */\n      0xffffffffffffffffffffffffffffffffffffffff\n      and\n      0xffffffffffffffffffffffffffffffffffffffff\n      and\n      dup2\n      mstore\n      0x20\n      add\n      swap1\n      dup2\n      mstore\n      0x20\n      add\n      0x00\n      keccak256\n        /* \"Kyc.sol\":8350:8396  customers[_custaddress].citizenship_front_hash */\n      0x03\n      add\n        /* \"Kyc.sol\":8410:8419  customers */\n      0x01\n        /* \"Kyc.sol\":8410:8433  customers[_custaddress] */\n      0x00\n        /* \"Kyc.sol\":8420:8432  _custaddress */\n      dup14\n        /* \"Kyc.sol\":8410:8433  customers[_custaddress] */\n      0xffffffffffffffffffffffffffffffffffffffff\n      and\n      0xffffffffffffffffffffffffffffffffffffffff\n      and\n      dup2\n      mstore\n      0x20\n      add\n      swap1\n      dup2\n      mstore\n      0x20\n      add\n      0x00\n      keccak256\n        /* \"Kyc.sol\":8410:8455  customers[_custaddress].citizenship_back_hash */\n      0x04\n      add\n        /* \"Kyc.sol\":8469:8478  customers */\n      0x01\n        /* \"Kyc.sol\":8469:8492  customers[_custaddress] */\n      0x00\n        /* \"Kyc.sol\":8479:8491  _custaddress */\n      dup15\n        /* \"Kyc.sol\":8469:8492  customers[_custaddress] */\n      0xffffffffffffffffffffffffffffffffffffffff\n      and\n      0xffffffffffffffffffffffffffffffffffffffff\n      and\n      dup2\n      mstore\n      0x20\n      add\n      swap1\n      dup2\n      mstore\n      0x20\n      add\n      0x00\n      keccak256\n        /* \"Kyc.sol\":8469:8494  customers[_custaddress].d */\n      0x05\n      add\n      sload\n        /* \"Kyc.sol\":8508:8517  customers */\n      0x01\n        /* \"Kyc.sol\":8508:8531  customers[_custaddress] */\n      0x00\n        /* \"Kyc.sol\":8518:8530  _custaddress */\n      dup16\n        /* \"Kyc.sol\":8508:8531  customers[_custaddress] */\n      0xffffffffffffffffffffffffffffffffffffffff\n      and\n      0xffffffffffffffffffffffffffffffffffffffff\n      and\n      dup2\n      mstore\n      0x20\n      add\n      swap1\n      dup2\n      mstore\n      0x20\n      add\n      0x00\n      keccak256\n        /* \"Kyc.sol\":8508:8533  customers[_custaddress].n */\n      0x06\n      add\n      sload\n        /* \"Kyc.sol\":8189:8543  return (... */\n      dup6\n      dup1\n      sload\n      tag_350\n      swap1\n      tag_168\n      jump\t// in\n    tag_350:\n      dup1\n      0x1f\n      add\n      0x20\n      dup1\n      swap2\n      div\n      mul\n      0x20\n      add\n      mload(0x40)\n      swap1\n      dup2\n      add\n      0x40\n      mstore\n      dup1\n      swap3\n      swap2\n      swap1\n      dup2\n      dup2\n      mstore\n      0x20\n      add\n      dup3\n      dup1\n      sload\n      tag_351\n      swap1\n      tag_168\n      jump\t// in\n    tag_351:\n      dup1\n      iszero\n      tag_352\n      jumpi\n      dup1\n      0x1f\n      lt\n      tag_353\n      jumpi\n      0x0100\n      dup1\n      dup4\n      sload\n      div\n      mul\n      dup4\n      mstore\n      swap2\n      0x20\n      add\n      swap2\n      jump(tag_352)\n    tag_353:\n      dup3\n      add\n      swap2\n      swap1\n      0x00\n      mstore\n      keccak256(0x00, 0x20)\n      swap1\n    tag_354:\n      dup2\n      sload\n      dup2\n      mstore\n      swap1\n      0x01\n      add\n      swap1\n      0x20\n      add\n      dup1\n      dup4\n      gt\n      tag_354\n      jumpi\n      dup3\n      swap1\n      sub\n      0x1f\n      and\n      dup3\n      add\n      swap2\n    tag_352:\n      pop\n      pop\n      pop\n      pop\n      pop\n      swap6\n      pop\n      dup5\n      dup1\n      sload\n      tag_355\n      swap1\n      tag_168\n      jump\t// in\n    tag_355:\n      dup1\n      0x1f\n      add\n      0x20\n      dup1\n      swap2\n      div\n      mul\n      0x20\n      add\n      mload(0x40)\n      swap1\n      dup2\n      add\n      0x40\n      mstore\n      dup1\n      swap3\n      swap2\n      swap1\n      dup2\n      dup2\n      mstore\n      0x20\n      add\n      dup3\n      dup1\n      sload\n      tag_356\n      swap1\n      tag_168\n      jump\t// in\n    tag_356:\n      dup1\n      iszero\n      tag_357\n      jumpi\n      dup1\n      0x1f\n      lt\n      tag_358\n      jumpi\n      0x0100\n      dup1\n      dup4\n      sload\n      div\n      mul\n      dup4\n      mstore\n      swap2\n      0x20\n      add\n      swap2\n      jump(tag_357)\n    tag_358:\n      dup3\n      add\n      swap2\n      swap1\n      0x00\n      mstore\n      keccak256(0x00, 0x20)\n      swap1\n    tag_359:\n      dup2\n      sload\n      dup2\n      mstore\n      swap1\n      0x01\n      add\n      swap1\n      0x20\n      add\n      dup1\n      dup4\n      gt\n      tag_359\n      jumpi\n      dup3\n      swap1\n      sub\n      0x1f\n      and\n      dup3\n      add\n      swap2\n    tag_357:\n      pop\n      pop\n      pop\n      pop\n      pop\n      swap5\n      pop\n      dup4\n      dup1\n      sload\n      tag_360\n      swap1\n      tag_168\n      jump\t// in\n    tag_360:\n      dup1\n      0x1f\n      add\n      0x20\n      dup1\n      swap2\n      div\n      mul\n      0x20\n      add\n      mload(0x40)\n      swap1\n      dup2\n      add\n      0x40\n      mstore\n      dup1\n      swap3\n      swap2\n      swap1\n      dup2\n      dup2\n      mstore\n      0x20\n      add\n      dup3\n      dup1\n      sload\n      tag_361\n      swap1\n      tag_168\n      jump\t// in\n    tag_361:\n      dup1\n      iszero\n      tag_362\n      jumpi\n      dup1\n      0x1f\n      lt\n      tag_363\n      jumpi\n      0x0100\n      dup1\n      dup4\n      sload\n      div\n      mul\n      dup4\n      mstore\n      swap2\n      0x20\n      add\n      swap2\n      jump(tag_362)\n    tag_363:\n      dup3\n      add\n      swap2\n      swap1\n      0x00\n      mstore\n      keccak256(0x00, 0x20)\n      swap1\n    tag_364:\n      dup2\n      sload\n      dup2\n      mstore\n      swap1\n      0x01\n      add\n      swap1\n      0x20\n      add\n      dup1\n      dup4\n      gt\n      tag_364\n      jumpi\n      dup3\n      swap1\n      sub\n      0x1f\n      and\n      dup3\n      add\n      swap2\n    tag_362:\n      pop\n      pop\n      pop\n      pop\n      pop\n      swap4\n      pop\n      dup3\n      dup1\n      sload\n      tag_365\n      swap1\n      tag_168\n      jump\t// in\n    tag_365:\n      dup1\n      0x1f\n      add\n      0x20\n      dup1\n      swap2\n      div\n      mul\n      0x20\n      add\n      mload(0x40)\n      swap1\n      dup2\n      add\n      0x40\n      mstore\n      dup1\n      swap3\n      swap2\n      swap1\n      dup2\n      dup2\n      mstore\n      0x20\n      add\n      dup3\n      dup1\n      sload\n      tag_366\n      swap1\n      tag_168\n      jump\t// in\n    tag_366:\n      dup1\n      iszero\n      tag_367\n      jumpi\n      dup1\n      0x1f\n      lt\n      tag_368\n      jumpi\n      0x0100\n      dup1\n      dup4\n      sload\n      div\n      mul\n      dup4\n      mstore\n      swap2\n      0x20\n      add\n      swap2\n      jump(tag_367)\n    tag_368:\n      dup3\n      add\n      swap2\n      swap1\n      0x00\n      mstore\n      keccak256(0x00, 0x20)\n      swap1\n    tag_369:\n      dup2\n      sload\n      dup2\n      mstore\n      swap1\n      0x01\n      add\n      swap1\n      0x20\n      add\n      dup1\n      dup4\n      gt\n      tag_369\n      jumpi\n      dup3\n      swap1\n      sub\n      0x1f\n      and\n      dup3\n      add\n      swap2\n    tag_367:\n      pop\n      pop\n      pop\n      pop\n      pop\n      swap3\n      pop\n      swap7\n      pop\n      swap7\n      pop\n      swap7\n      pop\n      swap7\n      pop\n      swap7\n      pop\n      swap7\n      pop\n      swap7\n      pop\n        /* \"Kyc.sol\":7793:8550  function viewKYC(address _custaddress)... */\n      swap2\n      swap4\n      swap6\n      swap8\n      swap1\n      swap3\n      swap5\n      swap7\n      pop\n      jump\t// out\n        /* \"Kyc.sol\":5653:5849  function validCust() public view returns (bool) {... */\n    tag_105:\n        /* \"Kyc.sol\":5695:5699  bool */\n      0x00\n        /* \"Kyc.sol\":5752:5762  msg.sender */\n      caller\n        /* \"Kyc.sol\":5715:5762  customers[msg.sender].custAddress == msg.sender */\n      0xffffffffffffffffffffffffffffffffffffffff\n      and\n        /* \"Kyc.sol\":5715:5724  customers */\n      0x01\n        /* \"Kyc.sol\":5715:5736  customers[msg.sender] */\n      0x00\n        /* \"Kyc.sol\":5725:5735  msg.sender */\n      caller\n        /* \"Kyc.sol\":5715:5736  customers[msg.sender] */\n      0xffffffffffffffffffffffffffffffffffffffff\n      and\n      0xffffffffffffffffffffffffffffffffffffffff\n      and\n      dup2\n      mstore\n      0x20\n      add\n      swap1\n      dup2\n      mstore\n      0x20\n      add\n      0x00\n      keccak256\n        /* \"Kyc.sol\":5715:5748  customers[msg.sender].custAddress */\n      0x00\n      add\n      0x00\n      swap1\n      sload\n      swap1\n      0x0100\n      exp\n      swap1\n      div\n      0xffffffffffffffffffffffffffffffffffffffff\n      and\n        /* \"Kyc.sol\":5715:5762  customers[msg.sender].custAddress == msg.sender */\n      0xffffffffffffffffffffffffffffffffffffffff\n      and\n      sub\n        /* \"Kyc.sol\":5711:5843  if (customers[msg.sender].custAddress == msg.sender) {... */\n      tag_371\n      jumpi\n        /* \"Kyc.sol\":5785:5789  true */\n      0x01\n        /* \"Kyc.sol\":5778:5789  return true */\n      swap1\n      pop\n      jump(tag_370)\n        /* \"Kyc.sol\":5711:5843  if (customers[msg.sender].custAddress == msg.sender) {... */\n    tag_371:\n        /* \"Kyc.sol\":5827:5832  false */\n      0x00\n        /* \"Kyc.sol\":5820:5832  return false */\n      swap1\n      pop\n        /* \"Kyc.sol\":5653:5849  function validCust() public view returns (bool) {... */\n    tag_370:\n      swap1\n      jump\t// out\n        /* \"Kyc.sol\":14439:14904  function listRequest()... */\n    tag_108:\n        /* \"Kyc.sol\":14526:14549  kycRequestList[] memory */\n      0x60\n        /* \"Kyc.sol\":2051:2061  msg.sender */\n      caller\n        /* \"Kyc.sol\":2011:2061  organizations[msg.sender].ethAddress == msg.sender */\n      0xffffffffffffffffffffffffffffffffffffffff\n      and\n        /* \"Kyc.sol\":2011:2024  organizations */\n      0x02\n        /* \"Kyc.sol\":2011:2036  organizations[msg.sender] */\n      0x00\n        /* \"Kyc.sol\":2025:2035  msg.sender */\n      caller\n        /* \"Kyc.sol\":2011:2036  organizations[msg.sender] */\n      0xffffffffffffffffffffffffffffffffffffffff\n      and\n      0xffffffffffffffffffffffffffffffffffffffff\n      and\n      dup2\n      mstore\n      0x20\n      add\n      swap1\n      dup2\n      mstore\n      0x20\n      add\n      0x00\n      keccak256\n        /* \"Kyc.sol\":2011:2047  organizations[msg.sender].ethAddress */\n      0x01\n      add\n      0x00\n      swap1\n      sload\n      swap1\n      0x0100\n      exp\n      swap1\n      div\n      0xffffffffffffffffffffffffffffffffffffffff\n      and\n        /* \"Kyc.sol\":2011:2061  organizations[msg.sender].ethAddress == msg.sender */\n      0xffffffffffffffffffffffffffffffffffffffff\n      and\n      eq\n        /* \"Kyc.sol\":1990:2100  require(... */\n      tag_374\n      jumpi\n      mload(0x40)\n      0x08c379a000000000000000000000000000000000000000000000000000000000\n      dup2\n      mstore\n      0x04\n      add\n      tag_375\n      swap1\n      tag_128\n      jump\t// in\n    tag_375:\n      mload(0x40)\n      dup1\n      swap2\n      sub\n      swap1\n      revert\n    tag_374:\n        /* \"Kyc.sol\":14565:14592  kycRequestList[] memory ret */\n      0x00\n        /* \"Kyc.sol\":14629:14645  kycrequestsbyorg */\n      0x03\n        /* \"Kyc.sol\":14629:14657  kycrequestsbyorg[msg.sender] */\n      0x00\n        /* \"Kyc.sol\":14646:14656  msg.sender */\n      caller\n        /* \"Kyc.sol\":14629:14657  kycrequestsbyorg[msg.sender] */\n      0xffffffffffffffffffffffffffffffffffffffff\n      and\n      0xffffffffffffffffffffffffffffffffffffffff\n      and\n      dup2\n      mstore\n      0x20\n      add\n      swap1\n      dup2\n      mstore\n      0x20\n      add\n      0x00\n      keccak256\n        /* \"Kyc.sol\":14629:14667  kycrequestsbyorg[msg.sender].req_count */\n      0x01\n      add\n      sload\n        /* \"Kyc.sol\":14595:14677  new kycRequestList[](... */\n      0xffffffffffffffff\n      dup2\n      gt\n      iszero\n      tag_377\n      jumpi\n      tag_378\n      tag_299\n      jump\t// in\n    tag_378:\n    tag_377:\n      mload(0x40)\n      swap1\n      dup1\n      dup3\n      mstore\n      dup1\n      0x20\n      mul\n      0x20\n      add\n      dup3\n      add\n      0x40\n      mstore\n      dup1\n      iszero\n      tag_379\n      jumpi\n      dup2\n      0x20\n      add\n    tag_380:\n      tag_381\n      tag_303\n      jump\t// in\n    tag_381:\n      dup2\n      mstore\n      0x20\n      add\n      swap1\n      0x01\n      swap1\n      sub\n      swap1\n      dup2\n      tag_380\n      jumpi\n      swap1\n      pop\n    tag_379:\n      pop\n        /* \"Kyc.sol\":14565:14677  kycRequestList[] memory ret = new kycRequestList[](... */\n      swap1\n      pop\n        /* \"Kyc.sol\":14687:14696  uint256 j */\n      0x00\n        /* \"Kyc.sol\":14715:14724  uint256 i */\n      dup1\n        /* \"Kyc.sol\":14710:14876  for (uint256 i = 0; i < kycrequestsbyorg[msg.sender].req_count; i++) {... */\n    tag_382:\n        /* \"Kyc.sol\":14734:14750  kycrequestsbyorg */\n      0x03\n        /* \"Kyc.sol\":14734:14762  kycrequestsbyorg[msg.sender] */\n      0x00\n        /* \"Kyc.sol\":14751:14761  msg.sender */\n      caller\n        /* \"Kyc.sol\":14734:14762  kycrequestsbyorg[msg.sender] */\n      0xffffffffffffffffffffffffffffffffffffffff\n      and\n      0xffffffffffffffffffffffffffffffffffffffff\n      and\n      dup2\n      mstore\n      0x20\n      add\n      swap1\n      dup2\n      mstore\n      0x20\n      add\n      0x00\n      keccak256\n        /* \"Kyc.sol\":14734:14772  kycrequestsbyorg[msg.sender].req_count */\n      0x01\n      add\n      sload\n        /* \"Kyc.sol\":14730:14731  i */\n      dup2\n        /* \"Kyc.sol\":14730:14772  i < kycrequestsbyorg[msg.sender].req_count */\n      lt\n        /* \"Kyc.sol\":14710:14876  for (uint256 i = 0; i < kycrequestsbyorg[msg.sender].req_count; i++) {... */\n      iszero\n      tag_383\n      jumpi\n        /* \"Kyc.sol\":14802:14818  kycrequestsbyorg */\n      0x03\n        /* \"Kyc.sol\":14802:14830  kycrequestsbyorg[msg.sender] */\n      0x00\n        /* \"Kyc.sol\":14819:14829  msg.sender */\n      caller\n        /* \"Kyc.sol\":14802:14830  kycrequestsbyorg[msg.sender] */\n      0xffffffffffffffffffffffffffffffffffffffff\n      and\n      0xffffffffffffffffffffffffffffffffffffffff\n      and\n      dup2\n      mstore\n      0x20\n      add\n      swap1\n      dup2\n      mstore\n      0x20\n      add\n      0x00\n      keccak256\n        /* \"Kyc.sol\":14802:14845  kycrequestsbyorg[msg.sender].kycrequestlist */\n      0x02\n      add\n        /* \"Kyc.sol\":14846:14847  i */\n      dup2\n        /* \"Kyc.sol\":14802:14848  kycrequestsbyorg[msg.sender].kycrequestlist[i] */\n      dup2\n      sload\n      dup2\n      lt\n      tag_385\n      jumpi\n      tag_386\n      tag_143\n      jump\t// in\n    tag_386:\n    tag_385:\n      swap1\n      0x00\n      mstore\n      keccak256(0x00, 0x20)\n      swap1\n      0x02\n      mul\n      add\n        /* \"Kyc.sol\":14793:14848  ret[j] = kycrequestsbyorg[msg.sender].kycrequestlist[i] */\n      mload(0x40)\n      dup1\n      0x40\n      add\n      0x40\n      mstore\n      swap1\n      dup2\n      0x00\n      dup3\n      add\n      sload\n      dup2\n      mstore\n      0x20\n      add\n      0x01\n      dup3\n      add\n      0x00\n      swap1\n      sload\n      swap1\n      0x0100\n      exp\n      swap1\n      div\n      0xffffffffffffffffffffffffffffffffffffffff\n      and\n      0xffffffffffffffffffffffffffffffffffffffff\n      and\n      0xffffffffffffffffffffffffffffffffffffffff\n      and\n      dup2\n      mstore\n      pop\n      pop\n        /* \"Kyc.sol\":14793:14796  ret */\n      dup4\n        /* \"Kyc.sol\":14797:14798  j */\n      dup4\n        /* \"Kyc.sol\":14793:14799  ret[j] */\n      dup2\n      mload\n      dup2\n      lt\n      tag_388\n      jumpi\n      tag_389\n      tag_143\n      jump\t// in\n    tag_389:\n    tag_388:\n      0x20\n      mul\n      0x20\n      add\n      add\n        /* \"Kyc.sol\":14793:14848  ret[j] = kycrequestsbyorg[msg.sender].kycrequestlist[i] */\n      dup2\n      swap1\n      mstore\n      pop\n        /* \"Kyc.sol\":14862:14865  j++ */\n      dup2\n      dup1\n      tag_390\n      swap1\n      tag_291\n      jump\t// in\n    tag_390:\n      swap3\n      pop\n      pop\n        /* \"Kyc.sol\":14774:14777  i++ */\n      dup1\n      dup1\n      tag_391\n      swap1\n      tag_291\n      jump\t// in\n    tag_391:\n      swap2\n      pop\n      pop\n        /* \"Kyc.sol\":14710:14876  for (uint256 i = 0; i < kycrequestsbyorg[msg.sender].req_count; i++) {... */\n      jump(tag_382)\n    tag_383:\n      pop\n        /* \"Kyc.sol\":14893:14896  ret */\n      dup2\n        /* \"Kyc.sol\":14885:14897  return (ret) */\n      swap3\n      pop\n      pop\n      pop\n        /* \"Kyc.sol\":14439:14904  function listRequest()... */\n      swap1\n      jump\t// out\n        /* \"Kyc.sol\":85:105  address public admin */\n    tag_111:\n      0x00\n      dup1\n      sload\n      swap1\n      0x0100\n      exp\n      swap1\n      div\n      0xffffffffffffffffffffffffffffffffffffffff\n      and\n      dup2\n      jump\t// out\n        /* \"Kyc.sol\":2170:2536  function findOrg(address _custaddress, address ethAddress)... */\n    tag_119:\n        /* \"Kyc.sol\":2276:2280  bool */\n      0x00\n        /* \"Kyc.sol\":2296:2305  uint256 i */\n      dup1\n        /* \"Kyc.sol\":2308:2309  0 */\n      0x00\n        /* \"Kyc.sol\":2296:2309  uint256 i = 0 */\n      swap1\n      pop\n        /* \"Kyc.sol\":2319:2508  for (i; i < customers[_custaddress].organization.length; i++) {... */\n    tag_393:\n        /* \"Kyc.sol\":2331:2340  customers */\n      0x01\n        /* \"Kyc.sol\":2331:2354  customers[_custaddress] */\n      0x00\n        /* \"Kyc.sol\":2341:2353  _custaddress */\n      dup6\n        /* \"Kyc.sol\":2331:2354  customers[_custaddress] */\n      0xffffffffffffffffffffffffffffffffffffffff\n      and\n      0xffffffffffffffffffffffffffffffffffffffff\n      and\n      dup2\n      mstore\n      0x20\n      add\n      swap1\n      dup2\n      mstore\n      0x20\n      add\n      0x00\n      keccak256\n        /* \"Kyc.sol\":2331:2367  customers[_custaddress].organization */\n      0x07\n      add\n        /* \"Kyc.sol\":2331:2374  customers[_custaddress].organization.length */\n      dup1\n      sload\n      swap1\n      pop\n        /* \"Kyc.sol\":2327:2328  i */\n      dup2\n        /* \"Kyc.sol\":2327:2374  i < customers[_custaddress].organization.length */\n      lt\n        /* \"Kyc.sol\":2319:2508  for (i; i < customers[_custaddress].organization.length; i++) {... */\n      iszero\n      tag_394\n      jumpi\n        /* \"Kyc.sol\":2442:2452  ethAddress */\n      dup3\n        /* \"Kyc.sol\":2399:2452  customers[_custaddress].organization[i] == ethAddress */\n      0xffffffffffffffffffffffffffffffffffffffff\n      and\n        /* \"Kyc.sol\":2399:2408  customers */\n      0x01\n        /* \"Kyc.sol\":2399:2422  customers[_custaddress] */\n      0x00\n        /* \"Kyc.sol\":2409:2421  _custaddress */\n      dup7\n        /* \"Kyc.sol\":2399:2422  customers[_custaddress] */\n      0xffffffffffffffffffffffffffffffffffffffff\n      and\n      0xffffffffffffffffffffffffffffffffffffffff\n      and\n      dup2\n      mstore\n      0x20\n      add\n      swap1\n      dup2\n      mstore\n      0x20\n      add\n      0x00\n      keccak256\n        /* \"Kyc.sol\":2399:2435  customers[_custaddress].organization */\n      0x07\n      add\n        /* \"Kyc.sol\":2436:2437  i */\n      dup3\n        /* \"Kyc.sol\":2399:2438  customers[_custaddress].organization[i] */\n      dup2\n      sload\n      dup2\n      lt\n      tag_396\n      jumpi\n      tag_397\n      tag_143\n      jump\t// in\n    tag_397:\n    tag_396:\n      swap1\n      0x00\n      mstore\n      keccak256(0x00, 0x20)\n      add\n      0x00\n      swap1\n      sload\n      swap1\n      0x0100\n      exp\n      swap1\n      div\n      0xffffffffffffffffffffffffffffffffffffffff\n      and\n        /* \"Kyc.sol\":2399:2452  customers[_custaddress].organization[i] == ethAddress */\n      0xffffffffffffffffffffffffffffffffffffffff\n      and\n      sub\n        /* \"Kyc.sol\":2395:2498  if (customers[_custaddress].organization[i] == ethAddress) {... */\n      tag_399\n      jumpi\n        /* \"Kyc.sol\":2479:2483  true */\n      0x01\n        /* \"Kyc.sol\":2472:2483  return true */\n      swap2\n      pop\n      pop\n      jump(tag_392)\n        /* \"Kyc.sol\":2395:2498  if (customers[_custaddress].organization[i] == ethAddress) {... */\n    tag_399:\n        /* \"Kyc.sol\":2376:2379  i++ */\n      dup1\n      dup1\n      tag_400\n      swap1\n      tag_291\n      jump\t// in\n    tag_400:\n      swap2\n      pop\n      pop\n        /* \"Kyc.sol\":2319:2508  for (i; i < customers[_custaddress].organization.length; i++) {... */\n      jump(tag_393)\n    tag_394:\n        /* \"Kyc.sol\":2524:2529  false */\n      0x00\n        /* \"Kyc.sol\":2517:2529  return false */\n      swap2\n      pop\n      pop\n        /* \"Kyc.sol\":2170:2536  function findOrg(address _custaddress, address ethAddress)... */\n    tag_392:\n      swap3\n      swap2\n      pop\n      pop\n      jump\t// out\n        /* \"Kyc.sol\":15981:16319  function remove(address _custaddress, address _ethAddress) internal {... */\n    tag_124:\n        /* \"Kyc.sol\":16059:16068  uint256 i */\n      0x00\n        /* \"Kyc.sol\":16071:16110  findOrgIndex(_custaddress, _ethAddress) */\n      tag_402\n        /* \"Kyc.sol\":16084:16096  _custaddress */\n      dup4\n        /* \"Kyc.sol\":16098:16109  _ethAddress */\n      dup4\n        /* \"Kyc.sol\":16071:16083  findOrgIndex */\n      tag_403\n        /* \"Kyc.sol\":16071:16110  findOrgIndex(_custaddress, _ethAddress) */\n      jump\t// in\n    tag_402:\n        /* \"Kyc.sol\":16059:16110  uint256 i = findOrgIndex(_custaddress, _ethAddress) */\n      swap1\n      pop\n        /* \"Kyc.sol\":16162:16171  customers */\n      0x01\n        /* \"Kyc.sol\":16162:16185  customers[_custaddress] */\n      0x00\n        /* \"Kyc.sol\":16172:16184  _custaddress */\n      dup5\n        /* \"Kyc.sol\":16162:16185  customers[_custaddress] */\n      0xffffffffffffffffffffffffffffffffffffffff\n      and\n      0xffffffffffffffffffffffffffffffffffffffff\n      and\n      dup2\n      mstore\n      0x20\n      add\n      swap1\n      dup2\n      mstore\n      0x20\n      add\n      0x00\n      keccak256\n        /* \"Kyc.sol\":16162:16211  customers[_custaddress]... */\n      0x07\n      add\n        /* \"Kyc.sol\":16258:16259  1 */\n      0x01\n        /* \"Kyc.sol\":16212:16221  customers */\n      dup1\n        /* \"Kyc.sol\":16212:16235  customers[_custaddress] */\n      0x00\n        /* \"Kyc.sol\":16222:16234  _custaddress */\n      dup7\n        /* \"Kyc.sol\":16212:16235  customers[_custaddress] */\n      0xffffffffffffffffffffffffffffffffffffffff\n      and\n      0xffffffffffffffffffffffffffffffffffffffff\n      and\n      dup2\n      mstore\n      0x20\n      add\n      swap1\n      dup2\n      mstore\n      0x20\n      add\n      0x00\n      keccak256\n        /* \"Kyc.sol\":16212:16248  customers[_custaddress].organization */\n      0x07\n      add\n        /* \"Kyc.sol\":16212:16255  customers[_custaddress].organization.length */\n      dup1\n      sload\n      swap1\n      pop\n        /* \"Kyc.sol\":16212:16259  customers[_custaddress].organization.length - 1 */\n      tag_404\n      swap2\n      swap1\n      tag_405\n      jump\t// in\n    tag_404:\n        /* \"Kyc.sol\":16162:16260  customers[_custaddress]... */\n      dup2\n      sload\n      dup2\n      lt\n      tag_406\n      jumpi\n      tag_407\n      tag_143\n      jump\t// in\n    tag_407:\n    tag_406:\n      swap1\n      0x00\n      mstore\n      keccak256(0x00, 0x20)\n      add\n      0x00\n      swap1\n      sload\n      swap1\n      0x0100\n      exp\n      swap1\n      div\n      0xffffffffffffffffffffffffffffffffffffffff\n      and\n        /* \"Kyc.sol\":16120:16129  customers */\n      0x01\n        /* \"Kyc.sol\":16120:16143  customers[_custaddress] */\n      0x00\n        /* \"Kyc.sol\":16130:16142  _custaddress */\n      dup6\n        /* \"Kyc.sol\":16120:16143  customers[_custaddress] */\n      0xffffffffffffffffffffffffffffffffffffffff\n      and\n      0xffffffffffffffffffffffffffffffffffffffff\n      and\n      dup2\n      mstore\n      0x20\n      add\n      swap1\n      dup2\n      mstore\n      0x20\n      add\n      0x00\n      keccak256\n        /* \"Kyc.sol\":16120:16156  customers[_custaddress].organization */\n      0x07\n      add\n        /* \"Kyc.sol\":16157:16158  i */\n      dup3\n        /* \"Kyc.sol\":16120:16159  customers[_custaddress].organization[i] */\n      dup2\n      sload\n      dup2\n      lt\n      tag_409\n      jumpi\n      tag_410\n      tag_143\n      jump\t// in\n    tag_410:\n    tag_409:\n      swap1\n      0x00\n      mstore\n      keccak256(0x00, 0x20)\n      add\n      0x00\n        /* \"Kyc.sol\":16120:16260  customers[_custaddress].organization[i] = customers[_custaddress]... */\n      0x0100\n      exp\n      dup2\n      sload\n      dup2\n      0xffffffffffffffffffffffffffffffffffffffff\n      mul\n      not\n      and\n      swap1\n      dup4\n      0xffffffffffffffffffffffffffffffffffffffff\n      and\n      mul\n      or\n      swap1\n      sstore\n      pop\n        /* \"Kyc.sol\":16270:16279  customers */\n      0x01\n        /* \"Kyc.sol\":16270:16293  customers[_custaddress] */\n      0x00\n        /* \"Kyc.sol\":16280:16292  _custaddress */\n      dup5\n        /* \"Kyc.sol\":16270:16293  customers[_custaddress] */\n      0xffffffffffffffffffffffffffffffffffffffff\n      and\n      0xffffffffffffffffffffffffffffffffffffffff\n      and\n      dup2\n      mstore\n      0x20\n      add\n      swap1\n      dup2\n      mstore\n      0x20\n      add\n      0x00\n      keccak256\n        /* \"Kyc.sol\":16270:16306  customers[_custaddress].organization */\n      0x07\n      add\n        /* \"Kyc.sol\":16270:16312  customers[_custaddress].organization.pop() */\n      dup1\n      sload\n      dup1\n      tag_412\n      jumpi\n      tag_413\n      tag_414\n      jump\t// in\n    tag_413:\n    tag_412:\n      0x01\n      swap1\n      sub\n      dup2\n      dup2\n      swap1\n      0x00\n      mstore\n      keccak256(0x00, 0x20)\n      add\n      exp(0x0100, 0x00)\n      dup2\n      sload\n      swap1\n      0xffffffffffffffffffffffffffffffffffffffff\n      mul\n      not\n      and\n      swap1\n      sstore\n      swap1\n      sstore\n        /* \"Kyc.sol\":16049:16319  {... */\n      pop\n        /* \"Kyc.sol\":15981:16319  function remove(address _custaddress, address _ethAddress) internal {... */\n      pop\n      pop\n      jump\t// out\n        /* \"Kyc.sol\":11468:13010  function deleteRequest(... */\n    tag_199:\n        /* \"Kyc.sol\":11602:11615  uint256 index */\n      0x00\n        /* \"Kyc.sol\":11618:11661  findRequestIndex(_custaddress, _ethAddress) */\n      tag_417\n        /* \"Kyc.sol\":11635:11647  _custaddress */\n      dup4\n        /* \"Kyc.sol\":11649:11660  _ethAddress */\n      dup4\n        /* \"Kyc.sol\":11618:11634  findRequestIndex */\n      tag_418\n        /* \"Kyc.sol\":11618:11661  findRequestIndex(_custaddress, _ethAddress) */\n      jump\t// in\n    tag_417:\n        /* \"Kyc.sol\":11602:11661  uint256 index = findRequestIndex(_custaddress, _ethAddress) */\n      swap1\n      pop\n        /* \"Kyc.sol\":11751:11767  kycrequestsbyorg */\n      0x03\n        /* \"Kyc.sol\":11751:11780  kycrequestsbyorg[_ethAddress] */\n      0x00\n        /* \"Kyc.sol\":11768:11779  _ethAddress */\n      dup4\n        /* \"Kyc.sol\":11751:11780  kycrequestsbyorg[_ethAddress] */\n      0xffffffffffffffffffffffffffffffffffffffff\n      and\n      0xffffffffffffffffffffffffffffffffffffffff\n      and\n      dup2\n      mstore\n      0x20\n      add\n      swap1\n      dup2\n      mstore\n      0x20\n      add\n      0x00\n      keccak256\n        /* \"Kyc.sol\":11751:11795  kycrequestsbyorg[_ethAddress].kycrequestlist */\n      0x02\n      add\n        /* \"Kyc.sol\":11863:11864  1 */\n      0x01\n        /* \"Kyc.sol\":11809:11825  kycrequestsbyorg */\n      0x03\n        /* \"Kyc.sol\":11809:11838  kycrequestsbyorg[_ethAddress] */\n      0x00\n        /* \"Kyc.sol\":11826:11837  _ethAddress */\n      dup6\n        /* \"Kyc.sol\":11809:11838  kycrequestsbyorg[_ethAddress] */\n      0xffffffffffffffffffffffffffffffffffffffff\n      and\n      0xffffffffffffffffffffffffffffffffffffffff\n      and\n      dup2\n      mstore\n      0x20\n      add\n      swap1\n      dup2\n      mstore\n      0x20\n      add\n      0x00\n      keccak256\n        /* \"Kyc.sol\":11809:11853  kycrequestsbyorg[_ethAddress].kycrequestlist */\n      0x02\n      add\n        /* \"Kyc.sol\":11809:11860  kycrequestsbyorg[_ethAddress].kycrequestlist.length */\n      dup1\n      sload\n      swap1\n      pop\n        /* \"Kyc.sol\":11809:11864  kycrequestsbyorg[_ethAddress].kycrequestlist.length - 1 */\n      tag_419\n      swap2\n      swap1\n      tag_405\n      jump\t// in\n    tag_419:\n        /* \"Kyc.sol\":11751:11874  kycrequestsbyorg[_ethAddress].kycrequestlist[... */\n      dup2\n      sload\n      dup2\n      lt\n      tag_420\n      jumpi\n      tag_421\n      tag_143\n      jump\t// in\n    tag_421:\n    tag_420:\n      swap1\n      0x00\n      mstore\n      keccak256(0x00, 0x20)\n      swap1\n      0x02\n      mul\n      add\n        /* \"Kyc.sol\":11671:11687  kycrequestsbyorg */\n      0x03\n        /* \"Kyc.sol\":11671:11700  kycrequestsbyorg[_ethAddress] */\n      0x00\n        /* \"Kyc.sol\":11688:11699  _ethAddress */\n      dup5\n        /* \"Kyc.sol\":11671:11700  kycrequestsbyorg[_ethAddress] */\n      0xffffffffffffffffffffffffffffffffffffffff\n      and\n      0xffffffffffffffffffffffffffffffffffffffff\n      and\n      dup2\n      mstore\n      0x20\n      add\n      swap1\n      dup2\n      mstore\n      0x20\n      add\n      0x00\n      keccak256\n        /* \"Kyc.sol\":11671:11715  kycrequestsbyorg[_ethAddress].kycrequestlist */\n      0x02\n      add\n        /* \"Kyc.sol\":11729:11738  _reqcount */\n      dup6\n        /* \"Kyc.sol\":11671:11748  kycrequestsbyorg[_ethAddress].kycrequestlist[... */\n      dup2\n      sload\n      dup2\n      lt\n      tag_423\n      jumpi\n      tag_424\n      tag_143\n      jump\t// in\n    tag_424:\n    tag_423:\n      swap1\n      0x00\n      mstore\n      keccak256(0x00, 0x20)\n      swap1\n      0x02\n      mul\n      add\n        /* \"Kyc.sol\":11671:11874  kycrequestsbyorg[_ethAddress].kycrequestlist[... */\n      0x00\n      dup3\n      add\n      sload\n      dup2\n      0x00\n      add\n      sstore\n      0x01\n      dup3\n      add\n      0x00\n      swap1\n      sload\n      swap1\n      0x0100\n      exp\n      swap1\n      div\n      0xffffffffffffffffffffffffffffffffffffffff\n      and\n      dup2\n      0x01\n      add\n      exp(0x0100, 0x00)\n      dup2\n      sload\n      dup2\n      0xffffffffffffffffffffffffffffffffffffffff\n      mul\n      not\n      and\n      swap1\n      dup4\n      0xffffffffffffffffffffffffffffffffffffffff\n      and\n      mul\n      or\n      swap1\n      sstore\n      pop\n      swap1\n      pop\n      pop\n        /* \"Kyc.sol\":11884:11900  kycrequestsbyorg */\n      0x03\n        /* \"Kyc.sol\":11884:11913  kycrequestsbyorg[_ethAddress] */\n      0x00\n        /* \"Kyc.sol\":11901:11912  _ethAddress */\n      dup4\n        /* \"Kyc.sol\":11884:11913  kycrequestsbyorg[_ethAddress] */\n      0xffffffffffffffffffffffffffffffffffffffff\n      and\n      0xffffffffffffffffffffffffffffffffffffffff\n      and\n      dup2\n      mstore\n      0x20\n      add\n      swap1\n      dup2\n      mstore\n      0x20\n      add\n      0x00\n      keccak256\n        /* \"Kyc.sol\":11884:11928  kycrequestsbyorg[_ethAddress].kycrequestlist */\n      0x02\n      add\n        /* \"Kyc.sol\":11884:11934  kycrequestsbyorg[_ethAddress].kycrequestlist.pop() */\n      dup1\n      sload\n      dup1\n      tag_426\n      jumpi\n      tag_427\n      tag_414\n      jump\t// in\n    tag_427:\n    tag_426:\n      0x01\n      swap1\n      sub\n      dup2\n      dup2\n      swap1\n      0x00\n      mstore\n      keccak256(0x00, 0x20)\n      swap1\n      0x02\n      mul\n      add\n      0x00\n      dup1\n      dup3\n      add\n      0x00\n      swap1\n      sstore\n      0x01\n      dup3\n      add\n      exp(0x0100, 0x00)\n      dup2\n      sload\n      swap1\n      0xffffffffffffffffffffffffffffffffffffffff\n      mul\n      not\n      and\n      swap1\n      sstore\n      pop\n      pop\n      swap1\n      sstore\n        /* \"Kyc.sol\":12022:12039  kycrequestsbycust */\n      0x04\n        /* \"Kyc.sol\":12022:12053  kycrequestsbycust[_custaddress] */\n      0x00\n        /* \"Kyc.sol\":12040:12052  _custaddress */\n      dup5\n        /* \"Kyc.sol\":12022:12053  kycrequestsbycust[_custaddress] */\n      0xffffffffffffffffffffffffffffffffffffffff\n      and\n      0xffffffffffffffffffffffffffffffffffffffff\n      and\n      dup2\n      mstore\n      0x20\n      add\n      swap1\n      dup2\n      mstore\n      0x20\n      add\n      0x00\n      keccak256\n        /* \"Kyc.sol\":12022:12068  kycrequestsbycust[_custaddress].kycrequestlist */\n      0x00\n      add\n        /* \"Kyc.sol\":12138:12139  1 */\n      0x01\n        /* \"Kyc.sol\":12082:12099  kycrequestsbycust */\n      0x04\n        /* \"Kyc.sol\":12082:12113  kycrequestsbycust[_custaddress] */\n      0x00\n        /* \"Kyc.sol\":12100:12112  _custaddress */\n      dup7\n        /* \"Kyc.sol\":12082:12113  kycrequestsbycust[_custaddress] */\n      0xffffffffffffffffffffffffffffffffffffffff\n      and\n      0xffffffffffffffffffffffffffffffffffffffff\n      and\n      dup2\n      mstore\n      0x20\n      add\n      swap1\n      dup2\n      mstore\n      0x20\n      add\n      0x00\n      keccak256\n        /* \"Kyc.sol\":12082:12128  kycrequestsbycust[_custaddress].kycrequestlist */\n      0x00\n      add\n        /* \"Kyc.sol\":12082:12135  kycrequestsbycust[_custaddress].kycrequestlist.length */\n      dup1\n      sload\n      swap1\n      pop\n        /* \"Kyc.sol\":12082:12139  kycrequestsbycust[_custaddress].kycrequestlist.length - 1 */\n      tag_429\n      swap2\n      swap1\n      tag_405\n      jump\t// in\n    tag_429:\n        /* \"Kyc.sol\":12022:12149  kycrequestsbycust[_custaddress].kycrequestlist[... */\n      dup2\n      sload\n      dup2\n      lt\n      tag_430\n      jumpi\n      tag_431\n      tag_143\n      jump\t// in\n    tag_431:\n    tag_430:\n      swap1\n      0x00\n      mstore\n      keccak256(0x00, 0x20)\n      swap1\n      0x02\n      mul\n      add\n        /* \"Kyc.sol\":11944:11961  kycrequestsbycust */\n      0x04\n        /* \"Kyc.sol\":11944:11975  kycrequestsbycust[_custaddress] */\n      0x00\n        /* \"Kyc.sol\":11962:11974  _custaddress */\n      dup6\n        /* \"Kyc.sol\":11944:11975  kycrequestsbycust[_custaddress] */\n      0xffffffffffffffffffffffffffffffffffffffff\n      and\n      0xffffffffffffffffffffffffffffffffffffffff\n      and\n      dup2\n      mstore\n      0x20\n      add\n      swap1\n      dup2\n      mstore\n      0x20\n      add\n      0x00\n      keccak256\n        /* \"Kyc.sol\":11944:11990  kycrequestsbycust[_custaddress].kycrequestlist */\n      0x00\n      add\n        /* \"Kyc.sol\":12004:12009  index */\n      dup3\n        /* \"Kyc.sol\":11944:12019  kycrequestsbycust[_custaddress].kycrequestlist[... */\n      dup2\n      sload\n      dup2\n      lt\n      tag_433\n      jumpi\n      tag_434\n      tag_143\n      jump\t// in\n    tag_434:\n    tag_433:\n      swap1\n      0x00\n      mstore\n      keccak256(0x00, 0x20)\n      swap1\n      0x02\n      mul\n      add\n        /* \"Kyc.sol\":11944:12149  kycrequestsbycust[_custaddress].kycrequestlist[... */\n      0x00\n      dup3\n      add\n      sload\n      dup2\n      0x00\n      add\n      sstore\n      0x01\n      dup3\n      add\n      0x00\n      swap1\n      sload\n      swap1\n      0x0100\n      exp\n      swap1\n      div\n      0xffffffffffffffffffffffffffffffffffffffff\n      and\n      dup2\n      0x01\n      add\n      exp(0x0100, 0x00)\n      dup2\n      sload\n      dup2\n      0xffffffffffffffffffffffffffffffffffffffff\n      mul\n      not\n      and\n      swap1\n      dup4\n      0xffffffffffffffffffffffffffffffffffffffff\n      and\n      mul\n      or\n      swap1\n      sstore\n      pop\n      swap1\n      pop\n      pop\n        /* \"Kyc.sol\":12159:12176  kycrequestsbycust */\n      0x04\n        /* \"Kyc.sol\":12159:12190  kycrequestsbycust[_custaddress] */\n      0x00\n        /* \"Kyc.sol\":12177:12189  _custaddress */\n      dup5\n        /* \"Kyc.sol\":12159:12190  kycrequestsbycust[_custaddress] */\n      0xffffffffffffffffffffffffffffffffffffffff\n      and\n      0xffffffffffffffffffffffffffffffffffffffff\n      and\n      dup2\n      mstore\n      0x20\n      add\n      swap1\n      dup2\n      mstore\n      0x20\n      add\n      0x00\n      keccak256\n        /* \"Kyc.sol\":12159:12205  kycrequestsbycust[_custaddress].kycrequestlist */\n      0x00\n      add\n        /* \"Kyc.sol\":12159:12211  kycrequestsbycust[_custaddress].kycrequestlist.pop() */\n      dup1\n      sload\n      dup1\n      tag_436\n      jumpi\n      tag_437\n      tag_414\n      jump\t// in\n    tag_437:\n    tag_436:\n      0x01\n      swap1\n      sub\n      dup2\n      dup2\n      swap1\n      0x00\n      mstore\n      keccak256(0x00, 0x20)\n      swap1\n      0x02\n      mul\n      add\n      0x00\n      dup1\n      dup3\n      add\n      0x00\n      swap1\n      sstore\n      0x01\n      dup3\n      add\n      exp(0x0100, 0x00)\n      dup2\n      sload\n      swap1\n      0xffffffffffffffffffffffffffffffffffffffff\n      mul\n      not\n      and\n      swap1\n      sstore\n      pop\n      pop\n      swap1\n      sstore\n        /* \"Kyc.sol\":12292:12301  _reqcount */\n      dup4\n        /* \"Kyc.sol\":12238:12254  kycrequestsbyorg */\n      0x03\n        /* \"Kyc.sol\":12238:12266  kycrequestsbyorg[msg.sender] */\n      0x00\n        /* \"Kyc.sol\":12255:12265  msg.sender */\n      caller\n        /* \"Kyc.sol\":12238:12266  kycrequestsbyorg[msg.sender] */\n      0xffffffffffffffffffffffffffffffffffffffff\n      and\n      0xffffffffffffffffffffffffffffffffffffffff\n      and\n      dup2\n      mstore\n      0x20\n      add\n      swap1\n      dup2\n      mstore\n      0x20\n      add\n      0x00\n      keccak256\n        /* \"Kyc.sol\":12238:12281  kycrequestsbyorg[msg.sender].kycrequestlist */\n      0x02\n      add\n        /* \"Kyc.sol\":12238:12288  kycrequestsbyorg[msg.sender].kycrequestlist.length */\n      dup1\n      sload\n      swap1\n      pop\n        /* \"Kyc.sol\":12238:12301  kycrequestsbyorg[msg.sender].kycrequestlist.length != _reqcount */\n      eq\n      iszero\n        /* \"Kyc.sol\":12238:12360  kycrequestsbyorg[msg.sender].kycrequestlist.length != _reqcount &&... */\n      dup1\n      iszero\n      tag_439\n      jumpi\n      pop\n        /* \"Kyc.sol\":12359:12360  1 */\n      0x01\n        /* \"Kyc.sol\":12317:12333  kycrequestsbyorg */\n      0x03\n        /* \"Kyc.sol\":12317:12346  kycrequestsbyorg[_ethAddress] */\n      0x00\n        /* \"Kyc.sol\":12334:12345  _ethAddress */\n      dup5\n        /* \"Kyc.sol\":12317:12346  kycrequestsbyorg[_ethAddress] */\n      0xffffffffffffffffffffffffffffffffffffffff\n      and\n      0xffffffffffffffffffffffffffffffffffffffff\n      and\n      dup2\n      mstore\n      0x20\n      add\n      swap1\n      dup2\n      mstore\n      0x20\n      add\n      0x00\n      keccak256\n        /* \"Kyc.sol\":12317:12356  kycrequestsbyorg[_ethAddress].req_count */\n      0x01\n      add\n      sload\n        /* \"Kyc.sol\":12317:12360  kycrequestsbyorg[_ethAddress].req_count > 1 */\n      gt\n        /* \"Kyc.sol\":12238:12360  kycrequestsbyorg[msg.sender].kycrequestlist.length != _reqcount &&... */\n    tag_439:\n        /* \"Kyc.sol\":12221:12900  if (... */\n      iszero\n      tag_440\n      jumpi\n        /* \"Kyc.sol\":12487:12496  _reqcount */\n      dup4\n        /* \"Kyc.sol\":12385:12401  kycrequestsbyorg */\n      0x03\n        /* \"Kyc.sol\":12385:12414  kycrequestsbyorg[_ethAddress] */\n      0x00\n        /* \"Kyc.sol\":12402:12413  _ethAddress */\n      dup5\n        /* \"Kyc.sol\":12385:12414  kycrequestsbyorg[_ethAddress] */\n      0xffffffffffffffffffffffffffffffffffffffff\n      and\n      0xffffffffffffffffffffffffffffffffffffffff\n      and\n      dup2\n      mstore\n      0x20\n      add\n      swap1\n      dup2\n      mstore\n      0x20\n      add\n      0x00\n      keccak256\n        /* \"Kyc.sol\":12385:12446  kycrequestsbyorg[_ethAddress]... */\n      0x02\n      add\n        /* \"Kyc.sol\":12447:12456  _reqcount */\n      dup6\n        /* \"Kyc.sol\":12385:12457  kycrequestsbyorg[_ethAddress]... */\n      dup2\n      sload\n      dup2\n      lt\n      tag_441\n      jumpi\n      tag_442\n      tag_143\n      jump\t// in\n    tag_442:\n    tag_441:\n      swap1\n      0x00\n      mstore\n      keccak256(0x00, 0x20)\n      swap1\n      0x02\n      mul\n      add\n        /* \"Kyc.sol\":12385:12484  kycrequestsbyorg[_ethAddress]... */\n      0x00\n      add\n        /* \"Kyc.sol\":12385:12496  kycrequestsbyorg[_ethAddress]... */\n      dup2\n      swap1\n      sstore\n      pop\n        /* \"Kyc.sol\":12510:12521  address add */\n      0x00\n        /* \"Kyc.sol\":12524:12540  kycrequestsbyorg */\n      0x03\n        /* \"Kyc.sol\":12524:12553  kycrequestsbyorg[_ethAddress] */\n      0x00\n        /* \"Kyc.sol\":12541:12552  _ethAddress */\n      dup5\n        /* \"Kyc.sol\":12524:12553  kycrequestsbyorg[_ethAddress] */\n      0xffffffffffffffffffffffffffffffffffffffff\n      and\n      0xffffffffffffffffffffffffffffffffffffffff\n      and\n      dup2\n      mstore\n      0x20\n      add\n      swap1\n      dup2\n      mstore\n      0x20\n      add\n      0x00\n      keccak256\n        /* \"Kyc.sol\":12524:12585  kycrequestsbyorg[_ethAddress]... */\n      0x02\n      add\n        /* \"Kyc.sol\":12586:12595  _reqcount */\n      dup6\n        /* \"Kyc.sol\":12524:12596  kycrequestsbyorg[_ethAddress]... */\n      dup2\n      sload\n      dup2\n      lt\n      tag_444\n      jumpi\n      tag_445\n      tag_143\n      jump\t// in\n    tag_445:\n    tag_444:\n      swap1\n      0x00\n      mstore\n      keccak256(0x00, 0x20)\n      swap1\n      0x02\n      mul\n      add\n        /* \"Kyc.sol\":12524:12621  kycrequestsbyorg[_ethAddress]... */\n      0x01\n      add\n      0x00\n      swap1\n      sload\n      swap1\n      0x0100\n      exp\n      swap1\n      div\n      0xffffffffffffffffffffffffffffffffffffffff\n      and\n        /* \"Kyc.sol\":12510:12621  address add = kycrequestsbyorg[_ethAddress]... */\n      swap1\n      pop\n        /* \"Kyc.sol\":12686:12687  0 */\n      0x00\n        /* \"Kyc.sol\":12639:12656  kycrequestsbycust */\n      0x04\n        /* \"Kyc.sol\":12639:12661  kycrequestsbycust[add] */\n      0x00\n        /* \"Kyc.sol\":12657:12660  add */\n      dup4\n        /* \"Kyc.sol\":12639:12661  kycrequestsbycust[add] */\n      0xffffffffffffffffffffffffffffffffffffffff\n      and\n      0xffffffffffffffffffffffffffffffffffffffff\n      and\n      dup2\n      mstore\n      0x20\n      add\n      swap1\n      dup2\n      mstore\n      0x20\n      add\n      0x00\n      keccak256\n        /* \"Kyc.sol\":12639:12676  kycrequestsbycust[add].kycrequestlist */\n      0x00\n      add\n        /* \"Kyc.sol\":12639:12683  kycrequestsbycust[add].kycrequestlist.length */\n      dup1\n      sload\n      swap1\n      pop\n        /* \"Kyc.sol\":12639:12687  kycrequestsbycust[add].kycrequestlist.length > 0 */\n      gt\n        /* \"Kyc.sol\":12635:12890  if (kycrequestsbycust[add].kycrequestlist.length > 0) {... */\n      iszero\n      tag_447\n      jumpi\n        /* \"Kyc.sol\":12715:12749  findRequestIndex(add, _ethAddress) */\n      tag_448\n        /* \"Kyc.sol\":12732:12735  add */\n      dup2\n        /* \"Kyc.sol\":12737:12748  _ethAddress */\n      dup5\n        /* \"Kyc.sol\":12715:12731  findRequestIndex */\n      tag_418\n        /* \"Kyc.sol\":12715:12749  findRequestIndex(add, _ethAddress) */\n      jump\t// in\n    tag_448:\n        /* \"Kyc.sol\":12707:12749  index = findRequestIndex(add, _ethAddress) */\n      swap2\n      pop\n        /* \"Kyc.sol\":12866:12875  _reqcount */\n      dup5\n        /* \"Kyc.sol\":12767:12784  kycrequestsbycust */\n      0x04\n        /* \"Kyc.sol\":12767:12789  kycrequestsbycust[add] */\n      0x00\n        /* \"Kyc.sol\":12785:12788  add */\n      dup4\n        /* \"Kyc.sol\":12767:12789  kycrequestsbycust[add] */\n      0xffffffffffffffffffffffffffffffffffffffff\n      and\n      0xffffffffffffffffffffffffffffffffffffffff\n      and\n      dup2\n      mstore\n      0x20\n      add\n      swap1\n      dup2\n      mstore\n      0x20\n      add\n      0x00\n      keccak256\n        /* \"Kyc.sol\":12767:12825  kycrequestsbycust[add]... */\n      0x00\n      add\n        /* \"Kyc.sol\":12826:12831  index */\n      dup4\n        /* \"Kyc.sol\":12767:12832  kycrequestsbycust[add]... */\n      dup2\n      sload\n      dup2\n      lt\n      tag_449\n      jumpi\n      tag_450\n      tag_143\n      jump\t// in\n    tag_450:\n    tag_449:\n      swap1\n      0x00\n      mstore\n      keccak256(0x00, 0x20)\n      swap1\n      0x02\n      mul\n      add\n        /* \"Kyc.sol\":12767:12863  kycrequestsbycust[add]... */\n      0x00\n      add\n        /* \"Kyc.sol\":12767:12875  kycrequestsbycust[add]... */\n      dup2\n      swap1\n      sstore\n      pop\n        /* \"Kyc.sol\":12635:12890  if (kycrequestsbycust[add].kycrequestlist.length > 0) {... */\n    tag_447:\n        /* \"Kyc.sol\":12371:12900  {... */\n      pop\n        /* \"Kyc.sol\":12221:12900  if (... */\n    tag_440:\n        /* \"Kyc.sol\":12909:12925  kycrequestsbyorg */\n      0x03\n        /* \"Kyc.sol\":12909:12938  kycrequestsbyorg[_ethAddress] */\n      0x00\n        /* \"Kyc.sol\":12926:12937  _ethAddress */\n      dup4\n        /* \"Kyc.sol\":12909:12938  kycrequestsbyorg[_ethAddress] */\n      0xffffffffffffffffffffffffffffffffffffffff\n      and\n      0xffffffffffffffffffffffffffffffffffffffff\n      and\n      dup2\n      mstore\n      0x20\n      add\n      swap1\n      dup2\n      mstore\n      0x20\n      add\n      0x00\n      keccak256\n        /* \"Kyc.sol\":12909:12948  kycrequestsbyorg[_ethAddress].req_count */\n      0x01\n      add\n      0x00\n        /* \"Kyc.sol\":12909:12950  kycrequestsbyorg[_ethAddress].req_count-- */\n      dup2\n      sload\n      dup1\n      swap3\n      swap2\n      swap1\n      tag_452\n      swap1\n      tag_453\n      jump\t// in\n    tag_452:\n      swap2\n      swap1\n      pop\n      sstore\n      pop\n        /* \"Kyc.sol\":12965:13003  requestRemoved(_reqcount, _ethAddress) */\n      0x5bc31e521401c7e4fbe27cc8e953ddcd66ce6cc84d810d1850450e7964029d95\n        /* \"Kyc.sol\":12980:12989  _reqcount */\n      dup5\n        /* \"Kyc.sol\":12991:13002  _ethAddress */\n      dup4\n        /* \"Kyc.sol\":12965:13003  requestRemoved(_reqcount, _ethAddress) */\n      mload(0x40)\n      tag_454\n      swap3\n      swap2\n      swap1\n      tag_455\n      jump\t// in\n    tag_454:\n      mload(0x40)\n      dup1\n      swap2\n      sub\n      swap1\n      log1\n        /* \"Kyc.sol\":11592:13010  {... */\n      pop\n        /* \"Kyc.sol\":11468:13010  function deleteRequest(... */\n      pop\n      pop\n      pop\n      jump\t// out\n        /* \"Kyc.sol\":5855:6911  function writeKYC(... */\n    tag_225:\n        /* \"Kyc.sol\":6187:6188  0 */\n      0x00\n        /* \"Kyc.sol\":6167:6176  _jsonHash */\n      dup8\n        /* \"Kyc.sol\":6161:6184  bytes(_jsonHash).length */\n      mload\n        /* \"Kyc.sol\":6161:6188  bytes(_jsonHash).length > 0 */\n      gt\n        /* \"Kyc.sol\":6153:6189  require(bytes(_jsonHash).length > 0) */\n      tag_457\n      jumpi\n      0x00\n      dup1\n      revert\n    tag_457:\n        /* \"Kyc.sol\":6234:6235  0 */\n      0x00\n        /* \"Kyc.sol\":6213:6223  _photohash */\n      dup7\n        /* \"Kyc.sol\":6207:6231  bytes(_photohash).length */\n      mload\n        /* \"Kyc.sol\":6207:6235  bytes(_photohash).length > 0 */\n      gt\n        /* \"Kyc.sol\":6199:6236  require(bytes(_photohash).length > 0) */\n      tag_458\n      jumpi\n      0x00\n      dup1\n      revert\n    tag_458:\n        /* \"Kyc.sol\":6293:6294  0 */\n      0x00\n        /* \"Kyc.sol\":6260:6282  _citizenship_back_hash */\n      dup5\n        /* \"Kyc.sol\":6254:6290  bytes(_citizenship_back_hash).length */\n      mload\n        /* \"Kyc.sol\":6254:6294  bytes(_citizenship_back_hash).length > 0 */\n      gt\n        /* \"Kyc.sol\":6246:6295  require(bytes(_citizenship_back_hash).length > 0) */\n      tag_459\n      jumpi\n      0x00\n      dup1\n      revert\n    tag_459:\n        /* \"Kyc.sol\":6353:6354  0 */\n      0x00\n        /* \"Kyc.sol\":6319:6342  _citizenship_front_hash */\n      dup6\n        /* \"Kyc.sol\":6313:6350  bytes(_citizenship_front_hash).length */\n      mload\n        /* \"Kyc.sol\":6313:6354  bytes(_citizenship_front_hash).length > 0 */\n      gt\n        /* \"Kyc.sol\":6305:6355  require(bytes(_citizenship_front_hash).length > 0) */\n      tag_460\n      jumpi\n      0x00\n      dup1\n      revert\n    tag_460:\n        /* \"Kyc.sol\":6403:6415  _custaddress */\n      dup8\n        /* \"Kyc.sol\":6365:6374  customers */\n      0x01\n        /* \"Kyc.sol\":6365:6388  customers[_custaddress] */\n      0x00\n        /* \"Kyc.sol\":6375:6387  _custaddress */\n      dup11\n        /* \"Kyc.sol\":6365:6388  customers[_custaddress] */\n      0xffffffffffffffffffffffffffffffffffffffff\n      and\n      0xffffffffffffffffffffffffffffffffffffffff\n      and\n      dup2\n      mstore\n      0x20\n      add\n      swap1\n      dup2\n      mstore\n      0x20\n      add\n      0x00\n      keccak256\n        /* \"Kyc.sol\":6365:6400  customers[_custaddress].custAddress */\n      0x00\n      add\n      0x00\n        /* \"Kyc.sol\":6365:6415  customers[_custaddress].custAddress = _custaddress */\n      0x0100\n      exp\n      dup2\n      sload\n      dup2\n      0xffffffffffffffffffffffffffffffffffffffff\n      mul\n      not\n      and\n      swap1\n      dup4\n      0xffffffffffffffffffffffffffffffffffffffff\n      and\n      mul\n      or\n      swap1\n      sstore\n      pop\n        /* \"Kyc.sol\":6460:6469  _jsonHash */\n      dup7\n        /* \"Kyc.sol\":6425:6434  customers */\n      0x01\n        /* \"Kyc.sol\":6425:6448  customers[_custaddress] */\n      0x00\n        /* \"Kyc.sol\":6435:6447  _custaddress */\n      dup11\n        /* \"Kyc.sol\":6425:6448  customers[_custaddress] */\n      0xffffffffffffffffffffffffffffffffffffffff\n      and\n      0xffffffffffffffffffffffffffffffffffffffff\n      and\n      dup2\n      mstore\n      0x20\n      add\n      swap1\n      dup2\n      mstore\n      0x20\n      add\n      0x00\n      keccak256\n        /* \"Kyc.sol\":6425:6457  customers[_custaddress].jsonHash */\n      0x01\n      add\n        /* \"Kyc.sol\":6425:6469  customers[_custaddress].jsonHash = _jsonHash */\n      swap1\n      dup2\n      tag_461\n      swap2\n      swap1\n      tag_250\n      jump\t// in\n    tag_461:\n      pop\n        /* \"Kyc.sol\":6515:6525  _photohash */\n      dup6\n        /* \"Kyc.sol\":6479:6488  customers */\n      0x01\n        /* \"Kyc.sol\":6479:6502  customers[_custaddress] */\n      0x00\n        /* \"Kyc.sol\":6489:6501  _custaddress */\n      dup11\n        /* \"Kyc.sol\":6479:6502  customers[_custaddress] */\n      0xffffffffffffffffffffffffffffffffffffffff\n      and\n      0xffffffffffffffffffffffffffffffffffffffff\n      and\n      dup2\n      mstore\n      0x20\n      add\n      swap1\n      dup2\n      mstore\n      0x20\n      add\n      0x00\n      keccak256\n        /* \"Kyc.sol\":6479:6512  customers[_custaddress].photoHash */\n      0x02\n      add\n        /* \"Kyc.sol\":6479:6525  customers[_custaddress].photoHash = _photohash */\n      swap1\n      dup2\n      tag_462\n      swap2\n      swap1\n      tag_250\n      jump\t// in\n    tag_462:\n      pop\n        /* \"Kyc.sol\":6597:6620  _citizenship_front_hash */\n      dup5\n        /* \"Kyc.sol\":6535:6544  customers */\n      0x01\n        /* \"Kyc.sol\":6535:6558  customers[_custaddress] */\n      0x00\n        /* \"Kyc.sol\":6545:6557  _custaddress */\n      dup11\n        /* \"Kyc.sol\":6535:6558  customers[_custaddress] */\n      0xffffffffffffffffffffffffffffffffffffffff\n      and\n      0xffffffffffffffffffffffffffffffffffffffff\n      and\n      dup2\n      mstore\n      0x20\n      add\n      swap1\n      dup2\n      mstore\n      0x20\n      add\n      0x00\n      keccak256\n        /* \"Kyc.sol\":6535:6594  customers[_custaddress]... */\n      0x03\n      add\n        /* \"Kyc.sol\":6535:6620  customers[_custaddress]... */\n      swap1\n      dup2\n      tag_463\n      swap2\n      swap1\n      tag_250\n      jump\t// in\n    tag_463:\n      pop\n        /* \"Kyc.sol\":6678:6700  _citizenship_back_hash */\n      dup4\n        /* \"Kyc.sol\":6630:6639  customers */\n      0x01\n        /* \"Kyc.sol\":6630:6653  customers[_custaddress] */\n      0x00\n        /* \"Kyc.sol\":6640:6652  _custaddress */\n      dup11\n        /* \"Kyc.sol\":6630:6653  customers[_custaddress] */\n      0xffffffffffffffffffffffffffffffffffffffff\n      and\n      0xffffffffffffffffffffffffffffffffffffffff\n      and\n      dup2\n      mstore\n      0x20\n      add\n      swap1\n      dup2\n      mstore\n      0x20\n      add\n      0x00\n      keccak256\n        /* \"Kyc.sol\":6630:6675  customers[_custaddress].citizenship_back_hash */\n      0x04\n      add\n        /* \"Kyc.sol\":6630:6700  customers[_custaddress].citizenship_back_hash = _citizenship_back_hash */\n      swap1\n      dup2\n      tag_464\n      swap2\n      swap1\n      tag_250\n      jump\t// in\n    tag_464:\n      pop\n        /* \"Kyc.sol\":6746:6756  _kycStatus */\n      dup3\n        /* \"Kyc.sol\":6710:6719  customers */\n      0x01\n        /* \"Kyc.sol\":6710:6733  customers[_custaddress] */\n      0x00\n        /* \"Kyc.sol\":6720:6732  _custaddress */\n      dup11\n        /* \"Kyc.sol\":6710:6733  customers[_custaddress] */\n      0xffffffffffffffffffffffffffffffffffffffff\n      and\n      0xffffffffffffffffffffffffffffffffffffffff\n      and\n      dup2\n      mstore\n      0x20\n      add\n      swap1\n      dup2\n      mstore\n      0x20\n      add\n      0x00\n      keccak256\n        /* \"Kyc.sol\":6710:6743  customers[_custaddress].kycStatus */\n      0x08\n      add\n      0x00\n        /* \"Kyc.sol\":6710:6756  customers[_custaddress].kycStatus = _kycStatus */\n      0x0100\n      exp\n      dup2\n      sload\n      dup2\n      0xff\n      mul\n      not\n      and\n      swap1\n      dup4\n      iszero\n      iszero\n      mul\n      or\n      swap1\n      sstore\n      pop\n        /* \"Kyc.sol\":6794:6796  _d */\n      dup2\n        /* \"Kyc.sol\":6766:6775  customers */\n      0x01\n        /* \"Kyc.sol\":6766:6789  customers[_custaddress] */\n      0x00\n        /* \"Kyc.sol\":6776:6788  _custaddress */\n      dup11\n        /* \"Kyc.sol\":6766:6789  customers[_custaddress] */\n      0xffffffffffffffffffffffffffffffffffffffff\n      and\n      0xffffffffffffffffffffffffffffffffffffffff\n      and\n      dup2\n      mstore\n      0x20\n      add\n      swap1\n      dup2\n      mstore\n      0x20\n      add\n      0x00\n      keccak256\n        /* \"Kyc.sol\":6766:6791  customers[_custaddress].d */\n      0x05\n      add\n        /* \"Kyc.sol\":6766:6796  customers[_custaddress].d = _d */\n      dup2\n      swap1\n      sstore\n      pop\n        /* \"Kyc.sol\":6834:6836  _n */\n      dup1\n        /* \"Kyc.sol\":6806:6815  customers */\n      0x01\n        /* \"Kyc.sol\":6806:6829  customers[_custaddress] */\n      0x00\n        /* \"Kyc.sol\":6816:6828  _custaddress */\n      dup11\n        /* \"Kyc.sol\":6806:6829  customers[_custaddress] */\n      0xffffffffffffffffffffffffffffffffffffffff\n      and\n      0xffffffffffffffffffffffffffffffffffffffff\n      and\n      dup2\n      mstore\n      0x20\n      add\n      swap1\n      dup2\n      mstore\n      0x20\n      add\n      0x00\n      keccak256\n        /* \"Kyc.sol\":6806:6831  customers[_custaddress].n */\n      0x06\n      add\n        /* \"Kyc.sol\":6806:6836  customers[_custaddress].n = _n */\n      dup2\n      swap1\n      sstore\n      pop\n        /* \"Kyc.sol\":6892:6904  _custaddress */\n      dup8\n        /* \"Kyc.sol\":6846:6863  kycrequestsbycust */\n      0x04\n        /* \"Kyc.sol\":6846:6877  kycrequestsbycust[_custaddress] */\n      0x00\n        /* \"Kyc.sol\":6864:6876  _custaddress */\n      dup11\n        /* \"Kyc.sol\":6846:6877  kycrequestsbycust[_custaddress] */\n      0xffffffffffffffffffffffffffffffffffffffff\n      and\n      0xffffffffffffffffffffffffffffffffffffffff\n      and\n      dup2\n      mstore\n      0x20\n      add\n      swap1\n      dup2\n      mstore\n      0x20\n      add\n      0x00\n      keccak256\n        /* \"Kyc.sol\":6846:6889  kycrequestsbycust[_custaddress].custAddress */\n      0x01\n      add\n      0x00\n        /* \"Kyc.sol\":6846:6904  kycrequestsbycust[_custaddress].custAddress = _custaddress */\n      0x0100\n      exp\n      dup2\n      sload\n      dup2\n      0xffffffffffffffffffffffffffffffffffffffff\n      mul\n      not\n      and\n      swap1\n      dup4\n      0xffffffffffffffffffffffffffffffffffffffff\n      and\n      mul\n      or\n      swap1\n      sstore\n      pop\n        /* \"Kyc.sol\":5855:6911  function writeKYC(... */\n      pop\n      pop\n      pop\n      pop\n      pop\n      pop\n      pop\n      pop\n      jump\t// out\n        /* \"Kyc.sol\":3473:3853  function findRequest(address _custaddress) internal view returns (bool) {... */\n    tag_284:\n        /* \"Kyc.sol\":3539:3543  bool */\n      0x00\n        /* \"Kyc.sol\":3555:3564  uint256 i */\n      dup1\n        /* \"Kyc.sol\":3567:3568  0 */\n      0x00\n        /* \"Kyc.sol\":3555:3568  uint256 i = 0 */\n      swap1\n      pop\n        /* \"Kyc.sol\":3578:3825  for (i; i < kycrequestsbyorg[msg.sender].req_count; i++) {... */\n    tag_466:\n        /* \"Kyc.sol\":3590:3606  kycrequestsbyorg */\n      0x03\n        /* \"Kyc.sol\":3590:3618  kycrequestsbyorg[msg.sender] */\n      0x00\n        /* \"Kyc.sol\":3607:3617  msg.sender */\n      caller\n        /* \"Kyc.sol\":3590:3618  kycrequestsbyorg[msg.sender] */\n      0xffffffffffffffffffffffffffffffffffffffff\n      and\n      0xffffffffffffffffffffffffffffffffffffffff\n      and\n      dup2\n      mstore\n      0x20\n      add\n      swap1\n      dup2\n      mstore\n      0x20\n      add\n      0x00\n      keccak256\n        /* \"Kyc.sol\":3590:3628  kycrequestsbyorg[msg.sender].req_count */\n      0x01\n      add\n      sload\n        /* \"Kyc.sol\":3586:3587  i */\n      dup2\n        /* \"Kyc.sol\":3586:3628  i < kycrequestsbyorg[msg.sender].req_count */\n      lt\n        /* \"Kyc.sol\":3578:3825  for (i; i < kycrequestsbyorg[msg.sender].req_count; i++) {... */\n      iszero\n      tag_467\n      jumpi\n        /* \"Kyc.sol\":3744:3756  _custaddress */\n      dup3\n        /* \"Kyc.sol\":3670:3756  kycrequestsbyorg[msg.sender].kycrequestlist[i].Address ==... */\n      0xffffffffffffffffffffffffffffffffffffffff\n      and\n        /* \"Kyc.sol\":3670:3686  kycrequestsbyorg */\n      0x03\n        /* \"Kyc.sol\":3670:3698  kycrequestsbyorg[msg.sender] */\n      0x00\n        /* \"Kyc.sol\":3687:3697  msg.sender */\n      caller\n        /* \"Kyc.sol\":3670:3698  kycrequestsbyorg[msg.sender] */\n      0xffffffffffffffffffffffffffffffffffffffff\n      and\n      0xffffffffffffffffffffffffffffffffffffffff\n      and\n      dup2\n      mstore\n      0x20\n      add\n      swap1\n      dup2\n      mstore\n      0x20\n      add\n      0x00\n      keccak256\n        /* \"Kyc.sol\":3670:3713  kycrequestsbyorg[msg.sender].kycrequestlist */\n      0x02\n      add\n        /* \"Kyc.sol\":3714:3715  i */\n      dup3\n        /* \"Kyc.sol\":3670:3716  kycrequestsbyorg[msg.sender].kycrequestlist[i] */\n      dup2\n      sload\n      dup2\n      lt\n      tag_469\n      jumpi\n      tag_470\n      tag_143\n      jump\t// in\n    tag_470:\n    tag_469:\n      swap1\n      0x00\n      mstore\n      keccak256(0x00, 0x20)\n      swap1\n      0x02\n      mul\n      add\n        /* \"Kyc.sol\":3670:3724  kycrequestsbyorg[msg.sender].kycrequestlist[i].Address */\n      0x01\n      add\n      0x00\n      swap1\n      sload\n      swap1\n      0x0100\n      exp\n      swap1\n      div\n      0xffffffffffffffffffffffffffffffffffffffff\n      and\n        /* \"Kyc.sol\":3670:3756  kycrequestsbyorg[msg.sender].kycrequestlist[i].Address ==... */\n      0xffffffffffffffffffffffffffffffffffffffff\n      and\n      sub\n        /* \"Kyc.sol\":3649:3815  if (... */\n      tag_472\n      jumpi\n        /* \"Kyc.sol\":3796:3800  true */\n      0x01\n        /* \"Kyc.sol\":3789:3800  return true */\n      swap2\n      pop\n      pop\n      jump(tag_465)\n        /* \"Kyc.sol\":3649:3815  if (... */\n    tag_472:\n        /* \"Kyc.sol\":3630:3633  i++ */\n      dup1\n      dup1\n      tag_473\n      swap1\n      tag_291\n      jump\t// in\n    tag_473:\n      swap2\n      pop\n      pop\n        /* \"Kyc.sol\":3578:3825  for (i; i < kycrequestsbyorg[msg.sender].req_count; i++) {... */\n      jump(tag_466)\n    tag_467:\n        /* \"Kyc.sol\":3841:3846  false */\n      0x00\n        /* \"Kyc.sol\":3834:3846  return false */\n      swap2\n      pop\n      pop\n        /* \"Kyc.sol\":3473:3853  function findRequest(address _custaddress) internal view returns (bool) {... */\n    tag_465:\n      swap2\n      swap1\n      pop\n      jump\t// out\n        /* \"Kyc.sol\":2596:2951  function findOrgIndex(address _custaddress, address ethAddress)... */\n    tag_403:\n        /* \"Kyc.sol\":2707:2720  uint256 index */\n      0x00\n        /* \"Kyc.sol\":2736:2745  uint256 i */\n      dup1\n        /* \"Kyc.sol\":2748:2749  0 */\n      0x00\n        /* \"Kyc.sol\":2736:2749  uint256 i = 0 */\n      swap1\n      pop\n        /* \"Kyc.sol\":2759:2945  for (i; i < customers[_custaddress].organization.length; i++) {... */\n    tag_475:\n        /* \"Kyc.sol\":2771:2780  customers */\n      0x01\n        /* \"Kyc.sol\":2771:2794  customers[_custaddress] */\n      0x00\n        /* \"Kyc.sol\":2781:2793  _custaddress */\n      dup6\n        /* \"Kyc.sol\":2771:2794  customers[_custaddress] */\n      0xffffffffffffffffffffffffffffffffffffffff\n      and\n      0xffffffffffffffffffffffffffffffffffffffff\n      and\n      dup2\n      mstore\n      0x20\n      add\n      swap1\n      dup2\n      mstore\n      0x20\n      add\n      0x00\n      keccak256\n        /* \"Kyc.sol\":2771:2807  customers[_custaddress].organization */\n      0x07\n      add\n        /* \"Kyc.sol\":2771:2814  customers[_custaddress].organization.length */\n      dup1\n      sload\n      swap1\n      pop\n        /* \"Kyc.sol\":2767:2768  i */\n      dup2\n        /* \"Kyc.sol\":2767:2814  i < customers[_custaddress].organization.length */\n      lt\n        /* \"Kyc.sol\":2759:2945  for (i; i < customers[_custaddress].organization.length; i++) {... */\n      iszero\n      tag_476\n      jumpi\n        /* \"Kyc.sol\":2882:2892  ethAddress */\n      dup3\n        /* \"Kyc.sol\":2839:2892  customers[_custaddress].organization[i] == ethAddress */\n      0xffffffffffffffffffffffffffffffffffffffff\n      and\n        /* \"Kyc.sol\":2839:2848  customers */\n      0x01\n        /* \"Kyc.sol\":2839:2862  customers[_custaddress] */\n      0x00\n        /* \"Kyc.sol\":2849:2861  _custaddress */\n      dup7\n        /* \"Kyc.sol\":2839:2862  customers[_custaddress] */\n      0xffffffffffffffffffffffffffffffffffffffff\n      and\n      0xffffffffffffffffffffffffffffffffffffffff\n      and\n      dup2\n      mstore\n      0x20\n      add\n      swap1\n      dup2\n      mstore\n      0x20\n      add\n      0x00\n      keccak256\n        /* \"Kyc.sol\":2839:2875  customers[_custaddress].organization */\n      0x07\n      add\n        /* \"Kyc.sol\":2876:2877  i */\n      dup3\n        /* \"Kyc.sol\":2839:2878  customers[_custaddress].organization[i] */\n      dup2\n      sload\n      dup2\n      lt\n      tag_478\n      jumpi\n      tag_479\n      tag_143\n      jump\t// in\n    tag_479:\n    tag_478:\n      swap1\n      0x00\n      mstore\n      keccak256(0x00, 0x20)\n      add\n      0x00\n      swap1\n      sload\n      swap1\n      0x0100\n      exp\n      swap1\n      div\n      0xffffffffffffffffffffffffffffffffffffffff\n      and\n        /* \"Kyc.sol\":2839:2892  customers[_custaddress].organization[i] == ethAddress */\n      0xffffffffffffffffffffffffffffffffffffffff\n      and\n      sub\n        /* \"Kyc.sol\":2835:2935  if (customers[_custaddress].organization[i] == ethAddress) {... */\n      tag_481\n      jumpi\n        /* \"Kyc.sol\":2919:2920  i */\n      dup1\n        /* \"Kyc.sol\":2912:2920  return i */\n      swap2\n      pop\n      pop\n      jump(tag_474)\n        /* \"Kyc.sol\":2835:2935  if (customers[_custaddress].organization[i] == ethAddress) {... */\n    tag_481:\n        /* \"Kyc.sol\":2816:2819  i++ */\n      dup1\n      dup1\n      tag_482\n      swap1\n      tag_291\n      jump\t// in\n    tag_482:\n      swap2\n      pop\n      pop\n        /* \"Kyc.sol\":2759:2945  for (i; i < customers[_custaddress].organization.length; i++) {... */\n      jump(tag_475)\n    tag_476:\n        /* \"Kyc.sol\":2726:2951  {... */\n      pop\n        /* \"Kyc.sol\":2596:2951  function findOrgIndex(address _custaddress, address ethAddress)... */\n    tag_474:\n      swap3\n      swap2\n      pop\n      pop\n      jump\t// out\n        /* \"Kyc.sol\":2957:3438  function findRequestIndex(address _custaddress, address _ethAddress)... */\n    tag_418:\n        /* \"Kyc.sol\":3073:3086  uint256 index */\n      0x00\n        /* \"Kyc.sol\":3102:3111  uint256 i */\n      dup1\n        /* \"Kyc.sol\":3114:3115  0 */\n      0x00\n        /* \"Kyc.sol\":3102:3115  uint256 i = 0 */\n      swap1\n      pop\n        /* \"Kyc.sol\":3125:3432  for (... */\n    tag_484:\n        /* \"Kyc.sol\":3162:3179  kycrequestsbycust */\n      0x04\n        /* \"Kyc.sol\":3162:3193  kycrequestsbycust[_custaddress] */\n      0x00\n        /* \"Kyc.sol\":3180:3192  _custaddress */\n      dup6\n        /* \"Kyc.sol\":3162:3193  kycrequestsbycust[_custaddress] */\n      0xffffffffffffffffffffffffffffffffffffffff\n      and\n      0xffffffffffffffffffffffffffffffffffffffff\n      and\n      dup2\n      mstore\n      0x20\n      add\n      swap1\n      dup2\n      mstore\n      0x20\n      add\n      0x00\n      keccak256\n        /* \"Kyc.sol\":3162:3208  kycrequestsbycust[_custaddress].kycrequestlist */\n      0x00\n      add\n        /* \"Kyc.sol\":3162:3215  kycrequestsbycust[_custaddress].kycrequestlist.length */\n      dup1\n      sload\n      swap1\n      pop\n        /* \"Kyc.sol\":3158:3159  i */\n      dup2\n        /* \"Kyc.sol\":3158:3215  i < kycrequestsbycust[_custaddress].kycrequestlist.length */\n      lt\n        /* \"Kyc.sol\":3125:3432  for (... */\n      iszero\n      tag_485\n      jumpi\n        /* \"Kyc.sol\":3355:3366  _ethAddress */\n      dup3\n        /* \"Kyc.sol\":3278:3366  kycrequestsbycust[_custaddress].kycrequestlist[i].Address ==... */\n      0xffffffffffffffffffffffffffffffffffffffff\n      and\n        /* \"Kyc.sol\":3278:3295  kycrequestsbycust */\n      0x04\n        /* \"Kyc.sol\":3278:3309  kycrequestsbycust[_custaddress] */\n      0x00\n        /* \"Kyc.sol\":3296:3308  _custaddress */\n      dup7\n        /* \"Kyc.sol\":3278:3309  kycrequestsbycust[_custaddress] */\n      0xffffffffffffffffffffffffffffffffffffffff\n      and\n      0xffffffffffffffffffffffffffffffffffffffff\n      and\n      dup2\n      mstore\n      0x20\n      add\n      swap1\n      dup2\n      mstore\n      0x20\n      add\n      0x00\n      keccak256\n        /* \"Kyc.sol\":3278:3324  kycrequestsbycust[_custaddress].kycrequestlist */\n      0x00\n      add\n        /* \"Kyc.sol\":3325:3326  i */\n      dup3\n        /* \"Kyc.sol\":3278:3327  kycrequestsbycust[_custaddress].kycrequestlist[i] */\n      dup2\n      sload\n      dup2\n      lt\n      tag_487\n      jumpi\n      tag_488\n      tag_143\n      jump\t// in\n    tag_488:\n    tag_487:\n      swap1\n      0x00\n      mstore\n      keccak256(0x00, 0x20)\n      swap1\n      0x02\n      mul\n      add\n        /* \"Kyc.sol\":3278:3335  kycrequestsbycust[_custaddress].kycrequestlist[i].Address */\n      0x01\n      add\n      0x00\n      swap1\n      sload\n      swap1\n      0x0100\n      exp\n      swap1\n      div\n      0xffffffffffffffffffffffffffffffffffffffff\n      and\n        /* \"Kyc.sol\":3278:3366  kycrequestsbycust[_custaddress].kycrequestlist[i].Address ==... */\n      0xffffffffffffffffffffffffffffffffffffffff\n      and\n      sub\n        /* \"Kyc.sol\":3257:3422  if (... */\n      tag_490\n      jumpi\n        /* \"Kyc.sol\":3406:3407  i */\n      dup1\n        /* \"Kyc.sol\":3399:3407  return i */\n      swap2\n      pop\n      pop\n      jump(tag_483)\n        /* \"Kyc.sol\":3257:3422  if (... */\n    tag_490:\n        /* \"Kyc.sol\":3229:3232  i++ */\n      dup1\n      dup1\n      tag_491\n      swap1\n      tag_291\n      jump\t// in\n    tag_491:\n      swap2\n      pop\n      pop\n        /* \"Kyc.sol\":3125:3432  for (... */\n      jump(tag_484)\n    tag_485:\n        /* \"Kyc.sol\":3092:3438  {... */\n      pop\n        /* \"Kyc.sol\":2957:3438  function findRequestIndex(address _custaddress, address _ethAddress)... */\n    tag_483:\n      swap3\n      swap2\n      pop\n      pop\n      jump\t// out\n    tag_162:\n      mload(0x40)\n      dup1\n      0x40\n      add\n      0x40\n      mstore\n      dup1\n      0x60\n      dup2\n      mstore\n      0x20\n      add\n      and(0xffffffffffffffffffffffffffffffffffffffff, 0x00)\n      dup2\n      mstore\n      pop\n      swap1\n      jump\t// out\n    tag_270:\n      pop\n      dup1\n      sload\n      tag_492\n      swap1\n      tag_168\n      jump\t// in\n    tag_492:\n      0x00\n      dup3\n      sstore\n      dup1\n      0x1f\n      lt\n      tag_494\n      jumpi\n      pop\n      jump(tag_493)\n    tag_494:\n      0x1f\n      add\n      0x20\n      swap1\n      div\n      swap1\n      0x00\n      mstore\n      keccak256(0x00, 0x20)\n      swap1\n      dup2\n      add\n      swap1\n      tag_495\n      swap2\n      swap1\n      tag_496\n      jump\t// in\n    tag_495:\n    tag_493:\n      pop\n      jump\t// out\n    tag_303:\n      mload(0x40)\n      dup1\n      0x40\n      add\n      0x40\n      mstore\n      dup1\n      0x00\n      dup2\n      mstore\n      0x20\n      add\n      and(0xffffffffffffffffffffffffffffffffffffffff, 0x00)\n      dup2\n      mstore\n      pop\n      swap1\n      jump\t// out\n    tag_315:\n      mload(0x40)\n      dup1\n      0x0120\n      add\n      0x40\n      mstore\n      dup1\n      and(0xffffffffffffffffffffffffffffffffffffffff, 0x00)\n      dup2\n      mstore\n      0x20\n      add\n      0x60\n      dup2\n      mstore\n      0x20\n      add\n      0x60\n      dup2\n      mstore\n      0x20\n      add\n      0x60\n      dup2\n      mstore\n      0x20\n      add\n      0x60\n      dup2\n      mstore\n      0x20\n      add\n      0x00\n      dup2\n      mstore\n      0x20\n      add\n      0x00\n      dup2\n      mstore\n      0x20\n      add\n      0x60\n      dup2\n      mstore\n      0x20\n      add\n      iszero(iszero(0x00))\n      dup2\n      mstore\n      pop\n      swap1\n      jump\t// out\n    tag_496:\n    tag_497:\n      dup1\n      dup3\n      gt\n      iszero\n      tag_498\n      jumpi\n      0x00\n      dup2\n      0x00\n      swap1\n      sstore\n      pop\n      0x01\n      add\n      jump(tag_497)\n    tag_498:\n      pop\n      swap1\n      jump\t// out\n        /* \"#utility.yul\":7:82   */\n    tag_499:\n        /* \"#utility.yul\":40:46   */\n      0x00\n        /* \"#utility.yul\":73:75   */\n      0x40\n        /* \"#utility.yul\":67:76   */\n      mload\n        /* \"#utility.yul\":57:76   */\n      swap1\n      pop\n        /* \"#utility.yul\":7:82   */\n      swap1\n      jump\t// out\n        /* \"#utility.yul\":88:205   */\n    tag_500:\n        /* \"#utility.yul\":197:198   */\n      0x00\n        /* \"#utility.yul\":194:195   */\n      dup1\n        /* \"#utility.yul\":187:199   */\n      revert\n        /* \"#utility.yul\":211:328   */\n    tag_501:\n        /* \"#utility.yul\":320:321   */\n      0x00\n        /* \"#utility.yul\":317:318   */\n      dup1\n        /* \"#utility.yul\":310:322   */\n      revert\n        /* \"#utility.yul\":334:460   */\n    tag_502:\n        /* \"#utility.yul\":371:378   */\n      0x00\n        /* \"#utility.yul\":411:453   */\n      0xffffffffffffffffffffffffffffffffffffffff\n        /* \"#utility.yul\":404:409   */\n      dup3\n        /* \"#utility.yul\":400:454   */\n      and\n        /* \"#utility.yul\":389:454   */\n      swap1\n      pop\n        /* \"#utility.yul\":334:460   */\n      swap2\n      swap1\n      pop\n      jump\t// out\n        /* \"#utility.yul\":466:562   */\n    tag_503:\n        /* \"#utility.yul\":503:510   */\n      0x00\n        /* \"#utility.yul\":532:556   */\n      tag_613\n        /* \"#utility.yul\":550:555   */\n      dup3\n        /* \"#utility.yul\":532:556   */\n      tag_502\n      jump\t// in\n    tag_613:\n        /* \"#utility.yul\":521:556   */\n      swap1\n      pop\n        /* \"#utility.yul\":466:562   */\n      swap2\n      swap1\n      pop\n      jump\t// out\n        /* \"#utility.yul\":568:690   */\n    tag_504:\n        /* \"#utility.yul\":641:665   */\n      tag_615\n        /* \"#utility.yul\":659:664   */\n      dup2\n        /* \"#utility.yul\":641:665   */\n      tag_503\n      jump\t// in\n    tag_615:\n        /* \"#utility.yul\":634:639   */\n      dup2\n        /* \"#utility.yul\":631:666   */\n      eq\n        /* \"#utility.yul\":621:684   */\n      tag_616\n      jumpi\n        /* \"#utility.yul\":680:681   */\n      0x00\n        /* \"#utility.yul\":677:678   */\n      dup1\n        /* \"#utility.yul\":670:682   */\n      revert\n        /* \"#utility.yul\":621:684   */\n    tag_616:\n        /* \"#utility.yul\":568:690   */\n      pop\n      jump\t// out\n        /* \"#utility.yul\":696:835   */\n    tag_505:\n        /* \"#utility.yul\":742:747   */\n      0x00\n        /* \"#utility.yul\":780:786   */\n      dup2\n        /* \"#utility.yul\":767:787   */\n      calldataload\n        /* \"#utility.yul\":758:787   */\n      swap1\n      pop\n        /* \"#utility.yul\":796:829   */\n      tag_618\n        /* \"#utility.yul\":823:828   */\n      dup2\n        /* \"#utility.yul\":796:829   */\n      tag_504\n      jump\t// in\n    tag_618:\n        /* \"#utility.yul\":696:835   */\n      swap3\n      swap2\n      pop\n      pop\n      jump\t// out\n        /* \"#utility.yul\":841:1170   */\n    tag_29:\n        /* \"#utility.yul\":900:906   */\n      0x00\n        /* \"#utility.yul\":949:951   */\n      0x20\n        /* \"#utility.yul\":937:946   */\n      dup3\n        /* \"#utility.yul\":928:935   */\n      dup5\n        /* \"#utility.yul\":924:947   */\n      sub\n        /* \"#utility.yul\":920:952   */\n      slt\n        /* \"#utility.yul\":917:1036   */\n      iszero\n      tag_620\n      jumpi\n        /* \"#utility.yul\":955:1034   */\n      tag_621\n      tag_500\n      jump\t// in\n    tag_621:\n        /* \"#utility.yul\":917:1036   */\n    tag_620:\n        /* \"#utility.yul\":1075:1076   */\n      0x00\n        /* \"#utility.yul\":1100:1153   */\n      tag_622\n        /* \"#utility.yul\":1145:1152   */\n      dup5\n        /* \"#utility.yul\":1136:1142   */\n      dup3\n        /* \"#utility.yul\":1125:1134   */\n      dup6\n        /* \"#utility.yul\":1121:1143   */\n      add\n        /* \"#utility.yul\":1100:1153   */\n      tag_505\n      jump\t// in\n    tag_622:\n        /* \"#utility.yul\":1090:1153   */\n      swap2\n      pop\n        /* \"#utility.yul\":1046:1163   */\n      pop\n        /* \"#utility.yul\":841:1170   */\n      swap3\n      swap2\n      pop\n      pop\n      jump\t// out\n        /* \"#utility.yul\":1176:1266   */\n    tag_506:\n        /* \"#utility.yul\":1210:1217   */\n      0x00\n        /* \"#utility.yul\":1253:1258   */\n      dup2\n        /* \"#utility.yul\":1246:1259   */\n      iszero\n        /* \"#utility.yul\":1239:1260   */\n      iszero\n        /* \"#utility.yul\":1228:1260   */\n      swap1\n      pop\n        /* \"#utility.yul\":1176:1266   */\n      swap2\n      swap1\n      pop\n      jump\t// out\n        /* \"#utility.yul\":1272:1381   */\n    tag_507:\n        /* \"#utility.yul\":1353:1374   */\n      tag_625\n        /* \"#utility.yul\":1368:1373   */\n      dup2\n        /* \"#utility.yul\":1353:1374   */\n      tag_506\n      jump\t// in\n    tag_625:\n        /* \"#utility.yul\":1348:1351   */\n      dup3\n        /* \"#utility.yul\":1341:1375   */\n      mstore\n        /* \"#utility.yul\":1272:1381   */\n      pop\n      pop\n      jump\t// out\n        /* \"#utility.yul\":1387:1597   */\n    tag_32:\n        /* \"#utility.yul\":1474:1478   */\n      0x00\n        /* \"#utility.yul\":1512:1514   */\n      0x20\n        /* \"#utility.yul\":1501:1510   */\n      dup3\n        /* \"#utility.yul\":1497:1515   */\n      add\n        /* \"#utility.yul\":1489:1515   */\n      swap1\n      pop\n        /* \"#utility.yul\":1525:1590   */\n      tag_627\n        /* \"#utility.yul\":1587:1588   */\n      0x00\n        /* \"#utility.yul\":1576:1585   */\n      dup4\n        /* \"#utility.yul\":1572:1589   */\n      add\n        /* \"#utility.yul\":1563:1569   */\n      dup5\n        /* \"#utility.yul\":1525:1590   */\n      tag_507\n      jump\t// in\n    tag_627:\n        /* \"#utility.yul\":1387:1597   */\n      swap3\n      swap2\n      pop\n      pop\n      jump\t// out\n        /* \"#utility.yul\":1603:1680   */\n    tag_508:\n        /* \"#utility.yul\":1640:1647   */\n      0x00\n        /* \"#utility.yul\":1669:1674   */\n      dup2\n        /* \"#utility.yul\":1658:1674   */\n      swap1\n      pop\n        /* \"#utility.yul\":1603:1680   */\n      swap2\n      swap1\n      pop\n      jump\t// out\n        /* \"#utility.yul\":1686:1808   */\n    tag_509:\n        /* \"#utility.yul\":1759:1783   */\n      tag_630\n        /* \"#utility.yul\":1777:1782   */\n      dup2\n        /* \"#utility.yul\":1759:1783   */\n      tag_508\n      jump\t// in\n    tag_630:\n        /* \"#utility.yul\":1752:1757   */\n      dup2\n        /* \"#utility.yul\":1749:1784   */\n      eq\n        /* \"#utility.yul\":1739:1802   */\n      tag_631\n      jumpi\n        /* \"#utility.yul\":1798:1799   */\n      0x00\n        /* \"#utility.yul\":1795:1796   */\n      dup1\n        /* \"#utility.yul\":1788:1800   */\n      revert\n        /* \"#utility.yul\":1739:1802   */\n    tag_631:\n        /* \"#utility.yul\":1686:1808   */\n      pop\n      jump\t// out\n        /* \"#utility.yul\":1814:1953   */\n    tag_510:\n        /* \"#utility.yul\":1860:1865   */\n      0x00\n        /* \"#utility.yul\":1898:1904   */\n      dup2\n        /* \"#utility.yul\":1885:1905   */\n      calldataload\n        /* \"#utility.yul\":1876:1905   */\n      swap1\n      pop\n        /* \"#utility.yul\":1914:1947   */\n      tag_633\n        /* \"#utility.yul\":1941:1946   */\n      dup2\n        /* \"#utility.yul\":1914:1947   */\n      tag_509\n      jump\t// in\n    tag_633:\n        /* \"#utility.yul\":1814:1953   */\n      swap3\n      swap2\n      pop\n      pop\n      jump\t// out\n        /* \"#utility.yul\":1959:2075   */\n    tag_511:\n        /* \"#utility.yul\":2029:2050   */\n      tag_635\n        /* \"#utility.yul\":2044:2049   */\n      dup2\n        /* \"#utility.yul\":2029:2050   */\n      tag_506\n      jump\t// in\n    tag_635:\n        /* \"#utility.yul\":2022:2027   */\n      dup2\n        /* \"#utility.yul\":2019:2051   */\n      eq\n        /* \"#utility.yul\":2009:2069   */\n      tag_636\n      jumpi\n        /* \"#utility.yul\":2065:2066   */\n      0x00\n        /* \"#utility.yul\":2062:2063   */\n      dup1\n        /* \"#utility.yul\":2055:2067   */\n      revert\n        /* \"#utility.yul\":2009:2069   */\n    tag_636:\n        /* \"#utility.yul\":1959:2075   */\n      pop\n      jump\t// out\n        /* \"#utility.yul\":2081:2214   */\n    tag_512:\n        /* \"#utility.yul\":2124:2129   */\n      0x00\n        /* \"#utility.yul\":2162:2168   */\n      dup2\n        /* \"#utility.yul\":2149:2169   */\n      calldataload\n        /* \"#utility.yul\":2140:2169   */\n      swap1\n      pop\n        /* \"#utility.yul\":2178:2208   */\n      tag_638\n        /* \"#utility.yul\":2202:2207   */\n      dup2\n        /* \"#utility.yul\":2178:2208   */\n      tag_511\n      jump\t// in\n    tag_638:\n        /* \"#utility.yul\":2081:2214   */\n      swap3\n      swap2\n      pop\n      pop\n      jump\t// out\n        /* \"#utility.yul\":2220:2833   */\n    tag_39:\n        /* \"#utility.yul\":2294:2300   */\n      0x00\n        /* \"#utility.yul\":2302:2308   */\n      dup1\n        /* \"#utility.yul\":2310:2316   */\n      0x00\n        /* \"#utility.yul\":2359:2361   */\n      0x60\n        /* \"#utility.yul\":2347:2356   */\n      dup5\n        /* \"#utility.yul\":2338:2345   */\n      dup7\n        /* \"#utility.yul\":2334:2357   */\n      sub\n        /* \"#utility.yul\":2330:2362   */\n      slt\n        /* \"#utility.yul\":2327:2446   */\n      iszero\n      tag_640\n      jumpi\n        /* \"#utility.yul\":2365:2444   */\n      tag_641\n      tag_500\n      jump\t// in\n    tag_641:\n        /* \"#utility.yul\":2327:2446   */\n    tag_640:\n        /* \"#utility.yul\":2485:2486   */\n      0x00\n        /* \"#utility.yul\":2510:2563   */\n      tag_642\n        /* \"#utility.yul\":2555:2562   */\n      dup7\n        /* \"#utility.yul\":2546:2552   */\n      dup3\n        /* \"#utility.yul\":2535:2544   */\n      dup8\n        /* \"#utility.yul\":2531:2553   */\n      add\n        /* \"#utility.yul\":2510:2563   */\n      tag_510\n      jump\t// in\n    tag_642:\n        /* \"#utility.yul\":2500:2563   */\n      swap4\n      pop\n        /* \"#utility.yul\":2456:2573   */\n      pop\n        /* \"#utility.yul\":2612:2614   */\n      0x20\n        /* \"#utility.yul\":2638:2691   */\n      tag_643\n        /* \"#utility.yul\":2683:2690   */\n      dup7\n        /* \"#utility.yul\":2674:2680   */\n      dup3\n        /* \"#utility.yul\":2663:2672   */\n      dup8\n        /* \"#utility.yul\":2659:2681   */\n      add\n        /* \"#utility.yul\":2638:2691   */\n      tag_505\n      jump\t// in\n    tag_643:\n        /* \"#utility.yul\":2628:2691   */\n      swap3\n      pop\n        /* \"#utility.yul\":2583:2701   */\n      pop\n        /* \"#utility.yul\":2740:2742   */\n      0x40\n        /* \"#utility.yul\":2766:2816   */\n      tag_644\n        /* \"#utility.yul\":2808:2815   */\n      dup7\n        /* \"#utility.yul\":2799:2805   */\n      dup3\n        /* \"#utility.yul\":2788:2797   */\n      dup8\n        /* \"#utility.yul\":2784:2806   */\n      add\n        /* \"#utility.yul\":2766:2816   */\n      tag_512\n      jump\t// in\n    tag_644:\n        /* \"#utility.yul\":2756:2816   */\n      swap2\n      pop\n        /* \"#utility.yul\":2711:2826   */\n      pop\n        /* \"#utility.yul\":2220:2833   */\n      swap3\n      pop\n      swap3\n      pop\n      swap3\n      jump\t// out\n        /* \"#utility.yul\":2839:2938   */\n    tag_513:\n        /* \"#utility.yul\":2891:2897   */\n      0x00\n        /* \"#utility.yul\":2925:2930   */\n      dup2\n        /* \"#utility.yul\":2919:2931   */\n      mload\n        /* \"#utility.yul\":2909:2931   */\n      swap1\n      pop\n        /* \"#utility.yul\":2839:2938   */\n      swap2\n      swap1\n      pop\n      jump\t// out\n        /* \"#utility.yul\":2944:3103   */\n    tag_514:\n        /* \"#utility.yul\":3018:3029   */\n      0x00\n        /* \"#utility.yul\":3052:3058   */\n      dup3\n        /* \"#utility.yul\":3047:3050   */\n      dup3\n        /* \"#utility.yul\":3040:3059   */\n      mstore\n        /* \"#utility.yul\":3092:3096   */\n      0x20\n        /* \"#utility.yul\":3087:3090   */\n      dup3\n        /* \"#utility.yul\":3083:3097   */\n      add\n        /* \"#utility.yul\":3068:3097   */\n      swap1\n      pop\n        /* \"#utility.yul\":2944:3103   */\n      swap3\n      swap2\n      pop\n      pop\n      jump\t// out\n        /* \"#utility.yul\":3109:3355   */\n    tag_515:\n        /* \"#utility.yul\":3190:3191   */\n      0x00\n        /* \"#utility.yul\":3200:3313   */\n    tag_648:\n        /* \"#utility.yul\":3214:3220   */\n      dup4\n        /* \"#utility.yul\":3211:3212   */\n      dup2\n        /* \"#utility.yul\":3208:3221   */\n      lt\n        /* \"#utility.yul\":3200:3313   */\n      iszero\n      tag_650\n      jumpi\n        /* \"#utility.yul\":3299:3300   */\n      dup1\n        /* \"#utility.yul\":3294:3297   */\n      dup3\n        /* \"#utility.yul\":3290:3301   */\n      add\n        /* \"#utility.yul\":3284:3302   */\n      mload\n        /* \"#utility.yul\":3280:3281   */\n      dup2\n        /* \"#utility.yul\":3275:3278   */\n      dup5\n        /* \"#utility.yul\":3271:3282   */\n      add\n        /* \"#utility.yul\":3264:3303   */\n      mstore\n        /* \"#utility.yul\":3236:3238   */\n      0x20\n        /* \"#utility.yul\":3233:3234   */\n      dup2\n        /* \"#utility.yul\":3229:3239   */\n      add\n        /* \"#utility.yul\":3224:3239   */\n      swap1\n      pop\n        /* \"#utility.yul\":3200:3313   */\n      jump(tag_648)\n    tag_650:\n        /* \"#utility.yul\":3347:3348   */\n      0x00\n        /* \"#utility.yul\":3338:3344   */\n      dup5\n        /* \"#utility.yul\":3333:3336   */\n      dup5\n        /* \"#utility.yul\":3329:3345   */\n      add\n        /* \"#utility.yul\":3322:3349   */\n      mstore\n        /* \"#utility.yul\":3171:3355   */\n      pop\n        /* \"#utility.yul\":3109:3355   */\n      pop\n      pop\n      pop\n      jump\t// out\n        /* \"#utility.yul\":3361:3463   */\n    tag_516:\n        /* \"#utility.yul\":3402:3408   */\n      0x00\n        /* \"#utility.yul\":3453:3455   */\n      0x1f\n        /* \"#utility.yul\":3449:3456   */\n      not\n        /* \"#utility.yul\":3444:3446   */\n      0x1f\n        /* \"#utility.yul\":3437:3442   */\n      dup4\n        /* \"#utility.yul\":3433:3447   */\n      add\n        /* \"#utility.yul\":3429:3457   */\n      and\n        /* \"#utility.yul\":3419:3457   */\n      swap1\n      pop\n        /* \"#utility.yul\":3361:3463   */\n      swap2\n      swap1\n      pop\n      jump\t// out\n        /* \"#utility.yul\":3469:3826   */\n    tag_517:\n        /* \"#utility.yul\":3547:3550   */\n      0x00\n        /* \"#utility.yul\":3575:3614   */\n      tag_653\n        /* \"#utility.yul\":3608:3613   */\n      dup3\n        /* \"#utility.yul\":3575:3614   */\n      tag_513\n      jump\t// in\n    tag_653:\n        /* \"#utility.yul\":3630:3691   */\n      tag_654\n        /* \"#utility.yul\":3684:3690   */\n      dup2\n        /* \"#utility.yul\":3679:3682   */\n      dup6\n        /* \"#utility.yul\":3630:3691   */\n      tag_514\n      jump\t// in\n    tag_654:\n        /* \"#utility.yul\":3623:3691   */\n      swap4\n      pop\n        /* \"#utility.yul\":3700:3765   */\n      tag_655\n        /* \"#utility.yul\":3758:3764   */\n      dup2\n        /* \"#utility.yul\":3753:3756   */\n      dup6\n        /* \"#utility.yul\":3746:3750   */\n      0x20\n        /* \"#utility.yul\":3739:3744   */\n      dup7\n        /* \"#utility.yul\":3735:3751   */\n      add\n        /* \"#utility.yul\":3700:3765   */\n      tag_515\n      jump\t// in\n    tag_655:\n        /* \"#utility.yul\":3790:3819   */\n      tag_656\n        /* \"#utility.yul\":3812:3818   */\n      dup2\n        /* \"#utility.yul\":3790:3819   */\n      tag_516\n      jump\t// in\n    tag_656:\n        /* \"#utility.yul\":3785:3788   */\n      dup5\n        /* \"#utility.yul\":3781:3820   */\n      add\n        /* \"#utility.yul\":3774:3820   */\n      swap2\n      pop\n        /* \"#utility.yul\":3551:3826   */\n      pop\n        /* \"#utility.yul\":3469:3826   */\n      swap3\n      swap2\n      pop\n      pop\n      jump\t// out\n        /* \"#utility.yul\":3832:3940   */\n    tag_518:\n        /* \"#utility.yul\":3909:3933   */\n      tag_658\n        /* \"#utility.yul\":3927:3932   */\n      dup2\n        /* \"#utility.yul\":3909:3933   */\n      tag_503\n      jump\t// in\n    tag_658:\n        /* \"#utility.yul\":3904:3907   */\n      dup3\n        /* \"#utility.yul\":3897:3934   */\n      mstore\n        /* \"#utility.yul\":3832:3940   */\n      pop\n      pop\n      jump\t// out\n        /* \"#utility.yul\":4004:4622   */\n    tag_519:\n        /* \"#utility.yul\":4129:4132   */\n      0x00\n        /* \"#utility.yul\":4165:4169   */\n      0x40\n        /* \"#utility.yul\":4160:4163   */\n      dup4\n        /* \"#utility.yul\":4156:4170   */\n      add\n        /* \"#utility.yul\":4252:4256   */\n      0x00\n        /* \"#utility.yul\":4245:4250   */\n      dup4\n        /* \"#utility.yul\":4241:4257   */\n      add\n        /* \"#utility.yul\":4235:4258   */\n      mload\n        /* \"#utility.yul\":4305:4308   */\n      dup5\n        /* \"#utility.yul\":4299:4303   */\n      dup3\n        /* \"#utility.yul\":4295:4309   */\n      sub\n        /* \"#utility.yul\":4288:4292   */\n      0x00\n        /* \"#utility.yul\":4283:4286   */\n      dup7\n        /* \"#utility.yul\":4279:4293   */\n      add\n        /* \"#utility.yul\":4272:4310   */\n      mstore\n        /* \"#utility.yul\":4331:4404   */\n      tag_660\n        /* \"#utility.yul\":4399:4403   */\n      dup3\n        /* \"#utility.yul\":4385:4397   */\n      dup3\n        /* \"#utility.yul\":4331:4404   */\n      tag_517\n      jump\t// in\n    tag_660:\n        /* \"#utility.yul\":4323:4404   */\n      swap2\n      pop\n        /* \"#utility.yul\":4180:4415   */\n      pop\n        /* \"#utility.yul\":4503:4507   */\n      0x20\n        /* \"#utility.yul\":4496:4501   */\n      dup4\n        /* \"#utility.yul\":4492:4508   */\n      add\n        /* \"#utility.yul\":4486:4509   */\n      mload\n        /* \"#utility.yul\":4522:4585   */\n      tag_661\n        /* \"#utility.yul\":4579:4583   */\n      0x20\n        /* \"#utility.yul\":4574:4577   */\n      dup7\n        /* \"#utility.yul\":4570:4584   */\n      add\n        /* \"#utility.yul\":4556:4568   */\n      dup3\n        /* \"#utility.yul\":4522:4585   */\n      tag_518\n      jump\t// in\n    tag_661:\n        /* \"#utility.yul\":4425:4595   */\n      pop\n        /* \"#utility.yul\":4612:4616   */\n      dup1\n        /* \"#utility.yul\":4605:4616   */\n      swap2\n      pop\n        /* \"#utility.yul\":4134:4622   */\n      pop\n        /* \"#utility.yul\":4004:4622   */\n      swap3\n      swap2\n      pop\n      pop\n      jump\t// out\n        /* \"#utility.yul\":4628:5013   */\n    tag_45:\n        /* \"#utility.yul\":4777:4781   */\n      0x00\n        /* \"#utility.yul\":4815:4817   */\n      0x20\n        /* \"#utility.yul\":4804:4813   */\n      dup3\n        /* \"#utility.yul\":4800:4818   */\n      add\n        /* \"#utility.yul\":4792:4818   */\n      swap1\n      pop\n        /* \"#utility.yul\":4864:4873   */\n      dup2\n        /* \"#utility.yul\":4858:4862   */\n      dup2\n        /* \"#utility.yul\":4854:4874   */\n      sub\n        /* \"#utility.yul\":4850:4851   */\n      0x00\n        /* \"#utility.yul\":4839:4848   */\n      dup4\n        /* \"#utility.yul\":4835:4852   */\n      add\n        /* \"#utility.yul\":4828:4875   */\n      mstore\n        /* \"#utility.yul\":4892:5006   */\n      tag_663\n        /* \"#utility.yul\":5001:5005   */\n      dup2\n        /* \"#utility.yul\":4992:4998   */\n      dup5\n        /* \"#utility.yul\":4892:5006   */\n      tag_519\n      jump\t// in\n    tag_663:\n        /* \"#utility.yul\":4884:5006   */\n      swap1\n      pop\n        /* \"#utility.yul\":4628:5013   */\n      swap3\n      swap2\n      pop\n      pop\n      jump\t// out\n        /* \"#utility.yul\":5019:5133   */\n    tag_520:\n        /* \"#utility.yul\":5086:5092   */\n      0x00\n        /* \"#utility.yul\":5120:5125   */\n      dup2\n        /* \"#utility.yul\":5114:5126   */\n      mload\n        /* \"#utility.yul\":5104:5126   */\n      swap1\n      pop\n        /* \"#utility.yul\":5019:5133   */\n      swap2\n      swap1\n      pop\n      jump\t// out\n        /* \"#utility.yul\":5139:5323   */\n    tag_521:\n        /* \"#utility.yul\":5238:5249   */\n      0x00\n        /* \"#utility.yul\":5272:5278   */\n      dup3\n        /* \"#utility.yul\":5267:5270   */\n      dup3\n        /* \"#utility.yul\":5260:5279   */\n      mstore\n        /* \"#utility.yul\":5312:5316   */\n      0x20\n        /* \"#utility.yul\":5307:5310   */\n      dup3\n        /* \"#utility.yul\":5303:5317   */\n      add\n        /* \"#utility.yul\":5288:5317   */\n      swap1\n      pop\n        /* \"#utility.yul\":5139:5323   */\n      swap3\n      swap2\n      pop\n      pop\n      jump\t// out\n        /* \"#utility.yul\":5329:5461   */\n    tag_522:\n        /* \"#utility.yul\":5396:5400   */\n      0x00\n        /* \"#utility.yul\":5419:5422   */\n      dup2\n        /* \"#utility.yul\":5411:5422   */\n      swap1\n      pop\n        /* \"#utility.yul\":5449:5453   */\n      0x20\n        /* \"#utility.yul\":5444:5447   */\n      dup3\n        /* \"#utility.yul\":5440:5454   */\n      add\n        /* \"#utility.yul\":5432:5454   */\n      swap1\n      pop\n        /* \"#utility.yul\":5329:5461   */\n      swap2\n      swap1\n      pop\n      jump\t// out\n        /* \"#utility.yul\":5467:5646   */\n    tag_523:\n        /* \"#utility.yul\":5536:5546   */\n      0x00\n        /* \"#utility.yul\":5557:5603   */\n      tag_668\n        /* \"#utility.yul\":5599:5602   */\n      dup4\n        /* \"#utility.yul\":5591:5597   */\n      dup4\n        /* \"#utility.yul\":5557:5603   */\n      tag_518\n      jump\t// in\n    tag_668:\n        /* \"#utility.yul\":5635:5639   */\n      0x20\n        /* \"#utility.yul\":5630:5633   */\n      dup4\n        /* \"#utility.yul\":5626:5640   */\n      add\n        /* \"#utility.yul\":5612:5640   */\n      swap1\n      pop\n        /* \"#utility.yul\":5467:5646   */\n      swap3\n      swap2\n      pop\n      pop\n      jump\t// out\n        /* \"#utility.yul\":5652:5765   */\n    tag_524:\n        /* \"#utility.yul\":5722:5726   */\n      0x00\n        /* \"#utility.yul\":5754:5758   */\n      0x20\n        /* \"#utility.yul\":5749:5752   */\n      dup3\n        /* \"#utility.yul\":5745:5759   */\n      add\n        /* \"#utility.yul\":5737:5759   */\n      swap1\n      pop\n        /* \"#utility.yul\":5652:5765   */\n      swap2\n      swap1\n      pop\n      jump\t// out\n        /* \"#utility.yul\":5801:6533   */\n    tag_525:\n        /* \"#utility.yul\":5920:5923   */\n      0x00\n        /* \"#utility.yul\":5949:6003   */\n      tag_671\n        /* \"#utility.yul\":5997:6002   */\n      dup3\n        /* \"#utility.yul\":5949:6003   */\n      tag_520\n      jump\t// in\n    tag_671:\n        /* \"#utility.yul\":6019:6105   */\n      tag_672\n        /* \"#utility.yul\":6098:6104   */\n      dup2\n        /* \"#utility.yul\":6093:6096   */\n      dup6\n        /* \"#utility.yul\":6019:6105   */\n      tag_521\n      jump\t// in\n    tag_672:\n        /* \"#utility.yul\":6012:6105   */\n      swap4\n      pop\n        /* \"#utility.yul\":6129:6185   */\n      tag_673\n        /* \"#utility.yul\":6179:6184   */\n      dup4\n        /* \"#utility.yul\":6129:6185   */\n      tag_522\n      jump\t// in\n    tag_673:\n        /* \"#utility.yul\":6208:6215   */\n      dup1\n        /* \"#utility.yul\":6239:6240   */\n      0x00\n        /* \"#utility.yul\":6224:6508   */\n    tag_674:\n        /* \"#utility.yul\":6249:6255   */\n      dup4\n        /* \"#utility.yul\":6246:6247   */\n      dup2\n        /* \"#utility.yul\":6243:6256   */\n      lt\n        /* \"#utility.yul\":6224:6508   */\n      iszero\n      tag_676\n      jumpi\n        /* \"#utility.yul\":6325:6331   */\n      dup2\n        /* \"#utility.yul\":6319:6332   */\n      mload\n        /* \"#utility.yul\":6352:6415   */\n      tag_677\n        /* \"#utility.yul\":6411:6414   */\n      dup9\n        /* \"#utility.yul\":6396:6409   */\n      dup3\n        /* \"#utility.yul\":6352:6415   */\n      tag_523\n      jump\t// in\n    tag_677:\n        /* \"#utility.yul\":6345:6415   */\n      swap8\n      pop\n        /* \"#utility.yul\":6438:6498   */\n      tag_678\n        /* \"#utility.yul\":6491:6497   */\n      dup4\n        /* \"#utility.yul\":6438:6498   */\n      tag_524\n      jump\t// in\n    tag_678:\n        /* \"#utility.yul\":6428:6498   */\n      swap3\n      pop\n        /* \"#utility.yul\":6284:6508   */\n      pop\n        /* \"#utility.yul\":6271:6272   */\n      0x01\n        /* \"#utility.yul\":6268:6269   */\n      dup2\n        /* \"#utility.yul\":6264:6273   */\n      add\n        /* \"#utility.yul\":6259:6273   */\n      swap1\n      pop\n        /* \"#utility.yul\":6224:6508   */\n      jump(tag_674)\n    tag_676:\n        /* \"#utility.yul\":6228:6242   */\n      pop\n        /* \"#utility.yul\":6524:6527   */\n      dup6\n        /* \"#utility.yul\":6517:6527   */\n      swap4\n      pop\n        /* \"#utility.yul\":5925:6533   */\n      pop\n      pop\n      pop\n        /* \"#utility.yul\":5801:6533   */\n      swap3\n      swap2\n      pop\n      pop\n      jump\t// out\n        /* \"#utility.yul\":6539:6912   */\n    tag_49:\n        /* \"#utility.yul\":6682:6686   */\n      0x00\n        /* \"#utility.yul\":6720:6722   */\n      0x20\n        /* \"#utility.yul\":6709:6718   */\n      dup3\n        /* \"#utility.yul\":6705:6723   */\n      add\n        /* \"#utility.yul\":6697:6723   */\n      swap1\n      pop\n        /* \"#utility.yul\":6769:6778   */\n      dup2\n        /* \"#utility.yul\":6763:6767   */\n      dup2\n        /* \"#utility.yul\":6759:6779   */\n      sub\n        /* \"#utility.yul\":6755:6756   */\n      0x00\n        /* \"#utility.yul\":6744:6753   */\n      dup4\n        /* \"#utility.yul\":6740:6757   */\n      add\n        /* \"#utility.yul\":6733:6780   */\n      mstore\n        /* \"#utility.yul\":6797:6905   */\n      tag_680\n        /* \"#utility.yul\":6900:6904   */\n      dup2\n        /* \"#utility.yul\":6891:6897   */\n      dup5\n        /* \"#utility.yul\":6797:6905   */\n      tag_525\n      jump\t// in\n    tag_680:\n        /* \"#utility.yul\":6789:6905   */\n      swap1\n      pop\n        /* \"#utility.yul\":6539:6912   */\n      swap3\n      swap2\n      pop\n      pop\n      jump\t// out\n        /* \"#utility.yul\":6918:7247   */\n    tag_55:\n        /* \"#utility.yul\":6977:6983   */\n      0x00\n        /* \"#utility.yul\":7026:7028   */\n      0x20\n        /* \"#utility.yul\":7014:7023   */\n      dup3\n        /* \"#utility.yul\":7005:7012   */\n      dup5\n        /* \"#utility.yul\":7001:7024   */\n      sub\n        /* \"#utility.yul\":6997:7029   */\n      slt\n        /* \"#utility.yul\":6994:7113   */\n      iszero\n      tag_682\n      jumpi\n        /* \"#utility.yul\":7032:7111   */\n      tag_683\n      tag_500\n      jump\t// in\n    tag_683:\n        /* \"#utility.yul\":6994:7113   */\n    tag_682:\n        /* \"#utility.yul\":7152:7153   */\n      0x00\n        /* \"#utility.yul\":7177:7230   */\n      tag_684\n        /* \"#utility.yul\":7222:7229   */\n      dup5\n        /* \"#utility.yul\":7213:7219   */\n      dup3\n        /* \"#utility.yul\":7202:7211   */\n      dup6\n        /* \"#utility.yul\":7198:7220   */\n      add\n        /* \"#utility.yul\":7177:7230   */\n      tag_510\n      jump\t// in\n    tag_684:\n        /* \"#utility.yul\":7167:7230   */\n      swap2\n      pop\n        /* \"#utility.yul\":7123:7240   */\n      pop\n        /* \"#utility.yul\":6918:7247   */\n      swap3\n      swap2\n      pop\n      pop\n      jump\t// out\n        /* \"#utility.yul\":7253:7727   */\n    tag_60:\n        /* \"#utility.yul\":7321:7327   */\n      0x00\n        /* \"#utility.yul\":7329:7335   */\n      dup1\n        /* \"#utility.yul\":7378:7380   */\n      0x40\n        /* \"#utility.yul\":7366:7375   */\n      dup4\n        /* \"#utility.yul\":7357:7364   */\n      dup6\n        /* \"#utility.yul\":7353:7376   */\n      sub\n        /* \"#utility.yul\":7349:7381   */\n      slt\n        /* \"#utility.yul\":7346:7465   */\n      iszero\n      tag_686\n      jumpi\n        /* \"#utility.yul\":7384:7463   */\n      tag_687\n      tag_500\n      jump\t// in\n    tag_687:\n        /* \"#utility.yul\":7346:7465   */\n    tag_686:\n        /* \"#utility.yul\":7504:7505   */\n      0x00\n        /* \"#utility.yul\":7529:7582   */\n      tag_688\n        /* \"#utility.yul\":7574:7581   */\n      dup6\n        /* \"#utility.yul\":7565:7571   */\n      dup3\n        /* \"#utility.yul\":7554:7563   */\n      dup7\n        /* \"#utility.yul\":7550:7572   */\n      add\n        /* \"#utility.yul\":7529:7582   */\n      tag_510\n      jump\t// in\n    tag_688:\n        /* \"#utility.yul\":7519:7582   */\n      swap3\n      pop\n        /* \"#utility.yul\":7475:7592   */\n      pop\n        /* \"#utility.yul\":7631:7633   */\n      0x20\n        /* \"#utility.yul\":7657:7710   */\n      tag_689\n        /* \"#utility.yul\":7702:7709   */\n      dup6\n        /* \"#utility.yul\":7693:7699   */\n      dup3\n        /* \"#utility.yul\":7682:7691   */\n      dup7\n        /* \"#utility.yul\":7678:7700   */\n      add\n        /* \"#utility.yul\":7657:7710   */\n      tag_505\n      jump\t// in\n    tag_689:\n        /* \"#utility.yul\":7647:7710   */\n      swap2\n      pop\n        /* \"#utility.yul\":7602:7720   */\n      pop\n        /* \"#utility.yul\":7253:7727   */\n      swap3\n      pop\n      swap3\n      swap1\n      pop\n      jump\t// out\n        /* \"#utility.yul\":7733:7850   */\n    tag_526:\n        /* \"#utility.yul\":7842:7843   */\n      0x00\n        /* \"#utility.yul\":7839:7840   */\n      dup1\n        /* \"#utility.yul\":7832:7844   */\n      revert\n        /* \"#utility.yul\":7856:7973   */\n    tag_527:\n        /* \"#utility.yul\":7965:7966   */\n      0x00\n        /* \"#utility.yul\":7962:7963   */\n      dup1\n        /* \"#utility.yul\":7955:7967   */\n      revert\n        /* \"#utility.yul\":7979:8159   */\n    tag_299:\n        /* \"#utility.yul\":8027:8104   */\n      0x4e487b7100000000000000000000000000000000000000000000000000000000\n        /* \"#utility.yul\":8024:8025   */\n      0x00\n        /* \"#utility.yul\":8017:8105   */\n      mstore\n        /* \"#utility.yul\":8124:8128   */\n      0x41\n        /* \"#utility.yul\":8121:8122   */\n      0x04\n        /* \"#utility.yul\":8114:8129   */\n      mstore\n        /* \"#utility.yul\":8148:8152   */\n      0x24\n        /* \"#utility.yul\":8145:8146   */\n      0x00\n        /* \"#utility.yul\":8138:8153   */\n      revert\n        /* \"#utility.yul\":8165:8446   */\n    tag_528:\n        /* \"#utility.yul\":8248:8275   */\n      tag_694\n        /* \"#utility.yul\":8270:8274   */\n      dup3\n        /* \"#utility.yul\":8248:8275   */\n      tag_516\n      jump\t// in\n    tag_694:\n        /* \"#utility.yul\":8240:8246   */\n      dup2\n        /* \"#utility.yul\":8236:8276   */\n      add\n        /* \"#utility.yul\":8378:8384   */\n      dup2\n        /* \"#utility.yul\":8366:8376   */\n      dup2\n        /* \"#utility.yul\":8363:8385   */\n      lt\n        /* \"#utility.yul\":8342:8360   */\n      0xffffffffffffffff\n        /* \"#utility.yul\":8330:8340   */\n      dup3\n        /* \"#utility.yul\":8327:8361   */\n      gt\n        /* \"#utility.yul\":8324:8386   */\n      or\n        /* \"#utility.yul\":8321:8409   */\n      iszero\n      tag_695\n      jumpi\n        /* \"#utility.yul\":8389:8407   */\n      tag_696\n      tag_299\n      jump\t// in\n    tag_696:\n        /* \"#utility.yul\":8321:8409   */\n    tag_695:\n        /* \"#utility.yul\":8429:8439   */\n      dup1\n        /* \"#utility.yul\":8425:8427   */\n      0x40\n        /* \"#utility.yul\":8418:8440   */\n      mstore\n        /* \"#utility.yul\":8208:8446   */\n      pop\n        /* \"#utility.yul\":8165:8446   */\n      pop\n      pop\n      jump\t// out\n        /* \"#utility.yul\":8452:8581   */\n    tag_529:\n        /* \"#utility.yul\":8486:8492   */\n      0x00\n        /* \"#utility.yul\":8513:8533   */\n      tag_698\n      tag_499\n      jump\t// in\n    tag_698:\n        /* \"#utility.yul\":8503:8533   */\n      swap1\n      pop\n        /* \"#utility.yul\":8542:8575   */\n      tag_699\n        /* \"#utility.yul\":8570:8574   */\n      dup3\n        /* \"#utility.yul\":8562:8568   */\n      dup3\n        /* \"#utility.yul\":8542:8575   */\n      tag_528\n      jump\t// in\n    tag_699:\n        /* \"#utility.yul\":8452:8581   */\n      swap2\n      swap1\n      pop\n      jump\t// out\n        /* \"#utility.yul\":8587:8895   */\n    tag_530:\n        /* \"#utility.yul\":8649:8653   */\n      0x00\n        /* \"#utility.yul\":8739:8757   */\n      0xffffffffffffffff\n        /* \"#utility.yul\":8731:8737   */\n      dup3\n        /* \"#utility.yul\":8728:8758   */\n      gt\n        /* \"#utility.yul\":8725:8781   */\n      iszero\n      tag_701\n      jumpi\n        /* \"#utility.yul\":8761:8779   */\n      tag_702\n      tag_299\n      jump\t// in\n    tag_702:\n        /* \"#utility.yul\":8725:8781   */\n    tag_701:\n        /* \"#utility.yul\":8799:8828   */\n      tag_703\n        /* \"#utility.yul\":8821:8827   */\n      dup3\n        /* \"#utility.yul\":8799:8828   */\n      tag_516\n      jump\t// in\n    tag_703:\n        /* \"#utility.yul\":8791:8828   */\n      swap1\n      pop\n        /* \"#utility.yul\":8883:8887   */\n      0x20\n        /* \"#utility.yul\":8877:8881   */\n      dup2\n        /* \"#utility.yul\":8873:8888   */\n      add\n        /* \"#utility.yul\":8865:8888   */\n      swap1\n      pop\n        /* \"#utility.yul\":8587:8895   */\n      swap2\n      swap1\n      pop\n      jump\t// out\n        /* \"#utility.yul\":8901:9047   */\n    tag_531:\n        /* \"#utility.yul\":8998:9004   */\n      dup3\n        /* \"#utility.yul\":8993:8996   */\n      dup2\n        /* \"#utility.yul\":8988:8991   */\n      dup4\n        /* \"#utility.yul\":8975:9005   */\n      calldatacopy\n        /* \"#utility.yul\":9039:9040   */\n      0x00\n        /* \"#utility.yul\":9030:9036   */\n      dup4\n        /* \"#utility.yul\":9025:9028   */\n      dup4\n        /* \"#utility.yul\":9021:9037   */\n      add\n        /* \"#utility.yul\":9014:9041   */\n      mstore\n        /* \"#utility.yul\":8901:9047   */\n      pop\n      pop\n      pop\n      jump\t// out\n        /* \"#utility.yul\":9053:9478   */\n    tag_532:\n        /* \"#utility.yul\":9131:9136   */\n      0x00\n        /* \"#utility.yul\":9156:9222   */\n      tag_706\n        /* \"#utility.yul\":9172:9221   */\n      tag_707\n        /* \"#utility.yul\":9214:9220   */\n      dup5\n        /* \"#utility.yul\":9172:9221   */\n      tag_530\n      jump\t// in\n    tag_707:\n        /* \"#utility.yul\":9156:9222   */\n      tag_529\n      jump\t// in\n    tag_706:\n        /* \"#utility.yul\":9147:9222   */\n      swap1\n      pop\n        /* \"#utility.yul\":9245:9251   */\n      dup3\n        /* \"#utility.yul\":9238:9243   */\n      dup2\n        /* \"#utility.yul\":9231:9252   */\n      mstore\n        /* \"#utility.yul\":9283:9287   */\n      0x20\n        /* \"#utility.yul\":9276:9281   */\n      dup2\n        /* \"#utility.yul\":9272:9288   */\n      add\n        /* \"#utility.yul\":9321:9324   */\n      dup5\n        /* \"#utility.yul\":9312:9318   */\n      dup5\n        /* \"#utility.yul\":9307:9310   */\n      dup5\n        /* \"#utility.yul\":9303:9319   */\n      add\n        /* \"#utility.yul\":9300:9325   */\n      gt\n        /* \"#utility.yul\":9297:9409   */\n      iszero\n      tag_708\n      jumpi\n        /* \"#utility.yul\":9328:9407   */\n      tag_709\n      tag_527\n      jump\t// in\n    tag_709:\n        /* \"#utility.yul\":9297:9409   */\n    tag_708:\n        /* \"#utility.yul\":9418:9472   */\n      tag_710\n        /* \"#utility.yul\":9465:9471   */\n      dup5\n        /* \"#utility.yul\":9460:9463   */\n      dup3\n        /* \"#utility.yul\":9455:9458   */\n      dup6\n        /* \"#utility.yul\":9418:9472   */\n      tag_531\n      jump\t// in\n    tag_710:\n        /* \"#utility.yul\":9137:9478   */\n      pop\n        /* \"#utility.yul\":9053:9478   */\n      swap4\n      swap3\n      pop\n      pop\n      pop\n      jump\t// out\n        /* \"#utility.yul\":9498:9838   */\n    tag_533:\n        /* \"#utility.yul\":9554:9559   */\n      0x00\n        /* \"#utility.yul\":9603:9606   */\n      dup3\n        /* \"#utility.yul\":9596:9600   */\n      0x1f\n        /* \"#utility.yul\":9588:9594   */\n      dup4\n        /* \"#utility.yul\":9584:9601   */\n      add\n        /* \"#utility.yul\":9580:9607   */\n      slt\n        /* \"#utility.yul\":9570:9692   */\n      tag_712\n      jumpi\n        /* \"#utility.yul\":9611:9690   */\n      tag_713\n      tag_526\n      jump\t// in\n    tag_713:\n        /* \"#utility.yul\":9570:9692   */\n    tag_712:\n        /* \"#utility.yul\":9728:9734   */\n      dup2\n        /* \"#utility.yul\":9715:9735   */\n      calldataload\n        /* \"#utility.yul\":9753:9832   */\n      tag_714\n        /* \"#utility.yul\":9828:9831   */\n      dup5\n        /* \"#utility.yul\":9820:9826   */\n      dup3\n        /* \"#utility.yul\":9813:9817   */\n      0x20\n        /* \"#utility.yul\":9805:9811   */\n      dup7\n        /* \"#utility.yul\":9801:9818   */\n      add\n        /* \"#utility.yul\":9753:9832   */\n      tag_532\n      jump\t// in\n    tag_714:\n        /* \"#utility.yul\":9744:9832   */\n      swap2\n      pop\n        /* \"#utility.yul\":9560:9838   */\n      pop\n        /* \"#utility.yul\":9498:9838   */\n      swap3\n      swap2\n      pop\n      pop\n      jump\t// out\n        /* \"#utility.yul\":9844:11907   */\n    tag_64:\n        /* \"#utility.yul\":10003:10009   */\n      0x00\n        /* \"#utility.yul\":10011:10017   */\n      dup1\n        /* \"#utility.yul\":10019:10025   */\n      0x00\n        /* \"#utility.yul\":10027:10033   */\n      dup1\n        /* \"#utility.yul\":10035:10041   */\n      0x00\n        /* \"#utility.yul\":10043:10049   */\n      dup1\n        /* \"#utility.yul\":10051:10057   */\n      0x00\n        /* \"#utility.yul\":10059:10065   */\n      dup1\n        /* \"#utility.yul\":10108:10111   */\n      0x0100\n        /* \"#utility.yul\":10096:10105   */\n      dup10\n        /* \"#utility.yul\":10087:10094   */\n      dup12\n        /* \"#utility.yul\":10083:10106   */\n      sub\n        /* \"#utility.yul\":10079:10112   */\n      slt\n        /* \"#utility.yul\":10076:10196   */\n      iszero\n      tag_716\n      jumpi\n        /* \"#utility.yul\":10115:10194   */\n      tag_717\n      tag_500\n      jump\t// in\n    tag_717:\n        /* \"#utility.yul\":10076:10196   */\n    tag_716:\n        /* \"#utility.yul\":10235:10236   */\n      0x00\n        /* \"#utility.yul\":10260:10313   */\n      tag_718\n        /* \"#utility.yul\":10305:10312   */\n      dup12\n        /* \"#utility.yul\":10296:10302   */\n      dup3\n        /* \"#utility.yul\":10285:10294   */\n      dup13\n        /* \"#utility.yul\":10281:10303   */\n      add\n        /* \"#utility.yul\":10260:10313   */\n      tag_505\n      jump\t// in\n    tag_718:\n        /* \"#utility.yul\":10250:10313   */\n      swap9\n      pop\n        /* \"#utility.yul\":10206:10323   */\n      pop\n        /* \"#utility.yul\":10390:10392   */\n      0x20\n        /* \"#utility.yul\":10379:10388   */\n      dup10\n        /* \"#utility.yul\":10375:10393   */\n      add\n        /* \"#utility.yul\":10362:10394   */\n      calldataload\n        /* \"#utility.yul\":10421:10439   */\n      0xffffffffffffffff\n        /* \"#utility.yul\":10413:10419   */\n      dup2\n        /* \"#utility.yul\":10410:10440   */\n      gt\n        /* \"#utility.yul\":10407:10524   */\n      iszero\n      tag_719\n      jumpi\n        /* \"#utility.yul\":10443:10522   */\n      tag_720\n      tag_501\n      jump\t// in\n    tag_720:\n        /* \"#utility.yul\":10407:10524   */\n    tag_719:\n        /* \"#utility.yul\":10548:10611   */\n      tag_721\n        /* \"#utility.yul\":10603:10610   */\n      dup12\n        /* \"#utility.yul\":10594:10600   */\n      dup3\n        /* \"#utility.yul\":10583:10592   */\n      dup13\n        /* \"#utility.yul\":10579:10601   */\n      add\n        /* \"#utility.yul\":10548:10611   */\n      tag_533\n      jump\t// in\n    tag_721:\n        /* \"#utility.yul\":10538:10611   */\n      swap8\n      pop\n        /* \"#utility.yul\":10333:10621   */\n      pop\n        /* \"#utility.yul\":10688:10690   */\n      0x40\n        /* \"#utility.yul\":10677:10686   */\n      dup10\n        /* \"#utility.yul\":10673:10691   */\n      add\n        /* \"#utility.yul\":10660:10692   */\n      calldataload\n        /* \"#utility.yul\":10719:10737   */\n      0xffffffffffffffff\n        /* \"#utility.yul\":10711:10717   */\n      dup2\n        /* \"#utility.yul\":10708:10738   */\n      gt\n        /* \"#utility.yul\":10705:10822   */\n      iszero\n      tag_722\n      jumpi\n        /* \"#utility.yul\":10741:10820   */\n      tag_723\n      tag_501\n      jump\t// in\n    tag_723:\n        /* \"#utility.yul\":10705:10822   */\n    tag_722:\n        /* \"#utility.yul\":10846:10909   */\n      tag_724\n        /* \"#utility.yul\":10901:10908   */\n      dup12\n        /* \"#utility.yul\":10892:10898   */\n      dup3\n        /* \"#utility.yul\":10881:10890   */\n      dup13\n        /* \"#utility.yul\":10877:10899   */\n      add\n        /* \"#utility.yul\":10846:10909   */\n      tag_533\n      jump\t// in\n    tag_724:\n        /* \"#utility.yul\":10836:10909   */\n      swap7\n      pop\n        /* \"#utility.yul\":10631:10919   */\n      pop\n        /* \"#utility.yul\":10986:10988   */\n      0x60\n        /* \"#utility.yul\":10975:10984   */\n      dup10\n        /* \"#utility.yul\":10971:10989   */\n      add\n        /* \"#utility.yul\":10958:10990   */\n      calldataload\n        /* \"#utility.yul\":11017:11035   */\n      0xffffffffffffffff\n        /* \"#utility.yul\":11009:11015   */\n      dup2\n        /* \"#utility.yul\":11006:11036   */\n      gt\n        /* \"#utility.yul\":11003:11120   */\n      iszero\n      tag_725\n      jumpi\n        /* \"#utility.yul\":11039:11118   */\n      tag_726\n      tag_501\n      jump\t// in\n    tag_726:\n        /* \"#utility.yul\":11003:11120   */\n    tag_725:\n        /* \"#utility.yul\":11144:11207   */\n      tag_727\n        /* \"#utility.yul\":11199:11206   */\n      dup12\n        /* \"#utility.yul\":11190:11196   */\n      dup3\n        /* \"#utility.yul\":11179:11188   */\n      dup13\n        /* \"#utility.yul\":11175:11197   */\n      add\n        /* \"#utility.yul\":11144:11207   */\n      tag_533\n      jump\t// in\n    tag_727:\n        /* \"#utility.yul\":11134:11207   */\n      swap6\n      pop\n        /* \"#utility.yul\":10929:11217   */\n      pop\n        /* \"#utility.yul\":11284:11287   */\n      0x80\n        /* \"#utility.yul\":11273:11282   */\n      dup10\n        /* \"#utility.yul\":11269:11288   */\n      add\n        /* \"#utility.yul\":11256:11289   */\n      calldataload\n        /* \"#utility.yul\":11316:11334   */\n      0xffffffffffffffff\n        /* \"#utility.yul\":11308:11314   */\n      dup2\n        /* \"#utility.yul\":11305:11335   */\n      gt\n        /* \"#utility.yul\":11302:11419   */\n      iszero\n      tag_728\n      jumpi\n        /* \"#utility.yul\":11338:11417   */\n      tag_729\n      tag_501\n      jump\t// in\n    tag_729:\n        /* \"#utility.yul\":11302:11419   */\n    tag_728:\n        /* \"#utility.yul\":11443:11506   */\n      tag_730\n        /* \"#utility.yul\":11498:11505   */\n      dup12\n        /* \"#utility.yul\":11489:11495   */\n      dup3\n        /* \"#utility.yul\":11478:11487   */\n      dup13\n        /* \"#utility.yul\":11474:11496   */\n      add\n        /* \"#utility.yul\":11443:11506   */\n      tag_533\n      jump\t// in\n    tag_730:\n        /* \"#utility.yul\":11433:11506   */\n      swap5\n      pop\n        /* \"#utility.yul\":11227:11516   */\n      pop\n        /* \"#utility.yul\":11555:11558   */\n      0xa0\n        /* \"#utility.yul\":11582:11632   */\n      tag_731\n        /* \"#utility.yul\":11624:11631   */\n      dup12\n        /* \"#utility.yul\":11615:11621   */\n      dup3\n        /* \"#utility.yul\":11604:11613   */\n      dup13\n        /* \"#utility.yul\":11600:11622   */\n      add\n        /* \"#utility.yul\":11582:11632   */\n      tag_512\n      jump\t// in\n    tag_731:\n        /* \"#utility.yul\":11572:11632   */\n      swap4\n      pop\n        /* \"#utility.yul\":11526:11642   */\n      pop\n        /* \"#utility.yul\":11681:11684   */\n      0xc0\n        /* \"#utility.yul\":11708:11761   */\n      tag_732\n        /* \"#utility.yul\":11753:11760   */\n      dup12\n        /* \"#utility.yul\":11744:11750   */\n      dup3\n        /* \"#utility.yul\":11733:11742   */\n      dup13\n        /* \"#utility.yul\":11729:11751   */\n      add\n        /* \"#utility.yul\":11708:11761   */\n      tag_510\n      jump\t// in\n    tag_732:\n        /* \"#utility.yul\":11698:11761   */\n      swap3\n      pop\n        /* \"#utility.yul\":11652:11771   */\n      pop\n        /* \"#utility.yul\":11810:11813   */\n      0xe0\n        /* \"#utility.yul\":11837:11890   */\n      tag_733\n        /* \"#utility.yul\":11882:11889   */\n      dup12\n        /* \"#utility.yul\":11873:11879   */\n      dup3\n        /* \"#utility.yul\":11862:11871   */\n      dup13\n        /* \"#utility.yul\":11858:11880   */\n      add\n        /* \"#utility.yul\":11837:11890   */\n      tag_510\n      jump\t// in\n    tag_733:\n        /* \"#utility.yul\":11827:11890   */\n      swap2\n      pop\n        /* \"#utility.yul\":11781:11900   */\n      pop\n        /* \"#utility.yul\":9844:11907   */\n      swap3\n      swap6\n      swap9\n      pop\n      swap3\n      swap6\n      swap9\n      swap1\n      swap4\n      swap7\n      pop\n      jump\t// out\n        /* \"#utility.yul\":11913:12567   */\n    tag_73:\n        /* \"#utility.yul\":11991:11997   */\n      0x00\n        /* \"#utility.yul\":11999:12005   */\n      dup1\n        /* \"#utility.yul\":12048:12050   */\n      0x40\n        /* \"#utility.yul\":12036:12045   */\n      dup4\n        /* \"#utility.yul\":12027:12034   */\n      dup6\n        /* \"#utility.yul\":12023:12046   */\n      sub\n        /* \"#utility.yul\":12019:12051   */\n      slt\n        /* \"#utility.yul\":12016:12135   */\n      iszero\n      tag_735\n      jumpi\n        /* \"#utility.yul\":12054:12133   */\n      tag_736\n      tag_500\n      jump\t// in\n    tag_736:\n        /* \"#utility.yul\":12016:12135   */\n    tag_735:\n        /* \"#utility.yul\":12202:12203   */\n      0x00\n        /* \"#utility.yul\":12191:12200   */\n      dup4\n        /* \"#utility.yul\":12187:12204   */\n      add\n        /* \"#utility.yul\":12174:12205   */\n      calldataload\n        /* \"#utility.yul\":12232:12250   */\n      0xffffffffffffffff\n        /* \"#utility.yul\":12224:12230   */\n      dup2\n        /* \"#utility.yul\":12221:12251   */\n      gt\n        /* \"#utility.yul\":12218:12335   */\n      iszero\n      tag_737\n      jumpi\n        /* \"#utility.yul\":12254:12333   */\n      tag_738\n      tag_501\n      jump\t// in\n    tag_738:\n        /* \"#utility.yul\":12218:12335   */\n    tag_737:\n        /* \"#utility.yul\":12359:12422   */\n      tag_739\n        /* \"#utility.yul\":12414:12421   */\n      dup6\n        /* \"#utility.yul\":12405:12411   */\n      dup3\n        /* \"#utility.yul\":12394:12403   */\n      dup7\n        /* \"#utility.yul\":12390:12412   */\n      add\n        /* \"#utility.yul\":12359:12422   */\n      tag_533\n      jump\t// in\n    tag_739:\n        /* \"#utility.yul\":12349:12422   */\n      swap3\n      pop\n        /* \"#utility.yul\":12145:12432   */\n      pop\n        /* \"#utility.yul\":12471:12473   */\n      0x20\n        /* \"#utility.yul\":12497:12550   */\n      tag_740\n        /* \"#utility.yul\":12542:12549   */\n      dup6\n        /* \"#utility.yul\":12533:12539   */\n      dup3\n        /* \"#utility.yul\":12522:12531   */\n      dup7\n        /* \"#utility.yul\":12518:12540   */\n      add\n        /* \"#utility.yul\":12497:12550   */\n      tag_505\n      jump\t// in\n    tag_740:\n        /* \"#utility.yul\":12487:12550   */\n      swap2\n      pop\n        /* \"#utility.yul\":12442:12560   */\n      pop\n        /* \"#utility.yul\":11913:12567   */\n      swap3\n      pop\n      swap3\n      swap1\n      pop\n      jump\t// out\n        /* \"#utility.yul\":12573:12717   */\n    tag_534:\n        /* \"#utility.yul\":12670:12676   */\n      0x00\n        /* \"#utility.yul\":12704:12709   */\n      dup2\n        /* \"#utility.yul\":12698:12710   */\n      mload\n        /* \"#utility.yul\":12688:12710   */\n      swap1\n      pop\n        /* \"#utility.yul\":12573:12717   */\n      swap2\n      swap1\n      pop\n      jump\t// out\n        /* \"#utility.yul\":12723:12937   */\n    tag_535:\n        /* \"#utility.yul\":12852:12863   */\n      0x00\n        /* \"#utility.yul\":12886:12892   */\n      dup3\n        /* \"#utility.yul\":12881:12884   */\n      dup3\n        /* \"#utility.yul\":12874:12893   */\n      mstore\n        /* \"#utility.yul\":12926:12930   */\n      0x20\n        /* \"#utility.yul\":12921:12924   */\n      dup3\n        /* \"#utility.yul\":12917:12931   */\n      add\n        /* \"#utility.yul\":12902:12931   */\n      swap1\n      pop\n        /* \"#utility.yul\":12723:12937   */\n      swap3\n      swap2\n      pop\n      pop\n      jump\t// out\n        /* \"#utility.yul\":12943:13105   */\n    tag_536:\n        /* \"#utility.yul\":13040:13044   */\n      0x00\n        /* \"#utility.yul\":13063:13066   */\n      dup2\n        /* \"#utility.yul\":13055:13066   */\n      swap1\n      pop\n        /* \"#utility.yul\":13093:13097   */\n      0x20\n        /* \"#utility.yul\":13088:13091   */\n      dup3\n        /* \"#utility.yul\":13084:13098   */\n      add\n        /* \"#utility.yul\":13076:13098   */\n      swap1\n      pop\n        /* \"#utility.yul\":12943:13105   */\n      swap2\n      swap1\n      pop\n      jump\t// out\n        /* \"#utility.yul\":13111:13219   */\n    tag_537:\n        /* \"#utility.yul\":13188:13212   */\n      tag_745\n        /* \"#utility.yul\":13206:13211   */\n      dup2\n        /* \"#utility.yul\":13188:13212   */\n      tag_508\n      jump\t// in\n    tag_745:\n        /* \"#utility.yul\":13183:13186   */\n      dup3\n        /* \"#utility.yul\":13176:13213   */\n      mstore\n        /* \"#utility.yul\":13111:13219   */\n      pop\n      pop\n      jump\t// out\n        /* \"#utility.yul\":13287:13802   */\n    tag_538:\n        /* \"#utility.yul\":13434:13438   */\n      0x40\n        /* \"#utility.yul\":13429:13432   */\n      dup3\n        /* \"#utility.yul\":13425:13439   */\n      add\n        /* \"#utility.yul\":13526:13530   */\n      0x00\n        /* \"#utility.yul\":13519:13524   */\n      dup3\n        /* \"#utility.yul\":13515:13531   */\n      add\n        /* \"#utility.yul\":13509:13532   */\n      mload\n        /* \"#utility.yul\":13545:13608   */\n      tag_747\n        /* \"#utility.yul\":13602:13606   */\n      0x00\n        /* \"#utility.yul\":13597:13600   */\n      dup6\n        /* \"#utility.yul\":13593:13607   */\n      add\n        /* \"#utility.yul\":13579:13591   */\n      dup3\n        /* \"#utility.yul\":13545:13608   */\n      tag_537\n      jump\t// in\n    tag_747:\n        /* \"#utility.yul\":13449:13618   */\n      pop\n        /* \"#utility.yul\":13703:13707   */\n      0x20\n        /* \"#utility.yul\":13696:13701   */\n      dup3\n        /* \"#utility.yul\":13692:13708   */\n      add\n        /* \"#utility.yul\":13686:13709   */\n      mload\n        /* \"#utility.yul\":13722:13785   */\n      tag_748\n        /* \"#utility.yul\":13779:13783   */\n      0x20\n        /* \"#utility.yul\":13774:13777   */\n      dup6\n        /* \"#utility.yul\":13770:13784   */\n      add\n        /* \"#utility.yul\":13756:13768   */\n      dup3\n        /* \"#utility.yul\":13722:13785   */\n      tag_518\n      jump\t// in\n    tag_748:\n        /* \"#utility.yul\":13628:13795   */\n      pop\n        /* \"#utility.yul\":13403:13802   */\n      pop\n        /* \"#utility.yul\":13287:13802   */\n      pop\n      pop\n      jump\t// out\n        /* \"#utility.yul\":13808:14107   */\n    tag_539:\n        /* \"#utility.yul\":13937:13947   */\n      0x00\n        /* \"#utility.yul\":13958:14064   */\n      tag_750\n        /* \"#utility.yul\":14060:14063   */\n      dup4\n        /* \"#utility.yul\":14052:14058   */\n      dup4\n        /* \"#utility.yul\":13958:14064   */\n      tag_538\n      jump\t// in\n    tag_750:\n        /* \"#utility.yul\":14096:14100   */\n      0x40\n        /* \"#utility.yul\":14091:14094   */\n      dup4\n        /* \"#utility.yul\":14087:14101   */\n      add\n        /* \"#utility.yul\":14073:14101   */\n      swap1\n      pop\n        /* \"#utility.yul\":13808:14107   */\n      swap3\n      swap2\n      pop\n      pop\n      jump\t// out\n        /* \"#utility.yul\":14113:14256   */\n    tag_540:\n        /* \"#utility.yul\":14213:14217   */\n      0x00\n        /* \"#utility.yul\":14245:14249   */\n      0x20\n        /* \"#utility.yul\":14240:14243   */\n      dup3\n        /* \"#utility.yul\":14236:14250   */\n      add\n        /* \"#utility.yul\":14228:14250   */\n      swap1\n      pop\n        /* \"#utility.yul\":14113:14256   */\n      swap2\n      swap1\n      pop\n      jump\t// out\n        /* \"#utility.yul\":14328:15300   */\n    tag_541:\n        /* \"#utility.yul\":14507:14510   */\n      0x00\n        /* \"#utility.yul\":14536:14620   */\n      tag_753\n        /* \"#utility.yul\":14614:14619   */\n      dup3\n        /* \"#utility.yul\":14536:14620   */\n      tag_534\n      jump\t// in\n    tag_753:\n        /* \"#utility.yul\":14636:14752   */\n      tag_754\n        /* \"#utility.yul\":14745:14751   */\n      dup2\n        /* \"#utility.yul\":14740:14743   */\n      dup6\n        /* \"#utility.yul\":14636:14752   */\n      tag_535\n      jump\t// in\n    tag_754:\n        /* \"#utility.yul\":14629:14752   */\n      swap4\n      pop\n        /* \"#utility.yul\":14776:14862   */\n      tag_755\n        /* \"#utility.yul\":14856:14861   */\n      dup4\n        /* \"#utility.yul\":14776:14862   */\n      tag_536\n      jump\t// in\n    tag_755:\n        /* \"#utility.yul\":14885:14892   */\n      dup1\n        /* \"#utility.yul\":14916:14917   */\n      0x00\n        /* \"#utility.yul\":14901:15275   */\n    tag_756:\n        /* \"#utility.yul\":14926:14932   */\n      dup4\n        /* \"#utility.yul\":14923:14924   */\n      dup2\n        /* \"#utility.yul\":14920:14933   */\n      lt\n        /* \"#utility.yul\":14901:15275   */\n      iszero\n      tag_758\n      jumpi\n        /* \"#utility.yul\":15002:15008   */\n      dup2\n        /* \"#utility.yul\":14996:15009   */\n      mload\n        /* \"#utility.yul\":15029:15152   */\n      tag_759\n        /* \"#utility.yul\":15148:15151   */\n      dup9\n        /* \"#utility.yul\":15133:15146   */\n      dup3\n        /* \"#utility.yul\":15029:15152   */\n      tag_539\n      jump\t// in\n    tag_759:\n        /* \"#utility.yul\":15022:15152   */\n      swap8\n      pop\n        /* \"#utility.yul\":15175:15265   */\n      tag_760\n        /* \"#utility.yul\":15258:15264   */\n      dup4\n        /* \"#utility.yul\":15175:15265   */\n      tag_540\n      jump\t// in\n    tag_760:\n        /* \"#utility.yul\":15165:15265   */\n      swap3\n      pop\n        /* \"#utility.yul\":14961:15275   */\n      pop\n        /* \"#utility.yul\":14948:14949   */\n      0x01\n        /* \"#utility.yul\":14945:14946   */\n      dup2\n        /* \"#utility.yul\":14941:14950   */\n      add\n        /* \"#utility.yul\":14936:14950   */\n      swap1\n      pop\n        /* \"#utility.yul\":14901:15275   */\n      jump(tag_756)\n    tag_758:\n        /* \"#utility.yul\":14905:14919   */\n      pop\n        /* \"#utility.yul\":15291:15294   */\n      dup6\n        /* \"#utility.yul\":15284:15294   */\n      swap4\n      pop\n        /* \"#utility.yul\":14512:15300   */\n      pop\n      pop\n      pop\n        /* \"#utility.yul\":14328:15300   */\n      swap3\n      swap2\n      pop\n      pop\n      jump\t// out\n        /* \"#utility.yul\":15306:15799   */\n    tag_91:\n        /* \"#utility.yul\":15509:15513   */\n      0x00\n        /* \"#utility.yul\":15547:15549   */\n      0x20\n        /* \"#utility.yul\":15536:15545   */\n      dup3\n        /* \"#utility.yul\":15532:15550   */\n      add\n        /* \"#utility.yul\":15524:15550   */\n      swap1\n      pop\n        /* \"#utility.yul\":15596:15605   */\n      dup2\n        /* \"#utility.yul\":15590:15594   */\n      dup2\n        /* \"#utility.yul\":15586:15606   */\n      sub\n        /* \"#utility.yul\":15582:15583   */\n      0x00\n        /* \"#utility.yul\":15571:15580   */\n      dup4\n        /* \"#utility.yul\":15567:15584   */\n      add\n        /* \"#utility.yul\":15560:15607   */\n      mstore\n        /* \"#utility.yul\":15624:15792   */\n      tag_762\n        /* \"#utility.yul\":15787:15791   */\n      dup2\n        /* \"#utility.yul\":15778:15784   */\n      dup5\n        /* \"#utility.yul\":15624:15792   */\n      tag_541\n      jump\t// in\n    tag_762:\n        /* \"#utility.yul\":15616:15792   */\n      swap1\n      pop\n        /* \"#utility.yul\":15306:15799   */\n      swap3\n      swap2\n      pop\n      pop\n      jump\t// out\n        /* \"#utility.yul\":15805:15979   */\n    tag_542:\n        /* \"#utility.yul\":15894:15905   */\n      0x00\n        /* \"#utility.yul\":15928:15934   */\n      dup3\n        /* \"#utility.yul\":15923:15926   */\n      dup3\n        /* \"#utility.yul\":15916:15935   */\n      mstore\n        /* \"#utility.yul\":15968:15972   */\n      0x20\n        /* \"#utility.yul\":15963:15966   */\n      dup3\n        /* \"#utility.yul\":15959:15973   */\n      add\n        /* \"#utility.yul\":15944:15973   */\n      swap1\n      pop\n        /* \"#utility.yul\":15805:15979   */\n      swap3\n      swap2\n      pop\n      pop\n      jump\t// out\n        /* \"#utility.yul\":16015:16727   */\n    tag_543:\n        /* \"#utility.yul\":16124:16127   */\n      0x00\n        /* \"#utility.yul\":16153:16207   */\n      tag_765\n        /* \"#utility.yul\":16201:16206   */\n      dup3\n        /* \"#utility.yul\":16153:16207   */\n      tag_520\n      jump\t// in\n    tag_765:\n        /* \"#utility.yul\":16223:16299   */\n      tag_766\n        /* \"#utility.yul\":16292:16298   */\n      dup2\n        /* \"#utility.yul\":16287:16290   */\n      dup6\n        /* \"#utility.yul\":16223:16299   */\n      tag_542\n      jump\t// in\n    tag_766:\n        /* \"#utility.yul\":16216:16299   */\n      swap4\n      pop\n        /* \"#utility.yul\":16323:16379   */\n      tag_767\n        /* \"#utility.yul\":16373:16378   */\n      dup4\n        /* \"#utility.yul\":16323:16379   */\n      tag_522\n      jump\t// in\n    tag_767:\n        /* \"#utility.yul\":16402:16409   */\n      dup1\n        /* \"#utility.yul\":16433:16434   */\n      0x00\n        /* \"#utility.yul\":16418:16702   */\n    tag_768:\n        /* \"#utility.yul\":16443:16449   */\n      dup4\n        /* \"#utility.yul\":16440:16441   */\n      dup2\n        /* \"#utility.yul\":16437:16450   */\n      lt\n        /* \"#utility.yul\":16418:16702   */\n      iszero\n      tag_770\n      jumpi\n        /* \"#utility.yul\":16519:16525   */\n      dup2\n        /* \"#utility.yul\":16513:16526   */\n      mload\n        /* \"#utility.yul\":16546:16609   */\n      tag_771\n        /* \"#utility.yul\":16605:16608   */\n      dup9\n        /* \"#utility.yul\":16590:16603   */\n      dup3\n        /* \"#utility.yul\":16546:16609   */\n      tag_523\n      jump\t// in\n    tag_771:\n        /* \"#utility.yul\":16539:16609   */\n      swap8\n      pop\n        /* \"#utility.yul\":16632:16692   */\n      tag_772\n        /* \"#utility.yul\":16685:16691   */\n      dup4\n        /* \"#utility.yul\":16632:16692   */\n      tag_524\n      jump\t// in\n    tag_772:\n        /* \"#utility.yul\":16622:16692   */\n      swap3\n      pop\n        /* \"#utility.yul\":16478:16702   */\n      pop\n        /* \"#utility.yul\":16465:16466   */\n      0x01\n        /* \"#utility.yul\":16462:16463   */\n      dup2\n        /* \"#utility.yul\":16458:16467   */\n      add\n        /* \"#utility.yul\":16453:16467   */\n      swap1\n      pop\n        /* \"#utility.yul\":16418:16702   */\n      jump(tag_768)\n    tag_770:\n        /* \"#utility.yul\":16422:16436   */\n      pop\n        /* \"#utility.yul\":16718:16721   */\n      dup6\n        /* \"#utility.yul\":16711:16721   */\n      swap4\n      pop\n        /* \"#utility.yul\":16129:16727   */\n      pop\n      pop\n      pop\n        /* \"#utility.yul\":16015:16727   */\n      swap3\n      swap2\n      pop\n      pop\n      jump\t// out\n        /* \"#utility.yul\":16733:16832   */\n    tag_544:\n        /* \"#utility.yul\":16804:16825   */\n      tag_774\n        /* \"#utility.yul\":16819:16824   */\n      dup2\n        /* \"#utility.yul\":16804:16825   */\n      tag_506\n      jump\t// in\n    tag_774:\n        /* \"#utility.yul\":16799:16802   */\n      dup3\n        /* \"#utility.yul\":16792:16826   */\n      mstore\n        /* \"#utility.yul\":16733:16832   */\n      pop\n      pop\n      jump\t// out\n        /* \"#utility.yul\":16888:19082   */\n    tag_545:\n        /* \"#utility.yul\":17005:17008   */\n      0x00\n        /* \"#utility.yul\":17041:17047   */\n      0x0120\n        /* \"#utility.yul\":17036:17039   */\n      dup4\n        /* \"#utility.yul\":17032:17048   */\n      add\n        /* \"#utility.yul\":17137:17141   */\n      0x00\n        /* \"#utility.yul\":17130:17135   */\n      dup4\n        /* \"#utility.yul\":17126:17142   */\n      add\n        /* \"#utility.yul\":17120:17143   */\n      mload\n        /* \"#utility.yul\":17156:17219   */\n      tag_776\n        /* \"#utility.yul\":17213:17217   */\n      0x00\n        /* \"#utility.yul\":17208:17211   */\n      dup7\n        /* \"#utility.yul\":17204:17218   */\n      add\n        /* \"#utility.yul\":17190:17202   */\n      dup3\n        /* \"#utility.yul\":17156:17219   */\n      tag_518\n      jump\t// in\n    tag_776:\n        /* \"#utility.yul\":17058:17229   */\n      pop\n        /* \"#utility.yul\":17315:17319   */\n      0x20\n        /* \"#utility.yul\":17308:17313   */\n      dup4\n        /* \"#utility.yul\":17304:17320   */\n      add\n        /* \"#utility.yul\":17298:17321   */\n      mload\n        /* \"#utility.yul\":17368:17371   */\n      dup5\n        /* \"#utility.yul\":17362:17366   */\n      dup3\n        /* \"#utility.yul\":17358:17372   */\n      sub\n        /* \"#utility.yul\":17351:17355   */\n      0x20\n        /* \"#utility.yul\":17346:17349   */\n      dup7\n        /* \"#utility.yul\":17342:17356   */\n      add\n        /* \"#utility.yul\":17335:17373   */\n      mstore\n        /* \"#utility.yul\":17394:17467   */\n      tag_777\n        /* \"#utility.yul\":17462:17466   */\n      dup3\n        /* \"#utility.yul\":17448:17460   */\n      dup3\n        /* \"#utility.yul\":17394:17467   */\n      tag_517\n      jump\t// in\n    tag_777:\n        /* \"#utility.yul\":17386:17467   */\n      swap2\n      pop\n        /* \"#utility.yul\":17239:17478   */\n      pop\n        /* \"#utility.yul\":17565:17569   */\n      0x40\n        /* \"#utility.yul\":17558:17563   */\n      dup4\n        /* \"#utility.yul\":17554:17570   */\n      add\n        /* \"#utility.yul\":17548:17571   */\n      mload\n        /* \"#utility.yul\":17618:17621   */\n      dup5\n        /* \"#utility.yul\":17612:17616   */\n      dup3\n        /* \"#utility.yul\":17608:17622   */\n      sub\n        /* \"#utility.yul\":17601:17605   */\n      0x40\n        /* \"#utility.yul\":17596:17599   */\n      dup7\n        /* \"#utility.yul\":17592:17606   */\n      add\n        /* \"#utility.yul\":17585:17623   */\n      mstore\n        /* \"#utility.yul\":17644:17717   */\n      tag_778\n        /* \"#utility.yul\":17712:17716   */\n      dup3\n        /* \"#utility.yul\":17698:17710   */\n      dup3\n        /* \"#utility.yul\":17644:17717   */\n      tag_517\n      jump\t// in\n    tag_778:\n        /* \"#utility.yul\":17636:17717   */\n      swap2\n      pop\n        /* \"#utility.yul\":17488:17728   */\n      pop\n        /* \"#utility.yul\":17828:17832   */\n      0x60\n        /* \"#utility.yul\":17821:17826   */\n      dup4\n        /* \"#utility.yul\":17817:17833   */\n      add\n        /* \"#utility.yul\":17811:17834   */\n      mload\n        /* \"#utility.yul\":17881:17884   */\n      dup5\n        /* \"#utility.yul\":17875:17879   */\n      dup3\n        /* \"#utility.yul\":17871:17885   */\n      sub\n        /* \"#utility.yul\":17864:17868   */\n      0x60\n        /* \"#utility.yul\":17859:17862   */\n      dup7\n        /* \"#utility.yul\":17855:17869   */\n      add\n        /* \"#utility.yul\":17848:17886   */\n      mstore\n        /* \"#utility.yul\":17907:17980   */\n      tag_779\n        /* \"#utility.yul\":17975:17979   */\n      dup3\n        /* \"#utility.yul\":17961:17973   */\n      dup3\n        /* \"#utility.yul\":17907:17980   */\n      tag_517\n      jump\t// in\n    tag_779:\n        /* \"#utility.yul\":17899:17980   */\n      swap2\n      pop\n        /* \"#utility.yul\":17738:17991   */\n      pop\n        /* \"#utility.yul\":18090:18094   */\n      0x80\n        /* \"#utility.yul\":18083:18088   */\n      dup4\n        /* \"#utility.yul\":18079:18095   */\n      add\n        /* \"#utility.yul\":18073:18096   */\n      mload\n        /* \"#utility.yul\":18143:18146   */\n      dup5\n        /* \"#utility.yul\":18137:18141   */\n      dup3\n        /* \"#utility.yul\":18133:18147   */\n      sub\n        /* \"#utility.yul\":18126:18130   */\n      0x80\n        /* \"#utility.yul\":18121:18124   */\n      dup7\n        /* \"#utility.yul\":18117:18131   */\n      add\n        /* \"#utility.yul\":18110:18148   */\n      mstore\n        /* \"#utility.yul\":18169:18242   */\n      tag_780\n        /* \"#utility.yul\":18237:18241   */\n      dup3\n        /* \"#utility.yul\":18223:18235   */\n      dup3\n        /* \"#utility.yul\":18169:18242   */\n      tag_517\n      jump\t// in\n    tag_780:\n        /* \"#utility.yul\":18161:18242   */\n      swap2\n      pop\n        /* \"#utility.yul\":18001:18253   */\n      pop\n        /* \"#utility.yul\":18332:18336   */\n      0xa0\n        /* \"#utility.yul\":18325:18330   */\n      dup4\n        /* \"#utility.yul\":18321:18337   */\n      add\n        /* \"#utility.yul\":18315:18338   */\n      mload\n        /* \"#utility.yul\":18351:18414   */\n      tag_781\n        /* \"#utility.yul\":18408:18412   */\n      0xa0\n        /* \"#utility.yul\":18403:18406   */\n      dup7\n        /* \"#utility.yul\":18399:18413   */\n      add\n        /* \"#utility.yul\":18385:18397   */\n      dup3\n        /* \"#utility.yul\":18351:18414   */\n      tag_537\n      jump\t// in\n    tag_781:\n        /* \"#utility.yul\":18263:18424   */\n      pop\n        /* \"#utility.yul\":18503:18507   */\n      0xc0\n        /* \"#utility.yul\":18496:18501   */\n      dup4\n        /* \"#utility.yul\":18492:18508   */\n      add\n        /* \"#utility.yul\":18486:18509   */\n      mload\n        /* \"#utility.yul\":18522:18585   */\n      tag_782\n        /* \"#utility.yul\":18579:18583   */\n      0xc0\n        /* \"#utility.yul\":18574:18577   */\n      dup7\n        /* \"#utility.yul\":18570:18584   */\n      add\n        /* \"#utility.yul\":18556:18568   */\n      dup3\n        /* \"#utility.yul\":18522:18585   */\n      tag_537\n      jump\t// in\n    tag_782:\n        /* \"#utility.yul\":18434:18595   */\n      pop\n        /* \"#utility.yul\":18685:18689   */\n      0xe0\n        /* \"#utility.yul\":18678:18683   */\n      dup4\n        /* \"#utility.yul\":18674:18690   */\n      add\n        /* \"#utility.yul\":18668:18691   */\n      mload\n        /* \"#utility.yul\":18738:18741   */\n      dup5\n        /* \"#utility.yul\":18732:18736   */\n      dup3\n        /* \"#utility.yul\":18728:18742   */\n      sub\n        /* \"#utility.yul\":18721:18725   */\n      0xe0\n        /* \"#utility.yul\":18716:18719   */\n      dup7\n        /* \"#utility.yul\":18712:18726   */\n      add\n        /* \"#utility.yul\":18705:18743   */\n      mstore\n        /* \"#utility.yul\":18764:18867   */\n      tag_783\n        /* \"#utility.yul\":18862:18866   */\n      dup3\n        /* \"#utility.yul\":18848:18860   */\n      dup3\n        /* \"#utility.yul\":18764:18867   */\n      tag_543\n      jump\t// in\n    tag_783:\n        /* \"#utility.yul\":18756:18867   */\n      swap2\n      pop\n        /* \"#utility.yul\":18605:18878   */\n      pop\n        /* \"#utility.yul\":18965:18971   */\n      0x0100\n        /* \"#utility.yul\":18958:18963   */\n      dup4\n        /* \"#utility.yul\":18954:18972   */\n      add\n        /* \"#utility.yul\":18948:18973   */\n      mload\n        /* \"#utility.yul\":18986:19045   */\n      tag_784\n        /* \"#utility.yul\":19037:19043   */\n      0x0100\n        /* \"#utility.yul\":19032:19035   */\n      dup7\n        /* \"#utility.yul\":19028:19044   */\n      add\n        /* \"#utility.yul\":19014:19026   */\n      dup3\n        /* \"#utility.yul\":18986:19045   */\n      tag_544\n      jump\t// in\n    tag_784:\n        /* \"#utility.yul\":18888:19055   */\n      pop\n        /* \"#utility.yul\":19072:19076   */\n      dup1\n        /* \"#utility.yul\":19065:19076   */\n      swap2\n      pop\n        /* \"#utility.yul\":17010:19082   */\n      pop\n        /* \"#utility.yul\":16888:19082   */\n      swap3\n      swap2\n      pop\n      pop\n      jump\t// out\n        /* \"#utility.yul\":19088:19457   */\n    tag_95:\n        /* \"#utility.yul\":19229:19233   */\n      0x00\n        /* \"#utility.yul\":19267:19269   */\n      0x20\n        /* \"#utility.yul\":19256:19265   */\n      dup3\n        /* \"#utility.yul\":19252:19270   */\n      add\n        /* \"#utility.yul\":19244:19270   */\n      swap1\n      pop\n        /* \"#utility.yul\":19316:19325   */\n      dup2\n        /* \"#utility.yul\":19310:19314   */\n      dup2\n        /* \"#utility.yul\":19306:19326   */\n      sub\n        /* \"#utility.yul\":19302:19303   */\n      0x00\n        /* \"#utility.yul\":19291:19300   */\n      dup4\n        /* \"#utility.yul\":19287:19304   */\n      add\n        /* \"#utility.yul\":19280:19327   */\n      mstore\n        /* \"#utility.yul\":19344:19450   */\n      tag_786\n        /* \"#utility.yul\":19445:19449   */\n      dup2\n        /* \"#utility.yul\":19436:19442   */\n      dup5\n        /* \"#utility.yul\":19344:19450   */\n      tag_545\n      jump\t// in\n    tag_786:\n        /* \"#utility.yul\":19336:19450   */\n      swap1\n      pop\n        /* \"#utility.yul\":19088:19457   */\n      swap3\n      swap2\n      pop\n      pop\n      jump\t// out\n        /* \"#utility.yul\":19463:19632   */\n    tag_546:\n        /* \"#utility.yul\":19547:19558   */\n      0x00\n        /* \"#utility.yul\":19581:19587   */\n      dup3\n        /* \"#utility.yul\":19576:19579   */\n      dup3\n        /* \"#utility.yul\":19569:19588   */\n      mstore\n        /* \"#utility.yul\":19621:19625   */\n      0x20\n        /* \"#utility.yul\":19616:19619   */\n      dup3\n        /* \"#utility.yul\":19612:19626   */\n      add\n        /* \"#utility.yul\":19597:19626   */\n      swap1\n      pop\n        /* \"#utility.yul\":19463:19632   */\n      swap3\n      swap2\n      pop\n      pop\n      jump\t// out\n        /* \"#utility.yul\":19638:20015   */\n    tag_547:\n        /* \"#utility.yul\":19726:19729   */\n      0x00\n        /* \"#utility.yul\":19754:19793   */\n      tag_789\n        /* \"#utility.yul\":19787:19792   */\n      dup3\n        /* \"#utility.yul\":19754:19793   */\n      tag_513\n      jump\t// in\n    tag_789:\n        /* \"#utility.yul\":19809:19880   */\n      tag_790\n        /* \"#utility.yul\":19873:19879   */\n      dup2\n        /* \"#utility.yul\":19868:19871   */\n      dup6\n        /* \"#utility.yul\":19809:19880   */\n      tag_546\n      jump\t// in\n    tag_790:\n        /* \"#utility.yul\":19802:19880   */\n      swap4\n      pop\n        /* \"#utility.yul\":19889:19954   */\n      tag_791\n        /* \"#utility.yul\":19947:19953   */\n      dup2\n        /* \"#utility.yul\":19942:19945   */\n      dup6\n        /* \"#utility.yul\":19935:19939   */\n      0x20\n        /* \"#utility.yul\":19928:19933   */\n      dup7\n        /* \"#utility.yul\":19924:19940   */\n      add\n        /* \"#utility.yul\":19889:19954   */\n      tag_515\n      jump\t// in\n    tag_791:\n        /* \"#utility.yul\":19979:20008   */\n      tag_792\n        /* \"#utility.yul\":20001:20007   */\n      dup2\n        /* \"#utility.yul\":19979:20008   */\n      tag_516\n      jump\t// in\n    tag_792:\n        /* \"#utility.yul\":19974:19977   */\n      dup5\n        /* \"#utility.yul\":19970:20009   */\n      add\n        /* \"#utility.yul\":19963:20009   */\n      swap2\n      pop\n        /* \"#utility.yul\":19730:20015   */\n      pop\n        /* \"#utility.yul\":19638:20015   */\n      swap3\n      swap2\n      pop\n      pop\n      jump\t// out\n        /* \"#utility.yul\":20021:20139   */\n    tag_548:\n        /* \"#utility.yul\":20108:20132   */\n      tag_794\n        /* \"#utility.yul\":20126:20131   */\n      dup2\n        /* \"#utility.yul\":20108:20132   */\n      tag_508\n      jump\t// in\n    tag_794:\n        /* \"#utility.yul\":20103:20106   */\n      dup3\n        /* \"#utility.yul\":20096:20133   */\n      mstore\n        /* \"#utility.yul\":20021:20139   */\n      pop\n      pop\n      jump\t// out\n        /* \"#utility.yul\":20145:21383   */\n    tag_103:\n        /* \"#utility.yul\":20480:20484   */\n      0x00\n        /* \"#utility.yul\":20518:20521   */\n      0xe0\n        /* \"#utility.yul\":20507:20516   */\n      dup3\n        /* \"#utility.yul\":20503:20522   */\n      add\n        /* \"#utility.yul\":20495:20522   */\n      swap1\n      pop\n        /* \"#utility.yul\":20532:20597   */\n      tag_796\n        /* \"#utility.yul\":20594:20595   */\n      0x00\n        /* \"#utility.yul\":20583:20592   */\n      dup4\n        /* \"#utility.yul\":20579:20596   */\n      add\n        /* \"#utility.yul\":20570:20576   */\n      dup11\n        /* \"#utility.yul\":20532:20597   */\n      tag_507\n      jump\t// in\n    tag_796:\n        /* \"#utility.yul\":20644:20653   */\n      dup2\n        /* \"#utility.yul\":20638:20642   */\n      dup2\n        /* \"#utility.yul\":20634:20654   */\n      sub\n        /* \"#utility.yul\":20629:20631   */\n      0x20\n        /* \"#utility.yul\":20618:20627   */\n      dup4\n        /* \"#utility.yul\":20614:20632   */\n      add\n        /* \"#utility.yul\":20607:20655   */\n      mstore\n        /* \"#utility.yul\":20672:20750   */\n      tag_797\n        /* \"#utility.yul\":20745:20749   */\n      dup2\n        /* \"#utility.yul\":20736:20742   */\n      dup10\n        /* \"#utility.yul\":20672:20750   */\n      tag_547\n      jump\t// in\n    tag_797:\n        /* \"#utility.yul\":20664:20750   */\n      swap1\n      pop\n        /* \"#utility.yul\":20797:20806   */\n      dup2\n        /* \"#utility.yul\":20791:20795   */\n      dup2\n        /* \"#utility.yul\":20787:20807   */\n      sub\n        /* \"#utility.yul\":20782:20784   */\n      0x40\n        /* \"#utility.yul\":20771:20780   */\n      dup4\n        /* \"#utility.yul\":20767:20785   */\n      add\n        /* \"#utility.yul\":20760:20808   */\n      mstore\n        /* \"#utility.yul\":20825:20903   */\n      tag_798\n        /* \"#utility.yul\":20898:20902   */\n      dup2\n        /* \"#utility.yul\":20889:20895   */\n      dup9\n        /* \"#utility.yul\":20825:20903   */\n      tag_547\n      jump\t// in\n    tag_798:\n        /* \"#utility.yul\":20817:20903   */\n      swap1\n      pop\n        /* \"#utility.yul\":20950:20959   */\n      dup2\n        /* \"#utility.yul\":20944:20948   */\n      dup2\n        /* \"#utility.yul\":20940:20960   */\n      sub\n        /* \"#utility.yul\":20935:20937   */\n      0x60\n        /* \"#utility.yul\":20924:20933   */\n      dup4\n        /* \"#utility.yul\":20920:20938   */\n      add\n        /* \"#utility.yul\":20913:20961   */\n      mstore\n        /* \"#utility.yul\":20978:21056   */\n      tag_799\n        /* \"#utility.yul\":21051:21055   */\n      dup2\n        /* \"#utility.yul\":21042:21048   */\n      dup8\n        /* \"#utility.yul\":20978:21056   */\n      tag_547\n      jump\t// in\n    tag_799:\n        /* \"#utility.yul\":20970:21056   */\n      swap1\n      pop\n        /* \"#utility.yul\":21104:21113   */\n      dup2\n        /* \"#utility.yul\":21098:21102   */\n      dup2\n        /* \"#utility.yul\":21094:21114   */\n      sub\n        /* \"#utility.yul\":21088:21091   */\n      0x80\n        /* \"#utility.yul\":21077:21086   */\n      dup4\n        /* \"#utility.yul\":21073:21092   */\n      add\n        /* \"#utility.yul\":21066:21115   */\n      mstore\n        /* \"#utility.yul\":21132:21210   */\n      tag_800\n        /* \"#utility.yul\":21205:21209   */\n      dup2\n        /* \"#utility.yul\":21196:21202   */\n      dup7\n        /* \"#utility.yul\":21132:21210   */\n      tag_547\n      jump\t// in\n    tag_800:\n        /* \"#utility.yul\":21124:21210   */\n      swap1\n      pop\n        /* \"#utility.yul\":21220:21293   */\n      tag_801\n        /* \"#utility.yul\":21288:21291   */\n      0xa0\n        /* \"#utility.yul\":21277:21286   */\n      dup4\n        /* \"#utility.yul\":21273:21292   */\n      add\n        /* \"#utility.yul\":21264:21270   */\n      dup6\n        /* \"#utility.yul\":21220:21293   */\n      tag_548\n      jump\t// in\n    tag_801:\n        /* \"#utility.yul\":21303:21376   */\n      tag_802\n        /* \"#utility.yul\":21371:21374   */\n      0xc0\n        /* \"#utility.yul\":21360:21369   */\n      dup4\n        /* \"#utility.yul\":21356:21375   */\n      add\n        /* \"#utility.yul\":21347:21353   */\n      dup5\n        /* \"#utility.yul\":21303:21376   */\n      tag_548\n      jump\t// in\n    tag_802:\n        /* \"#utility.yul\":20145:21383   */\n      swap9\n      swap8\n      pop\n      pop\n      pop\n      pop\n      pop\n      pop\n      pop\n      pop\n      jump\t// out\n        /* \"#utility.yul\":21389:21507   */\n    tag_549:\n        /* \"#utility.yul\":21476:21500   */\n      tag_804\n        /* \"#utility.yul\":21494:21499   */\n      dup2\n        /* \"#utility.yul\":21476:21500   */\n      tag_503\n      jump\t// in\n    tag_804:\n        /* \"#utility.yul\":21471:21474   */\n      dup3\n        /* \"#utility.yul\":21464:21501   */\n      mstore\n        /* \"#utility.yul\":21389:21507   */\n      pop\n      pop\n      jump\t// out\n        /* \"#utility.yul\":21513:21735   */\n    tag_113:\n        /* \"#utility.yul\":21606:21610   */\n      0x00\n        /* \"#utility.yul\":21644:21646   */\n      0x20\n        /* \"#utility.yul\":21633:21642   */\n      dup3\n        /* \"#utility.yul\":21629:21647   */\n      add\n        /* \"#utility.yul\":21621:21647   */\n      swap1\n      pop\n        /* \"#utility.yul\":21657:21728   */\n      tag_806\n        /* \"#utility.yul\":21725:21726   */\n      0x00\n        /* \"#utility.yul\":21714:21723   */\n      dup4\n        /* \"#utility.yul\":21710:21727   */\n      add\n        /* \"#utility.yul\":21701:21707   */\n      dup5\n        /* \"#utility.yul\":21657:21728   */\n      tag_549\n      jump\t// in\n    tag_806:\n        /* \"#utility.yul\":21513:21735   */\n      swap3\n      swap2\n      pop\n      pop\n      jump\t// out\n        /* \"#utility.yul\":21741:21968   */\n    tag_550:\n        /* \"#utility.yul\":21881:21915   */\n      0x596f7520646f6e74206861766520617574686f7269747920746f207265766f6b\n        /* \"#utility.yul\":21877:21878   */\n      0x00\n        /* \"#utility.yul\":21869:21875   */\n      dup3\n        /* \"#utility.yul\":21865:21879   */\n      add\n        /* \"#utility.yul\":21858:21916   */\n      mstore\n        /* \"#utility.yul\":21950:21960   */\n      0x6520616363657373000000000000000000000000000000000000000000000000\n        /* \"#utility.yul\":21945:21947   */\n      0x20\n        /* \"#utility.yul\":21937:21943   */\n      dup3\n        /* \"#utility.yul\":21933:21948   */\n      add\n        /* \"#utility.yul\":21926:21961   */\n      mstore\n        /* \"#utility.yul\":21741:21968   */\n      pop\n      jump\t// out\n        /* \"#utility.yul\":21974:22340   */\n    tag_551:\n        /* \"#utility.yul\":22116:22119   */\n      0x00\n        /* \"#utility.yul\":22137:22204   */\n      tag_809\n        /* \"#utility.yul\":22201:22203   */\n      0x28\n        /* \"#utility.yul\":22196:22199   */\n      dup4\n        /* \"#utility.yul\":22137:22204   */\n      tag_546\n      jump\t// in\n    tag_809:\n        /* \"#utility.yul\":22130:22204   */\n      swap2\n      pop\n        /* \"#utility.yul\":22213:22306   */\n      tag_810\n        /* \"#utility.yul\":22302:22305   */\n      dup3\n        /* \"#utility.yul\":22213:22306   */\n      tag_550\n      jump\t// in\n    tag_810:\n        /* \"#utility.yul\":22331:22333   */\n      0x40\n        /* \"#utility.yul\":22326:22329   */\n      dup3\n        /* \"#utility.yul\":22322:22334   */\n      add\n        /* \"#utility.yul\":22315:22334   */\n      swap1\n      pop\n        /* \"#utility.yul\":21974:22340   */\n      swap2\n      swap1\n      pop\n      jump\t// out\n        /* \"#utility.yul\":22346:22765   */\n    tag_117:\n        /* \"#utility.yul\":22512:22516   */\n      0x00\n        /* \"#utility.yul\":22550:22552   */\n      0x20\n        /* \"#utility.yul\":22539:22548   */\n      dup3\n        /* \"#utility.yul\":22535:22553   */\n      add\n        /* \"#utility.yul\":22527:22553   */\n      swap1\n      pop\n        /* \"#utility.yul\":22599:22608   */\n      dup2\n        /* \"#utility.yul\":22593:22597   */\n      dup2\n        /* \"#utility.yul\":22589:22609   */\n      sub\n        /* \"#utility.yul\":22585:22586   */\n      0x00\n        /* \"#utility.yul\":22574:22583   */\n      dup4\n        /* \"#utility.yul\":22570:22587   */\n      add\n        /* \"#utility.yul\":22563:22610   */\n      mstore\n        /* \"#utility.yul\":22627:22758   */\n      tag_812\n        /* \"#utility.yul\":22753:22757   */\n      dup2\n        /* \"#utility.yul\":22627:22758   */\n      tag_551\n      jump\t// in\n    tag_812:\n        /* \"#utility.yul\":22619:22758   */\n      swap1\n      pop\n        /* \"#utility.yul\":22346:22765   */\n      swap2\n      swap1\n      pop\n      jump\t// out\n        /* \"#utility.yul\":22771:22991   */\n    tag_552:\n        /* \"#utility.yul\":22911:22945   */\n      0x596f7520646f6e7420686176652061636365737320746f207468697320757365\n        /* \"#utility.yul\":22907:22908   */\n      0x00\n        /* \"#utility.yul\":22899:22905   */\n      dup3\n        /* \"#utility.yul\":22895:22909   */\n      add\n        /* \"#utility.yul\":22888:22946   */\n      mstore\n        /* \"#utility.yul\":22980:22983   */\n      0x7200000000000000000000000000000000000000000000000000000000000000\n        /* \"#utility.yul\":22975:22977   */\n      0x20\n        /* \"#utility.yul\":22967:22973   */\n      dup3\n        /* \"#utility.yul\":22963:22978   */\n      add\n        /* \"#utility.yul\":22956:22984   */\n      mstore\n        /* \"#utility.yul\":22771:22991   */\n      pop\n      jump\t// out\n        /* \"#utility.yul\":22997:23363   */\n    tag_553:\n        /* \"#utility.yul\":23139:23142   */\n      0x00\n        /* \"#utility.yul\":23160:23227   */\n      tag_815\n        /* \"#utility.yul\":23224:23226   */\n      0x21\n        /* \"#utility.yul\":23219:23222   */\n      dup4\n        /* \"#utility.yul\":23160:23227   */\n      tag_546\n      jump\t// in\n    tag_815:\n        /* \"#utility.yul\":23153:23227   */\n      swap2\n      pop\n        /* \"#utility.yul\":23236:23329   */\n      tag_816\n        /* \"#utility.yul\":23325:23328   */\n      dup3\n        /* \"#utility.yul\":23236:23329   */\n      tag_552\n      jump\t// in\n    tag_816:\n        /* \"#utility.yul\":23354:23356   */\n      0x40\n        /* \"#utility.yul\":23349:23352   */\n      dup3\n        /* \"#utility.yul\":23345:23357   */\n      add\n        /* \"#utility.yul\":23338:23357   */\n      swap1\n      pop\n        /* \"#utility.yul\":22997:23363   */\n      swap2\n      swap1\n      pop\n      jump\t// out\n        /* \"#utility.yul\":23369:23788   */\n    tag_122:\n        /* \"#utility.yul\":23535:23539   */\n      0x00\n        /* \"#utility.yul\":23573:23575   */\n      0x20\n        /* \"#utility.yul\":23562:23571   */\n      dup3\n        /* \"#utility.yul\":23558:23576   */\n      add\n        /* \"#utility.yul\":23550:23576   */\n      swap1\n      pop\n        /* \"#utility.yul\":23622:23631   */\n      dup2\n        /* \"#utility.yul\":23616:23620   */\n      dup2\n        /* \"#utility.yul\":23612:23632   */\n      sub\n        /* \"#utility.yul\":23608:23609   */\n      0x00\n        /* \"#utility.yul\":23597:23606   */\n      dup4\n        /* \"#utility.yul\":23593:23610   */\n      add\n        /* \"#utility.yul\":23586:23633   */\n      mstore\n        /* \"#utility.yul\":23650:23781   */\n      tag_818\n        /* \"#utility.yul\":23776:23780   */\n      dup2\n        /* \"#utility.yul\":23650:23781   */\n      tag_553\n      jump\t// in\n    tag_818:\n        /* \"#utility.yul\":23642:23781   */\n      swap1\n      pop\n        /* \"#utility.yul\":23369:23788   */\n      swap2\n      swap1\n      pop\n      jump\t// out\n        /* \"#utility.yul\":23794:23957   */\n    tag_554:\n        /* \"#utility.yul\":23934:23949   */\n      0x4f7267206e6f7420657869737400000000000000000000000000000000000000\n        /* \"#utility.yul\":23930:23931   */\n      0x00\n        /* \"#utility.yul\":23922:23928   */\n      dup3\n        /* \"#utility.yul\":23918:23932   */\n      add\n        /* \"#utility.yul\":23911:23950   */\n      mstore\n        /* \"#utility.yul\":23794:23957   */\n      pop\n      jump\t// out\n        /* \"#utility.yul\":23963:24329   */\n    tag_555:\n        /* \"#utility.yul\":24105:24108   */\n      0x00\n        /* \"#utility.yul\":24126:24193   */\n      tag_821\n        /* \"#utility.yul\":24190:24192   */\n      0x0d\n        /* \"#utility.yul\":24185:24188   */\n      dup4\n        /* \"#utility.yul\":24126:24193   */\n      tag_546\n      jump\t// in\n    tag_821:\n        /* \"#utility.yul\":24119:24193   */\n      swap2\n      pop\n        /* \"#utility.yul\":24202:24295   */\n      tag_822\n        /* \"#utility.yul\":24291:24294   */\n      dup3\n        /* \"#utility.yul\":24202:24295   */\n      tag_554\n      jump\t// in\n    tag_822:\n        /* \"#utility.yul\":24320:24322   */\n      0x20\n        /* \"#utility.yul\":24315:24318   */\n      dup3\n        /* \"#utility.yul\":24311:24323   */\n      add\n        /* \"#utility.yul\":24304:24323   */\n      swap1\n      pop\n        /* \"#utility.yul\":23963:24329   */\n      swap2\n      swap1\n      pop\n      jump\t// out\n        /* \"#utility.yul\":24335:24754   */\n    tag_128:\n        /* \"#utility.yul\":24501:24505   */\n      0x00\n        /* \"#utility.yul\":24539:24541   */\n      0x20\n        /* \"#utility.yul\":24528:24537   */\n      dup3\n        /* \"#utility.yul\":24524:24542   */\n      add\n        /* \"#utility.yul\":24516:24542   */\n      swap1\n      pop\n        /* \"#utility.yul\":24588:24597   */\n      dup2\n        /* \"#utility.yul\":24582:24586   */\n      dup2\n        /* \"#utility.yul\":24578:24598   */\n      sub\n        /* \"#utility.yul\":24574:24575   */\n      0x00\n        /* \"#utility.yul\":24563:24572   */\n      dup4\n        /* \"#utility.yul\":24559:24576   */\n      add\n        /* \"#utility.yul\":24552:24599   */\n      mstore\n        /* \"#utility.yul\":24616:24747   */\n      tag_824\n        /* \"#utility.yul\":24742:24746   */\n      dup2\n        /* \"#utility.yul\":24616:24747   */\n      tag_555\n      jump\t// in\n    tag_824:\n        /* \"#utility.yul\":24608:24747   */\n      swap1\n      pop\n        /* \"#utility.yul\":24335:24754   */\n      swap2\n      swap1\n      pop\n      jump\t// out\n        /* \"#utility.yul\":24760:24928   */\n    tag_556:\n        /* \"#utility.yul\":24900:24920   */\n      0x5573657220646f65736e27742065786973740000000000000000000000000000\n        /* \"#utility.yul\":24896:24897   */\n      0x00\n        /* \"#utility.yul\":24888:24894   */\n      dup3\n        /* \"#utility.yul\":24884:24898   */\n      add\n        /* \"#utility.yul\":24877:24921   */\n      mstore\n        /* \"#utility.yul\":24760:24928   */\n      pop\n      jump\t// out\n        /* \"#utility.yul\":24934:25300   */\n    tag_557:\n        /* \"#utility.yul\":25076:25079   */\n      0x00\n        /* \"#utility.yul\":25097:25164   */\n      tag_827\n        /* \"#utility.yul\":25161:25163   */\n      0x12\n        /* \"#utility.yul\":25156:25159   */\n      dup4\n        /* \"#utility.yul\":25097:25164   */\n      tag_546\n      jump\t// in\n    tag_827:\n        /* \"#utility.yul\":25090:25164   */\n      swap2\n      pop\n        /* \"#utility.yul\":25173:25266   */\n      tag_828\n        /* \"#utility.yul\":25262:25265   */\n      dup3\n        /* \"#utility.yul\":25173:25266   */\n      tag_556\n      jump\t// in\n    tag_828:\n        /* \"#utility.yul\":25291:25293   */\n      0x20\n        /* \"#utility.yul\":25286:25289   */\n      dup3\n        /* \"#utility.yul\":25282:25294   */\n      add\n        /* \"#utility.yul\":25275:25294   */\n      swap1\n      pop\n        /* \"#utility.yul\":24934:25300   */\n      swap2\n      swap1\n      pop\n      jump\t// out\n        /* \"#utility.yul\":25306:25725   */\n    tag_132:\n        /* \"#utility.yul\":25472:25476   */\n      0x00\n        /* \"#utility.yul\":25510:25512   */\n      0x20\n        /* \"#utility.yul\":25499:25508   */\n      dup3\n        /* \"#utility.yul\":25495:25513   */\n      add\n        /* \"#utility.yul\":25487:25513   */\n      swap1\n      pop\n        /* \"#utility.yul\":25559:25568   */\n      dup2\n        /* \"#utility.yul\":25553:25557   */\n      dup2\n        /* \"#utility.yul\":25549:25569   */\n      sub\n        /* \"#utility.yul\":25545:25546   */\n      0x00\n        /* \"#utility.yul\":25534:25543   */\n      dup4\n        /* \"#utility.yul\":25530:25547   */\n      add\n        /* \"#utility.yul\":25523:25570   */\n      mstore\n        /* \"#utility.yul\":25587:25718   */\n      tag_830\n        /* \"#utility.yul\":25713:25717   */\n      dup2\n        /* \"#utility.yul\":25587:25718   */\n      tag_557\n      jump\t// in\n    tag_830:\n        /* \"#utility.yul\":25579:25718   */\n      swap1\n      pop\n        /* \"#utility.yul\":25306:25725   */\n      swap2\n      swap1\n      pop\n      jump\t// out\n        /* \"#utility.yul\":25731:25956   */\n    tag_558:\n        /* \"#utility.yul\":25871:25905   */\n      0x596f7520646f6e74206861766520617574686f7269747920746f206769766520\n        /* \"#utility.yul\":25867:25868   */\n      0x00\n        /* \"#utility.yul\":25859:25865   */\n      dup3\n        /* \"#utility.yul\":25855:25869   */\n      add\n        /* \"#utility.yul\":25848:25906   */\n      mstore\n        /* \"#utility.yul\":25940:25948   */\n      0x6163636573730000000000000000000000000000000000000000000000000000\n        /* \"#utility.yul\":25935:25937   */\n      0x20\n        /* \"#utility.yul\":25927:25933   */\n      dup3\n        /* \"#utility.yul\":25923:25938   */\n      add\n        /* \"#utility.yul\":25916:25949   */\n      mstore\n        /* \"#utility.yul\":25731:25956   */\n      pop\n      jump\t// out\n        /* \"#utility.yul\":25962:26328   */\n    tag_559:\n        /* \"#utility.yul\":26104:26107   */\n      0x00\n        /* \"#utility.yul\":26125:26192   */\n      tag_833\n        /* \"#utility.yul\":26189:26191   */\n      0x26\n        /* \"#utility.yul\":26184:26187   */\n      dup4\n        /* \"#utility.yul\":26125:26192   */\n      tag_546\n      jump\t// in\n    tag_833:\n        /* \"#utility.yul\":26118:26192   */\n      swap2\n      pop\n        /* \"#utility.yul\":26201:26294   */\n      tag_834\n        /* \"#utility.yul\":26290:26293   */\n      dup3\n        /* \"#utility.yul\":26201:26294   */\n      tag_558\n      jump\t// in\n    tag_834:\n        /* \"#utility.yul\":26319:26321   */\n      0x40\n        /* \"#utility.yul\":26314:26317   */\n      dup3\n        /* \"#utility.yul\":26310:26322   */\n      add\n        /* \"#utility.yul\":26303:26322   */\n      swap1\n      pop\n        /* \"#utility.yul\":25962:26328   */\n      swap2\n      swap1\n      pop\n      jump\t// out\n        /* \"#utility.yul\":26334:26753   */\n    tag_140:\n        /* \"#utility.yul\":26500:26504   */\n      0x00\n        /* \"#utility.yul\":26538:26540   */\n      0x20\n        /* \"#utility.yul\":26527:26536   */\n      dup3\n        /* \"#utility.yul\":26523:26541   */\n      add\n        /* \"#utility.yul\":26515:26541   */\n      swap1\n      pop\n        /* \"#utility.yul\":26587:26596   */\n      dup2\n        /* \"#utility.yul\":26581:26585   */\n      dup2\n        /* \"#utility.yul\":26577:26597   */\n      sub\n        /* \"#utility.yul\":26573:26574   */\n      0x00\n        /* \"#utility.yul\":26562:26571   */\n      dup4\n        /* \"#utility.yul\":26558:26575   */\n      add\n        /* \"#utility.yul\":26551:26598   */\n      mstore\n        /* \"#utility.yul\":26615:26746   */\n      tag_836\n        /* \"#utility.yul\":26741:26745   */\n      dup2\n        /* \"#utility.yul\":26615:26746   */\n      tag_559\n      jump\t// in\n    tag_836:\n        /* \"#utility.yul\":26607:26746   */\n      swap1\n      pop\n        /* \"#utility.yul\":26334:26753   */\n      swap2\n      swap1\n      pop\n      jump\t// out\n        /* \"#utility.yul\":26759:26939   */\n    tag_143:\n        /* \"#utility.yul\":26807:26884   */\n      0x4e487b7100000000000000000000000000000000000000000000000000000000\n        /* \"#utility.yul\":26804:26805   */\n      0x00\n        /* \"#utility.yul\":26797:26885   */\n      mstore\n        /* \"#utility.yul\":26904:26908   */\n      0x32\n        /* \"#utility.yul\":26901:26902   */\n      0x04\n        /* \"#utility.yul\":26894:26909   */\n      mstore\n        /* \"#utility.yul\":26928:26932   */\n      0x24\n        /* \"#utility.yul\":26925:26926   */\n      0x00\n        /* \"#utility.yul\":26918:26933   */\n      revert\n        /* \"#utility.yul\":26945:27109   */\n    tag_560:\n        /* \"#utility.yul\":27085:27101   */\n      0x55736572206e6f742076616c6964000000000000000000000000000000000000\n        /* \"#utility.yul\":27081:27082   */\n      0x00\n        /* \"#utility.yul\":27073:27079   */\n      dup3\n        /* \"#utility.yul\":27069:27083   */\n      add\n        /* \"#utility.yul\":27062:27102   */\n      mstore\n        /* \"#utility.yul\":26945:27109   */\n      pop\n      jump\t// out\n        /* \"#utility.yul\":27115:27481   */\n    tag_561:\n        /* \"#utility.yul\":27257:27260   */\n      0x00\n        /* \"#utility.yul\":27278:27345   */\n      tag_840\n        /* \"#utility.yul\":27342:27344   */\n      0x0e\n        /* \"#utility.yul\":27337:27340   */\n      dup4\n        /* \"#utility.yul\":27278:27345   */\n      tag_546\n      jump\t// in\n    tag_840:\n        /* \"#utility.yul\":27271:27345   */\n      swap2\n      pop\n        /* \"#utility.yul\":27354:27447   */\n      tag_841\n        /* \"#utility.yul\":27443:27446   */\n      dup3\n        /* \"#utility.yul\":27354:27447   */\n      tag_560\n      jump\t// in\n    tag_841:\n        /* \"#utility.yul\":27472:27474   */\n      0x20\n        /* \"#utility.yul\":27467:27470   */\n      dup3\n        /* \"#utility.yul\":27463:27475   */\n      add\n        /* \"#utility.yul\":27456:27475   */\n      swap1\n      pop\n        /* \"#utility.yul\":27115:27481   */\n      swap2\n      swap1\n      pop\n      jump\t// out\n        /* \"#utility.yul\":27487:27906   */\n    tag_147:\n        /* \"#utility.yul\":27653:27657   */\n      0x00\n        /* \"#utility.yul\":27691:27693   */\n      0x20\n        /* \"#utility.yul\":27680:27689   */\n      dup3\n        /* \"#utility.yul\":27676:27694   */\n      add\n        /* \"#utility.yul\":27668:27694   */\n      swap1\n      pop\n        /* \"#utility.yul\":27740:27749   */\n      dup2\n        /* \"#utility.yul\":27734:27738   */\n      dup2\n        /* \"#utility.yul\":27730:27750   */\n      sub\n        /* \"#utility.yul\":27726:27727   */\n      0x00\n        /* \"#utility.yul\":27715:27724   */\n      dup4\n        /* \"#utility.yul\":27711:27728   */\n      add\n        /* \"#utility.yul\":27704:27751   */\n      mstore\n        /* \"#utility.yul\":27768:27899   */\n      tag_843\n        /* \"#utility.yul\":27894:27898   */\n      dup2\n        /* \"#utility.yul\":27768:27899   */\n      tag_561\n      jump\t// in\n    tag_843:\n        /* \"#utility.yul\":27760:27899   */\n      swap1\n      pop\n        /* \"#utility.yul\":27487:27906   */\n      swap2\n      swap1\n      pop\n      jump\t// out\n        /* \"#utility.yul\":27912:28080   */\n    tag_562:\n        /* \"#utility.yul\":28052:28072   */\n      0x5265717565737473206e6f7420666f756e640000000000000000000000000000\n        /* \"#utility.yul\":28048:28049   */\n      0x00\n        /* \"#utility.yul\":28040:28046   */\n      dup3\n        /* \"#utility.yul\":28036:28050   */\n      add\n        /* \"#utility.yul\":28029:28073   */\n      mstore\n        /* \"#utility.yul\":27912:28080   */\n      pop\n      jump\t// out\n        /* \"#utility.yul\":28086:28452   */\n    tag_563:\n        /* \"#utility.yul\":28228:28231   */\n      0x00\n        /* \"#utility.yul\":28249:28316   */\n      tag_846\n        /* \"#utility.yul\":28313:28315   */\n      0x12\n        /* \"#utility.yul\":28308:28311   */\n      dup4\n        /* \"#utility.yul\":28249:28316   */\n      tag_546\n      jump\t// in\n    tag_846:\n        /* \"#utility.yul\":28242:28316   */\n      swap2\n      pop\n        /* \"#utility.yul\":28325:28418   */\n      tag_847\n        /* \"#utility.yul\":28414:28417   */\n      dup3\n        /* \"#utility.yul\":28325:28418   */\n      tag_562\n      jump\t// in\n    tag_847:\n        /* \"#utility.yul\":28443:28445   */\n      0x20\n        /* \"#utility.yul\":28438:28441   */\n      dup3\n        /* \"#utility.yul\":28434:28446   */\n      add\n        /* \"#utility.yul\":28427:28446   */\n      swap1\n      pop\n        /* \"#utility.yul\":28086:28452   */\n      swap2\n      swap1\n      pop\n      jump\t// out\n        /* \"#utility.yul\":28458:28877   */\n    tag_153:\n        /* \"#utility.yul\":28624:28628   */\n      0x00\n        /* \"#utility.yul\":28662:28664   */\n      0x20\n        /* \"#utility.yul\":28651:28660   */\n      dup3\n        /* \"#utility.yul\":28647:28665   */\n      add\n        /* \"#utility.yul\":28639:28665   */\n      swap1\n      pop\n        /* \"#utility.yul\":28711:28720   */\n      dup2\n        /* \"#utility.yul\":28705:28709   */\n      dup2\n        /* \"#utility.yul\":28701:28721   */\n      sub\n        /* \"#utility.yul\":28697:28698   */\n      0x00\n        /* \"#utility.yul\":28686:28695   */\n      dup4\n        /* \"#utility.yul\":28682:28699   */\n      add\n        /* \"#utility.yul\":28675:28722   */\n      mstore\n        /* \"#utility.yul\":28739:28870   */\n      tag_849\n        /* \"#utility.yul\":28865:28869   */\n      dup2\n        /* \"#utility.yul\":28739:28870   */\n      tag_563\n      jump\t// in\n    tag_849:\n        /* \"#utility.yul\":28731:28870   */\n      swap1\n      pop\n        /* \"#utility.yul\":28458:28877   */\n      swap2\n      swap1\n      pop\n      jump\t// out\n        /* \"#utility.yul\":28883:29063   */\n    tag_564:\n        /* \"#utility.yul\":28931:29008   */\n      0x4e487b7100000000000000000000000000000000000000000000000000000000\n        /* \"#utility.yul\":28928:28929   */\n      0x00\n        /* \"#utility.yul\":28921:29009   */\n      mstore\n        /* \"#utility.yul\":29028:29032   */\n      0x22\n        /* \"#utility.yul\":29025:29026   */\n      0x04\n        /* \"#utility.yul\":29018:29033   */\n      mstore\n        /* \"#utility.yul\":29052:29056   */\n      0x24\n        /* \"#utility.yul\":29049:29050   */\n      0x00\n        /* \"#utility.yul\":29042:29057   */\n      revert\n        /* \"#utility.yul\":29069:29389   */\n    tag_168:\n        /* \"#utility.yul\":29113:29119   */\n      0x00\n        /* \"#utility.yul\":29150:29151   */\n      0x02\n        /* \"#utility.yul\":29144:29148   */\n      dup3\n        /* \"#utility.yul\":29140:29152   */\n      div\n        /* \"#utility.yul\":29130:29152   */\n      swap1\n      pop\n        /* \"#utility.yul\":29197:29198   */\n      0x01\n        /* \"#utility.yul\":29191:29195   */\n      dup3\n        /* \"#utility.yul\":29187:29199   */\n      and\n        /* \"#utility.yul\":29218:29236   */\n      dup1\n        /* \"#utility.yul\":29208:29289   */\n      tag_852\n      jumpi\n        /* \"#utility.yul\":29274:29278   */\n      0x7f\n        /* \"#utility.yul\":29266:29272   */\n      dup3\n        /* \"#utility.yul\":29262:29279   */\n      and\n        /* \"#utility.yul\":29252:29279   */\n      swap2\n      pop\n        /* \"#utility.yul\":29208:29289   */\n    tag_852:\n        /* \"#utility.yul\":29336:29338   */\n      0x20\n        /* \"#utility.yul\":29328:29334   */\n      dup3\n        /* \"#utility.yul\":29325:29339   */\n      lt\n        /* \"#utility.yul\":29305:29323   */\n      dup2\n        /* \"#utility.yul\":29302:29340   */\n      sub\n        /* \"#utility.yul\":29299:29383   */\n      tag_853\n      jumpi\n        /* \"#utility.yul\":29355:29373   */\n      tag_854\n      tag_564\n      jump\t// in\n    tag_854:\n        /* \"#utility.yul\":29299:29383   */\n    tag_853:\n        /* \"#utility.yul\":29120:29389   */\n      pop\n        /* \"#utility.yul\":29069:29389   */\n      swap2\n      swap1\n      pop\n      jump\t// out\n        /* \"#utility.yul\":29395:29568   */\n    tag_565:\n        /* \"#utility.yul\":29535:29560   */\n      0x596f7520646f6e74206861766520617574686f72697479000000000000000000\n        /* \"#utility.yul\":29531:29532   */\n      0x00\n        /* \"#utility.yul\":29523:29529   */\n      dup3\n        /* \"#utility.yul\":29519:29533   */\n      add\n        /* \"#utility.yul\":29512:29561   */\n      mstore\n        /* \"#utility.yul\":29395:29568   */\n      pop\n      jump\t// out\n        /* \"#utility.yul\":29574:29940   */\n    tag_566:\n        /* \"#utility.yul\":29716:29719   */\n      0x00\n        /* \"#utility.yul\":29737:29804   */\n      tag_857\n        /* \"#utility.yul\":29801:29803   */\n      0x17\n        /* \"#utility.yul\":29796:29799   */\n      dup4\n        /* \"#utility.yul\":29737:29804   */\n      tag_546\n      jump\t// in\n    tag_857:\n        /* \"#utility.yul\":29730:29804   */\n      swap2\n      pop\n        /* \"#utility.yul\":29813:29906   */\n      tag_858\n        /* \"#utility.yul\":29902:29905   */\n      dup3\n        /* \"#utility.yul\":29813:29906   */\n      tag_565\n      jump\t// in\n    tag_858:\n        /* \"#utility.yul\":29931:29933   */\n      0x20\n        /* \"#utility.yul\":29926:29929   */\n      dup3\n        /* \"#utility.yul\":29922:29934   */\n      add\n        /* \"#utility.yul\":29915:29934   */\n      swap1\n      pop\n        /* \"#utility.yul\":29574:29940   */\n      swap2\n      swap1\n      pop\n      jump\t// out\n        /* \"#utility.yul\":29946:30365   */\n    tag_176:\n        /* \"#utility.yul\":30112:30116   */\n      0x00\n        /* \"#utility.yul\":30150:30152   */\n      0x20\n        /* \"#utility.yul\":30139:30148   */\n      dup3\n        /* \"#utility.yul\":30135:30153   */\n      add\n        /* \"#utility.yul\":30127:30153   */\n      swap1\n      pop\n        /* \"#utility.yul\":30199:30208   */\n      dup2\n        /* \"#utility.yul\":30193:30197   */\n      dup2\n        /* \"#utility.yul\":30189:30209   */\n      sub\n        /* \"#utility.yul\":30185:30186   */\n      0x00\n        /* \"#utility.yul\":30174:30183   */\n      dup4\n        /* \"#utility.yul\":30170:30187   */\n      add\n        /* \"#utility.yul\":30163:30210   */\n      mstore\n        /* \"#utility.yul\":30227:30358   */\n      tag_860\n        /* \"#utility.yul\":30353:30357   */\n      dup2\n        /* \"#utility.yul\":30227:30358   */\n      tag_566\n      jump\t// in\n    tag_860:\n        /* \"#utility.yul\":30219:30358   */\n      swap1\n      pop\n        /* \"#utility.yul\":29946:30365   */\n      swap2\n      swap1\n      pop\n      jump\t// out\n        /* \"#utility.yul\":30371:30591   */\n    tag_567:\n        /* \"#utility.yul\":30511:30545   */\n      0x596f7520646f6e74206861766520617574686f7269747920746f2064656c6574\n        /* \"#utility.yul\":30507:30508   */\n      0x00\n        /* \"#utility.yul\":30499:30505   */\n      dup3\n        /* \"#utility.yul\":30495:30509   */\n      add\n        /* \"#utility.yul\":30488:30546   */\n      mstore\n        /* \"#utility.yul\":30580:30583   */\n      0x6500000000000000000000000000000000000000000000000000000000000000\n        /* \"#utility.yul\":30575:30577   */\n      0x20\n        /* \"#utility.yul\":30567:30573   */\n      dup3\n        /* \"#utility.yul\":30563:30578   */\n      add\n        /* \"#utility.yul\":30556:30584   */\n      mstore\n        /* \"#utility.yul\":30371:30591   */\n      pop\n      jump\t// out\n        /* \"#utility.yul\":30597:30963   */\n    tag_568:\n        /* \"#utility.yul\":30739:30742   */\n      0x00\n        /* \"#utility.yul\":30760:30827   */\n      tag_863\n        /* \"#utility.yul\":30824:30826   */\n      0x21\n        /* \"#utility.yul\":30819:30822   */\n      dup4\n        /* \"#utility.yul\":30760:30827   */\n      tag_546\n      jump\t// in\n    tag_863:\n        /* \"#utility.yul\":30753:30827   */\n      swap2\n      pop\n        /* \"#utility.yul\":30836:30929   */\n      tag_864\n        /* \"#utility.yul\":30925:30928   */\n      dup3\n        /* \"#utility.yul\":30836:30929   */\n      tag_567\n      jump\t// in\n    tag_864:\n        /* \"#utility.yul\":30954:30956   */\n      0x40\n        /* \"#utility.yul\":30949:30952   */\n      dup3\n        /* \"#utility.yul\":30945:30957   */\n      add\n        /* \"#utility.yul\":30938:30957   */\n      swap1\n      pop\n        /* \"#utility.yul\":30597:30963   */\n      swap2\n      swap1\n      pop\n      jump\t// out\n        /* \"#utility.yul\":30969:31388   */\n    tag_188:\n        /* \"#utility.yul\":31135:31139   */\n      0x00\n        /* \"#utility.yul\":31173:31175   */\n      0x20\n        /* \"#utility.yul\":31162:31171   */\n      dup3\n        /* \"#utility.yul\":31158:31176   */\n      add\n        /* \"#utility.yul\":31150:31176   */\n      swap1\n      pop\n        /* \"#utility.yul\":31222:31231   */\n      dup2\n        /* \"#utility.yul\":31216:31220   */\n      dup2\n        /* \"#utility.yul\":31212:31232   */\n      sub\n        /* \"#utility.yul\":31208:31209   */\n      0x00\n        /* \"#utility.yul\":31197:31206   */\n      dup4\n        /* \"#utility.yul\":31193:31210   */\n      add\n        /* \"#utility.yul\":31186:31233   */\n      mstore\n        /* \"#utility.yul\":31250:31381   */\n      tag_866\n        /* \"#utility.yul\":31376:31380   */\n      dup2\n        /* \"#utility.yul\":31250:31381   */\n      tag_568\n      jump\t// in\n    tag_866:\n        /* \"#utility.yul\":31242:31381   */\n      swap1\n      pop\n        /* \"#utility.yul\":30969:31388   */\n      swap2\n      swap1\n      pop\n      jump\t// out\n        /* \"#utility.yul\":31394:31564   */\n    tag_569:\n        /* \"#utility.yul\":31534:31556   */\n      0x5265717565737420646f65736e74206578697374000000000000000000000000\n        /* \"#utility.yul\":31530:31531   */\n      0x00\n        /* \"#utility.yul\":31522:31528   */\n      dup3\n        /* \"#utility.yul\":31518:31532   */\n      add\n        /* \"#utility.yul\":31511:31557   */\n      mstore\n        /* \"#utility.yul\":31394:31564   */\n      pop\n      jump\t// out\n        /* \"#utility.yul\":31570:31936   */\n    tag_570:\n        /* \"#utility.yul\":31712:31715   */\n      0x00\n        /* \"#utility.yul\":31733:31800   */\n      tag_869\n        /* \"#utility.yul\":31797:31799   */\n      0x14\n        /* \"#utility.yul\":31792:31795   */\n      dup4\n        /* \"#utility.yul\":31733:31800   */\n      tag_546\n      jump\t// in\n    tag_869:\n        /* \"#utility.yul\":31726:31800   */\n      swap2\n      pop\n        /* \"#utility.yul\":31809:31902   */\n      tag_870\n        /* \"#utility.yul\":31898:31901   */\n      dup3\n        /* \"#utility.yul\":31809:31902   */\n      tag_569\n      jump\t// in\n    tag_870:\n        /* \"#utility.yul\":31927:31929   */\n      0x20\n        /* \"#utility.yul\":31922:31925   */\n      dup3\n        /* \"#utility.yul\":31918:31930   */\n      add\n        /* \"#utility.yul\":31911:31930   */\n      swap1\n      pop\n        /* \"#utility.yul\":31570:31936   */\n      swap2\n      swap1\n      pop\n      jump\t// out\n        /* \"#utility.yul\":31942:32361   */\n    tag_194:\n        /* \"#utility.yul\":32108:32112   */\n      0x00\n        /* \"#utility.yul\":32146:32148   */\n      0x20\n        /* \"#utility.yul\":32135:32144   */\n      dup3\n        /* \"#utility.yul\":32131:32149   */\n      add\n        /* \"#utility.yul\":32123:32149   */\n      swap1\n      pop\n        /* \"#utility.yul\":32195:32204   */\n      dup2\n        /* \"#utility.yul\":32189:32193   */\n      dup2\n        /* \"#utility.yul\":32185:32205   */\n      sub\n        /* \"#utility.yul\":32181:32182   */\n      0x00\n        /* \"#utility.yul\":32170:32179   */\n      dup4\n        /* \"#utility.yul\":32166:32183   */\n      add\n        /* \"#utility.yul\":32159:32206   */\n      mstore\n        /* \"#utility.yul\":32223:32354   */\n      tag_872\n        /* \"#utility.yul\":32349:32353   */\n      dup2\n        /* \"#utility.yul\":32223:32354   */\n      tag_570\n      jump\t// in\n    tag_872:\n        /* \"#utility.yul\":32215:32354   */\n      swap1\n      pop\n        /* \"#utility.yul\":31942:32361   */\n      swap2\n      swap1\n      pop\n      jump\t// out\n        /* \"#utility.yul\":32367:32596   */\n    tag_571:\n        /* \"#utility.yul\":32507:32541   */\n      0x5468697320706172746963756c6172206f7267616e697a6174696f6e7320646f\n        /* \"#utility.yul\":32503:32504   */\n      0x00\n        /* \"#utility.yul\":32495:32501   */\n      dup3\n        /* \"#utility.yul\":32491:32505   */\n      add\n        /* \"#utility.yul\":32484:32542   */\n      mstore\n        /* \"#utility.yul\":32576:32588   */\n      0x65736e7420657869737400000000000000000000000000000000000000000000\n        /* \"#utility.yul\":32571:32573   */\n      0x20\n        /* \"#utility.yul\":32563:32569   */\n      dup3\n        /* \"#utility.yul\":32559:32574   */\n      add\n        /* \"#utility.yul\":32552:32589   */\n      mstore\n        /* \"#utility.yul\":32367:32596   */\n      pop\n      jump\t// out\n        /* \"#utility.yul\":32602:32968   */\n    tag_572:\n        /* \"#utility.yul\":32744:32747   */\n      0x00\n        /* \"#utility.yul\":32765:32832   */\n      tag_875\n        /* \"#utility.yul\":32829:32831   */\n      0x2a\n        /* \"#utility.yul\":32824:32827   */\n      dup4\n        /* \"#utility.yul\":32765:32832   */\n      tag_546\n      jump\t// in\n    tag_875:\n        /* \"#utility.yul\":32758:32832   */\n      swap2\n      pop\n        /* \"#utility.yul\":32841:32934   */\n      tag_876\n        /* \"#utility.yul\":32930:32933   */\n      dup3\n        /* \"#utility.yul\":32841:32934   */\n      tag_571\n      jump\t// in\n    tag_876:\n        /* \"#utility.yul\":32959:32961   */\n      0x40\n        /* \"#utility.yul\":32954:32957   */\n      dup3\n        /* \"#utility.yul\":32950:32962   */\n      add\n        /* \"#utility.yul\":32943:32962   */\n      swap1\n      pop\n        /* \"#utility.yul\":32602:32968   */\n      swap2\n      swap1\n      pop\n      jump\t// out\n        /* \"#utility.yul\":32974:33393   */\n    tag_203:\n        /* \"#utility.yul\":33140:33144   */\n      0x00\n        /* \"#utility.yul\":33178:33180   */\n      0x20\n        /* \"#utility.yul\":33167:33176   */\n      dup3\n        /* \"#utility.yul\":33163:33181   */\n      add\n        /* \"#utility.yul\":33155:33181   */\n      swap1\n      pop\n        /* \"#utility.yul\":33227:33236   */\n      dup2\n        /* \"#utility.yul\":33221:33225   */\n      dup2\n        /* \"#utility.yul\":33217:33237   */\n      sub\n        /* \"#utility.yul\":33213:33214   */\n      0x00\n        /* \"#utility.yul\":33202:33211   */\n      dup4\n        /* \"#utility.yul\":33198:33215   */\n      add\n        /* \"#utility.yul\":33191:33238   */\n      mstore\n        /* \"#utility.yul\":33255:33386   */\n      tag_878\n        /* \"#utility.yul\":33381:33385   */\n      dup2\n        /* \"#utility.yul\":33255:33386   */\n      tag_572\n      jump\t// in\n    tag_878:\n        /* \"#utility.yul\":33247:33386   */\n      swap1\n      pop\n        /* \"#utility.yul\":32974:33393   */\n      swap2\n      swap1\n      pop\n      jump\t// out\n        /* \"#utility.yul\":33399:33719   */\n    tag_227:\n        /* \"#utility.yul\":33514:33518   */\n      0x00\n        /* \"#utility.yul\":33552:33554   */\n      0x40\n        /* \"#utility.yul\":33541:33550   */\n      dup3\n        /* \"#utility.yul\":33537:33555   */\n      add\n        /* \"#utility.yul\":33529:33555   */\n      swap1\n      pop\n        /* \"#utility.yul\":33565:33636   */\n      tag_880\n        /* \"#utility.yul\":33633:33634   */\n      0x00\n        /* \"#utility.yul\":33622:33631   */\n      dup4\n        /* \"#utility.yul\":33618:33635   */\n      add\n        /* \"#utility.yul\":33609:33615   */\n      dup6\n        /* \"#utility.yul\":33565:33636   */\n      tag_549\n      jump\t// in\n    tag_880:\n        /* \"#utility.yul\":33646:33712   */\n      tag_881\n        /* \"#utility.yul\":33708:33710   */\n      0x20\n        /* \"#utility.yul\":33697:33706   */\n      dup4\n        /* \"#utility.yul\":33693:33711   */\n      add\n        /* \"#utility.yul\":33684:33690   */\n      dup5\n        /* \"#utility.yul\":33646:33712   */\n      tag_507\n      jump\t// in\n    tag_881:\n        /* \"#utility.yul\":33399:33719   */\n      swap4\n      swap3\n      pop\n      pop\n      pop\n      jump\t// out\n        /* \"#utility.yul\":33725:33885   */\n    tag_573:\n        /* \"#utility.yul\":33865:33877   */\n      0x41646d696e206f6e6c7900000000000000000000000000000000000000000000\n        /* \"#utility.yul\":33861:33862   */\n      0x00\n        /* \"#utility.yul\":33853:33859   */\n      dup3\n        /* \"#utility.yul\":33849:33863   */\n      add\n        /* \"#utility.yul\":33842:33878   */\n      mstore\n        /* \"#utility.yul\":33725:33885   */\n      pop\n      jump\t// out\n        /* \"#utility.yul\":33891:34257   */\n    tag_574:\n        /* \"#utility.yul\":34033:34036   */\n      0x00\n        /* \"#utility.yul\":34054:34121   */\n      tag_884\n        /* \"#utility.yul\":34118:34120   */\n      0x0a\n        /* \"#utility.yul\":34113:34116   */\n      dup4\n        /* \"#utility.yul\":34054:34121   */\n      tag_546\n      jump\t// in\n    tag_884:\n        /* \"#utility.yul\":34047:34121   */\n      swap2\n      pop\n        /* \"#utility.yul\":34130:34223   */\n      tag_885\n        /* \"#utility.yul\":34219:34222   */\n      dup3\n        /* \"#utility.yul\":34130:34223   */\n      tag_573\n      jump\t// in\n    tag_885:\n        /* \"#utility.yul\":34248:34250   */\n      0x20\n        /* \"#utility.yul\":34243:34246   */\n      dup3\n        /* \"#utility.yul\":34239:34251   */\n      add\n        /* \"#utility.yul\":34232:34251   */\n      swap1\n      pop\n        /* \"#utility.yul\":33891:34257   */\n      swap2\n      swap1\n      pop\n      jump\t// out\n        /* \"#utility.yul\":34263:34682   */\n    tag_232:\n        /* \"#utility.yul\":34429:34433   */\n      0x00\n        /* \"#utility.yul\":34467:34469   */\n      0x20\n        /* \"#utility.yul\":34456:34465   */\n      dup3\n        /* \"#utility.yul\":34452:34470   */\n      add\n        /* \"#utility.yul\":34444:34470   */\n      swap1\n      pop\n        /* \"#utility.yul\":34516:34525   */\n      dup2\n        /* \"#utility.yul\":34510:34514   */\n      dup2\n        /* \"#utility.yul\":34506:34526   */\n      sub\n        /* \"#utility.yul\":34502:34503   */\n      0x00\n        /* \"#utility.yul\":34491:34500   */\n      dup4\n        /* \"#utility.yul\":34487:34504   */\n      add\n        /* \"#utility.yul\":34480:34527   */\n      mstore\n        /* \"#utility.yul\":34544:34675   */\n      tag_887\n        /* \"#utility.yul\":34670:34674   */\n      dup2\n        /* \"#utility.yul\":34544:34675   */\n      tag_574\n      jump\t// in\n    tag_887:\n        /* \"#utility.yul\":34536:34675   */\n      swap1\n      pop\n        /* \"#utility.yul\":34263:34682   */\n      swap2\n      swap1\n      pop\n      jump\t// out\n        /* \"#utility.yul\":34688:34854   */\n    tag_575:\n        /* \"#utility.yul\":34828:34846   */\n      0x4f726720646f65736e7420657869737400000000000000000000000000000000\n        /* \"#utility.yul\":34824:34825   */\n      0x00\n        /* \"#utility.yul\":34816:34822   */\n      dup3\n        /* \"#utility.yul\":34812:34826   */\n      add\n        /* \"#utility.yul\":34805:34847   */\n      mstore\n        /* \"#utility.yul\":34688:34854   */\n      pop\n      jump\t// out\n        /* \"#utility.yul\":34860:35226   */\n    tag_576:\n        /* \"#utility.yul\":35002:35005   */\n      0x00\n        /* \"#utility.yul\":35023:35090   */\n      tag_890\n        /* \"#utility.yul\":35087:35089   */\n      0x10\n        /* \"#utility.yul\":35082:35085   */\n      dup4\n        /* \"#utility.yul\":35023:35090   */\n      tag_546\n      jump\t// in\n    tag_890:\n        /* \"#utility.yul\":35016:35090   */\n      swap2\n      pop\n        /* \"#utility.yul\":35099:35192   */\n      tag_891\n        /* \"#utility.yul\":35188:35191   */\n      dup3\n        /* \"#utility.yul\":35099:35192   */\n      tag_575\n      jump\t// in\n    tag_891:\n        /* \"#utility.yul\":35217:35219   */\n      0x20\n        /* \"#utility.yul\":35212:35215   */\n      dup3\n        /* \"#utility.yul\":35208:35220   */\n      add\n        /* \"#utility.yul\":35201:35220   */\n      swap1\n      pop\n        /* \"#utility.yul\":34860:35226   */\n      swap2\n      swap1\n      pop\n      jump\t// out\n        /* \"#utility.yul\":35232:35651   */\n    tag_236:\n        /* \"#utility.yul\":35398:35402   */\n      0x00\n        /* \"#utility.yul\":35436:35438   */\n      0x20\n        /* \"#utility.yul\":35425:35434   */\n      dup3\n        /* \"#utility.yul\":35421:35439   */\n      add\n        /* \"#utility.yul\":35413:35439   */\n      swap1\n      pop\n        /* \"#utility.yul\":35485:35494   */\n      dup2\n        /* \"#utility.yul\":35479:35483   */\n      dup2\n        /* \"#utility.yul\":35475:35495   */\n      sub\n        /* \"#utility.yul\":35471:35472   */\n      0x00\n        /* \"#utility.yul\":35460:35469   */\n      dup4\n        /* \"#utility.yul\":35456:35473   */\n      add\n        /* \"#utility.yul\":35449:35496   */\n      mstore\n        /* \"#utility.yul\":35513:35644   */\n      tag_893\n        /* \"#utility.yul\":35639:35643   */\n      dup2\n        /* \"#utility.yul\":35513:35644   */\n      tag_576\n      jump\t// in\n    tag_893:\n        /* \"#utility.yul\":35505:35644   */\n      swap1\n      pop\n        /* \"#utility.yul\":35232:35651   */\n      swap2\n      swap1\n      pop\n      jump\t// out\n        /* \"#utility.yul\":35657:35824   */\n    tag_577:\n        /* \"#utility.yul\":35797:35816   */\n      0x4f726720616c7265616479206164646564000000000000000000000000000000\n        /* \"#utility.yul\":35793:35794   */\n      0x00\n        /* \"#utility.yul\":35785:35791   */\n      dup3\n        /* \"#utility.yul\":35781:35795   */\n      add\n        /* \"#utility.yul\":35774:35817   */\n      mstore\n        /* \"#utility.yul\":35657:35824   */\n      pop\n      jump\t// out\n        /* \"#utility.yul\":35830:36196   */\n    tag_578:\n        /* \"#utility.yul\":35972:35975   */\n      0x00\n        /* \"#utility.yul\":35993:36060   */\n      tag_896\n        /* \"#utility.yul\":36057:36059   */\n      0x11\n        /* \"#utility.yul\":36052:36055   */\n      dup4\n        /* \"#utility.yul\":35993:36060   */\n      tag_546\n      jump\t// in\n    tag_896:\n        /* \"#utility.yul\":35986:36060   */\n      swap2\n      pop\n        /* \"#utility.yul\":36069:36162   */\n      tag_897\n        /* \"#utility.yul\":36158:36161   */\n      dup3\n        /* \"#utility.yul\":36069:36162   */\n      tag_577\n      jump\t// in\n    tag_897:\n        /* \"#utility.yul\":36187:36189   */\n      0x20\n        /* \"#utility.yul\":36182:36185   */\n      dup3\n        /* \"#utility.yul\":36178:36190   */\n      add\n        /* \"#utility.yul\":36171:36190   */\n      swap1\n      pop\n        /* \"#utility.yul\":35830:36196   */\n      swap2\n      swap1\n      pop\n      jump\t// out\n        /* \"#utility.yul\":36202:36621   */\n    tag_248:\n        /* \"#utility.yul\":36368:36372   */\n      0x00\n        /* \"#utility.yul\":36406:36408   */\n      0x20\n        /* \"#utility.yul\":36395:36404   */\n      dup3\n        /* \"#utility.yul\":36391:36409   */\n      add\n        /* \"#utility.yul\":36383:36409   */\n      swap1\n      pop\n        /* \"#utility.yul\":36455:36464   */\n      dup2\n        /* \"#utility.yul\":36449:36453   */\n      dup2\n        /* \"#utility.yul\":36445:36465   */\n      sub\n        /* \"#utility.yul\":36441:36442   */\n      0x00\n        /* \"#utility.yul\":36430:36439   */\n      dup4\n        /* \"#utility.yul\":36426:36443   */\n      add\n        /* \"#utility.yul\":36419:36466   */\n      mstore\n        /* \"#utility.yul\":36483:36614   */\n      tag_899\n        /* \"#utility.yul\":36609:36613   */\n      dup2\n        /* \"#utility.yul\":36483:36614   */\n      tag_578\n      jump\t// in\n    tag_899:\n        /* \"#utility.yul\":36475:36614   */\n      swap1\n      pop\n        /* \"#utility.yul\":36202:36621   */\n      swap2\n      swap1\n      pop\n      jump\t// out\n        /* \"#utility.yul\":36627:36768   */\n    tag_579:\n        /* \"#utility.yul\":36676:36680   */\n      0x00\n        /* \"#utility.yul\":36699:36702   */\n      dup2\n        /* \"#utility.yul\":36691:36702   */\n      swap1\n      pop\n        /* \"#utility.yul\":36722:36725   */\n      dup2\n        /* \"#utility.yul\":36719:36720   */\n      0x00\n        /* \"#utility.yul\":36712:36726   */\n      mstore\n        /* \"#utility.yul\":36756:36760   */\n      0x20\n        /* \"#utility.yul\":36753:36754   */\n      0x00\n        /* \"#utility.yul\":36743:36761   */\n      keccak256\n        /* \"#utility.yul\":36735:36761   */\n      swap1\n      pop\n        /* \"#utility.yul\":36627:36768   */\n      swap2\n      swap1\n      pop\n      jump\t// out\n        /* \"#utility.yul\":36774:36867   */\n    tag_580:\n        /* \"#utility.yul\":36811:36817   */\n      0x00\n        /* \"#utility.yul\":36858:36860   */\n      0x20\n        /* \"#utility.yul\":36853:36855   */\n      0x1f\n        /* \"#utility.yul\":36846:36851   */\n      dup4\n        /* \"#utility.yul\":36842:36856   */\n      add\n        /* \"#utility.yul\":36838:36861   */\n      div\n        /* \"#utility.yul\":36828:36861   */\n      swap1\n      pop\n        /* \"#utility.yul\":36774:36867   */\n      swap2\n      swap1\n      pop\n      jump\t// out\n        /* \"#utility.yul\":36873:36980   */\n    tag_581:\n        /* \"#utility.yul\":36917:36925   */\n      0x00\n        /* \"#utility.yul\":36967:36972   */\n      dup3\n        /* \"#utility.yul\":36961:36965   */\n      dup3\n        /* \"#utility.yul\":36957:36973   */\n      shl\n        /* \"#utility.yul\":36936:36973   */\n      swap1\n      pop\n        /* \"#utility.yul\":36873:36980   */\n      swap3\n      swap2\n      pop\n      pop\n      jump\t// out\n        /* \"#utility.yul\":36986:37379   */\n    tag_582:\n        /* \"#utility.yul\":37055:37061   */\n      0x00\n        /* \"#utility.yul\":37105:37106   */\n      0x08\n        /* \"#utility.yul\":37093:37103   */\n      dup4\n        /* \"#utility.yul\":37089:37107   */\n      mul\n        /* \"#utility.yul\":37128:37225   */\n      tag_904\n        /* \"#utility.yul\":37158:37224   */\n      0xffffffffffffffffffffffffffffffffffffffffffffffffffffffffffffffff\n        /* \"#utility.yul\":37147:37156   */\n      dup3\n        /* \"#utility.yul\":37128:37225   */\n      tag_581\n      jump\t// in\n    tag_904:\n        /* \"#utility.yul\":37246:37285   */\n      tag_905\n        /* \"#utility.yul\":37276:37284   */\n      dup7\n        /* \"#utility.yul\":37265:37274   */\n      dup4\n        /* \"#utility.yul\":37246:37285   */\n      tag_581\n      jump\t// in\n    tag_905:\n        /* \"#utility.yul\":37234:37285   */\n      swap6\n      pop\n        /* \"#utility.yul\":37318:37322   */\n      dup1\n        /* \"#utility.yul\":37314:37323   */\n      not\n        /* \"#utility.yul\":37307:37312   */\n      dup5\n        /* \"#utility.yul\":37303:37324   */\n      and\n        /* \"#utility.yul\":37294:37324   */\n      swap4\n      pop\n        /* \"#utility.yul\":37367:37371   */\n      dup1\n        /* \"#utility.yul\":37357:37365   */\n      dup7\n        /* \"#utility.yul\":37353:37372   */\n      and\n        /* \"#utility.yul\":37346:37351   */\n      dup5\n        /* \"#utility.yul\":37343:37373   */\n      or\n        /* \"#utility.yul\":37333:37373   */\n      swap3\n      pop\n        /* \"#utility.yul\":37062:37379   */\n      pop\n      pop\n        /* \"#utility.yul\":36986:37379   */\n      swap4\n      swap3\n      pop\n      pop\n      pop\n      jump\t// out\n        /* \"#utility.yul\":37385:37445   */\n    tag_583:\n        /* \"#utility.yul\":37413:37416   */\n      0x00\n        /* \"#utility.yul\":37434:37439   */\n      dup2\n        /* \"#utility.yul\":37427:37439   */\n      swap1\n      pop\n        /* \"#utility.yul\":37385:37445   */\n      swap2\n      swap1\n      pop\n      jump\t// out\n        /* \"#utility.yul\":37451:37593   */\n    tag_584:\n        /* \"#utility.yul\":37501:37510   */\n      0x00\n        /* \"#utility.yul\":37534:37587   */\n      tag_908\n        /* \"#utility.yul\":37552:37586   */\n      tag_909\n        /* \"#utility.yul\":37561:37585   */\n      tag_910\n        /* \"#utility.yul\":37579:37584   */\n      dup5\n        /* \"#utility.yul\":37561:37585   */\n      tag_508\n      jump\t// in\n    tag_910:\n        /* \"#utility.yul\":37552:37586   */\n      tag_583\n      jump\t// in\n    tag_909:\n        /* \"#utility.yul\":37534:37587   */\n      tag_508\n      jump\t// in\n    tag_908:\n        /* \"#utility.yul\":37521:37587   */\n      swap1\n      pop\n        /* \"#utility.yul\":37451:37593   */\n      swap2\n      swap1\n      pop\n      jump\t// out\n        /* \"#utility.yul\":37599:37674   */\n    tag_585:\n        /* \"#utility.yul\":37642:37645   */\n      0x00\n        /* \"#utility.yul\":37663:37668   */\n      dup2\n        /* \"#utility.yul\":37656:37668   */\n      swap1\n      pop\n        /* \"#utility.yul\":37599:37674   */\n      swap2\n      swap1\n      pop\n      jump\t// out\n        /* \"#utility.yul\":37680:37949   */\n    tag_586:\n        /* \"#utility.yul\":37790:37829   */\n      tag_913\n        /* \"#utility.yul\":37821:37828   */\n      dup4\n        /* \"#utility.yul\":37790:37829   */\n      tag_584\n      jump\t// in\n    tag_913:\n        /* \"#utility.yul\":37851:37942   */\n      tag_914\n        /* \"#utility.yul\":37900:37941   */\n      tag_915\n        /* \"#utility.yul\":37924:37940   */\n      dup3\n        /* \"#utility.yul\":37900:37941   */\n      tag_585\n      jump\t// in\n    tag_915:\n        /* \"#utility.yul\":37892:37898   */\n      dup5\n        /* \"#utility.yul\":37885:37889   */\n      dup5\n        /* \"#utility.yul\":37879:37890   */\n      sload\n        /* \"#utility.yul\":37851:37942   */\n      tag_582\n      jump\t// in\n    tag_914:\n        /* \"#utility.yul\":37845:37849   */\n      dup3\n        /* \"#utility.yul\":37838:37943   */\n      sstore\n        /* \"#utility.yul\":37756:37949   */\n      pop\n        /* \"#utility.yul\":37680:37949   */\n      pop\n      pop\n      pop\n      jump\t// out\n        /* \"#utility.yul\":37955:38028   */\n    tag_587:\n        /* \"#utility.yul\":38000:38003   */\n      0x00\n        /* \"#utility.yul\":37955:38028   */\n      swap1\n      jump\t// out\n        /* \"#utility.yul\":38034:38223   */\n    tag_588:\n        /* \"#utility.yul\":38111:38143   */\n      tag_918\n      tag_587\n      jump\t// in\n    tag_918:\n        /* \"#utility.yul\":38152:38217   */\n      tag_919\n        /* \"#utility.yul\":38210:38216   */\n      dup2\n        /* \"#utility.yul\":38202:38208   */\n      dup5\n        /* \"#utility.yul\":38196:38200   */\n      dup5\n        /* \"#utility.yul\":38152:38217   */\n      tag_586\n      jump\t// in\n    tag_919:\n        /* \"#utility.yul\":38087:38223   */\n      pop\n        /* \"#utility.yul\":38034:38223   */\n      pop\n      pop\n      jump\t// out\n        /* \"#utility.yul\":38229:38415   */\n    tag_589:\n        /* \"#utility.yul\":38289:38409   */\n    tag_921:\n        /* \"#utility.yul\":38306:38309   */\n      dup2\n        /* \"#utility.yul\":38299:38304   */\n      dup2\n        /* \"#utility.yul\":38296:38310   */\n      lt\n        /* \"#utility.yul\":38289:38409   */\n      iszero\n      tag_923\n      jumpi\n        /* \"#utility.yul\":38360:38399   */\n      tag_924\n        /* \"#utility.yul\":38397:38398   */\n      0x00\n        /* \"#utility.yul\":38390:38395   */\n      dup3\n        /* \"#utility.yul\":38360:38399   */\n      tag_588\n      jump\t// in\n    tag_924:\n        /* \"#utility.yul\":38333:38334   */\n      0x01\n        /* \"#utility.yul\":38326:38331   */\n      dup2\n        /* \"#utility.yul\":38322:38335   */\n      add\n        /* \"#utility.yul\":38313:38335   */\n      swap1\n      pop\n        /* \"#utility.yul\":38289:38409   */\n      jump(tag_921)\n    tag_923:\n        /* \"#utility.yul\":38229:38415   */\n      pop\n      pop\n      jump\t// out\n        /* \"#utility.yul\":38421:38964   */\n    tag_590:\n        /* \"#utility.yul\":38522:38524   */\n      0x1f\n        /* \"#utility.yul\":38517:38520   */\n      dup3\n        /* \"#utility.yul\":38514:38525   */\n      gt\n        /* \"#utility.yul\":38511:38957   */\n      iszero\n      tag_926\n      jumpi\n        /* \"#utility.yul\":38556:38594   */\n      tag_927\n        /* \"#utility.yul\":38588:38593   */\n      dup2\n        /* \"#utility.yul\":38556:38594   */\n      tag_579\n      jump\t// in\n    tag_927:\n        /* \"#utility.yul\":38640:38669   */\n      tag_928\n        /* \"#utility.yul\":38658:38668   */\n      dup5\n        /* \"#utility.yul\":38640:38669   */\n      tag_580\n      jump\t// in\n    tag_928:\n        /* \"#utility.yul\":38630:38638   */\n      dup2\n        /* \"#utility.yul\":38626:38670   */\n      add\n        /* \"#utility.yul\":38823:38825   */\n      0x20\n        /* \"#utility.yul\":38811:38821   */\n      dup6\n        /* \"#utility.yul\":38808:38826   */\n      lt\n        /* \"#utility.yul\":38805:38854   */\n      iszero\n      tag_929\n      jumpi\n        /* \"#utility.yul\":38844:38852   */\n      dup2\n        /* \"#utility.yul\":38829:38852   */\n      swap1\n      pop\n        /* \"#utility.yul\":38805:38854   */\n    tag_929:\n        /* \"#utility.yul\":38867:38947   */\n      tag_930\n        /* \"#utility.yul\":38923:38945   */\n      tag_931\n        /* \"#utility.yul\":38941:38944   */\n      dup6\n        /* \"#utility.yul\":38923:38945   */\n      tag_580\n      jump\t// in\n    tag_931:\n        /* \"#utility.yul\":38913:38921   */\n      dup4\n        /* \"#utility.yul\":38909:38946   */\n      add\n        /* \"#utility.yul\":38896:38907   */\n      dup3\n        /* \"#utility.yul\":38867:38947   */\n      tag_589\n      jump\t// in\n    tag_930:\n        /* \"#utility.yul\":38526:38957   */\n      pop\n      pop\n        /* \"#utility.yul\":38511:38957   */\n    tag_926:\n        /* \"#utility.yul\":38421:38964   */\n      pop\n      pop\n      pop\n      jump\t// out\n        /* \"#utility.yul\":38970:39087   */\n    tag_591:\n        /* \"#utility.yul\":39024:39032   */\n      0x00\n        /* \"#utility.yul\":39074:39079   */\n      dup3\n        /* \"#utility.yul\":39068:39072   */\n      dup3\n        /* \"#utility.yul\":39064:39080   */\n      shr\n        /* \"#utility.yul\":39043:39080   */\n      swap1\n      pop\n        /* \"#utility.yul\":38970:39087   */\n      swap3\n      swap2\n      pop\n      pop\n      jump\t// out\n        /* \"#utility.yul\":39093:39262   */\n    tag_592:\n        /* \"#utility.yul\":39137:39143   */\n      0x00\n        /* \"#utility.yul\":39170:39221   */\n      tag_934\n        /* \"#utility.yul\":39218:39219   */\n      0x00\n        /* \"#utility.yul\":39214:39220   */\n      not\n        /* \"#utility.yul\":39206:39211   */\n      dup5\n        /* \"#utility.yul\":39203:39204   */\n      0x08\n        /* \"#utility.yul\":39199:39212   */\n      mul\n        /* \"#utility.yul\":39170:39221   */\n      tag_591\n      jump\t// in\n    tag_934:\n        /* \"#utility.yul\":39166:39222   */\n      not\n        /* \"#utility.yul\":39251:39255   */\n      dup1\n        /* \"#utility.yul\":39245:39249   */\n      dup4\n        /* \"#utility.yul\":39241:39256   */\n      and\n        /* \"#utility.yul\":39231:39256   */\n      swap2\n      pop\n        /* \"#utility.yul\":39144:39262   */\n      pop\n        /* \"#utility.yul\":39093:39262   */\n      swap3\n      swap2\n      pop\n      pop\n      jump\t// out\n        /* \"#utility.yul\":39267:39562   */\n    tag_593:\n        /* \"#utility.yul\":39343:39347   */\n      0x00\n        /* \"#utility.yul\":39489:39518   */\n      tag_936\n        /* \"#utility.yul\":39514:39517   */\n      dup4\n        /* \"#utility.yul\":39508:39512   */\n      dup4\n        /* \"#utility.yul\":39489:39518   */\n      tag_592\n      jump\t// in\n    tag_936:\n        /* \"#utility.yul\":39481:39518   */\n      swap2\n      pop\n        /* \"#utility.yul\":39551:39554   */\n      dup3\n        /* \"#utility.yul\":39548:39549   */\n      0x02\n        /* \"#utility.yul\":39544:39555   */\n      mul\n        /* \"#utility.yul\":39538:39542   */\n      dup3\n        /* \"#utility.yul\":39535:39556   */\n      or\n        /* \"#utility.yul\":39527:39556   */\n      swap1\n      pop\n        /* \"#utility.yul\":39267:39562   */\n      swap3\n      swap2\n      pop\n      pop\n      jump\t// out\n        /* \"#utility.yul\":39567:40962   */\n    tag_250:\n        /* \"#utility.yul\":39684:39721   */\n      tag_938\n        /* \"#utility.yul\":39717:39720   */\n      dup3\n        /* \"#utility.yul\":39684:39721   */\n      tag_513\n      jump\t// in\n    tag_938:\n        /* \"#utility.yul\":39786:39804   */\n      0xffffffffffffffff\n        /* \"#utility.yul\":39778:39784   */\n      dup2\n        /* \"#utility.yul\":39775:39805   */\n      gt\n        /* \"#utility.yul\":39772:39828   */\n      iszero\n      tag_939\n      jumpi\n        /* \"#utility.yul\":39808:39826   */\n      tag_940\n      tag_299\n      jump\t// in\n    tag_940:\n        /* \"#utility.yul\":39772:39828   */\n    tag_939:\n        /* \"#utility.yul\":39852:39890   */\n      tag_941\n        /* \"#utility.yul\":39884:39888   */\n      dup3\n        /* \"#utility.yul\":39878:39889   */\n      sload\n        /* \"#utility.yul\":39852:39890   */\n      tag_168\n      jump\t// in\n    tag_941:\n        /* \"#utility.yul\":39937:40004   */\n      tag_942\n        /* \"#utility.yul\":39997:40003   */\n      dup3\n        /* \"#utility.yul\":39989:39995   */\n      dup3\n        /* \"#utility.yul\":39983:39987   */\n      dup6\n        /* \"#utility.yul\":39937:40004   */\n      tag_590\n      jump\t// in\n    tag_942:\n        /* \"#utility.yul\":40031:40032   */\n      0x00\n        /* \"#utility.yul\":40055:40059   */\n      0x20\n        /* \"#utility.yul\":40042:40059   */\n      swap1\n      pop\n        /* \"#utility.yul\":40087:40089   */\n      0x1f\n        /* \"#utility.yul\":40079:40085   */\n      dup4\n        /* \"#utility.yul\":40076:40090   */\n      gt\n        /* \"#utility.yul\":40104:40105   */\n      0x01\n        /* \"#utility.yul\":40099:40717   */\n      dup2\n      eq\n      tag_944\n      jumpi\n        /* \"#utility.yul\":40761:40762   */\n      0x00\n        /* \"#utility.yul\":40778:40784   */\n      dup5\n        /* \"#utility.yul\":40775:40852   */\n      iszero\n      tag_945\n      jumpi\n        /* \"#utility.yul\":40827:40836   */\n      dup3\n        /* \"#utility.yul\":40822:40825   */\n      dup8\n        /* \"#utility.yul\":40818:40837   */\n      add\n        /* \"#utility.yul\":40812:40838   */\n      mload\n        /* \"#utility.yul\":40803:40838   */\n      swap1\n      pop\n        /* \"#utility.yul\":40775:40852   */\n    tag_945:\n        /* \"#utility.yul\":40878:40945   */\n      tag_946\n        /* \"#utility.yul\":40938:40944   */\n      dup6\n        /* \"#utility.yul\":40931:40936   */\n      dup3\n        /* \"#utility.yul\":40878:40945   */\n      tag_593\n      jump\t// in\n    tag_946:\n        /* \"#utility.yul\":40872:40876   */\n      dup7\n        /* \"#utility.yul\":40865:40946   */\n      sstore\n        /* \"#utility.yul\":40734:40956   */\n      pop\n        /* \"#utility.yul\":40069:40956   */\n      jump(tag_943)\n        /* \"#utility.yul\":40099:40717   */\n    tag_944:\n        /* \"#utility.yul\":40151:40155   */\n      0x1f\n        /* \"#utility.yul\":40147:40156   */\n      not\n        /* \"#utility.yul\":40139:40145   */\n      dup5\n        /* \"#utility.yul\":40135:40157   */\n      and\n        /* \"#utility.yul\":40185:40222   */\n      tag_947\n        /* \"#utility.yul\":40217:40221   */\n      dup7\n        /* \"#utility.yul\":40185:40222   */\n      tag_579\n      jump\t// in\n    tag_947:\n        /* \"#utility.yul\":40244:40245   */\n      0x00\n        /* \"#utility.yul\":40258:40466   */\n    tag_948:\n        /* \"#utility.yul\":40272:40279   */\n      dup3\n        /* \"#utility.yul\":40269:40270   */\n      dup2\n        /* \"#utility.yul\":40266:40280   */\n      lt\n        /* \"#utility.yul\":40258:40466   */\n      iszero\n      tag_950\n      jumpi\n        /* \"#utility.yul\":40351:40360   */\n      dup5\n        /* \"#utility.yul\":40346:40349   */\n      dup10\n        /* \"#utility.yul\":40342:40361   */\n      add\n        /* \"#utility.yul\":40336:40362   */\n      mload\n        /* \"#utility.yul\":40328:40334   */\n      dup3\n        /* \"#utility.yul\":40321:40363   */\n      sstore\n        /* \"#utility.yul\":40402:40403   */\n      0x01\n        /* \"#utility.yul\":40394:40400   */\n      dup3\n        /* \"#utility.yul\":40390:40404   */\n      add\n        /* \"#utility.yul\":40380:40404   */\n      swap2\n      pop\n        /* \"#utility.yul\":40449:40451   */\n      0x20\n        /* \"#utility.yul\":40438:40447   */\n      dup6\n        /* \"#utility.yul\":40434:40452   */\n      add\n        /* \"#utility.yul\":40421:40452   */\n      swap5\n      pop\n        /* \"#utility.yul\":40295:40299   */\n      0x20\n        /* \"#utility.yul\":40292:40293   */\n      dup2\n        /* \"#utility.yul\":40288:40300   */\n      add\n        /* \"#utility.yul\":40283:40300   */\n      swap1\n      pop\n        /* \"#utility.yul\":40258:40466   */\n      jump(tag_948)\n    tag_950:\n        /* \"#utility.yul\":40494:40500   */\n      dup7\n        /* \"#utility.yul\":40485:40492   */\n      dup4\n        /* \"#utility.yul\":40482:40501   */\n      lt\n        /* \"#utility.yul\":40479:40658   */\n      iszero\n      tag_951\n      jumpi\n        /* \"#utility.yul\":40552:40561   */\n      dup5\n        /* \"#utility.yul\":40547:40550   */\n      dup10\n        /* \"#utility.yul\":40543:40562   */\n      add\n        /* \"#utility.yul\":40537:40563   */\n      mload\n        /* \"#utility.yul\":40595:40643   */\n      tag_952\n        /* \"#utility.yul\":40637:40641   */\n      0x1f\n        /* \"#utility.yul\":40629:40635   */\n      dup10\n        /* \"#utility.yul\":40625:40642   */\n      and\n        /* \"#utility.yul\":40614:40623   */\n      dup3\n        /* \"#utility.yul\":40595:40643   */\n      tag_592\n      jump\t// in\n    tag_952:\n        /* \"#utility.yul\":40587:40593   */\n      dup4\n        /* \"#utility.yul\":40580:40644   */\n      sstore\n        /* \"#utility.yul\":40502:40658   */\n      pop\n        /* \"#utility.yul\":40479:40658   */\n    tag_951:\n        /* \"#utility.yul\":40704:40705   */\n      0x01\n        /* \"#utility.yul\":40700:40701   */\n      0x02\n        /* \"#utility.yul\":40692:40698   */\n      dup9\n        /* \"#utility.yul\":40688:40702   */\n      mul\n        /* \"#utility.yul\":40684:40706   */\n      add\n        /* \"#utility.yul\":40678:40682   */\n      dup9\n        /* \"#utility.yul\":40671:40707   */\n      sstore\n        /* \"#utility.yul\":40106:40717   */\n      pop\n      pop\n      pop\n        /* \"#utility.yul\":40069:40956   */\n    tag_943:\n      pop\n        /* \"#utility.yul\":39659:40962   */\n      pop\n      pop\n      pop\n        /* \"#utility.yul\":39567:40962   */\n      pop\n      pop\n      jump\t// out\n        /* \"#utility.yul\":40968:41391   */\n    tag_252:\n        /* \"#utility.yul\":41109:41113   */\n      0x00\n        /* \"#utility.yul\":41147:41149   */\n      0x40\n        /* \"#utility.yul\":41136:41145   */\n      dup3\n        /* \"#utility.yul\":41132:41150   */\n      add\n        /* \"#utility.yul\":41124:41150   */\n      swap1\n      pop\n        /* \"#utility.yul\":41196:41205   */\n      dup2\n        /* \"#utility.yul\":41190:41194   */\n      dup2\n        /* \"#utility.yul\":41186:41206   */\n      sub\n        /* \"#utility.yul\":41182:41183   */\n      0x00\n        /* \"#utility.yul\":41171:41180   */\n      dup4\n        /* \"#utility.yul\":41167:41184   */\n      add\n        /* \"#utility.yul\":41160:41207   */\n      mstore\n        /* \"#utility.yul\":41224:41302   */\n      tag_954\n        /* \"#utility.yul\":41297:41301   */\n      dup2\n        /* \"#utility.yul\":41288:41294   */\n      dup6\n        /* \"#utility.yul\":41224:41302   */\n      tag_547\n      jump\t// in\n    tag_954:\n        /* \"#utility.yul\":41216:41302   */\n      swap1\n      pop\n        /* \"#utility.yul\":41312:41384   */\n      tag_955\n        /* \"#utility.yul\":41380:41382   */\n      0x20\n        /* \"#utility.yul\":41369:41378   */\n      dup4\n        /* \"#utility.yul\":41365:41383   */\n      add\n        /* \"#utility.yul\":41356:41362   */\n      dup5\n        /* \"#utility.yul\":41312:41384   */\n      tag_549\n      jump\t// in\n    tag_955:\n        /* \"#utility.yul\":40968:41391   */\n      swap4\n      swap3\n      pop\n      pop\n      pop\n      jump\t// out\n        /* \"#utility.yul\":41397:41566   */\n    tag_594:\n        /* \"#utility.yul\":41537:41558   */\n      0x5573657220616c72656164792065786973747300000000000000000000000000\n        /* \"#utility.yul\":41533:41534   */\n      0x00\n        /* \"#utility.yul\":41525:41531   */\n      dup3\n        /* \"#utility.yul\":41521:41535   */\n      add\n        /* \"#utility.yul\":41514:41559   */\n      mstore\n        /* \"#utility.yul\":41397:41566   */\n      pop\n      jump\t// out\n        /* \"#utility.yul\":41572:41938   */\n    tag_595:\n        /* \"#utility.yul\":41714:41717   */\n      0x00\n        /* \"#utility.yul\":41735:41802   */\n      tag_958\n        /* \"#utility.yul\":41799:41801   */\n      0x13\n        /* \"#utility.yul\":41794:41797   */\n      dup4\n        /* \"#utility.yul\":41735:41802   */\n      tag_546\n      jump\t// in\n    tag_958:\n        /* \"#utility.yul\":41728:41802   */\n      swap2\n      pop\n        /* \"#utility.yul\":41811:41904   */\n      tag_959\n        /* \"#utility.yul\":41900:41903   */\n      dup3\n        /* \"#utility.yul\":41811:41904   */\n      tag_594\n      jump\t// in\n    tag_959:\n        /* \"#utility.yul\":41929:41931   */\n      0x20\n        /* \"#utility.yul\":41924:41927   */\n      dup3\n        /* \"#utility.yul\":41920:41932   */\n      add\n        /* \"#utility.yul\":41913:41932   */\n      swap1\n      pop\n        /* \"#utility.yul\":41572:41938   */\n      swap2\n      swap1\n      pop\n      jump\t// out\n        /* \"#utility.yul\":41944:42363   */\n    tag_259:\n        /* \"#utility.yul\":42110:42114   */\n      0x00\n        /* \"#utility.yul\":42148:42150   */\n      0x20\n        /* \"#utility.yul\":42137:42146   */\n      dup3\n        /* \"#utility.yul\":42133:42151   */\n      add\n        /* \"#utility.yul\":42125:42151   */\n      swap1\n      pop\n        /* \"#utility.yul\":42197:42206   */\n      dup2\n        /* \"#utility.yul\":42191:42195   */\n      dup2\n        /* \"#utility.yul\":42187:42207   */\n      sub\n        /* \"#utility.yul\":42183:42184   */\n      0x00\n        /* \"#utility.yul\":42172:42181   */\n      dup4\n        /* \"#utility.yul\":42168:42185   */\n      add\n        /* \"#utility.yul\":42161:42208   */\n      mstore\n        /* \"#utility.yul\":42225:42356   */\n      tag_961\n        /* \"#utility.yul\":42351:42355   */\n      dup2\n        /* \"#utility.yul\":42225:42356   */\n      tag_595\n      jump\t// in\n    tag_961:\n        /* \"#utility.yul\":42217:42356   */\n      swap1\n      pop\n        /* \"#utility.yul\":41944:42363   */\n      swap2\n      swap1\n      pop\n      jump\t// out\n        /* \"#utility.yul\":42369:42541   */\n    tag_596:\n        /* \"#utility.yul\":42509:42533   */\n      0x437573746f6d657220646f65736e742065786973747300000000000000000000\n        /* \"#utility.yul\":42505:42506   */\n      0x00\n        /* \"#utility.yul\":42497:42503   */\n      dup3\n        /* \"#utility.yul\":42493:42507   */\n      add\n        /* \"#utility.yul\":42486:42534   */\n      mstore\n        /* \"#utility.yul\":42369:42541   */\n      pop\n      jump\t// out\n        /* \"#utility.yul\":42547:42913   */\n    tag_597:\n        /* \"#utility.yul\":42689:42692   */\n      0x00\n        /* \"#utility.yul\":42710:42777   */\n      tag_964\n        /* \"#utility.yul\":42774:42776   */\n      0x16\n        /* \"#utility.yul\":42769:42772   */\n      dup4\n        /* \"#utility.yul\":42710:42777   */\n      tag_546\n      jump\t// in\n    tag_964:\n        /* \"#utility.yul\":42703:42777   */\n      swap2\n      pop\n        /* \"#utility.yul\":42786:42879   */\n      tag_965\n        /* \"#utility.yul\":42875:42878   */\n      dup3\n        /* \"#utility.yul\":42786:42879   */\n      tag_596\n      jump\t// in\n    tag_965:\n        /* \"#utility.yul\":42904:42906   */\n      0x20\n        /* \"#utility.yul\":42899:42902   */\n      dup3\n        /* \"#utility.yul\":42895:42907   */\n      add\n        /* \"#utility.yul\":42888:42907   */\n      swap1\n      pop\n        /* \"#utility.yul\":42547:42913   */\n      swap2\n      swap1\n      pop\n      jump\t// out\n        /* \"#utility.yul\":42919:43338   */\n    tag_278:\n        /* \"#utility.yul\":43085:43089   */\n      0x00\n        /* \"#utility.yul\":43123:43125   */\n      0x20\n        /* \"#utility.yul\":43112:43121   */\n      dup3\n        /* \"#utility.yul\":43108:43126   */\n      add\n        /* \"#utility.yul\":43100:43126   */\n      swap1\n      pop\n        /* \"#utility.yul\":43172:43181   */\n      dup2\n        /* \"#utility.yul\":43166:43170   */\n      dup2\n        /* \"#utility.yul\":43162:43182   */\n      sub\n        /* \"#utility.yul\":43158:43159   */\n      0x00\n        /* \"#utility.yul\":43147:43156   */\n      dup4\n        /* \"#utility.yul\":43143:43160   */\n      add\n        /* \"#utility.yul\":43136:43183   */\n      mstore\n        /* \"#utility.yul\":43200:43331   */\n      tag_967\n        /* \"#utility.yul\":43326:43330   */\n      dup2\n        /* \"#utility.yul\":43200:43331   */\n      tag_597\n      jump\t// in\n    tag_967:\n        /* \"#utility.yul\":43192:43331   */\n      swap1\n      pop\n        /* \"#utility.yul\":42919:43338   */\n      swap2\n      swap1\n      pop\n      jump\t// out\n        /* \"#utility.yul\":43344:43513   */\n    tag_598:\n        /* \"#utility.yul\":43484:43505   */\n      0x416c726561647920686176652061636365737300000000000000000000000000\n        /* \"#utility.yul\":43480:43481   */\n      0x00\n        /* \"#utility.yul\":43472:43478   */\n      dup3\n        /* \"#utility.yul\":43468:43482   */\n      add\n        /* \"#utility.yul\":43461:43506   */\n      mstore\n        /* \"#utility.yul\":43344:43513   */\n      pop\n      jump\t// out\n        /* \"#utility.yul\":43519:43885   */\n    tag_599:\n        /* \"#utility.yul\":43661:43664   */\n      0x00\n        /* \"#utility.yul\":43682:43749   */\n      tag_970\n        /* \"#utility.yul\":43746:43748   */\n      0x13\n        /* \"#utility.yul\":43741:43744   */\n      dup4\n        /* \"#utility.yul\":43682:43749   */\n      tag_546\n      jump\t// in\n    tag_970:\n        /* \"#utility.yul\":43675:43749   */\n      swap2\n      pop\n        /* \"#utility.yul\":43758:43851   */\n      tag_971\n        /* \"#utility.yul\":43847:43850   */\n      dup3\n        /* \"#utility.yul\":43758:43851   */\n      tag_598\n      jump\t// in\n    tag_971:\n        /* \"#utility.yul\":43876:43878   */\n      0x20\n        /* \"#utility.yul\":43871:43874   */\n      dup3\n        /* \"#utility.yul\":43867:43879   */\n      add\n        /* \"#utility.yul\":43860:43879   */\n      swap1\n      pop\n        /* \"#utility.yul\":43519:43885   */\n      swap2\n      swap1\n      pop\n      jump\t// out\n        /* \"#utility.yul\":43891:44310   */\n    tag_282:\n        /* \"#utility.yul\":44057:44061   */\n      0x00\n        /* \"#utility.yul\":44095:44097   */\n      0x20\n        /* \"#utility.yul\":44084:44093   */\n      dup3\n        /* \"#utility.yul\":44080:44098   */\n      add\n        /* \"#utility.yul\":44072:44098   */\n      swap1\n      pop\n        /* \"#utility.yul\":44144:44153   */\n      dup2\n        /* \"#utility.yul\":44138:44142   */\n      dup2\n        /* \"#utility.yul\":44134:44154   */\n      sub\n        /* \"#utility.yul\":44130:44131   */\n      0x00\n        /* \"#utility.yul\":44119:44128   */\n      dup4\n        /* \"#utility.yul\":44115:44132   */\n      add\n        /* \"#utility.yul\":44108:44155   */\n      mstore\n        /* \"#utility.yul\":44172:44303   */\n      tag_973\n        /* \"#utility.yul\":44298:44302   */\n      dup2\n        /* \"#utility.yul\":44172:44303   */\n      tag_599\n      jump\t// in\n    tag_973:\n        /* \"#utility.yul\":44164:44303   */\n      swap1\n      pop\n        /* \"#utility.yul\":43891:44310   */\n      swap2\n      swap1\n      pop\n      jump\t// out\n        /* \"#utility.yul\":44316:44488   */\n    tag_600:\n        /* \"#utility.yul\":44456:44480   */\n      0x5265717565737420416c72656164792045786973747300000000000000000000\n        /* \"#utility.yul\":44452:44453   */\n      0x00\n        /* \"#utility.yul\":44444:44450   */\n      dup3\n        /* \"#utility.yul\":44440:44454   */\n      add\n        /* \"#utility.yul\":44433:44481   */\n      mstore\n        /* \"#utility.yul\":44316:44488   */\n      pop\n      jump\t// out\n        /* \"#utility.yul\":44494:44860   */\n    tag_601:\n        /* \"#utility.yul\":44636:44639   */\n      0x00\n        /* \"#utility.yul\":44657:44724   */\n      tag_976\n        /* \"#utility.yul\":44721:44723   */\n      0x16\n        /* \"#utility.yul\":44716:44719   */\n      dup4\n        /* \"#utility.yul\":44657:44724   */\n      tag_546\n      jump\t// in\n    tag_976:\n        /* \"#utility.yul\":44650:44724   */\n      swap2\n      pop\n        /* \"#utility.yul\":44733:44826   */\n      tag_977\n        /* \"#utility.yul\":44822:44825   */\n      dup3\n        /* \"#utility.yul\":44733:44826   */\n      tag_600\n      jump\t// in\n    tag_977:\n        /* \"#utility.yul\":44851:44853   */\n      0x20\n        /* \"#utility.yul\":44846:44849   */\n      dup3\n        /* \"#utility.yul\":44842:44854   */\n      add\n        /* \"#utility.yul\":44835:44854   */\n      swap1\n      pop\n        /* \"#utility.yul\":44494:44860   */\n      swap2\n      swap1\n      pop\n      jump\t// out\n        /* \"#utility.yul\":44866:45285   */\n    tag_287:\n        /* \"#utility.yul\":45032:45036   */\n      0x00\n        /* \"#utility.yul\":45070:45072   */\n      0x20\n        /* \"#utility.yul\":45059:45068   */\n      dup3\n        /* \"#utility.yul\":45055:45073   */\n      add\n        /* \"#utility.yul\":45047:45073   */\n      swap1\n      pop\n        /* \"#utility.yul\":45119:45128   */\n      dup2\n        /* \"#utility.yul\":45113:45117   */\n      dup2\n        /* \"#utility.yul\":45109:45129   */\n      sub\n        /* \"#utility.yul\":45105:45106   */\n      0x00\n        /* \"#utility.yul\":45094:45103   */\n      dup4\n        /* \"#utility.yul\":45090:45107   */\n      add\n        /* \"#utility.yul\":45083:45130   */\n      mstore\n        /* \"#utility.yul\":45147:45278   */\n      tag_979\n        /* \"#utility.yul\":45273:45277   */\n      dup2\n        /* \"#utility.yul\":45147:45278   */\n      tag_601\n      jump\t// in\n    tag_979:\n        /* \"#utility.yul\":45139:45278   */\n      swap1\n      pop\n        /* \"#utility.yul\":44866:45285   */\n      swap2\n      swap1\n      pop\n      jump\t// out\n        /* \"#utility.yul\":45291:45471   */\n    tag_602:\n        /* \"#utility.yul\":45339:45416   */\n      0x4e487b7100000000000000000000000000000000000000000000000000000000\n        /* \"#utility.yul\":45336:45337   */\n      0x00\n        /* \"#utility.yul\":45329:45417   */\n      mstore\n        /* \"#utility.yul\":45436:45440   */\n      0x11\n        /* \"#utility.yul\":45433:45434   */\n      0x04\n        /* \"#utility.yul\":45426:45441   */\n      mstore\n        /* \"#utility.yul\":45460:45464   */\n      0x24\n        /* \"#utility.yul\":45457:45458   */\n      0x00\n        /* \"#utility.yul\":45450:45465   */\n      revert\n        /* \"#utility.yul\":45477:45710   */\n    tag_291:\n        /* \"#utility.yul\":45516:45519   */\n      0x00\n        /* \"#utility.yul\":45539:45563   */\n      tag_982\n        /* \"#utility.yul\":45557:45562   */\n      dup3\n        /* \"#utility.yul\":45539:45563   */\n      tag_508\n      jump\t// in\n    tag_982:\n        /* \"#utility.yul\":45530:45563   */\n      swap2\n      pop\n        /* \"#utility.yul\":45585:45651   */\n      0xffffffffffffffffffffffffffffffffffffffffffffffffffffffffffffffff\n        /* \"#utility.yul\":45578:45583   */\n      dup3\n        /* \"#utility.yul\":45575:45652   */\n      sub\n        /* \"#utility.yul\":45572:45675   */\n      tag_983\n      jumpi\n        /* \"#utility.yul\":45655:45673   */\n      tag_984\n      tag_602\n      jump\t// in\n    tag_984:\n        /* \"#utility.yul\":45572:45675   */\n    tag_983:\n        /* \"#utility.yul\":45702:45703   */\n      0x01\n        /* \"#utility.yul\":45695:45700   */\n      dup3\n        /* \"#utility.yul\":45691:45704   */\n      add\n        /* \"#utility.yul\":45684:45704   */\n      swap1\n      pop\n        /* \"#utility.yul\":45477:45710   */\n      swap2\n      swap1\n      pop\n      jump\t// out\n        /* \"#utility.yul\":45716:45884   */\n    tag_603:\n        /* \"#utility.yul\":45856:45876   */\n      0x437573746f6d6572206e6f742076616c69640000000000000000000000000000\n        /* \"#utility.yul\":45852:45853   */\n      0x00\n        /* \"#utility.yul\":45844:45850   */\n      dup3\n        /* \"#utility.yul\":45840:45854   */\n      add\n        /* \"#utility.yul\":45833:45877   */\n      mstore\n        /* \"#utility.yul\":45716:45884   */\n      pop\n      jump\t// out\n        /* \"#utility.yul\":45890:46256   */\n    tag_604:\n        /* \"#utility.yul\":46032:46035   */\n      0x00\n        /* \"#utility.yul\":46053:46120   */\n      tag_987\n        /* \"#utility.yul\":46117:46119   */\n      0x12\n        /* \"#utility.yul\":46112:46115   */\n      dup4\n        /* \"#utility.yul\":46053:46120   */\n      tag_546\n      jump\t// in\n    tag_987:\n        /* \"#utility.yul\":46046:46120   */\n      swap2\n      pop\n        /* \"#utility.yul\":46129:46222   */\n      tag_988\n        /* \"#utility.yul\":46218:46221   */\n      dup3\n        /* \"#utility.yul\":46129:46222   */\n      tag_603\n      jump\t// in\n    tag_988:\n        /* \"#utility.yul\":46247:46249   */\n      0x20\n        /* \"#utility.yul\":46242:46245   */\n      dup3\n        /* \"#utility.yul\":46238:46250   */\n      add\n        /* \"#utility.yul\":46231:46250   */\n      swap1\n      pop\n        /* \"#utility.yul\":45890:46256   */\n      swap2\n      swap1\n      pop\n      jump\t// out\n        /* \"#utility.yul\":46262:46681   */\n    tag_296:\n        /* \"#utility.yul\":46428:46432   */\n      0x00\n        /* \"#utility.yul\":46466:46468   */\n      0x20\n        /* \"#utility.yul\":46455:46464   */\n      dup3\n        /* \"#utility.yul\":46451:46469   */\n      add\n        /* \"#utility.yul\":46443:46469   */\n      swap1\n      pop\n        /* \"#utility.yul\":46515:46524   */\n      dup2\n        /* \"#utility.yul\":46509:46513   */\n      dup2\n        /* \"#utility.yul\":46505:46525   */\n      sub\n        /* \"#utility.yul\":46501:46502   */\n      0x00\n        /* \"#utility.yul\":46490:46499   */\n      dup4\n        /* \"#utility.yul\":46486:46503   */\n      add\n        /* \"#utility.yul\":46479:46526   */\n      mstore\n        /* \"#utility.yul\":46543:46674   */\n      tag_990\n        /* \"#utility.yul\":46669:46673   */\n      dup2\n        /* \"#utility.yul\":46543:46674   */\n      tag_604\n      jump\t// in\n    tag_990:\n        /* \"#utility.yul\":46535:46674   */\n      swap1\n      pop\n        /* \"#utility.yul\":46262:46681   */\n      swap2\n      swap1\n      pop\n      jump\t// out\n        /* \"#utility.yul\":46687:46867   */\n    tag_605:\n        /* \"#utility.yul\":46827:46859   */\n      0x55736572206861736e7420676976656e20746865697220636f6e73656e740000\n        /* \"#utility.yul\":46823:46824   */\n      0x00\n        /* \"#utility.yul\":46815:46821   */\n      dup3\n        /* \"#utility.yul\":46811:46825   */\n      add\n        /* \"#utility.yul\":46804:46860   */\n      mstore\n        /* \"#utility.yul\":46687:46867   */\n      pop\n      jump\t// out\n        /* \"#utility.yul\":46873:47239   */\n    tag_606:\n        /* \"#utility.yul\":47015:47018   */\n      0x00\n        /* \"#utility.yul\":47036:47103   */\n      tag_993\n        /* \"#utility.yul\":47100:47102   */\n      0x1e\n        /* \"#utility.yul\":47095:47098   */\n      dup4\n        /* \"#utility.yul\":47036:47103   */\n      tag_546\n      jump\t// in\n    tag_993:\n        /* \"#utility.yul\":47029:47103   */\n      swap2\n      pop\n        /* \"#utility.yul\":47112:47205   */\n      tag_994\n        /* \"#utility.yul\":47201:47204   */\n      dup3\n        /* \"#utility.yul\":47112:47205   */\n      tag_605\n      jump\t// in\n    tag_994:\n        /* \"#utility.yul\":47230:47232   */\n      0x20\n        /* \"#utility.yul\":47225:47228   */\n      dup3\n        /* \"#utility.yul\":47221:47233   */\n      add\n        /* \"#utility.yul\":47214:47233   */\n      swap1\n      pop\n        /* \"#utility.yul\":46873:47239   */\n      swap2\n      swap1\n      pop\n      jump\t// out\n        /* \"#utility.yul\":47245:47664   */\n    tag_349:\n        /* \"#utility.yul\":47411:47415   */\n      0x00\n        /* \"#utility.yul\":47449:47451   */\n      0x20\n        /* \"#utility.yul\":47438:47447   */\n      dup3\n        /* \"#utility.yul\":47434:47452   */\n      add\n        /* \"#utility.yul\":47426:47452   */\n      swap1\n      pop\n        /* \"#utility.yul\":47498:47507   */\n      dup2\n        /* \"#utility.yul\":47492:47496   */\n      dup2\n        /* \"#utility.yul\":47488:47508   */\n      sub\n        /* \"#utility.yul\":47484:47485   */\n      0x00\n        /* \"#utility.yul\":47473:47482   */\n      dup4\n        /* \"#utility.yul\":47469:47486   */\n      add\n        /* \"#utility.yul\":47462:47509   */\n      mstore\n        /* \"#utility.yul\":47526:47657   */\n      tag_996\n        /* \"#utility.yul\":47652:47656   */\n      dup2\n        /* \"#utility.yul\":47526:47657   */\n      tag_606\n      jump\t// in\n    tag_996:\n        /* \"#utility.yul\":47518:47657   */\n      swap1\n      pop\n        /* \"#utility.yul\":47245:47664   */\n      swap2\n      swap1\n      pop\n      jump\t// out\n        /* \"#utility.yul\":47670:47864   */\n    tag_405:\n        /* \"#utility.yul\":47710:47714   */\n      0x00\n        /* \"#utility.yul\":47730:47750   */\n      tag_998\n        /* \"#utility.yul\":47748:47749   */\n      dup3\n        /* \"#utility.yul\":47730:47750   */\n      tag_508\n      jump\t// in\n    tag_998:\n        /* \"#utility.yul\":47725:47750   */\n      swap2\n      pop\n        /* \"#utility.yul\":47764:47784   */\n      tag_999\n        /* \"#utility.yul\":47782:47783   */\n      dup4\n        /* \"#utility.yul\":47764:47784   */\n      tag_508\n      jump\t// in\n    tag_999:\n        /* \"#utility.yul\":47759:47784   */\n      swap3\n      pop\n        /* \"#utility.yul\":47808:47809   */\n      dup3\n        /* \"#utility.yul\":47805:47806   */\n      dup3\n        /* \"#utility.yul\":47801:47810   */\n      sub\n        /* \"#utility.yul\":47793:47810   */\n      swap1\n      pop\n        /* \"#utility.yul\":47832:47833   */\n      dup2\n        /* \"#utility.yul\":47826:47830   */\n      dup2\n        /* \"#utility.yul\":47823:47834   */\n      gt\n        /* \"#utility.yul\":47820:47857   */\n      iszero\n      tag_1000\n      jumpi\n        /* \"#utility.yul\":47837:47855   */\n      tag_1001\n      tag_602\n      jump\t// in\n    tag_1001:\n        /* \"#utility.yul\":47820:47857   */\n    tag_1000:\n        /* \"#utility.yul\":47670:47864   */\n      swap3\n      swap2\n      pop\n      pop\n      jump\t// out\n        /* \"#utility.yul\":47870:48050   */\n    tag_414:\n        /* \"#utility.yul\":47918:47995   */\n      0x4e487b7100000000000000000000000000000000000000000000000000000000\n        /* \"#utility.yul\":47915:47916   */\n      0x00\n        /* \"#utility.yul\":47908:47996   */\n      mstore\n        /* \"#utility.yul\":48015:48019   */\n      0x31\n        /* \"#utility.yul\":48012:48013   */\n      0x04\n        /* \"#utility.yul\":48005:48020   */\n      mstore\n        /* \"#utility.yul\":48039:48043   */\n      0x24\n        /* \"#utility.yul\":48036:48037   */\n      0x00\n        /* \"#utility.yul\":48029:48044   */\n      revert\n        /* \"#utility.yul\":48056:48227   */\n    tag_453:\n        /* \"#utility.yul\":48095:48098   */\n      0x00\n        /* \"#utility.yul\":48118:48142   */\n      tag_1004\n        /* \"#utility.yul\":48136:48141   */\n      dup3\n        /* \"#utility.yul\":48118:48142   */\n      tag_508\n      jump\t// in\n    tag_1004:\n        /* \"#utility.yul\":48109:48142   */\n      swap2\n      pop\n        /* \"#utility.yul\":48164:48168   */\n      0x00\n        /* \"#utility.yul\":48157:48162   */\n      dup3\n        /* \"#utility.yul\":48154:48169   */\n      sub\n        /* \"#utility.yul\":48151:48192   */\n      tag_1005\n      jumpi\n        /* \"#utility.yul\":48172:48190   */\n      tag_1006\n      tag_602\n      jump\t// in\n    tag_1006:\n        /* \"#utility.yul\":48151:48192   */\n    tag_1005:\n        /* \"#utility.yul\":48219:48220   */\n      0x01\n        /* \"#utility.yul\":48212:48217   */\n      dup3\n        /* \"#utility.yul\":48208:48221   */\n      sub\n        /* \"#utility.yul\":48201:48221   */\n      swap1\n      pop\n        /* \"#utility.yul\":48056:48227   */\n      swap2\n      swap1\n      pop\n      jump\t// out\n        /* \"#utility.yul\":48233:48565   */\n    tag_455:\n        /* \"#utility.yul\":48354:48358   */\n      0x00\n        /* \"#utility.yul\":48392:48394   */\n      0x40\n        /* \"#utility.yul\":48381:48390   */\n      dup3\n        /* \"#utility.yul\":48377:48395   */\n      add\n        /* \"#utility.yul\":48369:48395   */\n      swap1\n      pop\n        /* \"#utility.yul\":48405:48476   */\n      tag_1008\n        /* \"#utility.yul\":48473:48474   */\n      0x00\n        /* \"#utility.yul\":48462:48471   */\n      dup4\n        /* \"#utility.yul\":48458:48475   */\n      add\n        /* \"#utility.yul\":48449:48455   */\n      dup6\n        /* \"#utility.yul\":48405:48476   */\n      tag_548\n      jump\t// in\n    tag_1008:\n        /* \"#utility.yul\":48486:48558   */\n      tag_1009\n        /* \"#utility.yul\":48554:48556   */\n      0x20\n        /* \"#utility.yul\":48543:48552   */\n      dup4\n        /* \"#utility.yul\":48539:48557   */\n      add\n        /* \"#utility.yul\":48530:48536   */\n      dup5\n        /* \"#utility.yul\":48486:48558   */\n      tag_549\n      jump\t// in\n    tag_1009:\n        /* \"#utility.yul\":48233:48565   */\n      swap4\n      swap3\n      pop\n      pop\n      pop\n      jump\t// out\n\n    auxdata: 0xa26469706673582212206a0fa70e0df58940fa65bd9be928c8b7d0a2ea8dd18d6cc091f22875e88239bb64736f6c63430008120033\n}\n",
				"bytecode": {
					"linkReferences": {},
					"object": "608060405234801561001057600080fd5b50336000806101000a81548173ffffffffffffffffffffffffffffffffffffffff021916908373ffffffffffffffffffffffffffffffffffffffff160217905550615f4680620000616000396000f3fe608060405234801561001057600080fd5b50600436106101375760003560e01c8063a1ac9e57116100b8578063ceacabd51161007c578063ceacabd5146103b0578063d6bbbf84146103ce578063d9b18f04146103ec578063e1b2dbe814610422578063f3a9b58814610440578063f851a4401461045e57610137565b8063a1ac9e57146102d2578063a64266e714610302578063b7e4a42d14610332578063c10cebe614610362578063ca1cbcc21461039257610137565b80634f4b4f78116100ff5780634f4b4f781461020857806354291824146102265780637042d70c1461025657806384f702ee1461027257806388c4ce54146102a257610137565b806306e5d4d11461013c578063243f6b581461016c5780632a539a221461019c57806332722a25146101cc5780633b2b8abf146101ea575b600080fd5b610156600480360381019061015191906147a7565b61047c565b60405161016391906147ef565b60405180910390f35b610186600480360381019061018191906147a7565b6105aa565b60405161019391906147ef565b60405180910390f35b6101b660048036038101906101b1919061486c565b6107a8565b6040516101c391906147ef565b60405180910390f35b6101d4610afe565b6040516101e1919061499b565b60405180910390f35b6101f2610d0d565b6040516101ff9190614a6c565b60405180910390f35b610210610eab565b60405161021d91906147ef565b60405180910390f35b610240600480360381019061023b9190614a8e565b610f53565b60405161024d91906147ef565b60405180910390f35b610270600480360381019061026b9190614abb565b61123b565b005b61028c60048036038101906102879190614c30565b6114b4565b60405161029991906147ef565b60405180910390f35b6102bc60048036038101906102b791906147a7565b6116f8565b6040516102c9919061499b565b60405180910390f35b6102ec60048036038101906102e79190614d56565b611997565b6040516102f991906147ef565b60405180910390f35b61031c60048036038101906103179190614c30565b611ccd565b60405161032991906147ef565b60405180910390f35b61034c600480360381019061034791906147a7565b611ed2565b60405161035991906147ef565b60405180910390f35b61037c600480360381019061037791906147a7565b6120eb565b60405161038991906147ef565b60405180910390f35b61039a6125e3565b6040516103a79190614e9f565b60405180910390f35b6103b861282f565b6040516103c59190615020565b60405180910390f35b6103d6612c29565b6040516103e391906147ef565b60405180910390f35b610406600480360381019061040191906147a7565b612c8f565b604051610419979695949392919061509b565b60405180910390f35b61042a61310a565b60405161043791906147ef565b60405180910390f35b6104486131b2565b6040516104559190614e9f565b60405180910390f35b610466613481565b6040516104739190615135565b60405180910390f35b60003373ffffffffffffffffffffffffffffffffffffffff16600160003373ffffffffffffffffffffffffffffffffffffffff1673ffffffffffffffffffffffffffffffffffffffff16815260200190815260200160002060000160009054906101000a900473ffffffffffffffffffffffffffffffffffffffff1673ffffffffffffffffffffffffffffffffffffffff161461054e576040517f08c379a0000000000000000000000000000000000000000000000000000000008152600401610545906151c2565b60405180910390fd5b61055833836134a5565b610597576040517f08c379a000000000000000000000000000000000000000000000000000000000815260040161058e90615254565b60405180910390fd5b6105a133836135d4565b60019050919050565b60003373ffffffffffffffffffffffffffffffffffffffff16600260003373ffffffffffffffffffffffffffffffffffffffff1673ffffffffffffffffffffffffffffffffffffffff16815260200190815260200160002060010160009054906101000a900473ffffffffffffffffffffffffffffffffffffffff1673ffffffffffffffffffffffffffffffffffffffff161461067c576040517f08c379a0000000000000000000000000000000000000000000000000000000008152600401610673906152c0565b60405180910390fd5b8173ffffffffffffffffffffffffffffffffffffffff16600160008473ffffffffffffffffffffffffffffffffffffffff1673ffffffffffffffffffffffffffffffffffffffff16815260200190815260200160002060000160009054906101000a900473ffffffffffffffffffffffffffffffffffffffff1673ffffffffffffffffffffffffffffffffffffffff161461074c576040517f08c379a00000000000000000000000000000000000000000000000000000000081526004016107439061532c565b60405180910390fd5b61075682336134a5565b610795576040517f08c379a000000000000000000000000000000000000000000000000000000000815260040161078c90615254565b60405180910390fd5b61079f82336135d4565b60019050919050565b60003373ffffffffffffffffffffffffffffffffffffffff16600160003373ffffffffffffffffffffffffffffffffffffffff1673ffffffffffffffffffffffffffffffffffffffff16815260200190815260200160002060000160009054906101000a900473ffffffffffffffffffffffffffffffffffffffff1673ffffffffffffffffffffffffffffffffffffffff161461087a576040517f08c379a0000000000000000000000000000000000000000000000000000000008152600401610871906153be565b60405180910390fd5b3373ffffffffffffffffffffffffffffffffffffffff16600360008573ffffffffffffffffffffffffffffffffffffffff1673ffffffffffffffffffffffffffffffffffffffff16815260200190815260200160002060020185815481106108e5576108e46153de565b5b906000526020600020906002020160010160009054906101000a900473ffffffffffffffffffffffffffffffffffffffff1673ffffffffffffffffffffffffffffffffffffffff161461096d576040517f08c379a000000000000000000000000000000000000000000000000000000000815260040161096490615459565b60405180910390fd5b83600360008573ffffffffffffffffffffffffffffffffffffffff1673ffffffffffffffffffffffffffffffffffffffff16815260200190815260200160002060020185815481106109c2576109c16153de565b5b90600052602060002090600202016000015414610a14576040517f08c379a0000000000000000000000000000000000000000000000000000000008152600401610a0b906154c5565b60405180910390fd5b6001151582151503610ae85760001515610a2e33856134a5565b151503610ad957600160003373ffffffffffffffffffffffffffffffffffffffff1673ffffffffffffffffffffffffffffffffffffffff168152602001908152602001600020600701839080600181540180825580915050600190039060005260206000200160009091909190916101000a81548173ffffffffffffffffffffffffffffffffffffffff021916908373ffffffffffffffffffffffffffffffffffffffff1602179055505b610ae3848461123b565b610af3565b610af2848461123b565b5b600190509392505050565b610b06614614565b3373ffffffffffffffffffffffffffffffffffffffff16600260003373ffffffffffffffffffffffffffffffffffffffff1673ffffffffffffffffffffffffffffffffffffffff16815260200190815260200160002060010160009054906101000a900473ffffffffffffffffffffffffffffffffffffffff1673ffffffffffffffffffffffffffffffffffffffff1614610bd6576040517f08c379a0000000000000000000000000000000000000000000000000000000008152600401610bcd906152c0565b60405180910390fd5b600260003373ffffffffffffffffffffffffffffffffffffffff1673ffffffffffffffffffffffffffffffffffffffff168152602001908152602001600020604051806040016040529081600082018054610c3090615514565b80601f0160208091040260200160405190810160405280929190818152602001828054610c5c90615514565b8015610ca95780601f10610c7e57610100808354040283529160200191610ca9565b820191906000526020600020905b815481529060010190602001808311610c8c57829003601f168201915b505050505081526020016001820160009054906101000a900473ffffffffffffffffffffffffffffffffffffffff1673ffffffffffffffffffffffffffffffffffffffff1673ffffffffffffffffffffffffffffffffffffffff1681525050905090565b60603373ffffffffffffffffffffffffffffffffffffffff16600160003373ffffffffffffffffffffffffffffffffffffffff1673ffffffffffffffffffffffffffffffffffffffff16815260200190815260200160002060000160009054906101000a900473ffffffffffffffffffffffffffffffffffffffff1673ffffffffffffffffffffffffffffffffffffffff1614610ddf576040517f08c379a0000000000000000000000000000000000000000000000000000000008152600401610dd690615591565b60405180910390fd5b600160003373ffffffffffffffffffffffffffffffffffffffff1673ffffffffffffffffffffffffffffffffffffffff168152602001908152602001600020600701805480602002602001604051908101604052809291908181526020018280548015610ea157602002820191906000526020600020905b8160009054906101000a900473ffffffffffffffffffffffffffffffffffffffff1673ffffffffffffffffffffffffffffffffffffffff1681526020019060010190808311610e57575b5050505050905090565b60003373ffffffffffffffffffffffffffffffffffffffff16600260003373ffffffffffffffffffffffffffffffffffffffff1673ffffffffffffffffffffffffffffffffffffffff16815260200190815260200160002060010160009054906101000a900473ffffffffffffffffffffffffffffffffffffffff1673ffffffffffffffffffffffffffffffffffffffff1603610f4b5760019050610f50565b600090505b90565b60003373ffffffffffffffffffffffffffffffffffffffff16600260003373ffffffffffffffffffffffffffffffffffffffff1673ffffffffffffffffffffffffffffffffffffffff16815260200190815260200160002060010160009054906101000a900473ffffffffffffffffffffffffffffffffffffffff1673ffffffffffffffffffffffffffffffffffffffff1614611025576040517f08c379a000000000000000000000000000000000000000000000000000000000815260040161101c906152c0565b60405180910390fd5b3373ffffffffffffffffffffffffffffffffffffffff16600360003373ffffffffffffffffffffffffffffffffffffffff1673ffffffffffffffffffffffffffffffffffffffff16815260200190815260200160002060000160009054906101000a900473ffffffffffffffffffffffffffffffffffffffff1673ffffffffffffffffffffffffffffffffffffffff16146110f5576040517f08c379a00000000000000000000000000000000000000000000000000000000081526004016110ec90615623565b60405180910390fd5b81600360003373ffffffffffffffffffffffffffffffffffffffff1673ffffffffffffffffffffffffffffffffffffffff168152602001908152602001600020600201838154811061114a576111496153de565b5b9060005260206000209060020201600001541461119c576040517f08c379a00000000000000000000000000000000000000000000000000000000081526004016111939061568f565b60405180910390fd5b6000600360003373ffffffffffffffffffffffffffffffffffffffff1673ffffffffffffffffffffffffffffffffffffffff16815260200190815260200160002060020183815481106111f2576111f16153de565b5b906000526020600020906002020160010160009054906101000a900473ffffffffffffffffffffffffffffffffffffffff1690506112318382336137d9565b6001915050919050565b8073ffffffffffffffffffffffffffffffffffffffff16600260008373ffffffffffffffffffffffffffffffffffffffff1673ffffffffffffffffffffffffffffffffffffffff16815260200190815260200160002060010160009054906101000a900473ffffffffffffffffffffffffffffffffffffffff1673ffffffffffffffffffffffffffffffffffffffff161461130b576040517f08c379a000000000000000000000000000000000000000000000000000000000815260040161130290615721565b60405180910390fd5b3373ffffffffffffffffffffffffffffffffffffffff16600360008373ffffffffffffffffffffffffffffffffffffffff1673ffffffffffffffffffffffffffffffffffffffff1681526020019081526020016000206002018381548110611376576113756153de565b5b906000526020600020906002020160010160009054906101000a900473ffffffffffffffffffffffffffffffffffffffff1673ffffffffffffffffffffffffffffffffffffffff16146113fe576040517f08c379a00000000000000000000000000000000000000000000000000000000081526004016113f590615459565b60405180910390fd5b81600360008373ffffffffffffffffffffffffffffffffffffffff1673ffffffffffffffffffffffffffffffffffffffff1681526020019081526020016000206002018381548110611453576114526153de565b5b906000526020600020906002020160000154146114a5576040517f08c379a000000000000000000000000000000000000000000000000000000000815260040161149c9061568f565b60405180910390fd5b6114b08233836137d9565b5050565b60003373ffffffffffffffffffffffffffffffffffffffff16600260003373ffffffffffffffffffffffffffffffffffffffff1673ffffffffffffffffffffffffffffffffffffffff16815260200190815260200160002060010160009054906101000a900473ffffffffffffffffffffffffffffffffffffffff1673ffffffffffffffffffffffffffffffffffffffff1614611586576040517f08c379a000000000000000000000000000000000000000000000000000000000815260040161157d906152c0565b60405180910390fd5b8873ffffffffffffffffffffffffffffffffffffffff16600160008b73ffffffffffffffffffffffffffffffffffffffff1673ffffffffffffffffffffffffffffffffffffffff16815260200190815260200160002060000160009054906101000a900473ffffffffffffffffffffffffffffffffffffffff1673ffffffffffffffffffffffffffffffffffffffff1614611656576040517f08c379a000000000000000000000000000000000000000000000000000000000815260040161164d9061532c565b60405180910390fd5b61166089336134a5565b61169f576040517f08c379a000000000000000000000000000000000000000000000000000000000815260040161169690615254565b60405180910390fd5b6116af8989898989898989613f1b565b7f0c14653fca65d1b22631a36a53bd2a7153579eb0180192d23b52babb69c2805089856040516116e0929190615741565b60405180910390a16001905098975050505050505050565b611700614614565b3373ffffffffffffffffffffffffffffffffffffffff1660008054906101000a900473ffffffffffffffffffffffffffffffffffffffff1673ffffffffffffffffffffffffffffffffffffffff161461178e576040517f08c379a0000000000000000000000000000000000000000000000000000000008152600401611785906157b6565b60405180910390fd5b8173ffffffffffffffffffffffffffffffffffffffff16600260008473ffffffffffffffffffffffffffffffffffffffff1673ffffffffffffffffffffffffffffffffffffffff16815260200190815260200160002060010160009054906101000a900473ffffffffffffffffffffffffffffffffffffffff1673ffffffffffffffffffffffffffffffffffffffff161461185e576040517f08c379a000000000000000000000000000000000000000000000000000000000815260040161185590615822565b60405180910390fd5b600260008373ffffffffffffffffffffffffffffffffffffffff1673ffffffffffffffffffffffffffffffffffffffff1681526020019081526020016000206040518060400160405290816000820180546118b890615514565b80601f01602080910402602001604051908101604052809291908181526020018280546118e490615514565b80156119315780601f1061190657610100808354040283529160200191611931565b820191906000526020600020905b81548152906001019060200180831161191457829003601f168201915b505050505081526020016001820160009054906101000a900473ffffffffffffffffffffffffffffffffffffffff1673ffffffffffffffffffffffffffffffffffffffff1673ffffffffffffffffffffffffffffffffffffffff16815250509050919050565b60003373ffffffffffffffffffffffffffffffffffffffff1660008054906101000a900473ffffffffffffffffffffffffffffffffffffffff1673ffffffffffffffffffffffffffffffffffffffff1614611a27576040517f08c379a0000000000000000000000000000000000000000000000000000000008152600401611a1e906157b6565b60405180910390fd5b8173ffffffffffffffffffffffffffffffffffffffff16600260008473ffffffffffffffffffffffffffffffffffffffff1673ffffffffffffffffffffffffffffffffffffffff16815260200190815260200160002060010160009054906101000a900473ffffffffffffffffffffffffffffffffffffffff1673ffffffffffffffffffffffffffffffffffffffff1603611af7576040517f08c379a0000000000000000000000000000000000000000000000000000000008152600401611aee9061588e565b60405180910390fd5b60405180604001604052808481526020018373ffffffffffffffffffffffffffffffffffffffff16815250600260008473ffffffffffffffffffffffffffffffffffffffff1673ffffffffffffffffffffffffffffffffffffffff1681526020019081526020016000206000820151816000019081611b769190615a5a565b5060208201518160010160006101000a81548173ffffffffffffffffffffffffffffffffffffffff021916908373ffffffffffffffffffffffffffffffffffffffff16021790555090505081600360008473ffffffffffffffffffffffffffffffffffffffff1673ffffffffffffffffffffffffffffffffffffffff16815260200190815260200160002060000160006101000a81548173ffffffffffffffffffffffffffffffffffffffff021916908373ffffffffffffffffffffffffffffffffffffffff1602179055506000600360008473ffffffffffffffffffffffffffffffffffffffff1673ffffffffffffffffffffffffffffffffffffffff168152602001908152602001600020600101819055507f19cb05bcb9f3a5aa3801619041099231656235762a3599eed02cdcac38facd1c8383604051611cbb929190615b2c565b60405180910390a16001905092915050565b60003373ffffffffffffffffffffffffffffffffffffffff16600260003373ffffffffffffffffffffffffffffffffffffffff1673ffffffffffffffffffffffffffffffffffffffff16815260200190815260200160002060010160009054906101000a900473ffffffffffffffffffffffffffffffffffffffff1673ffffffffffffffffffffffffffffffffffffffff1614611d9f576040517f08c379a0000000000000000000000000000000000000000000000000000000008152600401611d96906152c0565b60405180910390fd5b8873ffffffffffffffffffffffffffffffffffffffff16600160008b73ffffffffffffffffffffffffffffffffffffffff1673ffffffffffffffffffffffffffffffffffffffff16815260200190815260200160002060000160009054906101000a900473ffffffffffffffffffffffffffffffffffffffff1673ffffffffffffffffffffffffffffffffffffffff1603611e6f576040517f08c379a0000000000000000000000000000000000000000000000000000000008152600401611e6690615ba8565b60405180910390fd5b611e7f8989898989898989613f1b565b611e88896120eb565b507f1d22f26dee56193a2da8b325a26e02b936d68be9f49c0a6f92534464aa8f2ecf8985604051611eba929190615741565b60405180910390a16001905098975050505050505050565b60003373ffffffffffffffffffffffffffffffffffffffff1660008054906101000a900473ffffffffffffffffffffffffffffffffffffffff1673ffffffffffffffffffffffffffffffffffffffff1614611f62576040517f08c379a0000000000000000000000000000000000000000000000000000000008152600401611f59906157b6565b60405180910390fd5b8173ffffffffffffffffffffffffffffffffffffffff16600260008473ffffffffffffffffffffffffffffffffffffffff1673ffffffffffffffffffffffffffffffffffffffff16815260200190815260200160002060010160009054906101000a900473ffffffffffffffffffffffffffffffffffffffff1673ffffffffffffffffffffffffffffffffffffffff1614612032576040517f08c379a000000000000000000000000000000000000000000000000000000000815260040161202990615822565b60405180910390fd5b600260008373ffffffffffffffffffffffffffffffffffffffff1673ffffffffffffffffffffffffffffffffffffffff168152602001908152602001600020600080820160006120829190614644565b6001820160006101000a81549073ffffffffffffffffffffffffffffffffffffffff021916905550507f4630061df51c52d44a3987b904c6ff220da2cbdeff03ce8750cd14652cae0c6c826040516120da9190615135565b60405180910390a160019050919050565b60003373ffffffffffffffffffffffffffffffffffffffff16600260003373ffffffffffffffffffffffffffffffffffffffff1673ffffffffffffffffffffffffffffffffffffffff16815260200190815260200160002060010160009054906101000a900473ffffffffffffffffffffffffffffffffffffffff1673ffffffffffffffffffffffffffffffffffffffff16146121bd576040517f08c379a00000000000000000000000000000000000000000000000000000000081526004016121b4906152c0565b60405180910390fd5b8173ffffffffffffffffffffffffffffffffffffffff16600160008473ffffffffffffffffffffffffffffffffffffffff1673ffffffffffffffffffffffffffffffffffffffff16815260200190815260200160002060000160009054906101000a900473ffffffffffffffffffffffffffffffffffffffff1673ffffffffffffffffffffffffffffffffffffffff161461228d576040517f08c379a000000000000000000000000000000000000000000000000000000000815260040161228490615c14565b60405180910390fd5b6000151561229b83336134a5565b1515146122dd576040517f08c379a00000000000000000000000000000000000000000000000000000000081526004016122d490615c80565b60405180910390fd5b600015156122ea83614287565b15151461232c576040517f08c379a000000000000000000000000000000000000000000000000000000000815260040161232390615cec565b60405180910390fd5b600360003373ffffffffffffffffffffffffffffffffffffffff1673ffffffffffffffffffffffffffffffffffffffff1681526020019081526020016000206002016040518060400160405280600360003373ffffffffffffffffffffffffffffffffffffffff1673ffffffffffffffffffffffffffffffffffffffff1681526020019081526020016000206001015481526020018473ffffffffffffffffffffffffffffffffffffffff1681525090806001815401808255809150506001900390600052602060002090600202016000909190919091506000820151816000015560208201518160010160006101000a81548173ffffffffffffffffffffffffffffffffffffffff021916908373ffffffffffffffffffffffffffffffffffffffff1602179055505050600460008373ffffffffffffffffffffffffffffffffffffffff1673ffffffffffffffffffffffffffffffffffffffff1681526020019081526020016000206000016040518060400160405280600360003373ffffffffffffffffffffffffffffffffffffffff1673ffffffffffffffffffffffffffffffffffffffff1681526020019081526020016000206001015481526020013373ffffffffffffffffffffffffffffffffffffffff1681525090806001815401808255809150506001900390600052602060002090600202016000909190919091506000820151816000015560208201518160010160006101000a81548173ffffffffffffffffffffffffffffffffffffffff021916908373ffffffffffffffffffffffffffffffffffffffff1602179055505050600360003373ffffffffffffffffffffffffffffffffffffffff1673ffffffffffffffffffffffffffffffffffffffff16815260200190815260200160002060010160008154809291906125d590615d3b565b919050555060019050919050565b60606125ed61310a565b61262c576040517f08c379a000000000000000000000000000000000000000000000000000000000815260040161262390615dcf565b60405180910390fd5b6000600460003373ffffffffffffffffffffffffffffffffffffffff1673ffffffffffffffffffffffffffffffffffffffff1681526020019081526020016000206000018054905067ffffffffffffffff81111561268d5761268c614b05565b5b6040519080825280602002602001820160405280156126c657816020015b6126b3614684565b8152602001906001900390816126ab5790505b5090506000805b600460003373ffffffffffffffffffffffffffffffffffffffff1673ffffffffffffffffffffffffffffffffffffffff1681526020019081526020016000206000018054905081101561282657600460003373ffffffffffffffffffffffffffffffffffffffff1673ffffffffffffffffffffffffffffffffffffffff168152602001908152602001600020600001818154811061276e5761276d6153de565b5b9060005260206000209060020201604051806040016040529081600082015481526020016001820160009054906101000a900473ffffffffffffffffffffffffffffffffffffffff1673ffffffffffffffffffffffffffffffffffffffff1673ffffffffffffffffffffffffffffffffffffffff16815250508383815181106127fa576127f96153de565b5b6020026020010181905250818061281090615d3b565b925050808061281e90615d3b565b9150506126cd565b50819250505090565b6128376146b4565b61283f61310a565b61287e576040517f08c379a000000000000000000000000000000000000000000000000000000000815260040161287590615dcf565b60405180910390fd5b600160003373ffffffffffffffffffffffffffffffffffffffff1673ffffffffffffffffffffffffffffffffffffffff168152602001908152602001600020604051806101200160405290816000820160009054906101000a900473ffffffffffffffffffffffffffffffffffffffff1673ffffffffffffffffffffffffffffffffffffffff1673ffffffffffffffffffffffffffffffffffffffff16815260200160018201805461292f90615514565b80601f016020809104026020016040519081016040528092919081815260200182805461295b90615514565b80156129a85780601f1061297d576101008083540402835291602001916129a8565b820191906000526020600020905b81548152906001019060200180831161298b57829003601f168201915b505050505081526020016002820180546129c190615514565b80601f01602080910402602001604051908101604052809291908181526020018280546129ed90615514565b8015612a3a5780601f10612a0f57610100808354040283529160200191612a3a565b820191906000526020600020905b815481529060010190602001808311612a1d57829003601f168201915b50505050508152602001600382018054612a5390615514565b80601f0160208091040260200160405190810160405280929190818152602001828054612a7f90615514565b8015612acc5780601f10612aa157610100808354040283529160200191612acc565b820191906000526020600020905b815481529060010190602001808311612aaf57829003601f168201915b50505050508152602001600482018054612ae590615514565b80601f0160208091040260200160405190810160405280929190818152602001828054612b1190615514565b8015612b5e5780601f10612b3357610100808354040283529160200191612b5e565b820191906000526020600020905b815481529060010190602001808311612b4157829003601f168201915b50505050508152602001600582015481526020016006820154815260200160078201805480602002602001604051908101604052809291908181526020018280548015612c0057602002820191906000526020600020905b8160009054906101000a900473ffffffffffffffffffffffffffffffffffffffff1673ffffffffffffffffffffffffffffffffffffffff1681526020019060010190808311612bb6575b505050505081526020016008820160009054906101000a900460ff161515151581525050905090565b60003373ffffffffffffffffffffffffffffffffffffffff1660008054906101000a900473ffffffffffffffffffffffffffffffffffffffff1673ffffffffffffffffffffffffffffffffffffffff1603612c875760019050612c8c565b600090505b90565b6000606080606080600080612ca488336134a5565b612ce3576040517f08c379a0000000000000000000000000000000000000000000000000000000008152600401612cda90615e3b565b60405180910390fd5b600160008973ffffffffffffffffffffffffffffffffffffffff1673ffffffffffffffffffffffffffffffffffffffff16815260200190815260200160002060080160009054906101000a900460ff16600160008a73ffffffffffffffffffffffffffffffffffffffff1673ffffffffffffffffffffffffffffffffffffffff168152602001908152602001600020600101600160008b73ffffffffffffffffffffffffffffffffffffffff1673ffffffffffffffffffffffffffffffffffffffff168152602001908152602001600020600201600160008c73ffffffffffffffffffffffffffffffffffffffff1673ffffffffffffffffffffffffffffffffffffffff168152602001908152602001600020600301600160008d73ffffffffffffffffffffffffffffffffffffffff1673ffffffffffffffffffffffffffffffffffffffff168152602001908152602001600020600401600160008e73ffffffffffffffffffffffffffffffffffffffff1673ffffffffffffffffffffffffffffffffffffffff16815260200190815260200160002060050154600160008f73ffffffffffffffffffffffffffffffffffffffff1673ffffffffffffffffffffffffffffffffffffffff16815260200190815260200160002060060154858054612ecd90615514565b80601f0160208091040260200160405190810160405280929190818152602001828054612ef990615514565b8015612f465780601f10612f1b57610100808354040283529160200191612f46565b820191906000526020600020905b815481529060010190602001808311612f2957829003601f168201915b50505050509550848054612f5990615514565b80601f0160208091040260200160405190810160405280929190818152602001828054612f8590615514565b8015612fd25780601f10612fa757610100808354040283529160200191612fd2565b820191906000526020600020905b815481529060010190602001808311612fb557829003601f168201915b50505050509450838054612fe590615514565b80601f016020809104026020016040519081016040528092919081815260200182805461301190615514565b801561305e5780601f106130335761010080835404028352916020019161305e565b820191906000526020600020905b81548152906001019060200180831161304157829003601f168201915b5050505050935082805461307190615514565b80601f016020809104026020016040519081016040528092919081815260200182805461309d90615514565b80156130ea5780601f106130bf576101008083540402835291602001916130ea565b820191906000526020600020905b8154815290600101906020018083116130cd57829003601f168201915b505050505092509650965096509650965096509650919395979092949650565b60003373ffffffffffffffffffffffffffffffffffffffff16600160003373ffffffffffffffffffffffffffffffffffffffff1673ffffffffffffffffffffffffffffffffffffffff16815260200190815260200160002060000160009054906101000a900473ffffffffffffffffffffffffffffffffffffffff1673ffffffffffffffffffffffffffffffffffffffff16036131aa57600190506131af565b600090505b90565b60603373ffffffffffffffffffffffffffffffffffffffff16600260003373ffffffffffffffffffffffffffffffffffffffff1673ffffffffffffffffffffffffffffffffffffffff16815260200190815260200160002060010160009054906101000a900473ffffffffffffffffffffffffffffffffffffffff1673ffffffffffffffffffffffffffffffffffffffff1614613284576040517f08c379a000000000000000000000000000000000000000000000000000000000815260040161327b906152c0565b60405180910390fd5b6000600360003373ffffffffffffffffffffffffffffffffffffffff1673ffffffffffffffffffffffffffffffffffffffff1681526020019081526020016000206001015467ffffffffffffffff8111156132e2576132e1614b05565b5b60405190808252806020026020018201604052801561331b57816020015b613308614684565b8152602001906001900390816133005790505b5090506000805b600360003373ffffffffffffffffffffffffffffffffffffffff1673ffffffffffffffffffffffffffffffffffffffff1681526020019081526020016000206001015481101561347857600360003373ffffffffffffffffffffffffffffffffffffffff1673ffffffffffffffffffffffffffffffffffffffff16815260200190815260200160002060020181815481106133c0576133bf6153de565b5b9060005260206000209060020201604051806040016040529081600082015481526020016001820160009054906101000a900473ffffffffffffffffffffffffffffffffffffffff1673ffffffffffffffffffffffffffffffffffffffff1673ffffffffffffffffffffffffffffffffffffffff168152505083838151811061344c5761344b6153de565b5b6020026020010181905250818061346290615d3b565b925050808061347090615d3b565b915050613322565b50819250505090565b60008054906101000a900473ffffffffffffffffffffffffffffffffffffffff1681565b600080600090505b600160008573ffffffffffffffffffffffffffffffffffffffff1673ffffffffffffffffffffffffffffffffffffffff168152602001908152602001600020600701805490508110156135c8578273ffffffffffffffffffffffffffffffffffffffff16600160008673ffffffffffffffffffffffffffffffffffffffff1673ffffffffffffffffffffffffffffffffffffffff1681526020019081526020016000206007018281548110613565576135646153de565b5b9060005260206000200160009054906101000a900473ffffffffffffffffffffffffffffffffffffffff1673ffffffffffffffffffffffffffffffffffffffff16036135b55760019150506135ce565b80806135c090615d3b565b9150506134ad565b60009150505b92915050565b60006135e083836143b9565b9050600160008473ffffffffffffffffffffffffffffffffffffffff1673ffffffffffffffffffffffffffffffffffffffff16815260200190815260200160002060070160018060008673ffffffffffffffffffffffffffffffffffffffff1673ffffffffffffffffffffffffffffffffffffffff168152602001908152602001600020600701805490506136759190615e5b565b81548110613686576136856153de565b5b9060005260206000200160009054906101000a900473ffffffffffffffffffffffffffffffffffffffff16600160008573ffffffffffffffffffffffffffffffffffffffff1673ffffffffffffffffffffffffffffffffffffffff1681526020019081526020016000206007018281548110613705576137046153de565b5b9060005260206000200160006101000a81548173ffffffffffffffffffffffffffffffffffffffff021916908373ffffffffffffffffffffffffffffffffffffffff160217905550600160008473ffffffffffffffffffffffffffffffffffffffff1673ffffffffffffffffffffffffffffffffffffffff16815260200190815260200160002060070180548061379f5761379e615e8f565b5b6001900381819060005260206000200160006101000a81549073ffffffffffffffffffffffffffffffffffffffff02191690559055505050565b60006137e583836144e3565b9050600360008373ffffffffffffffffffffffffffffffffffffffff1673ffffffffffffffffffffffffffffffffffffffff1681526020019081526020016000206002016001600360008573ffffffffffffffffffffffffffffffffffffffff1673ffffffffffffffffffffffffffffffffffffffff1681526020019081526020016000206002018054905061387b9190615e5b565b8154811061388c5761388b6153de565b5b9060005260206000209060020201600360008473ffffffffffffffffffffffffffffffffffffffff1673ffffffffffffffffffffffffffffffffffffffff16815260200190815260200160002060020185815481106138ee576138ed6153de565b5b9060005260206000209060020201600082015481600001556001820160009054906101000a900473ffffffffffffffffffffffffffffffffffffffff168160010160006101000a81548173ffffffffffffffffffffffffffffffffffffffff021916908373ffffffffffffffffffffffffffffffffffffffff160217905550905050600360008373ffffffffffffffffffffffffffffffffffffffff1673ffffffffffffffffffffffffffffffffffffffff1681526020019081526020016000206002018054806139c2576139c1615e8f565b5b60019003818190600052602060002090600202016000808201600090556001820160006101000a81549073ffffffffffffffffffffffffffffffffffffffff021916905550509055600460008473ffffffffffffffffffffffffffffffffffffffff1673ffffffffffffffffffffffffffffffffffffffff1681526020019081526020016000206000016001600460008673ffffffffffffffffffffffffffffffffffffffff1673ffffffffffffffffffffffffffffffffffffffff16815260200190815260200160002060000180549050613a9e9190615e5b565b81548110613aaf57613aae6153de565b5b9060005260206000209060020201600460008573ffffffffffffffffffffffffffffffffffffffff1673ffffffffffffffffffffffffffffffffffffffff1681526020019081526020016000206000018281548110613b1157613b106153de565b5b9060005260206000209060020201600082015481600001556001820160009054906101000a900473ffffffffffffffffffffffffffffffffffffffff168160010160006101000a81548173ffffffffffffffffffffffffffffffffffffffff021916908373ffffffffffffffffffffffffffffffffffffffff160217905550905050600460008473ffffffffffffffffffffffffffffffffffffffff1673ffffffffffffffffffffffffffffffffffffffff168152602001908152602001600020600001805480613be557613be4615e8f565b5b60019003818190600052602060002090600202016000808201600090556001820160006101000a81549073ffffffffffffffffffffffffffffffffffffffff02191690555050905583600360003373ffffffffffffffffffffffffffffffffffffffff1673ffffffffffffffffffffffffffffffffffffffff1681526020019081526020016000206002018054905014158015613cc457506001600360008473ffffffffffffffffffffffffffffffffffffffff1673ffffffffffffffffffffffffffffffffffffffff16815260200190815260200160002060010154115b15613e845783600360008473ffffffffffffffffffffffffffffffffffffffff1673ffffffffffffffffffffffffffffffffffffffff1681526020019081526020016000206002018581548110613d1e57613d1d6153de565b5b9060005260206000209060020201600001819055506000600360008473ffffffffffffffffffffffffffffffffffffffff1673ffffffffffffffffffffffffffffffffffffffff1681526020019081526020016000206002018581548110613d8957613d886153de565b5b906000526020600020906002020160010160009054906101000a900473ffffffffffffffffffffffffffffffffffffffff1690506000600460008373ffffffffffffffffffffffffffffffffffffffff1673ffffffffffffffffffffffffffffffffffffffff168152602001908152602001600020600001805490501115613e8257613e1581846144e3565b915084600460008373ffffffffffffffffffffffffffffffffffffffff1673ffffffffffffffffffffffffffffffffffffffff1681526020019081526020016000206000018381548110613e6c57613e6b6153de565b5b9060005260206000209060020201600001819055505b505b600360008373ffffffffffffffffffffffffffffffffffffffff1673ffffffffffffffffffffffffffffffffffffffff1681526020019081526020016000206001016000815480929190613ed790615ebe565b91905055507f5bc31e521401c7e4fbe27cc8e953ddcd66ce6cc84d810d1850450e7964029d958483604051613f0d929190615ee7565b60405180910390a150505050565b6000875111613f2957600080fd5b6000865111613f3757600080fd5b6000845111613f4557600080fd5b6000855111613f5357600080fd5b87600160008a73ffffffffffffffffffffffffffffffffffffffff1673ffffffffffffffffffffffffffffffffffffffff16815260200190815260200160002060000160006101000a81548173ffffffffffffffffffffffffffffffffffffffff021916908373ffffffffffffffffffffffffffffffffffffffff16021790555086600160008a73ffffffffffffffffffffffffffffffffffffffff1673ffffffffffffffffffffffffffffffffffffffff16815260200190815260200160002060010190816140239190615a5a565b5085600160008a73ffffffffffffffffffffffffffffffffffffffff1673ffffffffffffffffffffffffffffffffffffffff16815260200190815260200160002060020190816140739190615a5a565b5084600160008a73ffffffffffffffffffffffffffffffffffffffff1673ffffffffffffffffffffffffffffffffffffffff16815260200190815260200160002060030190816140c39190615a5a565b5083600160008a73ffffffffffffffffffffffffffffffffffffffff1673ffffffffffffffffffffffffffffffffffffffff16815260200190815260200160002060040190816141139190615a5a565b5082600160008a73ffffffffffffffffffffffffffffffffffffffff1673ffffffffffffffffffffffffffffffffffffffff16815260200190815260200160002060080160006101000a81548160ff02191690831515021790555081600160008a73ffffffffffffffffffffffffffffffffffffffff1673ffffffffffffffffffffffffffffffffffffffff1681526020019081526020016000206005018190555080600160008a73ffffffffffffffffffffffffffffffffffffffff1673ffffffffffffffffffffffffffffffffffffffff1681526020019081526020016000206006018190555087600460008a73ffffffffffffffffffffffffffffffffffffffff1673ffffffffffffffffffffffffffffffffffffffff16815260200190815260200160002060010160006101000a81548173ffffffffffffffffffffffffffffffffffffffff021916908373ffffffffffffffffffffffffffffffffffffffff1602179055505050505050505050565b600080600090505b600360003373ffffffffffffffffffffffffffffffffffffffff1673ffffffffffffffffffffffffffffffffffffffff168152602001908152602001600020600101548110156143ae578273ffffffffffffffffffffffffffffffffffffffff16600360003373ffffffffffffffffffffffffffffffffffffffff1673ffffffffffffffffffffffffffffffffffffffff1681526020019081526020016000206002018281548110614344576143436153de565b5b906000526020600020906002020160010160009054906101000a900473ffffffffffffffffffffffffffffffffffffffff1673ffffffffffffffffffffffffffffffffffffffff160361439b5760019150506143b4565b80806143a690615d3b565b91505061428f565b60009150505b919050565b600080600090505b600160008573ffffffffffffffffffffffffffffffffffffffff1673ffffffffffffffffffffffffffffffffffffffff168152602001908152602001600020600701805490508110156144db578273ffffffffffffffffffffffffffffffffffffffff16600160008673ffffffffffffffffffffffffffffffffffffffff1673ffffffffffffffffffffffffffffffffffffffff1681526020019081526020016000206007018281548110614479576144786153de565b5b9060005260206000200160009054906101000a900473ffffffffffffffffffffffffffffffffffffffff1673ffffffffffffffffffffffffffffffffffffffff16036144c857809150506144dd565b80806144d390615d3b565b9150506143c1565b505b92915050565b600080600090505b600460008573ffffffffffffffffffffffffffffffffffffffff1673ffffffffffffffffffffffffffffffffffffffff1681526020019081526020016000206000018054905081101561460c578273ffffffffffffffffffffffffffffffffffffffff16600460008673ffffffffffffffffffffffffffffffffffffffff1673ffffffffffffffffffffffffffffffffffffffff16815260200190815260200160002060000182815481106145a3576145a26153de565b5b906000526020600020906002020160010160009054906101000a900473ffffffffffffffffffffffffffffffffffffffff1673ffffffffffffffffffffffffffffffffffffffff16036145f9578091505061460e565b808061460490615d3b565b9150506144eb565b505b92915050565b604051806040016040528060608152602001600073ffffffffffffffffffffffffffffffffffffffff1681525090565b50805461465090615514565b6000825580601f106146625750614681565b601f0160209004906000526020600020908101906146809190614718565b5b50565b604051806040016040528060008152602001600073ffffffffffffffffffffffffffffffffffffffff1681525090565b604051806101200160405280600073ffffffffffffffffffffffffffffffffffffffff168152602001606081526020016060815260200160608152602001606081526020016000815260200160008152602001606081526020016000151581525090565b5b80821115614731576000816000905550600101614719565b5090565b6000604051905090565b600080fd5b600080fd5b600073ffffffffffffffffffffffffffffffffffffffff82169050919050565b600061477482614749565b9050919050565b61478481614769565b811461478f57600080fd5b50565b6000813590506147a18161477b565b92915050565b6000602082840312156147bd576147bc61473f565b5b60006147cb84828501614792565b91505092915050565b60008115159050919050565b6147e9816147d4565b82525050565b600060208201905061480460008301846147e0565b92915050565b6000819050919050565b61481d8161480a565b811461482857600080fd5b50565b60008135905061483a81614814565b92915050565b614849816147d4565b811461485457600080fd5b50565b60008135905061486681614840565b92915050565b6000806000606084860312156148855761488461473f565b5b60006148938682870161482b565b93505060206148a486828701614792565b92505060406148b586828701614857565b9150509250925092565b600081519050919050565b600082825260208201905092915050565b60005b838110156148f95780820151818401526020810190506148de565b60008484015250505050565b6000601f19601f8301169050919050565b6000614921826148bf565b61492b81856148ca565b935061493b8185602086016148db565b61494481614905565b840191505092915050565b61495881614769565b82525050565b6000604083016000830151848203600086015261497b8282614916565b9150506020830151614990602086018261494f565b508091505092915050565b600060208201905081810360008301526149b5818461495e565b905092915050565b600081519050919050565b600082825260208201905092915050565b6000819050602082019050919050565b60006149f5838361494f565b60208301905092915050565b6000602082019050919050565b6000614a19826149bd565b614a2381856149c8565b9350614a2e836149d9565b8060005b83811015614a5f578151614a4688826149e9565b9750614a5183614a01565b925050600181019050614a32565b5085935050505092915050565b60006020820190508181036000830152614a868184614a0e565b905092915050565b600060208284031215614aa457614aa361473f565b5b6000614ab28482850161482b565b91505092915050565b60008060408385031215614ad257614ad161473f565b5b6000614ae08582860161482b565b9250506020614af185828601614792565b9150509250929050565b600080fd5b600080fd5b7f4e487b7100000000000000000000000000000000000000000000000000000000600052604160045260246000fd5b614b3d82614905565b810181811067ffffffffffffffff82111715614b5c57614b5b614b05565b5b80604052505050565b6000614b6f614735565b9050614b7b8282614b34565b919050565b600067ffffffffffffffff821115614b9b57614b9a614b05565b5b614ba482614905565b9050602081019050919050565b82818337600083830152505050565b6000614bd3614bce84614b80565b614b65565b905082815260208101848484011115614bef57614bee614b00565b5b614bfa848285614bb1565b509392505050565b600082601f830112614c1757614c16614afb565b5b8135614c27848260208601614bc0565b91505092915050565b600080600080600080600080610100898b031215614c5157614c5061473f565b5b6000614c5f8b828c01614792565b985050602089013567ffffffffffffffff811115614c8057614c7f614744565b5b614c8c8b828c01614c02565b975050604089013567ffffffffffffffff811115614cad57614cac614744565b5b614cb98b828c01614c02565b965050606089013567ffffffffffffffff811115614cda57614cd9614744565b5b614ce68b828c01614c02565b955050608089013567ffffffffffffffff811115614d0757614d06614744565b5b614d138b828c01614c02565b94505060a0614d248b828c01614857565b93505060c0614d358b828c0161482b565b92505060e0614d468b828c0161482b565b9150509295985092959890939650565b60008060408385031215614d6d57614d6c61473f565b5b600083013567ffffffffffffffff811115614d8b57614d8a614744565b5b614d9785828601614c02565b9250506020614da885828601614792565b9150509250929050565b600081519050919050565b600082825260208201905092915050565b6000819050602082019050919050565b614de78161480a565b82525050565b604082016000820151614e036000850182614dde565b506020820151614e16602085018261494f565b50505050565b6000614e288383614ded565b60408301905092915050565b6000602082019050919050565b6000614e4c82614db2565b614e568185614dbd565b9350614e6183614dce565b8060005b83811015614e92578151614e798882614e1c565b9750614e8483614e34565b925050600181019050614e65565b5085935050505092915050565b60006020820190508181036000830152614eb98184614e41565b905092915050565b600082825260208201905092915050565b6000614edd826149bd565b614ee78185614ec1565b9350614ef2836149d9565b8060005b83811015614f23578151614f0a88826149e9565b9750614f1583614a01565b925050600181019050614ef6565b5085935050505092915050565b614f39816147d4565b82525050565b600061012083016000830151614f58600086018261494f565b5060208301518482036020860152614f708282614916565b91505060408301518482036040860152614f8a8282614916565b91505060608301518482036060860152614fa48282614916565b91505060808301518482036080860152614fbe8282614916565b91505060a0830151614fd360a0860182614dde565b5060c0830151614fe660c0860182614dde565b5060e083015184820360e0860152614ffe8282614ed2565b915050610100830151615015610100860182614f30565b508091505092915050565b6000602082019050818103600083015261503a8184614f3f565b905092915050565b600082825260208201905092915050565b600061505e826148bf565b6150688185615042565b93506150788185602086016148db565b61508181614905565b840191505092915050565b6150958161480a565b82525050565b600060e0820190506150b0600083018a6147e0565b81810360208301526150c28189615053565b905081810360408301526150d68188615053565b905081810360608301526150ea8187615053565b905081810360808301526150fe8186615053565b905061510d60a083018561508c565b61511a60c083018461508c565b98975050505050505050565b61512f81614769565b82525050565b600060208201905061514a6000830184615126565b92915050565b7f596f7520646f6e74206861766520617574686f7269747920746f207265766f6b60008201527f6520616363657373000000000000000000000000000000000000000000000000602082015250565b60006151ac602883615042565b91506151b782615150565b604082019050919050565b600060208201905081810360008301526151db8161519f565b9050919050565b7f596f7520646f6e7420686176652061636365737320746f20746869732075736560008201527f7200000000000000000000000000000000000000000000000000000000000000602082015250565b600061523e602183615042565b9150615249826151e2565b604082019050919050565b6000602082019050818103600083015261526d81615231565b9050919050565b7f4f7267206e6f7420657869737400000000000000000000000000000000000000600082015250565b60006152aa600d83615042565b91506152b582615274565b602082019050919050565b600060208201905081810360008301526152d98161529d565b9050919050565b7f5573657220646f65736e27742065786973740000000000000000000000000000600082015250565b6000615316601283615042565b9150615321826152e0565b602082019050919050565b6000602082019050818103600083015261534581615309565b9050919050565b7f596f7520646f6e74206861766520617574686f7269747920746f20676976652060008201527f6163636573730000000000000000000000000000000000000000000000000000602082015250565b60006153a8602683615042565b91506153b38261534c565b604082019050919050565b600060208201905081810360008301526153d78161539b565b9050919050565b7f4e487b7100000000000000000000000000000000000000000000000000000000600052603260045260246000fd5b7f55736572206e6f742076616c6964000000000000000000000000000000000000600082015250565b6000615443600e83615042565b915061544e8261540d565b602082019050919050565b6000602082019050818103600083015261547281615436565b9050919050565b7f5265717565737473206e6f7420666f756e640000000000000000000000000000600082015250565b60006154af601283615042565b91506154ba82615479565b602082019050919050565b600060208201905081810360008301526154de816154a2565b9050919050565b7f4e487b7100000000000000000000000000000000000000000000000000000000600052602260045260246000fd5b6000600282049050600182168061552c57607f821691505b60208210810361553f5761553e6154e5565b5b50919050565b7f596f7520646f6e74206861766520617574686f72697479000000000000000000600082015250565b600061557b601783615042565b915061558682615545565b602082019050919050565b600060208201905081810360008301526155aa8161556e565b9050919050565b7f596f7520646f6e74206861766520617574686f7269747920746f2064656c657460008201527f6500000000000000000000000000000000000000000000000000000000000000602082015250565b600061560d602183615042565b9150615618826155b1565b604082019050919050565b6000602082019050818103600083015261563c81615600565b9050919050565b7f5265717565737420646f65736e74206578697374000000000000000000000000600082015250565b6000615679601483615042565b915061568482615643565b602082019050919050565b600060208201905081810360008301526156a88161566c565b9050919050565b7f5468697320706172746963756c6172206f7267616e697a6174696f6e7320646f60008201527f65736e7420657869737400000000000000000000000000000000000000000000602082015250565b600061570b602a83615042565b9150615716826156af565b604082019050919050565b6000602082019050818103600083015261573a816156fe565b9050919050565b60006040820190506157566000830185615126565b61576360208301846147e0565b9392505050565b7f41646d696e206f6e6c7900000000000000000000000000000000000000000000600082015250565b60006157a0600a83615042565b91506157ab8261576a565b602082019050919050565b600060208201905081810360008301526157cf81615793565b9050919050565b7f4f726720646f65736e7420657869737400000000000000000000000000000000600082015250565b600061580c601083615042565b9150615817826157d6565b602082019050919050565b6000602082019050818103600083015261583b816157ff565b9050919050565b7f4f726720616c7265616479206164646564000000000000000000000000000000600082015250565b6000615878601183615042565b915061588382615842565b602082019050919050565b600060208201905081810360008301526158a78161586b565b9050919050565b60008190508160005260206000209050919050565b60006020601f8301049050919050565b600082821b905092915050565b6000600883026159107fffffffffffffffffffffffffffffffffffffffffffffffffffffffffffffffff826158d3565b61591a86836158d3565b95508019841693508086168417925050509392505050565b6000819050919050565b600061595761595261594d8461480a565b615932565b61480a565b9050919050565b6000819050919050565b6159718361593c565b61598561597d8261595e565b8484546158e0565b825550505050565b600090565b61599a61598d565b6159a5818484615968565b505050565b5b818110156159c9576159be600082615992565b6001810190506159ab565b5050565b601f821115615a0e576159df816158ae565b6159e8846158c3565b810160208510156159f7578190505b615a0b615a03856158c3565b8301826159aa565b50505b505050565b600082821c905092915050565b6000615a3160001984600802615a13565b1980831691505092915050565b6000615a4a8383615a20565b9150826002028217905092915050565b615a63826148bf565b67ffffffffffffffff811115615a7c57615a7b614b05565b5b615a868254615514565b615a918282856159cd565b600060209050601f831160018114615ac45760008415615ab2578287015190505b615abc8582615a3e565b865550615b24565b601f198416615ad2866158ae565b60005b82811015615afa57848901518255600182019150602085019450602081019050615ad5565b86831015615b175784890151615b13601f891682615a20565b8355505b6001600288020188555050505b505050505050565b60006040820190508181036000830152615b468185615053565b9050615b556020830184615126565b9392505050565b7f5573657220616c72656164792065786973747300000000000000000000000000600082015250565b6000615b92601383615042565b9150615b9d82615b5c565b602082019050919050565b60006020820190508181036000830152615bc181615b85565b9050919050565b7f437573746f6d657220646f65736e742065786973747300000000000000000000600082015250565b6000615bfe601683615042565b9150615c0982615bc8565b602082019050919050565b60006020820190508181036000830152615c2d81615bf1565b9050919050565b7f416c726561647920686176652061636365737300000000000000000000000000600082015250565b6000615c6a601383615042565b9150615c7582615c34565b602082019050919050565b60006020820190508181036000830152615c9981615c5d565b9050919050565b7f5265717565737420416c72656164792045786973747300000000000000000000600082015250565b6000615cd6601683615042565b9150615ce182615ca0565b602082019050919050565b60006020820190508181036000830152615d0581615cc9565b9050919050565b7f4e487b7100000000000000000000000000000000000000000000000000000000600052601160045260246000fd5b6000615d468261480a565b91507fffffffffffffffffffffffffffffffffffffffffffffffffffffffffffffffff8203615d7857615d77615d0c565b5b600182019050919050565b7f437573746f6d6572206e6f742076616c69640000000000000000000000000000600082015250565b6000615db9601283615042565b9150615dc482615d83565b602082019050919050565b60006020820190508181036000830152615de881615dac565b9050919050565b7f55736572206861736e7420676976656e20746865697220636f6e73656e740000600082015250565b6000615e25601e83615042565b9150615e3082615def565b602082019050919050565b60006020820190508181036000830152615e5481615e18565b9050919050565b6000615e668261480a565b9150615e718361480a565b9250828203905081811115615e8957615e88615d0c565b5b92915050565b7f4e487b7100000000000000000000000000000000000000000000000000000000600052603160045260246000fd5b6000615ec98261480a565b915060008203615edc57615edb615d0c565b5b600182039050919050565b6000604082019050615efc600083018561508c565b615f096020830184615126565b939250505056fea26469706673582212206a0fa70e0df58940fa65bd9be928c8b7d0a2ea8dd18d6cc091f22875e88239bb64736f6c63430008120033",
					"opcodes": "PUSH1 0x80 PUSH1 0x40 MSTORE CALLVALUE DUP1 ISZERO PUSH2 0x10 JUMPI PUSH1 0x0 DUP1 REVERT JUMPDEST POP CALLER PUSH1 0x0 DUP1 PUSH2 0x100 EXP DUP2 SLOAD DUP2 PUSH20 0xFFFFFFFFFFFFFFFFFFFFFFFFFFFFFFFFFFFFFFFF MUL NOT AND SWAP1 DUP4 PUSH20 0xFFFFFFFFFFFFFFFFFFFFFFFFFFFFFFFFFFFFFFFF AND MUL OR SWAP1 SSTORE POP PUSH2 0x5F46 DUP1 PUSH3 0x61 PUSH1 0x0 CODECOPY PUSH1 0x0 RETURN INVALID PUSH1 0x80 PUSH1 0x40 MSTORE CALLVALUE DUP1 ISZERO PUSH2 0x10 JUMPI PUSH1 0x0 DUP1 REVERT JUMPDEST POP PUSH1 0x4 CALLDATASIZE LT PUSH2 0x137 JUMPI PUSH1 0x0 CALLDATALOAD PUSH1 0xE0 SHR DUP1 PUSH4 0xA1AC9E57 GT PUSH2 0xB8 JUMPI DUP1 PUSH4 0xCEACABD5 GT PUSH2 0x7C JUMPI DUP1 PUSH4 0xCEACABD5 EQ PUSH2 0x3B0 JUMPI DUP1 PUSH4 0xD6BBBF84 EQ PUSH2 0x3CE JUMPI DUP1 PUSH4 0xD9B18F04 EQ PUSH2 0x3EC JUMPI DUP1 PUSH4 0xE1B2DBE8 EQ PUSH2 0x422 JUMPI DUP1 PUSH4 0xF3A9B588 EQ PUSH2 0x440 JUMPI DUP1 PUSH4 0xF851A440 EQ PUSH2 0x45E JUMPI PUSH2 0x137 JUMP JUMPDEST DUP1 PUSH4 0xA1AC9E57 EQ PUSH2 0x2D2 JUMPI DUP1 PUSH4 0xA64266E7 EQ PUSH2 0x302 JUMPI DUP1 PUSH4 0xB7E4A42D EQ PUSH2 0x332 JUMPI DUP1 PUSH4 0xC10CEBE6 EQ PUSH2 0x362 JUMPI DUP1 PUSH4 0xCA1CBCC2 EQ PUSH2 0x392 JUMPI PUSH2 0x137 JUMP JUMPDEST DUP1 PUSH4 0x4F4B4F78 GT PUSH2 0xFF JUMPI DUP1 PUSH4 0x4F4B4F78 EQ PUSH2 0x208 JUMPI DUP1 PUSH4 0x54291824 EQ PUSH2 0x226 JUMPI DUP1 PUSH4 0x7042D70C EQ PUSH2 0x256 JUMPI DUP1 PUSH4 0x84F702EE EQ PUSH2 0x272 JUMPI DUP1 PUSH4 0x88C4CE54 EQ PUSH2 0x2A2 JUMPI PUSH2 0x137 JUMP JUMPDEST DUP1 PUSH4 0x6E5D4D1 EQ PUSH2 0x13C JUMPI DUP1 PUSH4 0x243F6B58 EQ PUSH2 0x16C JUMPI DUP1 PUSH4 0x2A539A22 EQ PUSH2 0x19C JUMPI DUP1 PUSH4 0x32722A25 EQ PUSH2 0x1CC JUMPI DUP1 PUSH4 0x3B2B8ABF EQ PUSH2 0x1EA JUMPI JUMPDEST PUSH1 0x0 DUP1 REVERT JUMPDEST PUSH2 0x156 PUSH1 0x4 DUP1 CALLDATASIZE SUB DUP2 ADD SWAP1 PUSH2 0x151 SWAP2 SWAP1 PUSH2 0x47A7 JUMP JUMPDEST PUSH2 0x47C JUMP JUMPDEST PUSH1 0x40 MLOAD PUSH2 0x163 SWAP2 SWAP1 PUSH2 0x47EF JUMP JUMPDEST PUSH1 0x40 MLOAD DUP1 SWAP2 SUB SWAP1 RETURN JUMPDEST PUSH2 0x186 PUSH1 0x4 DUP1 CALLDATASIZE SUB DUP2 ADD SWAP1 PUSH2 0x181 SWAP2 SWAP1 PUSH2 0x47A7 JUMP JUMPDEST PUSH2 0x5AA JUMP JUMPDEST PUSH1 0x40 MLOAD PUSH2 0x193 SWAP2 SWAP1 PUSH2 0x47EF JUMP JUMPDEST PUSH1 0x40 MLOAD DUP1 SWAP2 SUB SWAP1 RETURN JUMPDEST PUSH2 0x1B6 PUSH1 0x4 DUP1 CALLDATASIZE SUB DUP2 ADD SWAP1 PUSH2 0x1B1 SWAP2 SWAP1 PUSH2 0x486C JUMP JUMPDEST PUSH2 0x7A8 JUMP JUMPDEST PUSH1 0x40 MLOAD PUSH2 0x1C3 SWAP2 SWAP1 PUSH2 0x47EF JUMP JUMPDEST PUSH1 0x40 MLOAD DUP1 SWAP2 SUB SWAP1 RETURN JUMPDEST PUSH2 0x1D4 PUSH2 0xAFE JUMP JUMPDEST PUSH1 0x40 MLOAD PUSH2 0x1E1 SWAP2 SWAP1 PUSH2 0x499B JUMP JUMPDEST PUSH1 0x40 MLOAD DUP1 SWAP2 SUB SWAP1 RETURN JUMPDEST PUSH2 0x1F2 PUSH2 0xD0D JUMP JUMPDEST PUSH1 0x40 MLOAD PUSH2 0x1FF SWAP2 SWAP1 PUSH2 0x4A6C JUMP JUMPDEST PUSH1 0x40 MLOAD DUP1 SWAP2 SUB SWAP1 RETURN JUMPDEST PUSH2 0x210 PUSH2 0xEAB JUMP JUMPDEST PUSH1 0x40 MLOAD PUSH2 0x21D SWAP2 SWAP1 PUSH2 0x47EF JUMP JUMPDEST PUSH1 0x40 MLOAD DUP1 SWAP2 SUB SWAP1 RETURN JUMPDEST PUSH2 0x240 PUSH1 0x4 DUP1 CALLDATASIZE SUB DUP2 ADD SWAP1 PUSH2 0x23B SWAP2 SWAP1 PUSH2 0x4A8E JUMP JUMPDEST PUSH2 0xF53 JUMP JUMPDEST PUSH1 0x40 MLOAD PUSH2 0x24D SWAP2 SWAP1 PUSH2 0x47EF JUMP JUMPDEST PUSH1 0x40 MLOAD DUP1 SWAP2 SUB SWAP1 RETURN JUMPDEST PUSH2 0x270 PUSH1 0x4 DUP1 CALLDATASIZE SUB DUP2 ADD SWAP1 PUSH2 0x26B SWAP2 SWAP1 PUSH2 0x4ABB JUMP JUMPDEST PUSH2 0x123B JUMP JUMPDEST STOP JUMPDEST PUSH2 0x28C PUSH1 0x4 DUP1 CALLDATASIZE SUB DUP2 ADD SWAP1 PUSH2 0x287 SWAP2 SWAP1 PUSH2 0x4C30 JUMP JUMPDEST PUSH2 0x14B4 JUMP JUMPDEST PUSH1 0x40 MLOAD PUSH2 0x299 SWAP2 SWAP1 PUSH2 0x47EF JUMP JUMPDEST PUSH1 0x40 MLOAD DUP1 SWAP2 SUB SWAP1 RETURN JUMPDEST PUSH2 0x2BC PUSH1 0x4 DUP1 CALLDATASIZE SUB DUP2 ADD SWAP1 PUSH2 0x2B7 SWAP2 SWAP1 PUSH2 0x47A7 JUMP JUMPDEST PUSH2 0x16F8 JUMP JUMPDEST PUSH1 0x40 MLOAD PUSH2 0x2C9 SWAP2 SWAP1 PUSH2 0x499B JUMP JUMPDEST PUSH1 0x40 MLOAD DUP1 SWAP2 SUB SWAP1 RETURN JUMPDEST PUSH2 0x2EC PUSH1 0x4 DUP1 CALLDATASIZE SUB DUP2 ADD SWAP1 PUSH2 0x2E7 SWAP2 SWAP1 PUSH2 0x4D56 JUMP JUMPDEST PUSH2 0x1997 JUMP JUMPDEST PUSH1 0x40 MLOAD PUSH2 0x2F9 SWAP2 SWAP1 PUSH2 0x47EF JUMP JUMPDEST PUSH1 0x40 MLOAD DUP1 SWAP2 SUB SWAP1 RETURN JUMPDEST PUSH2 0x31C PUSH1 0x4 DUP1 CALLDATASIZE SUB DUP2 ADD SWAP1 PUSH2 0x317 SWAP2 SWAP1 PUSH2 0x4C30 JUMP JUMPDEST PUSH2 0x1CCD JUMP JUMPDEST PUSH1 0x40 MLOAD PUSH2 0x329 SWAP2 SWAP1 PUSH2 0x47EF JUMP JUMPDEST PUSH1 0x40 MLOAD DUP1 SWAP2 SUB SWAP1 RETURN JUMPDEST PUSH2 0x34C PUSH1 0x4 DUP1 CALLDATASIZE SUB DUP2 ADD SWAP1 PUSH2 0x347 SWAP2 SWAP1 PUSH2 0x47A7 JUMP JUMPDEST PUSH2 0x1ED2 JUMP JUMPDEST PUSH1 0x40 MLOAD PUSH2 0x359 SWAP2 SWAP1 PUSH2 0x47EF JUMP JUMPDEST PUSH1 0x40 MLOAD DUP1 SWAP2 SUB SWAP1 RETURN JUMPDEST PUSH2 0x37C PUSH1 0x4 DUP1 CALLDATASIZE SUB DUP2 ADD SWAP1 PUSH2 0x377 SWAP2 SWAP1 PUSH2 0x47A7 JUMP JUMPDEST PUSH2 0x20EB JUMP JUMPDEST PUSH1 0x40 MLOAD PUSH2 0x389 SWAP2 SWAP1 PUSH2 0x47EF JUMP JUMPDEST PUSH1 0x40 MLOAD DUP1 SWAP2 SUB SWAP1 RETURN JUMPDEST PUSH2 0x39A PUSH2 0x25E3 JUMP JUMPDEST PUSH1 0x40 MLOAD PUSH2 0x3A7 SWAP2 SWAP1 PUSH2 0x4E9F JUMP JUMPDEST PUSH1 0x40 MLOAD DUP1 SWAP2 SUB SWAP1 RETURN JUMPDEST PUSH2 0x3B8 PUSH2 0x282F JUMP JUMPDEST PUSH1 0x40 MLOAD PUSH2 0x3C5 SWAP2 SWAP1 PUSH2 0x5020 JUMP JUMPDEST PUSH1 0x40 MLOAD DUP1 SWAP2 SUB SWAP1 RETURN JUMPDEST PUSH2 0x3D6 PUSH2 0x2C29 JUMP JUMPDEST PUSH1 0x40 MLOAD PUSH2 0x3E3 SWAP2 SWAP1 PUSH2 0x47EF JUMP JUMPDEST PUSH1 0x40 MLOAD DUP1 SWAP2 SUB SWAP1 RETURN JUMPDEST PUSH2 0x406 PUSH1 0x4 DUP1 CALLDATASIZE SUB DUP2 ADD SWAP1 PUSH2 0x401 SWAP2 SWAP1 PUSH2 0x47A7 JUMP JUMPDEST PUSH2 0x2C8F JUMP JUMPDEST PUSH1 0x40 MLOAD PUSH2 0x419 SWAP8 SWAP7 SWAP6 SWAP5 SWAP4 SWAP3 SWAP2 SWAP1 PUSH2 0x509B JUMP JUMPDEST PUSH1 0x40 MLOAD DUP1 SWAP2 SUB SWAP1 RETURN JUMPDEST PUSH2 0x42A PUSH2 0x310A JUMP JUMPDEST PUSH1 0x40 MLOAD PUSH2 0x437 SWAP2 SWAP1 PUSH2 0x47EF JUMP JUMPDEST PUSH1 0x40 MLOAD DUP1 SWAP2 SUB SWAP1 RETURN JUMPDEST PUSH2 0x448 PUSH2 0x31B2 JUMP JUMPDEST PUSH1 0x40 MLOAD PUSH2 0x455 SWAP2 SWAP1 PUSH2 0x4E9F JUMP JUMPDEST PUSH1 0x40 MLOAD DUP1 SWAP2 SUB SWAP1 RETURN JUMPDEST PUSH2 0x466 PUSH2 0x3481 JUMP JUMPDEST PUSH1 0x40 MLOAD PUSH2 0x473 SWAP2 SWAP1 PUSH2 0x5135 JUMP JUMPDEST PUSH1 0x40 MLOAD DUP1 SWAP2 SUB SWAP1 RETURN JUMPDEST PUSH1 0x0 CALLER PUSH20 0xFFFFFFFFFFFFFFFFFFFFFFFFFFFFFFFFFFFFFFFF AND PUSH1 0x1 PUSH1 0x0 CALLER PUSH20 0xFFFFFFFFFFFFFFFFFFFFFFFFFFFFFFFFFFFFFFFF AND PUSH20 0xFFFFFFFFFFFFFFFFFFFFFFFFFFFFFFFFFFFFFFFF AND DUP2 MSTORE PUSH1 0x20 ADD SWAP1 DUP2 MSTORE PUSH1 0x20 ADD PUSH1 0x0 KECCAK256 PUSH1 0x0 ADD PUSH1 0x0 SWAP1 SLOAD SWAP1 PUSH2 0x100 EXP SWAP1 DIV PUSH20 0xFFFFFFFFFFFFFFFFFFFFFFFFFFFFFFFFFFFFFFFF AND PUSH20 0xFFFFFFFFFFFFFFFFFFFFFFFFFFFFFFFFFFFFFFFF AND EQ PUSH2 0x54E JUMPI PUSH1 0x40 MLOAD PUSH32 0x8C379A000000000000000000000000000000000000000000000000000000000 DUP2 MSTORE PUSH1 0x4 ADD PUSH2 0x545 SWAP1 PUSH2 0x51C2 JUMP JUMPDEST PUSH1 0x40 MLOAD DUP1 SWAP2 SUB SWAP1 REVERT JUMPDEST PUSH2 0x558 CALLER DUP4 PUSH2 0x34A5 JUMP JUMPDEST PUSH2 0x597 JUMPI PUSH1 0x40 MLOAD PUSH32 0x8C379A000000000000000000000000000000000000000000000000000000000 DUP2 MSTORE PUSH1 0x4 ADD PUSH2 0x58E SWAP1 PUSH2 0x5254 JUMP JUMPDEST PUSH1 0x40 MLOAD DUP1 SWAP2 SUB SWAP1 REVERT JUMPDEST PUSH2 0x5A1 CALLER DUP4 PUSH2 0x35D4 JUMP JUMPDEST PUSH1 0x1 SWAP1 POP SWAP2 SWAP1 POP JUMP JUMPDEST PUSH1 0x0 CALLER PUSH20 0xFFFFFFFFFFFFFFFFFFFFFFFFFFFFFFFFFFFFFFFF AND PUSH1 0x2 PUSH1 0x0 CALLER PUSH20 0xFFFFFFFFFFFFFFFFFFFFFFFFFFFFFFFFFFFFFFFF AND PUSH20 0xFFFFFFFFFFFFFFFFFFFFFFFFFFFFFFFFFFFFFFFF AND DUP2 MSTORE PUSH1 0x20 ADD SWAP1 DUP2 MSTORE PUSH1 0x20 ADD PUSH1 0x0 KECCAK256 PUSH1 0x1 ADD PUSH1 0x0 SWAP1 SLOAD SWAP1 PUSH2 0x100 EXP SWAP1 DIV PUSH20 0xFFFFFFFFFFFFFFFFFFFFFFFFFFFFFFFFFFFFFFFF AND PUSH20 0xFFFFFFFFFFFFFFFFFFFFFFFFFFFFFFFFFFFFFFFF AND EQ PUSH2 0x67C JUMPI PUSH1 0x40 MLOAD PUSH32 0x8C379A000000000000000000000000000000000000000000000000000000000 DUP2 MSTORE PUSH1 0x4 ADD PUSH2 0x673 SWAP1 PUSH2 0x52C0 JUMP JUMPDEST PUSH1 0x40 MLOAD DUP1 SWAP2 SUB SWAP1 REVERT JUMPDEST DUP2 PUSH20 0xFFFFFFFFFFFFFFFFFFFFFFFFFFFFFFFFFFFFFFFF AND PUSH1 0x1 PUSH1 0x0 DUP5 PUSH20 0xFFFFFFFFFFFFFFFFFFFFFFFFFFFFFFFFFFFFFFFF AND PUSH20 0xFFFFFFFFFFFFFFFFFFFFFFFFFFFFFFFFFFFFFFFF AND DUP2 MSTORE PUSH1 0x20 ADD SWAP1 DUP2 MSTORE PUSH1 0x20 ADD PUSH1 0x0 KECCAK256 PUSH1 0x0 ADD PUSH1 0x0 SWAP1 SLOAD SWAP1 PUSH2 0x100 EXP SWAP1 DIV PUSH20 0xFFFFFFFFFFFFFFFFFFFFFFFFFFFFFFFFFFFFFFFF AND PUSH20 0xFFFFFFFFFFFFFFFFFFFFFFFFFFFFFFFFFFFFFFFF AND EQ PUSH2 0x74C JUMPI PUSH1 0x40 MLOAD PUSH32 0x8C379A000000000000000000000000000000000000000000000000000000000 DUP2 MSTORE PUSH1 0x4 ADD PUSH2 0x743 SWAP1 PUSH2 0x532C JUMP JUMPDEST PUSH1 0x40 MLOAD DUP1 SWAP2 SUB SWAP1 REVERT JUMPDEST PUSH2 0x756 DUP3 CALLER PUSH2 0x34A5 JUMP JUMPDEST PUSH2 0x795 JUMPI PUSH1 0x40 MLOAD PUSH32 0x8C379A000000000000000000000000000000000000000000000000000000000 DUP2 MSTORE PUSH1 0x4 ADD PUSH2 0x78C SWAP1 PUSH2 0x5254 JUMP JUMPDEST PUSH1 0x40 MLOAD DUP1 SWAP2 SUB SWAP1 REVERT JUMPDEST PUSH2 0x79F DUP3 CALLER PUSH2 0x35D4 JUMP JUMPDEST PUSH1 0x1 SWAP1 POP SWAP2 SWAP1 POP JUMP JUMPDEST PUSH1 0x0 CALLER PUSH20 0xFFFFFFFFFFFFFFFFFFFFFFFFFFFFFFFFFFFFFFFF AND PUSH1 0x1 PUSH1 0x0 CALLER PUSH20 0xFFFFFFFFFFFFFFFFFFFFFFFFFFFFFFFFFFFFFFFF AND PUSH20 0xFFFFFFFFFFFFFFFFFFFFFFFFFFFFFFFFFFFFFFFF AND DUP2 MSTORE PUSH1 0x20 ADD SWAP1 DUP2 MSTORE PUSH1 0x20 ADD PUSH1 0x0 KECCAK256 PUSH1 0x0 ADD PUSH1 0x0 SWAP1 SLOAD SWAP1 PUSH2 0x100 EXP SWAP1 DIV PUSH20 0xFFFFFFFFFFFFFFFFFFFFFFFFFFFFFFFFFFFFFFFF AND PUSH20 0xFFFFFFFFFFFFFFFFFFFFFFFFFFFFFFFFFFFFFFFF AND EQ PUSH2 0x87A JUMPI PUSH1 0x40 MLOAD PUSH32 0x8C379A000000000000000000000000000000000000000000000000000000000 DUP2 MSTORE PUSH1 0x4 ADD PUSH2 0x871 SWAP1 PUSH2 0x53BE JUMP JUMPDEST PUSH1 0x40 MLOAD DUP1 SWAP2 SUB SWAP1 REVERT JUMPDEST CALLER PUSH20 0xFFFFFFFFFFFFFFFFFFFFFFFFFFFFFFFFFFFFFFFF AND PUSH1 0x3 PUSH1 0x0 DUP6 PUSH20 0xFFFFFFFFFFFFFFFFFFFFFFFFFFFFFFFFFFFFFFFF AND PUSH20 0xFFFFFFFFFFFFFFFFFFFFFFFFFFFFFFFFFFFFFFFF AND DUP2 MSTORE PUSH1 0x20 ADD SWAP1 DUP2 MSTORE PUSH1 0x20 ADD PUSH1 0x0 KECCAK256 PUSH1 0x2 ADD DUP6 DUP2 SLOAD DUP2 LT PUSH2 0x8E5 JUMPI PUSH2 0x8E4 PUSH2 0x53DE JUMP JUMPDEST JUMPDEST SWAP1 PUSH1 0x0 MSTORE PUSH1 0x20 PUSH1 0x0 KECCAK256 SWAP1 PUSH1 0x2 MUL ADD PUSH1 0x1 ADD PUSH1 0x0 SWAP1 SLOAD SWAP1 PUSH2 0x100 EXP SWAP1 DIV PUSH20 0xFFFFFFFFFFFFFFFFFFFFFFFFFFFFFFFFFFFFFFFF AND PUSH20 0xFFFFFFFFFFFFFFFFFFFFFFFFFFFFFFFFFFFFFFFF AND EQ PUSH2 0x96D JUMPI PUSH1 0x40 MLOAD PUSH32 0x8C379A000000000000000000000000000000000000000000000000000000000 DUP2 MSTORE PUSH1 0x4 ADD PUSH2 0x964 SWAP1 PUSH2 0x5459 JUMP JUMPDEST PUSH1 0x40 MLOAD DUP1 SWAP2 SUB SWAP1 REVERT JUMPDEST DUP4 PUSH1 0x3 PUSH1 0x0 DUP6 PUSH20 0xFFFFFFFFFFFFFFFFFFFFFFFFFFFFFFFFFFFFFFFF AND PUSH20 0xFFFFFFFFFFFFFFFFFFFFFFFFFFFFFFFFFFFFFFFF AND DUP2 MSTORE PUSH1 0x20 ADD SWAP1 DUP2 MSTORE PUSH1 0x20 ADD PUSH1 0x0 KECCAK256 PUSH1 0x2 ADD DUP6 DUP2 SLOAD DUP2 LT PUSH2 0x9C2 JUMPI PUSH2 0x9C1 PUSH2 0x53DE JUMP JUMPDEST JUMPDEST SWAP1 PUSH1 0x0 MSTORE PUSH1 0x20 PUSH1 0x0 KECCAK256 SWAP1 PUSH1 0x2 MUL ADD PUSH1 0x0 ADD SLOAD EQ PUSH2 0xA14 JUMPI PUSH1 0x40 MLOAD PUSH32 0x8C379A000000000000000000000000000000000000000000000000000000000 DUP2 MSTORE PUSH1 0x4 ADD PUSH2 0xA0B SWAP1 PUSH2 0x54C5 JUMP JUMPDEST PUSH1 0x40 MLOAD DUP1 SWAP2 SUB SWAP1 REVERT JUMPDEST PUSH1 0x1 ISZERO ISZERO DUP3 ISZERO ISZERO SUB PUSH2 0xAE8 JUMPI PUSH1 0x0 ISZERO ISZERO PUSH2 0xA2E CALLER DUP6 PUSH2 0x34A5 JUMP JUMPDEST ISZERO ISZERO SUB PUSH2 0xAD9 JUMPI PUSH1 0x1 PUSH1 0x0 CALLER PUSH20 0xFFFFFFFFFFFFFFFFFFFFFFFFFFFFFFFFFFFFFFFF AND PUSH20 0xFFFFFFFFFFFFFFFFFFFFFFFFFFFFFFFFFFFFFFFF AND DUP2 MSTORE PUSH1 0x20 ADD SWAP1 DUP2 MSTORE PUSH1 0x20 ADD PUSH1 0x0 KECCAK256 PUSH1 0x7 ADD DUP4 SWAP1 DUP1 PUSH1 0x1 DUP2 SLOAD ADD DUP1 DUP3 SSTORE DUP1 SWAP2 POP POP PUSH1 0x1 SWAP1 SUB SWAP1 PUSH1 0x0 MSTORE PUSH1 0x20 PUSH1 0x0 KECCAK256 ADD PUSH1 0x0 SWAP1 SWAP2 SWAP1 SWAP2 SWAP1 SWAP2 PUSH2 0x100 EXP DUP2 SLOAD DUP2 PUSH20 0xFFFFFFFFFFFFFFFFFFFFFFFFFFFFFFFFFFFFFFFF MUL NOT AND SWAP1 DUP4 PUSH20 0xFFFFFFFFFFFFFFFFFFFFFFFFFFFFFFFFFFFFFFFF AND MUL OR SWAP1 SSTORE POP JUMPDEST PUSH2 0xAE3 DUP5 DUP5 PUSH2 0x123B JUMP JUMPDEST PUSH2 0xAF3 JUMP JUMPDEST PUSH2 0xAF2 DUP5 DUP5 PUSH2 0x123B JUMP JUMPDEST JUMPDEST PUSH1 0x1 SWAP1 POP SWAP4 SWAP3 POP POP POP JUMP JUMPDEST PUSH2 0xB06 PUSH2 0x4614 JUMP JUMPDEST CALLER PUSH20 0xFFFFFFFFFFFFFFFFFFFFFFFFFFFFFFFFFFFFFFFF AND PUSH1 0x2 PUSH1 0x0 CALLER PUSH20 0xFFFFFFFFFFFFFFFFFFFFFFFFFFFFFFFFFFFFFFFF AND PUSH20 0xFFFFFFFFFFFFFFFFFFFFFFFFFFFFFFFFFFFFFFFF AND DUP2 MSTORE PUSH1 0x20 ADD SWAP1 DUP2 MSTORE PUSH1 0x20 ADD PUSH1 0x0 KECCAK256 PUSH1 0x1 ADD PUSH1 0x0 SWAP1 SLOAD SWAP1 PUSH2 0x100 EXP SWAP1 DIV PUSH20 0xFFFFFFFFFFFFFFFFFFFFFFFFFFFFFFFFFFFFFFFF AND PUSH20 0xFFFFFFFFFFFFFFFFFFFFFFFFFFFFFFFFFFFFFFFF AND EQ PUSH2 0xBD6 JUMPI PUSH1 0x40 MLOAD PUSH32 0x8C379A000000000000000000000000000000000000000000000000000000000 DUP2 MSTORE PUSH1 0x4 ADD PUSH2 0xBCD SWAP1 PUSH2 0x52C0 JUMP JUMPDEST PUSH1 0x40 MLOAD DUP1 SWAP2 SUB SWAP1 REVERT JUMPDEST PUSH1 0x2 PUSH1 0x0 CALLER PUSH20 0xFFFFFFFFFFFFFFFFFFFFFFFFFFFFFFFFFFFFFFFF AND PUSH20 0xFFFFFFFFFFFFFFFFFFFFFFFFFFFFFFFFFFFFFFFF AND DUP2 MSTORE PUSH1 0x20 ADD SWAP1 DUP2 MSTORE PUSH1 0x20 ADD PUSH1 0x0 KECCAK256 PUSH1 0x40 MLOAD DUP1 PUSH1 0x40 ADD PUSH1 0x40 MSTORE SWAP1 DUP2 PUSH1 0x0 DUP3 ADD DUP1 SLOAD PUSH2 0xC30 SWAP1 PUSH2 0x5514 JUMP JUMPDEST DUP1 PUSH1 0x1F ADD PUSH1 0x20 DUP1 SWAP2 DIV MUL PUSH1 0x20 ADD PUSH1 0x40 MLOAD SWAP1 DUP2 ADD PUSH1 0x40 MSTORE DUP1 SWAP3 SWAP2 SWAP1 DUP2 DUP2 MSTORE PUSH1 0x20 ADD DUP3 DUP1 SLOAD PUSH2 0xC5C SWAP1 PUSH2 0x5514 JUMP JUMPDEST DUP1 ISZERO PUSH2 0xCA9 JUMPI DUP1 PUSH1 0x1F LT PUSH2 0xC7E JUMPI PUSH2 0x100 DUP1 DUP4 SLOAD DIV MUL DUP4 MSTORE SWAP2 PUSH1 0x20 ADD SWAP2 PUSH2 0xCA9 JUMP JUMPDEST DUP3 ADD SWAP2 SWAP1 PUSH1 0x0 MSTORE PUSH1 0x20 PUSH1 0x0 KECCAK256 SWAP1 JUMPDEST DUP2 SLOAD DUP2 MSTORE SWAP1 PUSH1 0x1 ADD SWAP1 PUSH1 0x20 ADD DUP1 DUP4 GT PUSH2 0xC8C JUMPI DUP3 SWAP1 SUB PUSH1 0x1F AND DUP3 ADD SWAP2 JUMPDEST POP POP POP POP POP DUP2 MSTORE PUSH1 0x20 ADD PUSH1 0x1 DUP3 ADD PUSH1 0x0 SWAP1 SLOAD SWAP1 PUSH2 0x100 EXP SWAP1 DIV PUSH20 0xFFFFFFFFFFFFFFFFFFFFFFFFFFFFFFFFFFFFFFFF AND PUSH20 0xFFFFFFFFFFFFFFFFFFFFFFFFFFFFFFFFFFFFFFFF AND PUSH20 0xFFFFFFFFFFFFFFFFFFFFFFFFFFFFFFFFFFFFFFFF AND DUP2 MSTORE POP POP SWAP1 POP SWAP1 JUMP JUMPDEST PUSH1 0x60 CALLER PUSH20 0xFFFFFFFFFFFFFFFFFFFFFFFFFFFFFFFFFFFFFFFF AND PUSH1 0x1 PUSH1 0x0 CALLER PUSH20 0xFFFFFFFFFFFFFFFFFFFFFFFFFFFFFFFFFFFFFFFF AND PUSH20 0xFFFFFFFFFFFFFFFFFFFFFFFFFFFFFFFFFFFFFFFF AND DUP2 MSTORE PUSH1 0x20 ADD SWAP1 DUP2 MSTORE PUSH1 0x20 ADD PUSH1 0x0 KECCAK256 PUSH1 0x0 ADD PUSH1 0x0 SWAP1 SLOAD SWAP1 PUSH2 0x100 EXP SWAP1 DIV PUSH20 0xFFFFFFFFFFFFFFFFFFFFFFFFFFFFFFFFFFFFFFFF AND PUSH20 0xFFFFFFFFFFFFFFFFFFFFFFFFFFFFFFFFFFFFFFFF AND EQ PUSH2 0xDDF JUMPI PUSH1 0x40 MLOAD PUSH32 0x8C379A000000000000000000000000000000000000000000000000000000000 DUP2 MSTORE PUSH1 0x4 ADD PUSH2 0xDD6 SWAP1 PUSH2 0x5591 JUMP JUMPDEST PUSH1 0x40 MLOAD DUP1 SWAP2 SUB SWAP1 REVERT JUMPDEST PUSH1 0x1 PUSH1 0x0 CALLER PUSH20 0xFFFFFFFFFFFFFFFFFFFFFFFFFFFFFFFFFFFFFFFF AND PUSH20 0xFFFFFFFFFFFFFFFFFFFFFFFFFFFFFFFFFFFFFFFF AND DUP2 MSTORE PUSH1 0x20 ADD SWAP1 DUP2 MSTORE PUSH1 0x20 ADD PUSH1 0x0 KECCAK256 PUSH1 0x7 ADD DUP1 SLOAD DUP1 PUSH1 0x20 MUL PUSH1 0x20 ADD PUSH1 0x40 MLOAD SWAP1 DUP2 ADD PUSH1 0x40 MSTORE DUP1 SWAP3 SWAP2 SWAP1 DUP2 DUP2 MSTORE PUSH1 0x20 ADD DUP3 DUP1 SLOAD DUP1 ISZERO PUSH2 0xEA1 JUMPI PUSH1 0x20 MUL DUP3 ADD SWAP2 SWAP1 PUSH1 0x0 MSTORE PUSH1 0x20 PUSH1 0x0 KECCAK256 SWAP1 JUMPDEST DUP2 PUSH1 0x0 SWAP1 SLOAD SWAP1 PUSH2 0x100 EXP SWAP1 DIV PUSH20 0xFFFFFFFFFFFFFFFFFFFFFFFFFFFFFFFFFFFFFFFF AND PUSH20 0xFFFFFFFFFFFFFFFFFFFFFFFFFFFFFFFFFFFFFFFF AND DUP2 MSTORE PUSH1 0x20 ADD SWAP1 PUSH1 0x1 ADD SWAP1 DUP1 DUP4 GT PUSH2 0xE57 JUMPI JUMPDEST POP POP POP POP POP SWAP1 POP SWAP1 JUMP JUMPDEST PUSH1 0x0 CALLER PUSH20 0xFFFFFFFFFFFFFFFFFFFFFFFFFFFFFFFFFFFFFFFF AND PUSH1 0x2 PUSH1 0x0 CALLER PUSH20 0xFFFFFFFFFFFFFFFFFFFFFFFFFFFFFFFFFFFFFFFF AND PUSH20 0xFFFFFFFFFFFFFFFFFFFFFFFFFFFFFFFFFFFFFFFF AND DUP2 MSTORE PUSH1 0x20 ADD SWAP1 DUP2 MSTORE PUSH1 0x20 ADD PUSH1 0x0 KECCAK256 PUSH1 0x1 ADD PUSH1 0x0 SWAP1 SLOAD SWAP1 PUSH2 0x100 EXP SWAP1 DIV PUSH20 0xFFFFFFFFFFFFFFFFFFFFFFFFFFFFFFFFFFFFFFFF AND PUSH20 0xFFFFFFFFFFFFFFFFFFFFFFFFFFFFFFFFFFFFFFFF AND SUB PUSH2 0xF4B JUMPI PUSH1 0x1 SWAP1 POP PUSH2 0xF50 JUMP JUMPDEST PUSH1 0x0 SWAP1 POP JUMPDEST SWAP1 JUMP JUMPDEST PUSH1 0x0 CALLER PUSH20 0xFFFFFFFFFFFFFFFFFFFFFFFFFFFFFFFFFFFFFFFF AND PUSH1 0x2 PUSH1 0x0 CALLER PUSH20 0xFFFFFFFFFFFFFFFFFFFFFFFFFFFFFFFFFFFFFFFF AND PUSH20 0xFFFFFFFFFFFFFFFFFFFFFFFFFFFFFFFFFFFFFFFF AND DUP2 MSTORE PUSH1 0x20 ADD SWAP1 DUP2 MSTORE PUSH1 0x20 ADD PUSH1 0x0 KECCAK256 PUSH1 0x1 ADD PUSH1 0x0 SWAP1 SLOAD SWAP1 PUSH2 0x100 EXP SWAP1 DIV PUSH20 0xFFFFFFFFFFFFFFFFFFFFFFFFFFFFFFFFFFFFFFFF AND PUSH20 0xFFFFFFFFFFFFFFFFFFFFFFFFFFFFFFFFFFFFFFFF AND EQ PUSH2 0x1025 JUMPI PUSH1 0x40 MLOAD PUSH32 0x8C379A000000000000000000000000000000000000000000000000000000000 DUP2 MSTORE PUSH1 0x4 ADD PUSH2 0x101C SWAP1 PUSH2 0x52C0 JUMP JUMPDEST PUSH1 0x40 MLOAD DUP1 SWAP2 SUB SWAP1 REVERT JUMPDEST CALLER PUSH20 0xFFFFFFFFFFFFFFFFFFFFFFFFFFFFFFFFFFFFFFFF AND PUSH1 0x3 PUSH1 0x0 CALLER PUSH20 0xFFFFFFFFFFFFFFFFFFFFFFFFFFFFFFFFFFFFFFFF AND PUSH20 0xFFFFFFFFFFFFFFFFFFFFFFFFFFFFFFFFFFFFFFFF AND DUP2 MSTORE PUSH1 0x20 ADD SWAP1 DUP2 MSTORE PUSH1 0x20 ADD PUSH1 0x0 KECCAK256 PUSH1 0x0 ADD PUSH1 0x0 SWAP1 SLOAD SWAP1 PUSH2 0x100 EXP SWAP1 DIV PUSH20 0xFFFFFFFFFFFFFFFFFFFFFFFFFFFFFFFFFFFFFFFF AND PUSH20 0xFFFFFFFFFFFFFFFFFFFFFFFFFFFFFFFFFFFFFFFF AND EQ PUSH2 0x10F5 JUMPI PUSH1 0x40 MLOAD PUSH32 0x8C379A000000000000000000000000000000000000000000000000000000000 DUP2 MSTORE PUSH1 0x4 ADD PUSH2 0x10EC SWAP1 PUSH2 0x5623 JUMP JUMPDEST PUSH1 0x40 MLOAD DUP1 SWAP2 SUB SWAP1 REVERT JUMPDEST DUP2 PUSH1 0x3 PUSH1 0x0 CALLER PUSH20 0xFFFFFFFFFFFFFFFFFFFFFFFFFFFFFFFFFFFFFFFF AND PUSH20 0xFFFFFFFFFFFFFFFFFFFFFFFFFFFFFFFFFFFFFFFF AND DUP2 MSTORE PUSH1 0x20 ADD SWAP1 DUP2 MSTORE PUSH1 0x20 ADD PUSH1 0x0 KECCAK256 PUSH1 0x2 ADD DUP4 DUP2 SLOAD DUP2 LT PUSH2 0x114A JUMPI PUSH2 0x1149 PUSH2 0x53DE JUMP JUMPDEST JUMPDEST SWAP1 PUSH1 0x0 MSTORE PUSH1 0x20 PUSH1 0x0 KECCAK256 SWAP1 PUSH1 0x2 MUL ADD PUSH1 0x0 ADD SLOAD EQ PUSH2 0x119C JUMPI PUSH1 0x40 MLOAD PUSH32 0x8C379A000000000000000000000000000000000000000000000000000000000 DUP2 MSTORE PUSH1 0x4 ADD PUSH2 0x1193 SWAP1 PUSH2 0x568F JUMP JUMPDEST PUSH1 0x40 MLOAD DUP1 SWAP2 SUB SWAP1 REVERT JUMPDEST PUSH1 0x0 PUSH1 0x3 PUSH1 0x0 CALLER PUSH20 0xFFFFFFFFFFFFFFFFFFFFFFFFFFFFFFFFFFFFFFFF AND PUSH20 0xFFFFFFFFFFFFFFFFFFFFFFFFFFFFFFFFFFFFFFFF AND DUP2 MSTORE PUSH1 0x20 ADD SWAP1 DUP2 MSTORE PUSH1 0x20 ADD PUSH1 0x0 KECCAK256 PUSH1 0x2 ADD DUP4 DUP2 SLOAD DUP2 LT PUSH2 0x11F2 JUMPI PUSH2 0x11F1 PUSH2 0x53DE JUMP JUMPDEST JUMPDEST SWAP1 PUSH1 0x0 MSTORE PUSH1 0x20 PUSH1 0x0 KECCAK256 SWAP1 PUSH1 0x2 MUL ADD PUSH1 0x1 ADD PUSH1 0x0 SWAP1 SLOAD SWAP1 PUSH2 0x100 EXP SWAP1 DIV PUSH20 0xFFFFFFFFFFFFFFFFFFFFFFFFFFFFFFFFFFFFFFFF AND SWAP1 POP PUSH2 0x1231 DUP4 DUP3 CALLER PUSH2 0x37D9 JUMP JUMPDEST PUSH1 0x1 SWAP2 POP POP SWAP2 SWAP1 POP JUMP JUMPDEST DUP1 PUSH20 0xFFFFFFFFFFFFFFFFFFFFFFFFFFFFFFFFFFFFFFFF AND PUSH1 0x2 PUSH1 0x0 DUP4 PUSH20 0xFFFFFFFFFFFFFFFFFFFFFFFFFFFFFFFFFFFFFFFF AND PUSH20 0xFFFFFFFFFFFFFFFFFFFFFFFFFFFFFFFFFFFFFFFF AND DUP2 MSTORE PUSH1 0x20 ADD SWAP1 DUP2 MSTORE PUSH1 0x20 ADD PUSH1 0x0 KECCAK256 PUSH1 0x1 ADD PUSH1 0x0 SWAP1 SLOAD SWAP1 PUSH2 0x100 EXP SWAP1 DIV PUSH20 0xFFFFFFFFFFFFFFFFFFFFFFFFFFFFFFFFFFFFFFFF AND PUSH20 0xFFFFFFFFFFFFFFFFFFFFFFFFFFFFFFFFFFFFFFFF AND EQ PUSH2 0x130B JUMPI PUSH1 0x40 MLOAD PUSH32 0x8C379A000000000000000000000000000000000000000000000000000000000 DUP2 MSTORE PUSH1 0x4 ADD PUSH2 0x1302 SWAP1 PUSH2 0x5721 JUMP JUMPDEST PUSH1 0x40 MLOAD DUP1 SWAP2 SUB SWAP1 REVERT JUMPDEST CALLER PUSH20 0xFFFFFFFFFFFFFFFFFFFFFFFFFFFFFFFFFFFFFFFF AND PUSH1 0x3 PUSH1 0x0 DUP4 PUSH20 0xFFFFFFFFFFFFFFFFFFFFFFFFFFFFFFFFFFFFFFFF AND PUSH20 0xFFFFFFFFFFFFFFFFFFFFFFFFFFFFFFFFFFFFFFFF AND DUP2 MSTORE PUSH1 0x20 ADD SWAP1 DUP2 MSTORE PUSH1 0x20 ADD PUSH1 0x0 KECCAK256 PUSH1 0x2 ADD DUP4 DUP2 SLOAD DUP2 LT PUSH2 0x1376 JUMPI PUSH2 0x1375 PUSH2 0x53DE JUMP JUMPDEST JUMPDEST SWAP1 PUSH1 0x0 MSTORE PUSH1 0x20 PUSH1 0x0 KECCAK256 SWAP1 PUSH1 0x2 MUL ADD PUSH1 0x1 ADD PUSH1 0x0 SWAP1 SLOAD SWAP1 PUSH2 0x100 EXP SWAP1 DIV PUSH20 0xFFFFFFFFFFFFFFFFFFFFFFFFFFFFFFFFFFFFFFFF AND PUSH20 0xFFFFFFFFFFFFFFFFFFFFFFFFFFFFFFFFFFFFFFFF AND EQ PUSH2 0x13FE JUMPI PUSH1 0x40 MLOAD PUSH32 0x8C379A000000000000000000000000000000000000000000000000000000000 DUP2 MSTORE PUSH1 0x4 ADD PUSH2 0x13F5 SWAP1 PUSH2 0x5459 JUMP JUMPDEST PUSH1 0x40 MLOAD DUP1 SWAP2 SUB SWAP1 REVERT JUMPDEST DUP2 PUSH1 0x3 PUSH1 0x0 DUP4 PUSH20 0xFFFFFFFFFFFFFFFFFFFFFFFFFFFFFFFFFFFFFFFF AND PUSH20 0xFFFFFFFFFFFFFFFFFFFFFFFFFFFFFFFFFFFFFFFF AND DUP2 MSTORE PUSH1 0x20 ADD SWAP1 DUP2 MSTORE PUSH1 0x20 ADD PUSH1 0x0 KECCAK256 PUSH1 0x2 ADD DUP4 DUP2 SLOAD DUP2 LT PUSH2 0x1453 JUMPI PUSH2 0x1452 PUSH2 0x53DE JUMP JUMPDEST JUMPDEST SWAP1 PUSH1 0x0 MSTORE PUSH1 0x20 PUSH1 0x0 KECCAK256 SWAP1 PUSH1 0x2 MUL ADD PUSH1 0x0 ADD SLOAD EQ PUSH2 0x14A5 JUMPI PUSH1 0x40 MLOAD PUSH32 0x8C379A000000000000000000000000000000000000000000000000000000000 DUP2 MSTORE PUSH1 0x4 ADD PUSH2 0x149C SWAP1 PUSH2 0x568F JUMP JUMPDEST PUSH1 0x40 MLOAD DUP1 SWAP2 SUB SWAP1 REVERT JUMPDEST PUSH2 0x14B0 DUP3 CALLER DUP4 PUSH2 0x37D9 JUMP JUMPDEST POP POP JUMP JUMPDEST PUSH1 0x0 CALLER PUSH20 0xFFFFFFFFFFFFFFFFFFFFFFFFFFFFFFFFFFFFFFFF AND PUSH1 0x2 PUSH1 0x0 CALLER PUSH20 0xFFFFFFFFFFFFFFFFFFFFFFFFFFFFFFFFFFFFFFFF AND PUSH20 0xFFFFFFFFFFFFFFFFFFFFFFFFFFFFFFFFFFFFFFFF AND DUP2 MSTORE PUSH1 0x20 ADD SWAP1 DUP2 MSTORE PUSH1 0x20 ADD PUSH1 0x0 KECCAK256 PUSH1 0x1 ADD PUSH1 0x0 SWAP1 SLOAD SWAP1 PUSH2 0x100 EXP SWAP1 DIV PUSH20 0xFFFFFFFFFFFFFFFFFFFFFFFFFFFFFFFFFFFFFFFF AND PUSH20 0xFFFFFFFFFFFFFFFFFFFFFFFFFFFFFFFFFFFFFFFF AND EQ PUSH2 0x1586 JUMPI PUSH1 0x40 MLOAD PUSH32 0x8C379A000000000000000000000000000000000000000000000000000000000 DUP2 MSTORE PUSH1 0x4 ADD PUSH2 0x157D SWAP1 PUSH2 0x52C0 JUMP JUMPDEST PUSH1 0x40 MLOAD DUP1 SWAP2 SUB SWAP1 REVERT JUMPDEST DUP9 PUSH20 0xFFFFFFFFFFFFFFFFFFFFFFFFFFFFFFFFFFFFFFFF AND PUSH1 0x1 PUSH1 0x0 DUP12 PUSH20 0xFFFFFFFFFFFFFFFFFFFFFFFFFFFFFFFFFFFFFFFF AND PUSH20 0xFFFFFFFFFFFFFFFFFFFFFFFFFFFFFFFFFFFFFFFF AND DUP2 MSTORE PUSH1 0x20 ADD SWAP1 DUP2 MSTORE PUSH1 0x20 ADD PUSH1 0x0 KECCAK256 PUSH1 0x0 ADD PUSH1 0x0 SWAP1 SLOAD SWAP1 PUSH2 0x100 EXP SWAP1 DIV PUSH20 0xFFFFFFFFFFFFFFFFFFFFFFFFFFFFFFFFFFFFFFFF AND PUSH20 0xFFFFFFFFFFFFFFFFFFFFFFFFFFFFFFFFFFFFFFFF AND EQ PUSH2 0x1656 JUMPI PUSH1 0x40 MLOAD PUSH32 0x8C379A000000000000000000000000000000000000000000000000000000000 DUP2 MSTORE PUSH1 0x4 ADD PUSH2 0x164D SWAP1 PUSH2 0x532C JUMP JUMPDEST PUSH1 0x40 MLOAD DUP1 SWAP2 SUB SWAP1 REVERT JUMPDEST PUSH2 0x1660 DUP10 CALLER PUSH2 0x34A5 JUMP JUMPDEST PUSH2 0x169F JUMPI PUSH1 0x40 MLOAD PUSH32 0x8C379A000000000000000000000000000000000000000000000000000000000 DUP2 MSTORE PUSH1 0x4 ADD PUSH2 0x1696 SWAP1 PUSH2 0x5254 JUMP JUMPDEST PUSH1 0x40 MLOAD DUP1 SWAP2 SUB SWAP1 REVERT JUMPDEST PUSH2 0x16AF DUP10 DUP10 DUP10 DUP10 DUP10 DUP10 DUP10 DUP10 PUSH2 0x3F1B JUMP JUMPDEST PUSH32 0xC14653FCA65D1B22631A36A53BD2A7153579EB0180192D23B52BABB69C28050 DUP10 DUP6 PUSH1 0x40 MLOAD PUSH2 0x16E0 SWAP3 SWAP2 SWAP1 PUSH2 0x5741 JUMP JUMPDEST PUSH1 0x40 MLOAD DUP1 SWAP2 SUB SWAP1 LOG1 PUSH1 0x1 SWAP1 POP SWAP9 SWAP8 POP POP POP POP POP POP POP POP JUMP JUMPDEST PUSH2 0x1700 PUSH2 0x4614 JUMP JUMPDEST CALLER PUSH20 0xFFFFFFFFFFFFFFFFFFFFFFFFFFFFFFFFFFFFFFFF AND PUSH1 0x0 DUP1 SLOAD SWAP1 PUSH2 0x100 EXP SWAP1 DIV PUSH20 0xFFFFFFFFFFFFFFFFFFFFFFFFFFFFFFFFFFFFFFFF AND PUSH20 0xFFFFFFFFFFFFFFFFFFFFFFFFFFFFFFFFFFFFFFFF AND EQ PUSH2 0x178E JUMPI PUSH1 0x40 MLOAD PUSH32 0x8C379A000000000000000000000000000000000000000000000000000000000 DUP2 MSTORE PUSH1 0x4 ADD PUSH2 0x1785 SWAP1 PUSH2 0x57B6 JUMP JUMPDEST PUSH1 0x40 MLOAD DUP1 SWAP2 SUB SWAP1 REVERT JUMPDEST DUP2 PUSH20 0xFFFFFFFFFFFFFFFFFFFFFFFFFFFFFFFFFFFFFFFF AND PUSH1 0x2 PUSH1 0x0 DUP5 PUSH20 0xFFFFFFFFFFFFFFFFFFFFFFFFFFFFFFFFFFFFFFFF AND PUSH20 0xFFFFFFFFFFFFFFFFFFFFFFFFFFFFFFFFFFFFFFFF AND DUP2 MSTORE PUSH1 0x20 ADD SWAP1 DUP2 MSTORE PUSH1 0x20 ADD PUSH1 0x0 KECCAK256 PUSH1 0x1 ADD PUSH1 0x0 SWAP1 SLOAD SWAP1 PUSH2 0x100 EXP SWAP1 DIV PUSH20 0xFFFFFFFFFFFFFFFFFFFFFFFFFFFFFFFFFFFFFFFF AND PUSH20 0xFFFFFFFFFFFFFFFFFFFFFFFFFFFFFFFFFFFFFFFF AND EQ PUSH2 0x185E JUMPI PUSH1 0x40 MLOAD PUSH32 0x8C379A000000000000000000000000000000000000000000000000000000000 DUP2 MSTORE PUSH1 0x4 ADD PUSH2 0x1855 SWAP1 PUSH2 0x5822 JUMP JUMPDEST PUSH1 0x40 MLOAD DUP1 SWAP2 SUB SWAP1 REVERT JUMPDEST PUSH1 0x2 PUSH1 0x0 DUP4 PUSH20 0xFFFFFFFFFFFFFFFFFFFFFFFFFFFFFFFFFFFFFFFF AND PUSH20 0xFFFFFFFFFFFFFFFFFFFFFFFFFFFFFFFFFFFFFFFF AND DUP2 MSTORE PUSH1 0x20 ADD SWAP1 DUP2 MSTORE PUSH1 0x20 ADD PUSH1 0x0 KECCAK256 PUSH1 0x40 MLOAD DUP1 PUSH1 0x40 ADD PUSH1 0x40 MSTORE SWAP1 DUP2 PUSH1 0x0 DUP3 ADD DUP1 SLOAD PUSH2 0x18B8 SWAP1 PUSH2 0x5514 JUMP JUMPDEST DUP1 PUSH1 0x1F ADD PUSH1 0x20 DUP1 SWAP2 DIV MUL PUSH1 0x20 ADD PUSH1 0x40 MLOAD SWAP1 DUP2 ADD PUSH1 0x40 MSTORE DUP1 SWAP3 SWAP2 SWAP1 DUP2 DUP2 MSTORE PUSH1 0x20 ADD DUP3 DUP1 SLOAD PUSH2 0x18E4 SWAP1 PUSH2 0x5514 JUMP JUMPDEST DUP1 ISZERO PUSH2 0x1931 JUMPI DUP1 PUSH1 0x1F LT PUSH2 0x1906 JUMPI PUSH2 0x100 DUP1 DUP4 SLOAD DIV MUL DUP4 MSTORE SWAP2 PUSH1 0x20 ADD SWAP2 PUSH2 0x1931 JUMP JUMPDEST DUP3 ADD SWAP2 SWAP1 PUSH1 0x0 MSTORE PUSH1 0x20 PUSH1 0x0 KECCAK256 SWAP1 JUMPDEST DUP2 SLOAD DUP2 MSTORE SWAP1 PUSH1 0x1 ADD SWAP1 PUSH1 0x20 ADD DUP1 DUP4 GT PUSH2 0x1914 JUMPI DUP3 SWAP1 SUB PUSH1 0x1F AND DUP3 ADD SWAP2 JUMPDEST POP POP POP POP POP DUP2 MSTORE PUSH1 0x20 ADD PUSH1 0x1 DUP3 ADD PUSH1 0x0 SWAP1 SLOAD SWAP1 PUSH2 0x100 EXP SWAP1 DIV PUSH20 0xFFFFFFFFFFFFFFFFFFFFFFFFFFFFFFFFFFFFFFFF AND PUSH20 0xFFFFFFFFFFFFFFFFFFFFFFFFFFFFFFFFFFFFFFFF AND PUSH20 0xFFFFFFFFFFFFFFFFFFFFFFFFFFFFFFFFFFFFFFFF AND DUP2 MSTORE POP POP SWAP1 POP SWAP2 SWAP1 POP JUMP JUMPDEST PUSH1 0x0 CALLER PUSH20 0xFFFFFFFFFFFFFFFFFFFFFFFFFFFFFFFFFFFFFFFF AND PUSH1 0x0 DUP1 SLOAD SWAP1 PUSH2 0x100 EXP SWAP1 DIV PUSH20 0xFFFFFFFFFFFFFFFFFFFFFFFFFFFFFFFFFFFFFFFF AND PUSH20 0xFFFFFFFFFFFFFFFFFFFFFFFFFFFFFFFFFFFFFFFF AND EQ PUSH2 0x1A27 JUMPI PUSH1 0x40 MLOAD PUSH32 0x8C379A000000000000000000000000000000000000000000000000000000000 DUP2 MSTORE PUSH1 0x4 ADD PUSH2 0x1A1E SWAP1 PUSH2 0x57B6 JUMP JUMPDEST PUSH1 0x40 MLOAD DUP1 SWAP2 SUB SWAP1 REVERT JUMPDEST DUP2 PUSH20 0xFFFFFFFFFFFFFFFFFFFFFFFFFFFFFFFFFFFFFFFF AND PUSH1 0x2 PUSH1 0x0 DUP5 PUSH20 0xFFFFFFFFFFFFFFFFFFFFFFFFFFFFFFFFFFFFFFFF AND PUSH20 0xFFFFFFFFFFFFFFFFFFFFFFFFFFFFFFFFFFFFFFFF AND DUP2 MSTORE PUSH1 0x20 ADD SWAP1 DUP2 MSTORE PUSH1 0x20 ADD PUSH1 0x0 KECCAK256 PUSH1 0x1 ADD PUSH1 0x0 SWAP1 SLOAD SWAP1 PUSH2 0x100 EXP SWAP1 DIV PUSH20 0xFFFFFFFFFFFFFFFFFFFFFFFFFFFFFFFFFFFFFFFF AND PUSH20 0xFFFFFFFFFFFFFFFFFFFFFFFFFFFFFFFFFFFFFFFF AND SUB PUSH2 0x1AF7 JUMPI PUSH1 0x40 MLOAD PUSH32 0x8C379A000000000000000000000000000000000000000000000000000000000 DUP2 MSTORE PUSH1 0x4 ADD PUSH2 0x1AEE SWAP1 PUSH2 0x588E JUMP JUMPDEST PUSH1 0x40 MLOAD DUP1 SWAP2 SUB SWAP1 REVERT JUMPDEST PUSH1 0x40 MLOAD DUP1 PUSH1 0x40 ADD PUSH1 0x40 MSTORE DUP1 DUP5 DUP2 MSTORE PUSH1 0x20 ADD DUP4 PUSH20 0xFFFFFFFFFFFFFFFFFFFFFFFFFFFFFFFFFFFFFFFF AND DUP2 MSTORE POP PUSH1 0x2 PUSH1 0x0 DUP5 PUSH20 0xFFFFFFFFFFFFFFFFFFFFFFFFFFFFFFFFFFFFFFFF AND PUSH20 0xFFFFFFFFFFFFFFFFFFFFFFFFFFFFFFFFFFFFFFFF AND DUP2 MSTORE PUSH1 0x20 ADD SWAP1 DUP2 MSTORE PUSH1 0x20 ADD PUSH1 0x0 KECCAK256 PUSH1 0x0 DUP3 ADD MLOAD DUP2 PUSH1 0x0 ADD SWAP1 DUP2 PUSH2 0x1B76 SWAP2 SWAP1 PUSH2 0x5A5A JUMP JUMPDEST POP PUSH1 0x20 DUP3 ADD MLOAD DUP2 PUSH1 0x1 ADD PUSH1 0x0 PUSH2 0x100 EXP DUP2 SLOAD DUP2 PUSH20 0xFFFFFFFFFFFFFFFFFFFFFFFFFFFFFFFFFFFFFFFF MUL NOT AND SWAP1 DUP4 PUSH20 0xFFFFFFFFFFFFFFFFFFFFFFFFFFFFFFFFFFFFFFFF AND MUL OR SWAP1 SSTORE POP SWAP1 POP POP DUP2 PUSH1 0x3 PUSH1 0x0 DUP5 PUSH20 0xFFFFFFFFFFFFFFFFFFFFFFFFFFFFFFFFFFFFFFFF AND PUSH20 0xFFFFFFFFFFFFFFFFFFFFFFFFFFFFFFFFFFFFFFFF AND DUP2 MSTORE PUSH1 0x20 ADD SWAP1 DUP2 MSTORE PUSH1 0x20 ADD PUSH1 0x0 KECCAK256 PUSH1 0x0 ADD PUSH1 0x0 PUSH2 0x100 EXP DUP2 SLOAD DUP2 PUSH20 0xFFFFFFFFFFFFFFFFFFFFFFFFFFFFFFFFFFFFFFFF MUL NOT AND SWAP1 DUP4 PUSH20 0xFFFFFFFFFFFFFFFFFFFFFFFFFFFFFFFFFFFFFFFF AND MUL OR SWAP1 SSTORE POP PUSH1 0x0 PUSH1 0x3 PUSH1 0x0 DUP5 PUSH20 0xFFFFFFFFFFFFFFFFFFFFFFFFFFFFFFFFFFFFFFFF AND PUSH20 0xFFFFFFFFFFFFFFFFFFFFFFFFFFFFFFFFFFFFFFFF AND DUP2 MSTORE PUSH1 0x20 ADD SWAP1 DUP2 MSTORE PUSH1 0x20 ADD PUSH1 0x0 KECCAK256 PUSH1 0x1 ADD DUP2 SWAP1 SSTORE POP PUSH32 0x19CB05BCB9F3A5AA3801619041099231656235762A3599EED02CDCAC38FACD1C DUP4 DUP4 PUSH1 0x40 MLOAD PUSH2 0x1CBB SWAP3 SWAP2 SWAP1 PUSH2 0x5B2C JUMP JUMPDEST PUSH1 0x40 MLOAD DUP1 SWAP2 SUB SWAP1 LOG1 PUSH1 0x1 SWAP1 POP SWAP3 SWAP2 POP POP JUMP JUMPDEST PUSH1 0x0 CALLER PUSH20 0xFFFFFFFFFFFFFFFFFFFFFFFFFFFFFFFFFFFFFFFF AND PUSH1 0x2 PUSH1 0x0 CALLER PUSH20 0xFFFFFFFFFFFFFFFFFFFFFFFFFFFFFFFFFFFFFFFF AND PUSH20 0xFFFFFFFFFFFFFFFFFFFFFFFFFFFFFFFFFFFFFFFF AND DUP2 MSTORE PUSH1 0x20 ADD SWAP1 DUP2 MSTORE PUSH1 0x20 ADD PUSH1 0x0 KECCAK256 PUSH1 0x1 ADD PUSH1 0x0 SWAP1 SLOAD SWAP1 PUSH2 0x100 EXP SWAP1 DIV PUSH20 0xFFFFFFFFFFFFFFFFFFFFFFFFFFFFFFFFFFFFFFFF AND PUSH20 0xFFFFFFFFFFFFFFFFFFFFFFFFFFFFFFFFFFFFFFFF AND EQ PUSH2 0x1D9F JUMPI PUSH1 0x40 MLOAD PUSH32 0x8C379A000000000000000000000000000000000000000000000000000000000 DUP2 MSTORE PUSH1 0x4 ADD PUSH2 0x1D96 SWAP1 PUSH2 0x52C0 JUMP JUMPDEST PUSH1 0x40 MLOAD DUP1 SWAP2 SUB SWAP1 REVERT JUMPDEST DUP9 PUSH20 0xFFFFFFFFFFFFFFFFFFFFFFFFFFFFFFFFFFFFFFFF AND PUSH1 0x1 PUSH1 0x0 DUP12 PUSH20 0xFFFFFFFFFFFFFFFFFFFFFFFFFFFFFFFFFFFFFFFF AND PUSH20 0xFFFFFFFFFFFFFFFFFFFFFFFFFFFFFFFFFFFFFFFF AND DUP2 MSTORE PUSH1 0x20 ADD SWAP1 DUP2 MSTORE PUSH1 0x20 ADD PUSH1 0x0 KECCAK256 PUSH1 0x0 ADD PUSH1 0x0 SWAP1 SLOAD SWAP1 PUSH2 0x100 EXP SWAP1 DIV PUSH20 0xFFFFFFFFFFFFFFFFFFFFFFFFFFFFFFFFFFFFFFFF AND PUSH20 0xFFFFFFFFFFFFFFFFFFFFFFFFFFFFFFFFFFFFFFFF AND SUB PUSH2 0x1E6F JUMPI PUSH1 0x40 MLOAD PUSH32 0x8C379A000000000000000000000000000000000000000000000000000000000 DUP2 MSTORE PUSH1 0x4 ADD PUSH2 0x1E66 SWAP1 PUSH2 0x5BA8 JUMP JUMPDEST PUSH1 0x40 MLOAD DUP1 SWAP2 SUB SWAP1 REVERT JUMPDEST PUSH2 0x1E7F DUP10 DUP10 DUP10 DUP10 DUP10 DUP10 DUP10 DUP10 PUSH2 0x3F1B JUMP JUMPDEST PUSH2 0x1E88 DUP10 PUSH2 0x20EB JUMP JUMPDEST POP PUSH32 0x1D22F26DEE56193A2DA8B325A26E02B936D68BE9F49C0A6F92534464AA8F2ECF DUP10 DUP6 PUSH1 0x40 MLOAD PUSH2 0x1EBA SWAP3 SWAP2 SWAP1 PUSH2 0x5741 JUMP JUMPDEST PUSH1 0x40 MLOAD DUP1 SWAP2 SUB SWAP1 LOG1 PUSH1 0x1 SWAP1 POP SWAP9 SWAP8 POP POP POP POP POP POP POP POP JUMP JUMPDEST PUSH1 0x0 CALLER PUSH20 0xFFFFFFFFFFFFFFFFFFFFFFFFFFFFFFFFFFFFFFFF AND PUSH1 0x0 DUP1 SLOAD SWAP1 PUSH2 0x100 EXP SWAP1 DIV PUSH20 0xFFFFFFFFFFFFFFFFFFFFFFFFFFFFFFFFFFFFFFFF AND PUSH20 0xFFFFFFFFFFFFFFFFFFFFFFFFFFFFFFFFFFFFFFFF AND EQ PUSH2 0x1F62 JUMPI PUSH1 0x40 MLOAD PUSH32 0x8C379A000000000000000000000000000000000000000000000000000000000 DUP2 MSTORE PUSH1 0x4 ADD PUSH2 0x1F59 SWAP1 PUSH2 0x57B6 JUMP JUMPDEST PUSH1 0x40 MLOAD DUP1 SWAP2 SUB SWAP1 REVERT JUMPDEST DUP2 PUSH20 0xFFFFFFFFFFFFFFFFFFFFFFFFFFFFFFFFFFFFFFFF AND PUSH1 0x2 PUSH1 0x0 DUP5 PUSH20 0xFFFFFFFFFFFFFFFFFFFFFFFFFFFFFFFFFFFFFFFF AND PUSH20 0xFFFFFFFFFFFFFFFFFFFFFFFFFFFFFFFFFFFFFFFF AND DUP2 MSTORE PUSH1 0x20 ADD SWAP1 DUP2 MSTORE PUSH1 0x20 ADD PUSH1 0x0 KECCAK256 PUSH1 0x1 ADD PUSH1 0x0 SWAP1 SLOAD SWAP1 PUSH2 0x100 EXP SWAP1 DIV PUSH20 0xFFFFFFFFFFFFFFFFFFFFFFFFFFFFFFFFFFFFFFFF AND PUSH20 0xFFFFFFFFFFFFFFFFFFFFFFFFFFFFFFFFFFFFFFFF AND EQ PUSH2 0x2032 JUMPI PUSH1 0x40 MLOAD PUSH32 0x8C379A000000000000000000000000000000000000000000000000000000000 DUP2 MSTORE PUSH1 0x4 ADD PUSH2 0x2029 SWAP1 PUSH2 0x5822 JUMP JUMPDEST PUSH1 0x40 MLOAD DUP1 SWAP2 SUB SWAP1 REVERT JUMPDEST PUSH1 0x2 PUSH1 0x0 DUP4 PUSH20 0xFFFFFFFFFFFFFFFFFFFFFFFFFFFFFFFFFFFFFFFF AND PUSH20 0xFFFFFFFFFFFFFFFFFFFFFFFFFFFFFFFFFFFFFFFF AND DUP2 MSTORE PUSH1 0x20 ADD SWAP1 DUP2 MSTORE PUSH1 0x20 ADD PUSH1 0x0 KECCAK256 PUSH1 0x0 DUP1 DUP3 ADD PUSH1 0x0 PUSH2 0x2082 SWAP2 SWAP1 PUSH2 0x4644 JUMP JUMPDEST PUSH1 0x1 DUP3 ADD PUSH1 0x0 PUSH2 0x100 EXP DUP2 SLOAD SWAP1 PUSH20 0xFFFFFFFFFFFFFFFFFFFFFFFFFFFFFFFFFFFFFFFF MUL NOT AND SWAP1 SSTORE POP POP PUSH32 0x4630061DF51C52D44A3987B904C6FF220DA2CBDEFF03CE8750CD14652CAE0C6C DUP3 PUSH1 0x40 MLOAD PUSH2 0x20DA SWAP2 SWAP1 PUSH2 0x5135 JUMP JUMPDEST PUSH1 0x40 MLOAD DUP1 SWAP2 SUB SWAP1 LOG1 PUSH1 0x1 SWAP1 POP SWAP2 SWAP1 POP JUMP JUMPDEST PUSH1 0x0 CALLER PUSH20 0xFFFFFFFFFFFFFFFFFFFFFFFFFFFFFFFFFFFFFFFF AND PUSH1 0x2 PUSH1 0x0 CALLER PUSH20 0xFFFFFFFFFFFFFFFFFFFFFFFFFFFFFFFFFFFFFFFF AND PUSH20 0xFFFFFFFFFFFFFFFFFFFFFFFFFFFFFFFFFFFFFFFF AND DUP2 MSTORE PUSH1 0x20 ADD SWAP1 DUP2 MSTORE PUSH1 0x20 ADD PUSH1 0x0 KECCAK256 PUSH1 0x1 ADD PUSH1 0x0 SWAP1 SLOAD SWAP1 PUSH2 0x100 EXP SWAP1 DIV PUSH20 0xFFFFFFFFFFFFFFFFFFFFFFFFFFFFFFFFFFFFFFFF AND PUSH20 0xFFFFFFFFFFFFFFFFFFFFFFFFFFFFFFFFFFFFFFFF AND EQ PUSH2 0x21BD JUMPI PUSH1 0x40 MLOAD PUSH32 0x8C379A000000000000000000000000000000000000000000000000000000000 DUP2 MSTORE PUSH1 0x4 ADD PUSH2 0x21B4 SWAP1 PUSH2 0x52C0 JUMP JUMPDEST PUSH1 0x40 MLOAD DUP1 SWAP2 SUB SWAP1 REVERT JUMPDEST DUP2 PUSH20 0xFFFFFFFFFFFFFFFFFFFFFFFFFFFFFFFFFFFFFFFF AND PUSH1 0x1 PUSH1 0x0 DUP5 PUSH20 0xFFFFFFFFFFFFFFFFFFFFFFFFFFFFFFFFFFFFFFFF AND PUSH20 0xFFFFFFFFFFFFFFFFFFFFFFFFFFFFFFFFFFFFFFFF AND DUP2 MSTORE PUSH1 0x20 ADD SWAP1 DUP2 MSTORE PUSH1 0x20 ADD PUSH1 0x0 KECCAK256 PUSH1 0x0 ADD PUSH1 0x0 SWAP1 SLOAD SWAP1 PUSH2 0x100 EXP SWAP1 DIV PUSH20 0xFFFFFFFFFFFFFFFFFFFFFFFFFFFFFFFFFFFFFFFF AND PUSH20 0xFFFFFFFFFFFFFFFFFFFFFFFFFFFFFFFFFFFFFFFF AND EQ PUSH2 0x228D JUMPI PUSH1 0x40 MLOAD PUSH32 0x8C379A000000000000000000000000000000000000000000000000000000000 DUP2 MSTORE PUSH1 0x4 ADD PUSH2 0x2284 SWAP1 PUSH2 0x5C14 JUMP JUMPDEST PUSH1 0x40 MLOAD DUP1 SWAP2 SUB SWAP1 REVERT JUMPDEST PUSH1 0x0 ISZERO ISZERO PUSH2 0x229B DUP4 CALLER PUSH2 0x34A5 JUMP JUMPDEST ISZERO ISZERO EQ PUSH2 0x22DD JUMPI PUSH1 0x40 MLOAD PUSH32 0x8C379A000000000000000000000000000000000000000000000000000000000 DUP2 MSTORE PUSH1 0x4 ADD PUSH2 0x22D4 SWAP1 PUSH2 0x5C80 JUMP JUMPDEST PUSH1 0x40 MLOAD DUP1 SWAP2 SUB SWAP1 REVERT JUMPDEST PUSH1 0x0 ISZERO ISZERO PUSH2 0x22EA DUP4 PUSH2 0x4287 JUMP JUMPDEST ISZERO ISZERO EQ PUSH2 0x232C JUMPI PUSH1 0x40 MLOAD PUSH32 0x8C379A000000000000000000000000000000000000000000000000000000000 DUP2 MSTORE PUSH1 0x4 ADD PUSH2 0x2323 SWAP1 PUSH2 0x5CEC JUMP JUMPDEST PUSH1 0x40 MLOAD DUP1 SWAP2 SUB SWAP1 REVERT JUMPDEST PUSH1 0x3 PUSH1 0x0 CALLER PUSH20 0xFFFFFFFFFFFFFFFFFFFFFFFFFFFFFFFFFFFFFFFF AND PUSH20 0xFFFFFFFFFFFFFFFFFFFFFFFFFFFFFFFFFFFFFFFF AND DUP2 MSTORE PUSH1 0x20 ADD SWAP1 DUP2 MSTORE PUSH1 0x20 ADD PUSH1 0x0 KECCAK256 PUSH1 0x2 ADD PUSH1 0x40 MLOAD DUP1 PUSH1 0x40 ADD PUSH1 0x40 MSTORE DUP1 PUSH1 0x3 PUSH1 0x0 CALLER PUSH20 0xFFFFFFFFFFFFFFFFFFFFFFFFFFFFFFFFFFFFFFFF AND PUSH20 0xFFFFFFFFFFFFFFFFFFFFFFFFFFFFFFFFFFFFFFFF AND DUP2 MSTORE PUSH1 0x20 ADD SWAP1 DUP2 MSTORE PUSH1 0x20 ADD PUSH1 0x0 KECCAK256 PUSH1 0x1 ADD SLOAD DUP2 MSTORE PUSH1 0x20 ADD DUP5 PUSH20 0xFFFFFFFFFFFFFFFFFFFFFFFFFFFFFFFFFFFFFFFF AND DUP2 MSTORE POP SWAP1 DUP1 PUSH1 0x1 DUP2 SLOAD ADD DUP1 DUP3 SSTORE DUP1 SWAP2 POP POP PUSH1 0x1 SWAP1 SUB SWAP1 PUSH1 0x0 MSTORE PUSH1 0x20 PUSH1 0x0 KECCAK256 SWAP1 PUSH1 0x2 MUL ADD PUSH1 0x0 SWAP1 SWAP2 SWAP1 SWAP2 SWAP1 SWAP2 POP PUSH1 0x0 DUP3 ADD MLOAD DUP2 PUSH1 0x0 ADD SSTORE PUSH1 0x20 DUP3 ADD MLOAD DUP2 PUSH1 0x1 ADD PUSH1 0x0 PUSH2 0x100 EXP DUP2 SLOAD DUP2 PUSH20 0xFFFFFFFFFFFFFFFFFFFFFFFFFFFFFFFFFFFFFFFF MUL NOT AND SWAP1 DUP4 PUSH20 0xFFFFFFFFFFFFFFFFFFFFFFFFFFFFFFFFFFFFFFFF AND MUL OR SWAP1 SSTORE POP POP POP PUSH1 0x4 PUSH1 0x0 DUP4 PUSH20 0xFFFFFFFFFFFFFFFFFFFFFFFFFFFFFFFFFFFFFFFF AND PUSH20 0xFFFFFFFFFFFFFFFFFFFFFFFFFFFFFFFFFFFFFFFF AND DUP2 MSTORE PUSH1 0x20 ADD SWAP1 DUP2 MSTORE PUSH1 0x20 ADD PUSH1 0x0 KECCAK256 PUSH1 0x0 ADD PUSH1 0x40 MLOAD DUP1 PUSH1 0x40 ADD PUSH1 0x40 MSTORE DUP1 PUSH1 0x3 PUSH1 0x0 CALLER PUSH20 0xFFFFFFFFFFFFFFFFFFFFFFFFFFFFFFFFFFFFFFFF AND PUSH20 0xFFFFFFFFFFFFFFFFFFFFFFFFFFFFFFFFFFFFFFFF AND DUP2 MSTORE PUSH1 0x20 ADD SWAP1 DUP2 MSTORE PUSH1 0x20 ADD PUSH1 0x0 KECCAK256 PUSH1 0x1 ADD SLOAD DUP2 MSTORE PUSH1 0x20 ADD CALLER PUSH20 0xFFFFFFFFFFFFFFFFFFFFFFFFFFFFFFFFFFFFFFFF AND DUP2 MSTORE POP SWAP1 DUP1 PUSH1 0x1 DUP2 SLOAD ADD DUP1 DUP3 SSTORE DUP1 SWAP2 POP POP PUSH1 0x1 SWAP1 SUB SWAP1 PUSH1 0x0 MSTORE PUSH1 0x20 PUSH1 0x0 KECCAK256 SWAP1 PUSH1 0x2 MUL ADD PUSH1 0x0 SWAP1 SWAP2 SWAP1 SWAP2 SWAP1 SWAP2 POP PUSH1 0x0 DUP3 ADD MLOAD DUP2 PUSH1 0x0 ADD SSTORE PUSH1 0x20 DUP3 ADD MLOAD DUP2 PUSH1 0x1 ADD PUSH1 0x0 PUSH2 0x100 EXP DUP2 SLOAD DUP2 PUSH20 0xFFFFFFFFFFFFFFFFFFFFFFFFFFFFFFFFFFFFFFFF MUL NOT AND SWAP1 DUP4 PUSH20 0xFFFFFFFFFFFFFFFFFFFFFFFFFFFFFFFFFFFFFFFF AND MUL OR SWAP1 SSTORE POP POP POP PUSH1 0x3 PUSH1 0x0 CALLER PUSH20 0xFFFFFFFFFFFFFFFFFFFFFFFFFFFFFFFFFFFFFFFF AND PUSH20 0xFFFFFFFFFFFFFFFFFFFFFFFFFFFFFFFFFFFFFFFF AND DUP2 MSTORE PUSH1 0x20 ADD SWAP1 DUP2 MSTORE PUSH1 0x20 ADD PUSH1 0x0 KECCAK256 PUSH1 0x1 ADD PUSH1 0x0 DUP2 SLOAD DUP1 SWAP3 SWAP2 SWAP1 PUSH2 0x25D5 SWAP1 PUSH2 0x5D3B JUMP JUMPDEST SWAP2 SWAP1 POP SSTORE POP PUSH1 0x1 SWAP1 POP SWAP2 SWAP1 POP JUMP JUMPDEST PUSH1 0x60 PUSH2 0x25ED PUSH2 0x310A JUMP JUMPDEST PUSH2 0x262C JUMPI PUSH1 0x40 MLOAD PUSH32 0x8C379A000000000000000000000000000000000000000000000000000000000 DUP2 MSTORE PUSH1 0x4 ADD PUSH2 0x2623 SWAP1 PUSH2 0x5DCF JUMP JUMPDEST PUSH1 0x40 MLOAD DUP1 SWAP2 SUB SWAP1 REVERT JUMPDEST PUSH1 0x0 PUSH1 0x4 PUSH1 0x0 CALLER PUSH20 0xFFFFFFFFFFFFFFFFFFFFFFFFFFFFFFFFFFFFFFFF AND PUSH20 0xFFFFFFFFFFFFFFFFFFFFFFFFFFFFFFFFFFFFFFFF AND DUP2 MSTORE PUSH1 0x20 ADD SWAP1 DUP2 MSTORE PUSH1 0x20 ADD PUSH1 0x0 KECCAK256 PUSH1 0x0 ADD DUP1 SLOAD SWAP1 POP PUSH8 0xFFFFFFFFFFFFFFFF DUP2 GT ISZERO PUSH2 0x268D JUMPI PUSH2 0x268C PUSH2 0x4B05 JUMP JUMPDEST JUMPDEST PUSH1 0x40 MLOAD SWAP1 DUP1 DUP3 MSTORE DUP1 PUSH1 0x20 MUL PUSH1 0x20 ADD DUP3 ADD PUSH1 0x40 MSTORE DUP1 ISZERO PUSH2 0x26C6 JUMPI DUP2 PUSH1 0x20 ADD JUMPDEST PUSH2 0x26B3 PUSH2 0x4684 JUMP JUMPDEST DUP2 MSTORE PUSH1 0x20 ADD SWAP1 PUSH1 0x1 SWAP1 SUB SWAP1 DUP2 PUSH2 0x26AB JUMPI SWAP1 POP JUMPDEST POP SWAP1 POP PUSH1 0x0 DUP1 JUMPDEST PUSH1 0x4 PUSH1 0x0 CALLER PUSH20 0xFFFFFFFFFFFFFFFFFFFFFFFFFFFFFFFFFFFFFFFF AND PUSH20 0xFFFFFFFFFFFFFFFFFFFFFFFFFFFFFFFFFFFFFFFF AND DUP2 MSTORE PUSH1 0x20 ADD SWAP1 DUP2 MSTORE PUSH1 0x20 ADD PUSH1 0x0 KECCAK256 PUSH1 0x0 ADD DUP1 SLOAD SWAP1 POP DUP2 LT ISZERO PUSH2 0x2826 JUMPI PUSH1 0x4 PUSH1 0x0 CALLER PUSH20 0xFFFFFFFFFFFFFFFFFFFFFFFFFFFFFFFFFFFFFFFF AND PUSH20 0xFFFFFFFFFFFFFFFFFFFFFFFFFFFFFFFFFFFFFFFF AND DUP2 MSTORE PUSH1 0x20 ADD SWAP1 DUP2 MSTORE PUSH1 0x20 ADD PUSH1 0x0 KECCAK256 PUSH1 0x0 ADD DUP2 DUP2 SLOAD DUP2 LT PUSH2 0x276E JUMPI PUSH2 0x276D PUSH2 0x53DE JUMP JUMPDEST JUMPDEST SWAP1 PUSH1 0x0 MSTORE PUSH1 0x20 PUSH1 0x0 KECCAK256 SWAP1 PUSH1 0x2 MUL ADD PUSH1 0x40 MLOAD DUP1 PUSH1 0x40 ADD PUSH1 0x40 MSTORE SWAP1 DUP2 PUSH1 0x0 DUP3 ADD SLOAD DUP2 MSTORE PUSH1 0x20 ADD PUSH1 0x1 DUP3 ADD PUSH1 0x0 SWAP1 SLOAD SWAP1 PUSH2 0x100 EXP SWAP1 DIV PUSH20 0xFFFFFFFFFFFFFFFFFFFFFFFFFFFFFFFFFFFFFFFF AND PUSH20 0xFFFFFFFFFFFFFFFFFFFFFFFFFFFFFFFFFFFFFFFF AND PUSH20 0xFFFFFFFFFFFFFFFFFFFFFFFFFFFFFFFFFFFFFFFF AND DUP2 MSTORE POP POP DUP4 DUP4 DUP2 MLOAD DUP2 LT PUSH2 0x27FA JUMPI PUSH2 0x27F9 PUSH2 0x53DE JUMP JUMPDEST JUMPDEST PUSH1 0x20 MUL PUSH1 0x20 ADD ADD DUP2 SWAP1 MSTORE POP DUP2 DUP1 PUSH2 0x2810 SWAP1 PUSH2 0x5D3B JUMP JUMPDEST SWAP3 POP POP DUP1 DUP1 PUSH2 0x281E SWAP1 PUSH2 0x5D3B JUMP JUMPDEST SWAP2 POP POP PUSH2 0x26CD JUMP JUMPDEST POP DUP2 SWAP3 POP POP POP SWAP1 JUMP JUMPDEST PUSH2 0x2837 PUSH2 0x46B4 JUMP JUMPDEST PUSH2 0x283F PUSH2 0x310A JUMP JUMPDEST PUSH2 0x287E JUMPI PUSH1 0x40 MLOAD PUSH32 0x8C379A000000000000000000000000000000000000000000000000000000000 DUP2 MSTORE PUSH1 0x4 ADD PUSH2 0x2875 SWAP1 PUSH2 0x5DCF JUMP JUMPDEST PUSH1 0x40 MLOAD DUP1 SWAP2 SUB SWAP1 REVERT JUMPDEST PUSH1 0x1 PUSH1 0x0 CALLER PUSH20 0xFFFFFFFFFFFFFFFFFFFFFFFFFFFFFFFFFFFFFFFF AND PUSH20 0xFFFFFFFFFFFFFFFFFFFFFFFFFFFFFFFFFFFFFFFF AND DUP2 MSTORE PUSH1 0x20 ADD SWAP1 DUP2 MSTORE PUSH1 0x20 ADD PUSH1 0x0 KECCAK256 PUSH1 0x40 MLOAD DUP1 PUSH2 0x120 ADD PUSH1 0x40 MSTORE SWAP1 DUP2 PUSH1 0x0 DUP3 ADD PUSH1 0x0 SWAP1 SLOAD SWAP1 PUSH2 0x100 EXP SWAP1 DIV PUSH20 0xFFFFFFFFFFFFFFFFFFFFFFFFFFFFFFFFFFFFFFFF AND PUSH20 0xFFFFFFFFFFFFFFFFFFFFFFFFFFFFFFFFFFFFFFFF AND PUSH20 0xFFFFFFFFFFFFFFFFFFFFFFFFFFFFFFFFFFFFFFFF AND DUP2 MSTORE PUSH1 0x20 ADD PUSH1 0x1 DUP3 ADD DUP1 SLOAD PUSH2 0x292F SWAP1 PUSH2 0x5514 JUMP JUMPDEST DUP1 PUSH1 0x1F ADD PUSH1 0x20 DUP1 SWAP2 DIV MUL PUSH1 0x20 ADD PUSH1 0x40 MLOAD SWAP1 DUP2 ADD PUSH1 0x40 MSTORE DUP1 SWAP3 SWAP2 SWAP1 DUP2 DUP2 MSTORE PUSH1 0x20 ADD DUP3 DUP1 SLOAD PUSH2 0x295B SWAP1 PUSH2 0x5514 JUMP JUMPDEST DUP1 ISZERO PUSH2 0x29A8 JUMPI DUP1 PUSH1 0x1F LT PUSH2 0x297D JUMPI PUSH2 0x100 DUP1 DUP4 SLOAD DIV MUL DUP4 MSTORE SWAP2 PUSH1 0x20 ADD SWAP2 PUSH2 0x29A8 JUMP JUMPDEST DUP3 ADD SWAP2 SWAP1 PUSH1 0x0 MSTORE PUSH1 0x20 PUSH1 0x0 KECCAK256 SWAP1 JUMPDEST DUP2 SLOAD DUP2 MSTORE SWAP1 PUSH1 0x1 ADD SWAP1 PUSH1 0x20 ADD DUP1 DUP4 GT PUSH2 0x298B JUMPI DUP3 SWAP1 SUB PUSH1 0x1F AND DUP3 ADD SWAP2 JUMPDEST POP POP POP POP POP DUP2 MSTORE PUSH1 0x20 ADD PUSH1 0x2 DUP3 ADD DUP1 SLOAD PUSH2 0x29C1 SWAP1 PUSH2 0x5514 JUMP JUMPDEST DUP1 PUSH1 0x1F ADD PUSH1 0x20 DUP1 SWAP2 DIV MUL PUSH1 0x20 ADD PUSH1 0x40 MLOAD SWAP1 DUP2 ADD PUSH1 0x40 MSTORE DUP1 SWAP3 SWAP2 SWAP1 DUP2 DUP2 MSTORE PUSH1 0x20 ADD DUP3 DUP1 SLOAD PUSH2 0x29ED SWAP1 PUSH2 0x5514 JUMP JUMPDEST DUP1 ISZERO PUSH2 0x2A3A JUMPI DUP1 PUSH1 0x1F LT PUSH2 0x2A0F JUMPI PUSH2 0x100 DUP1 DUP4 SLOAD DIV MUL DUP4 MSTORE SWAP2 PUSH1 0x20 ADD SWAP2 PUSH2 0x2A3A JUMP JUMPDEST DUP3 ADD SWAP2 SWAP1 PUSH1 0x0 MSTORE PUSH1 0x20 PUSH1 0x0 KECCAK256 SWAP1 JUMPDEST DUP2 SLOAD DUP2 MSTORE SWAP1 PUSH1 0x1 ADD SWAP1 PUSH1 0x20 ADD DUP1 DUP4 GT PUSH2 0x2A1D JUMPI DUP3 SWAP1 SUB PUSH1 0x1F AND DUP3 ADD SWAP2 JUMPDEST POP POP POP POP POP DUP2 MSTORE PUSH1 0x20 ADD PUSH1 0x3 DUP3 ADD DUP1 SLOAD PUSH2 0x2A53 SWAP1 PUSH2 0x5514 JUMP JUMPDEST DUP1 PUSH1 0x1F ADD PUSH1 0x20 DUP1 SWAP2 DIV MUL PUSH1 0x20 ADD PUSH1 0x40 MLOAD SWAP1 DUP2 ADD PUSH1 0x40 MSTORE DUP1 SWAP3 SWAP2 SWAP1 DUP2 DUP2 MSTORE PUSH1 0x20 ADD DUP3 DUP1 SLOAD PUSH2 0x2A7F SWAP1 PUSH2 0x5514 JUMP JUMPDEST DUP1 ISZERO PUSH2 0x2ACC JUMPI DUP1 PUSH1 0x1F LT PUSH2 0x2AA1 JUMPI PUSH2 0x100 DUP1 DUP4 SLOAD DIV MUL DUP4 MSTORE SWAP2 PUSH1 0x20 ADD SWAP2 PUSH2 0x2ACC JUMP JUMPDEST DUP3 ADD SWAP2 SWAP1 PUSH1 0x0 MSTORE PUSH1 0x20 PUSH1 0x0 KECCAK256 SWAP1 JUMPDEST DUP2 SLOAD DUP2 MSTORE SWAP1 PUSH1 0x1 ADD SWAP1 PUSH1 0x20 ADD DUP1 DUP4 GT PUSH2 0x2AAF JUMPI DUP3 SWAP1 SUB PUSH1 0x1F AND DUP3 ADD SWAP2 JUMPDEST POP POP POP POP POP DUP2 MSTORE PUSH1 0x20 ADD PUSH1 0x4 DUP3 ADD DUP1 SLOAD PUSH2 0x2AE5 SWAP1 PUSH2 0x5514 JUMP JUMPDEST DUP1 PUSH1 0x1F ADD PUSH1 0x20 DUP1 SWAP2 DIV MUL PUSH1 0x20 ADD PUSH1 0x40 MLOAD SWAP1 DUP2 ADD PUSH1 0x40 MSTORE DUP1 SWAP3 SWAP2 SWAP1 DUP2 DUP2 MSTORE PUSH1 0x20 ADD DUP3 DUP1 SLOAD PUSH2 0x2B11 SWAP1 PUSH2 0x5514 JUMP JUMPDEST DUP1 ISZERO PUSH2 0x2B5E JUMPI DUP1 PUSH1 0x1F LT PUSH2 0x2B33 JUMPI PUSH2 0x100 DUP1 DUP4 SLOAD DIV MUL DUP4 MSTORE SWAP2 PUSH1 0x20 ADD SWAP2 PUSH2 0x2B5E JUMP JUMPDEST DUP3 ADD SWAP2 SWAP1 PUSH1 0x0 MSTORE PUSH1 0x20 PUSH1 0x0 KECCAK256 SWAP1 JUMPDEST DUP2 SLOAD DUP2 MSTORE SWAP1 PUSH1 0x1 ADD SWAP1 PUSH1 0x20 ADD DUP1 DUP4 GT PUSH2 0x2B41 JUMPI DUP3 SWAP1 SUB PUSH1 0x1F AND DUP3 ADD SWAP2 JUMPDEST POP POP POP POP POP DUP2 MSTORE PUSH1 0x20 ADD PUSH1 0x5 DUP3 ADD SLOAD DUP2 MSTORE PUSH1 0x20 ADD PUSH1 0x6 DUP3 ADD SLOAD DUP2 MSTORE PUSH1 0x20 ADD PUSH1 0x7 DUP3 ADD DUP1 SLOAD DUP1 PUSH1 0x20 MUL PUSH1 0x20 ADD PUSH1 0x40 MLOAD SWAP1 DUP2 ADD PUSH1 0x40 MSTORE DUP1 SWAP3 SWAP2 SWAP1 DUP2 DUP2 MSTORE PUSH1 0x20 ADD DUP3 DUP1 SLOAD DUP1 ISZERO PUSH2 0x2C00 JUMPI PUSH1 0x20 MUL DUP3 ADD SWAP2 SWAP1 PUSH1 0x0 MSTORE PUSH1 0x20 PUSH1 0x0 KECCAK256 SWAP1 JUMPDEST DUP2 PUSH1 0x0 SWAP1 SLOAD SWAP1 PUSH2 0x100 EXP SWAP1 DIV PUSH20 0xFFFFFFFFFFFFFFFFFFFFFFFFFFFFFFFFFFFFFFFF AND PUSH20 0xFFFFFFFFFFFFFFFFFFFFFFFFFFFFFFFFFFFFFFFF AND DUP2 MSTORE PUSH1 0x20 ADD SWAP1 PUSH1 0x1 ADD SWAP1 DUP1 DUP4 GT PUSH2 0x2BB6 JUMPI JUMPDEST POP POP POP POP POP DUP2 MSTORE PUSH1 0x20 ADD PUSH1 0x8 DUP3 ADD PUSH1 0x0 SWAP1 SLOAD SWAP1 PUSH2 0x100 EXP SWAP1 DIV PUSH1 0xFF AND ISZERO ISZERO ISZERO ISZERO DUP2 MSTORE POP POP SWAP1 POP SWAP1 JUMP JUMPDEST PUSH1 0x0 CALLER PUSH20 0xFFFFFFFFFFFFFFFFFFFFFFFFFFFFFFFFFFFFFFFF AND PUSH1 0x0 DUP1 SLOAD SWAP1 PUSH2 0x100 EXP SWAP1 DIV PUSH20 0xFFFFFFFFFFFFFFFFFFFFFFFFFFFFFFFFFFFFFFFF AND PUSH20 0xFFFFFFFFFFFFFFFFFFFFFFFFFFFFFFFFFFFFFFFF AND SUB PUSH2 0x2C87 JUMPI PUSH1 0x1 SWAP1 POP PUSH2 0x2C8C JUMP JUMPDEST PUSH1 0x0 SWAP1 POP JUMPDEST SWAP1 JUMP JUMPDEST PUSH1 0x0 PUSH1 0x60 DUP1 PUSH1 0x60 DUP1 PUSH1 0x0 DUP1 PUSH2 0x2CA4 DUP9 CALLER PUSH2 0x34A5 JUMP JUMPDEST PUSH2 0x2CE3 JUMPI PUSH1 0x40 MLOAD PUSH32 0x8C379A000000000000000000000000000000000000000000000000000000000 DUP2 MSTORE PUSH1 0x4 ADD PUSH2 0x2CDA SWAP1 PUSH2 0x5E3B JUMP JUMPDEST PUSH1 0x40 MLOAD DUP1 SWAP2 SUB SWAP1 REVERT JUMPDEST PUSH1 0x1 PUSH1 0x0 DUP10 PUSH20 0xFFFFFFFFFFFFFFFFFFFFFFFFFFFFFFFFFFFFFFFF AND PUSH20 0xFFFFFFFFFFFFFFFFFFFFFFFFFFFFFFFFFFFFFFFF AND DUP2 MSTORE PUSH1 0x20 ADD SWAP1 DUP2 MSTORE PUSH1 0x20 ADD PUSH1 0x0 KECCAK256 PUSH1 0x8 ADD PUSH1 0x0 SWAP1 SLOAD SWAP1 PUSH2 0x100 EXP SWAP1 DIV PUSH1 0xFF AND PUSH1 0x1 PUSH1 0x0 DUP11 PUSH20 0xFFFFFFFFFFFFFFFFFFFFFFFFFFFFFFFFFFFFFFFF AND PUSH20 0xFFFFFFFFFFFFFFFFFFFFFFFFFFFFFFFFFFFFFFFF AND DUP2 MSTORE PUSH1 0x20 ADD SWAP1 DUP2 MSTORE PUSH1 0x20 ADD PUSH1 0x0 KECCAK256 PUSH1 0x1 ADD PUSH1 0x1 PUSH1 0x0 DUP12 PUSH20 0xFFFFFFFFFFFFFFFFFFFFFFFFFFFFFFFFFFFFFFFF AND PUSH20 0xFFFFFFFFFFFFFFFFFFFFFFFFFFFFFFFFFFFFFFFF AND DUP2 MSTORE PUSH1 0x20 ADD SWAP1 DUP2 MSTORE PUSH1 0x20 ADD PUSH1 0x0 KECCAK256 PUSH1 0x2 ADD PUSH1 0x1 PUSH1 0x0 DUP13 PUSH20 0xFFFFFFFFFFFFFFFFFFFFFFFFFFFFFFFFFFFFFFFF AND PUSH20 0xFFFFFFFFFFFFFFFFFFFFFFFFFFFFFFFFFFFFFFFF AND DUP2 MSTORE PUSH1 0x20 ADD SWAP1 DUP2 MSTORE PUSH1 0x20 ADD PUSH1 0x0 KECCAK256 PUSH1 0x3 ADD PUSH1 0x1 PUSH1 0x0 DUP14 PUSH20 0xFFFFFFFFFFFFFFFFFFFFFFFFFFFFFFFFFFFFFFFF AND PUSH20 0xFFFFFFFFFFFFFFFFFFFFFFFFFFFFFFFFFFFFFFFF AND DUP2 MSTORE PUSH1 0x20 ADD SWAP1 DUP2 MSTORE PUSH1 0x20 ADD PUSH1 0x0 KECCAK256 PUSH1 0x4 ADD PUSH1 0x1 PUSH1 0x0 DUP15 PUSH20 0xFFFFFFFFFFFFFFFFFFFFFFFFFFFFFFFFFFFFFFFF AND PUSH20 0xFFFFFFFFFFFFFFFFFFFFFFFFFFFFFFFFFFFFFFFF AND DUP2 MSTORE PUSH1 0x20 ADD SWAP1 DUP2 MSTORE PUSH1 0x20 ADD PUSH1 0x0 KECCAK256 PUSH1 0x5 ADD SLOAD PUSH1 0x1 PUSH1 0x0 DUP16 PUSH20 0xFFFFFFFFFFFFFFFFFFFFFFFFFFFFFFFFFFFFFFFF AND PUSH20 0xFFFFFFFFFFFFFFFFFFFFFFFFFFFFFFFFFFFFFFFF AND DUP2 MSTORE PUSH1 0x20 ADD SWAP1 DUP2 MSTORE PUSH1 0x20 ADD PUSH1 0x0 KECCAK256 PUSH1 0x6 ADD SLOAD DUP6 DUP1 SLOAD PUSH2 0x2ECD SWAP1 PUSH2 0x5514 JUMP JUMPDEST DUP1 PUSH1 0x1F ADD PUSH1 0x20 DUP1 SWAP2 DIV MUL PUSH1 0x20 ADD PUSH1 0x40 MLOAD SWAP1 DUP2 ADD PUSH1 0x40 MSTORE DUP1 SWAP3 SWAP2 SWAP1 DUP2 DUP2 MSTORE PUSH1 0x20 ADD DUP3 DUP1 SLOAD PUSH2 0x2EF9 SWAP1 PUSH2 0x5514 JUMP JUMPDEST DUP1 ISZERO PUSH2 0x2F46 JUMPI DUP1 PUSH1 0x1F LT PUSH2 0x2F1B JUMPI PUSH2 0x100 DUP1 DUP4 SLOAD DIV MUL DUP4 MSTORE SWAP2 PUSH1 0x20 ADD SWAP2 PUSH2 0x2F46 JUMP JUMPDEST DUP3 ADD SWAP2 SWAP1 PUSH1 0x0 MSTORE PUSH1 0x20 PUSH1 0x0 KECCAK256 SWAP1 JUMPDEST DUP2 SLOAD DUP2 MSTORE SWAP1 PUSH1 0x1 ADD SWAP1 PUSH1 0x20 ADD DUP1 DUP4 GT PUSH2 0x2F29 JUMPI DUP3 SWAP1 SUB PUSH1 0x1F AND DUP3 ADD SWAP2 JUMPDEST POP POP POP POP POP SWAP6 POP DUP5 DUP1 SLOAD PUSH2 0x2F59 SWAP1 PUSH2 0x5514 JUMP JUMPDEST DUP1 PUSH1 0x1F ADD PUSH1 0x20 DUP1 SWAP2 DIV MUL PUSH1 0x20 ADD PUSH1 0x40 MLOAD SWAP1 DUP2 ADD PUSH1 0x40 MSTORE DUP1 SWAP3 SWAP2 SWAP1 DUP2 DUP2 MSTORE PUSH1 0x20 ADD DUP3 DUP1 SLOAD PUSH2 0x2F85 SWAP1 PUSH2 0x5514 JUMP JUMPDEST DUP1 ISZERO PUSH2 0x2FD2 JUMPI DUP1 PUSH1 0x1F LT PUSH2 0x2FA7 JUMPI PUSH2 0x100 DUP1 DUP4 SLOAD DIV MUL DUP4 MSTORE SWAP2 PUSH1 0x20 ADD SWAP2 PUSH2 0x2FD2 JUMP JUMPDEST DUP3 ADD SWAP2 SWAP1 PUSH1 0x0 MSTORE PUSH1 0x20 PUSH1 0x0 KECCAK256 SWAP1 JUMPDEST DUP2 SLOAD DUP2 MSTORE SWAP1 PUSH1 0x1 ADD SWAP1 PUSH1 0x20 ADD DUP1 DUP4 GT PUSH2 0x2FB5 JUMPI DUP3 SWAP1 SUB PUSH1 0x1F AND DUP3 ADD SWAP2 JUMPDEST POP POP POP POP POP SWAP5 POP DUP4 DUP1 SLOAD PUSH2 0x2FE5 SWAP1 PUSH2 0x5514 JUMP JUMPDEST DUP1 PUSH1 0x1F ADD PUSH1 0x20 DUP1 SWAP2 DIV MUL PUSH1 0x20 ADD PUSH1 0x40 MLOAD SWAP1 DUP2 ADD PUSH1 0x40 MSTORE DUP1 SWAP3 SWAP2 SWAP1 DUP2 DUP2 MSTORE PUSH1 0x20 ADD DUP3 DUP1 SLOAD PUSH2 0x3011 SWAP1 PUSH2 0x5514 JUMP JUMPDEST DUP1 ISZERO PUSH2 0x305E JUMPI DUP1 PUSH1 0x1F LT PUSH2 0x3033 JUMPI PUSH2 0x100 DUP1 DUP4 SLOAD DIV MUL DUP4 MSTORE SWAP2 PUSH1 0x20 ADD SWAP2 PUSH2 0x305E JUMP JUMPDEST DUP3 ADD SWAP2 SWAP1 PUSH1 0x0 MSTORE PUSH1 0x20 PUSH1 0x0 KECCAK256 SWAP1 JUMPDEST DUP2 SLOAD DUP2 MSTORE SWAP1 PUSH1 0x1 ADD SWAP1 PUSH1 0x20 ADD DUP1 DUP4 GT PUSH2 0x3041 JUMPI DUP3 SWAP1 SUB PUSH1 0x1F AND DUP3 ADD SWAP2 JUMPDEST POP POP POP POP POP SWAP4 POP DUP3 DUP1 SLOAD PUSH2 0x3071 SWAP1 PUSH2 0x5514 JUMP JUMPDEST DUP1 PUSH1 0x1F ADD PUSH1 0x20 DUP1 SWAP2 DIV MUL PUSH1 0x20 ADD PUSH1 0x40 MLOAD SWAP1 DUP2 ADD PUSH1 0x40 MSTORE DUP1 SWAP3 SWAP2 SWAP1 DUP2 DUP2 MSTORE PUSH1 0x20 ADD DUP3 DUP1 SLOAD PUSH2 0x309D SWAP1 PUSH2 0x5514 JUMP JUMPDEST DUP1 ISZERO PUSH2 0x30EA JUMPI DUP1 PUSH1 0x1F LT PUSH2 0x30BF JUMPI PUSH2 0x100 DUP1 DUP4 SLOAD DIV MUL DUP4 MSTORE SWAP2 PUSH1 0x20 ADD SWAP2 PUSH2 0x30EA JUMP JUMPDEST DUP3 ADD SWAP2 SWAP1 PUSH1 0x0 MSTORE PUSH1 0x20 PUSH1 0x0 KECCAK256 SWAP1 JUMPDEST DUP2 SLOAD DUP2 MSTORE SWAP1 PUSH1 0x1 ADD SWAP1 PUSH1 0x20 ADD DUP1 DUP4 GT PUSH2 0x30CD JUMPI DUP3 SWAP1 SUB PUSH1 0x1F AND DUP3 ADD SWAP2 JUMPDEST POP POP POP POP POP SWAP3 POP SWAP7 POP SWAP7 POP SWAP7 POP SWAP7 POP SWAP7 POP SWAP7 POP SWAP7 POP SWAP2 SWAP4 SWAP6 SWAP8 SWAP1 SWAP3 SWAP5 SWAP7 POP JUMP JUMPDEST PUSH1 0x0 CALLER PUSH20 0xFFFFFFFFFFFFFFFFFFFFFFFFFFFFFFFFFFFFFFFF AND PUSH1 0x1 PUSH1 0x0 CALLER PUSH20 0xFFFFFFFFFFFFFFFFFFFFFFFFFFFFFFFFFFFFFFFF AND PUSH20 0xFFFFFFFFFFFFFFFFFFFFFFFFFFFFFFFFFFFFFFFF AND DUP2 MSTORE PUSH1 0x20 ADD SWAP1 DUP2 MSTORE PUSH1 0x20 ADD PUSH1 0x0 KECCAK256 PUSH1 0x0 ADD PUSH1 0x0 SWAP1 SLOAD SWAP1 PUSH2 0x100 EXP SWAP1 DIV PUSH20 0xFFFFFFFFFFFFFFFFFFFFFFFFFFFFFFFFFFFFFFFF AND PUSH20 0xFFFFFFFFFFFFFFFFFFFFFFFFFFFFFFFFFFFFFFFF AND SUB PUSH2 0x31AA JUMPI PUSH1 0x1 SWAP1 POP PUSH2 0x31AF JUMP JUMPDEST PUSH1 0x0 SWAP1 POP JUMPDEST SWAP1 JUMP JUMPDEST PUSH1 0x60 CALLER PUSH20 0xFFFFFFFFFFFFFFFFFFFFFFFFFFFFFFFFFFFFFFFF AND PUSH1 0x2 PUSH1 0x0 CALLER PUSH20 0xFFFFFFFFFFFFFFFFFFFFFFFFFFFFFFFFFFFFFFFF AND PUSH20 0xFFFFFFFFFFFFFFFFFFFFFFFFFFFFFFFFFFFFFFFF AND DUP2 MSTORE PUSH1 0x20 ADD SWAP1 DUP2 MSTORE PUSH1 0x20 ADD PUSH1 0x0 KECCAK256 PUSH1 0x1 ADD PUSH1 0x0 SWAP1 SLOAD SWAP1 PUSH2 0x100 EXP SWAP1 DIV PUSH20 0xFFFFFFFFFFFFFFFFFFFFFFFFFFFFFFFFFFFFFFFF AND PUSH20 0xFFFFFFFFFFFFFFFFFFFFFFFFFFFFFFFFFFFFFFFF AND EQ PUSH2 0x3284 JUMPI PUSH1 0x40 MLOAD PUSH32 0x8C379A000000000000000000000000000000000000000000000000000000000 DUP2 MSTORE PUSH1 0x4 ADD PUSH2 0x327B SWAP1 PUSH2 0x52C0 JUMP JUMPDEST PUSH1 0x40 MLOAD DUP1 SWAP2 SUB SWAP1 REVERT JUMPDEST PUSH1 0x0 PUSH1 0x3 PUSH1 0x0 CALLER PUSH20 0xFFFFFFFFFFFFFFFFFFFFFFFFFFFFFFFFFFFFFFFF AND PUSH20 0xFFFFFFFFFFFFFFFFFFFFFFFFFFFFFFFFFFFFFFFF AND DUP2 MSTORE PUSH1 0x20 ADD SWAP1 DUP2 MSTORE PUSH1 0x20 ADD PUSH1 0x0 KECCAK256 PUSH1 0x1 ADD SLOAD PUSH8 0xFFFFFFFFFFFFFFFF DUP2 GT ISZERO PUSH2 0x32E2 JUMPI PUSH2 0x32E1 PUSH2 0x4B05 JUMP JUMPDEST JUMPDEST PUSH1 0x40 MLOAD SWAP1 DUP1 DUP3 MSTORE DUP1 PUSH1 0x20 MUL PUSH1 0x20 ADD DUP3 ADD PUSH1 0x40 MSTORE DUP1 ISZERO PUSH2 0x331B JUMPI DUP2 PUSH1 0x20 ADD JUMPDEST PUSH2 0x3308 PUSH2 0x4684 JUMP JUMPDEST DUP2 MSTORE PUSH1 0x20 ADD SWAP1 PUSH1 0x1 SWAP1 SUB SWAP1 DUP2 PUSH2 0x3300 JUMPI SWAP1 POP JUMPDEST POP SWAP1 POP PUSH1 0x0 DUP1 JUMPDEST PUSH1 0x3 PUSH1 0x0 CALLER PUSH20 0xFFFFFFFFFFFFFFFFFFFFFFFFFFFFFFFFFFFFFFFF AND PUSH20 0xFFFFFFFFFFFFFFFFFFFFFFFFFFFFFFFFFFFFFFFF AND DUP2 MSTORE PUSH1 0x20 ADD SWAP1 DUP2 MSTORE PUSH1 0x20 ADD PUSH1 0x0 KECCAK256 PUSH1 0x1 ADD SLOAD DUP2 LT ISZERO PUSH2 0x3478 JUMPI PUSH1 0x3 PUSH1 0x0 CALLER PUSH20 0xFFFFFFFFFFFFFFFFFFFFFFFFFFFFFFFFFFFFFFFF AND PUSH20 0xFFFFFFFFFFFFFFFFFFFFFFFFFFFFFFFFFFFFFFFF AND DUP2 MSTORE PUSH1 0x20 ADD SWAP1 DUP2 MSTORE PUSH1 0x20 ADD PUSH1 0x0 KECCAK256 PUSH1 0x2 ADD DUP2 DUP2 SLOAD DUP2 LT PUSH2 0x33C0 JUMPI PUSH2 0x33BF PUSH2 0x53DE JUMP JUMPDEST JUMPDEST SWAP1 PUSH1 0x0 MSTORE PUSH1 0x20 PUSH1 0x0 KECCAK256 SWAP1 PUSH1 0x2 MUL ADD PUSH1 0x40 MLOAD DUP1 PUSH1 0x40 ADD PUSH1 0x40 MSTORE SWAP1 DUP2 PUSH1 0x0 DUP3 ADD SLOAD DUP2 MSTORE PUSH1 0x20 ADD PUSH1 0x1 DUP3 ADD PUSH1 0x0 SWAP1 SLOAD SWAP1 PUSH2 0x100 EXP SWAP1 DIV PUSH20 0xFFFFFFFFFFFFFFFFFFFFFFFFFFFFFFFFFFFFFFFF AND PUSH20 0xFFFFFFFFFFFFFFFFFFFFFFFFFFFFFFFFFFFFFFFF AND PUSH20 0xFFFFFFFFFFFFFFFFFFFFFFFFFFFFFFFFFFFFFFFF AND DUP2 MSTORE POP POP DUP4 DUP4 DUP2 MLOAD DUP2 LT PUSH2 0x344C JUMPI PUSH2 0x344B PUSH2 0x53DE JUMP JUMPDEST JUMPDEST PUSH1 0x20 MUL PUSH1 0x20 ADD ADD DUP2 SWAP1 MSTORE POP DUP2 DUP1 PUSH2 0x3462 SWAP1 PUSH2 0x5D3B JUMP JUMPDEST SWAP3 POP POP DUP1 DUP1 PUSH2 0x3470 SWAP1 PUSH2 0x5D3B JUMP JUMPDEST SWAP2 POP POP PUSH2 0x3322 JUMP JUMPDEST POP DUP2 SWAP3 POP POP POP SWAP1 JUMP JUMPDEST PUSH1 0x0 DUP1 SLOAD SWAP1 PUSH2 0x100 EXP SWAP1 DIV PUSH20 0xFFFFFFFFFFFFFFFFFFFFFFFFFFFFFFFFFFFFFFFF AND DUP2 JUMP JUMPDEST PUSH1 0x0 DUP1 PUSH1 0x0 SWAP1 POP JUMPDEST PUSH1 0x1 PUSH1 0x0 DUP6 PUSH20 0xFFFFFFFFFFFFFFFFFFFFFFFFFFFFFFFFFFFFFFFF AND PUSH20 0xFFFFFFFFFFFFFFFFFFFFFFFFFFFFFFFFFFFFFFFF AND DUP2 MSTORE PUSH1 0x20 ADD SWAP1 DUP2 MSTORE PUSH1 0x20 ADD PUSH1 0x0 KECCAK256 PUSH1 0x7 ADD DUP1 SLOAD SWAP1 POP DUP2 LT ISZERO PUSH2 0x35C8 JUMPI DUP3 PUSH20 0xFFFFFFFFFFFFFFFFFFFFFFFFFFFFFFFFFFFFFFFF AND PUSH1 0x1 PUSH1 0x0 DUP7 PUSH20 0xFFFFFFFFFFFFFFFFFFFFFFFFFFFFFFFFFFFFFFFF AND PUSH20 0xFFFFFFFFFFFFFFFFFFFFFFFFFFFFFFFFFFFFFFFF AND DUP2 MSTORE PUSH1 0x20 ADD SWAP1 DUP2 MSTORE PUSH1 0x20 ADD PUSH1 0x0 KECCAK256 PUSH1 0x7 ADD DUP3 DUP2 SLOAD DUP2 LT PUSH2 0x3565 JUMPI PUSH2 0x3564 PUSH2 0x53DE JUMP JUMPDEST JUMPDEST SWAP1 PUSH1 0x0 MSTORE PUSH1 0x20 PUSH1 0x0 KECCAK256 ADD PUSH1 0x0 SWAP1 SLOAD SWAP1 PUSH2 0x100 EXP SWAP1 DIV PUSH20 0xFFFFFFFFFFFFFFFFFFFFFFFFFFFFFFFFFFFFFFFF AND PUSH20 0xFFFFFFFFFFFFFFFFFFFFFFFFFFFFFFFFFFFFFFFF AND SUB PUSH2 0x35B5 JUMPI PUSH1 0x1 SWAP2 POP POP PUSH2 0x35CE JUMP JUMPDEST DUP1 DUP1 PUSH2 0x35C0 SWAP1 PUSH2 0x5D3B JUMP JUMPDEST SWAP2 POP POP PUSH2 0x34AD JUMP JUMPDEST PUSH1 0x0 SWAP2 POP POP JUMPDEST SWAP3 SWAP2 POP POP JUMP JUMPDEST PUSH1 0x0 PUSH2 0x35E0 DUP4 DUP4 PUSH2 0x43B9 JUMP JUMPDEST SWAP1 POP PUSH1 0x1 PUSH1 0x0 DUP5 PUSH20 0xFFFFFFFFFFFFFFFFFFFFFFFFFFFFFFFFFFFFFFFF AND PUSH20 0xFFFFFFFFFFFFFFFFFFFFFFFFFFFFFFFFFFFFFFFF AND DUP2 MSTORE PUSH1 0x20 ADD SWAP1 DUP2 MSTORE PUSH1 0x20 ADD PUSH1 0x0 KECCAK256 PUSH1 0x7 ADD PUSH1 0x1 DUP1 PUSH1 0x0 DUP7 PUSH20 0xFFFFFFFFFFFFFFFFFFFFFFFFFFFFFFFFFFFFFFFF AND PUSH20 0xFFFFFFFFFFFFFFFFFFFFFFFFFFFFFFFFFFFFFFFF AND DUP2 MSTORE PUSH1 0x20 ADD SWAP1 DUP2 MSTORE PUSH1 0x20 ADD PUSH1 0x0 KECCAK256 PUSH1 0x7 ADD DUP1 SLOAD SWAP1 POP PUSH2 0x3675 SWAP2 SWAP1 PUSH2 0x5E5B JUMP JUMPDEST DUP2 SLOAD DUP2 LT PUSH2 0x3686 JUMPI PUSH2 0x3685 PUSH2 0x53DE JUMP JUMPDEST JUMPDEST SWAP1 PUSH1 0x0 MSTORE PUSH1 0x20 PUSH1 0x0 KECCAK256 ADD PUSH1 0x0 SWAP1 SLOAD SWAP1 PUSH2 0x100 EXP SWAP1 DIV PUSH20 0xFFFFFFFFFFFFFFFFFFFFFFFFFFFFFFFFFFFFFFFF AND PUSH1 0x1 PUSH1 0x0 DUP6 PUSH20 0xFFFFFFFFFFFFFFFFFFFFFFFFFFFFFFFFFFFFFFFF AND PUSH20 0xFFFFFFFFFFFFFFFFFFFFFFFFFFFFFFFFFFFFFFFF AND DUP2 MSTORE PUSH1 0x20 ADD SWAP1 DUP2 MSTORE PUSH1 0x20 ADD PUSH1 0x0 KECCAK256 PUSH1 0x7 ADD DUP3 DUP2 SLOAD DUP2 LT PUSH2 0x3705 JUMPI PUSH2 0x3704 PUSH2 0x53DE JUMP JUMPDEST JUMPDEST SWAP1 PUSH1 0x0 MSTORE PUSH1 0x20 PUSH1 0x0 KECCAK256 ADD PUSH1 0x0 PUSH2 0x100 EXP DUP2 SLOAD DUP2 PUSH20 0xFFFFFFFFFFFFFFFFFFFFFFFFFFFFFFFFFFFFFFFF MUL NOT AND SWAP1 DUP4 PUSH20 0xFFFFFFFFFFFFFFFFFFFFFFFFFFFFFFFFFFFFFFFF AND MUL OR SWAP1 SSTORE POP PUSH1 0x1 PUSH1 0x0 DUP5 PUSH20 0xFFFFFFFFFFFFFFFFFFFFFFFFFFFFFFFFFFFFFFFF AND PUSH20 0xFFFFFFFFFFFFFFFFFFFFFFFFFFFFFFFFFFFFFFFF AND DUP2 MSTORE PUSH1 0x20 ADD SWAP1 DUP2 MSTORE PUSH1 0x20 ADD PUSH1 0x0 KECCAK256 PUSH1 0x7 ADD DUP1 SLOAD DUP1 PUSH2 0x379F JUMPI PUSH2 0x379E PUSH2 0x5E8F JUMP JUMPDEST JUMPDEST PUSH1 0x1 SWAP1 SUB DUP2 DUP2 SWAP1 PUSH1 0x0 MSTORE PUSH1 0x20 PUSH1 0x0 KECCAK256 ADD PUSH1 0x0 PUSH2 0x100 EXP DUP2 SLOAD SWAP1 PUSH20 0xFFFFFFFFFFFFFFFFFFFFFFFFFFFFFFFFFFFFFFFF MUL NOT AND SWAP1 SSTORE SWAP1 SSTORE POP POP POP JUMP JUMPDEST PUSH1 0x0 PUSH2 0x37E5 DUP4 DUP4 PUSH2 0x44E3 JUMP JUMPDEST SWAP1 POP PUSH1 0x3 PUSH1 0x0 DUP4 PUSH20 0xFFFFFFFFFFFFFFFFFFFFFFFFFFFFFFFFFFFFFFFF AND PUSH20 0xFFFFFFFFFFFFFFFFFFFFFFFFFFFFFFFFFFFFFFFF AND DUP2 MSTORE PUSH1 0x20 ADD SWAP1 DUP2 MSTORE PUSH1 0x20 ADD PUSH1 0x0 KECCAK256 PUSH1 0x2 ADD PUSH1 0x1 PUSH1 0x3 PUSH1 0x0 DUP6 PUSH20 0xFFFFFFFFFFFFFFFFFFFFFFFFFFFFFFFFFFFFFFFF AND PUSH20 0xFFFFFFFFFFFFFFFFFFFFFFFFFFFFFFFFFFFFFFFF AND DUP2 MSTORE PUSH1 0x20 ADD SWAP1 DUP2 MSTORE PUSH1 0x20 ADD PUSH1 0x0 KECCAK256 PUSH1 0x2 ADD DUP1 SLOAD SWAP1 POP PUSH2 0x387B SWAP2 SWAP1 PUSH2 0x5E5B JUMP JUMPDEST DUP2 SLOAD DUP2 LT PUSH2 0x388C JUMPI PUSH2 0x388B PUSH2 0x53DE JUMP JUMPDEST JUMPDEST SWAP1 PUSH1 0x0 MSTORE PUSH1 0x20 PUSH1 0x0 KECCAK256 SWAP1 PUSH1 0x2 MUL ADD PUSH1 0x3 PUSH1 0x0 DUP5 PUSH20 0xFFFFFFFFFFFFFFFFFFFFFFFFFFFFFFFFFFFFFFFF AND PUSH20 0xFFFFFFFFFFFFFFFFFFFFFFFFFFFFFFFFFFFFFFFF AND DUP2 MSTORE PUSH1 0x20 ADD SWAP1 DUP2 MSTORE PUSH1 0x20 ADD PUSH1 0x0 KECCAK256 PUSH1 0x2 ADD DUP6 DUP2 SLOAD DUP2 LT PUSH2 0x38EE JUMPI PUSH2 0x38ED PUSH2 0x53DE JUMP JUMPDEST JUMPDEST SWAP1 PUSH1 0x0 MSTORE PUSH1 0x20 PUSH1 0x0 KECCAK256 SWAP1 PUSH1 0x2 MUL ADD PUSH1 0x0 DUP3 ADD SLOAD DUP2 PUSH1 0x0 ADD SSTORE PUSH1 0x1 DUP3 ADD PUSH1 0x0 SWAP1 SLOAD SWAP1 PUSH2 0x100 EXP SWAP1 DIV PUSH20 0xFFFFFFFFFFFFFFFFFFFFFFFFFFFFFFFFFFFFFFFF AND DUP2 PUSH1 0x1 ADD PUSH1 0x0 PUSH2 0x100 EXP DUP2 SLOAD DUP2 PUSH20 0xFFFFFFFFFFFFFFFFFFFFFFFFFFFFFFFFFFFFFFFF MUL NOT AND SWAP1 DUP4 PUSH20 0xFFFFFFFFFFFFFFFFFFFFFFFFFFFFFFFFFFFFFFFF AND MUL OR SWAP1 SSTORE POP SWAP1 POP POP PUSH1 0x3 PUSH1 0x0 DUP4 PUSH20 0xFFFFFFFFFFFFFFFFFFFFFFFFFFFFFFFFFFFFFFFF AND PUSH20 0xFFFFFFFFFFFFFFFFFFFFFFFFFFFFFFFFFFFFFFFF AND DUP2 MSTORE PUSH1 0x20 ADD SWAP1 DUP2 MSTORE PUSH1 0x20 ADD PUSH1 0x0 KECCAK256 PUSH1 0x2 ADD DUP1 SLOAD DUP1 PUSH2 0x39C2 JUMPI PUSH2 0x39C1 PUSH2 0x5E8F JUMP JUMPDEST JUMPDEST PUSH1 0x1 SWAP1 SUB DUP2 DUP2 SWAP1 PUSH1 0x0 MSTORE PUSH1 0x20 PUSH1 0x0 KECCAK256 SWAP1 PUSH1 0x2 MUL ADD PUSH1 0x0 DUP1 DUP3 ADD PUSH1 0x0 SWAP1 SSTORE PUSH1 0x1 DUP3 ADD PUSH1 0x0 PUSH2 0x100 EXP DUP2 SLOAD SWAP1 PUSH20 0xFFFFFFFFFFFFFFFFFFFFFFFFFFFFFFFFFFFFFFFF MUL NOT AND SWAP1 SSTORE POP POP SWAP1 SSTORE PUSH1 0x4 PUSH1 0x0 DUP5 PUSH20 0xFFFFFFFFFFFFFFFFFFFFFFFFFFFFFFFFFFFFFFFF AND PUSH20 0xFFFFFFFFFFFFFFFFFFFFFFFFFFFFFFFFFFFFFFFF AND DUP2 MSTORE PUSH1 0x20 ADD SWAP1 DUP2 MSTORE PUSH1 0x20 ADD PUSH1 0x0 KECCAK256 PUSH1 0x0 ADD PUSH1 0x1 PUSH1 0x4 PUSH1 0x0 DUP7 PUSH20 0xFFFFFFFFFFFFFFFFFFFFFFFFFFFFFFFFFFFFFFFF AND PUSH20 0xFFFFFFFFFFFFFFFFFFFFFFFFFFFFFFFFFFFFFFFF AND DUP2 MSTORE PUSH1 0x20 ADD SWAP1 DUP2 MSTORE PUSH1 0x20 ADD PUSH1 0x0 KECCAK256 PUSH1 0x0 ADD DUP1 SLOAD SWAP1 POP PUSH2 0x3A9E SWAP2 SWAP1 PUSH2 0x5E5B JUMP JUMPDEST DUP2 SLOAD DUP2 LT PUSH2 0x3AAF JUMPI PUSH2 0x3AAE PUSH2 0x53DE JUMP JUMPDEST JUMPDEST SWAP1 PUSH1 0x0 MSTORE PUSH1 0x20 PUSH1 0x0 KECCAK256 SWAP1 PUSH1 0x2 MUL ADD PUSH1 0x4 PUSH1 0x0 DUP6 PUSH20 0xFFFFFFFFFFFFFFFFFFFFFFFFFFFFFFFFFFFFFFFF AND PUSH20 0xFFFFFFFFFFFFFFFFFFFFFFFFFFFFFFFFFFFFFFFF AND DUP2 MSTORE PUSH1 0x20 ADD SWAP1 DUP2 MSTORE PUSH1 0x20 ADD PUSH1 0x0 KECCAK256 PUSH1 0x0 ADD DUP3 DUP2 SLOAD DUP2 LT PUSH2 0x3B11 JUMPI PUSH2 0x3B10 PUSH2 0x53DE JUMP JUMPDEST JUMPDEST SWAP1 PUSH1 0x0 MSTORE PUSH1 0x20 PUSH1 0x0 KECCAK256 SWAP1 PUSH1 0x2 MUL ADD PUSH1 0x0 DUP3 ADD SLOAD DUP2 PUSH1 0x0 ADD SSTORE PUSH1 0x1 DUP3 ADD PUSH1 0x0 SWAP1 SLOAD SWAP1 PUSH2 0x100 EXP SWAP1 DIV PUSH20 0xFFFFFFFFFFFFFFFFFFFFFFFFFFFFFFFFFFFFFFFF AND DUP2 PUSH1 0x1 ADD PUSH1 0x0 PUSH2 0x100 EXP DUP2 SLOAD DUP2 PUSH20 0xFFFFFFFFFFFFFFFFFFFFFFFFFFFFFFFFFFFFFFFF MUL NOT AND SWAP1 DUP4 PUSH20 0xFFFFFFFFFFFFFFFFFFFFFFFFFFFFFFFFFFFFFFFF AND MUL OR SWAP1 SSTORE POP SWAP1 POP POP PUSH1 0x4 PUSH1 0x0 DUP5 PUSH20 0xFFFFFFFFFFFFFFFFFFFFFFFFFFFFFFFFFFFFFFFF AND PUSH20 0xFFFFFFFFFFFFFFFFFFFFFFFFFFFFFFFFFFFFFFFF AND DUP2 MSTORE PUSH1 0x20 ADD SWAP1 DUP2 MSTORE PUSH1 0x20 ADD PUSH1 0x0 KECCAK256 PUSH1 0x0 ADD DUP1 SLOAD DUP1 PUSH2 0x3BE5 JUMPI PUSH2 0x3BE4 PUSH2 0x5E8F JUMP JUMPDEST JUMPDEST PUSH1 0x1 SWAP1 SUB DUP2 DUP2 SWAP1 PUSH1 0x0 MSTORE PUSH1 0x20 PUSH1 0x0 KECCAK256 SWAP1 PUSH1 0x2 MUL ADD PUSH1 0x0 DUP1 DUP3 ADD PUSH1 0x0 SWAP1 SSTORE PUSH1 0x1 DUP3 ADD PUSH1 0x0 PUSH2 0x100 EXP DUP2 SLOAD SWAP1 PUSH20 0xFFFFFFFFFFFFFFFFFFFFFFFFFFFFFFFFFFFFFFFF MUL NOT AND SWAP1 SSTORE POP POP SWAP1 SSTORE DUP4 PUSH1 0x3 PUSH1 0x0 CALLER PUSH20 0xFFFFFFFFFFFFFFFFFFFFFFFFFFFFFFFFFFFFFFFF AND PUSH20 0xFFFFFFFFFFFFFFFFFFFFFFFFFFFFFFFFFFFFFFFF AND DUP2 MSTORE PUSH1 0x20 ADD SWAP1 DUP2 MSTORE PUSH1 0x20 ADD PUSH1 0x0 KECCAK256 PUSH1 0x2 ADD DUP1 SLOAD SWAP1 POP EQ ISZERO DUP1 ISZERO PUSH2 0x3CC4 JUMPI POP PUSH1 0x1 PUSH1 0x3 PUSH1 0x0 DUP5 PUSH20 0xFFFFFFFFFFFFFFFFFFFFFFFFFFFFFFFFFFFFFFFF AND PUSH20 0xFFFFFFFFFFFFFFFFFFFFFFFFFFFFFFFFFFFFFFFF AND DUP2 MSTORE PUSH1 0x20 ADD SWAP1 DUP2 MSTORE PUSH1 0x20 ADD PUSH1 0x0 KECCAK256 PUSH1 0x1 ADD SLOAD GT JUMPDEST ISZERO PUSH2 0x3E84 JUMPI DUP4 PUSH1 0x3 PUSH1 0x0 DUP5 PUSH20 0xFFFFFFFFFFFFFFFFFFFFFFFFFFFFFFFFFFFFFFFF AND PUSH20 0xFFFFFFFFFFFFFFFFFFFFFFFFFFFFFFFFFFFFFFFF AND DUP2 MSTORE PUSH1 0x20 ADD SWAP1 DUP2 MSTORE PUSH1 0x20 ADD PUSH1 0x0 KECCAK256 PUSH1 0x2 ADD DUP6 DUP2 SLOAD DUP2 LT PUSH2 0x3D1E JUMPI PUSH2 0x3D1D PUSH2 0x53DE JUMP JUMPDEST JUMPDEST SWAP1 PUSH1 0x0 MSTORE PUSH1 0x20 PUSH1 0x0 KECCAK256 SWAP1 PUSH1 0x2 MUL ADD PUSH1 0x0 ADD DUP2 SWAP1 SSTORE POP PUSH1 0x0 PUSH1 0x3 PUSH1 0x0 DUP5 PUSH20 0xFFFFFFFFFFFFFFFFFFFFFFFFFFFFFFFFFFFFFFFF AND PUSH20 0xFFFFFFFFFFFFFFFFFFFFFFFFFFFFFFFFFFFFFFFF AND DUP2 MSTORE PUSH1 0x20 ADD SWAP1 DUP2 MSTORE PUSH1 0x20 ADD PUSH1 0x0 KECCAK256 PUSH1 0x2 ADD DUP6 DUP2 SLOAD DUP2 LT PUSH2 0x3D89 JUMPI PUSH2 0x3D88 PUSH2 0x53DE JUMP JUMPDEST JUMPDEST SWAP1 PUSH1 0x0 MSTORE PUSH1 0x20 PUSH1 0x0 KECCAK256 SWAP1 PUSH1 0x2 MUL ADD PUSH1 0x1 ADD PUSH1 0x0 SWAP1 SLOAD SWAP1 PUSH2 0x100 EXP SWAP1 DIV PUSH20 0xFFFFFFFFFFFFFFFFFFFFFFFFFFFFFFFFFFFFFFFF AND SWAP1 POP PUSH1 0x0 PUSH1 0x4 PUSH1 0x0 DUP4 PUSH20 0xFFFFFFFFFFFFFFFFFFFFFFFFFFFFFFFFFFFFFFFF AND PUSH20 0xFFFFFFFFFFFFFFFFFFFFFFFFFFFFFFFFFFFFFFFF AND DUP2 MSTORE PUSH1 0x20 ADD SWAP1 DUP2 MSTORE PUSH1 0x20 ADD PUSH1 0x0 KECCAK256 PUSH1 0x0 ADD DUP1 SLOAD SWAP1 POP GT ISZERO PUSH2 0x3E82 JUMPI PUSH2 0x3E15 DUP2 DUP5 PUSH2 0x44E3 JUMP JUMPDEST SWAP2 POP DUP5 PUSH1 0x4 PUSH1 0x0 DUP4 PUSH20 0xFFFFFFFFFFFFFFFFFFFFFFFFFFFFFFFFFFFFFFFF AND PUSH20 0xFFFFFFFFFFFFFFFFFFFFFFFFFFFFFFFFFFFFFFFF AND DUP2 MSTORE PUSH1 0x20 ADD SWAP1 DUP2 MSTORE PUSH1 0x20 ADD PUSH1 0x0 KECCAK256 PUSH1 0x0 ADD DUP4 DUP2 SLOAD DUP2 LT PUSH2 0x3E6C JUMPI PUSH2 0x3E6B PUSH2 0x53DE JUMP JUMPDEST JUMPDEST SWAP1 PUSH1 0x0 MSTORE PUSH1 0x20 PUSH1 0x0 KECCAK256 SWAP1 PUSH1 0x2 MUL ADD PUSH1 0x0 ADD DUP2 SWAP1 SSTORE POP JUMPDEST POP JUMPDEST PUSH1 0x3 PUSH1 0x0 DUP4 PUSH20 0xFFFFFFFFFFFFFFFFFFFFFFFFFFFFFFFFFFFFFFFF AND PUSH20 0xFFFFFFFFFFFFFFFFFFFFFFFFFFFFFFFFFFFFFFFF AND DUP2 MSTORE PUSH1 0x20 ADD SWAP1 DUP2 MSTORE PUSH1 0x20 ADD PUSH1 0x0 KECCAK256 PUSH1 0x1 ADD PUSH1 0x0 DUP2 SLOAD DUP1 SWAP3 SWAP2 SWAP1 PUSH2 0x3ED7 SWAP1 PUSH2 0x5EBE JUMP JUMPDEST SWAP2 SWAP1 POP SSTORE POP PUSH32 0x5BC31E521401C7E4FBE27CC8E953DDCD66CE6CC84D810D1850450E7964029D95 DUP5 DUP4 PUSH1 0x40 MLOAD PUSH2 0x3F0D SWAP3 SWAP2 SWAP1 PUSH2 0x5EE7 JUMP JUMPDEST PUSH1 0x40 MLOAD DUP1 SWAP2 SUB SWAP1 LOG1 POP POP POP POP JUMP JUMPDEST PUSH1 0x0 DUP8 MLOAD GT PUSH2 0x3F29 JUMPI PUSH1 0x0 DUP1 REVERT JUMPDEST PUSH1 0x0 DUP7 MLOAD GT PUSH2 0x3F37 JUMPI PUSH1 0x0 DUP1 REVERT JUMPDEST PUSH1 0x0 DUP5 MLOAD GT PUSH2 0x3F45 JUMPI PUSH1 0x0 DUP1 REVERT JUMPDEST PUSH1 0x0 DUP6 MLOAD GT PUSH2 0x3F53 JUMPI PUSH1 0x0 DUP1 REVERT JUMPDEST DUP8 PUSH1 0x1 PUSH1 0x0 DUP11 PUSH20 0xFFFFFFFFFFFFFFFFFFFFFFFFFFFFFFFFFFFFFFFF AND PUSH20 0xFFFFFFFFFFFFFFFFFFFFFFFFFFFFFFFFFFFFFFFF AND DUP2 MSTORE PUSH1 0x20 ADD SWAP1 DUP2 MSTORE PUSH1 0x20 ADD PUSH1 0x0 KECCAK256 PUSH1 0x0 ADD PUSH1 0x0 PUSH2 0x100 EXP DUP2 SLOAD DUP2 PUSH20 0xFFFFFFFFFFFFFFFFFFFFFFFFFFFFFFFFFFFFFFFF MUL NOT AND SWAP1 DUP4 PUSH20 0xFFFFFFFFFFFFFFFFFFFFFFFFFFFFFFFFFFFFFFFF AND MUL OR SWAP1 SSTORE POP DUP7 PUSH1 0x1 PUSH1 0x0 DUP11 PUSH20 0xFFFFFFFFFFFFFFFFFFFFFFFFFFFFFFFFFFFFFFFF AND PUSH20 0xFFFFFFFFFFFFFFFFFFFFFFFFFFFFFFFFFFFFFFFF AND DUP2 MSTORE PUSH1 0x20 ADD SWAP1 DUP2 MSTORE PUSH1 0x20 ADD PUSH1 0x0 KECCAK256 PUSH1 0x1 ADD SWAP1 DUP2 PUSH2 0x4023 SWAP2 SWAP1 PUSH2 0x5A5A JUMP JUMPDEST POP DUP6 PUSH1 0x1 PUSH1 0x0 DUP11 PUSH20 0xFFFFFFFFFFFFFFFFFFFFFFFFFFFFFFFFFFFFFFFF AND PUSH20 0xFFFFFFFFFFFFFFFFFFFFFFFFFFFFFFFFFFFFFFFF AND DUP2 MSTORE PUSH1 0x20 ADD SWAP1 DUP2 MSTORE PUSH1 0x20 ADD PUSH1 0x0 KECCAK256 PUSH1 0x2 ADD SWAP1 DUP2 PUSH2 0x4073 SWAP2 SWAP1 PUSH2 0x5A5A JUMP JUMPDEST POP DUP5 PUSH1 0x1 PUSH1 0x0 DUP11 PUSH20 0xFFFFFFFFFFFFFFFFFFFFFFFFFFFFFFFFFFFFFFFF AND PUSH20 0xFFFFFFFFFFFFFFFFFFFFFFFFFFFFFFFFFFFFFFFF AND DUP2 MSTORE PUSH1 0x20 ADD SWAP1 DUP2 MSTORE PUSH1 0x20 ADD PUSH1 0x0 KECCAK256 PUSH1 0x3 ADD SWAP1 DUP2 PUSH2 0x40C3 SWAP2 SWAP1 PUSH2 0x5A5A JUMP JUMPDEST POP DUP4 PUSH1 0x1 PUSH1 0x0 DUP11 PUSH20 0xFFFFFFFFFFFFFFFFFFFFFFFFFFFFFFFFFFFFFFFF AND PUSH20 0xFFFFFFFFFFFFFFFFFFFFFFFFFFFFFFFFFFFFFFFF AND DUP2 MSTORE PUSH1 0x20 ADD SWAP1 DUP2 MSTORE PUSH1 0x20 ADD PUSH1 0x0 KECCAK256 PUSH1 0x4 ADD SWAP1 DUP2 PUSH2 0x4113 SWAP2 SWAP1 PUSH2 0x5A5A JUMP JUMPDEST POP DUP3 PUSH1 0x1 PUSH1 0x0 DUP11 PUSH20 0xFFFFFFFFFFFFFFFFFFFFFFFFFFFFFFFFFFFFFFFF AND PUSH20 0xFFFFFFFFFFFFFFFFFFFFFFFFFFFFFFFFFFFFFFFF AND DUP2 MSTORE PUSH1 0x20 ADD SWAP1 DUP2 MSTORE PUSH1 0x20 ADD PUSH1 0x0 KECCAK256 PUSH1 0x8 ADD PUSH1 0x0 PUSH2 0x100 EXP DUP2 SLOAD DUP2 PUSH1 0xFF MUL NOT AND SWAP1 DUP4 ISZERO ISZERO MUL OR SWAP1 SSTORE POP DUP2 PUSH1 0x1 PUSH1 0x0 DUP11 PUSH20 0xFFFFFFFFFFFFFFFFFFFFFFFFFFFFFFFFFFFFFFFF AND PUSH20 0xFFFFFFFFFFFFFFFFFFFFFFFFFFFFFFFFFFFFFFFF AND DUP2 MSTORE PUSH1 0x20 ADD SWAP1 DUP2 MSTORE PUSH1 0x20 ADD PUSH1 0x0 KECCAK256 PUSH1 0x5 ADD DUP2 SWAP1 SSTORE POP DUP1 PUSH1 0x1 PUSH1 0x0 DUP11 PUSH20 0xFFFFFFFFFFFFFFFFFFFFFFFFFFFFFFFFFFFFFFFF AND PUSH20 0xFFFFFFFFFFFFFFFFFFFFFFFFFFFFFFFFFFFFFFFF AND DUP2 MSTORE PUSH1 0x20 ADD SWAP1 DUP2 MSTORE PUSH1 0x20 ADD PUSH1 0x0 KECCAK256 PUSH1 0x6 ADD DUP2 SWAP1 SSTORE POP DUP8 PUSH1 0x4 PUSH1 0x0 DUP11 PUSH20 0xFFFFFFFFFFFFFFFFFFFFFFFFFFFFFFFFFFFFFFFF AND PUSH20 0xFFFFFFFFFFFFFFFFFFFFFFFFFFFFFFFFFFFFFFFF AND DUP2 MSTORE PUSH1 0x20 ADD SWAP1 DUP2 MSTORE PUSH1 0x20 ADD PUSH1 0x0 KECCAK256 PUSH1 0x1 ADD PUSH1 0x0 PUSH2 0x100 EXP DUP2 SLOAD DUP2 PUSH20 0xFFFFFFFFFFFFFFFFFFFFFFFFFFFFFFFFFFFFFFFF MUL NOT AND SWAP1 DUP4 PUSH20 0xFFFFFFFFFFFFFFFFFFFFFFFFFFFFFFFFFFFFFFFF AND MUL OR SWAP1 SSTORE POP POP POP POP POP POP POP POP POP JUMP JUMPDEST PUSH1 0x0 DUP1 PUSH1 0x0 SWAP1 POP JUMPDEST PUSH1 0x3 PUSH1 0x0 CALLER PUSH20 0xFFFFFFFFFFFFFFFFFFFFFFFFFFFFFFFFFFFFFFFF AND PUSH20 0xFFFFFFFFFFFFFFFFFFFFFFFFFFFFFFFFFFFFFFFF AND DUP2 MSTORE PUSH1 0x20 ADD SWAP1 DUP2 MSTORE PUSH1 0x20 ADD PUSH1 0x0 KECCAK256 PUSH1 0x1 ADD SLOAD DUP2 LT ISZERO PUSH2 0x43AE JUMPI DUP3 PUSH20 0xFFFFFFFFFFFFFFFFFFFFFFFFFFFFFFFFFFFFFFFF AND PUSH1 0x3 PUSH1 0x0 CALLER PUSH20 0xFFFFFFFFFFFFFFFFFFFFFFFFFFFFFFFFFFFFFFFF AND PUSH20 0xFFFFFFFFFFFFFFFFFFFFFFFFFFFFFFFFFFFFFFFF AND DUP2 MSTORE PUSH1 0x20 ADD SWAP1 DUP2 MSTORE PUSH1 0x20 ADD PUSH1 0x0 KECCAK256 PUSH1 0x2 ADD DUP3 DUP2 SLOAD DUP2 LT PUSH2 0x4344 JUMPI PUSH2 0x4343 PUSH2 0x53DE JUMP JUMPDEST JUMPDEST SWAP1 PUSH1 0x0 MSTORE PUSH1 0x20 PUSH1 0x0 KECCAK256 SWAP1 PUSH1 0x2 MUL ADD PUSH1 0x1 ADD PUSH1 0x0 SWAP1 SLOAD SWAP1 PUSH2 0x100 EXP SWAP1 DIV PUSH20 0xFFFFFFFFFFFFFFFFFFFFFFFFFFFFFFFFFFFFFFFF AND PUSH20 0xFFFFFFFFFFFFFFFFFFFFFFFFFFFFFFFFFFFFFFFF AND SUB PUSH2 0x439B JUMPI PUSH1 0x1 SWAP2 POP POP PUSH2 0x43B4 JUMP JUMPDEST DUP1 DUP1 PUSH2 0x43A6 SWAP1 PUSH2 0x5D3B JUMP JUMPDEST SWAP2 POP POP PUSH2 0x428F JUMP JUMPDEST PUSH1 0x0 SWAP2 POP POP JUMPDEST SWAP2 SWAP1 POP JUMP JUMPDEST PUSH1 0x0 DUP1 PUSH1 0x0 SWAP1 POP JUMPDEST PUSH1 0x1 PUSH1 0x0 DUP6 PUSH20 0xFFFFFFFFFFFFFFFFFFFFFFFFFFFFFFFFFFFFFFFF AND PUSH20 0xFFFFFFFFFFFFFFFFFFFFFFFFFFFFFFFFFFFFFFFF AND DUP2 MSTORE PUSH1 0x20 ADD SWAP1 DUP2 MSTORE PUSH1 0x20 ADD PUSH1 0x0 KECCAK256 PUSH1 0x7 ADD DUP1 SLOAD SWAP1 POP DUP2 LT ISZERO PUSH2 0x44DB JUMPI DUP3 PUSH20 0xFFFFFFFFFFFFFFFFFFFFFFFFFFFFFFFFFFFFFFFF AND PUSH1 0x1 PUSH1 0x0 DUP7 PUSH20 0xFFFFFFFFFFFFFFFFFFFFFFFFFFFFFFFFFFFFFFFF AND PUSH20 0xFFFFFFFFFFFFFFFFFFFFFFFFFFFFFFFFFFFFFFFF AND DUP2 MSTORE PUSH1 0x20 ADD SWAP1 DUP2 MSTORE PUSH1 0x20 ADD PUSH1 0x0 KECCAK256 PUSH1 0x7 ADD DUP3 DUP2 SLOAD DUP2 LT PUSH2 0x4479 JUMPI PUSH2 0x4478 PUSH2 0x53DE JUMP JUMPDEST JUMPDEST SWAP1 PUSH1 0x0 MSTORE PUSH1 0x20 PUSH1 0x0 KECCAK256 ADD PUSH1 0x0 SWAP1 SLOAD SWAP1 PUSH2 0x100 EXP SWAP1 DIV PUSH20 0xFFFFFFFFFFFFFFFFFFFFFFFFFFFFFFFFFFFFFFFF AND PUSH20 0xFFFFFFFFFFFFFFFFFFFFFFFFFFFFFFFFFFFFFFFF AND SUB PUSH2 0x44C8 JUMPI DUP1 SWAP2 POP POP PUSH2 0x44DD JUMP JUMPDEST DUP1 DUP1 PUSH2 0x44D3 SWAP1 PUSH2 0x5D3B JUMP JUMPDEST SWAP2 POP POP PUSH2 0x43C1 JUMP JUMPDEST POP JUMPDEST SWAP3 SWAP2 POP POP JUMP JUMPDEST PUSH1 0x0 DUP1 PUSH1 0x0 SWAP1 POP JUMPDEST PUSH1 0x4 PUSH1 0x0 DUP6 PUSH20 0xFFFFFFFFFFFFFFFFFFFFFFFFFFFFFFFFFFFFFFFF AND PUSH20 0xFFFFFFFFFFFFFFFFFFFFFFFFFFFFFFFFFFFFFFFF AND DUP2 MSTORE PUSH1 0x20 ADD SWAP1 DUP2 MSTORE PUSH1 0x20 ADD PUSH1 0x0 KECCAK256 PUSH1 0x0 ADD DUP1 SLOAD SWAP1 POP DUP2 LT ISZERO PUSH2 0x460C JUMPI DUP3 PUSH20 0xFFFFFFFFFFFFFFFFFFFFFFFFFFFFFFFFFFFFFFFF AND PUSH1 0x4 PUSH1 0x0 DUP7 PUSH20 0xFFFFFFFFFFFFFFFFFFFFFFFFFFFFFFFFFFFFFFFF AND PUSH20 0xFFFFFFFFFFFFFFFFFFFFFFFFFFFFFFFFFFFFFFFF AND DUP2 MSTORE PUSH1 0x20 ADD SWAP1 DUP2 MSTORE PUSH1 0x20 ADD PUSH1 0x0 KECCAK256 PUSH1 0x0 ADD DUP3 DUP2 SLOAD DUP2 LT PUSH2 0x45A3 JUMPI PUSH2 0x45A2 PUSH2 0x53DE JUMP JUMPDEST JUMPDEST SWAP1 PUSH1 0x0 MSTORE PUSH1 0x20 PUSH1 0x0 KECCAK256 SWAP1 PUSH1 0x2 MUL ADD PUSH1 0x1 ADD PUSH1 0x0 SWAP1 SLOAD SWAP1 PUSH2 0x100 EXP SWAP1 DIV PUSH20 0xFFFFFFFFFFFFFFFFFFFFFFFFFFFFFFFFFFFFFFFF AND PUSH20 0xFFFFFFFFFFFFFFFFFFFFFFFFFFFFFFFFFFFFFFFF AND SUB PUSH2 0x45F9 JUMPI DUP1 SWAP2 POP POP PUSH2 0x460E JUMP JUMPDEST DUP1 DUP1 PUSH2 0x4604 SWAP1 PUSH2 0x5D3B JUMP JUMPDEST SWAP2 POP POP PUSH2 0x44EB JUMP JUMPDEST POP JUMPDEST SWAP3 SWAP2 POP POP JUMP JUMPDEST PUSH1 0x40 MLOAD DUP1 PUSH1 0x40 ADD PUSH1 0x40 MSTORE DUP1 PUSH1 0x60 DUP2 MSTORE PUSH1 0x20 ADD PUSH1 0x0 PUSH20 0xFFFFFFFFFFFFFFFFFFFFFFFFFFFFFFFFFFFFFFFF AND DUP2 MSTORE POP SWAP1 JUMP JUMPDEST POP DUP1 SLOAD PUSH2 0x4650 SWAP1 PUSH2 0x5514 JUMP JUMPDEST PUSH1 0x0 DUP3 SSTORE DUP1 PUSH1 0x1F LT PUSH2 0x4662 JUMPI POP PUSH2 0x4681 JUMP JUMPDEST PUSH1 0x1F ADD PUSH1 0x20 SWAP1 DIV SWAP1 PUSH1 0x0 MSTORE PUSH1 0x20 PUSH1 0x0 KECCAK256 SWAP1 DUP2 ADD SWAP1 PUSH2 0x4680 SWAP2 SWAP1 PUSH2 0x4718 JUMP JUMPDEST JUMPDEST POP JUMP JUMPDEST PUSH1 0x40 MLOAD DUP1 PUSH1 0x40 ADD PUSH1 0x40 MSTORE DUP1 PUSH1 0x0 DUP2 MSTORE PUSH1 0x20 ADD PUSH1 0x0 PUSH20 0xFFFFFFFFFFFFFFFFFFFFFFFFFFFFFFFFFFFFFFFF AND DUP2 MSTORE POP SWAP1 JUMP JUMPDEST PUSH1 0x40 MLOAD DUP1 PUSH2 0x120 ADD PUSH1 0x40 MSTORE DUP1 PUSH1 0x0 PUSH20 0xFFFFFFFFFFFFFFFFFFFFFFFFFFFFFFFFFFFFFFFF AND DUP2 MSTORE PUSH1 0x20 ADD PUSH1 0x60 DUP2 MSTORE PUSH1 0x20 ADD PUSH1 0x60 DUP2 MSTORE PUSH1 0x20 ADD PUSH1 0x60 DUP2 MSTORE PUSH1 0x20 ADD PUSH1 0x60 DUP2 MSTORE PUSH1 0x20 ADD PUSH1 0x0 DUP2 MSTORE PUSH1 0x20 ADD PUSH1 0x0 DUP2 MSTORE PUSH1 0x20 ADD PUSH1 0x60 DUP2 MSTORE PUSH1 0x20 ADD PUSH1 0x0 ISZERO ISZERO DUP2 MSTORE POP SWAP1 JUMP JUMPDEST JUMPDEST DUP1 DUP3 GT ISZERO PUSH2 0x4731 JUMPI PUSH1 0x0 DUP2 PUSH1 0x0 SWAP1 SSTORE POP PUSH1 0x1 ADD PUSH2 0x4719 JUMP JUMPDEST POP SWAP1 JUMP JUMPDEST PUSH1 0x0 PUSH1 0x40 MLOAD SWAP1 POP SWAP1 JUMP JUMPDEST PUSH1 0x0 DUP1 REVERT JUMPDEST PUSH1 0x0 DUP1 REVERT JUMPDEST PUSH1 0x0 PUSH20 0xFFFFFFFFFFFFFFFFFFFFFFFFFFFFFFFFFFFFFFFF DUP3 AND SWAP1 POP SWAP2 SWAP1 POP JUMP JUMPDEST PUSH1 0x0 PUSH2 0x4774 DUP3 PUSH2 0x4749 JUMP JUMPDEST SWAP1 POP SWAP2 SWAP1 POP JUMP JUMPDEST PUSH2 0x4784 DUP2 PUSH2 0x4769 JUMP JUMPDEST DUP2 EQ PUSH2 0x478F JUMPI PUSH1 0x0 DUP1 REVERT JUMPDEST POP JUMP JUMPDEST PUSH1 0x0 DUP2 CALLDATALOAD SWAP1 POP PUSH2 0x47A1 DUP2 PUSH2 0x477B JUMP JUMPDEST SWAP3 SWAP2 POP POP JUMP JUMPDEST PUSH1 0x0 PUSH1 0x20 DUP3 DUP5 SUB SLT ISZERO PUSH2 0x47BD JUMPI PUSH2 0x47BC PUSH2 0x473F JUMP JUMPDEST JUMPDEST PUSH1 0x0 PUSH2 0x47CB DUP5 DUP3 DUP6 ADD PUSH2 0x4792 JUMP JUMPDEST SWAP2 POP POP SWAP3 SWAP2 POP POP JUMP JUMPDEST PUSH1 0x0 DUP2 ISZERO ISZERO SWAP1 POP SWAP2 SWAP1 POP JUMP JUMPDEST PUSH2 0x47E9 DUP2 PUSH2 0x47D4 JUMP JUMPDEST DUP3 MSTORE POP POP JUMP JUMPDEST PUSH1 0x0 PUSH1 0x20 DUP3 ADD SWAP1 POP PUSH2 0x4804 PUSH1 0x0 DUP4 ADD DUP5 PUSH2 0x47E0 JUMP JUMPDEST SWAP3 SWAP2 POP POP JUMP JUMPDEST PUSH1 0x0 DUP2 SWAP1 POP SWAP2 SWAP1 POP JUMP JUMPDEST PUSH2 0x481D DUP2 PUSH2 0x480A JUMP JUMPDEST DUP2 EQ PUSH2 0x4828 JUMPI PUSH1 0x0 DUP1 REVERT JUMPDEST POP JUMP JUMPDEST PUSH1 0x0 DUP2 CALLDATALOAD SWAP1 POP PUSH2 0x483A DUP2 PUSH2 0x4814 JUMP JUMPDEST SWAP3 SWAP2 POP POP JUMP JUMPDEST PUSH2 0x4849 DUP2 PUSH2 0x47D4 JUMP JUMPDEST DUP2 EQ PUSH2 0x4854 JUMPI PUSH1 0x0 DUP1 REVERT JUMPDEST POP JUMP JUMPDEST PUSH1 0x0 DUP2 CALLDATALOAD SWAP1 POP PUSH2 0x4866 DUP2 PUSH2 0x4840 JUMP JUMPDEST SWAP3 SWAP2 POP POP JUMP JUMPDEST PUSH1 0x0 DUP1 PUSH1 0x0 PUSH1 0x60 DUP5 DUP7 SUB SLT ISZERO PUSH2 0x4885 JUMPI PUSH2 0x4884 PUSH2 0x473F JUMP JUMPDEST JUMPDEST PUSH1 0x0 PUSH2 0x4893 DUP7 DUP3 DUP8 ADD PUSH2 0x482B JUMP JUMPDEST SWAP4 POP POP PUSH1 0x20 PUSH2 0x48A4 DUP7 DUP3 DUP8 ADD PUSH2 0x4792 JUMP JUMPDEST SWAP3 POP POP PUSH1 0x40 PUSH2 0x48B5 DUP7 DUP3 DUP8 ADD PUSH2 0x4857 JUMP JUMPDEST SWAP2 POP POP SWAP3 POP SWAP3 POP SWAP3 JUMP JUMPDEST PUSH1 0x0 DUP2 MLOAD SWAP1 POP SWAP2 SWAP1 POP JUMP JUMPDEST PUSH1 0x0 DUP3 DUP3 MSTORE PUSH1 0x20 DUP3 ADD SWAP1 POP SWAP3 SWAP2 POP POP JUMP JUMPDEST PUSH1 0x0 JUMPDEST DUP4 DUP2 LT ISZERO PUSH2 0x48F9 JUMPI DUP1 DUP3 ADD MLOAD DUP2 DUP5 ADD MSTORE PUSH1 0x20 DUP2 ADD SWAP1 POP PUSH2 0x48DE JUMP JUMPDEST PUSH1 0x0 DUP5 DUP5 ADD MSTORE POP POP POP POP JUMP JUMPDEST PUSH1 0x0 PUSH1 0x1F NOT PUSH1 0x1F DUP4 ADD AND SWAP1 POP SWAP2 SWAP1 POP JUMP JUMPDEST PUSH1 0x0 PUSH2 0x4921 DUP3 PUSH2 0x48BF JUMP JUMPDEST PUSH2 0x492B DUP2 DUP6 PUSH2 0x48CA JUMP JUMPDEST SWAP4 POP PUSH2 0x493B DUP2 DUP6 PUSH1 0x20 DUP7 ADD PUSH2 0x48DB JUMP JUMPDEST PUSH2 0x4944 DUP2 PUSH2 0x4905 JUMP JUMPDEST DUP5 ADD SWAP2 POP POP SWAP3 SWAP2 POP POP JUMP JUMPDEST PUSH2 0x4958 DUP2 PUSH2 0x4769 JUMP JUMPDEST DUP3 MSTORE POP POP JUMP JUMPDEST PUSH1 0x0 PUSH1 0x40 DUP4 ADD PUSH1 0x0 DUP4 ADD MLOAD DUP5 DUP3 SUB PUSH1 0x0 DUP7 ADD MSTORE PUSH2 0x497B DUP3 DUP3 PUSH2 0x4916 JUMP JUMPDEST SWAP2 POP POP PUSH1 0x20 DUP4 ADD MLOAD PUSH2 0x4990 PUSH1 0x20 DUP7 ADD DUP3 PUSH2 0x494F JUMP JUMPDEST POP DUP1 SWAP2 POP POP SWAP3 SWAP2 POP POP JUMP JUMPDEST PUSH1 0x0 PUSH1 0x20 DUP3 ADD SWAP1 POP DUP2 DUP2 SUB PUSH1 0x0 DUP4 ADD MSTORE PUSH2 0x49B5 DUP2 DUP5 PUSH2 0x495E JUMP JUMPDEST SWAP1 POP SWAP3 SWAP2 POP POP JUMP JUMPDEST PUSH1 0x0 DUP2 MLOAD SWAP1 POP SWAP2 SWAP1 POP JUMP JUMPDEST PUSH1 0x0 DUP3 DUP3 MSTORE PUSH1 0x20 DUP3 ADD SWAP1 POP SWAP3 SWAP2 POP POP JUMP JUMPDEST PUSH1 0x0 DUP2 SWAP1 POP PUSH1 0x20 DUP3 ADD SWAP1 POP SWAP2 SWAP1 POP JUMP JUMPDEST PUSH1 0x0 PUSH2 0x49F5 DUP4 DUP4 PUSH2 0x494F JUMP JUMPDEST PUSH1 0x20 DUP4 ADD SWAP1 POP SWAP3 SWAP2 POP POP JUMP JUMPDEST PUSH1 0x0 PUSH1 0x20 DUP3 ADD SWAP1 POP SWAP2 SWAP1 POP JUMP JUMPDEST PUSH1 0x0 PUSH2 0x4A19 DUP3 PUSH2 0x49BD JUMP JUMPDEST PUSH2 0x4A23 DUP2 DUP6 PUSH2 0x49C8 JUMP JUMPDEST SWAP4 POP PUSH2 0x4A2E DUP4 PUSH2 0x49D9 JUMP JUMPDEST DUP1 PUSH1 0x0 JUMPDEST DUP4 DUP2 LT ISZERO PUSH2 0x4A5F JUMPI DUP2 MLOAD PUSH2 0x4A46 DUP9 DUP3 PUSH2 0x49E9 JUMP JUMPDEST SWAP8 POP PUSH2 0x4A51 DUP4 PUSH2 0x4A01 JUMP JUMPDEST SWAP3 POP POP PUSH1 0x1 DUP2 ADD SWAP1 POP PUSH2 0x4A32 JUMP JUMPDEST POP DUP6 SWAP4 POP POP POP POP SWAP3 SWAP2 POP POP JUMP JUMPDEST PUSH1 0x0 PUSH1 0x20 DUP3 ADD SWAP1 POP DUP2 DUP2 SUB PUSH1 0x0 DUP4 ADD MSTORE PUSH2 0x4A86 DUP2 DUP5 PUSH2 0x4A0E JUMP JUMPDEST SWAP1 POP SWAP3 SWAP2 POP POP JUMP JUMPDEST PUSH1 0x0 PUSH1 0x20 DUP3 DUP5 SUB SLT ISZERO PUSH2 0x4AA4 JUMPI PUSH2 0x4AA3 PUSH2 0x473F JUMP JUMPDEST JUMPDEST PUSH1 0x0 PUSH2 0x4AB2 DUP5 DUP3 DUP6 ADD PUSH2 0x482B JUMP JUMPDEST SWAP2 POP POP SWAP3 SWAP2 POP POP JUMP JUMPDEST PUSH1 0x0 DUP1 PUSH1 0x40 DUP4 DUP6 SUB SLT ISZERO PUSH2 0x4AD2 JUMPI PUSH2 0x4AD1 PUSH2 0x473F JUMP JUMPDEST JUMPDEST PUSH1 0x0 PUSH2 0x4AE0 DUP6 DUP3 DUP7 ADD PUSH2 0x482B JUMP JUMPDEST SWAP3 POP POP PUSH1 0x20 PUSH2 0x4AF1 DUP6 DUP3 DUP7 ADD PUSH2 0x4792 JUMP JUMPDEST SWAP2 POP POP SWAP3 POP SWAP3 SWAP1 POP JUMP JUMPDEST PUSH1 0x0 DUP1 REVERT JUMPDEST PUSH1 0x0 DUP1 REVERT JUMPDEST PUSH32 0x4E487B7100000000000000000000000000000000000000000000000000000000 PUSH1 0x0 MSTORE PUSH1 0x41 PUSH1 0x4 MSTORE PUSH1 0x24 PUSH1 0x0 REVERT JUMPDEST PUSH2 0x4B3D DUP3 PUSH2 0x4905 JUMP JUMPDEST DUP2 ADD DUP2 DUP2 LT PUSH8 0xFFFFFFFFFFFFFFFF DUP3 GT OR ISZERO PUSH2 0x4B5C JUMPI PUSH2 0x4B5B PUSH2 0x4B05 JUMP JUMPDEST JUMPDEST DUP1 PUSH1 0x40 MSTORE POP POP POP JUMP JUMPDEST PUSH1 0x0 PUSH2 0x4B6F PUSH2 0x4735 JUMP JUMPDEST SWAP1 POP PUSH2 0x4B7B DUP3 DUP3 PUSH2 0x4B34 JUMP JUMPDEST SWAP2 SWAP1 POP JUMP JUMPDEST PUSH1 0x0 PUSH8 0xFFFFFFFFFFFFFFFF DUP3 GT ISZERO PUSH2 0x4B9B JUMPI PUSH2 0x4B9A PUSH2 0x4B05 JUMP JUMPDEST JUMPDEST PUSH2 0x4BA4 DUP3 PUSH2 0x4905 JUMP JUMPDEST SWAP1 POP PUSH1 0x20 DUP2 ADD SWAP1 POP SWAP2 SWAP1 POP JUMP JUMPDEST DUP3 DUP2 DUP4 CALLDATACOPY PUSH1 0x0 DUP4 DUP4 ADD MSTORE POP POP POP JUMP JUMPDEST PUSH1 0x0 PUSH2 0x4BD3 PUSH2 0x4BCE DUP5 PUSH2 0x4B80 JUMP JUMPDEST PUSH2 0x4B65 JUMP JUMPDEST SWAP1 POP DUP3 DUP2 MSTORE PUSH1 0x20 DUP2 ADD DUP5 DUP5 DUP5 ADD GT ISZERO PUSH2 0x4BEF JUMPI PUSH2 0x4BEE PUSH2 0x4B00 JUMP JUMPDEST JUMPDEST PUSH2 0x4BFA DUP5 DUP3 DUP6 PUSH2 0x4BB1 JUMP JUMPDEST POP SWAP4 SWAP3 POP POP POP JUMP JUMPDEST PUSH1 0x0 DUP3 PUSH1 0x1F DUP4 ADD SLT PUSH2 0x4C17 JUMPI PUSH2 0x4C16 PUSH2 0x4AFB JUMP JUMPDEST JUMPDEST DUP2 CALLDATALOAD PUSH2 0x4C27 DUP5 DUP3 PUSH1 0x20 DUP7 ADD PUSH2 0x4BC0 JUMP JUMPDEST SWAP2 POP POP SWAP3 SWAP2 POP POP JUMP JUMPDEST PUSH1 0x0 DUP1 PUSH1 0x0 DUP1 PUSH1 0x0 DUP1 PUSH1 0x0 DUP1 PUSH2 0x100 DUP10 DUP12 SUB SLT ISZERO PUSH2 0x4C51 JUMPI PUSH2 0x4C50 PUSH2 0x473F JUMP JUMPDEST JUMPDEST PUSH1 0x0 PUSH2 0x4C5F DUP12 DUP3 DUP13 ADD PUSH2 0x4792 JUMP JUMPDEST SWAP9 POP POP PUSH1 0x20 DUP10 ADD CALLDATALOAD PUSH8 0xFFFFFFFFFFFFFFFF DUP2 GT ISZERO PUSH2 0x4C80 JUMPI PUSH2 0x4C7F PUSH2 0x4744 JUMP JUMPDEST JUMPDEST PUSH2 0x4C8C DUP12 DUP3 DUP13 ADD PUSH2 0x4C02 JUMP JUMPDEST SWAP8 POP POP PUSH1 0x40 DUP10 ADD CALLDATALOAD PUSH8 0xFFFFFFFFFFFFFFFF DUP2 GT ISZERO PUSH2 0x4CAD JUMPI PUSH2 0x4CAC PUSH2 0x4744 JUMP JUMPDEST JUMPDEST PUSH2 0x4CB9 DUP12 DUP3 DUP13 ADD PUSH2 0x4C02 JUMP JUMPDEST SWAP7 POP POP PUSH1 0x60 DUP10 ADD CALLDATALOAD PUSH8 0xFFFFFFFFFFFFFFFF DUP2 GT ISZERO PUSH2 0x4CDA JUMPI PUSH2 0x4CD9 PUSH2 0x4744 JUMP JUMPDEST JUMPDEST PUSH2 0x4CE6 DUP12 DUP3 DUP13 ADD PUSH2 0x4C02 JUMP JUMPDEST SWAP6 POP POP PUSH1 0x80 DUP10 ADD CALLDATALOAD PUSH8 0xFFFFFFFFFFFFFFFF DUP2 GT ISZERO PUSH2 0x4D07 JUMPI PUSH2 0x4D06 PUSH2 0x4744 JUMP JUMPDEST JUMPDEST PUSH2 0x4D13 DUP12 DUP3 DUP13 ADD PUSH2 0x4C02 JUMP JUMPDEST SWAP5 POP POP PUSH1 0xA0 PUSH2 0x4D24 DUP12 DUP3 DUP13 ADD PUSH2 0x4857 JUMP JUMPDEST SWAP4 POP POP PUSH1 0xC0 PUSH2 0x4D35 DUP12 DUP3 DUP13 ADD PUSH2 0x482B JUMP JUMPDEST SWAP3 POP POP PUSH1 0xE0 PUSH2 0x4D46 DUP12 DUP3 DUP13 ADD PUSH2 0x482B JUMP JUMPDEST SWAP2 POP POP SWAP3 SWAP6 SWAP9 POP SWAP3 SWAP6 SWAP9 SWAP1 SWAP4 SWAP7 POP JUMP JUMPDEST PUSH1 0x0 DUP1 PUSH1 0x40 DUP4 DUP6 SUB SLT ISZERO PUSH2 0x4D6D JUMPI PUSH2 0x4D6C PUSH2 0x473F JUMP JUMPDEST JUMPDEST PUSH1 0x0 DUP4 ADD CALLDATALOAD PUSH8 0xFFFFFFFFFFFFFFFF DUP2 GT ISZERO PUSH2 0x4D8B JUMPI PUSH2 0x4D8A PUSH2 0x4744 JUMP JUMPDEST JUMPDEST PUSH2 0x4D97 DUP6 DUP3 DUP7 ADD PUSH2 0x4C02 JUMP JUMPDEST SWAP3 POP POP PUSH1 0x20 PUSH2 0x4DA8 DUP6 DUP3 DUP7 ADD PUSH2 0x4792 JUMP JUMPDEST SWAP2 POP POP SWAP3 POP SWAP3 SWAP1 POP JUMP JUMPDEST PUSH1 0x0 DUP2 MLOAD SWAP1 POP SWAP2 SWAP1 POP JUMP JUMPDEST PUSH1 0x0 DUP3 DUP3 MSTORE PUSH1 0x20 DUP3 ADD SWAP1 POP SWAP3 SWAP2 POP POP JUMP JUMPDEST PUSH1 0x0 DUP2 SWAP1 POP PUSH1 0x20 DUP3 ADD SWAP1 POP SWAP2 SWAP1 POP JUMP JUMPDEST PUSH2 0x4DE7 DUP2 PUSH2 0x480A JUMP JUMPDEST DUP3 MSTORE POP POP JUMP JUMPDEST PUSH1 0x40 DUP3 ADD PUSH1 0x0 DUP3 ADD MLOAD PUSH2 0x4E03 PUSH1 0x0 DUP6 ADD DUP3 PUSH2 0x4DDE JUMP JUMPDEST POP PUSH1 0x20 DUP3 ADD MLOAD PUSH2 0x4E16 PUSH1 0x20 DUP6 ADD DUP3 PUSH2 0x494F JUMP JUMPDEST POP POP POP POP JUMP JUMPDEST PUSH1 0x0 PUSH2 0x4E28 DUP4 DUP4 PUSH2 0x4DED JUMP JUMPDEST PUSH1 0x40 DUP4 ADD SWAP1 POP SWAP3 SWAP2 POP POP JUMP JUMPDEST PUSH1 0x0 PUSH1 0x20 DUP3 ADD SWAP1 POP SWAP2 SWAP1 POP JUMP JUMPDEST PUSH1 0x0 PUSH2 0x4E4C DUP3 PUSH2 0x4DB2 JUMP JUMPDEST PUSH2 0x4E56 DUP2 DUP6 PUSH2 0x4DBD JUMP JUMPDEST SWAP4 POP PUSH2 0x4E61 DUP4 PUSH2 0x4DCE JUMP JUMPDEST DUP1 PUSH1 0x0 JUMPDEST DUP4 DUP2 LT ISZERO PUSH2 0x4E92 JUMPI DUP2 MLOAD PUSH2 0x4E79 DUP9 DUP3 PUSH2 0x4E1C JUMP JUMPDEST SWAP8 POP PUSH2 0x4E84 DUP4 PUSH2 0x4E34 JUMP JUMPDEST SWAP3 POP POP PUSH1 0x1 DUP2 ADD SWAP1 POP PUSH2 0x4E65 JUMP JUMPDEST POP DUP6 SWAP4 POP POP POP POP SWAP3 SWAP2 POP POP JUMP JUMPDEST PUSH1 0x0 PUSH1 0x20 DUP3 ADD SWAP1 POP DUP2 DUP2 SUB PUSH1 0x0 DUP4 ADD MSTORE PUSH2 0x4EB9 DUP2 DUP5 PUSH2 0x4E41 JUMP JUMPDEST SWAP1 POP SWAP3 SWAP2 POP POP JUMP JUMPDEST PUSH1 0x0 DUP3 DUP3 MSTORE PUSH1 0x20 DUP3 ADD SWAP1 POP SWAP3 SWAP2 POP POP JUMP JUMPDEST PUSH1 0x0 PUSH2 0x4EDD DUP3 PUSH2 0x49BD JUMP JUMPDEST PUSH2 0x4EE7 DUP2 DUP6 PUSH2 0x4EC1 JUMP JUMPDEST SWAP4 POP PUSH2 0x4EF2 DUP4 PUSH2 0x49D9 JUMP JUMPDEST DUP1 PUSH1 0x0 JUMPDEST DUP4 DUP2 LT ISZERO PUSH2 0x4F23 JUMPI DUP2 MLOAD PUSH2 0x4F0A DUP9 DUP3 PUSH2 0x49E9 JUMP JUMPDEST SWAP8 POP PUSH2 0x4F15 DUP4 PUSH2 0x4A01 JUMP JUMPDEST SWAP3 POP POP PUSH1 0x1 DUP2 ADD SWAP1 POP PUSH2 0x4EF6 JUMP JUMPDEST POP DUP6 SWAP4 POP POP POP POP SWAP3 SWAP2 POP POP JUMP JUMPDEST PUSH2 0x4F39 DUP2 PUSH2 0x47D4 JUMP JUMPDEST DUP3 MSTORE POP POP JUMP JUMPDEST PUSH1 0x0 PUSH2 0x120 DUP4 ADD PUSH1 0x0 DUP4 ADD MLOAD PUSH2 0x4F58 PUSH1 0x0 DUP7 ADD DUP3 PUSH2 0x494F JUMP JUMPDEST POP PUSH1 0x20 DUP4 ADD MLOAD DUP5 DUP3 SUB PUSH1 0x20 DUP7 ADD MSTORE PUSH2 0x4F70 DUP3 DUP3 PUSH2 0x4916 JUMP JUMPDEST SWAP2 POP POP PUSH1 0x40 DUP4 ADD MLOAD DUP5 DUP3 SUB PUSH1 0x40 DUP7 ADD MSTORE PUSH2 0x4F8A DUP3 DUP3 PUSH2 0x4916 JUMP JUMPDEST SWAP2 POP POP PUSH1 0x60 DUP4 ADD MLOAD DUP5 DUP3 SUB PUSH1 0x60 DUP7 ADD MSTORE PUSH2 0x4FA4 DUP3 DUP3 PUSH2 0x4916 JUMP JUMPDEST SWAP2 POP POP PUSH1 0x80 DUP4 ADD MLOAD DUP5 DUP3 SUB PUSH1 0x80 DUP7 ADD MSTORE PUSH2 0x4FBE DUP3 DUP3 PUSH2 0x4916 JUMP JUMPDEST SWAP2 POP POP PUSH1 0xA0 DUP4 ADD MLOAD PUSH2 0x4FD3 PUSH1 0xA0 DUP7 ADD DUP3 PUSH2 0x4DDE JUMP JUMPDEST POP PUSH1 0xC0 DUP4 ADD MLOAD PUSH2 0x4FE6 PUSH1 0xC0 DUP7 ADD DUP3 PUSH2 0x4DDE JUMP JUMPDEST POP PUSH1 0xE0 DUP4 ADD MLOAD DUP5 DUP3 SUB PUSH1 0xE0 DUP7 ADD MSTORE PUSH2 0x4FFE DUP3 DUP3 PUSH2 0x4ED2 JUMP JUMPDEST SWAP2 POP POP PUSH2 0x100 DUP4 ADD MLOAD PUSH2 0x5015 PUSH2 0x100 DUP7 ADD DUP3 PUSH2 0x4F30 JUMP JUMPDEST POP DUP1 SWAP2 POP POP SWAP3 SWAP2 POP POP JUMP JUMPDEST PUSH1 0x0 PUSH1 0x20 DUP3 ADD SWAP1 POP DUP2 DUP2 SUB PUSH1 0x0 DUP4 ADD MSTORE PUSH2 0x503A DUP2 DUP5 PUSH2 0x4F3F JUMP JUMPDEST SWAP1 POP SWAP3 SWAP2 POP POP JUMP JUMPDEST PUSH1 0x0 DUP3 DUP3 MSTORE PUSH1 0x20 DUP3 ADD SWAP1 POP SWAP3 SWAP2 POP POP JUMP JUMPDEST PUSH1 0x0 PUSH2 0x505E DUP3 PUSH2 0x48BF JUMP JUMPDEST PUSH2 0x5068 DUP2 DUP6 PUSH2 0x5042 JUMP JUMPDEST SWAP4 POP PUSH2 0x5078 DUP2 DUP6 PUSH1 0x20 DUP7 ADD PUSH2 0x48DB JUMP JUMPDEST PUSH2 0x5081 DUP2 PUSH2 0x4905 JUMP JUMPDEST DUP5 ADD SWAP2 POP POP SWAP3 SWAP2 POP POP JUMP JUMPDEST PUSH2 0x5095 DUP2 PUSH2 0x480A JUMP JUMPDEST DUP3 MSTORE POP POP JUMP JUMPDEST PUSH1 0x0 PUSH1 0xE0 DUP3 ADD SWAP1 POP PUSH2 0x50B0 PUSH1 0x0 DUP4 ADD DUP11 PUSH2 0x47E0 JUMP JUMPDEST DUP2 DUP2 SUB PUSH1 0x20 DUP4 ADD MSTORE PUSH2 0x50C2 DUP2 DUP10 PUSH2 0x5053 JUMP JUMPDEST SWAP1 POP DUP2 DUP2 SUB PUSH1 0x40 DUP4 ADD MSTORE PUSH2 0x50D6 DUP2 DUP9 PUSH2 0x5053 JUMP JUMPDEST SWAP1 POP DUP2 DUP2 SUB PUSH1 0x60 DUP4 ADD MSTORE PUSH2 0x50EA DUP2 DUP8 PUSH2 0x5053 JUMP JUMPDEST SWAP1 POP DUP2 DUP2 SUB PUSH1 0x80 DUP4 ADD MSTORE PUSH2 0x50FE DUP2 DUP7 PUSH2 0x5053 JUMP JUMPDEST SWAP1 POP PUSH2 0x510D PUSH1 0xA0 DUP4 ADD DUP6 PUSH2 0x508C JUMP JUMPDEST PUSH2 0x511A PUSH1 0xC0 DUP4 ADD DUP5 PUSH2 0x508C JUMP JUMPDEST SWAP9 SWAP8 POP POP POP POP POP POP POP POP JUMP JUMPDEST PUSH2 0x512F DUP2 PUSH2 0x4769 JUMP JUMPDEST DUP3 MSTORE POP POP JUMP JUMPDEST PUSH1 0x0 PUSH1 0x20 DUP3 ADD SWAP1 POP PUSH2 0x514A PUSH1 0x0 DUP4 ADD DUP5 PUSH2 0x5126 JUMP JUMPDEST SWAP3 SWAP2 POP POP JUMP JUMPDEST PUSH32 0x596F7520646F6E74206861766520617574686F7269747920746F207265766F6B PUSH1 0x0 DUP3 ADD MSTORE PUSH32 0x6520616363657373000000000000000000000000000000000000000000000000 PUSH1 0x20 DUP3 ADD MSTORE POP JUMP JUMPDEST PUSH1 0x0 PUSH2 0x51AC PUSH1 0x28 DUP4 PUSH2 0x5042 JUMP JUMPDEST SWAP2 POP PUSH2 0x51B7 DUP3 PUSH2 0x5150 JUMP JUMPDEST PUSH1 0x40 DUP3 ADD SWAP1 POP SWAP2 SWAP1 POP JUMP JUMPDEST PUSH1 0x0 PUSH1 0x20 DUP3 ADD SWAP1 POP DUP2 DUP2 SUB PUSH1 0x0 DUP4 ADD MSTORE PUSH2 0x51DB DUP2 PUSH2 0x519F JUMP JUMPDEST SWAP1 POP SWAP2 SWAP1 POP JUMP JUMPDEST PUSH32 0x596F7520646F6E7420686176652061636365737320746F207468697320757365 PUSH1 0x0 DUP3 ADD MSTORE PUSH32 0x7200000000000000000000000000000000000000000000000000000000000000 PUSH1 0x20 DUP3 ADD MSTORE POP JUMP JUMPDEST PUSH1 0x0 PUSH2 0x523E PUSH1 0x21 DUP4 PUSH2 0x5042 JUMP JUMPDEST SWAP2 POP PUSH2 0x5249 DUP3 PUSH2 0x51E2 JUMP JUMPDEST PUSH1 0x40 DUP3 ADD SWAP1 POP SWAP2 SWAP1 POP JUMP JUMPDEST PUSH1 0x0 PUSH1 0x20 DUP3 ADD SWAP1 POP DUP2 DUP2 SUB PUSH1 0x0 DUP4 ADD MSTORE PUSH2 0x526D DUP2 PUSH2 0x5231 JUMP JUMPDEST SWAP1 POP SWAP2 SWAP1 POP JUMP JUMPDEST PUSH32 0x4F7267206E6F7420657869737400000000000000000000000000000000000000 PUSH1 0x0 DUP3 ADD MSTORE POP JUMP JUMPDEST PUSH1 0x0 PUSH2 0x52AA PUSH1 0xD DUP4 PUSH2 0x5042 JUMP JUMPDEST SWAP2 POP PUSH2 0x52B5 DUP3 PUSH2 0x5274 JUMP JUMPDEST PUSH1 0x20 DUP3 ADD SWAP1 POP SWAP2 SWAP1 POP JUMP JUMPDEST PUSH1 0x0 PUSH1 0x20 DUP3 ADD SWAP1 POP DUP2 DUP2 SUB PUSH1 0x0 DUP4 ADD MSTORE PUSH2 0x52D9 DUP2 PUSH2 0x529D JUMP JUMPDEST SWAP1 POP SWAP2 SWAP1 POP JUMP JUMPDEST PUSH32 0x5573657220646F65736E27742065786973740000000000000000000000000000 PUSH1 0x0 DUP3 ADD MSTORE POP JUMP JUMPDEST PUSH1 0x0 PUSH2 0x5316 PUSH1 0x12 DUP4 PUSH2 0x5042 JUMP JUMPDEST SWAP2 POP PUSH2 0x5321 DUP3 PUSH2 0x52E0 JUMP JUMPDEST PUSH1 0x20 DUP3 ADD SWAP1 POP SWAP2 SWAP1 POP JUMP JUMPDEST PUSH1 0x0 PUSH1 0x20 DUP3 ADD SWAP1 POP DUP2 DUP2 SUB PUSH1 0x0 DUP4 ADD MSTORE PUSH2 0x5345 DUP2 PUSH2 0x5309 JUMP JUMPDEST SWAP1 POP SWAP2 SWAP1 POP JUMP JUMPDEST PUSH32 0x596F7520646F6E74206861766520617574686F7269747920746F206769766520 PUSH1 0x0 DUP3 ADD MSTORE PUSH32 0x6163636573730000000000000000000000000000000000000000000000000000 PUSH1 0x20 DUP3 ADD MSTORE POP JUMP JUMPDEST PUSH1 0x0 PUSH2 0x53A8 PUSH1 0x26 DUP4 PUSH2 0x5042 JUMP JUMPDEST SWAP2 POP PUSH2 0x53B3 DUP3 PUSH2 0x534C JUMP JUMPDEST PUSH1 0x40 DUP3 ADD SWAP1 POP SWAP2 SWAP1 POP JUMP JUMPDEST PUSH1 0x0 PUSH1 0x20 DUP3 ADD SWAP1 POP DUP2 DUP2 SUB PUSH1 0x0 DUP4 ADD MSTORE PUSH2 0x53D7 DUP2 PUSH2 0x539B JUMP JUMPDEST SWAP1 POP SWAP2 SWAP1 POP JUMP JUMPDEST PUSH32 0x4E487B7100000000000000000000000000000000000000000000000000000000 PUSH1 0x0 MSTORE PUSH1 0x32 PUSH1 0x4 MSTORE PUSH1 0x24 PUSH1 0x0 REVERT JUMPDEST PUSH32 0x55736572206E6F742076616C6964000000000000000000000000000000000000 PUSH1 0x0 DUP3 ADD MSTORE POP JUMP JUMPDEST PUSH1 0x0 PUSH2 0x5443 PUSH1 0xE DUP4 PUSH2 0x5042 JUMP JUMPDEST SWAP2 POP PUSH2 0x544E DUP3 PUSH2 0x540D JUMP JUMPDEST PUSH1 0x20 DUP3 ADD SWAP1 POP SWAP2 SWAP1 POP JUMP JUMPDEST PUSH1 0x0 PUSH1 0x20 DUP3 ADD SWAP1 POP DUP2 DUP2 SUB PUSH1 0x0 DUP4 ADD MSTORE PUSH2 0x5472 DUP2 PUSH2 0x5436 JUMP JUMPDEST SWAP1 POP SWAP2 SWAP1 POP JUMP JUMPDEST PUSH32 0x5265717565737473206E6F7420666F756E640000000000000000000000000000 PUSH1 0x0 DUP3 ADD MSTORE POP JUMP JUMPDEST PUSH1 0x0 PUSH2 0x54AF PUSH1 0x12 DUP4 PUSH2 0x5042 JUMP JUMPDEST SWAP2 POP PUSH2 0x54BA DUP3 PUSH2 0x5479 JUMP JUMPDEST PUSH1 0x20 DUP3 ADD SWAP1 POP SWAP2 SWAP1 POP JUMP JUMPDEST PUSH1 0x0 PUSH1 0x20 DUP3 ADD SWAP1 POP DUP2 DUP2 SUB PUSH1 0x0 DUP4 ADD MSTORE PUSH2 0x54DE DUP2 PUSH2 0x54A2 JUMP JUMPDEST SWAP1 POP SWAP2 SWAP1 POP JUMP JUMPDEST PUSH32 0x4E487B7100000000000000000000000000000000000000000000000000000000 PUSH1 0x0 MSTORE PUSH1 0x22 PUSH1 0x4 MSTORE PUSH1 0x24 PUSH1 0x0 REVERT JUMPDEST PUSH1 0x0 PUSH1 0x2 DUP3 DIV SWAP1 POP PUSH1 0x1 DUP3 AND DUP1 PUSH2 0x552C JUMPI PUSH1 0x7F DUP3 AND SWAP2 POP JUMPDEST PUSH1 0x20 DUP3 LT DUP2 SUB PUSH2 0x553F JUMPI PUSH2 0x553E PUSH2 0x54E5 JUMP JUMPDEST JUMPDEST POP SWAP2 SWAP1 POP JUMP JUMPDEST PUSH32 0x596F7520646F6E74206861766520617574686F72697479000000000000000000 PUSH1 0x0 DUP3 ADD MSTORE POP JUMP JUMPDEST PUSH1 0x0 PUSH2 0x557B PUSH1 0x17 DUP4 PUSH2 0x5042 JUMP JUMPDEST SWAP2 POP PUSH2 0x5586 DUP3 PUSH2 0x5545 JUMP JUMPDEST PUSH1 0x20 DUP3 ADD SWAP1 POP SWAP2 SWAP1 POP JUMP JUMPDEST PUSH1 0x0 PUSH1 0x20 DUP3 ADD SWAP1 POP DUP2 DUP2 SUB PUSH1 0x0 DUP4 ADD MSTORE PUSH2 0x55AA DUP2 PUSH2 0x556E JUMP JUMPDEST SWAP1 POP SWAP2 SWAP1 POP JUMP JUMPDEST PUSH32 0x596F7520646F6E74206861766520617574686F7269747920746F2064656C6574 PUSH1 0x0 DUP3 ADD MSTORE PUSH32 0x6500000000000000000000000000000000000000000000000000000000000000 PUSH1 0x20 DUP3 ADD MSTORE POP JUMP JUMPDEST PUSH1 0x0 PUSH2 0x560D PUSH1 0x21 DUP4 PUSH2 0x5042 JUMP JUMPDEST SWAP2 POP PUSH2 0x5618 DUP3 PUSH2 0x55B1 JUMP JUMPDEST PUSH1 0x40 DUP3 ADD SWAP1 POP SWAP2 SWAP1 POP JUMP JUMPDEST PUSH1 0x0 PUSH1 0x20 DUP3 ADD SWAP1 POP DUP2 DUP2 SUB PUSH1 0x0 DUP4 ADD MSTORE PUSH2 0x563C DUP2 PUSH2 0x5600 JUMP JUMPDEST SWAP1 POP SWAP2 SWAP1 POP JUMP JUMPDEST PUSH32 0x5265717565737420646F65736E74206578697374000000000000000000000000 PUSH1 0x0 DUP3 ADD MSTORE POP JUMP JUMPDEST PUSH1 0x0 PUSH2 0x5679 PUSH1 0x14 DUP4 PUSH2 0x5042 JUMP JUMPDEST SWAP2 POP PUSH2 0x5684 DUP3 PUSH2 0x5643 JUMP JUMPDEST PUSH1 0x20 DUP3 ADD SWAP1 POP SWAP2 SWAP1 POP JUMP JUMPDEST PUSH1 0x0 PUSH1 0x20 DUP3 ADD SWAP1 POP DUP2 DUP2 SUB PUSH1 0x0 DUP4 ADD MSTORE PUSH2 0x56A8 DUP2 PUSH2 0x566C JUMP JUMPDEST SWAP1 POP SWAP2 SWAP1 POP JUMP JUMPDEST PUSH32 0x5468697320706172746963756C6172206F7267616E697A6174696F6E7320646F PUSH1 0x0 DUP3 ADD MSTORE PUSH32 0x65736E7420657869737400000000000000000000000000000000000000000000 PUSH1 0x20 DUP3 ADD MSTORE POP JUMP JUMPDEST PUSH1 0x0 PUSH2 0x570B PUSH1 0x2A DUP4 PUSH2 0x5042 JUMP JUMPDEST SWAP2 POP PUSH2 0x5716 DUP3 PUSH2 0x56AF JUMP JUMPDEST PUSH1 0x40 DUP3 ADD SWAP1 POP SWAP2 SWAP1 POP JUMP JUMPDEST PUSH1 0x0 PUSH1 0x20 DUP3 ADD SWAP1 POP DUP2 DUP2 SUB PUSH1 0x0 DUP4 ADD MSTORE PUSH2 0x573A DUP2 PUSH2 0x56FE JUMP JUMPDEST SWAP1 POP SWAP2 SWAP1 POP JUMP JUMPDEST PUSH1 0x0 PUSH1 0x40 DUP3 ADD SWAP1 POP PUSH2 0x5756 PUSH1 0x0 DUP4 ADD DUP6 PUSH2 0x5126 JUMP JUMPDEST PUSH2 0x5763 PUSH1 0x20 DUP4 ADD DUP5 PUSH2 0x47E0 JUMP JUMPDEST SWAP4 SWAP3 POP POP POP JUMP JUMPDEST PUSH32 0x41646D696E206F6E6C7900000000000000000000000000000000000000000000 PUSH1 0x0 DUP3 ADD MSTORE POP JUMP JUMPDEST PUSH1 0x0 PUSH2 0x57A0 PUSH1 0xA DUP4 PUSH2 0x5042 JUMP JUMPDEST SWAP2 POP PUSH2 0x57AB DUP3 PUSH2 0x576A JUMP JUMPDEST PUSH1 0x20 DUP3 ADD SWAP1 POP SWAP2 SWAP1 POP JUMP JUMPDEST PUSH1 0x0 PUSH1 0x20 DUP3 ADD SWAP1 POP DUP2 DUP2 SUB PUSH1 0x0 DUP4 ADD MSTORE PUSH2 0x57CF DUP2 PUSH2 0x5793 JUMP JUMPDEST SWAP1 POP SWAP2 SWAP1 POP JUMP JUMPDEST PUSH32 0x4F726720646F65736E7420657869737400000000000000000000000000000000 PUSH1 0x0 DUP3 ADD MSTORE POP JUMP JUMPDEST PUSH1 0x0 PUSH2 0x580C PUSH1 0x10 DUP4 PUSH2 0x5042 JUMP JUMPDEST SWAP2 POP PUSH2 0x5817 DUP3 PUSH2 0x57D6 JUMP JUMPDEST PUSH1 0x20 DUP3 ADD SWAP1 POP SWAP2 SWAP1 POP JUMP JUMPDEST PUSH1 0x0 PUSH1 0x20 DUP3 ADD SWAP1 POP DUP2 DUP2 SUB PUSH1 0x0 DUP4 ADD MSTORE PUSH2 0x583B DUP2 PUSH2 0x57FF JUMP JUMPDEST SWAP1 POP SWAP2 SWAP1 POP JUMP JUMPDEST PUSH32 0x4F726720616C7265616479206164646564000000000000000000000000000000 PUSH1 0x0 DUP3 ADD MSTORE POP JUMP JUMPDEST PUSH1 0x0 PUSH2 0x5878 PUSH1 0x11 DUP4 PUSH2 0x5042 JUMP JUMPDEST SWAP2 POP PUSH2 0x5883 DUP3 PUSH2 0x5842 JUMP JUMPDEST PUSH1 0x20 DUP3 ADD SWAP1 POP SWAP2 SWAP1 POP JUMP JUMPDEST PUSH1 0x0 PUSH1 0x20 DUP3 ADD SWAP1 POP DUP2 DUP2 SUB PUSH1 0x0 DUP4 ADD MSTORE PUSH2 0x58A7 DUP2 PUSH2 0x586B JUMP JUMPDEST SWAP1 POP SWAP2 SWAP1 POP JUMP JUMPDEST PUSH1 0x0 DUP2 SWAP1 POP DUP2 PUSH1 0x0 MSTORE PUSH1 0x20 PUSH1 0x0 KECCAK256 SWAP1 POP SWAP2 SWAP1 POP JUMP JUMPDEST PUSH1 0x0 PUSH1 0x20 PUSH1 0x1F DUP4 ADD DIV SWAP1 POP SWAP2 SWAP1 POP JUMP JUMPDEST PUSH1 0x0 DUP3 DUP3 SHL SWAP1 POP SWAP3 SWAP2 POP POP JUMP JUMPDEST PUSH1 0x0 PUSH1 0x8 DUP4 MUL PUSH2 0x5910 PUSH32 0xFFFFFFFFFFFFFFFFFFFFFFFFFFFFFFFFFFFFFFFFFFFFFFFFFFFFFFFFFFFFFFFF DUP3 PUSH2 0x58D3 JUMP JUMPDEST PUSH2 0x591A DUP7 DUP4 PUSH2 0x58D3 JUMP JUMPDEST SWAP6 POP DUP1 NOT DUP5 AND SWAP4 POP DUP1 DUP7 AND DUP5 OR SWAP3 POP POP POP SWAP4 SWAP3 POP POP POP JUMP JUMPDEST PUSH1 0x0 DUP2 SWAP1 POP SWAP2 SWAP1 POP JUMP JUMPDEST PUSH1 0x0 PUSH2 0x5957 PUSH2 0x5952 PUSH2 0x594D DUP5 PUSH2 0x480A JUMP JUMPDEST PUSH2 0x5932 JUMP JUMPDEST PUSH2 0x480A JUMP JUMPDEST SWAP1 POP SWAP2 SWAP1 POP JUMP JUMPDEST PUSH1 0x0 DUP2 SWAP1 POP SWAP2 SWAP1 POP JUMP JUMPDEST PUSH2 0x5971 DUP4 PUSH2 0x593C JUMP JUMPDEST PUSH2 0x5985 PUSH2 0x597D DUP3 PUSH2 0x595E JUMP JUMPDEST DUP5 DUP5 SLOAD PUSH2 0x58E0 JUMP JUMPDEST DUP3 SSTORE POP POP POP POP JUMP JUMPDEST PUSH1 0x0 SWAP1 JUMP JUMPDEST PUSH2 0x599A PUSH2 0x598D JUMP JUMPDEST PUSH2 0x59A5 DUP2 DUP5 DUP5 PUSH2 0x5968 JUMP JUMPDEST POP POP POP JUMP JUMPDEST JUMPDEST DUP2 DUP2 LT ISZERO PUSH2 0x59C9 JUMPI PUSH2 0x59BE PUSH1 0x0 DUP3 PUSH2 0x5992 JUMP JUMPDEST PUSH1 0x1 DUP2 ADD SWAP1 POP PUSH2 0x59AB JUMP JUMPDEST POP POP JUMP JUMPDEST PUSH1 0x1F DUP3 GT ISZERO PUSH2 0x5A0E JUMPI PUSH2 0x59DF DUP2 PUSH2 0x58AE JUMP JUMPDEST PUSH2 0x59E8 DUP5 PUSH2 0x58C3 JUMP JUMPDEST DUP2 ADD PUSH1 0x20 DUP6 LT ISZERO PUSH2 0x59F7 JUMPI DUP2 SWAP1 POP JUMPDEST PUSH2 0x5A0B PUSH2 0x5A03 DUP6 PUSH2 0x58C3 JUMP JUMPDEST DUP4 ADD DUP3 PUSH2 0x59AA JUMP JUMPDEST POP POP JUMPDEST POP POP POP JUMP JUMPDEST PUSH1 0x0 DUP3 DUP3 SHR SWAP1 POP SWAP3 SWAP2 POP POP JUMP JUMPDEST PUSH1 0x0 PUSH2 0x5A31 PUSH1 0x0 NOT DUP5 PUSH1 0x8 MUL PUSH2 0x5A13 JUMP JUMPDEST NOT DUP1 DUP4 AND SWAP2 POP POP SWAP3 SWAP2 POP POP JUMP JUMPDEST PUSH1 0x0 PUSH2 0x5A4A DUP4 DUP4 PUSH2 0x5A20 JUMP JUMPDEST SWAP2 POP DUP3 PUSH1 0x2 MUL DUP3 OR SWAP1 POP SWAP3 SWAP2 POP POP JUMP JUMPDEST PUSH2 0x5A63 DUP3 PUSH2 0x48BF JUMP JUMPDEST PUSH8 0xFFFFFFFFFFFFFFFF DUP2 GT ISZERO PUSH2 0x5A7C JUMPI PUSH2 0x5A7B PUSH2 0x4B05 JUMP JUMPDEST JUMPDEST PUSH2 0x5A86 DUP3 SLOAD PUSH2 0x5514 JUMP JUMPDEST PUSH2 0x5A91 DUP3 DUP3 DUP6 PUSH2 0x59CD JUMP JUMPDEST PUSH1 0x0 PUSH1 0x20 SWAP1 POP PUSH1 0x1F DUP4 GT PUSH1 0x1 DUP2 EQ PUSH2 0x5AC4 JUMPI PUSH1 0x0 DUP5 ISZERO PUSH2 0x5AB2 JUMPI DUP3 DUP8 ADD MLOAD SWAP1 POP JUMPDEST PUSH2 0x5ABC DUP6 DUP3 PUSH2 0x5A3E JUMP JUMPDEST DUP7 SSTORE POP PUSH2 0x5B24 JUMP JUMPDEST PUSH1 0x1F NOT DUP5 AND PUSH2 0x5AD2 DUP7 PUSH2 0x58AE JUMP JUMPDEST PUSH1 0x0 JUMPDEST DUP3 DUP2 LT ISZERO PUSH2 0x5AFA JUMPI DUP5 DUP10 ADD MLOAD DUP3 SSTORE PUSH1 0x1 DUP3 ADD SWAP2 POP PUSH1 0x20 DUP6 ADD SWAP5 POP PUSH1 0x20 DUP2 ADD SWAP1 POP PUSH2 0x5AD5 JUMP JUMPDEST DUP7 DUP4 LT ISZERO PUSH2 0x5B17 JUMPI DUP5 DUP10 ADD MLOAD PUSH2 0x5B13 PUSH1 0x1F DUP10 AND DUP3 PUSH2 0x5A20 JUMP JUMPDEST DUP4 SSTORE POP JUMPDEST PUSH1 0x1 PUSH1 0x2 DUP9 MUL ADD DUP9 SSTORE POP POP POP JUMPDEST POP POP POP POP POP POP JUMP JUMPDEST PUSH1 0x0 PUSH1 0x40 DUP3 ADD SWAP1 POP DUP2 DUP2 SUB PUSH1 0x0 DUP4 ADD MSTORE PUSH2 0x5B46 DUP2 DUP6 PUSH2 0x5053 JUMP JUMPDEST SWAP1 POP PUSH2 0x5B55 PUSH1 0x20 DUP4 ADD DUP5 PUSH2 0x5126 JUMP JUMPDEST SWAP4 SWAP3 POP POP POP JUMP JUMPDEST PUSH32 0x5573657220616C72656164792065786973747300000000000000000000000000 PUSH1 0x0 DUP3 ADD MSTORE POP JUMP JUMPDEST PUSH1 0x0 PUSH2 0x5B92 PUSH1 0x13 DUP4 PUSH2 0x5042 JUMP JUMPDEST SWAP2 POP PUSH2 0x5B9D DUP3 PUSH2 0x5B5C JUMP JUMPDEST PUSH1 0x20 DUP3 ADD SWAP1 POP SWAP2 SWAP1 POP JUMP JUMPDEST PUSH1 0x0 PUSH1 0x20 DUP3 ADD SWAP1 POP DUP2 DUP2 SUB PUSH1 0x0 DUP4 ADD MSTORE PUSH2 0x5BC1 DUP2 PUSH2 0x5B85 JUMP JUMPDEST SWAP1 POP SWAP2 SWAP1 POP JUMP JUMPDEST PUSH32 0x437573746F6D657220646F65736E742065786973747300000000000000000000 PUSH1 0x0 DUP3 ADD MSTORE POP JUMP JUMPDEST PUSH1 0x0 PUSH2 0x5BFE PUSH1 0x16 DUP4 PUSH2 0x5042 JUMP JUMPDEST SWAP2 POP PUSH2 0x5C09 DUP3 PUSH2 0x5BC8 JUMP JUMPDEST PUSH1 0x20 DUP3 ADD SWAP1 POP SWAP2 SWAP1 POP JUMP JUMPDEST PUSH1 0x0 PUSH1 0x20 DUP3 ADD SWAP1 POP DUP2 DUP2 SUB PUSH1 0x0 DUP4 ADD MSTORE PUSH2 0x5C2D DUP2 PUSH2 0x5BF1 JUMP JUMPDEST SWAP1 POP SWAP2 SWAP1 POP JUMP JUMPDEST PUSH32 0x416C726561647920686176652061636365737300000000000000000000000000 PUSH1 0x0 DUP3 ADD MSTORE POP JUMP JUMPDEST PUSH1 0x0 PUSH2 0x5C6A PUSH1 0x13 DUP4 PUSH2 0x5042 JUMP JUMPDEST SWAP2 POP PUSH2 0x5C75 DUP3 PUSH2 0x5C34 JUMP JUMPDEST PUSH1 0x20 DUP3 ADD SWAP1 POP SWAP2 SWAP1 POP JUMP JUMPDEST PUSH1 0x0 PUSH1 0x20 DUP3 ADD SWAP1 POP DUP2 DUP2 SUB PUSH1 0x0 DUP4 ADD MSTORE PUSH2 0x5C99 DUP2 PUSH2 0x5C5D JUMP JUMPDEST SWAP1 POP SWAP2 SWAP1 POP JUMP JUMPDEST PUSH32 0x5265717565737420416C72656164792045786973747300000000000000000000 PUSH1 0x0 DUP3 ADD MSTORE POP JUMP JUMPDEST PUSH1 0x0 PUSH2 0x5CD6 PUSH1 0x16 DUP4 PUSH2 0x5042 JUMP JUMPDEST SWAP2 POP PUSH2 0x5CE1 DUP3 PUSH2 0x5CA0 JUMP JUMPDEST PUSH1 0x20 DUP3 ADD SWAP1 POP SWAP2 SWAP1 POP JUMP JUMPDEST PUSH1 0x0 PUSH1 0x20 DUP3 ADD SWAP1 POP DUP2 DUP2 SUB PUSH1 0x0 DUP4 ADD MSTORE PUSH2 0x5D05 DUP2 PUSH2 0x5CC9 JUMP JUMPDEST SWAP1 POP SWAP2 SWAP1 POP JUMP JUMPDEST PUSH32 0x4E487B7100000000000000000000000000000000000000000000000000000000 PUSH1 0x0 MSTORE PUSH1 0x11 PUSH1 0x4 MSTORE PUSH1 0x24 PUSH1 0x0 REVERT JUMPDEST PUSH1 0x0 PUSH2 0x5D46 DUP3 PUSH2 0x480A JUMP JUMPDEST SWAP2 POP PUSH32 0xFFFFFFFFFFFFFFFFFFFFFFFFFFFFFFFFFFFFFFFFFFFFFFFFFFFFFFFFFFFFFFFF DUP3 SUB PUSH2 0x5D78 JUMPI PUSH2 0x5D77 PUSH2 0x5D0C JUMP JUMPDEST JUMPDEST PUSH1 0x1 DUP3 ADD SWAP1 POP SWAP2 SWAP1 POP JUMP JUMPDEST PUSH32 0x437573746F6D6572206E6F742076616C69640000000000000000000000000000 PUSH1 0x0 DUP3 ADD MSTORE POP JUMP JUMPDEST PUSH1 0x0 PUSH2 0x5DB9 PUSH1 0x12 DUP4 PUSH2 0x5042 JUMP JUMPDEST SWAP2 POP PUSH2 0x5DC4 DUP3 PUSH2 0x5D83 JUMP JUMPDEST PUSH1 0x20 DUP3 ADD SWAP1 POP SWAP2 SWAP1 POP JUMP JUMPDEST PUSH1 0x0 PUSH1 0x20 DUP3 ADD SWAP1 POP DUP2 DUP2 SUB PUSH1 0x0 DUP4 ADD MSTORE PUSH2 0x5DE8 DUP2 PUSH2 0x5DAC JUMP JUMPDEST SWAP1 POP SWAP2 SWAP1 POP JUMP JUMPDEST PUSH32 0x55736572206861736E7420676976656E20746865697220636F6E73656E740000 PUSH1 0x0 DUP3 ADD MSTORE POP JUMP JUMPDEST PUSH1 0x0 PUSH2 0x5E25 PUSH1 0x1E DUP4 PUSH2 0x5042 JUMP JUMPDEST SWAP2 POP PUSH2 0x5E30 DUP3 PUSH2 0x5DEF JUMP JUMPDEST PUSH1 0x20 DUP3 ADD SWAP1 POP SWAP2 SWAP1 POP JUMP JUMPDEST PUSH1 0x0 PUSH1 0x20 DUP3 ADD SWAP1 POP DUP2 DUP2 SUB PUSH1 0x0 DUP4 ADD MSTORE PUSH2 0x5E54 DUP2 PUSH2 0x5E18 JUMP JUMPDEST SWAP1 POP SWAP2 SWAP1 POP JUMP JUMPDEST PUSH1 0x0 PUSH2 0x5E66 DUP3 PUSH2 0x480A JUMP JUMPDEST SWAP2 POP PUSH2 0x5E71 DUP4 PUSH2 0x480A JUMP JUMPDEST SWAP3 POP DUP3 DUP3 SUB SWAP1 POP DUP2 DUP2 GT ISZERO PUSH2 0x5E89 JUMPI PUSH2 0x5E88 PUSH2 0x5D0C JUMP JUMPDEST JUMPDEST SWAP3 SWAP2 POP POP JUMP JUMPDEST PUSH32 0x4E487B7100000000000000000000000000000000000000000000000000000000 PUSH1 0x0 MSTORE PUSH1 0x31 PUSH1 0x4 MSTORE PUSH1 0x24 PUSH1 0x0 REVERT JUMPDEST PUSH1 0x0 PUSH2 0x5EC9 DUP3 PUSH2 0x480A JUMP JUMPDEST SWAP2 POP PUSH1 0x0 DUP3 SUB PUSH2 0x5EDC JUMPI PUSH2 0x5EDB PUSH2 0x5D0C JUMP JUMPDEST JUMPDEST PUSH1 0x1 DUP3 SUB SWAP1 POP SWAP2 SWAP1 POP JUMP JUMPDEST PUSH1 0x0 PUSH1 0x40 DUP3 ADD SWAP1 POP PUSH2 0x5EFC PUSH1 0x0 DUP4 ADD DUP6 PUSH2 0x508C JUMP JUMPDEST PUSH2 0x5F09 PUSH1 0x20 DUP4 ADD DUP5 PUSH2 0x5126 JUMP JUMPDEST SWAP4 SWAP3 POP POP POP JUMP INVALID LOG2 PUSH5 0x6970667358 0x22 SLT KECCAK256 PUSH11 0xFA70E0DF58940FA65BD9B 0xE9 0x28 0xC8 0xB7 0xD0 LOG2 0xEA DUP14 0xD1 DUP14 PUSH13 0xC091F22875E88239BB64736F6C PUSH4 0x43000812 STOP CALLER "
				},
				"gasEstimates": {
					"creation": {
						"codeDepositCost": "4878000",
						"executionCost": "30032",
						"totalCost": "4908032"
					},
					"external": {
						"addOrg(string,address)": "infinite",
						"admin()": "2643",
						"deleteRequestCust(uint256,address)": "infinite",
						"deleteRequestOrg(uint256)": "infinite",
						"getYourOrgDetail()": "infinite",
						"giveAccessKYC(uint256,address,bool)": "infinite",
						"listRequest()": "infinite",
						"registerKYC(address,string,string,string,string,bool,uint256,uint256)": "infinite",
						"removeKYC(address)": "infinite",
						"removeOrg(address)": "infinite",
						"requestKYC(address)": "infinite",
						"revokeAccessKYC(address)": "infinite",
						"updateKYC(address,string,string,string,string,bool,uint256,uint256)": "infinite",
						"validAdmin()": "2565",
						"validCust()": "2707",
						"validOrg()": "2642",
						"viewKYC(address)": "infinite",
						"viewOrg(address)": "infinite",
						"viewOrgWithAccess()": "infinite",
						"viewRequestCust()": "infinite",
						"viewYourKYC()": "infinite"
					},
					"internal": {
						"deleteRequest(uint256,address,address)": "infinite",
						"findOrg(address,address)": "infinite",
						"findOrgIndex(address,address)": "infinite",
						"findRequest(address)": "infinite",
						"findRequestIndex(address,address)": "infinite",
						"remove(address,address)": "infinite",
						"writeKYC(address,string memory,string memory,string memory,string memory,bool,uint256,uint256)": "infinite"
					}
				},
				"methodIdentifiers": {
					"addOrg(string,address)": "a1ac9e57",
					"admin()": "f851a440",
					"deleteRequestCust(uint256,address)": "7042d70c",
					"deleteRequestOrg(uint256)": "54291824",
					"getYourOrgDetail()": "32722a25",
					"giveAccessKYC(uint256,address,bool)": "2a539a22",
					"listRequest()": "f3a9b588",
					"registerKYC(address,string,string,string,string,bool,uint256,uint256)": "a64266e7",
					"removeKYC(address)": "243f6b58",
					"removeOrg(address)": "b7e4a42d",
					"requestKYC(address)": "c10cebe6",
					"revokeAccessKYC(address)": "06e5d4d1",
					"updateKYC(address,string,string,string,string,bool,uint256,uint256)": "84f702ee",
					"validAdmin()": "d6bbbf84",
					"validCust()": "e1b2dbe8",
					"validOrg()": "4f4b4f78",
					"viewKYC(address)": "d9b18f04",
					"viewOrg(address)": "88c4ce54",
					"viewOrgWithAccess()": "3b2b8abf",
					"viewRequestCust()": "ca1cbcc2",
					"viewYourKYC()": "ceacabd5"
				}
			},
			"storageLayout": {
				"storage": [
					{
						"astId": 3,
						"contract": "Kyc.sol:Kyc",
						"label": "admin",
						"offset": 0,
						"slot": "0",
						"type": "t_address"
					},
					{
						"astId": 63,
						"contract": "Kyc.sol:Kyc",
						"label": "customers",
						"offset": 0,
						"slot": "1",
						"type": "t_mapping(t_address,t_struct(Customer)23_storage)"
					},
					{
						"astId": 68,
						"contract": "Kyc.sol:Kyc",
						"label": "organizations",
						"offset": 0,
						"slot": "2",
						"type": "t_mapping(t_address,t_struct(Organization)28_storage)"
					},
					{
						"astId": 73,
						"contract": "Kyc.sol:Kyc",
						"label": "kycrequestsbyorg",
						"offset": 0,
						"slot": "3",
						"type": "t_mapping(t_address,t_struct(kycRequest)37_storage)"
					},
					{
						"astId": 78,
						"contract": "Kyc.sol:Kyc",
						"label": "kycrequestsbycust",
						"offset": 0,
						"slot": "4",
						"type": "t_mapping(t_address,t_struct(kycRequestCust)49_storage)"
					}
				],
				"types": {
					"t_address": {
						"encoding": "inplace",
						"label": "address",
						"numberOfBytes": "20"
					},
					"t_array(t_address)dyn_storage": {
						"base": "t_address",
						"encoding": "dynamic_array",
						"label": "address[]",
						"numberOfBytes": "32"
					},
					"t_array(t_struct(kycRequestList)42_storage)dyn_storage": {
						"base": "t_struct(kycRequestList)42_storage",
						"encoding": "dynamic_array",
						"label": "struct Kyc.kycRequestList[]",
						"numberOfBytes": "32"
					},
					"t_bool": {
						"encoding": "inplace",
						"label": "bool",
						"numberOfBytes": "1"
					},
					"t_mapping(t_address,t_struct(Customer)23_storage)": {
						"encoding": "mapping",
						"key": "t_address",
						"label": "mapping(address => struct Kyc.Customer)",
						"numberOfBytes": "32",
						"value": "t_struct(Customer)23_storage"
					},
					"t_mapping(t_address,t_struct(Organization)28_storage)": {
						"encoding": "mapping",
						"key": "t_address",
						"label": "mapping(address => struct Kyc.Organization)",
						"numberOfBytes": "32",
						"value": "t_struct(Organization)28_storage"
					},
					"t_mapping(t_address,t_struct(kycRequest)37_storage)": {
						"encoding": "mapping",
						"key": "t_address",
						"label": "mapping(address => struct Kyc.kycRequest)",
						"numberOfBytes": "32",
						"value": "t_struct(kycRequest)37_storage"
					},
					"t_mapping(t_address,t_struct(kycRequestCust)49_storage)": {
						"encoding": "mapping",
						"key": "t_address",
						"label": "mapping(address => struct Kyc.kycRequestCust)",
						"numberOfBytes": "32",
						"value": "t_struct(kycRequestCust)49_storage"
					},
					"t_string_storage": {
						"encoding": "bytes",
						"label": "string",
						"numberOfBytes": "32"
					},
					"t_struct(Customer)23_storage": {
						"encoding": "inplace",
						"label": "struct Kyc.Customer",
						"members": [
							{
								"astId": 5,
								"contract": "Kyc.sol:Kyc",
								"label": "custAddress",
								"offset": 0,
								"slot": "0",
								"type": "t_address"
							},
							{
								"astId": 7,
								"contract": "Kyc.sol:Kyc",
								"label": "jsonHash",
								"offset": 0,
								"slot": "1",
								"type": "t_string_storage"
							},
							{
								"astId": 9,
								"contract": "Kyc.sol:Kyc",
								"label": "photoHash",
								"offset": 0,
								"slot": "2",
								"type": "t_string_storage"
							},
							{
								"astId": 11,
								"contract": "Kyc.sol:Kyc",
								"label": "citizenship_front_hash",
								"offset": 0,
								"slot": "3",
								"type": "t_string_storage"
							},
							{
								"astId": 13,
								"contract": "Kyc.sol:Kyc",
								"label": "citizenship_back_hash",
								"offset": 0,
								"slot": "4",
								"type": "t_string_storage"
							},
							{
								"astId": 15,
								"contract": "Kyc.sol:Kyc",
								"label": "d",
								"offset": 0,
								"slot": "5",
								"type": "t_uint256"
							},
							{
								"astId": 17,
								"contract": "Kyc.sol:Kyc",
								"label": "n",
								"offset": 0,
								"slot": "6",
								"type": "t_uint256"
							},
							{
								"astId": 20,
								"contract": "Kyc.sol:Kyc",
								"label": "organization",
								"offset": 0,
								"slot": "7",
								"type": "t_array(t_address)dyn_storage"
							},
							{
								"astId": 22,
								"contract": "Kyc.sol:Kyc",
								"label": "kycStatus",
								"offset": 0,
								"slot": "8",
								"type": "t_bool"
							}
						],
						"numberOfBytes": "288"
					},
					"t_struct(Organization)28_storage": {
						"encoding": "inplace",
						"label": "struct Kyc.Organization",
						"members": [
							{
								"astId": 25,
								"contract": "Kyc.sol:Kyc",
								"label": "name",
								"offset": 0,
								"slot": "0",
								"type": "t_string_storage"
							},
							{
								"astId": 27,
								"contract": "Kyc.sol:Kyc",
								"label": "ethAddress",
								"offset": 0,
								"slot": "1",
								"type": "t_address"
							}
						],
						"numberOfBytes": "64"
					},
					"t_struct(kycRequest)37_storage": {
						"encoding": "inplace",
						"label": "struct Kyc.kycRequest",
						"members": [
							{
								"astId": 30,
								"contract": "Kyc.sol:Kyc",
								"label": "ethAddress",
								"offset": 0,
								"slot": "0",
								"type": "t_address"
							},
							{
								"astId": 32,
								"contract": "Kyc.sol:Kyc",
								"label": "req_count",
								"offset": 0,
								"slot": "1",
								"type": "t_uint256"
							},
							{
								"astId": 36,
								"contract": "Kyc.sol:Kyc",
								"label": "kycrequestlist",
								"offset": 0,
								"slot": "2",
								"type": "t_array(t_struct(kycRequestList)42_storage)dyn_storage"
							}
						],
						"numberOfBytes": "96"
					},
					"t_struct(kycRequestCust)49_storage": {
						"encoding": "inplace",
						"label": "struct Kyc.kycRequestCust",
						"members": [
							{
								"astId": 46,
								"contract": "Kyc.sol:Kyc",
								"label": "kycrequestlist",
								"offset": 0,
								"slot": "0",
								"type": "t_array(t_struct(kycRequestList)42_storage)dyn_storage"
							},
							{
								"astId": 48,
								"contract": "Kyc.sol:Kyc",
								"label": "custAddress",
								"offset": 0,
								"slot": "1",
								"type": "t_address"
							}
						],
						"numberOfBytes": "64"
					},
					"t_struct(kycRequestList)42_storage": {
						"encoding": "inplace",
						"label": "struct Kyc.kycRequestList",
						"members": [
							{
								"astId": 39,
								"contract": "Kyc.sol:Kyc",
								"label": "req_count",
								"offset": 0,
								"slot": "0",
								"type": "t_uint256"
							},
							{
								"astId": 41,
								"contract": "Kyc.sol:Kyc",
								"label": "Address",
								"offset": 0,
								"slot": "1",
								"type": "t_address"
							}
						],
						"numberOfBytes": "64"
					},
					"t_uint256": {
						"encoding": "inplace",
						"label": "uint256",
						"numberOfBytes": "32"
					}
				}
			},
			"userdoc": {
				"kind": "user",
				"methods": {},
				"version": 1
			}
		}
	}
}